{
  "abi": [
    {
      "inputs": [
        {
          "internalType": "address",
          "name": "_eternalStorageAddress",
          "type": "address"
        }
      ],
      "payable": false,
      "stateMutability": "nonpayable",
      "type": "constructor"
    },
    {
      "anonymous": false,
      "inputs": [
        {
          "indexed": false,
          "internalType": "bytes32",
          "name": "Key",
          "type": "bytes32"
        },
        {
          "indexed": false,
          "internalType": "string",
          "name": "CertName",
          "type": "string"
        },
        {
          "indexed": false,
          "internalType": "string",
          "name": "CertSymbol",
          "type": "string"
        },
        {
          "indexed": false,
          "internalType": "address",
          "name": "Creator",
          "type": "address"
        },
        {
          "indexed": false,
          "internalType": "address",
          "name": "CertCollectionAddress",
          "type": "address"
        }
      ],
      "name": "CertCollectionCreated",
      "type": "event"
    },
    {
      "anonymous": false,
      "inputs": [
        {
          "indexed": false,
          "internalType": "address",
          "name": "CertCollectionAddress",
          "type": "address"
        },
        {
          "indexed": false,
          "internalType": "address",
          "name": "Issuer",
          "type": "address"
        },
        {
          "indexed": false,
          "internalType": "address",
          "name": "Receiver",
          "type": "address"
        }
      ],
      "name": "CertIssued",
      "type": "event"
    },
    {
      "constant": false,
      "inputs": [
        {
          "internalType": "address",
          "name": "_certCollection",
          "type": "address"
        },
        {
          "internalType": "address",
          "name": "_user",
          "type": "address"
        },
        {
          "internalType": "string",
          "name": "_uri",
          "type": "string"
        },
        {
          "internalType": "uint256",
          "name": "_salt",
          "type": "uint256"
        }
      ],
      "name": "createCert",
      "outputs": [
        {
          "internalType": "uint256",
          "name": "",
          "type": "uint256"
        }
      ],
      "payable": false,
      "stateMutability": "nonpayable",
      "type": "function"
    },
    {
      "constant": false,
      "inputs": [
        {
          "internalType": "bytes32",
          "name": "_key",
          "type": "bytes32"
        },
        {
          "internalType": "string",
          "name": "_certName",
          "type": "string"
        },
        {
          "internalType": "string",
          "name": "_certSymbol",
          "type": "string"
        },
        {
          "internalType": "uint256",
          "name": "_salt",
          "type": "uint256"
        }
      ],
      "name": "createCertCollection",
      "outputs": [
        {
          "internalType": "address",
          "name": "",
          "type": "address"
        }
      ],
      "payable": false,
      "stateMutability": "nonpayable",
      "type": "function"
    },
    {
      "constant": false,
      "inputs": [
        {
          "internalType": "address",
          "name": "_certCollection",
          "type": "address"
        },
        {
          "internalType": "address[]",
          "name": "_users",
          "type": "address[]"
        },
        {
          "internalType": "string[]",
          "name": "_uris",
          "type": "string[]"
        },
        {
          "internalType": "uint256[]",
          "name": "_salts",
          "type": "uint256[]"
        }
      ],
      "name": "createManyCert",
      "outputs": [],
      "payable": false,
      "stateMutability": "nonpayable",
      "type": "function"
    },
    {
      "constant": true,
      "inputs": [
        {
          "internalType": "bytes32",
          "name": "_key",
          "type": "bytes32"
        }
      ],
      "name": "getCertCollection",
      "outputs": [
        {
          "internalType": "address",
          "name": "",
          "type": "address"
        }
      ],
      "payable": false,
      "stateMutability": "view",
      "type": "function"
    },
    {
      "constant": false,
      "inputs": [
        {
          "internalType": "address",
          "name": "_examNft",
          "type": "address"
        },
        {
          "internalType": "uint256",
          "name": "_tokenId",
          "type": "uint256"
        },
        {
          "internalType": "string",
          "name": "_action",
          "type": "string"
        },
        {
          "internalType": "string",
          "name": "_from",
          "type": "string"
        },
        {
          "internalType": "string",
          "name": "_to",
          "type": "string"
        },
        {
          "internalType": "string",
          "name": "_description",
          "type": "string"
        },
        {
          "internalType": "string",
          "name": "_date",
          "type": "string"
        },
        {
          "internalType": "address",
          "name": "_signer",
          "type": "address"
        },
        {
          "internalType": "bytes",
          "name": "_signature",
          "type": "bytes"
        }
      ],
      "name": "insertEventToCert",
      "outputs": [],
      "payable": false,
      "stateMutability": "nonpayable",
      "type": "function"
    }
  ],
  "bytecode": "60c0604052600b60808190526a4e46542d464143544f525960a81b60a09081526200002e91600191906200013c565b5060408051808201909152600c8082526b545245452d464143544f525960a01b602090920191825262000064916002916200013c565b506040805180820190915260108082526f4944454e544954592d464143544f525960801b60209092019182526200009e916003916200013c565b506040805180820190915260168082527f4b45592d544f2d434552542d434f4c4c454354494f4e000000000000000000006020909201918252620000e5916004916200013c565b50348015620000f357600080fd5b50604051620012de380380620012de8339810160408190526200011691620001f4565b600080546001600160a01b0319166001600160a01b039290921691909117905562000249565b828054600181600116156101000203166002900490600052602060002090601f016020900481019282601f106200017f57805160ff1916838001178555620001af565b82800160010185558215620001af579182015b82811115620001af57825182559160200191906001019062000192565b50620001bd929150620001c1565b5090565b620001de91905b80821115620001bd5760008155600101620001c8565b90565b8051620001ee816200022f565b92915050565b6000602082840312156200020757600080fd5b6000620002158484620001e1565b949350505050565b60006001600160a01b038216620001ee565b6200023a816200021d565b81146200024657600080fd5b50565b61108580620002596000396000f3fe608060405234801561001057600080fd5b50600436106100575760003560e01c80630e7dc9011461005c5780632bd60296146100715780636c59497b1461009a57806391fb24fd146100ba578063ff39cfa9146100cd575b600080fd5b61006f61006a366004610a6b565b6100e0565b005b61008461007f366004610959565b610180565b6040516100919190610d58565b60405180910390f35b6100ad6100a8366004610bd7565b6101d7565b6040516100919190610d22565b6100ad6100c8366004610bb9565b61021f565b61006f6100db3660046109d1565b610230565b604051630a51f73f60e21b815289906000906001600160a01b03831690632947dcfc90610111908d90600401610d58565b60206040518083038186803b15801561012957600080fd5b505afa15801561013d573d6000803e3d6000fd5b505050506040513d601f19601f82011682018060405250610161919081019061093b565b9050610173818a8a8a8a8a8a8a610291565b5050505050505050505050565b60008061018f86868686610308565b90507f45e636070612eb716c6e4f0114f1d44c2df581351ad6042270da1f1b94eace588632876040516101c493929190610d30565b60405180910390a190505b949350505050565b6000806101e6868686866103a9565b90507fb5c9dbc68910e2656220f48198e05078e6c00acc25b40cc819ced18c80bdd85286868632856040516101c4959493929190610d88565b600061022a826104f6565b92915050565b60005b835181101561028a576102818585838151811061024c57fe5b602002602001015185848151811061026057fe5b602002602001015185858151811061027457fe5b6020026020010151610180565b50600101610233565b5050505050565b604051631e44979d60e01b815288906001600160a01b03821690631e44979d906102cb908b908b908b908b908b908b908b90600401610e57565b600060405180830381600087803b1580156102e557600080fd5b505af11580156102f9573d6000803e3d6000fd5b50505050505050505050505050565b60008481610315846105a2565b90506000826001600160a01b0316632f444772878985896040518563ffffffff1660e01b815260040161034b9493929190610e1d565b602060405180830381600087803b15801561036557600080fd5b505af1158015610379573d6000803e3d6000fd5b505050506040513d601f19601f8201168201806040525061039d9190810190610c21565b98975050505050505050565b60008060016040516020016103be9190610f1a565b60408051601f198184030181529082905280516020909101206000805463263bf2dd60e11b8452919350916001600160a01b0390911690634c77e5ba90610409908590600401610d58565b60206040518083038186803b15801561042157600080fd5b505afa158015610435573d6000803e3d6000fd5b505050506040513d601f19601f82011682018060405250610459919081019061093b565b90506000816001600160a01b0316634ef980978888886040518463ffffffff1660e01b815260040161048d93929190610ee6565b602060405180830381600087803b1580156104a757600080fd5b505af11580156104bb573d6000803e3d6000fd5b505050506040513d601f19601f820116820180604052506104df919081019061093b565b90506104eb88826106e1565b979650505050505050565b600080546040516001600160a01b0390911690634c77e5ba90610520908590600490602001610de2565b604051602081830303815290604052805190602001206040518263ffffffff1660e01b81526004016105529190610d58565b60206040518083038186803b15801561056a57600080fd5b505afa15801561057e573d6000803e3d6000fd5b505050506040513d601f19601f8201168201806040525061022a919081019061093b565b60008060026040516020016105b79190610f1a565b60408051601f198184030181529082905280516020909101206000805463263bf2dd60e11b8452919350916001600160a01b0390911690634c77e5ba90610602908590600401610d58565b60206040518083038186803b15801561061a57600080fd5b505afa15801561062e573d6000803e3d6000fd5b505050506040513d601f19601f82011682018060405250610652919081019061093b565b60405163f79b99e960e01b81529091506000906001600160a01b0383169063f79b99e9906106869084908990600401610e02565b602060405180830381600087803b1580156106a057600080fd5b505af11580156106b4573d6000803e3d6000fd5b505050506040513d601f19601f820116820180604052506106d8919081019061093b565b95945050505050565b6000546040516001600160a01b039091169063ba44593c9061070a908590600490602001610de2565b60405160208183030381529060405280519060200120836040518363ffffffff1660e01b815260040161073e929190610d66565b600060405180830381600087803b15801561075857600080fd5b505af115801561076c573d6000803e3d6000fd5b505050505050565b803561022a81611022565b805161022a81611022565b600082601f83011261079b57600080fd5b81356107ae6107a982610f51565b610f2b565b915081818352602084019350602081019050838560208402820111156107d357600080fd5b60005b838110156107ff57816107e98882610774565b84525060209283019291909101906001016107d6565b5050505092915050565b600082601f83011261081a57600080fd5b81356108286107a982610f51565b81815260209384019390925082018360005b838110156107ff578135860161085088826108e1565b845250602092830192919091019060010161083a565b600082601f83011261087757600080fd5b81356108856107a982610f51565b915081818352602084019350602081019050838560208402820111156108aa57600080fd5b60005b838110156107ff57816108c088826108d6565b84525060209283019291909101906001016108ad565b803561022a81611039565b600082601f8301126108f257600080fd5b81356109006107a982610f71565b9150808252602083016020830185838301111561091c57600080fd5b610927838284610fdc565b50505092915050565b805161022a81611039565b60006020828403121561094d57600080fd5b60006101cf848461077f565b6000806000806080858703121561096f57600080fd5b600061097b8787610774565b945050602061098c87828801610774565b93505060408501356001600160401b038111156109a857600080fd5b6109b4878288016108e1565b92505060606109c5878288016108d6565b91505092959194509250565b600080600080608085870312156109e757600080fd5b60006109f38787610774565b94505060208501356001600160401b03811115610a0f57600080fd5b610a1b8782880161078a565b93505060408501356001600160401b03811115610a3757600080fd5b610a4387828801610809565b92505060608501356001600160401b03811115610a5f57600080fd5b6109c587828801610866565b60008060008060008060008060006101208a8c031215610a8a57600080fd5b6000610a968c8c610774565b9950506020610aa78c828d016108d6565b98505060408a01356001600160401b03811115610ac357600080fd5b610acf8c828d016108e1565b97505060608a01356001600160401b03811115610aeb57600080fd5b610af78c828d016108e1565b96505060808a01356001600160401b03811115610b1357600080fd5b610b1f8c828d016108e1565b95505060a08a01356001600160401b03811115610b3b57600080fd5b610b478c828d016108e1565b94505060c08a01356001600160401b03811115610b6357600080fd5b610b6f8c828d016108e1565b93505060e0610b808c828d01610774565b9250506101008a01356001600160401b03811115610b9d57600080fd5b610ba98c828d016108e1565b9150509295985092959850929598565b600060208284031215610bcb57600080fd5b60006101cf84846108d6565b60008060008060808587031215610bed57600080fd5b6000610bf987876108d6565b94505060208501356001600160401b03811115610c1557600080fd5b61098c878288016108e1565b600060208284031215610c3357600080fd5b60006101cf8484610930565b610c4881610fcb565b82525050565b610c4881610fb1565b610c4881610fbc565b6000610c6b82610fa4565b610c758185610fa8565b9350610c85818560208601610fe8565b610c8e81611018565b9093019392505050565b600081546001811660008114610cb55760018114610cdb57610d1a565b607f6002830416610cc68187610fa8565b60ff1984168152955050602085019250610d1a565b60028204610ce98187610fa8565b9550610cf485610f98565b60005b82811015610d1357815488820152600190910190602001610cf7565b8701945050505b505092915050565b6020810161022a8284610c4e565b60608101610d3e8286610c4e565b610d4b6020830185610c3f565b6101cf6040830184610c4e565b6020810161022a8284610c57565b60408101610d748285610c57565b610d816020830184610c4e565b9392505050565b60a08101610d968288610c57565b8181036020830152610da88187610c60565b90508181036040830152610dbc8186610c60565b9050610dcb6060830185610c3f565b610dd86080830184610c4e565b9695505050505050565b60408101610df08285610c57565b81810360208301526101cf8184610c98565b60408101610e108285610c57565b610d816020830184610c57565b60808082528101610e2e8187610c60565b9050610e3d6020830186610c4e565b610e4a6040830185610c4e565b6106d86060830184610c57565b60e08082528101610e68818a610c60565b90508181036020830152610e7c8189610c60565b90508181036040830152610e908188610c60565b90508181036060830152610ea48187610c60565b90508181036080830152610eb88186610c60565b9050610ec760a0830185610c4e565b81810360c0830152610ed98184610c60565b9998505050505050505050565b60608082528101610ef78186610c60565b90508181036020830152610f0b8185610c60565b90506101cf6040830184610c57565b60208082528101610d818184610c98565b6040518181016001600160401b0381118282101715610f4957600080fd5b604052919050565b60006001600160401b03821115610f6757600080fd5b5060209081020190565b60006001600160401b03821115610f8757600080fd5b506020601f91909101601f19160190565b60009081526020902090565b5190565b90815260200190565b600061022a82610fbf565b90565b6001600160a01b031690565b600061022a82600061022a82610fb1565b82818337506000910152565b60005b83811015611003578181015183820152602001610feb565b83811115611012576000848401525b50505050565b601f01601f191690565b61102b81610fb1565b811461103657600080fd5b50565b61102b81610fbc56fea365627a7a723158205e7f188f81b6f03c3873c177d8b3d0cb3d700063a8f9808cb040c74bd4ec432c6c6578706572696d656e74616cf564736f6c63430005110040",
  "bytecodeSha1": "4d38575368dc42190d57ac4e1827b32c7e3dd505",
  "compiler": {
    "evm_version": "istanbul",
    "optimizer": {
      "enabled": true,
      "runs": 200
    },
    "version": "0.5.17+commit.d19bba13"
  },
  "contractName": "CertController",
  "language": "Solidity",
  "natspec": {
    "methods": {}
  },
  "opcodes": "PUSH1 0x80 PUSH1 0x40 MSTORE CALLVALUE DUP1 ISZERO PUSH2 0x10 JUMPI PUSH1 0x0 DUP1 REVERT JUMPDEST POP PUSH1 0x4 CALLDATASIZE LT PUSH2 0x57 JUMPI PUSH1 0x0 CALLDATALOAD PUSH1 0xE0 SHR DUP1 PUSH4 0xE7DC901 EQ PUSH2 0x5C JUMPI DUP1 PUSH4 0x2BD60296 EQ PUSH2 0x71 JUMPI DUP1 PUSH4 0x6C59497B EQ PUSH2 0x9A JUMPI DUP1 PUSH4 0x91FB24FD EQ PUSH2 0xBA JUMPI DUP1 PUSH4 0xFF39CFA9 EQ PUSH2 0xCD JUMPI JUMPDEST PUSH1 0x0 DUP1 REVERT JUMPDEST PUSH2 0x6F PUSH2 0x6A CALLDATASIZE PUSH1 0x4 PUSH2 0xA6B JUMP JUMPDEST PUSH2 0xE0 JUMP JUMPDEST STOP JUMPDEST PUSH2 0x84 PUSH2 0x7F CALLDATASIZE PUSH1 0x4 PUSH2 0x959 JUMP JUMPDEST PUSH2 0x180 JUMP JUMPDEST PUSH1 0x40 MLOAD PUSH2 0x91 SWAP2 SWAP1 PUSH2 0xD58 JUMP JUMPDEST PUSH1 0x40 MLOAD DUP1 SWAP2 SUB SWAP1 RETURN JUMPDEST PUSH2 0xAD PUSH2 0xA8 CALLDATASIZE PUSH1 0x4 PUSH2 0xBD7 JUMP JUMPDEST PUSH2 0x1D7 JUMP JUMPDEST PUSH1 0x40 MLOAD PUSH2 0x91 SWAP2 SWAP1 PUSH2 0xD22 JUMP JUMPDEST PUSH2 0xAD PUSH2 0xC8 CALLDATASIZE PUSH1 0x4 PUSH2 0xBB9 JUMP JUMPDEST PUSH2 0x21F JUMP JUMPDEST PUSH2 0x6F PUSH2 0xDB CALLDATASIZE PUSH1 0x4 PUSH2 0x9D1 JUMP JUMPDEST PUSH2 0x230 JUMP JUMPDEST PUSH1 0x40 MLOAD PUSH4 0xA51F73F PUSH1 0xE2 SHL DUP2 MSTORE DUP10 SWAP1 PUSH1 0x0 SWAP1 PUSH1 0x1 PUSH1 0x1 PUSH1 0xA0 SHL SUB DUP4 AND SWAP1 PUSH4 0x2947DCFC SWAP1 PUSH2 0x111 SWAP1 DUP14 SWAP1 PUSH1 0x4 ADD PUSH2 0xD58 JUMP JUMPDEST PUSH1 0x20 PUSH1 0x40 MLOAD DUP1 DUP4 SUB DUP2 DUP7 DUP1 EXTCODESIZE ISZERO DUP1 ISZERO PUSH2 0x129 JUMPI PUSH1 0x0 DUP1 REVERT JUMPDEST POP GAS STATICCALL ISZERO DUP1 ISZERO PUSH2 0x13D JUMPI RETURNDATASIZE PUSH1 0x0 DUP1 RETURNDATACOPY RETURNDATASIZE PUSH1 0x0 REVERT JUMPDEST POP POP POP POP PUSH1 0x40 MLOAD RETURNDATASIZE PUSH1 0x1F NOT PUSH1 0x1F DUP3 ADD AND DUP3 ADD DUP1 PUSH1 0x40 MSTORE POP PUSH2 0x161 SWAP2 SWAP1 DUP2 ADD SWAP1 PUSH2 0x93B JUMP JUMPDEST SWAP1 POP PUSH2 0x173 DUP2 DUP11 DUP11 DUP11 DUP11 DUP11 DUP11 DUP11 PUSH2 0x291 JUMP JUMPDEST POP POP POP POP POP POP POP POP POP POP POP JUMP JUMPDEST PUSH1 0x0 DUP1 PUSH2 0x18F DUP7 DUP7 DUP7 DUP7 PUSH2 0x308 JUMP JUMPDEST SWAP1 POP PUSH32 0x45E636070612EB716C6E4F0114F1D44C2DF581351AD6042270DA1F1B94EACE58 DUP7 ORIGIN DUP8 PUSH1 0x40 MLOAD PUSH2 0x1C4 SWAP4 SWAP3 SWAP2 SWAP1 PUSH2 0xD30 JUMP JUMPDEST PUSH1 0x40 MLOAD DUP1 SWAP2 SUB SWAP1 LOG1 SWAP1 POP JUMPDEST SWAP5 SWAP4 POP POP POP POP JUMP JUMPDEST PUSH1 0x0 DUP1 PUSH2 0x1E6 DUP7 DUP7 DUP7 DUP7 PUSH2 0x3A9 JUMP JUMPDEST SWAP1 POP PUSH32 0xB5C9DBC68910E2656220F48198E05078E6C00ACC25B40CC819CED18C80BDD852 DUP7 DUP7 DUP7 ORIGIN DUP6 PUSH1 0x40 MLOAD PUSH2 0x1C4 SWAP6 SWAP5 SWAP4 SWAP3 SWAP2 SWAP1 PUSH2 0xD88 JUMP JUMPDEST PUSH1 0x0 PUSH2 0x22A DUP3 PUSH2 0x4F6 JUMP JUMPDEST SWAP3 SWAP2 POP POP JUMP JUMPDEST PUSH1 0x0 JUMPDEST DUP4 MLOAD DUP2 LT ISZERO PUSH2 0x28A JUMPI PUSH2 0x281 DUP6 DUP6 DUP4 DUP2 MLOAD DUP2 LT PUSH2 0x24C JUMPI INVALID JUMPDEST PUSH1 0x20 MUL PUSH1 0x20 ADD ADD MLOAD DUP6 DUP5 DUP2 MLOAD DUP2 LT PUSH2 0x260 JUMPI INVALID JUMPDEST PUSH1 0x20 MUL PUSH1 0x20 ADD ADD MLOAD DUP6 DUP6 DUP2 MLOAD DUP2 LT PUSH2 0x274 JUMPI INVALID JUMPDEST PUSH1 0x20 MUL PUSH1 0x20 ADD ADD MLOAD PUSH2 0x180 JUMP JUMPDEST POP PUSH1 0x1 ADD PUSH2 0x233 JUMP JUMPDEST POP POP POP POP POP JUMP JUMPDEST PUSH1 0x40 MLOAD PUSH4 0x1E44979D PUSH1 0xE0 SHL DUP2 MSTORE DUP9 SWAP1 PUSH1 0x1 PUSH1 0x1 PUSH1 0xA0 SHL SUB DUP3 AND SWAP1 PUSH4 0x1E44979D SWAP1 PUSH2 0x2CB SWAP1 DUP12 SWAP1 DUP12 SWAP1 DUP12 SWAP1 DUP12 SWAP1 DUP12 SWAP1 DUP12 SWAP1 DUP12 SWAP1 PUSH1 0x4 ADD PUSH2 0xE57 JUMP JUMPDEST PUSH1 0x0 PUSH1 0x40 MLOAD DUP1 DUP4 SUB DUP2 PUSH1 0x0 DUP8 DUP1 EXTCODESIZE ISZERO DUP1 ISZERO PUSH2 0x2E5 JUMPI PUSH1 0x0 DUP1 REVERT JUMPDEST POP GAS CALL ISZERO DUP1 ISZERO PUSH2 0x2F9 JUMPI RETURNDATASIZE PUSH1 0x0 DUP1 RETURNDATACOPY RETURNDATASIZE PUSH1 0x0 REVERT JUMPDEST POP POP POP POP POP POP POP POP POP POP POP POP POP JUMP JUMPDEST PUSH1 0x0 DUP5 DUP2 PUSH2 0x315 DUP5 PUSH2 0x5A2 JUMP JUMPDEST SWAP1 POP PUSH1 0x0 DUP3 PUSH1 0x1 PUSH1 0x1 PUSH1 0xA0 SHL SUB AND PUSH4 0x2F444772 DUP8 DUP10 DUP6 DUP10 PUSH1 0x40 MLOAD DUP6 PUSH4 0xFFFFFFFF AND PUSH1 0xE0 SHL DUP2 MSTORE PUSH1 0x4 ADD PUSH2 0x34B SWAP5 SWAP4 SWAP3 SWAP2 SWAP1 PUSH2 0xE1D JUMP JUMPDEST PUSH1 0x20 PUSH1 0x40 MLOAD DUP1 DUP4 SUB DUP2 PUSH1 0x0 DUP8 DUP1 EXTCODESIZE ISZERO DUP1 ISZERO PUSH2 0x365 JUMPI PUSH1 0x0 DUP1 REVERT JUMPDEST POP GAS CALL ISZERO DUP1 ISZERO PUSH2 0x379 JUMPI RETURNDATASIZE PUSH1 0x0 DUP1 RETURNDATACOPY RETURNDATASIZE PUSH1 0x0 REVERT JUMPDEST POP POP POP POP PUSH1 0x40 MLOAD RETURNDATASIZE PUSH1 0x1F NOT PUSH1 0x1F DUP3 ADD AND DUP3 ADD DUP1 PUSH1 0x40 MSTORE POP PUSH2 0x39D SWAP2 SWAP1 DUP2 ADD SWAP1 PUSH2 0xC21 JUMP JUMPDEST SWAP9 SWAP8 POP POP POP POP POP POP POP POP JUMP JUMPDEST PUSH1 0x0 DUP1 PUSH1 0x1 PUSH1 0x40 MLOAD PUSH1 0x20 ADD PUSH2 0x3BE SWAP2 SWAP1 PUSH2 0xF1A JUMP JUMPDEST PUSH1 0x40 DUP1 MLOAD PUSH1 0x1F NOT DUP2 DUP5 SUB ADD DUP2 MSTORE SWAP1 DUP3 SWAP1 MSTORE DUP1 MLOAD PUSH1 0x20 SWAP1 SWAP2 ADD KECCAK256 PUSH1 0x0 DUP1 SLOAD PUSH4 0x263BF2DD PUSH1 0xE1 SHL DUP5 MSTORE SWAP2 SWAP4 POP SWAP2 PUSH1 0x1 PUSH1 0x1 PUSH1 0xA0 SHL SUB SWAP1 SWAP2 AND SWAP1 PUSH4 0x4C77E5BA SWAP1 PUSH2 0x409 SWAP1 DUP6 SWAP1 PUSH1 0x4 ADD PUSH2 0xD58 JUMP JUMPDEST PUSH1 0x20 PUSH1 0x40 MLOAD DUP1 DUP4 SUB DUP2 DUP7 DUP1 EXTCODESIZE ISZERO DUP1 ISZERO PUSH2 0x421 JUMPI PUSH1 0x0 DUP1 REVERT JUMPDEST POP GAS STATICCALL ISZERO DUP1 ISZERO PUSH2 0x435 JUMPI RETURNDATASIZE PUSH1 0x0 DUP1 RETURNDATACOPY RETURNDATASIZE PUSH1 0x0 REVERT JUMPDEST POP POP POP POP PUSH1 0x40 MLOAD RETURNDATASIZE PUSH1 0x1F NOT PUSH1 0x1F DUP3 ADD AND DUP3 ADD DUP1 PUSH1 0x40 MSTORE POP PUSH2 0x459 SWAP2 SWAP1 DUP2 ADD SWAP1 PUSH2 0x93B JUMP JUMPDEST SWAP1 POP PUSH1 0x0 DUP2 PUSH1 0x1 PUSH1 0x1 PUSH1 0xA0 SHL SUB AND PUSH4 0x4EF98097 DUP9 DUP9 DUP9 PUSH1 0x40 MLOAD DUP5 PUSH4 0xFFFFFFFF AND PUSH1 0xE0 SHL DUP2 MSTORE PUSH1 0x4 ADD PUSH2 0x48D SWAP4 SWAP3 SWAP2 SWAP1 PUSH2 0xEE6 JUMP JUMPDEST PUSH1 0x20 PUSH1 0x40 MLOAD DUP1 DUP4 SUB DUP2 PUSH1 0x0 DUP8 DUP1 EXTCODESIZE ISZERO DUP1 ISZERO PUSH2 0x4A7 JUMPI PUSH1 0x0 DUP1 REVERT JUMPDEST POP GAS CALL ISZERO DUP1 ISZERO PUSH2 0x4BB JUMPI RETURNDATASIZE PUSH1 0x0 DUP1 RETURNDATACOPY RETURNDATASIZE PUSH1 0x0 REVERT JUMPDEST POP POP POP POP PUSH1 0x40 MLOAD RETURNDATASIZE PUSH1 0x1F NOT PUSH1 0x1F DUP3 ADD AND DUP3 ADD DUP1 PUSH1 0x40 MSTORE POP PUSH2 0x4DF SWAP2 SWAP1 DUP2 ADD SWAP1 PUSH2 0x93B JUMP JUMPDEST SWAP1 POP PUSH2 0x4EB DUP9 DUP3 PUSH2 0x6E1 JUMP JUMPDEST SWAP8 SWAP7 POP POP POP POP POP POP POP JUMP JUMPDEST PUSH1 0x0 DUP1 SLOAD PUSH1 0x40 MLOAD PUSH1 0x1 PUSH1 0x1 PUSH1 0xA0 SHL SUB SWAP1 SWAP2 AND SWAP1 PUSH4 0x4C77E5BA SWAP1 PUSH2 0x520 SWAP1 DUP6 SWAP1 PUSH1 0x4 SWAP1 PUSH1 0x20 ADD PUSH2 0xDE2 JUMP JUMPDEST PUSH1 0x40 MLOAD PUSH1 0x20 DUP2 DUP4 SUB SUB DUP2 MSTORE SWAP1 PUSH1 0x40 MSTORE DUP1 MLOAD SWAP1 PUSH1 0x20 ADD KECCAK256 PUSH1 0x40 MLOAD DUP3 PUSH4 0xFFFFFFFF AND PUSH1 0xE0 SHL DUP2 MSTORE PUSH1 0x4 ADD PUSH2 0x552 SWAP2 SWAP1 PUSH2 0xD58 JUMP JUMPDEST PUSH1 0x20 PUSH1 0x40 MLOAD DUP1 DUP4 SUB DUP2 DUP7 DUP1 EXTCODESIZE ISZERO DUP1 ISZERO PUSH2 0x56A JUMPI PUSH1 0x0 DUP1 REVERT JUMPDEST POP GAS STATICCALL ISZERO DUP1 ISZERO PUSH2 0x57E JUMPI RETURNDATASIZE PUSH1 0x0 DUP1 RETURNDATACOPY RETURNDATASIZE PUSH1 0x0 REVERT JUMPDEST POP POP POP POP PUSH1 0x40 MLOAD RETURNDATASIZE PUSH1 0x1F NOT PUSH1 0x1F DUP3 ADD AND DUP3 ADD DUP1 PUSH1 0x40 MSTORE POP PUSH2 0x22A SWAP2 SWAP1 DUP2 ADD SWAP1 PUSH2 0x93B JUMP JUMPDEST PUSH1 0x0 DUP1 PUSH1 0x2 PUSH1 0x40 MLOAD PUSH1 0x20 ADD PUSH2 0x5B7 SWAP2 SWAP1 PUSH2 0xF1A JUMP JUMPDEST PUSH1 0x40 DUP1 MLOAD PUSH1 0x1F NOT DUP2 DUP5 SUB ADD DUP2 MSTORE SWAP1 DUP3 SWAP1 MSTORE DUP1 MLOAD PUSH1 0x20 SWAP1 SWAP2 ADD KECCAK256 PUSH1 0x0 DUP1 SLOAD PUSH4 0x263BF2DD PUSH1 0xE1 SHL DUP5 MSTORE SWAP2 SWAP4 POP SWAP2 PUSH1 0x1 PUSH1 0x1 PUSH1 0xA0 SHL SUB SWAP1 SWAP2 AND SWAP1 PUSH4 0x4C77E5BA SWAP1 PUSH2 0x602 SWAP1 DUP6 SWAP1 PUSH1 0x4 ADD PUSH2 0xD58 JUMP JUMPDEST PUSH1 0x20 PUSH1 0x40 MLOAD DUP1 DUP4 SUB DUP2 DUP7 DUP1 EXTCODESIZE ISZERO DUP1 ISZERO PUSH2 0x61A JUMPI PUSH1 0x0 DUP1 REVERT JUMPDEST POP GAS STATICCALL ISZERO DUP1 ISZERO PUSH2 0x62E JUMPI RETURNDATASIZE PUSH1 0x0 DUP1 RETURNDATACOPY RETURNDATASIZE PUSH1 0x0 REVERT JUMPDEST POP POP POP POP PUSH1 0x40 MLOAD RETURNDATASIZE PUSH1 0x1F NOT PUSH1 0x1F DUP3 ADD AND DUP3 ADD DUP1 PUSH1 0x40 MSTORE POP PUSH2 0x652 SWAP2 SWAP1 DUP2 ADD SWAP1 PUSH2 0x93B JUMP JUMPDEST PUSH1 0x40 MLOAD PUSH4 0xF79B99E9 PUSH1 0xE0 SHL DUP2 MSTORE SWAP1 SWAP2 POP PUSH1 0x0 SWAP1 PUSH1 0x1 PUSH1 0x1 PUSH1 0xA0 SHL SUB DUP4 AND SWAP1 PUSH4 0xF79B99E9 SWAP1 PUSH2 0x686 SWAP1 DUP5 SWAP1 DUP10 SWAP1 PUSH1 0x4 ADD PUSH2 0xE02 JUMP JUMPDEST PUSH1 0x20 PUSH1 0x40 MLOAD DUP1 DUP4 SUB DUP2 PUSH1 0x0 DUP8 DUP1 EXTCODESIZE ISZERO DUP1 ISZERO PUSH2 0x6A0 JUMPI PUSH1 0x0 DUP1 REVERT JUMPDEST POP GAS CALL ISZERO DUP1 ISZERO PUSH2 0x6B4 JUMPI RETURNDATASIZE PUSH1 0x0 DUP1 RETURNDATACOPY RETURNDATASIZE PUSH1 0x0 REVERT JUMPDEST POP POP POP POP PUSH1 0x40 MLOAD RETURNDATASIZE PUSH1 0x1F NOT PUSH1 0x1F DUP3 ADD AND DUP3 ADD DUP1 PUSH1 0x40 MSTORE POP PUSH2 0x6D8 SWAP2 SWAP1 DUP2 ADD SWAP1 PUSH2 0x93B JUMP JUMPDEST SWAP6 SWAP5 POP POP POP POP POP JUMP JUMPDEST PUSH1 0x0 SLOAD PUSH1 0x40 MLOAD PUSH1 0x1 PUSH1 0x1 PUSH1 0xA0 SHL SUB SWAP1 SWAP2 AND SWAP1 PUSH4 0xBA44593C SWAP1 PUSH2 0x70A SWAP1 DUP6 SWAP1 PUSH1 0x4 SWAP1 PUSH1 0x20 ADD PUSH2 0xDE2 JUMP JUMPDEST PUSH1 0x40 MLOAD PUSH1 0x20 DUP2 DUP4 SUB SUB DUP2 MSTORE SWAP1 PUSH1 0x40 MSTORE DUP1 MLOAD SWAP1 PUSH1 0x20 ADD KECCAK256 DUP4 PUSH1 0x40 MLOAD DUP4 PUSH4 0xFFFFFFFF AND PUSH1 0xE0 SHL DUP2 MSTORE PUSH1 0x4 ADD PUSH2 0x73E SWAP3 SWAP2 SWAP1 PUSH2 0xD66 JUMP JUMPDEST PUSH1 0x0 PUSH1 0x40 MLOAD DUP1 DUP4 SUB DUP2 PUSH1 0x0 DUP8 DUP1 EXTCODESIZE ISZERO DUP1 ISZERO PUSH2 0x758 JUMPI PUSH1 0x0 DUP1 REVERT JUMPDEST POP GAS CALL ISZERO DUP1 ISZERO PUSH2 0x76C JUMPI RETURNDATASIZE PUSH1 0x0 DUP1 RETURNDATACOPY RETURNDATASIZE PUSH1 0x0 REVERT JUMPDEST POP POP POP POP POP POP JUMP JUMPDEST DUP1 CALLDATALOAD PUSH2 0x22A DUP2 PUSH2 0x1022 JUMP JUMPDEST DUP1 MLOAD PUSH2 0x22A DUP2 PUSH2 0x1022 JUMP JUMPDEST PUSH1 0x0 DUP3 PUSH1 0x1F DUP4 ADD SLT PUSH2 0x79B JUMPI PUSH1 0x0 DUP1 REVERT JUMPDEST DUP2 CALLDATALOAD PUSH2 0x7AE PUSH2 0x7A9 DUP3 PUSH2 0xF51 JUMP JUMPDEST PUSH2 0xF2B JUMP JUMPDEST SWAP2 POP DUP2 DUP2 DUP4 MSTORE PUSH1 0x20 DUP5 ADD SWAP4 POP PUSH1 0x20 DUP2 ADD SWAP1 POP DUP4 DUP6 PUSH1 0x20 DUP5 MUL DUP3 ADD GT ISZERO PUSH2 0x7D3 JUMPI PUSH1 0x0 DUP1 REVERT JUMPDEST PUSH1 0x0 JUMPDEST DUP4 DUP2 LT ISZERO PUSH2 0x7FF JUMPI DUP2 PUSH2 0x7E9 DUP9 DUP3 PUSH2 0x774 JUMP JUMPDEST DUP5 MSTORE POP PUSH1 0x20 SWAP3 DUP4 ADD SWAP3 SWAP2 SWAP1 SWAP2 ADD SWAP1 PUSH1 0x1 ADD PUSH2 0x7D6 JUMP JUMPDEST POP POP POP POP SWAP3 SWAP2 POP POP JUMP JUMPDEST PUSH1 0x0 DUP3 PUSH1 0x1F DUP4 ADD SLT PUSH2 0x81A JUMPI PUSH1 0x0 DUP1 REVERT JUMPDEST DUP2 CALLDATALOAD PUSH2 0x828 PUSH2 0x7A9 DUP3 PUSH2 0xF51 JUMP JUMPDEST DUP2 DUP2 MSTORE PUSH1 0x20 SWAP4 DUP5 ADD SWAP4 SWAP1 SWAP3 POP DUP3 ADD DUP4 PUSH1 0x0 JUMPDEST DUP4 DUP2 LT ISZERO PUSH2 0x7FF JUMPI DUP2 CALLDATALOAD DUP7 ADD PUSH2 0x850 DUP9 DUP3 PUSH2 0x8E1 JUMP JUMPDEST DUP5 MSTORE POP PUSH1 0x20 SWAP3 DUP4 ADD SWAP3 SWAP2 SWAP1 SWAP2 ADD SWAP1 PUSH1 0x1 ADD PUSH2 0x83A JUMP JUMPDEST PUSH1 0x0 DUP3 PUSH1 0x1F DUP4 ADD SLT PUSH2 0x877 JUMPI PUSH1 0x0 DUP1 REVERT JUMPDEST DUP2 CALLDATALOAD PUSH2 0x885 PUSH2 0x7A9 DUP3 PUSH2 0xF51 JUMP JUMPDEST SWAP2 POP DUP2 DUP2 DUP4 MSTORE PUSH1 0x20 DUP5 ADD SWAP4 POP PUSH1 0x20 DUP2 ADD SWAP1 POP DUP4 DUP6 PUSH1 0x20 DUP5 MUL DUP3 ADD GT ISZERO PUSH2 0x8AA JUMPI PUSH1 0x0 DUP1 REVERT JUMPDEST PUSH1 0x0 JUMPDEST DUP4 DUP2 LT ISZERO PUSH2 0x7FF JUMPI DUP2 PUSH2 0x8C0 DUP9 DUP3 PUSH2 0x8D6 JUMP JUMPDEST DUP5 MSTORE POP PUSH1 0x20 SWAP3 DUP4 ADD SWAP3 SWAP2 SWAP1 SWAP2 ADD SWAP1 PUSH1 0x1 ADD PUSH2 0x8AD JUMP JUMPDEST DUP1 CALLDATALOAD PUSH2 0x22A DUP2 PUSH2 0x1039 JUMP JUMPDEST PUSH1 0x0 DUP3 PUSH1 0x1F DUP4 ADD SLT PUSH2 0x8F2 JUMPI PUSH1 0x0 DUP1 REVERT JUMPDEST DUP2 CALLDATALOAD PUSH2 0x900 PUSH2 0x7A9 DUP3 PUSH2 0xF71 JUMP JUMPDEST SWAP2 POP DUP1 DUP3 MSTORE PUSH1 0x20 DUP4 ADD PUSH1 0x20 DUP4 ADD DUP6 DUP4 DUP4 ADD GT ISZERO PUSH2 0x91C JUMPI PUSH1 0x0 DUP1 REVERT JUMPDEST PUSH2 0x927 DUP4 DUP3 DUP5 PUSH2 0xFDC JUMP JUMPDEST POP POP POP SWAP3 SWAP2 POP POP JUMP JUMPDEST DUP1 MLOAD PUSH2 0x22A DUP2 PUSH2 0x1039 JUMP JUMPDEST PUSH1 0x0 PUSH1 0x20 DUP3 DUP5 SUB SLT ISZERO PUSH2 0x94D JUMPI PUSH1 0x0 DUP1 REVERT JUMPDEST PUSH1 0x0 PUSH2 0x1CF DUP5 DUP5 PUSH2 0x77F JUMP JUMPDEST PUSH1 0x0 DUP1 PUSH1 0x0 DUP1 PUSH1 0x80 DUP6 DUP8 SUB SLT ISZERO PUSH2 0x96F JUMPI PUSH1 0x0 DUP1 REVERT JUMPDEST PUSH1 0x0 PUSH2 0x97B DUP8 DUP8 PUSH2 0x774 JUMP JUMPDEST SWAP5 POP POP PUSH1 0x20 PUSH2 0x98C DUP8 DUP3 DUP9 ADD PUSH2 0x774 JUMP JUMPDEST SWAP4 POP POP PUSH1 0x40 DUP6 ADD CALLDATALOAD PUSH1 0x1 PUSH1 0x1 PUSH1 0x40 SHL SUB DUP2 GT ISZERO PUSH2 0x9A8 JUMPI PUSH1 0x0 DUP1 REVERT JUMPDEST PUSH2 0x9B4 DUP8 DUP3 DUP9 ADD PUSH2 0x8E1 JUMP JUMPDEST SWAP3 POP POP PUSH1 0x60 PUSH2 0x9C5 DUP8 DUP3 DUP9 ADD PUSH2 0x8D6 JUMP JUMPDEST SWAP2 POP POP SWAP3 SWAP6 SWAP2 SWAP5 POP SWAP3 POP JUMP JUMPDEST PUSH1 0x0 DUP1 PUSH1 0x0 DUP1 PUSH1 0x80 DUP6 DUP8 SUB SLT ISZERO PUSH2 0x9E7 JUMPI PUSH1 0x0 DUP1 REVERT JUMPDEST PUSH1 0x0 PUSH2 0x9F3 DUP8 DUP8 PUSH2 0x774 JUMP JUMPDEST SWAP5 POP POP PUSH1 0x20 DUP6 ADD CALLDATALOAD PUSH1 0x1 PUSH1 0x1 PUSH1 0x40 SHL SUB DUP2 GT ISZERO PUSH2 0xA0F JUMPI PUSH1 0x0 DUP1 REVERT JUMPDEST PUSH2 0xA1B DUP8 DUP3 DUP9 ADD PUSH2 0x78A JUMP JUMPDEST SWAP4 POP POP PUSH1 0x40 DUP6 ADD CALLDATALOAD PUSH1 0x1 PUSH1 0x1 PUSH1 0x40 SHL SUB DUP2 GT ISZERO PUSH2 0xA37 JUMPI PUSH1 0x0 DUP1 REVERT JUMPDEST PUSH2 0xA43 DUP8 DUP3 DUP9 ADD PUSH2 0x809 JUMP JUMPDEST SWAP3 POP POP PUSH1 0x60 DUP6 ADD CALLDATALOAD PUSH1 0x1 PUSH1 0x1 PUSH1 0x40 SHL SUB DUP2 GT ISZERO PUSH2 0xA5F JUMPI PUSH1 0x0 DUP1 REVERT JUMPDEST PUSH2 0x9C5 DUP8 DUP3 DUP9 ADD PUSH2 0x866 JUMP JUMPDEST PUSH1 0x0 DUP1 PUSH1 0x0 DUP1 PUSH1 0x0 DUP1 PUSH1 0x0 DUP1 PUSH1 0x0 PUSH2 0x120 DUP11 DUP13 SUB SLT ISZERO PUSH2 0xA8A JUMPI PUSH1 0x0 DUP1 REVERT JUMPDEST PUSH1 0x0 PUSH2 0xA96 DUP13 DUP13 PUSH2 0x774 JUMP JUMPDEST SWAP10 POP POP PUSH1 0x20 PUSH2 0xAA7 DUP13 DUP3 DUP14 ADD PUSH2 0x8D6 JUMP JUMPDEST SWAP9 POP POP PUSH1 0x40 DUP11 ADD CALLDATALOAD PUSH1 0x1 PUSH1 0x1 PUSH1 0x40 SHL SUB DUP2 GT ISZERO PUSH2 0xAC3 JUMPI PUSH1 0x0 DUP1 REVERT JUMPDEST PUSH2 0xACF DUP13 DUP3 DUP14 ADD PUSH2 0x8E1 JUMP JUMPDEST SWAP8 POP POP PUSH1 0x60 DUP11 ADD CALLDATALOAD PUSH1 0x1 PUSH1 0x1 PUSH1 0x40 SHL SUB DUP2 GT ISZERO PUSH2 0xAEB JUMPI PUSH1 0x0 DUP1 REVERT JUMPDEST PUSH2 0xAF7 DUP13 DUP3 DUP14 ADD PUSH2 0x8E1 JUMP JUMPDEST SWAP7 POP POP PUSH1 0x80 DUP11 ADD CALLDATALOAD PUSH1 0x1 PUSH1 0x1 PUSH1 0x40 SHL SUB DUP2 GT ISZERO PUSH2 0xB13 JUMPI PUSH1 0x0 DUP1 REVERT JUMPDEST PUSH2 0xB1F DUP13 DUP3 DUP14 ADD PUSH2 0x8E1 JUMP JUMPDEST SWAP6 POP POP PUSH1 0xA0 DUP11 ADD CALLDATALOAD PUSH1 0x1 PUSH1 0x1 PUSH1 0x40 SHL SUB DUP2 GT ISZERO PUSH2 0xB3B JUMPI PUSH1 0x0 DUP1 REVERT JUMPDEST PUSH2 0xB47 DUP13 DUP3 DUP14 ADD PUSH2 0x8E1 JUMP JUMPDEST SWAP5 POP POP PUSH1 0xC0 DUP11 ADD CALLDATALOAD PUSH1 0x1 PUSH1 0x1 PUSH1 0x40 SHL SUB DUP2 GT ISZERO PUSH2 0xB63 JUMPI PUSH1 0x0 DUP1 REVERT JUMPDEST PUSH2 0xB6F DUP13 DUP3 DUP14 ADD PUSH2 0x8E1 JUMP JUMPDEST SWAP4 POP POP PUSH1 0xE0 PUSH2 0xB80 DUP13 DUP3 DUP14 ADD PUSH2 0x774 JUMP JUMPDEST SWAP3 POP POP PUSH2 0x100 DUP11 ADD CALLDATALOAD PUSH1 0x1 PUSH1 0x1 PUSH1 0x40 SHL SUB DUP2 GT ISZERO PUSH2 0xB9D JUMPI PUSH1 0x0 DUP1 REVERT JUMPDEST PUSH2 0xBA9 DUP13 DUP3 DUP14 ADD PUSH2 0x8E1 JUMP JUMPDEST SWAP2 POP POP SWAP3 SWAP6 SWAP9 POP SWAP3 SWAP6 SWAP9 POP SWAP3 SWAP6 SWAP9 JUMP JUMPDEST PUSH1 0x0 PUSH1 0x20 DUP3 DUP5 SUB SLT ISZERO PUSH2 0xBCB JUMPI PUSH1 0x0 DUP1 REVERT JUMPDEST PUSH1 0x0 PUSH2 0x1CF DUP5 DUP5 PUSH2 0x8D6 JUMP JUMPDEST PUSH1 0x0 DUP1 PUSH1 0x0 DUP1 PUSH1 0x80 DUP6 DUP8 SUB SLT ISZERO PUSH2 0xBED JUMPI PUSH1 0x0 DUP1 REVERT JUMPDEST PUSH1 0x0 PUSH2 0xBF9 DUP8 DUP8 PUSH2 0x8D6 JUMP JUMPDEST SWAP5 POP POP PUSH1 0x20 DUP6 ADD CALLDATALOAD PUSH1 0x1 PUSH1 0x1 PUSH1 0x40 SHL SUB DUP2 GT ISZERO PUSH2 0xC15 JUMPI PUSH1 0x0 DUP1 REVERT JUMPDEST PUSH2 0x98C DUP8 DUP3 DUP9 ADD PUSH2 0x8E1 JUMP JUMPDEST PUSH1 0x0 PUSH1 0x20 DUP3 DUP5 SUB SLT ISZERO PUSH2 0xC33 JUMPI PUSH1 0x0 DUP1 REVERT JUMPDEST PUSH1 0x0 PUSH2 0x1CF DUP5 DUP5 PUSH2 0x930 JUMP JUMPDEST PUSH2 0xC48 DUP2 PUSH2 0xFCB JUMP JUMPDEST DUP3 MSTORE POP POP JUMP JUMPDEST PUSH2 0xC48 DUP2 PUSH2 0xFB1 JUMP JUMPDEST PUSH2 0xC48 DUP2 PUSH2 0xFBC JUMP JUMPDEST PUSH1 0x0 PUSH2 0xC6B DUP3 PUSH2 0xFA4 JUMP JUMPDEST PUSH2 0xC75 DUP2 DUP6 PUSH2 0xFA8 JUMP JUMPDEST SWAP4 POP PUSH2 0xC85 DUP2 DUP6 PUSH1 0x20 DUP7 ADD PUSH2 0xFE8 JUMP JUMPDEST PUSH2 0xC8E DUP2 PUSH2 0x1018 JUMP JUMPDEST SWAP1 SWAP4 ADD SWAP4 SWAP3 POP POP POP JUMP JUMPDEST PUSH1 0x0 DUP2 SLOAD PUSH1 0x1 DUP2 AND PUSH1 0x0 DUP2 EQ PUSH2 0xCB5 JUMPI PUSH1 0x1 DUP2 EQ PUSH2 0xCDB JUMPI PUSH2 0xD1A JUMP JUMPDEST PUSH1 0x7F PUSH1 0x2 DUP4 DIV AND PUSH2 0xCC6 DUP2 DUP8 PUSH2 0xFA8 JUMP JUMPDEST PUSH1 0xFF NOT DUP5 AND DUP2 MSTORE SWAP6 POP POP PUSH1 0x20 DUP6 ADD SWAP3 POP PUSH2 0xD1A JUMP JUMPDEST PUSH1 0x2 DUP3 DIV PUSH2 0xCE9 DUP2 DUP8 PUSH2 0xFA8 JUMP JUMPDEST SWAP6 POP PUSH2 0xCF4 DUP6 PUSH2 0xF98 JUMP JUMPDEST PUSH1 0x0 JUMPDEST DUP3 DUP2 LT ISZERO PUSH2 0xD13 JUMPI DUP2 SLOAD DUP9 DUP3 ADD MSTORE PUSH1 0x1 SWAP1 SWAP2 ADD SWAP1 PUSH1 0x20 ADD PUSH2 0xCF7 JUMP JUMPDEST DUP8 ADD SWAP5 POP POP POP JUMPDEST POP POP SWAP3 SWAP2 POP POP JUMP JUMPDEST PUSH1 0x20 DUP2 ADD PUSH2 0x22A DUP3 DUP5 PUSH2 0xC4E JUMP JUMPDEST PUSH1 0x60 DUP2 ADD PUSH2 0xD3E DUP3 DUP7 PUSH2 0xC4E JUMP JUMPDEST PUSH2 0xD4B PUSH1 0x20 DUP4 ADD DUP6 PUSH2 0xC3F JUMP JUMPDEST PUSH2 0x1CF PUSH1 0x40 DUP4 ADD DUP5 PUSH2 0xC4E JUMP JUMPDEST PUSH1 0x20 DUP2 ADD PUSH2 0x22A DUP3 DUP5 PUSH2 0xC57 JUMP JUMPDEST PUSH1 0x40 DUP2 ADD PUSH2 0xD74 DUP3 DUP6 PUSH2 0xC57 JUMP JUMPDEST PUSH2 0xD81 PUSH1 0x20 DUP4 ADD DUP5 PUSH2 0xC4E JUMP JUMPDEST SWAP4 SWAP3 POP POP POP JUMP JUMPDEST PUSH1 0xA0 DUP2 ADD PUSH2 0xD96 DUP3 DUP9 PUSH2 0xC57 JUMP JUMPDEST DUP2 DUP2 SUB PUSH1 0x20 DUP4 ADD MSTORE PUSH2 0xDA8 DUP2 DUP8 PUSH2 0xC60 JUMP JUMPDEST SWAP1 POP DUP2 DUP2 SUB PUSH1 0x40 DUP4 ADD MSTORE PUSH2 0xDBC DUP2 DUP7 PUSH2 0xC60 JUMP JUMPDEST SWAP1 POP PUSH2 0xDCB PUSH1 0x60 DUP4 ADD DUP6 PUSH2 0xC3F JUMP JUMPDEST PUSH2 0xDD8 PUSH1 0x80 DUP4 ADD DUP5 PUSH2 0xC4E JUMP JUMPDEST SWAP7 SWAP6 POP POP POP POP POP POP JUMP JUMPDEST PUSH1 0x40 DUP2 ADD PUSH2 0xDF0 DUP3 DUP6 PUSH2 0xC57 JUMP JUMPDEST DUP2 DUP2 SUB PUSH1 0x20 DUP4 ADD MSTORE PUSH2 0x1CF DUP2 DUP5 PUSH2 0xC98 JUMP JUMPDEST PUSH1 0x40 DUP2 ADD PUSH2 0xE10 DUP3 DUP6 PUSH2 0xC57 JUMP JUMPDEST PUSH2 0xD81 PUSH1 0x20 DUP4 ADD DUP5 PUSH2 0xC57 JUMP JUMPDEST PUSH1 0x80 DUP1 DUP3 MSTORE DUP2 ADD PUSH2 0xE2E DUP2 DUP8 PUSH2 0xC60 JUMP JUMPDEST SWAP1 POP PUSH2 0xE3D PUSH1 0x20 DUP4 ADD DUP7 PUSH2 0xC4E JUMP JUMPDEST PUSH2 0xE4A PUSH1 0x40 DUP4 ADD DUP6 PUSH2 0xC4E JUMP JUMPDEST PUSH2 0x6D8 PUSH1 0x60 DUP4 ADD DUP5 PUSH2 0xC57 JUMP JUMPDEST PUSH1 0xE0 DUP1 DUP3 MSTORE DUP2 ADD PUSH2 0xE68 DUP2 DUP11 PUSH2 0xC60 JUMP JUMPDEST SWAP1 POP DUP2 DUP2 SUB PUSH1 0x20 DUP4 ADD MSTORE PUSH2 0xE7C DUP2 DUP10 PUSH2 0xC60 JUMP JUMPDEST SWAP1 POP DUP2 DUP2 SUB PUSH1 0x40 DUP4 ADD MSTORE PUSH2 0xE90 DUP2 DUP9 PUSH2 0xC60 JUMP JUMPDEST SWAP1 POP DUP2 DUP2 SUB PUSH1 0x60 DUP4 ADD MSTORE PUSH2 0xEA4 DUP2 DUP8 PUSH2 0xC60 JUMP JUMPDEST SWAP1 POP DUP2 DUP2 SUB PUSH1 0x80 DUP4 ADD MSTORE PUSH2 0xEB8 DUP2 DUP7 PUSH2 0xC60 JUMP JUMPDEST SWAP1 POP PUSH2 0xEC7 PUSH1 0xA0 DUP4 ADD DUP6 PUSH2 0xC4E JUMP JUMPDEST DUP2 DUP2 SUB PUSH1 0xC0 DUP4 ADD MSTORE PUSH2 0xED9 DUP2 DUP5 PUSH2 0xC60 JUMP JUMPDEST SWAP10 SWAP9 POP POP POP POP POP POP POP POP POP JUMP JUMPDEST PUSH1 0x60 DUP1 DUP3 MSTORE DUP2 ADD PUSH2 0xEF7 DUP2 DUP7 PUSH2 0xC60 JUMP JUMPDEST SWAP1 POP DUP2 DUP2 SUB PUSH1 0x20 DUP4 ADD MSTORE PUSH2 0xF0B DUP2 DUP6 PUSH2 0xC60 JUMP JUMPDEST SWAP1 POP PUSH2 0x1CF PUSH1 0x40 DUP4 ADD DUP5 PUSH2 0xC57 JUMP JUMPDEST PUSH1 0x20 DUP1 DUP3 MSTORE DUP2 ADD PUSH2 0xD81 DUP2 DUP5 PUSH2 0xC98 JUMP JUMPDEST PUSH1 0x40 MLOAD DUP2 DUP2 ADD PUSH1 0x1 PUSH1 0x1 PUSH1 0x40 SHL SUB DUP2 GT DUP3 DUP3 LT OR ISZERO PUSH2 0xF49 JUMPI PUSH1 0x0 DUP1 REVERT JUMPDEST PUSH1 0x40 MSTORE SWAP2 SWAP1 POP JUMP JUMPDEST PUSH1 0x0 PUSH1 0x1 PUSH1 0x1 PUSH1 0x40 SHL SUB DUP3 GT ISZERO PUSH2 0xF67 JUMPI PUSH1 0x0 DUP1 REVERT JUMPDEST POP PUSH1 0x20 SWAP1 DUP2 MUL ADD SWAP1 JUMP JUMPDEST PUSH1 0x0 PUSH1 0x1 PUSH1 0x1 PUSH1 0x40 SHL SUB DUP3 GT ISZERO PUSH2 0xF87 JUMPI PUSH1 0x0 DUP1 REVERT JUMPDEST POP PUSH1 0x20 PUSH1 0x1F SWAP2 SWAP1 SWAP2 ADD PUSH1 0x1F NOT AND ADD SWAP1 JUMP JUMPDEST PUSH1 0x0 SWAP1 DUP2 MSTORE PUSH1 0x20 SWAP1 KECCAK256 SWAP1 JUMP JUMPDEST MLOAD SWAP1 JUMP JUMPDEST SWAP1 DUP2 MSTORE PUSH1 0x20 ADD SWAP1 JUMP JUMPDEST PUSH1 0x0 PUSH2 0x22A DUP3 PUSH2 0xFBF JUMP JUMPDEST SWAP1 JUMP JUMPDEST PUSH1 0x1 PUSH1 0x1 PUSH1 0xA0 SHL SUB AND SWAP1 JUMP JUMPDEST PUSH1 0x0 PUSH2 0x22A DUP3 PUSH1 0x0 PUSH2 0x22A DUP3 PUSH2 0xFB1 JUMP JUMPDEST DUP3 DUP2 DUP4 CALLDATACOPY POP PUSH1 0x0 SWAP2 ADD MSTORE JUMP JUMPDEST PUSH1 0x0 JUMPDEST DUP4 DUP2 LT ISZERO PUSH2 0x1003 JUMPI DUP2 DUP2 ADD MLOAD DUP4 DUP3 ADD MSTORE PUSH1 0x20 ADD PUSH2 0xFEB JUMP JUMPDEST DUP4 DUP2 GT ISZERO PUSH2 0x1012 JUMPI PUSH1 0x0 DUP5 DUP5 ADD MSTORE JUMPDEST POP POP POP POP JUMP JUMPDEST PUSH1 0x1F ADD PUSH1 0x1F NOT AND SWAP1 JUMP JUMPDEST PUSH2 0x102B DUP2 PUSH2 0xFB1 JUMP JUMPDEST DUP2 EQ PUSH2 0x1036 JUMPI PUSH1 0x0 DUP1 REVERT JUMPDEST POP JUMP JUMPDEST PUSH2 0x102B DUP2 PUSH2 0xFBC JUMP INVALID LOG3 PUSH6 0x627A7A723158 KECCAK256 0x5E PUSH32 0x188F81B6F03C3873C177D8B3D0CB3D700063A8F9808CB040C74BD4EC432C6C65 PUSH25 0x706572696D656E74616CF564736F6C63430005110040000000 ",
  "sha1": "4084e5490c39a1dbd7c769e512ec6ebc9526cd13",
  "source": "pragma solidity ^0.5.4;\npragma experimental ABIEncoderV2;\nimport \"./interfaces/factories/INFTFactory.sol\";\nimport \"./interfaces/bases/IPartialMerkleTreeImplementation.sol\";\nimport \"./interfaces/factories/ITreeFactory.sol\";\nimport \"./storage/EternalStorage.sol\";\nimport \"./interfaces/bases/INFT.sol\";\n\ncontract CertController {\n    EternalStorage private _eternalStorage;\n\n    string private _NFT_FACTORY = \"NFT-FACTORY\";\n    string private _TREE_FACTORY = \"TREE-FACTORY\";\n    string private _IDENTITY_FACTORY = \"IDENTITY-FACTORY\";\n\n    string private _KEY_TO_CERT_COLLECTION = \"KEY-TO-CERT-COLLECTION\";\n    \n    event CertCollectionCreated (bytes32 Key, string CertName, string CertSymbol, address Creator, address CertCollectionAddress);\n\n    event CertIssued(address CertCollectionAddress, address Issuer, address Receiver);\n\n    constructor (address _eternalStorageAddress) public {\n        _eternalStorage = EternalStorage(_eternalStorageAddress);\n    }\n\n    function _setCertCollection(bytes32 _key, address _certCollection) private {\n        _eternalStorage.set(keccak256(abi.encode(_key, _KEY_TO_CERT_COLLECTION)), _certCollection);\n    }\n\n    function _createTree(uint256 _salt) private returns(address) {\n        bytes32 factoryKey = keccak256(abi.encode(_TREE_FACTORY));\n        ITreeFactory treeFactory = ITreeFactory(_eternalStorage.getAddressValue(factoryKey));\n        address newTree = treeFactory.deploy(bytes32(0), _salt);\n\n        return newTree; \n    }\n\n    function _getCertCollection(bytes32 _key) private view returns(address certCollection) {\n        certCollection = _eternalStorage.getAddressValue(keccak256(abi.encode(_key, _KEY_TO_CERT_COLLECTION)));\n    }\n\n    function _createCertCollection(bytes32 _key, string memory _certName, string memory _certSymbol, uint256 _salt) private returns(address) {\n        bytes32 factoryKey = keccak256(abi.encode(_NFT_FACTORY));\n        INFTFactory nft = INFTFactory(_eternalStorage.getAddressValue(factoryKey));\n        address newNft = nft.deploy(_certName, _certSymbol, _salt);\n\n        _setCertCollection(_key, newNft);\n\n        return newNft;\n    }\n\n    function _createCert(address _certCollection, address _user, string memory _uri, uint256 _salt) private returns (uint256) {\n        INFT nft = INFT(_certCollection);\n\n        address tree = _createTree(_salt);\n        uint256 tokenId = nft.createNewToken(_uri, _user, tree, _salt);\n\n        return tokenId;\n    }\n\n    function _insertEvent(address _tree, string memory _action, string memory _from, string memory _to, string memory _description, string memory _date, address _signer, bytes memory _signature) private {\n        IPartialMerkleTreeImplementation tree = IPartialMerkleTreeImplementation(_tree);\n        tree.insert(_action, _from, _to, _description, _date, _signer, _signature);\n    }\n\n    function createCertCollection(bytes32 _key, string memory _certName, string memory _certSymbol, uint256 _salt) public returns(address) {\n        address newNft = _createCertCollection(_key, _certName, _certSymbol, _salt);\n\n        emit CertCollectionCreated(_key, _certName, _certSymbol, tx.origin, newNft);\n        return newNft;\n    }\n    \n    function getCertCollection(bytes32 _key) public view returns(address) {\n        return _getCertCollection(_key);\n    }\n\n    function createCert(address _certCollection, address _user, string memory _uri, uint256 _salt) public returns(uint256) {\n        uint256 tokenId = _createCert(_certCollection, _user, _uri, _salt);\n\n        emit CertIssued(_certCollection, tx.origin, _user);\n        return tokenId;\n    }\n\n    function createManyCert(address _certCollection, address[] memory _users, string[] memory _uris, uint256[] memory _salts) public {\n        for(uint i = 0; i < _users.length; i++) {\n            createCert(_certCollection, _users[i], _uris[i], _salts[i]);\n        }\n    }\n\n    function insertEventToCert(address _examNft, uint256 _tokenId, string memory _action, string memory _from, string memory _to, string memory _description, string memory _date, address _signer, bytes memory _signature) public {\n        INFT examNft = INFT(_examNft);\n        address treeAddress = examNft.getTreeOfToken(_tokenId);\n\n        _insertEvent(treeAddress, _action, _from, _to, _description, _date, _signer, _signature);\n    }\n}\n",
  "sourcePath": "contracts/Cert.sol",
  "type": "contract"
}