{
  "contractName": "CertController",
  "abi": [
    {
      "inputs": [
        {
          "name": "_eternalStorageAddress",
          "type": "address"
        }
      ],
      "payable": false,
      "stateMutability": "nonpayable",
      "type": "constructor"
    },
    {
      "anonymous": false,
      "inputs": [
        {
          "indexed": false,
          "name": "Key",
          "type": "bytes32"
        },
        {
          "indexed": false,
          "name": "CertName",
          "type": "string"
        },
        {
          "indexed": false,
          "name": "CertSymbol",
          "type": "string"
        },
        {
          "indexed": false,
          "name": "Creator",
          "type": "address"
        },
        {
          "indexed": false,
          "name": "CertCollectionAddress",
          "type": "address"
        }
      ],
      "name": "CertCollectionCreated",
      "type": "event"
    },
    {
      "anonymous": false,
      "inputs": [
        {
          "indexed": false,
          "name": "CertCollectionAddress",
          "type": "address"
        },
        {
          "indexed": false,
          "name": "Issuer",
          "type": "address"
        },
        {
          "indexed": false,
          "name": "Receiver",
          "type": "address"
        }
      ],
      "name": "CertIssued",
      "type": "event"
    },
    {
      "constant": false,
      "inputs": [
        {
          "name": "_key",
          "type": "bytes32"
        },
        {
          "name": "_certName",
          "type": "string"
        },
        {
          "name": "_certSymbol",
          "type": "string"
        },
        {
          "name": "_salt",
          "type": "uint256"
        }
      ],
      "name": "createCertCollection",
      "outputs": [
        {
          "name": "",
          "type": "address"
        }
      ],
      "payable": false,
      "stateMutability": "nonpayable",
      "type": "function"
    },
    {
      "constant": true,
      "inputs": [
        {
          "name": "_key",
          "type": "bytes32"
        }
      ],
      "name": "getCertCollection",
      "outputs": [
        {
          "name": "",
          "type": "address"
        }
      ],
      "payable": false,
      "stateMutability": "view",
      "type": "function"
    },
    {
      "constant": false,
      "inputs": [
        {
          "name": "_certCollection",
          "type": "address"
        },
        {
          "name": "_user",
          "type": "address"
        },
        {
          "name": "_uri",
          "type": "string"
        },
        {
          "name": "_salt",
          "type": "uint256"
        }
      ],
      "name": "createCert",
      "outputs": [
        {
          "name": "",
          "type": "uint256"
        }
      ],
      "payable": false,
      "stateMutability": "nonpayable",
      "type": "function"
    },
    {
      "constant": false,
      "inputs": [
        {
          "name": "_certCollection",
          "type": "address"
        },
        {
          "name": "_users",
          "type": "address[]"
        },
        {
          "name": "_uris",
          "type": "string[]"
        },
        {
          "name": "_salts",
          "type": "uint256[]"
        }
      ],
      "name": "createManyCert",
      "outputs": [],
      "payable": false,
      "stateMutability": "nonpayable",
      "type": "function"
    },
    {
      "constant": false,
      "inputs": [
        {
          "name": "_examNft",
          "type": "address"
        },
        {
          "name": "_tokenId",
          "type": "uint256"
        },
        {
          "name": "_action",
          "type": "string"
        },
        {
          "name": "_from",
          "type": "string"
        },
        {
          "name": "_to",
          "type": "string"
        },
        {
          "name": "_description",
          "type": "string"
        },
        {
          "name": "_date",
          "type": "string"
        },
        {
          "name": "_signer",
          "type": "address"
        },
        {
          "name": "_signature",
          "type": "bytes"
        }
      ],
      "name": "insertEventToCert",
      "outputs": [],
      "payable": false,
      "stateMutability": "nonpayable",
      "type": "function"
    }
  ],
  "bytecode": "0x60806040526040805190810160405280600b81526020017f4e46542d464143544f52590000000000000000000000000000000000000000008152506001908051906020019062000051929190620001b2565b506040805190810160405280600c81526020017f545245452d464143544f52590000000000000000000000000000000000000000815250600290805190602001906200009f929190620001b2565b506040805190810160405280601081526020017f4944454e544954592d464143544f52590000000000000000000000000000000081525060039080519060200190620000ed929190620001b2565b506040805190810160405280601681526020017f4b45592d544f2d434552542d434f4c4c454354494f4e00000000000000000000815250600490805190602001906200013b929190620001b2565b503480156200014957600080fd5b5060405160208062001a0983398101806040526200016b919081019062000277565b806000806101000a81548173ffffffffffffffffffffffffffffffffffffffff021916908373ffffffffffffffffffffffffffffffffffffffff16021790555050620002d7565b828054600181600116156101000203166002900490600052602060002090601f016020900481019282601f10620001f557805160ff191683800117855562000226565b8280016001018555821562000226579182015b828111156200022557825182559160200191906001019062000208565b5b50905062000235919062000239565b5090565b6200025e91905b808211156200025a57600081600090555060010162000240565b5090565b90565b60006200026f8251620002a3565b905092915050565b6000602082840312156200028a57600080fd5b60006200029a8482850162000261565b91505092915050565b6000620002b082620002b7565b9050919050565b600073ffffffffffffffffffffffffffffffffffffffff82169050919050565b61172280620002e76000396000f3fe608060405234801561001057600080fd5b5060043610610074576000357c0100000000000000000000000000000000000000000000000000000000900480630e7dc901146100795780632bd60296146100955780636c59497b146100c557806391fb24fd146100f5578063ff39cfa914610125575b600080fd5b610093600480360361008e9190810190610e31565b610141565b005b6100af60048036036100aa9190810190610d0b565b61020c565b6040516100bc9190611445565b60405180910390f35b6100df60048036036100da9190810190610fb0565b610264565b6040516100ec91906111a9565b60405180910390f35b61010f600480360361010a9190810190610f87565b6102c0565b60405161011c91906111a9565b60405180910390f35b61013f600480360361013a9190810190610d86565b6102d2565b005b600089905060008173ffffffffffffffffffffffffffffffffffffffff16632947dcfc8b6040518263ffffffff167c010000000000000000000000000000000000000000000000000000000002815260040161019d9190611445565b60206040518083038186803b1580156101b557600080fd5b505afa1580156101c9573d6000803e3d6000fd5b505050506040513d601f19601f820116820180604052506101ed9190810190610ce2565b90506101ff818a8a8a8a8a8a8a610347565b5050505050505050505050565b60008061021b868686866103ea565b90507f45e636070612eb716c6e4f0114f1d44c2df581351ad6042270da1f1b94eace58863287604051610250939291906111c4565b60405180910390a180915050949350505050565b600080610273868686866104bc565b90507fb5c9dbc68910e2656220f48198e05078e6c00acc25b40cc819ced18c80bdd85286868632856040516102ac95949392919061123f565b60405180910390a180915050949350505050565b60006102cb8261067a565b9050919050565b60008090505b8351811015610340576103328585838151811015156102f357fe5b90602001906020020151858481518110151561030b57fe5b90602001906020020151858581518110151561032357fe5b9060200190602002015161020c565b5080806001019150506102d8565b5050505050565b60008890508073ffffffffffffffffffffffffffffffffffffffff16631e44979d898989898989896040518863ffffffff167c01000000000000000000000000000000000000000000000000000000000281526004016103ad9796959493929190611345565b600060405180830381600087803b1580156103c757600080fd5b505af11580156103db573d6000803e3d6000fd5b50505050505050505050505050565b60008085905060006103fb84610772565b905060008273ffffffffffffffffffffffffffffffffffffffff16632f444772878985896040518563ffffffff167c010000000000000000000000000000000000000000000000000000000002815260040161045a94939291906112f9565b602060405180830381600087803b15801561047457600080fd5b505af1158015610488573d6000803e3d6000fd5b505050506040513d601f19601f820116820180604052506104ac9190810190611043565b9050809350505050949350505050565b60008060016040516020016104d19190611423565b60405160208183030381529060405280519060200120905060008060009054906101000a900473ffffffffffffffffffffffffffffffffffffffff1673ffffffffffffffffffffffffffffffffffffffff16634c77e5ba836040518263ffffffff167c010000000000000000000000000000000000000000000000000000000002815260040161056191906111fb565b60206040518083038186803b15801561057957600080fd5b505afa15801561058d573d6000803e3d6000fd5b505050506040513d601f19601f820116820180604052506105b19190810190610ce2565b905060008173ffffffffffffffffffffffffffffffffffffffff16634ef980978888886040518463ffffffff167c010000000000000000000000000000000000000000000000000000000002815260040161060e939291906113de565b602060405180830381600087803b15801561062857600080fd5b505af115801561063c573d6000803e3d6000fd5b505050506040513d601f19601f820116820180604052506106609190810190610ce2565b905061066c8882610925565b809350505050949350505050565b60008060009054906101000a900473ffffffffffffffffffffffffffffffffffffffff1673ffffffffffffffffffffffffffffffffffffffff16634c77e5ba8360046040516020016106cd9291906112a0565b604051602081830303815290604052805190602001206040518263ffffffff167c010000000000000000000000000000000000000000000000000000000002815260040161071b91906111fb565b60206040518083038186803b15801561073357600080fd5b505afa158015610747573d6000803e3d6000fd5b505050506040513d601f19601f8201168201806040525061076b9190810190610ce2565b9050919050565b60008060026040516020016107879190611423565b60405160208183030381529060405280519060200120905060008060009054906101000a900473ffffffffffffffffffffffffffffffffffffffff1673ffffffffffffffffffffffffffffffffffffffff16634c77e5ba836040518263ffffffff167c010000000000000000000000000000000000000000000000000000000002815260040161081791906111fb565b60206040518083038186803b15801561082f57600080fd5b505afa158015610843573d6000803e3d6000fd5b505050506040513d601f19601f820116820180604052506108679190810190610ce2565b905060008173ffffffffffffffffffffffffffffffffffffffff1663f79b99e96000600102876040518363ffffffff167c01000000000000000000000000000000000000000000000000000000000281526004016108c69291906112d0565b602060405180830381600087803b1580156108e057600080fd5b505af11580156108f4573d6000803e3d6000fd5b505050506040513d601f19601f820116820180604052506109189190810190610ce2565b9050809350505050919050565b6000809054906101000a900473ffffffffffffffffffffffffffffffffffffffff1673ffffffffffffffffffffffffffffffffffffffff1663ba44593c8360046040516020016109769291906112a0565b60405160208183030381529060405280519060200120836040518363ffffffff167c01000000000000000000000000000000000000000000000000000000000281526004016109c6929190611216565b600060405180830381600087803b1580156109e057600080fd5b505af11580156109f4573d6000803e3d6000fd5b505050505050565b6000610a088235611619565b905092915050565b6000610a1c8251611619565b905092915050565b600082601f8301121515610a3757600080fd5b8135610a4a610a458261148d565b611460565b91508181835260208401935060208101905083856020840282011115610a6f57600080fd5b60005b83811015610a9f5781610a8588826109fc565b845260208401935060208301925050600181019050610a72565b5050505092915050565b600082601f8301121515610abc57600080fd5b8135610acf610aca826114b5565b611460565b9150818183526020840193506020810190508360005b83811015610b155781358601610afb8882610c0e565b845260208401935060208301925050600181019050610ae5565b5050505092915050565b600082601f8301121515610b3257600080fd5b8135610b45610b40826114dd565b611460565b91508181835260208401935060208101905083856020840282011115610b6a57600080fd5b60005b83811015610b9a5781610b808882610cba565b845260208401935060208301925050600181019050610b6d565b5050505092915050565b6000610bb0823561162b565b905092915050565b600082601f8301121515610bcb57600080fd5b8135610bde610bd982611505565b611460565b91508082526020830160208301858383011115610bfa57600080fd5b610c05838284611695565b50505092915050565b600082601f8301121515610c2157600080fd5b8135610c34610c2f82611531565b611460565b91508082526020830160208301858383011115610c5057600080fd5b610c5b838284611695565b50505092915050565b600082601f8301121515610c7757600080fd5b8135610c8a610c858261155d565b611460565b91508082526020830160208301858383011115610ca657600080fd5b610cb1838284611695565b50505092915050565b6000610cc68235611655565b905092915050565b6000610cda8251611655565b905092915050565b600060208284031215610cf457600080fd5b6000610d0284828501610a10565b91505092915050565b60008060008060808587031215610d2157600080fd5b6000610d2f878288016109fc565b9450506020610d40878288016109fc565b935050604085013567ffffffffffffffff811115610d5d57600080fd5b610d6987828801610c64565b9250506060610d7a87828801610cba565b91505092959194509250565b60008060008060808587031215610d9c57600080fd5b6000610daa878288016109fc565b945050602085013567ffffffffffffffff811115610dc757600080fd5b610dd387828801610a24565b935050604085013567ffffffffffffffff811115610df057600080fd5b610dfc87828801610aa9565b925050606085013567ffffffffffffffff811115610e1957600080fd5b610e2587828801610b1f565b91505092959194509250565b60008060008060008060008060006101208a8c031215610e5057600080fd5b6000610e5e8c828d016109fc565b9950506020610e6f8c828d01610cba565b98505060408a013567ffffffffffffffff811115610e8c57600080fd5b610e988c828d01610c64565b97505060608a013567ffffffffffffffff811115610eb557600080fd5b610ec18c828d01610c64565b96505060808a013567ffffffffffffffff811115610ede57600080fd5b610eea8c828d01610c64565b95505060a08a013567ffffffffffffffff811115610f0757600080fd5b610f138c828d01610c64565b94505060c08a013567ffffffffffffffff811115610f3057600080fd5b610f3c8c828d01610c64565b93505060e0610f4d8c828d016109fc565b9250506101008a013567ffffffffffffffff811115610f6b57600080fd5b610f778c828d01610bb8565b9150509295985092959850929598565b600060208284031215610f9957600080fd5b6000610fa784828501610ba4565b91505092915050565b60008060008060808587031215610fc657600080fd5b6000610fd487828801610ba4565b945050602085013567ffffffffffffffff811115610ff157600080fd5b610ffd87828801610c64565b935050604085013567ffffffffffffffff81111561101a57600080fd5b61102687828801610c64565b925050606061103787828801610cba565b91505092959194509250565b60006020828403121561105557600080fd5b600061106384828501610cce565b91505092915050565b6110758161165f565b82525050565b611084816115d3565b82525050565b611093816115e5565b82525050565b60006110a48261159b565b6110ae81856115b1565b93506110be8185602086016116a4565b6110c7816116d7565b840191505092915050565b60006110dd826115a6565b6110e781856115c2565b93506110f78185602086016116a4565b611100816116d7565b840191505092915050565b600081546001811660008114611128576001811461114e57611192565b607f600283041661113981876115c2565b955060ff198316865260208601935050611192565b6002820461115c81876115c2565b955061116785611589565b60005b828110156111895781548189015260018201915060208101905061116a565b80880195505050505b505092915050565b6111a38161160f565b82525050565b60006020820190506111be600083018461107b565b92915050565b60006060820190506111d9600083018661107b565b6111e6602083018561106c565b6111f3604083018461107b565b949350505050565b6000602082019050611210600083018461108a565b92915050565b600060408201905061122b600083018561108a565b611238602083018461107b565b9392505050565b600060a082019050611254600083018861108a565b818103602083015261126681876110d2565b9050818103604083015261127a81866110d2565b9050611289606083018561106c565b611296608083018461107b565b9695505050505050565b60006040820190506112b5600083018561108a565b81810360208301526112c7818461110b565b90509392505050565b60006040820190506112e5600083018561108a565b6112f2602083018461119a565b9392505050565b6000608082019050818103600083015261131381876110d2565b9050611322602083018661107b565b61132f604083018561107b565b61133c606083018461119a565b95945050505050565b600060e082019050818103600083015261135f818a6110d2565b9050818103602083015261137381896110d2565b9050818103604083015261138781886110d2565b9050818103606083015261139b81876110d2565b905081810360808301526113af81866110d2565b90506113be60a083018561107b565b81810360c08301526113d08184611099565b905098975050505050505050565b600060608201905081810360008301526113f881866110d2565b9050818103602083015261140c81856110d2565b905061141b604083018461119a565b949350505050565b6000602082019050818103600083015261143d818461110b565b905092915050565b600060208201905061145a600083018461119a565b92915050565b6000604051905081810181811067ffffffffffffffff8211171561148357600080fd5b8060405250919050565b600067ffffffffffffffff8211156114a457600080fd5b602082029050602081019050919050565b600067ffffffffffffffff8211156114cc57600080fd5b602082029050602081019050919050565b600067ffffffffffffffff8211156114f457600080fd5b602082029050602081019050919050565b600067ffffffffffffffff82111561151c57600080fd5b601f19601f8301169050602081019050919050565b600067ffffffffffffffff82111561154857600080fd5b601f19601f8301169050602081019050919050565b600067ffffffffffffffff82111561157457600080fd5b601f19601f8301169050602081019050919050565b60008160005260206000209050919050565b600081519050919050565b600081519050919050565b600082825260208201905092915050565b600082825260208201905092915050565b60006115de826115ef565b9050919050565b6000819050919050565b600073ffffffffffffffffffffffffffffffffffffffff82169050919050565b6000819050919050565b600061162482611635565b9050919050565b6000819050919050565b600073ffffffffffffffffffffffffffffffffffffffff82169050919050565b6000819050919050565b600061166a82611671565b9050919050565b600061167c82611683565b9050919050565b600061168e826115ef565b9050919050565b82818337600083830152505050565b60005b838110156116c25780820151818401526020810190506116a7565b838111156116d1576000848401525b50505050565b6000601f19601f830116905091905056fea265627a7a72305820d678b427f3f27ae02c32776e9df50d41c422ba102b7494abe28e1a667e667b526c6578706572696d656e74616cf50037",
  "source": "pragma solidity ^0.5.4;\npragma experimental ABIEncoderV2;\nimport \"./interfaces/factories/INFTFactory.sol\";\nimport \"./interfaces/bases/IPartialMerkleTreeImplementation.sol\";\nimport \"./interfaces/factories/ITreeFactory.sol\";\nimport \"./storage/EternalStorage.sol\";\nimport \"./interfaces/bases/INFT.sol\";\n\ncontract CertController {\n    EternalStorage private _eternalStorage;\n\n    string private _NFT_FACTORY = \"NFT-FACTORY\";\n    string private _TREE_FACTORY = \"TREE-FACTORY\";\n    string private _IDENTITY_FACTORY = \"IDENTITY-FACTORY\";\n\n    string private _KEY_TO_CERT_COLLECTION = \"KEY-TO-CERT-COLLECTION\";\n    \n    event CertCollectionCreated (bytes32 Key, string CertName, string CertSymbol, address Creator, address CertCollectionAddress);\n\n    event CertIssued(address CertCollectionAddress, address Issuer, address Receiver);\n\n    constructor (address _eternalStorageAddress) public {\n        _eternalStorage = EternalStorage(_eternalStorageAddress);\n    }\n\n    function _setCertCollection(bytes32 _key, address _certCollection) private {\n        _eternalStorage.set(keccak256(abi.encode(_key, _KEY_TO_CERT_COLLECTION)), _certCollection);\n    }\n\n    function _createTree(uint256 _salt) private returns(address) {\n        bytes32 factoryKey = keccak256(abi.encode(_TREE_FACTORY));\n        ITreeFactory treeFactory = ITreeFactory(_eternalStorage.getAddressValue(factoryKey));\n        address newTree = treeFactory.deploy(bytes32(0), _salt);\n\n        return newTree; \n    }\n\n    function _getCertCollection(bytes32 _key) private view returns(address certCollection) {\n        certCollection = _eternalStorage.getAddressValue(keccak256(abi.encode(_key, _KEY_TO_CERT_COLLECTION)));\n    }\n\n    function _createCertCollection(bytes32 _key, string memory _certName, string memory _certSymbol, uint256 _salt) private returns(address) {\n        bytes32 factoryKey = keccak256(abi.encode(_NFT_FACTORY));\n        INFTFactory nft = INFTFactory(_eternalStorage.getAddressValue(factoryKey));\n        address newNft = nft.deploy(_certName, _certSymbol, _salt);\n\n        _setCertCollection(_key, newNft);\n\n        return newNft;\n    }\n\n    function _createCert(address _certCollection, address _user, string memory _uri, uint256 _salt) private returns (uint256) {\n        INFT nft = INFT(_certCollection);\n\n        address tree = _createTree(_salt);\n        uint256 tokenId = nft.createNewToken(_uri, _user, tree, _salt);\n\n        return tokenId;\n    }\n\n    function _insertEvent(address _tree, string memory _action, string memory _from, string memory _to, string memory _description, string memory _date, address _signer, bytes memory _signature) private {\n        IPartialMerkleTreeImplementation tree = IPartialMerkleTreeImplementation(_tree);\n        tree.insert(_action, _from, _to, _description, _date, _signer, _signature);\n    }\n\n    function createCertCollection(bytes32 _key, string memory _certName, string memory _certSymbol, uint256 _salt) public returns(address) {\n        address newNft = _createCertCollection(_key, _certName, _certSymbol, _salt);\n\n        emit CertCollectionCreated(_key, _certName, _certSymbol, tx.origin, newNft);\n        return newNft;\n    }\n    \n    function getCertCollection(bytes32 _key) public view returns(address) {\n        return _getCertCollection(_key);\n    }\n\n    function createCert(address _certCollection, address _user, string memory _uri, uint256 _salt) public returns(uint256) {\n        uint256 tokenId = _createCert(_certCollection, _user, _uri, _salt);\n\n        emit CertIssued(_certCollection, tx.origin, _user);\n        return tokenId;\n    }\n\n    function createManyCert(address _certCollection, address[] memory _users, string[] memory _uris, uint256[] memory _salts) public {\n        for(uint i = 0; i < _users.length; i++) {\n            createCert(_certCollection, _users[i], _uris[i], _salts[i]);\n        }\n    }\n\n    function insertEventToCert(address _examNft, uint256 _tokenId, string memory _action, string memory _from, string memory _to, string memory _description, string memory _date, address _signer, bytes memory _signature) public {\n        INFT examNft = INFT(_examNft);\n        address treeAddress = examNft.getTreeOfToken(_tokenId);\n\n        _insertEvent(treeAddress, _action, _from, _to, _description, _date, _signer, _signature);\n    }\n}\n",
  "sourcePath": "/home/duchuy/Documents/bach_khoa/luan_van/ecs/ecs-smart-contracts/contracts/Cert.sol",
  "compiler": {
    "name": "solc",
    "version": "0.5.4+commit.9549d8ff.Emscripten.clang"
  },
  "schemaVersion": "3.4.1",
  "updatedAt": "2021-11-01T14:38:10.832Z",
  "devdoc": {
    "methods": {}
  },
  "userdoc": {
    "methods": {}
  }
}