{
  "contractName": "ClaimVerifier",
  "abi": [
    {
      "anonymous": false,
      "inputs": [
        {
          "indexed": false,
          "name": "_identity",
          "type": "address"
        },
        {
          "indexed": false,
          "name": "claimType",
          "type": "uint256"
        }
      ],
      "name": "ClaimValid",
      "type": "event"
    },
    {
      "anonymous": false,
      "inputs": [
        {
          "indexed": false,
          "name": "_identity",
          "type": "address"
        },
        {
          "indexed": false,
          "name": "claimType",
          "type": "uint256"
        }
      ],
      "name": "ClaimInvalid",
      "type": "event"
    },
    {
      "constant": false,
      "inputs": [
        {
          "name": "_trustedIssuer",
          "type": "address"
        },
        {
          "name": "_identity",
          "type": "address"
        },
        {
          "name": "_claimType",
          "type": "uint256"
        }
      ],
      "name": "checkClaim",
      "outputs": [
        {
          "name": "",
          "type": "bool"
        }
      ],
      "payable": false,
      "stateMutability": "nonpayable",
      "type": "function"
    },
    {
      "constant": false,
      "inputs": [
        {
          "name": "_trustedIssuer",
          "type": "address"
        },
        {
          "name": "_identity",
          "type": "address"
        },
        {
          "name": "_claimType",
          "type": "uint256"
        }
      ],
      "name": "claimIsValid",
      "outputs": [
        {
          "name": "",
          "type": "bool"
        }
      ],
      "payable": false,
      "stateMutability": "nonpayable",
      "type": "function"
    }
  ],
  "bytecode": "0x608060405234801561001057600080fd5b50610806806100206000396000f3fe608060405234801561001057600080fd5b5060043610610053576000357c0100000000000000000000000000000000000000000000000000000000900480630803a73e1461005857806380a7db5e146100de575b600080fd5b6100c46004803603606081101561006e57600080fd5b81019080803573ffffffffffffffffffffffffffffffffffffffff169060200190929190803573ffffffffffffffffffffffffffffffffffffffff16906020019092919080359060200190929190505050610164565b604051808215151515815260200191505060405180910390f35b61014a600480360360608110156100f457600080fd5b81019080803573ffffffffffffffffffffffffffffffffffffffff169060200190929190803573ffffffffffffffffffffffffffffffffffffffff16906020019092919080359060200190929190505050610261565b604051808215151515815260200191505060405180910390f35b6000610171848484610261565b156101ea577f5637aa6b77cde2de563765b75a65099af73d3bf22cb9d089a64a01777823208e8383604051808373ffffffffffffffffffffffffffffffffffffffff1673ffffffffffffffffffffffffffffffffffffffff1681526020018281526020019250505060405180910390a16001905061025a565b7fc1e461cfcaa9ff5efbb053582a325fbfebec1d94ac7e9d9958ee7f74c2b6b5588383604051808373ffffffffffffffffffffffffffffffffffffffff1673ffffffffffffffffffffffffffffffffffffffff1681526020018281526020019250505060405180910390a1600090505b9392505050565b60008060008060608060008988604051602001808373ffffffffffffffffffffffffffffffffffffffff1673ffffffffffffffffffffffffffffffffffffffff166c01000000000000000000000000028152601401828152602001925050506040516020818303038152906040528051906020012090508873ffffffffffffffffffffffffffffffffffffffff1663c9100bcb826040518263ffffffff167c01000000000000000000000000000000000000000000000000000000000281526004018082815260200191505060006040518083038186803b15801561034557600080fd5b505afa158015610359573d6000803e3d6000fd5b505050506040513d6000823e3d601f19601f8201168201806040525060c081101561038357600080fd5b8101908080519060200190929190805190602001909291908051906020019092919080516401000000008111156103b957600080fd5b828101905060208101848111156103cf57600080fd5b81518560018202830111640100000000821117156103ec57600080fd5b5050929190602001805164010000000081111561040857600080fd5b8281019050602081018481111561041e57600080fd5b815185600182028301116401000000008211171561043b57600080fd5b5050929190602001805164010000000081111561045757600080fd5b8281019050602081018481111561046d57600080fd5b815185600182028301116401000000008211171561048a57600080fd5b505092919050505050809650819750829850839950849a5050505050506000898984604051602001808473ffffffffffffffffffffffffffffffffffffffff1673ffffffffffffffffffffffffffffffffffffffff166c0100000000000000000000000002815260140183815260200182805190602001908083835b60208310151561052b5780518252602082019150602081019050602083039250610506565b6001836020036101000a03801982511681845116808217855250505050505090500193505050506040516020818303038152906040528051906020012090506000610575826106a0565b9050600061058382876106f8565b9050600081604051602001808273ffffffffffffffffffffffffffffffffffffffff1673ffffffffffffffffffffffffffffffffffffffff1681526020019150506040516020818303038152906040528051906020012090508d73ffffffffffffffffffffffffffffffffffffffff1663d202158d8260036040518363ffffffff167c0100000000000000000000000000000000000000000000000000000000028152600401808381526020018281526020019250505060206040518083038186803b15801561065257600080fd5b505afa158015610666573d6000803e3d6000fd5b505050506040513d602081101561067c57600080fd5b81019080805190602001909291905050509a50505050505050505050509392505050565b60008160405160200180807f19457468657265756d205369676e6564204d6573736167653a0a333200000000815250601c01828152602001915050604051602081830303815290604052805190602001209050919050565b60006041825114151561070e57600090506107d4565b60008060006020850151925060408501519150606085015160001a9050601b8160ff16101561073e57601b810190505b601b8160ff16141580156107565750601c8160ff1614155b1561076757600093505050506107d4565b60018682858560405160008152602001604052604051808581526020018460ff1660ff1681526020018381526020018281526020019450505050506020604051602081039080840390855afa1580156107c4573d6000803e3d6000fd5b5050506020604051035193505050505b9291505056fea165627a7a7230582099b8250f001abb0cd14449f4f1cf898efa37c6d09ca551805c0c0a804fdd55070029",
  "source": "pragma solidity ^0.5.4;\nimport \"./interfaces/bases/IIdentity.sol\";\nimport \"./libraries/ECDSA.sol\";\n\ncontract ClaimVerifier {\n    event ClaimValid(IIdentity _identity, uint256 claimType);\n    event ClaimInvalid(IIdentity _identity, uint256 claimType);\n\n    function checkClaim(IIdentity _trustedIssuer, IIdentity _identity, uint256 _claimType) public returns (bool) {\n        if (claimIsValid(_trustedIssuer, _identity, _claimType)) {\n            emit ClaimValid(_identity, _claimType);\n            return true;\n        } else {\n            emit ClaimInvalid(_identity, _claimType);\n            return false;\n        }\n    }\n\n    function claimIsValid(IIdentity _trustedIssuer, IIdentity _identity, uint256 _claimType) public returns (bool) {\n        uint256 foundClaimType;\n        uint256 scheme;\n        address issuer;\n        bytes memory sig;\n        bytes memory data;\n\n        bytes32 claimId = keccak256(abi.encodePacked(_trustedIssuer, _claimType));\n\n        ( foundClaimType, scheme, issuer, sig, data, ) = _identity.getClaim(claimId);\n        bytes32 dataHash = keccak256(abi.encodePacked(_identity, _claimType, data));\n        bytes32 prefixedHash = ECDSA.toEthSignedMessageHash(dataHash);\n\n        address recovered = ECDSA.recover(prefixedHash, sig);\n\n        bytes32 hashedAddr = keccak256(abi.encode(recovered));\n\n        return _trustedIssuer.keyHasPurpose(hashedAddr, 3);\n    }\n}\n",
  "sourcePath": "/home/duchuy/Documents/bach_khoa/luan_van/ecs/ecs-smart-contracts/contracts/ClaimVerifer.sol",
  "compiler": {
    "name": "solc",
    "version": "0.5.4+commit.9549d8ff.Emscripten.clang"
  },
  "schemaVersion": "3.4.1",
  "updatedAt": "2021-11-01T14:38:10.844Z",
  "devdoc": {
    "methods": {}
  },
  "userdoc": {
    "methods": {}
  }
}