{
  "contractName": "ClaimManager",
  "abi": [
    {
      "constant": true,
      "inputs": [
        {
          "name": "interfaceId",
          "type": "bytes4"
        }
      ],
      "name": "supportsInterface",
      "outputs": [
        {
          "name": "",
          "type": "bool"
        }
      ],
      "payable": false,
      "stateMutability": "view",
      "type": "function"
    },
    {
      "constant": true,
      "inputs": [
        {
          "name": "_key",
          "type": "bytes32"
        }
      ],
      "name": "getKey",
      "outputs": [
        {
          "name": "purpose",
          "type": "uint256"
        },
        {
          "name": "keyType",
          "type": "uint256"
        },
        {
          "name": "key",
          "type": "bytes32"
        }
      ],
      "payable": false,
      "stateMutability": "view",
      "type": "function"
    },
    {
      "constant": false,
      "inputs": [
        {
          "name": "_key",
          "type": "bytes32"
        },
        {
          "name": "_purpose",
          "type": "uint256"
        },
        {
          "name": "_keyType",
          "type": "uint256"
        }
      ],
      "name": "addKey",
      "outputs": [
        {
          "name": "success",
          "type": "bool"
        }
      ],
      "payable": false,
      "stateMutability": "nonpayable",
      "type": "function"
    },
    {
      "constant": false,
      "inputs": [],
      "name": "unpause",
      "outputs": [],
      "payable": false,
      "stateMutability": "nonpayable",
      "type": "function"
    },
    {
      "constant": true,
      "inputs": [],
      "name": "paused",
      "outputs": [
        {
          "name": "",
          "type": "bool"
        }
      ],
      "payable": false,
      "stateMutability": "view",
      "type": "function"
    },
    {
      "constant": true,
      "inputs": [
        {
          "name": "addr",
          "type": "address"
        }
      ],
      "name": "addrToKey",
      "outputs": [
        {
          "name": "",
          "type": "bytes32"
        }
      ],
      "payable": false,
      "stateMutability": "pure",
      "type": "function"
    },
    {
      "constant": true,
      "inputs": [
        {
          "name": "",
          "type": "uint256"
        },
        {
          "name": "",
          "type": "uint256"
        }
      ],
      "name": "approved",
      "outputs": [
        {
          "name": "",
          "type": "address"
        }
      ],
      "payable": false,
      "stateMutability": "view",
      "type": "function"
    },
    {
      "constant": false,
      "inputs": [
        {
          "name": "_id",
          "type": "uint256"
        },
        {
          "name": "_approve",
          "type": "bool"
        }
      ],
      "name": "approve",
      "outputs": [
        {
          "name": "success",
          "type": "bool"
        }
      ],
      "payable": false,
      "stateMutability": "nonpayable",
      "type": "function"
    },
    {
      "constant": false,
      "inputs": [],
      "name": "pause",
      "outputs": [],
      "payable": false,
      "stateMutability": "nonpayable",
      "type": "function"
    },
    {
      "constant": false,
      "inputs": [
        {
          "name": "_key",
          "type": "bytes32"
        }
      ],
      "name": "removeKey",
      "outputs": [
        {
          "name": "success",
          "type": "bool"
        }
      ],
      "payable": false,
      "stateMutability": "nonpayable",
      "type": "function"
    },
    {
      "constant": true,
      "inputs": [
        {
          "name": "_purpose",
          "type": "uint256"
        }
      ],
      "name": "getKeysByPurpose",
      "outputs": [
        {
          "name": "keys",
          "type": "bytes32[]"
        }
      ],
      "payable": false,
      "stateMutability": "view",
      "type": "function"
    },
    {
      "constant": false,
      "inputs": [
        {
          "name": "_to",
          "type": "address"
        },
        {
          "name": "_value",
          "type": "uint256"
        },
        {
          "name": "_data",
          "type": "bytes"
        }
      ],
      "name": "execute",
      "outputs": [
        {
          "name": "executionId",
          "type": "uint256"
        }
      ],
      "payable": false,
      "stateMutability": "nonpayable",
      "type": "function"
    },
    {
      "constant": true,
      "inputs": [],
      "name": "numKeys",
      "outputs": [
        {
          "name": "",
          "type": "uint256"
        }
      ],
      "payable": false,
      "stateMutability": "view",
      "type": "function"
    },
    {
      "constant": true,
      "inputs": [
        {
          "name": "_key",
          "type": "bytes32"
        },
        {
          "name": "purpose",
          "type": "uint256"
        }
      ],
      "name": "keyHasPurpose",
      "outputs": [
        {
          "name": "exists",
          "type": "bool"
        }
      ],
      "payable": false,
      "stateMutability": "view",
      "type": "function"
    },
    {
      "constant": true,
      "inputs": [
        {
          "name": "",
          "type": "uint256"
        }
      ],
      "name": "executions",
      "outputs": [
        {
          "name": "to",
          "type": "address"
        },
        {
          "name": "value",
          "type": "uint256"
        },
        {
          "name": "data",
          "type": "bytes"
        },
        {
          "name": "approved",
          "type": "bool"
        },
        {
          "name": "executed",
          "type": "bool"
        }
      ],
      "payable": false,
      "stateMutability": "view",
      "type": "function"
    },
    {
      "anonymous": false,
      "inputs": [
        {
          "indexed": true,
          "name": "claimRequestId",
          "type": "uint256"
        },
        {
          "indexed": true,
          "name": "topic",
          "type": "uint256"
        },
        {
          "indexed": false,
          "name": "scheme",
          "type": "uint256"
        },
        {
          "indexed": true,
          "name": "issuer",
          "type": "address"
        },
        {
          "indexed": false,
          "name": "signature",
          "type": "bytes"
        },
        {
          "indexed": false,
          "name": "data",
          "type": "bytes"
        },
        {
          "indexed": false,
          "name": "uri",
          "type": "string"
        }
      ],
      "name": "ClaimRequested",
      "type": "event"
    },
    {
      "anonymous": false,
      "inputs": [
        {
          "indexed": true,
          "name": "claimId",
          "type": "bytes32"
        },
        {
          "indexed": true,
          "name": "topic",
          "type": "uint256"
        },
        {
          "indexed": false,
          "name": "scheme",
          "type": "uint256"
        },
        {
          "indexed": true,
          "name": "issuer",
          "type": "address"
        },
        {
          "indexed": false,
          "name": "signature",
          "type": "bytes"
        },
        {
          "indexed": false,
          "name": "data",
          "type": "bytes"
        },
        {
          "indexed": false,
          "name": "uri",
          "type": "string"
        }
      ],
      "name": "ClaimAdded",
      "type": "event"
    },
    {
      "anonymous": false,
      "inputs": [
        {
          "indexed": true,
          "name": "claimId",
          "type": "bytes32"
        },
        {
          "indexed": true,
          "name": "topic",
          "type": "uint256"
        },
        {
          "indexed": false,
          "name": "scheme",
          "type": "uint256"
        },
        {
          "indexed": true,
          "name": "issuer",
          "type": "address"
        },
        {
          "indexed": false,
          "name": "signature",
          "type": "bytes"
        },
        {
          "indexed": false,
          "name": "data",
          "type": "bytes"
        },
        {
          "indexed": false,
          "name": "uri",
          "type": "string"
        }
      ],
      "name": "ClaimRemoved",
      "type": "event"
    },
    {
      "anonymous": false,
      "inputs": [
        {
          "indexed": true,
          "name": "claimId",
          "type": "bytes32"
        },
        {
          "indexed": true,
          "name": "topic",
          "type": "uint256"
        },
        {
          "indexed": false,
          "name": "scheme",
          "type": "uint256"
        },
        {
          "indexed": true,
          "name": "issuer",
          "type": "address"
        },
        {
          "indexed": false,
          "name": "signature",
          "type": "bytes"
        },
        {
          "indexed": false,
          "name": "data",
          "type": "bytes"
        },
        {
          "indexed": false,
          "name": "uri",
          "type": "string"
        }
      ],
      "name": "ClaimChanged",
      "type": "event"
    },
    {
      "anonymous": false,
      "inputs": [
        {
          "indexed": true,
          "name": "key",
          "type": "bytes32"
        },
        {
          "indexed": true,
          "name": "purpose",
          "type": "uint256"
        },
        {
          "indexed": true,
          "name": "keyType",
          "type": "uint256"
        }
      ],
      "name": "KeyAdded",
      "type": "event"
    },
    {
      "anonymous": false,
      "inputs": [
        {
          "indexed": true,
          "name": "key",
          "type": "bytes32"
        },
        {
          "indexed": true,
          "name": "purpose",
          "type": "uint256"
        },
        {
          "indexed": true,
          "name": "keyType",
          "type": "uint256"
        }
      ],
      "name": "KeyRemoved",
      "type": "event"
    },
    {
      "anonymous": false,
      "inputs": [
        {
          "indexed": true,
          "name": "executionId",
          "type": "uint256"
        },
        {
          "indexed": true,
          "name": "to",
          "type": "address"
        },
        {
          "indexed": true,
          "name": "value",
          "type": "uint256"
        },
        {
          "indexed": false,
          "name": "data",
          "type": "bytes"
        }
      ],
      "name": "ExecutionRequested",
      "type": "event"
    },
    {
      "anonymous": false,
      "inputs": [
        {
          "indexed": true,
          "name": "executionId",
          "type": "uint256"
        },
        {
          "indexed": true,
          "name": "to",
          "type": "address"
        },
        {
          "indexed": true,
          "name": "value",
          "type": "uint256"
        },
        {
          "indexed": false,
          "name": "data",
          "type": "bytes"
        }
      ],
      "name": "Executed",
      "type": "event"
    },
    {
      "anonymous": false,
      "inputs": [
        {
          "indexed": true,
          "name": "executionId",
          "type": "uint256"
        },
        {
          "indexed": false,
          "name": "approved",
          "type": "bool"
        }
      ],
      "name": "Approved",
      "type": "event"
    },
    {
      "anonymous": false,
      "inputs": [
        {
          "indexed": true,
          "name": "purpose",
          "type": "uint256"
        },
        {
          "indexed": true,
          "name": "number",
          "type": "uint256"
        }
      ],
      "name": "KeysRequiredChanged",
      "type": "event"
    },
    {
      "anonymous": false,
      "inputs": [
        {
          "indexed": true,
          "name": "executionId",
          "type": "uint256"
        },
        {
          "indexed": true,
          "name": "to",
          "type": "address"
        },
        {
          "indexed": true,
          "name": "value",
          "type": "uint256"
        },
        {
          "indexed": false,
          "name": "data",
          "type": "bytes"
        }
      ],
      "name": "ExecutionFailed",
      "type": "event"
    },
    {
      "anonymous": false,
      "inputs": [],
      "name": "LogPause",
      "type": "event"
    },
    {
      "anonymous": false,
      "inputs": [],
      "name": "LogUnpause",
      "type": "event"
    },
    {
      "constant": false,
      "inputs": [
        {
          "name": "_claimType",
          "type": "uint256"
        },
        {
          "name": "_scheme",
          "type": "uint256"
        },
        {
          "name": "_issuer",
          "type": "address"
        },
        {
          "name": "_signature",
          "type": "bytes"
        },
        {
          "name": "_data",
          "type": "bytes"
        },
        {
          "name": "_uri",
          "type": "string"
        }
      ],
      "name": "addClaim",
      "outputs": [
        {
          "name": "claimRequestId",
          "type": "bytes32"
        }
      ],
      "payable": false,
      "stateMutability": "nonpayable",
      "type": "function"
    },
    {
      "constant": false,
      "inputs": [
        {
          "name": "_claimId",
          "type": "bytes32"
        }
      ],
      "name": "removeClaim",
      "outputs": [
        {
          "name": "success",
          "type": "bool"
        }
      ],
      "payable": false,
      "stateMutability": "nonpayable",
      "type": "function"
    },
    {
      "constant": true,
      "inputs": [
        {
          "name": "_claimId",
          "type": "bytes32"
        }
      ],
      "name": "getClaim",
      "outputs": [
        {
          "name": "claimType",
          "type": "uint256"
        },
        {
          "name": "scheme",
          "type": "uint256"
        },
        {
          "name": "issuer",
          "type": "address"
        },
        {
          "name": "signature",
          "type": "bytes"
        },
        {
          "name": "data",
          "type": "bytes"
        },
        {
          "name": "uri",
          "type": "string"
        }
      ],
      "payable": false,
      "stateMutability": "view",
      "type": "function"
    },
    {
      "constant": true,
      "inputs": [
        {
          "name": "_claimType",
          "type": "uint256"
        }
      ],
      "name": "getClaimIdsByType",
      "outputs": [
        {
          "name": "claimIds",
          "type": "bytes32[]"
        }
      ],
      "payable": false,
      "stateMutability": "view",
      "type": "function"
    }
  ],
  "bytecode": "0x60806040526000600360006101000a81548160ff0219169083151502179055506200005c6301ffc9a77c010000000000000000000000000000000000000000000000000000000002620000dc640100000000026401000000009004565b6200009963fccbffbc7c010000000000000000000000000000000000000000000000000000000002620000dc640100000000026401000000009004565b620000d663107653797c010000000000000000000000000000000000000000000000000000000002620000dc640100000000026401000000009004565b62000204565b63ffffffff7c010000000000000000000000000000000000000000000000000000000002817bffffffffffffffffffffffffffffffffffffffffffffffffffffffff19161415151562000197576040517f08c379a000000000000000000000000000000000000000000000000000000000815260040180806020018281038252601c8152602001807f4552433136353a20696e76616c696420696e746572666163652069640000000081525060200191505060405180910390fd5b600160046000837bffffffffffffffffffffffffffffffffffffffffffffffffffffffff19167bffffffffffffffffffffffffffffffffffffffffffffffffffffffff1916815260200190815260200160002060006101000a81548160ff02191690831515021790555050565b612aac80620002146000396000f3fe608060405234801561001057600080fd5b506004361061013e576000357c010000000000000000000000000000000000000000000000000000000090048063747442d3116100ca578063b61d27f61161008e578063b61d27f61461076d578063c9100bcb14610866578063c9d24ecc14610a26578063d202158d14610a44578063f76c922914610a945761013e565b8063747442d3146104175780638456cb5914610469578063862642f5146104735780639010f726146104b9578063b1a34e0d1461053c5761013e565b80633f4ba83a116101115780633f4ba83a146102d55780634eee424a146102df5780635c975abb1461032557806363f14c3c146103475780636e4c43111461039f5761013e565b806301ffc9a71461014357806312aaac70146101a85780631d381240146101f8578063262b54f514610252575b600080fd5b61018e6004803603602081101561015957600080fd5b8101908080357bffffffffffffffffffffffffffffffffffffffffffffffffffffffff19169060200190929190505050610b8b565b604051808215151515815260200191505060405180910390f35b6101d4600480360360208110156101be57600080fd5b8101908080359060200190929190505050610bf3565b60405180848152602001838152602001828152602001935050505060405180910390f35b6102386004803603606081101561020e57600080fd5b81019080803590602001909291908035906020019092919080359060200190929190505050610c5e565b604051808215151515815260200191505060405180910390f35b61027e6004803603602081101561026857600080fd5b8101908080359060200190929190505050610da1565b6040518080602001828103825283818151815260200191508051906020019060200280838360005b838110156102c15780820151818401526020810190506102a6565b505050509050019250505060405180910390f35b6102dd610e0c565b005b61030b600480360360208110156102f557600080fd5b8101908080359060200190929190505050610e70565b604051808215151515815260200191505060405180910390f35b61032d611271565b604051808215151515815260200191505060405180910390f35b6103896004803603602081101561035d57600080fd5b81019080803573ffffffffffffffffffffffffffffffffffffffff169060200190929190505050611284565b6040518082815260200191505060405180910390f35b6103d5600480360360408110156103b557600080fd5b8101908080359060200190929190803590602001909291905050506112ef565b604051808273ffffffffffffffffffffffffffffffffffffffff1673ffffffffffffffffffffffffffffffffffffffff16815260200191505060405180910390f35b61044f6004803603604081101561042d57600080fd5b810190808035906020019092919080351515906020019092919050505061133c565b604051808215151515815260200191505060405180910390f35b610471611881565b005b61049f6004803603602081101561048957600080fd5b81019080803590602001909291905050506118e6565b604051808215151515815260200191505060405180910390f35b6104e5600480360360208110156104cf57600080fd5b8101908080359060200190929190505050611a8d565b6040518080602001828103825283818151815260200191508051906020019060200280838360005b8381101561052857808201518184015260208101905061050d565b505050509050019250505060405180910390f35b610757600480360360c081101561055257600080fd5b810190808035906020019092919080359060200190929190803573ffffffffffffffffffffffffffffffffffffffff169060200190929190803590602001906401000000008111156105a357600080fd5b8201836020820111156105b557600080fd5b803590602001918460018302840111640100000000831117156105d757600080fd5b91908080601f016020809104026020016040519081016040528093929190818152602001838380828437600081840152601f19601f8201169050808301925050505050505091929192908035906020019064010000000081111561063a57600080fd5b82018360208201111561064c57600080fd5b8035906020019184600183028401116401000000008311171561066e57600080fd5b91908080601f016020809104026020016040519081016040528093929190818152602001838380828437600081840152601f19601f820116905080830192505050505050509192919290803590602001906401000000008111156106d157600080fd5b8201836020820111156106e357600080fd5b8035906020019184600183028401116401000000008311171561070557600080fd5b91908080601f016020809104026020016040519081016040528093929190818152602001838380828437600081840152601f19601f820116905080830192505050505050509192919290505050611afb565b6040518082815260200191505060405180910390f35b6108506004803603606081101561078357600080fd5b81019080803573ffffffffffffffffffffffffffffffffffffffff16906020019092919080359060200190929190803590602001906401000000008111156107ca57600080fd5b8201836020820111156107dc57600080fd5b803590602001918460018302840111640100000000831117156107fe57600080fd5b91908080601f016020809104026020016040519081016040528093929190818152602001838380828437600081840152601f19601f820116905080830192505050505050509192919290505050611f9f565b6040518082815260200191505060405180910390f35b6108926004803603602081101561087c57600080fd5b810190808035906020019092919050505061228a565b604051808781526020018681526020018573ffffffffffffffffffffffffffffffffffffffff1673ffffffffffffffffffffffffffffffffffffffff168152602001806020018060200180602001848103845287818151815260200191508051906020019080838360005b838110156109185780820151818401526020810190506108fd565b50505050905090810190601f1680156109455780820380516001836020036101000a031916815260200191505b50848103835286818151815260200191508051906020019080838360005b8381101561097e578082015181840152602081019050610963565b50505050905090810190601f1680156109ab5780820380516001836020036101000a031916815260200191505b50848103825285818151815260200191508051906020019080838360005b838110156109e45780820151818401526020810190506109c9565b50505050905090810190601f168015610a115780820380516001836020036101000a031916815260200191505b50995050505050505050505060405180910390f35b610a2e612524565b6040518082815260200191505060405180910390f35b610a7a60048036036040811015610a5a57600080fd5b810190808035906020019092919080359060200190929190505050612530565b604051808215151515815260200191505060405180910390f35b610ac060048036036020811015610aaa57600080fd5b810190808035906020019092919050505061258c565b604051808673ffffffffffffffffffffffffffffffffffffffff1673ffffffffffffffffffffffffffffffffffffffff168152602001858152602001806020018415151515815260200183151515158152602001828103825285818151815260200191508051906020019080838360005b83811015610b4c578082015181840152602081019050610b31565b50505050905090810190601f168015610b795780820380516001836020036101000a031916815260200191505b50965050505050505060405180910390f35b600060046000837bffffffffffffffffffffffffffffffffffffffffffffffffffffffff19167bffffffffffffffffffffffffffffffffffffffffffffffffffffffff1916815260200190815260200160002060009054906101000a900460ff169050919050565b6000806000610c0061285e565b6000800160008681526020019081526020016000206060604051908101604052908160008201548152602001600182015481526020016002820154815250509050806000015193508060200151925080604001519150509193909250565b6000600360009054906101000a900460ff16151515610c7c57600080fd5b610c92848460006126949092919063ffffffff16565b15610ca05760009050610d9a565b3073ffffffffffffffffffffffffffffffffffffffff163373ffffffffffffffffffffffffffffffffffffffff16141515610d8a57610d3233604051602001808273ffffffffffffffffffffffffffffffffffffffff1673ffffffffffffffffffffffffffffffffffffffff168152602001915050604051602081830303815290604052805190602001206001612530565b1515610d89576040517f08c379a0000000000000000000000000000000000000000000000000000000008152600401808060200182810382526023815260200180612a5e6023913960400191505060405180910390fd5b5b610d9584848461271d565b600190505b9392505050565b606060096000838152602001908152602001600020805480602002602001604051908101604052809291908181526020018280548015610e0057602002820191906000526020600020905b815481526020019060010190808311610dec575b50505050509050919050565b600360009054906101000a900460ff161515610e2757600080fd5b6000600360006101000a81548160ff0219169083151502179055507f730c1faaa977b67dacf1e2451ef54556e04a07d577785ff79f6d31f73502efc960405160405180910390a1565b60003073ffffffffffffffffffffffffffffffffffffffff163373ffffffffffffffffffffffffffffffffffffffff16141515610f5c57610f0433604051602001808273ffffffffffffffffffffffffffffffffffffffff1673ffffffffffffffffffffffffffffffffffffffff168152602001915050604051602081830303815290604052805190602001206003612530565b1515610f5b576040517f08c379a0000000000000000000000000000000000000000000000000000000008152600401808060200182810382526025815260200180612a396025913960400191505060405180910390fd5b5b6008600083815260200190815260200160002060020160009054906101000a900473ffffffffffffffffffffffffffffffffffffffff1673ffffffffffffffffffffffffffffffffffffffff166008600084815260200190815260200160002060000154837f3cf57863a89432c61c4a27073c6ee39e8a764bff5a05aebfbcdcdc80b2e6130a60086000878152602001908152602001600020600101546008600088815260200190815260200160002060030160086000898152602001908152602001600020600401600860008a8152602001908152602001600020600501604051808581526020018060200180602001806020018481038452878181546001816001161561010002031660029004815260200191508054600181600116156101000203166002900480156110d25780601f106110a7576101008083540402835291602001916110d2565b820191906000526020600020905b8154815290600101906020018083116110b557829003601f168201915b50508481038352868181546001816001161561010002031660029004815260200191508054600181600116156101000203166002900480156111555780601f1061112a57610100808354040283529160200191611155565b820191906000526020600020905b81548152906001019060200180831161113857829003601f168201915b50508481038252858181546001816001161561010002031660029004815260200191508054600181600116156101000203166002900480156111d85780601f106111ad576101008083540402835291602001916111d8565b820191906000526020600020905b8154815290600101906020018083116111bb57829003601f168201915b505097505050505050505060405180910390a46008600083815260200190815260200160002060008082016000905560018201600090556002820160006101000a81549073ffffffffffffffffffffffffffffffffffffffff02191690556003820160006112469190612883565b6004820160006112569190612883565b60058201600061126691906128cb565b505060019050919050565b600360009054906101000a900460ff1681565b600081604051602001808273ffffffffffffffffffffffffffffffffffffffff1673ffffffffffffffffffffffffffffffffffffffff166c01000000000000000000000000028152601401915050604051602081830303815290604052805190602001209050919050565b60076020528160005260406000208181548110151561130a57fe5b906000526020600020016000915091509054906101000a900473ffffffffffffffffffffffffffffffffffffffff1681565b600061139b33604051602001808273ffffffffffffffffffffffffffffffffffffffff1673ffffffffffffffffffffffffffffffffffffffff168152602001915050604051602081830303815290604052805190602001206002612530565b151561140f576040517f08c379a000000000000000000000000000000000000000000000000000000000815260040180806020018281038252601f8152602001807f53656e64657220646f6573206e6f74206861766520616374696f6e206b65790081525060200191505060405180910390fd5b827fb3932da477fe5d6c8ff2eafef050c0f3a1af18fc07121001482600f36f3715d883604051808215151515815260200191505060405180910390a260606001151583151514156118465760016006600086815260200190815260200160002060030160006101000a81548160ff0219169083151502179055506006600085815260200190815260200160002060000160009054906101000a900473ffffffffffffffffffffffffffffffffffffffff1673ffffffffffffffffffffffffffffffffffffffff166006600086815260200190815260200160002060020160405180828054600181600116156101000203166002900480156115475780601f10611525576101008083540402835291820191611547565b820191906000526020600020905b815481529060010190602001808311611533575b50509150506000604051808303816000865af19150503d8060008114611589576040519150601f19603f3d011682016040523d82523d6000602084013e61158e565b606091505b50809250819350505081156117095760016006600086815260200190815260200160002060030160016101000a81548160ff02191690831515021790555060066000858152602001908152602001600020600101546006600086815260200190815260200160002060000160009054906101000a900473ffffffffffffffffffffffffffffffffffffffff1673ffffffffffffffffffffffffffffffffffffffff16857f1f920dbda597d7bf95035464170fa58d0a4b57f13a1c315ace6793b9f63688b86006600089815260200190815260200160002060020160405180806020018281038252838181546001816001161561010002031660029004815260200191508054600181600116156101000203166002900480156116f15780601f106116c6576101008083540402835291602001916116f1565b820191906000526020600020905b8154815290600101906020018083116116d457829003601f168201915b50509250505060405180910390a4600191505061187b565b60066000858152602001908152602001600020600101546006600086815260200190815260200160002060000160009054906101000a900473ffffffffffffffffffffffffffffffffffffffff1673ffffffffffffffffffffffffffffffffffffffff16857fe10c49d9f7c71da23262367013434763cfdb2332267641728d25cd712c5c6a6860066000898152602001908152602001600020600201604051808060200182810382528381815460018160011615610100020316600290048152602001915080546001816001161561010002031660029004801561182e5780601f106118035761010080835404028352916020019161182e565b820191906000526020600020905b81548152906001019060200180831161181157829003601f168201915b50509250505060405180910390a4600091505061187b565b60006006600086815260200190815260200160002060030160006101000a81548160ff02191690831515021790555060019150505b92915050565b600360009054906101000a900460ff1615151561189d57600080fd5b6001600360006101000a81548160ff0219169083151502179055507f4b314b34e912fda7f95e7d23e9c8c95f82f0aff1984e4ce592a0b005f905562460405160405180910390a1565b6000600360009054906101000a900460ff1615151561190457600080fd5b3073ffffffffffffffffffffffffffffffffffffffff163373ffffffffffffffffffffffffffffffffffffffff161415156119ee5761199633604051602001808273ffffffffffffffffffffffffffffffffffffffff1673ffffffffffffffffffffffffffffffffffffffff168152602001915050604051602081830303815290604052805190602001206001612530565b15156119ed576040517f08c379a0000000000000000000000000000000000000000000000000000000008152600401808060200182810382526023815260200180612a5e6023913960400191505060405180910390fd5b5b6119f661285e565b600080016000848152602001908152602001600020606060405190810160405290816000820154815260200160018201548152602001600282015481525050905080602001518160000151847f585a4aef50f8267a92b32412b331b20f7f8b96f2245b253b9cc50dcc621d339760405160405180910390a4611a8283600061276990919063ffffffff16565b506001915050919050565b606060006001016000838152602001908152602001600020805480602002602001604051908101604052809291908181526020018280548015611aef57602002820191906000526020600020905b815481526020019060010190808311611adb575b50505050509050919050565b6000808588604051602001808373ffffffffffffffffffffffffffffffffffffffff1673ffffffffffffffffffffffffffffffffffffffff168152602001828152602001925050506040516020818303038152906040528051906020012090503073ffffffffffffffffffffffffffffffffffffffff163373ffffffffffffffffffffffffffffffffffffffff16141515611c4557611bed33604051602001808273ffffffffffffffffffffffffffffffffffffffff1673ffffffffffffffffffffffffffffffffffffffff168152602001915050604051602081830303815290604052805190602001206003612530565b1515611c44576040517f08c379a0000000000000000000000000000000000000000000000000000000008152600401808060200182810382526025815260200180612a396025913960400191505060405180910390fd5b5b8573ffffffffffffffffffffffffffffffffffffffff166008600083815260200190815260200160002060020160009054906101000a900473ffffffffffffffffffffffffffffffffffffffff1673ffffffffffffffffffffffffffffffffffffffff16141515611cee57600960008981526020019081526020016000208190806001815401808255809150509060018203906000526020600020016000909192909190915055505b876008600083815260200190815260200160002060000181905550866008600083815260200190815260200160002060010181905550856008600083815260200190815260200160002060020160006101000a81548173ffffffffffffffffffffffffffffffffffffffff021916908373ffffffffffffffffffffffffffffffffffffffff16021790555084600860008381526020019081526020016000206003019080519060200190611da3929190612913565b5083600860008381526020019081526020016000206004019080519060200190611dce929190612913565b5082600860008381526020019081526020016000206005019080519060200190611df9929190612993565b508573ffffffffffffffffffffffffffffffffffffffff1688827f46149b18aa084502c3f12bc75e19eda8bda8d102b82cce8474677a6d0d5f43c58a89898960405180858152602001806020018060200180602001848103845287818151815260200191508051906020019080838360005b83811015611e86578082015181840152602081019050611e6b565b50505050905090810190601f168015611eb35780820380516001836020036101000a031916815260200191505b50848103835286818151815260200191508051906020019080838360005b83811015611eec578082015181840152602081019050611ed1565b50505050905090810190601f168015611f195780820380516001836020036101000a031916815260200191505b50848103825285818151815260200191508051906020019080838360005b83811015611f52578082015181840152602081019050611f37565b50505050905090810190601f168015611f7f5780820380516001836020036101000a031916815260200191505b5097505050505050505060405180910390a4809150509695505050505050565b600060066000600554815260200190815260200160002060030160019054906101000a900460ff1615151561203c576040517f08c379a00000000000000000000000000000000000000000000000000000000081526004018080602001828103825260108152602001807f416c72656164792065786563757465640000000000000000000000000000000081525060200191505060405180910390fd5b8360066000600554815260200190815260200160002060000160006101000a81548173ffffffffffffffffffffffffffffffffffffffff021916908373ffffffffffffffffffffffffffffffffffffffff16021790555082600660006005548152602001908152602001600020600101819055508160066000600554815260200190815260200160002060020190805190602001906120dc929190612913565b50828473ffffffffffffffffffffffffffffffffffffffff166005547f8afcfabcb00e47a53a8fc3e9f23ff47ee1926194bb1350dd007c50b412a6cee8856040518080602001828103825283818151815260200191508051906020019080838360005b8381101561215a57808201518184015260208101905061213f565b50505050905090810190601f1680156121875780820380516001836020036101000a031916815260200191505b509250505060405180910390a46121f133604051602001808273ffffffffffffffffffffffffffffffffffffffff1673ffffffffffffffffffffffffffffffffffffffff168152602001915050604051602081830303815290604052805190602001206001612530565b80612255575061225433604051602001808273ffffffffffffffffffffffffffffffffffffffff1673ffffffffffffffffffffffffffffffffffffffff168152602001915050604051602081830303815290604052805190602001206002612530565b5b1561226957612267600554600161133c565b505b60056000815480929190600101919050555060016005540390509392505050565b6000806000606080606060086000888152602001908152602001600020600001546008600089815260200190815260200160002060010154600860008a815260200190815260200160002060020160009054906101000a900473ffffffffffffffffffffffffffffffffffffffff16600860008b8152602001908152602001600020600301600860008c8152602001908152602001600020600401600860008d8152602001908152602001600020600501828054600181600116156101000203166002900480601f0160208091040260200160405190810160405280929190818152602001828054600181600116156101000203166002900480156123d05780601f106123a5576101008083540402835291602001916123d0565b820191906000526020600020905b8154815290600101906020018083116123b357829003601f168201915b50505050509250818054600181600116156101000203166002900480601f01602080910402602001604051908101604052809291908181526020018280546001816001161561010002031660029004801561246c5780601f106124415761010080835404028352916020019161246c565b820191906000526020600020905b81548152906001019060200180831161244f57829003601f168201915b50505050509150808054600181600116156101000203166002900480601f0160208091040260200160405190810160405280929190818152602001828054600181600116156101000203166002900480156125085780601f106124dd57610100808354040283529160200191612508565b820191906000526020600020905b8154815290600101906020018083116124eb57829003601f168201915b5050505050905095509550955095509550955091939550919395565b60008060020154905090565b600061253a61285e565b6000800160008581526020019081526020016000206060604051908101604052908160008201548152602001600182015481526020016002820154815250509050828160000151111591505092915050565b60066020528060005260406000206000915090508060000160009054906101000a900473ffffffffffffffffffffffffffffffffffffffff1690806001015490806002018054600181600116156101000203166002900480601f0160208091040260200160405190810160405280929190818152602001828054600181600116156101000203166002900480156126645780601f1061263957610100808354040283529160200191612664565b820191906000526020600020905b81548152906001019060200180831161264757829003601f168201915b5050505050908060030160009054906101000a900460ff16908060030160019054906101000a900460ff16905085565b600061269e61285e565b84600001600085815260200190815260200160002060606040519081016040529081600082015481526020016001820154815260200160028201548152505090506000600102816040015114156126f9576000915050612716565b828160000151111515612710576001915050612716565b60009150505b9392505050565b61273583838360006127bf909392919063ffffffff16565b8082847f480000bb1edad8ca1470381cc334b1917fbd51c6531f3a623ea8e0ec7e38a6e960405160405180910390a4505050565b600082600001600083815260200190815260200160002060010154905082600001600083815260200190815260200160002060008082016000905560018201600090556002820160009055505080905092915050565b60008460000160008581526020019081526020016000209050828160000181905550600060010281600201541415612804578381600201819055508181600101819055505b84600101600084815260200190815260200160002084908060018154018082558091505090600182039060005260206000200160009091929091909150555084600201600081548092919060010191905055505050505050565b6060604051908101604052806000815260200160008152602001600080191681525090565b50805460018160011615610100020316600290046000825580601f106128a957506128c8565b601f0160209004906000526020600020908101906128c79190612a13565b5b50565b50805460018160011615610100020316600290046000825580601f106128f15750612910565b601f01602090049060005260206000209081019061290f9190612a13565b5b50565b828054600181600116156101000203166002900490600052602060002090601f016020900481019282601f1061295457805160ff1916838001178555612982565b82800160010185558215612982579182015b82811115612981578251825591602001919060010190612966565b5b50905061298f9190612a13565b5090565b828054600181600116156101000203166002900490600052602060002090601f016020900481019282601f106129d457805160ff1916838001178555612a02565b82800160010185558215612a02579182015b82811115612a015782518255916020019190600101906129e6565b5b509050612a0f9190612a13565b5090565b612a3591905b80821115612a31576000816000905550600101612a19565b5090565b9056fe53656e64657220646f6573206e6f74206861766520636c61696d207369676e6572206b657953656e64657220646f6573206e6f742068617665206d616e6167656d656e74206b6579a165627a7a72305820102594a7347057b955e03cfc031a6d2945877845ae40dc94335be8b55a0dffd00029",
  "source": "pragma solidity ^0.5.4;\nimport \"./KeyManager.sol\";\nimport \"./ERC735.sol\";\nimport \"./Pausable.sol\";\nimport \"./ECDSA.sol\";\nimport \"./ERC165Query.sol\";\n\n/// @title ClaimManager\n/// @author Mircea Pasoi\n/// @notice Implement functions from ERC735 spec\n/// @dev  Key data is stored using KeyStore library. Inheriting ERC725 for the getters\n\ncontract ClaimManager is KeyManager, ERC735 {\n\n    mapping (bytes32 => Claim) claims;\n    mapping (uint256 => bytes32[]) claimsByType;\n\n    function addClaim(\n        uint256 _claimType,\n        uint256 _scheme,\n        address _issuer,\n        bytes memory _signature,\n        bytes memory _data,\n        string memory _uri\n    )\n        public\n        returns (bytes32 claimRequestId)\n    {\n        bytes32 claimId = keccak256(abi.encode(_issuer, _claimType));\n\n        if (msg.sender != address(this)) {\n          require(keyHasPurpose(keccak256(abi.encode(msg.sender)), 3), \"Sender does not have claim signer key\");\n        }\n\n        if (claims[claimId].issuer != _issuer) {\n            claimsByType[_claimType].push(claimId);\n        }\n\n        claims[claimId].claimType = _claimType;\n        claims[claimId].scheme = _scheme;\n        claims[claimId].issuer = _issuer;\n        claims[claimId].signature = _signature;\n        claims[claimId].data = _data;\n        claims[claimId].uri = _uri;\n\n        emit ClaimAdded(\n            claimId,\n            _claimType,\n            _scheme,\n            _issuer,\n            _signature,\n            _data,\n            _uri\n        );\n\n        return claimId;\n    }\n\n    function removeClaim(bytes32 _claimId) public returns (bool success) {\n        if (msg.sender != address(this)) {\n          require(keyHasPurpose(keccak256(abi.encode(msg.sender)), 3), \"Sender does not have claim signer key\");\n        }\n\n        /* uint index; */\n        /* (index, ) = claimsByType[claims[_claimId].claimType].indexOf(_claimId);\n        claimsByType[claims[_claimId].claimType].removeByIndex(index); */\n\n        emit ClaimRemoved(\n            _claimId,\n            claims[_claimId].claimType,\n            claims[_claimId].scheme,\n            claims[_claimId].issuer,\n            claims[_claimId].signature,\n            claims[_claimId].data,\n            claims[_claimId].uri\n        );\n\n        delete claims[_claimId];\n        return true;\n    }\n\n    function getClaim(bytes32 _claimId)\n        public\n        view\n        returns(\n            uint256 claimType,\n            uint256 scheme,\n            address issuer,\n            bytes memory signature,\n            bytes memory data,\n            string memory uri\n        )\n    {\n        return (\n            claims[_claimId].claimType,\n            claims[_claimId].scheme,\n            claims[_claimId].issuer,\n            claims[_claimId].signature,\n            claims[_claimId].data,\n            claims[_claimId].uri\n        );\n    }\n\n    function getClaimIdsByType(uint256 _claimType)\n        public\n        view\n        returns(bytes32[] memory claimIds)\n    {\n        return claimsByType[_claimType];\n    }\n\n}\n",
  "sourcePath": "/home/duchuy/Documents/bach_khoa/luan_van/ecs/ecs-smart-contracts/contracts/libraries/ClaimManager.sol",
  "compiler": {
    "name": "solc",
    "version": "0.5.4+commit.9549d8ff.Emscripten.clang"
  },
  "schemaVersion": "3.4.1",
  "updatedAt": "2021-11-01T14:38:10.948Z",
  "devdoc": {
    "author": "Mircea Pasoi",
    "details": "Key data is stored using KeyStore library. Inheriting ERC725 for the getters",
    "methods": {
      "addKey(bytes32,uint256,uint256)": {
        "details": "Add key data to the identity if key + purpose tuple doesn't already exist",
        "params": {
          "_key": "Key bytes to add",
          "_keyType": "Key type to add",
          "_purpose": "Purpose to add"
        },
        "return": "`true` if key was added, `false` if it already exists"
      },
      "addrToKey(address)": {
        "details": "Convert an Ethereum address (20 bytes) to an ERC725 key (32 bytes)"
      },
      "getKeysByPurpose(uint256)": {
        "details": "Find all the keys held by this identity for a given purpose",
        "params": {
          "_purpose": "Purpose to find"
        },
        "return": "Array with key bytes for that purpose (empty if none)"
      },
      "keyHasPurpose(bytes32,uint256)": {
        "details": "Find if a key has is present and has the given purpose",
        "params": {
          "_key": "Key bytes to find",
          "purpose": "Purpose to find"
        },
        "return": "Boolean indicating whether the key exists or not"
      },
      "numKeys()": {
        "details": "Number of keys managed by the contract",
        "return": "Unsigned integer number of keys"
      },
      "pause()": {
        "details": "called by a MANAGEMENT_KEY or the identity itself to pause, triggers stopped state"
      },
      "removeKey(bytes32)": {
        "details": "Remove key data from the identity",
        "params": {
          "_key": "Key bytes to remove"
        },
        "return": "`true` if key was found and removed, `false` if it wasn't found"
      },
      "supportsInterface(bytes4)": {
        "details": "See {IERC165-supportsInterface}.     * Time complexity O(1), guaranteed to always use less than 30 000 gas."
      },
      "unpause()": {
        "details": "called by a MANAGEMENT_KEY or the identity itself to unpause, returns to normal state"
      }
    },
    "title": "ClaimManager"
  },
  "userdoc": {
    "methods": {},
    "notice": "Implement functions from ERC735 spec"
  }
}