{
  "contractName": "EternalStorage",
  "abi": [
    {
      "constant": true,
      "inputs": [
        {
          "name": "",
          "type": "bytes32"
        }
      ],
      "name": "bytes32Storage",
      "outputs": [
        {
          "name": "",
          "type": "bytes32"
        }
      ],
      "payable": false,
      "stateMutability": "view",
      "type": "function"
    },
    {
      "constant": true,
      "inputs": [
        {
          "name": "",
          "type": "bytes32"
        }
      ],
      "name": "addressStorage",
      "outputs": [
        {
          "name": "",
          "type": "address"
        }
      ],
      "payable": false,
      "stateMutability": "view",
      "type": "function"
    },
    {
      "constant": true,
      "inputs": [
        {
          "name": "",
          "type": "bytes32"
        },
        {
          "name": "",
          "type": "uint256"
        }
      ],
      "name": "stringArrayStorage",
      "outputs": [
        {
          "name": "",
          "type": "string"
        }
      ],
      "payable": false,
      "stateMutability": "view",
      "type": "function"
    },
    {
      "constant": true,
      "inputs": [
        {
          "name": "",
          "type": "bytes32"
        }
      ],
      "name": "stringStorage",
      "outputs": [
        {
          "name": "",
          "type": "string"
        }
      ],
      "payable": false,
      "stateMutability": "view",
      "type": "function"
    },
    {
      "constant": true,
      "inputs": [
        {
          "name": "",
          "type": "bytes32"
        },
        {
          "name": "",
          "type": "uint256"
        }
      ],
      "name": "addressArrayStorage",
      "outputs": [
        {
          "name": "",
          "type": "address"
        }
      ],
      "payable": false,
      "stateMutability": "view",
      "type": "function"
    },
    {
      "constant": true,
      "inputs": [
        {
          "name": "",
          "type": "bytes32"
        }
      ],
      "name": "boolStorage",
      "outputs": [
        {
          "name": "",
          "type": "bool"
        }
      ],
      "payable": false,
      "stateMutability": "view",
      "type": "function"
    },
    {
      "constant": true,
      "inputs": [
        {
          "name": "",
          "type": "bytes32"
        }
      ],
      "name": "bytesStorage",
      "outputs": [
        {
          "name": "",
          "type": "bytes"
        }
      ],
      "payable": false,
      "stateMutability": "view",
      "type": "function"
    },
    {
      "constant": true,
      "inputs": [
        {
          "name": "",
          "type": "bytes32"
        }
      ],
      "name": "intStorage",
      "outputs": [
        {
          "name": "",
          "type": "int256"
        }
      ],
      "payable": false,
      "stateMutability": "view",
      "type": "function"
    },
    {
      "constant": true,
      "inputs": [
        {
          "name": "",
          "type": "bytes32"
        }
      ],
      "name": "uintStorage",
      "outputs": [
        {
          "name": "",
          "type": "uint256"
        }
      ],
      "payable": false,
      "stateMutability": "view",
      "type": "function"
    },
    {
      "constant": true,
      "inputs": [
        {
          "name": "",
          "type": "bytes32"
        },
        {
          "name": "",
          "type": "uint256"
        }
      ],
      "name": "uintArrayStorage",
      "outputs": [
        {
          "name": "",
          "type": "uint256"
        }
      ],
      "payable": false,
      "stateMutability": "view",
      "type": "function"
    },
    {
      "constant": true,
      "inputs": [
        {
          "name": "",
          "type": "bytes32"
        },
        {
          "name": "",
          "type": "uint256"
        }
      ],
      "name": "bytes32ArrayStorage",
      "outputs": [
        {
          "name": "",
          "type": "bytes32"
        }
      ],
      "payable": false,
      "stateMutability": "view",
      "type": "function"
    },
    {
      "constant": false,
      "inputs": [
        {
          "name": "_key",
          "type": "bytes32"
        },
        {
          "name": "_value",
          "type": "bool"
        }
      ],
      "name": "set",
      "outputs": [],
      "payable": false,
      "stateMutability": "nonpayable",
      "type": "function"
    },
    {
      "constant": false,
      "inputs": [
        {
          "name": "_key",
          "type": "bytes32"
        },
        {
          "name": "_value",
          "type": "uint256"
        }
      ],
      "name": "set",
      "outputs": [],
      "payable": false,
      "stateMutability": "nonpayable",
      "type": "function"
    },
    {
      "constant": false,
      "inputs": [
        {
          "name": "_key",
          "type": "bytes32"
        },
        {
          "name": "_value",
          "type": "bytes"
        }
      ],
      "name": "set",
      "outputs": [],
      "payable": false,
      "stateMutability": "nonpayable",
      "type": "function"
    },
    {
      "constant": false,
      "inputs": [
        {
          "name": "_key",
          "type": "bytes32"
        },
        {
          "name": "_value",
          "type": "string"
        }
      ],
      "name": "set",
      "outputs": [],
      "payable": false,
      "stateMutability": "nonpayable",
      "type": "function"
    },
    {
      "constant": false,
      "inputs": [
        {
          "name": "_key",
          "type": "bytes32"
        },
        {
          "name": "_value",
          "type": "address"
        }
      ],
      "name": "set",
      "outputs": [],
      "payable": false,
      "stateMutability": "nonpayable",
      "type": "function"
    },
    {
      "constant": false,
      "inputs": [
        {
          "name": "_key",
          "type": "bytes32"
        },
        {
          "name": "_value",
          "type": "bytes32"
        }
      ],
      "name": "set",
      "outputs": [],
      "payable": false,
      "stateMutability": "nonpayable",
      "type": "function"
    },
    {
      "constant": false,
      "inputs": [
        {
          "name": "_key",
          "type": "bytes32"
        },
        {
          "name": "_index",
          "type": "uint256"
        }
      ],
      "name": "deleteArrayAddress",
      "outputs": [],
      "payable": false,
      "stateMutability": "nonpayable",
      "type": "function"
    },
    {
      "constant": false,
      "inputs": [
        {
          "name": "_key",
          "type": "bytes32"
        },
        {
          "name": "_index",
          "type": "uint256"
        }
      ],
      "name": "deleteArrayBytes32",
      "outputs": [],
      "payable": false,
      "stateMutability": "nonpayable",
      "type": "function"
    },
    {
      "constant": false,
      "inputs": [
        {
          "name": "_key",
          "type": "bytes32"
        },
        {
          "name": "_index",
          "type": "uint256"
        }
      ],
      "name": "deleteArrayUint",
      "outputs": [],
      "payable": false,
      "stateMutability": "nonpayable",
      "type": "function"
    },
    {
      "constant": false,
      "inputs": [
        {
          "name": "_key",
          "type": "bytes32"
        },
        {
          "name": "_index",
          "type": "uint256"
        }
      ],
      "name": "deleteArrayString",
      "outputs": [],
      "payable": false,
      "stateMutability": "nonpayable",
      "type": "function"
    },
    {
      "constant": false,
      "inputs": [
        {
          "name": "_key",
          "type": "bytes32"
        },
        {
          "name": "_value",
          "type": "uint256"
        }
      ],
      "name": "pushArray",
      "outputs": [],
      "payable": false,
      "stateMutability": "nonpayable",
      "type": "function"
    },
    {
      "constant": false,
      "inputs": [
        {
          "name": "_key",
          "type": "bytes32"
        },
        {
          "name": "_value",
          "type": "bytes32"
        }
      ],
      "name": "pushArray",
      "outputs": [],
      "payable": false,
      "stateMutability": "nonpayable",
      "type": "function"
    },
    {
      "constant": false,
      "inputs": [
        {
          "name": "_key",
          "type": "bytes32"
        },
        {
          "name": "_value",
          "type": "address"
        }
      ],
      "name": "pushArray",
      "outputs": [],
      "payable": false,
      "stateMutability": "nonpayable",
      "type": "function"
    },
    {
      "constant": false,
      "inputs": [
        {
          "name": "_key",
          "type": "bytes32"
        },
        {
          "name": "_value",
          "type": "string"
        }
      ],
      "name": "pushArray",
      "outputs": [],
      "payable": false,
      "stateMutability": "nonpayable",
      "type": "function"
    },
    {
      "constant": false,
      "inputs": [
        {
          "name": "_key",
          "type": "bytes32"
        },
        {
          "name": "_value",
          "type": "string[]"
        }
      ],
      "name": "setArray",
      "outputs": [],
      "payable": false,
      "stateMutability": "nonpayable",
      "type": "function"
    },
    {
      "constant": false,
      "inputs": [
        {
          "name": "_key",
          "type": "bytes32"
        },
        {
          "name": "_value",
          "type": "uint256[]"
        }
      ],
      "name": "setArray",
      "outputs": [],
      "payable": false,
      "stateMutability": "nonpayable",
      "type": "function"
    },
    {
      "constant": false,
      "inputs": [
        {
          "name": "_key",
          "type": "bytes32"
        },
        {
          "name": "_value",
          "type": "bytes32[]"
        }
      ],
      "name": "setArray",
      "outputs": [],
      "payable": false,
      "stateMutability": "nonpayable",
      "type": "function"
    },
    {
      "constant": false,
      "inputs": [
        {
          "name": "_key",
          "type": "bytes32"
        },
        {
          "name": "_value",
          "type": "address[]"
        }
      ],
      "name": "setArray",
      "outputs": [],
      "payable": false,
      "stateMutability": "nonpayable",
      "type": "function"
    },
    {
      "constant": true,
      "inputs": [
        {
          "name": "_key",
          "type": "bytes32"
        }
      ],
      "name": "getArrayAddress",
      "outputs": [
        {
          "name": "",
          "type": "address[]"
        }
      ],
      "payable": false,
      "stateMutability": "view",
      "type": "function"
    },
    {
      "constant": true,
      "inputs": [
        {
          "name": "_key",
          "type": "bytes32"
        }
      ],
      "name": "getArrayBytes32",
      "outputs": [
        {
          "name": "",
          "type": "bytes32[]"
        }
      ],
      "payable": false,
      "stateMutability": "view",
      "type": "function"
    },
    {
      "constant": true,
      "inputs": [
        {
          "name": "_key",
          "type": "bytes32"
        }
      ],
      "name": "getArrayUint",
      "outputs": [
        {
          "name": "",
          "type": "uint256[]"
        }
      ],
      "payable": false,
      "stateMutability": "view",
      "type": "function"
    },
    {
      "constant": true,
      "inputs": [
        {
          "name": "_key",
          "type": "bytes32"
        }
      ],
      "name": "getArrayString",
      "outputs": [
        {
          "name": "",
          "type": "string[]"
        }
      ],
      "payable": false,
      "stateMutability": "view",
      "type": "function"
    },
    {
      "constant": false,
      "inputs": [
        {
          "name": "_key",
          "type": "bytes32"
        },
        {
          "name": "_index",
          "type": "uint256"
        },
        {
          "name": "_value",
          "type": "address"
        }
      ],
      "name": "setArrayIndexValue",
      "outputs": [],
      "payable": false,
      "stateMutability": "nonpayable",
      "type": "function"
    },
    {
      "constant": false,
      "inputs": [
        {
          "name": "_key",
          "type": "bytes32"
        },
        {
          "name": "_index",
          "type": "uint256"
        },
        {
          "name": "_value",
          "type": "uint256"
        }
      ],
      "name": "setArrayIndexValue",
      "outputs": [],
      "payable": false,
      "stateMutability": "nonpayable",
      "type": "function"
    },
    {
      "constant": false,
      "inputs": [
        {
          "name": "_key",
          "type": "bytes32"
        },
        {
          "name": "_index",
          "type": "uint256"
        },
        {
          "name": "_value",
          "type": "bytes32"
        }
      ],
      "name": "setArrayIndexValue",
      "outputs": [],
      "payable": false,
      "stateMutability": "nonpayable",
      "type": "function"
    },
    {
      "constant": false,
      "inputs": [
        {
          "name": "_key",
          "type": "bytes32"
        },
        {
          "name": "_index",
          "type": "uint256"
        },
        {
          "name": "_value",
          "type": "string"
        }
      ],
      "name": "setArrayIndexValue",
      "outputs": [],
      "payable": false,
      "stateMutability": "nonpayable",
      "type": "function"
    },
    {
      "constant": true,
      "inputs": [
        {
          "name": "_variable",
          "type": "bytes32"
        }
      ],
      "name": "getUintValue",
      "outputs": [
        {
          "name": "",
          "type": "uint256"
        }
      ],
      "payable": false,
      "stateMutability": "view",
      "type": "function"
    },
    {
      "constant": true,
      "inputs": [
        {
          "name": "_variable",
          "type": "bytes32"
        }
      ],
      "name": "getBoolValue",
      "outputs": [
        {
          "name": "",
          "type": "bool"
        }
      ],
      "payable": false,
      "stateMutability": "view",
      "type": "function"
    },
    {
      "constant": true,
      "inputs": [
        {
          "name": "_variable",
          "type": "bytes32"
        }
      ],
      "name": "getStringValue",
      "outputs": [
        {
          "name": "",
          "type": "string"
        }
      ],
      "payable": false,
      "stateMutability": "view",
      "type": "function"
    },
    {
      "constant": true,
      "inputs": [
        {
          "name": "_variable",
          "type": "bytes32"
        }
      ],
      "name": "getAddressValue",
      "outputs": [
        {
          "name": "",
          "type": "address"
        }
      ],
      "payable": false,
      "stateMutability": "view",
      "type": "function"
    },
    {
      "constant": true,
      "inputs": [
        {
          "name": "_variable",
          "type": "bytes32"
        }
      ],
      "name": "getBytes32Value",
      "outputs": [
        {
          "name": "",
          "type": "bytes32"
        }
      ],
      "payable": false,
      "stateMutability": "view",
      "type": "function"
    },
    {
      "constant": true,
      "inputs": [
        {
          "name": "_variable",
          "type": "bytes32"
        }
      ],
      "name": "getBytesValue",
      "outputs": [
        {
          "name": "",
          "type": "bytes"
        }
      ],
      "payable": false,
      "stateMutability": "view",
      "type": "function"
    }
  ],
  "bytecode": "0x608060405234801561001057600080fd5b50612e90806100206000396000f3fe608060405234801561001057600080fd5b5060043610610286576000357c0100000000000000000000000000000000000000000000000000000000900480638ffa96901161016e578063ba44593c116100e0578063df83ec37116100a4578063df83ec37146107ff578063e2ae9de01461082f578063e82617fb1461084b578063e979af971461087b578063f6fcbee114610897578063f71f7a25146108c757610286565b8063ba44593c1461075f578063c0de46191461077b578063c193fbf8146107ab578063c1d63ce6146107c7578063c9eda121146107e357610286565b8063a209a29c11610132578063a209a29c1461067b578063a855d4ce146106ab578063a8f0d3a7146106db578063aac438c01461070b578063b480003314610727578063b9a0157e1461074357610286565b80638ffa9690146105db5780639a6e99141461060b5780639f6264d314610627578063a02b114c14610643578063a04ce2c51461065f57610286565b80633b7bfda0116102075780635fed2edd116101cb5780635fed2edd1461050b57806363a4b67b146105275780636f3b8ce214610543578063789c617c146105735780637da208aa146105a3578063858fa2f5146105bf57610286565b80633b7bfda01461042f57806344bfa56e1461045f5780634a3270d71461048f5780634c77e5ba146104bf57806357f65e24146104ef57610286565b80630daa57031161024e5780630daa57031461037b578063273f49401461039757806335f7ff63146103b357806335ff058a146103e357806336cb6592146103ff57610286565b8063025ec81a1461028b578063031578af146102bb57806304f49a3a146102eb57806305e2eee01461031b57806308da76a41461034b575b600080fd5b6102a560048036036102a091908101906120db565b6108e3565b6040516102b291906129d4565b60405180910390f35b6102d560048036036102d091908101906120db565b610900565b6040516102e291906129d4565b60405180910390f35b610305600480360361030091908101906120db565b610918565b6040516103129190612916565b60405180910390f35b610335600480360361033091908101906120db565b61094b565b6040516103429190612975565b60405180910390f35b610365600480360361036091908101906123b0565b610a47565b6040516103729190612a4e565b60405180910390f35b61039560048036036103909190810190612290565b610b0f565b005b6103b160048036036103ac91908101906123b0565b610b3e565b005b6103cd60048036036103c891908101906120db565b610b59565b6040516103da9190612a4e565b60405180910390f35b6103fd60048036036103f891908101906123b0565b610c09565b005b610419600480360361041491908101906123b0565b610c4a565b6040516104269190612916565b60405180910390f35b610449600480360361044491908101906120db565b610c97565b60405161045691906129b9565b60405180910390f35b610479600480360361047491908101906120db565b610cb7565b6040516104869190612a11565b60405180910390f35b6104a960048036036104a491908101906120db565b610d6c565b6040516104b691906129ef565b60405180910390f35b6104d960048036036104d491908101906120db565b610e1c565b6040516104e69190612916565b60405180910390f35b610509600480360361050491908101906121e8565b610e59565b005b610525600480360361052091908101906122cc565b610e85565b005b610541600480360361053c919081019061223c565b610ec6565b005b61055d600480360361055891908101906120db565b610ef2565b60405161056a9190612931565b60405180910390f35b61058d600480360361058891908101906120db565b610f93565b60405161059a9190612a33565b60405180910390f35b6105bd60048036036105b891908101906123b0565b610fab565b005b6105d960048036036105d491908101906123ec565b6110ba565b005b6105f560048036036105f091908101906120db565b611128565b60405161060291906129b9565b60405180910390f35b610625600480360361062091908101906123b0565b611152565b005b610641600480360361063c9190810190612194565b611222565b005b61065d60048036036106589190810190612140565b61124e565b005b610679600480360361067491908101906124f1565b61127a565b005b610695600480360361069091908101906120db565b6112ae565b6040516106a29190612a70565b60405180910390f35b6106c560048036036106c091908101906120db565b611363565b6040516106d29190612ab2565b60405180910390f35b6106f560048036036106f091908101906120db565b61137b565b6040516107029190612953565b60405180910390f35b61072560048036036107209190810190612308565b6113e6565b005b610741600480360361073c919081019061235c565b611412565b005b61075d6004803603610758919081019061243b565b61143e565b005b61077960048036036107749190810190612104565b611472565b005b610795600480360361079091908101906123b0565b6114c8565b6040516107a29190612ab2565b60405180910390f35b6107c560048036036107c09190810190612104565b6114f8565b005b6107e160048036036107dc91908101906123b0565b611573565b005b6107fd60048036036107f8919081019061248a565b611628565b005b610819600480360361081491908101906123b0565b61166c565b60405161082691906129d4565b60405180910390f35b610849600480360361084491908101906123b0565b61169c565b005b610865600480360361086091908101906120db565b611751565b6040516108729190612ab2565b60405180910390f35b6108956004803603610890919081019061235c565b61176d565b005b6108b160048036036108ac91908101906120db565b6117c1565b6040516108be9190612997565b60405180910390f35b6108e160048036036108dc91908101906122cc565b61182c565b005b600060066000838152602001908152602001600020549050919050565b60066020528060005260406000206000915090505481565b60026020528060005260406000206000915054906101000a900473ffffffffffffffffffffffffffffffffffffffff1681565b6060600a6000838152602001908152602001600020805480602002602001604051908101604052809291908181526020016000905b82821015610a3c578382906000526020600020018054600181600116156101000203166002900480601f016020809104026020016040519081016040528092919081815260200182805460018160011615610100020316600290048015610a285780601f106109fd57610100808354040283529160200191610a28565b820191906000526020600020905b815481529060010190602001808311610a0b57829003601f168201915b505050505081526020019060010190610980565b505050509050919050565b600a60205281600052604060002081815481101515610a6257fe5b90600052602060002001600091509150508054600181600116156101000203166002900480601f016020809104026020016040519081016040528092919081815260200182805460018160011615610100020316600290048015610b075780601f10610adc57610100808354040283529160200191610b07565b820191906000526020600020905b815481529060010190602001808311610aea57829003601f168201915b505050505081565b806004600084815260200190815260200160002060006101000a81548160ff0219169083151502179055505050565b80600080848152602001908152602001600020819055505050565b60016020528060005260406000206000915090508054600181600116156101000203166002900480601f016020809104026020016040519081016040528092919081815260200182805460018160011615610100020316600290048015610c015780601f10610bd657610100808354040283529160200191610c01565b820191906000526020600020905b815481529060010190602001808311610be457829003601f168201915b505050505081565b600860008381526020019081526020016000208190806001815401808255809150509060018203906000526020600020016000909192909190915055505050565b600960205281600052604060002081815481101515610c6557fe5b906000526020600020016000915091509054906101000a900473ffffffffffffffffffffffffffffffffffffffff1681565b60046020528060005260406000206000915054906101000a900460ff1681565b6060600360008381526020019081526020016000208054600181600116156101000203166002900480601f016020809104026020016040519081016040528092919081815260200182805460018160011615610100020316600290048015610d605780601f10610d3557610100808354040283529160200191610d60565b820191906000526020600020905b815481529060010190602001808311610d4357829003601f168201915b50505050509050919050565b60036020528060005260406000206000915090508054600181600116156101000203166002900480601f016020809104026020016040519081016040528092919081815260200182805460018160011615610100020316600290048015610e145780601f10610de957610100808354040283529160200191610e14565b820191906000526020600020905b815481529060010190602001808311610df757829003601f168201915b505050505081565b60006002600083815260200190815260200160002060009054906101000a900473ffffffffffffffffffffffffffffffffffffffff169050919050565b80600a60008481526020019081526020016000209080519060200190610e80929190611848565b505050565b600760008381526020019081526020016000208190806001815401808255809150509060018203906000526020600020016000909192909190915055505050565b80600860008481526020019081526020016000209080519060200190610eed9291906118a8565b505050565b606060096000838152602001908152602001600020805480602002602001604051908101604052809291908181526020018280548015610f8757602002820191906000526020600020905b8160009054906101000a900473ffffffffffffffffffffffffffffffffffffffff1673ffffffffffffffffffffffffffffffffffffffff1681526020019060010190808311610f3d575b50505050509050919050565b60056020528060005260406000206000915090505481565b600060096000848152602001908152602001600020905080805490508210151561100a576040517f08c379a000000000000000000000000000000000000000000000000000000000815260040161100190612a92565b60405180910390fd5b80600182805490500381548110151561101f57fe5b9060005260206000200160009054906101000a900473ffffffffffffffffffffffffffffffffffffffff16818381548110151561105857fe5b9060005260206000200160006101000a81548173ffffffffffffffffffffffffffffffffffffffff021916908373ffffffffffffffffffffffffffffffffffffffff160217905550600181805490500381816110b491906118f5565b50505050565b8060096000858152602001908152602001600020838154811015156110db57fe5b9060005260206000200160006101000a81548173ffffffffffffffffffffffffffffffffffffffff021916908373ffffffffffffffffffffffffffffffffffffffff160217905550505050565b60006004600083815260200190815260200160002060009054906101000a900460ff169050919050565b6000600a600084815260200190815260200160002090508080549050821015156111b1576040517f08c379a00000000000000000000000000000000000000000000000000000000081526004016111a890612a92565b60405180910390fd5b8060018280549050038154811015156111c657fe5b9060005260206000200181838154811015156111de57fe5b906000526020600020019080546001816001161561010002031660029004611207929190611921565b506001818054905003818161121c91906119a8565b50505050565b806007600084815260200190815260200160002090805190602001906112499291906119d4565b505050565b80600960008481526020019081526020016000209080519060200190611275929190611a21565b505050565b80600860008581526020019081526020016000208381548110151561129b57fe5b9060005260206000200181905550505050565b6060600160008381526020019081526020016000208054600181600116156101000203166002900480601f0160208091040260200160405190810160405280929190818152602001828054600181600116156101000203166002900480156113575780601f1061132c57610100808354040283529160200191611357565b820191906000526020600020905b81548152906001019060200180831161133a57829003601f168201915b50505050509050919050565b60006020528060005260406000206000915090505481565b6060600760008381526020019081526020016000208054806020026020016040519081016040528092919081815260200182805480156113da57602002820191906000526020600020905b8154815260200190600101908083116113c6575b50505050509050919050565b8060036000848152602001908152602001600020908051906020019061140d929190611aab565b505050565b80600160008481526020019081526020016000209080519060200190611439929190611b2b565b505050565b80600760008581526020019081526020016000208381548110151561145f57fe5b9060005260206000200181905550505050565b806002600084815260200190815260200160002060006101000a81548173ffffffffffffffffffffffffffffffffffffffff021916908373ffffffffffffffffffffffffffffffffffffffff1602179055505050565b6008602052816000526040600020818154811015156114e357fe5b90600052602060002001600091509150505481565b600960008381526020019081526020016000208190806001815401808255809150509060018203906000526020600020016000909192909190916101000a81548173ffffffffffffffffffffffffffffffffffffffff021916908373ffffffffffffffffffffffffffffffffffffffff160217905550505050565b60006007600084815260200190815260200160002090508080549050821015156115d2576040517f08c379a00000000000000000000000000000000000000000000000000000000081526004016115c990612a92565b60405180910390fd5b8060018280549050038154811015156115e757fe5b9060005260206000200154818381548110151561160057fe5b9060005260206000200181905550600181805490500381816116229190611bab565b50505050565b80600a60008581526020019081526020016000208381548110151561164957fe5b906000526020600020019080519060200190611666929190611b2b565b50505050565b60076020528160005260406000208181548110151561168757fe5b90600052602060002001600091509150505481565b60006008600084815260200190815260200160002090508080549050821015156116fb576040517f08c379a00000000000000000000000000000000000000000000000000000000081526004016116f290612a92565b60405180910390fd5b80600182805490500381548110151561171057fe5b9060005260206000200154818381548110151561172957fe5b90600052602060002001819055506001818054905003818161174b9190611bd7565b50505050565b6000806000838152602001908152602001600020549050919050565b600a60008381526020019081526020016000208190806001815401808255809150509060018203906000526020600020016000909192909190915090805190602001906117bb929190611b2b565b50505050565b60606008600083815260200190815260200160002080548060200260200160405190810160405280929190818152602001828054801561182057602002820191906000526020600020905b81548152602001906001019080831161180c575b50505050509050919050565b8060066000848152602001908152602001600020819055505050565b828054828255906000526020600020908101928215611897579160200282015b82811115611896578251829080519060200190611886929190611c03565b5091602001919060010190611868565b5b5090506118a49190611c83565b5090565b8280548282559060005260206000209081019282156118e4579160200282015b828111156118e35782518255916020019190600101906118c8565b5b5090506118f19190611caf565b5090565b81548183558181111561191c5781836000526020600020918201910161191b9190611caf565b5b505050565b828054600181600116156101000203166002900490600052602060002090601f016020900481019282601f1061195a5780548555611997565b8280016001018555821561199757600052602060002091601f016020900482015b8281111561199657825482559160010191906001019061197b565b5b5090506119a49190611caf565b5090565b8154818355818111156119cf578183600052602060002091820191016119ce9190611c83565b5b505050565b828054828255906000526020600020908101928215611a10579160200282015b82811115611a0f5782518255916020019190600101906119f4565b5b509050611a1d9190611cd4565b5090565b828054828255906000526020600020908101928215611a9a579160200282015b82811115611a995782518260006101000a81548173ffffffffffffffffffffffffffffffffffffffff021916908373ffffffffffffffffffffffffffffffffffffffff16021790555091602001919060010190611a41565b5b509050611aa79190611cf9565b5090565b828054600181600116156101000203166002900490600052602060002090601f016020900481019282601f10611aec57805160ff1916838001178555611b1a565b82800160010185558215611b1a579182015b82811115611b19578251825591602001919060010190611afe565b5b509050611b279190611caf565b5090565b828054600181600116156101000203166002900490600052602060002090601f016020900481019282601f10611b6c57805160ff1916838001178555611b9a565b82800160010185558215611b9a579182015b82811115611b99578251825591602001919060010190611b7e565b5b509050611ba79190611caf565b5090565b815481835581811115611bd257818360005260206000209182019101611bd19190611cd4565b5b505050565b815481835581811115611bfe57818360005260206000209182019101611bfd9190611caf565b5b505050565b828054600181600116156101000203166002900490600052602060002090601f016020900481019282601f10611c4457805160ff1916838001178555611c72565b82800160010185558215611c72579182015b82811115611c71578251825591602001919060010190611c56565b5b509050611c7f9190611caf565b5090565b611cac91905b80821115611ca85760008181611c9f9190611d3c565b50600101611c89565b5090565b90565b611cd191905b80821115611ccd576000816000905550600101611cb5565b5090565b90565b611cf691905b80821115611cf2576000816000905550600101611cda565b5090565b90565b611d3991905b80821115611d3557600081816101000a81549073ffffffffffffffffffffffffffffffffffffffff021916905550600101611cff565b5090565b90565b50805460018160011615610100020316600290046000825580601f10611d625750611d81565b601f016020900490600052602060002090810190611d809190611caf565b5b50565b6000611d908235612db1565b905092915050565b600082601f8301121515611dab57600080fd5b8135611dbe611db982612afa565b612acd565b91508181835260208401935060208101905083856020840282011115611de357600080fd5b60005b83811015611e135781611df98882611d84565b845260208401935060208301925050600181019050611de6565b5050505092915050565b600082601f8301121515611e3057600080fd5b8135611e43611e3e82612b22565b612acd565b91508181835260208401935060208101905083856020840282011115611e6857600080fd5b60005b83811015611e985781611e7e8882611fb1565b845260208401935060208301925050600181019050611e6b565b5050505092915050565b600082601f8301121515611eb557600080fd5b8135611ec8611ec382612b4a565b612acd565b9150818183526020840193506020810190508360005b83811015611f0e5781358601611ef4888261201b565b845260208401935060208301925050600181019050611ede565b5050505092915050565b600082601f8301121515611f2b57600080fd5b8135611f3e611f3982612b72565b612acd565b91508181835260208401935060208101905083856020840282011115611f6357600080fd5b60005b83811015611f935781611f7988826120c7565b845260208401935060208301925050600181019050611f66565b5050505092915050565b6000611fa98235612dc3565b905092915050565b6000611fbd8235612dcf565b905092915050565b600082601f8301121515611fd857600080fd5b8135611feb611fe682612b9a565b612acd565b9150808252602083016020830185838301111561200757600080fd5b612012838284612e03565b50505092915050565b600082601f830112151561202e57600080fd5b813561204161203c82612bc6565b612acd565b9150808252602083016020830185838301111561205d57600080fd5b612068838284612e03565b50505092915050565b600082601f830112151561208457600080fd5b813561209761209282612bf2565b612acd565b915080825260208301602083018583830111156120b357600080fd5b6120be838284612e03565b50505092915050565b60006120d38235612df9565b905092915050565b6000602082840312156120ed57600080fd5b60006120fb84828501611fb1565b91505092915050565b6000806040838503121561211757600080fd5b600061212585828601611fb1565b925050602061213685828601611d84565b9150509250929050565b6000806040838503121561215357600080fd5b600061216185828601611fb1565b925050602083013567ffffffffffffffff81111561217e57600080fd5b61218a85828601611d98565b9150509250929050565b600080604083850312156121a757600080fd5b60006121b585828601611fb1565b925050602083013567ffffffffffffffff8111156121d257600080fd5b6121de85828601611e1d565b9150509250929050565b600080604083850312156121fb57600080fd5b600061220985828601611fb1565b925050602083013567ffffffffffffffff81111561222657600080fd5b61223285828601611ea2565b9150509250929050565b6000806040838503121561224f57600080fd5b600061225d85828601611fb1565b925050602083013567ffffffffffffffff81111561227a57600080fd5b61228685828601611f18565b9150509250929050565b600080604083850312156122a357600080fd5b60006122b185828601611fb1565b92505060206122c285828601611f9d565b9150509250929050565b600080604083850312156122df57600080fd5b60006122ed85828601611fb1565b92505060206122fe85828601611fb1565b9150509250929050565b6000806040838503121561231b57600080fd5b600061232985828601611fb1565b925050602083013567ffffffffffffffff81111561234657600080fd5b61235285828601611fc5565b9150509250929050565b6000806040838503121561236f57600080fd5b600061237d85828601611fb1565b925050602083013567ffffffffffffffff81111561239a57600080fd5b6123a685828601612071565b9150509250929050565b600080604083850312156123c357600080fd5b60006123d185828601611fb1565b92505060206123e2858286016120c7565b9150509250929050565b60008060006060848603121561240157600080fd5b600061240f86828701611fb1565b9350506020612420868287016120c7565b925050604061243186828701611d84565b9150509250925092565b60008060006060848603121561245057600080fd5b600061245e86828701611fb1565b935050602061246f868287016120c7565b925050604061248086828701611fb1565b9150509250925092565b60008060006060848603121561249f57600080fd5b60006124ad86828701611fb1565b93505060206124be868287016120c7565b925050604084013567ffffffffffffffff8111156124db57600080fd5b6124e786828701612071565b9150509250925092565b60008060006060848603121561250657600080fd5b600061251486828701611fb1565b9350506020612525868287016120c7565b9250506040612536868287016120c7565b9150509250925092565b600061254c838361259c565b60208301905092915050565b60006125648383612748565b60208301905092915050565b600061257c8383612820565b905092915050565b600061259083836128f8565b60208301905092915050565b6125a581612d55565b82525050565b6125b481612d55565b82525050565b60006125c582612c52565b6125cf8185612cde565b93506125da83612c1e565b60005b82811015612608576125f0868351612540565b95506125fb82612caa565b91506001810190506125dd565b50849250505092915050565b600061261f82612c5d565b6126298185612cef565b935061263483612c2b565b60005b828110156126625761264a868351612558565b955061265582612cb7565b9150600181019050612637565b50849250505092915050565b600061267982612c68565b6126838185612d00565b93508360208202850161269585612c38565b60005b848110156126ce5783830388526126b0838351612570565b92506126bb82612cc4565b9150602088019750600181019050612698565b508196508694505050505092915050565b60006126ea82612c73565b6126f48185612d11565b93506126ff83612c45565b60005b8281101561272d57612715868351612584565b955061272082612cd1565b9150600181019050612702565b50849250505092915050565b61274281612d67565b82525050565b61275181612d73565b82525050565b61276081612d73565b82525050565b600061277182612c89565b61277b8185612d22565b935061278b818560208601612e12565b61279481612e45565b840191505092915050565b60006127aa82612c7e565b6127b48185612d22565b93506127c4818560208601612e12565b6127cd81612e45565b840191505092915050565b6127e181612d7d565b82525050565b60006127f282612c9f565b6127fc8185612d44565b935061280c818560208601612e12565b61281581612e45565b840191505092915050565b600061282b82612c94565b6128358185612d33565b9350612845818560208601612e12565b61284e81612e45565b840191505092915050565b600061286482612c94565b61286e8185612d44565b935061287e818560208601612e12565b61288781612e45565b840191505092915050565b600061289f602a83612d44565b91507f496e6465782073686f756c64206c657373207468616e206c656e677468206f6660008301527f20746865206172726179000000000000000000000000000000000000000000006020830152604082019050919050565b61290181612da7565b82525050565b61291081612da7565b82525050565b600060208201905061292b60008301846125ab565b92915050565b6000602082019050818103600083015261294b81846125ba565b905092915050565b6000602082019050818103600083015261296d8184612614565b905092915050565b6000602082019050818103600083015261298f818461266e565b905092915050565b600060208201905081810360008301526129b181846126df565b905092915050565b60006020820190506129ce6000830184612739565b92915050565b60006020820190506129e96000830184612757565b92915050565b60006020820190508181036000830152612a09818461279f565b905092915050565b60006020820190508181036000830152612a2b8184612766565b905092915050565b6000602082019050612a4860008301846127d8565b92915050565b60006020820190508181036000830152612a688184612859565b905092915050565b60006020820190508181036000830152612a8a81846127e7565b905092915050565b60006020820190508181036000830152612aab81612892565b9050919050565b6000602082019050612ac76000830184612907565b92915050565b6000604051905081810181811067ffffffffffffffff82111715612af057600080fd5b8060405250919050565b600067ffffffffffffffff821115612b1157600080fd5b602082029050602081019050919050565b600067ffffffffffffffff821115612b3957600080fd5b602082029050602081019050919050565b600067ffffffffffffffff821115612b6157600080fd5b602082029050602081019050919050565b600067ffffffffffffffff821115612b8957600080fd5b602082029050602081019050919050565b600067ffffffffffffffff821115612bb157600080fd5b601f19601f8301169050602081019050919050565b600067ffffffffffffffff821115612bdd57600080fd5b601f19601f8301169050602081019050919050565b600067ffffffffffffffff821115612c0957600080fd5b601f19601f8301169050602081019050919050565b6000602082019050919050565b6000602082019050919050565b6000602082019050919050565b6000602082019050919050565b600081519050919050565b600081519050919050565b600081519050919050565b600081519050919050565b600081519050919050565b600081519050919050565b600081519050919050565b600081519050919050565b6000602082019050919050565b6000602082019050919050565b6000602082019050919050565b6000602082019050919050565b600082825260208201905092915050565b600082825260208201905092915050565b600082825260208201905092915050565b600082825260208201905092915050565b600082825260208201905092915050565b600082825260208201905092915050565b600082825260208201905092915050565b6000612d6082612d87565b9050919050565b60008115159050919050565b6000819050919050565b6000819050919050565b600073ffffffffffffffffffffffffffffffffffffffff82169050919050565b6000819050919050565b6000612dbc82612dd9565b9050919050565b60008115159050919050565b6000819050919050565b600073ffffffffffffffffffffffffffffffffffffffff82169050919050565b6000819050919050565b82818337600083830152505050565b60005b83811015612e30578082015181840152602081019050612e15565b83811115612e3f576000848401525b50505050565b6000601f19601f830116905091905056fea265627a7a7230582082e8d239bdeb3747714290b50cdee85142ed44a31a10584bfa56f41b4521394f6c6578706572696d656e74616cf50037",
  "source": "pragma solidity ^0.5.4;\npragma experimental ABIEncoderV2;\n\ncontract EternalStorage {\n    /// @notice Internal mappings used to store all kinds on data into the contract\n    mapping(bytes32 => uint256) public uintStorage;\n    mapping(bytes32 => string) public stringStorage;\n    mapping(bytes32 => address) public addressStorage;\n    mapping(bytes32 => bytes) public bytesStorage;\n    mapping(bytes32 => bool) public boolStorage;\n    mapping(bytes32 => int256) public intStorage;\n    mapping(bytes32 => bytes32) public bytes32Storage;\n\n    /// @notice Internal mappings used to store arrays of different data types\n    mapping(bytes32 => bytes32[]) public bytes32ArrayStorage;\n    mapping(bytes32 => uint256[]) public uintArrayStorage;\n    mapping(bytes32 => address[]) public addressArrayStorage;\n    mapping(bytes32 => string[]) public stringArrayStorage;\n\n    //////////////////\n    //// set functions\n    //////////////////\n    /// @notice Set the key values using the Overloaded `set` functions\n    /// Ex- string version = \"0.0.1\"; replace to\n    /// set(keccak256(abi.encodePacked(\"version\"), \"0.0.1\");\n    /// same for the other variables as well some more example listed below\n    /// ex1 - address securityTokenAddress = 0x123; replace to\n    /// set(keccak256(abi.encodePacked(\"securityTokenAddress\"), 0x123);\n    /// ex2 - bytes32 tokenDetails = \"I am ST20\"; replace to\n    /// set(keccak256(abi.encodePacked(\"tokenDetails\"), \"I am ST20\");\n    /// ex3 - mapping(string => address) ownedToken;\n    /// set(keccak256(abi.encodePacked(\"ownedToken\", \"Chris\")), 0x123);\n    /// ex4 - mapping(string => uint) tokenIndex;\n    /// tokenIndex[\"TOKEN\"] = 1; replace to set(keccak256(abi.encodePacked(\"tokenIndex\", \"TOKEN\"), 1);\n    /// ex5 - mapping(string => SymbolDetails) registeredSymbols; where SymbolDetails is the structure having different type of values as\n    /// {uint256 date, string name, address owner} etc.\n    /// registeredSymbols[\"TOKEN\"].name = \"MyFristToken\"; replace to set(keccak256(abi.encodePacked(\"registeredSymbols_name\", \"TOKEN\"), \"MyFirstToken\");\n    /// More generalized- set(keccak256(abi.encodePacked(\"registeredSymbols_<struct variable>\", \"keyname\"), \"value\");\n\n    function set(bytes32 _key, uint256 _value) public {\n        uintStorage[_key] = _value;\n    }\n\n    function set(bytes32 _key, address _value) public {\n        addressStorage[_key] = _value;\n    }\n\n    function set(bytes32 _key, bool _value) public {\n        boolStorage[_key] = _value;\n    }\n\n    function set(bytes32 _key, bytes32 _value) public {\n        bytes32Storage[_key] = _value;\n    }\n\n    function set(bytes32 _key, string memory _value) public {\n        stringStorage[_key] = _value;\n    }\n\n    function set(bytes32 _key, bytes memory _value) public {\n        bytesStorage[_key] = _value;\n    }\n\n    ////////////////////////////\n    // deleteArray functions\n    ////////////////////////////\n    /// @notice Function used to delete the array element.\n    /// Ex1- mapping(address => bytes32[]) tokensOwnedByOwner;\n    /// For deleting the item from array developers needs to create a funtion for that similarly\n    /// in this case we have the helper function deleteArrayBytes32() which will do it for us\n    /// deleteArrayBytes32(keccak256(abi.encodePacked(\"tokensOwnedByOwner\", 0x1), 3); -- it will delete the index 3\n\n    //Deletes from mapping (bytes32 => array[]) at index _index\n    function deleteArrayAddress(bytes32 _key, uint256 _index) public {\n        address[] storage array = addressArrayStorage[_key];\n        require(_index < array.length, \"Index should less than length of the array\");\n        array[_index] = array[array.length - 1];\n        array.length = array.length - 1;\n    }\n\n    //Deletes from mapping (bytes32 => bytes32[]) at index _index\n    function deleteArrayBytes32(bytes32 _key, uint256 _index) public {\n        bytes32[] storage array = bytes32ArrayStorage[_key];\n        require(_index < array.length, \"Index should less than length of the array\");\n        array[_index] = array[array.length - 1];\n        array.length = array.length - 1;\n    }\n\n    //Deletes from mapping (bytes32 => uint[]) at index _index\n    function deleteArrayUint(bytes32 _key, uint256 _index) public {\n        uint256[] storage array = uintArrayStorage[_key];\n        require(_index < array.length, \"Index should less than length of the array\");\n        array[_index] = array[array.length - 1];\n        array.length = array.length - 1;\n    }\n\n    //Deletes from mapping (bytes32 => string[]) at index _index\n    function deleteArrayString(bytes32 _key, uint256 _index) public {\n        string[] storage array = stringArrayStorage[_key];\n        require(_index < array.length, \"Index should less than length of the array\");\n        array[_index] = array[array.length - 1];\n        array.length = array.length - 1;\n    }\n\n    ////////////////////////////\n    //// pushArray functions\n    ///////////////////////////\n    /// @notice Below are the helper functions to facilitate storing arrays of different data types.\n    /// Ex1- mapping(address => bytes32[]) tokensOwnedByTicker;\n    /// tokensOwnedByTicker[owner] = tokensOwnedByTicker[owner].push(\"xyz\"); replace with\n    /// pushArray(keccak256(abi.encodePacked(\"tokensOwnedByTicker\", owner), \"xyz\");\n\n    /// @notice use to store the values for the array\n    /// @param _key bytes32 type\n    /// @param _value [uint256, string, bytes32, address] any of the data type in array\n    function pushArray(bytes32 _key, address _value) public {\n        addressArrayStorage[_key].push(_value);\n    }\n\n    function pushArray(bytes32 _key, bytes32 _value) public {\n        bytes32ArrayStorage[_key].push(_value);\n    }\n\n    function pushArray(bytes32 _key, string memory _value) public {\n        stringArrayStorage[_key].push(_value);\n    }\n\n    function pushArray(bytes32 _key, uint256 _value) public {\n        uintArrayStorage[_key].push(_value);\n    }\n\n    /////////////////////////\n    //// Set Array functions\n    ////////////////////////\n    /// @notice used to intialize the array\n    /// Ex1- mapping (address => address[]) public reputation;\n    /// reputation[0x1] = new address[](0); It can be replaced as\n    /// setArray(hash('reputation', 0x1), new address[](0));\n\n    function setArray(bytes32 _key, address[] memory _value) public {\n        addressArrayStorage[_key] = _value;\n    }\n\n    function setArray(bytes32 _key, uint256[] memory _value) public {\n        uintArrayStorage[_key] = _value;\n    }\n\n    function setArray(bytes32 _key, bytes32[] memory _value) public {\n        bytes32ArrayStorage[_key] = _value;\n    }\n\n    function setArray(bytes32 _key, string[] memory _value) public {\n        stringArrayStorage[_key] = _value;\n    }\n\n    /////////////////////////\n    /// getArray functions\n    /////////////////////////\n    /// @notice Get functions to get the array of the required data type\n    /// Ex1- mapping(address => bytes32[]) tokensOwnedByOwner;\n    /// getArrayBytes32(keccak256(abi.encodePacked(\"tokensOwnedByOwner\", 0x1)); It return the bytes32 array\n    /// Ex2- uint256 _len =  tokensOwnedByOwner[0x1].length; replace with\n    /// getArrayBytes32(keccak256(abi.encodePacked(\"tokensOwnedByOwner\", 0x1)).length;\n\n    function getArrayAddress(bytes32 _key) public view returns(address[] memory) {\n        return addressArrayStorage[_key];\n    }\n\n    function getArrayBytes32(bytes32 _key) public view returns(bytes32[] memory) {\n        return bytes32ArrayStorage[_key];\n    }\n\n    function getArrayUint(bytes32 _key) public view returns(uint[] memory) {\n        return uintArrayStorage[_key];\n    }\n    \n    function getArrayString(bytes32 _key) public view returns(string[] memory) {\n        return stringArrayStorage[_key];\n    }\n\n    ///////////////////////////////////\n    /// setArrayIndexValue() functions\n    ///////////////////////////////////\n    /// @notice set the value of particular index of the address array\n    /// Ex1- mapping(bytes32 => address[]) moduleList;\n    /// general way is -- moduleList[moduleType][index] = temp;\n    /// It can be re-write as -- setArrayIndexValue(keccak256(abi.encodePacked('moduleList', moduleType)), index, temp);\n\n    function setArrayIndexValue(bytes32 _key, uint256 _index, address _value) public {\n        addressArrayStorage[_key][_index] = _value;\n    }\n\n    function setArrayIndexValue(bytes32 _key, uint256 _index, uint256 _value) public {\n        uintArrayStorage[_key][_index] = _value;\n    }\n\n    function setArrayIndexValue(bytes32 _key, uint256 _index, bytes32 _value) public {\n        bytes32ArrayStorage[_key][_index] = _value;\n    }\n\n    function setArrayIndexValue(bytes32 _key, uint256 _index, string memory _value) public {\n        stringArrayStorage[_key][_index] = _value;\n    }\n\n    /// Public getters functions\n    /////////////////////// @notice Get function use to get the value of the singleton state variables\n    /// Ex1- string public version = \"0.0.1\";\n    /// string _version = getString(keccak256(abi.encodePacked(\"version\"));\n    /// Ex2 - assert(temp1 == temp2); replace to\n    /// assert(getUint(keccak256(abi.encodePacked(temp1)) == getUint(keccak256(abi.encodePacked(temp2));\n    /// Ex3 - mapping(string => SymbolDetails) registeredSymbols; where SymbolDetails is the structure having different type of values as\n    /// {uint256 date, string name, address owner} etc.\n    /// string _name = getString(keccak256(abi.encodePacked(\"registeredSymbols_name\", \"TOKEN\"));\n\n    function getUintValue(bytes32 _variable) public view returns(uint256) {\n        return uintStorage[_variable];\n    }\n\n    function getBoolValue(bytes32 _variable) public view returns(bool) {\n        return boolStorage[_variable];\n    }\n\n    function getStringValue(bytes32 _variable) public view returns(string memory) {\n        return stringStorage[_variable];\n    }\n\n    function getAddressValue(bytes32 _variable) public view returns(address) {\n        return addressStorage[_variable];\n    }\n\n    function getBytes32Value(bytes32 _variable) public view returns(bytes32) {\n        return bytes32Storage[_variable];\n    }\n\n    function getBytesValue(bytes32 _variable) public view returns(bytes memory) {\n        return bytesStorage[_variable];\n    }\n\n}\n\n",
  "sourcePath": "/home/duchuy/Documents/bach_khoa/luan_van/ecs/ecs-smart-contracts/contracts/storage/EternalStorage.sol",
  "compiler": {
    "name": "solc",
    "version": "0.5.4+commit.9549d8ff.Emscripten.clang"
  },
  "schemaVersion": "3.4.1",
  "updatedAt": "2021-11-01T14:38:11.248Z",
  "devdoc": {
    "methods": {
      "pushArray(bytes32,address)": {
        "params": {
          "_key": "bytes32 type",
          "_value": "[uint256, string, bytes32, address] any of the data type in array"
        }
      }
    }
  },
  "userdoc": {
    "methods": {
      "deleteArrayAddress(bytes32,uint256)": {
        "notice": "/////////////////////////Function used to delete the array element. Ex1- mapping(address => bytes32[]) tokensOwnedByOwner; For deleting the item from array developers needs to create a funtion for that similarly in this case we have the helper function deleteArrayBytes32() which will do it for us deleteArrayBytes32(keccak256(abi.encodePacked(\"tokensOwnedByOwner\", 0x1), 3); -- it will delete the index 3"
      },
      "getArrayAddress(bytes32)": {
        "notice": "////////////////////// getArray functions //////////////////////Get functions to get the array of the required data type Ex1- mapping(address => bytes32[]) tokensOwnedByOwner; getArrayBytes32(keccak256(abi.encodePacked(\"tokensOwnedByOwner\", 0x1)); It return the bytes32 array Ex2- uint256 _len =  tokensOwnedByOwner[0x1].length; replace with getArrayBytes32(keccak256(abi.encodePacked(\"tokensOwnedByOwner\", 0x1)).length;"
      },
      "getUintValue(bytes32)": {
        "notice": "Public getters functionsGet function use to get the value of the singleton state variables Ex1- string public version = \"0.0.1\"; string _version = getString(keccak256(abi.encodePacked(\"version\")); Ex2 - assert(temp1 == temp2); replace to assert(getUint(keccak256(abi.encodePacked(temp1)) == getUint(keccak256(abi.encodePacked(temp2)); Ex3 - mapping(string => SymbolDetails) registeredSymbols; where SymbolDetails is the structure having different type of values as {uint256 date, string name, address owner} etc. string _name = getString(keccak256(abi.encodePacked(\"registeredSymbols_name\", \"TOKEN\"));"
      },
      "pushArray(bytes32,address)": {
        "notice": "///////////////////////// / pushArray functions ////////////////////////Below are the helper functions to facilitate storing arrays of different data types. Ex1- mapping(address => bytes32[]) tokensOwnedByTicker; tokensOwnedByTicker[owner] = tokensOwnedByTicker[owner].push(\"xyz\"); replace with pushArray(keccak256(abi.encodePacked(\"tokensOwnedByTicker\", owner), \"xyz\");use to store the values for the array"
      },
      "set(bytes32,uint256)": {
        "notice": "/////////////// / set functions ///////////////Set the key values using the Overloaded `set` functions Ex- string version = \"0.0.1\"; replace to set(keccak256(abi.encodePacked(\"version\"), \"0.0.1\"); same for the other variables as well some more example listed below ex1 - address securityTokenAddress = 0x123; replace to set(keccak256(abi.encodePacked(\"securityTokenAddress\"), 0x123); ex2 - bytes32 tokenDetails = \"I am ST20\"; replace to set(keccak256(abi.encodePacked(\"tokenDetails\"), \"I am ST20\"); ex3 - mapping(string => address) ownedToken; set(keccak256(abi.encodePacked(\"ownedToken\", \"Chris\")), 0x123); ex4 - mapping(string => uint) tokenIndex; tokenIndex[\"TOKEN\"] = 1; replace to set(keccak256(abi.encodePacked(\"tokenIndex\", \"TOKEN\"), 1); ex5 - mapping(string => SymbolDetails) registeredSymbols; where SymbolDetails is the structure having different type of values as {uint256 date, string name, address owner} etc. registeredSymbols[\"TOKEN\"].name = \"MyFristToken\"; replace to set(keccak256(abi.encodePacked(\"registeredSymbols_name\", \"TOKEN\"), \"MyFirstToken\"); More generalized- set(keccak256(abi.encodePacked(\"registeredSymbols_<struct variable>\", \"keyname\"), \"value\");"
      },
      "setArray(bytes32,address[])": {
        "notice": "////////////////////// / Set Array functions /////////////////////used to intialize the array Ex1- mapping (address => address[]) public reputation; reputation[0x1] = new address[](0); It can be replaced as setArray(hash('reputation', 0x1), new address[](0));"
      },
      "setArrayIndexValue(bytes32,uint256,address)": {
        "notice": "//////////////////////////////// setArrayIndexValue() functions ////////////////////////////////set the value of particular index of the address array Ex1- mapping(bytes32 => address[]) moduleList; general way is -- moduleList[moduleType][index] = temp; It can be re-write as -- setArrayIndexValue(keccak256(abi.encodePacked('moduleList', moduleType)), index, temp);"
      }
    }
  }
}