{
  "abi": [
    {
      "constant": true,
      "inputs": [
        {
          "internalType": "bytes32",
          "name": "",
          "type": "bytes32"
        },
        {
          "internalType": "uint256",
          "name": "",
          "type": "uint256"
        }
      ],
      "name": "addressArrayStorage",
      "outputs": [
        {
          "internalType": "address",
          "name": "",
          "type": "address"
        }
      ],
      "payable": false,
      "stateMutability": "view",
      "type": "function"
    },
    {
      "constant": true,
      "inputs": [
        {
          "internalType": "bytes32",
          "name": "",
          "type": "bytes32"
        }
      ],
      "name": "addressStorage",
      "outputs": [
        {
          "internalType": "address",
          "name": "",
          "type": "address"
        }
      ],
      "payable": false,
      "stateMutability": "view",
      "type": "function"
    },
    {
      "constant": true,
      "inputs": [
        {
          "internalType": "bytes32",
          "name": "",
          "type": "bytes32"
        }
      ],
      "name": "boolStorage",
      "outputs": [
        {
          "internalType": "bool",
          "name": "",
          "type": "bool"
        }
      ],
      "payable": false,
      "stateMutability": "view",
      "type": "function"
    },
    {
      "constant": true,
      "inputs": [
        {
          "internalType": "bytes32",
          "name": "",
          "type": "bytes32"
        },
        {
          "internalType": "uint256",
          "name": "",
          "type": "uint256"
        }
      ],
      "name": "bytes32ArrayStorage",
      "outputs": [
        {
          "internalType": "bytes32",
          "name": "",
          "type": "bytes32"
        }
      ],
      "payable": false,
      "stateMutability": "view",
      "type": "function"
    },
    {
      "constant": true,
      "inputs": [
        {
          "internalType": "bytes32",
          "name": "",
          "type": "bytes32"
        }
      ],
      "name": "bytes32Storage",
      "outputs": [
        {
          "internalType": "bytes32",
          "name": "",
          "type": "bytes32"
        }
      ],
      "payable": false,
      "stateMutability": "view",
      "type": "function"
    },
    {
      "constant": true,
      "inputs": [
        {
          "internalType": "bytes32",
          "name": "",
          "type": "bytes32"
        }
      ],
      "name": "bytesStorage",
      "outputs": [
        {
          "internalType": "bytes",
          "name": "",
          "type": "bytes"
        }
      ],
      "payable": false,
      "stateMutability": "view",
      "type": "function"
    },
    {
      "constant": false,
      "inputs": [
        {
          "internalType": "bytes32",
          "name": "_key",
          "type": "bytes32"
        },
        {
          "internalType": "uint256",
          "name": "_index",
          "type": "uint256"
        }
      ],
      "name": "deleteArrayAddress",
      "outputs": [],
      "payable": false,
      "stateMutability": "nonpayable",
      "type": "function"
    },
    {
      "constant": false,
      "inputs": [
        {
          "internalType": "bytes32",
          "name": "_key",
          "type": "bytes32"
        },
        {
          "internalType": "uint256",
          "name": "_index",
          "type": "uint256"
        }
      ],
      "name": "deleteArrayBytes32",
      "outputs": [],
      "payable": false,
      "stateMutability": "nonpayable",
      "type": "function"
    },
    {
      "constant": false,
      "inputs": [
        {
          "internalType": "bytes32",
          "name": "_key",
          "type": "bytes32"
        },
        {
          "internalType": "uint256",
          "name": "_index",
          "type": "uint256"
        }
      ],
      "name": "deleteArrayString",
      "outputs": [],
      "payable": false,
      "stateMutability": "nonpayable",
      "type": "function"
    },
    {
      "constant": false,
      "inputs": [
        {
          "internalType": "bytes32",
          "name": "_key",
          "type": "bytes32"
        },
        {
          "internalType": "uint256",
          "name": "_index",
          "type": "uint256"
        }
      ],
      "name": "deleteArrayUint",
      "outputs": [],
      "payable": false,
      "stateMutability": "nonpayable",
      "type": "function"
    },
    {
      "constant": true,
      "inputs": [
        {
          "internalType": "bytes32",
          "name": "_variable",
          "type": "bytes32"
        }
      ],
      "name": "getAddressValue",
      "outputs": [
        {
          "internalType": "address",
          "name": "",
          "type": "address"
        }
      ],
      "payable": false,
      "stateMutability": "view",
      "type": "function"
    },
    {
      "constant": true,
      "inputs": [
        {
          "internalType": "bytes32",
          "name": "_key",
          "type": "bytes32"
        }
      ],
      "name": "getArrayAddress",
      "outputs": [
        {
          "internalType": "address[]",
          "name": "",
          "type": "address[]"
        }
      ],
      "payable": false,
      "stateMutability": "view",
      "type": "function"
    },
    {
      "constant": true,
      "inputs": [
        {
          "internalType": "bytes32",
          "name": "_key",
          "type": "bytes32"
        }
      ],
      "name": "getArrayBytes32",
      "outputs": [
        {
          "internalType": "bytes32[]",
          "name": "",
          "type": "bytes32[]"
        }
      ],
      "payable": false,
      "stateMutability": "view",
      "type": "function"
    },
    {
      "constant": true,
      "inputs": [
        {
          "internalType": "bytes32",
          "name": "_key",
          "type": "bytes32"
        }
      ],
      "name": "getArrayString",
      "outputs": [
        {
          "internalType": "string[]",
          "name": "",
          "type": "string[]"
        }
      ],
      "payable": false,
      "stateMutability": "view",
      "type": "function"
    },
    {
      "constant": true,
      "inputs": [
        {
          "internalType": "bytes32",
          "name": "_key",
          "type": "bytes32"
        }
      ],
      "name": "getArrayUint",
      "outputs": [
        {
          "internalType": "uint256[]",
          "name": "",
          "type": "uint256[]"
        }
      ],
      "payable": false,
      "stateMutability": "view",
      "type": "function"
    },
    {
      "constant": true,
      "inputs": [
        {
          "internalType": "bytes32",
          "name": "_variable",
          "type": "bytes32"
        }
      ],
      "name": "getBoolValue",
      "outputs": [
        {
          "internalType": "bool",
          "name": "",
          "type": "bool"
        }
      ],
      "payable": false,
      "stateMutability": "view",
      "type": "function"
    },
    {
      "constant": true,
      "inputs": [
        {
          "internalType": "bytes32",
          "name": "_variable",
          "type": "bytes32"
        }
      ],
      "name": "getBytes32Value",
      "outputs": [
        {
          "internalType": "bytes32",
          "name": "",
          "type": "bytes32"
        }
      ],
      "payable": false,
      "stateMutability": "view",
      "type": "function"
    },
    {
      "constant": true,
      "inputs": [
        {
          "internalType": "bytes32",
          "name": "_variable",
          "type": "bytes32"
        }
      ],
      "name": "getBytesValue",
      "outputs": [
        {
          "internalType": "bytes",
          "name": "",
          "type": "bytes"
        }
      ],
      "payable": false,
      "stateMutability": "view",
      "type": "function"
    },
    {
      "constant": true,
      "inputs": [
        {
          "internalType": "bytes32",
          "name": "_variable",
          "type": "bytes32"
        }
      ],
      "name": "getStringValue",
      "outputs": [
        {
          "internalType": "string",
          "name": "",
          "type": "string"
        }
      ],
      "payable": false,
      "stateMutability": "view",
      "type": "function"
    },
    {
      "constant": true,
      "inputs": [
        {
          "internalType": "bytes32",
          "name": "_variable",
          "type": "bytes32"
        }
      ],
      "name": "getUintValue",
      "outputs": [
        {
          "internalType": "uint256",
          "name": "",
          "type": "uint256"
        }
      ],
      "payable": false,
      "stateMutability": "view",
      "type": "function"
    },
    {
      "constant": true,
      "inputs": [
        {
          "internalType": "bytes32",
          "name": "",
          "type": "bytes32"
        }
      ],
      "name": "intStorage",
      "outputs": [
        {
          "internalType": "int256",
          "name": "",
          "type": "int256"
        }
      ],
      "payable": false,
      "stateMutability": "view",
      "type": "function"
    },
    {
      "constant": false,
      "inputs": [
        {
          "internalType": "bytes32",
          "name": "_key",
          "type": "bytes32"
        },
        {
          "internalType": "uint256",
          "name": "_value",
          "type": "uint256"
        }
      ],
      "name": "pushArray",
      "outputs": [],
      "payable": false,
      "stateMutability": "nonpayable",
      "type": "function"
    },
    {
      "constant": false,
      "inputs": [
        {
          "internalType": "bytes32",
          "name": "_key",
          "type": "bytes32"
        },
        {
          "internalType": "bytes32",
          "name": "_value",
          "type": "bytes32"
        }
      ],
      "name": "pushArray",
      "outputs": [],
      "payable": false,
      "stateMutability": "nonpayable",
      "type": "function"
    },
    {
      "constant": false,
      "inputs": [
        {
          "internalType": "bytes32",
          "name": "_key",
          "type": "bytes32"
        },
        {
          "internalType": "address",
          "name": "_value",
          "type": "address"
        }
      ],
      "name": "pushArray",
      "outputs": [],
      "payable": false,
      "stateMutability": "nonpayable",
      "type": "function"
    },
    {
      "constant": false,
      "inputs": [
        {
          "internalType": "bytes32",
          "name": "_key",
          "type": "bytes32"
        },
        {
          "internalType": "string",
          "name": "_value",
          "type": "string"
        }
      ],
      "name": "pushArray",
      "outputs": [],
      "payable": false,
      "stateMutability": "nonpayable",
      "type": "function"
    },
    {
      "constant": false,
      "inputs": [
        {
          "internalType": "bytes32",
          "name": "_key",
          "type": "bytes32"
        },
        {
          "internalType": "bool",
          "name": "_value",
          "type": "bool"
        }
      ],
      "name": "set",
      "outputs": [],
      "payable": false,
      "stateMutability": "nonpayable",
      "type": "function"
    },
    {
      "constant": false,
      "inputs": [
        {
          "internalType": "bytes32",
          "name": "_key",
          "type": "bytes32"
        },
        {
          "internalType": "uint256",
          "name": "_value",
          "type": "uint256"
        }
      ],
      "name": "set",
      "outputs": [],
      "payable": false,
      "stateMutability": "nonpayable",
      "type": "function"
    },
    {
      "constant": false,
      "inputs": [
        {
          "internalType": "bytes32",
          "name": "_key",
          "type": "bytes32"
        },
        {
          "internalType": "bytes",
          "name": "_value",
          "type": "bytes"
        }
      ],
      "name": "set",
      "outputs": [],
      "payable": false,
      "stateMutability": "nonpayable",
      "type": "function"
    },
    {
      "constant": false,
      "inputs": [
        {
          "internalType": "bytes32",
          "name": "_key",
          "type": "bytes32"
        },
        {
          "internalType": "string",
          "name": "_value",
          "type": "string"
        }
      ],
      "name": "set",
      "outputs": [],
      "payable": false,
      "stateMutability": "nonpayable",
      "type": "function"
    },
    {
      "constant": false,
      "inputs": [
        {
          "internalType": "bytes32",
          "name": "_key",
          "type": "bytes32"
        },
        {
          "internalType": "address",
          "name": "_value",
          "type": "address"
        }
      ],
      "name": "set",
      "outputs": [],
      "payable": false,
      "stateMutability": "nonpayable",
      "type": "function"
    },
    {
      "constant": false,
      "inputs": [
        {
          "internalType": "bytes32",
          "name": "_key",
          "type": "bytes32"
        },
        {
          "internalType": "bytes32",
          "name": "_value",
          "type": "bytes32"
        }
      ],
      "name": "set",
      "outputs": [],
      "payable": false,
      "stateMutability": "nonpayable",
      "type": "function"
    },
    {
      "constant": false,
      "inputs": [
        {
          "internalType": "bytes32",
          "name": "_key",
          "type": "bytes32"
        },
        {
          "internalType": "string[]",
          "name": "_value",
          "type": "string[]"
        }
      ],
      "name": "setArray",
      "outputs": [],
      "payable": false,
      "stateMutability": "nonpayable",
      "type": "function"
    },
    {
      "constant": false,
      "inputs": [
        {
          "internalType": "bytes32",
          "name": "_key",
          "type": "bytes32"
        },
        {
          "internalType": "uint256[]",
          "name": "_value",
          "type": "uint256[]"
        }
      ],
      "name": "setArray",
      "outputs": [],
      "payable": false,
      "stateMutability": "nonpayable",
      "type": "function"
    },
    {
      "constant": false,
      "inputs": [
        {
          "internalType": "bytes32",
          "name": "_key",
          "type": "bytes32"
        },
        {
          "internalType": "bytes32[]",
          "name": "_value",
          "type": "bytes32[]"
        }
      ],
      "name": "setArray",
      "outputs": [],
      "payable": false,
      "stateMutability": "nonpayable",
      "type": "function"
    },
    {
      "constant": false,
      "inputs": [
        {
          "internalType": "bytes32",
          "name": "_key",
          "type": "bytes32"
        },
        {
          "internalType": "address[]",
          "name": "_value",
          "type": "address[]"
        }
      ],
      "name": "setArray",
      "outputs": [],
      "payable": false,
      "stateMutability": "nonpayable",
      "type": "function"
    },
    {
      "constant": false,
      "inputs": [
        {
          "internalType": "bytes32",
          "name": "_key",
          "type": "bytes32"
        },
        {
          "internalType": "uint256",
          "name": "_index",
          "type": "uint256"
        },
        {
          "internalType": "address",
          "name": "_value",
          "type": "address"
        }
      ],
      "name": "setArrayIndexValue",
      "outputs": [],
      "payable": false,
      "stateMutability": "nonpayable",
      "type": "function"
    },
    {
      "constant": false,
      "inputs": [
        {
          "internalType": "bytes32",
          "name": "_key",
          "type": "bytes32"
        },
        {
          "internalType": "uint256",
          "name": "_index",
          "type": "uint256"
        },
        {
          "internalType": "uint256",
          "name": "_value",
          "type": "uint256"
        }
      ],
      "name": "setArrayIndexValue",
      "outputs": [],
      "payable": false,
      "stateMutability": "nonpayable",
      "type": "function"
    },
    {
      "constant": false,
      "inputs": [
        {
          "internalType": "bytes32",
          "name": "_key",
          "type": "bytes32"
        },
        {
          "internalType": "uint256",
          "name": "_index",
          "type": "uint256"
        },
        {
          "internalType": "bytes32",
          "name": "_value",
          "type": "bytes32"
        }
      ],
      "name": "setArrayIndexValue",
      "outputs": [],
      "payable": false,
      "stateMutability": "nonpayable",
      "type": "function"
    },
    {
      "constant": false,
      "inputs": [
        {
          "internalType": "bytes32",
          "name": "_key",
          "type": "bytes32"
        },
        {
          "internalType": "uint256",
          "name": "_index",
          "type": "uint256"
        },
        {
          "internalType": "string",
          "name": "_value",
          "type": "string"
        }
      ],
      "name": "setArrayIndexValue",
      "outputs": [],
      "payable": false,
      "stateMutability": "nonpayable",
      "type": "function"
    },
    {
      "constant": true,
      "inputs": [
        {
          "internalType": "bytes32",
          "name": "",
          "type": "bytes32"
        },
        {
          "internalType": "uint256",
          "name": "",
          "type": "uint256"
        }
      ],
      "name": "stringArrayStorage",
      "outputs": [
        {
          "internalType": "string",
          "name": "",
          "type": "string"
        }
      ],
      "payable": false,
      "stateMutability": "view",
      "type": "function"
    },
    {
      "constant": true,
      "inputs": [
        {
          "internalType": "bytes32",
          "name": "",
          "type": "bytes32"
        }
      ],
      "name": "stringStorage",
      "outputs": [
        {
          "internalType": "string",
          "name": "",
          "type": "string"
        }
      ],
      "payable": false,
      "stateMutability": "view",
      "type": "function"
    },
    {
      "constant": true,
      "inputs": [
        {
          "internalType": "bytes32",
          "name": "",
          "type": "bytes32"
        },
        {
          "internalType": "uint256",
          "name": "",
          "type": "uint256"
        }
      ],
      "name": "uintArrayStorage",
      "outputs": [
        {
          "internalType": "uint256",
          "name": "",
          "type": "uint256"
        }
      ],
      "payable": false,
      "stateMutability": "view",
      "type": "function"
    },
    {
      "constant": true,
      "inputs": [
        {
          "internalType": "bytes32",
          "name": "",
          "type": "bytes32"
        }
      ],
      "name": "uintStorage",
      "outputs": [
        {
          "internalType": "uint256",
          "name": "",
          "type": "uint256"
        }
      ],
      "payable": false,
      "stateMutability": "view",
      "type": "function"
    }
  ],
  "bytecode": "608060405234801561001057600080fd5b50611cc1806100206000396000f3fe608060405234801561001057600080fd5b50600436106102695760003560e01c80638ffa969011610151578063ba44593c116100c3578063df83ec3711610087578063df83ec3714610593578063e2ae9de0146105a6578063e82617fb146105b9578063e979af97146105cc578063f6fcbee1146105df578063f71f7a25146105ff57610269565b8063ba44593c14610534578063c0de461914610547578063c193fbf81461055a578063c1d63ce61461056d578063c9eda1211461058057610269565b8063a209a29c11610115578063a209a29c146104b5578063a855d4ce146104c8578063a8f0d3a7146104db578063aac438c0146104fb578063b48000331461050e578063b9a0157e1461052157610269565b80638ffa9690146104565780639a6e9914146104695780639f6264d31461047c578063a02b114c1461048f578063a04ce2c5146104a257610269565b80633b7bfda0116101ea5780635fed2edd116101ae5780635fed2edd146103d757806363a4b67b146103ea5780636f3b8ce2146103fd578063789c617c1461041d5780637da208aa14610430578063858fa2f51461044357610269565b80633b7bfda01461036b57806344bfa56e1461038b5780634a3270d71461039e5780634c77e5ba146103b157806357f65e24146103c457610269565b80630daa5703116102315780630daa57031461030a578063273f49401461031f57806335f7ff631461033257806335ff058a1461034557806336cb65921461035857610269565b8063025ec81a1461026e578063031578af1461029757806304f49a3a146102aa57806305e2eee0146102ca57806308da76a4146102ea575b600080fd5b61028161027c36600461159a565b610612565b60405161028e9190611b48565b60405180910390f35b6102816102a536600461159a565b610624565b6102bd6102b836600461159a565b610636565b60405161028e9190611ae8565b6102dd6102d836600461159a565b610651565b60405161028e9190611b18565b6102fd6102f836600461174a565b61073c565b60405161028e9190611b56565b61031d61031836600461171a565b6107f0565b005b61031d61032d36600461174a565b610810565b6102fd61034036600461159a565b610822565b61031d61035336600461174a565b610889565b6102bd61036636600461174a565b6108ac565b61037e61037936600461159a565b6108e1565b60405161028e9190611b3a565b6102fd61039936600461159a565b6108f6565b6102fd6103ac36600461159a565b610997565b6102bd6103bf36600461159a565b6109ff565b61031d6103d236600461168a565b610a1a565b61031d6103e536600461174a565b610a3e565b61031d6103f83660046116d2565b610a61565b61041061040b36600461159a565b610a80565b60405161028e9190611af6565b61028161042b36600461159a565b610aeb565b61031d61043e36600461174a565b610afd565b61031d6104513660046117c2565b610baf565b61037e61046436600461159a565b610bff565b61031d61047736600461174a565b610c14565b61031d61048a366004611642565b610ca4565b61031d61049d3660046115fa565b610cc3565b61031d6104b036600461180f565b610ce2565b6102fd6104c336600461159a565b610d10565b6102816104d636600461159a565b610d79565b6104ee6104e936600461159a565b610d8b565b60405161028e9190611b07565b61031d61050936600461177a565b610dec565b61031d61051c36600461177a565b610e0b565b61031d61052f36600461180f565b610e2a565b61031d6105423660046115c0565b610e47565b61028161055536600461174a565b610e75565b61031d6105683660046115c0565b610ea3565b61031d61057b36600461174a565b610ee2565b61031d61058e366004611852565b610f55565b6102816105a136600461174a565b610f8f565b61031d6105b436600461174a565b610fa8565b6102816105c736600461159a565b610fd6565b61031d6105da36600461177a565b610fe8565b6105f26105ed36600461159a565b61101c565b60405161028e9190611b29565b61031d61060d36600461174a565b61107c565b60009081526006602052604090205490565b60066020526000908152604090205481565b6002602052600090815260409020546001600160a01b031681565b6060600a6000838152602001908152602001600020805480602002602001604051908101604052809291908181526020016000905b828210156107315760008481526020908190208301805460408051601f600260001961010060018716150201909416939093049283018590048502810185019091528181529283018282801561071d5780601f106106f25761010080835404028352916020019161071d565b820191906000526020600020905b81548152906001019060200180831161070057829003601f168201915b505050505081526020019060010190610686565b505050509050919050565b600a602052816000526040600020818154811061075557fe5b600091825260209182902001805460408051601f600260001961010060018716150201909416939093049283018590048502810185019091528181529450909250908301828280156107e85780601f106107bd576101008083540402835291602001916107e8565b820191906000526020600020905b8154815290600101906020018083116107cb57829003601f168201915b505050505081565b600091825260046020526040909120805460ff1916911515919091179055565b60009182526020829052604090912055565b60016020818152600092835260409283902080548451600294821615610100026000190190911693909304601f81018390048302840183019094528383529192908301828280156107e85780601f106107bd576101008083540402835291602001916107e8565b600091825260086020908152604083208054600181018255908452922090910155565b600960205281600052604060002081815481106108c557fe5b6000918252602090912001546001600160a01b03169150829050565b60046020526000908152604090205460ff1681565b60008181526003602090815260409182902080548351601f600260001961010060018616150201909316929092049182018490048402810184019094528084526060939283018282801561098b5780601f106109605761010080835404028352916020019161098b565b820191906000526020600020905b81548152906001019060200180831161096e57829003601f168201915b50505050509050919050565b60036020908152600091825260409182902080548351601f6002600019610100600186161502019093169290920491820184900484028101840190945280845290918301828280156107e85780601f106107bd576101008083540402835291602001916107e8565b6000908152600260205260409020546001600160a01b031690565b6000828152600a602090815260409091208251610a399284019061108e565b505050565b600091825260076020908152604083208054600181018255908452922090910155565b60008281526008602090815260409091208251610a39928401906110eb565b60008181526009602090815260409182902080548351818402810184019094528084526060939283018282801561098b57602002820191906000526020600020905b81546001600160a01b03168152600190910190602001808311610ac25750505050509050919050565b60056020526000908152604090205481565b600082815260096020526040902080548210610b345760405162461bcd60e51b8152600401610b2b90611b67565b60405180910390fd5b805481906000198101908110610b4657fe5b9060005260206000200160009054906101000a90046001600160a01b0316818381548110610b7057fe5b600091825260209091200180546001600160a01b0319166001600160a01b0392909216919091179055805460001901610ba98282611132565b50505050565b6000838152600960205260409020805482919084908110610bcc57fe5b9060005260206000200160006101000a8154816001600160a01b0302191690836001600160a01b03160217905550505050565b60009081526004602052604090205460ff1690565b6000828152600a6020526040902080548210610c425760405162461bcd60e51b8152600401610b2b90611b67565b805481906000198101908110610c5457fe5b90600052602060002001818381548110610c6a57fe5b906000526020600020019080546001816001161561010002031660029004610c93929190611156565b50805460001901610ba982826111cb565b60008281526007602090815260409091208251610a39928401906110eb565b60008281526009602090815260409091208251610a39928401906111ef565b6000838152600860205260409020805482919084908110610cff57fe5b600091825260209091200155505050565b60008181526001602081815260409283902080548451600294821615610100026000190190911693909304601f8101839004830284018301909452838352606093909183018282801561098b5780601f106109605761010080835404028352916020019161098b565b60006020819052908152604090205481565b60008181526007602090815260409182902080548351818402810184019094528084526060939283018282801561098b57602002820191906000526020600020905b815481526020019060010190808311610dcd5750505050509050919050565b60008281526003602090815260409091208251610a3992840190611250565b60008281526001602090815260409091208251610a3992840190611250565b6000838152600760205260409020805482919084908110610cff57fe5b60009182526002602052604090912080546001600160a01b0319166001600160a01b03909216919091179055565b60086020528160005260406000208181548110610e8e57fe5b90600052602060002001600091509150505481565b600091825260096020908152604083208054600181018255908452922090910180546001600160a01b0319166001600160a01b03909216919091179055565b600082815260076020526040902080548210610f105760405162461bcd60e51b8152600401610b2b90611b67565b805481906000198101908110610f2257fe5b9060005260206000200154818381548110610f3957fe5b600091825260209091200155805460001901610ba98282611132565b6000838152600a60205260409020805482919084908110610f7257fe5b906000526020600020019080519060200190610ba9929190611250565b60076020528160005260406000208181548110610e8e57fe5b600082815260086020526040902080548210610f105760405162461bcd60e51b8152600401610b2b90611b67565b60009081526020819052604090205490565b6000828152600a6020908152604082208054600181018083559184529282902084519193610ba99391019190850190611250565b60008181526008602090815260409182902080548351818402810184019094528084526060939283018282801561098b5760200282019190600052602060002090815481526020019060010190808311610dcd5750505050509050919050565b60009182526006602052604090912055565b8280548282559060005260206000209081019282156110db579160200282015b828111156110db57825180516110cb918491602090910190611250565b50916020019190600101906110ae565b506110e79291506112bd565b5090565b828054828255906000526020600020908101928215611126579160200282015b8281111561112657825182559160200191906001019061110b565b506110e79291506112e3565b815481835581811115610a3957600083815260209020610a399181019083016112e3565b828054600181600116156101000203166002900490600052602060002090601f016020900481019282601f1061118f5780548555611126565b8280016001018555821561112657600052602060002091601f016020900482015b828111156111265782548255916001019190600101906111b0565b815481835581811115610a3957600083815260209020610a399181019083016112bd565b828054828255906000526020600020908101928215611244579160200282015b8281111561124457825182546001600160a01b0319166001600160a01b0390911617825560209092019160019091019061120f565b506110e79291506112fd565b828054600181600116156101000203166002900490600052602060002090601f016020900481019282601f1061129157805160ff1916838001178555611126565b82800160010185558215611126579182018281111561112657825182559160200191906001019061110b565b6112e091905b808211156110e75760006112d78282611321565b506001016112c3565b90565b6112e091905b808211156110e757600081556001016112e9565b6112e091905b808211156110e75780546001600160a01b0319168155600101611303565b50805460018160011615610100020316600290046000825580601f106113475750611365565b601f01602090049060005260206000209081019061136591906112e3565b50565b803561137381611c58565b92915050565b600082601f83011261138a57600080fd5b813561139d61139882611b9e565b611b77565b915081818352602084019350602081019050838560208402820111156113c257600080fd5b60005b838110156113ee57816113d88882611368565b84525060209283019291909101906001016113c5565b5050505092915050565b600082601f83011261140957600080fd5b813561141761139882611b9e565b9150818183526020840193506020810190508385602084028201111561143c57600080fd5b60005b838110156113ee57816114528882611540565b845250602092830192919091019060010161143f565b600082601f83011261147957600080fd5b813561148761139882611b9e565b81815260209384019390925082018360005b838110156113ee57813586016114af888261154b565b8452506020928301929190910190600101611499565b600082601f8301126114d657600080fd5b81356114e461139882611b9e565b9150818183526020840193506020810190508385602084028201111561150957600080fd5b60005b838110156113ee578161151f8882611540565b845250602092830192919091019060010161150c565b803561137381611c6c565b803561137381611c75565b600082601f83011261155c57600080fd5b813561156a61139882611bbf565b9150808252602083016020830185838301111561158657600080fd5b611591838284611c16565b50505092915050565b6000602082840312156115ac57600080fd5b60006115b88484611540565b949350505050565b600080604083850312156115d357600080fd5b60006115df8585611540565b92505060206115f085828601611368565b9150509250929050565b6000806040838503121561160d57600080fd5b60006116198585611540565b925050602083013567ffffffffffffffff81111561163657600080fd5b6115f085828601611379565b6000806040838503121561165557600080fd5b60006116618585611540565b925050602083013567ffffffffffffffff81111561167e57600080fd5b6115f0858286016113f8565b6000806040838503121561169d57600080fd5b60006116a98585611540565b925050602083013567ffffffffffffffff8111156116c657600080fd5b6115f085828601611468565b600080604083850312156116e557600080fd5b60006116f18585611540565b925050602083013567ffffffffffffffff81111561170e57600080fd5b6115f0858286016114c5565b6000806040838503121561172d57600080fd5b60006117398585611540565b92505060206115f085828601611535565b6000806040838503121561175d57600080fd5b60006117698585611540565b92505060206115f085828601611540565b6000806040838503121561178d57600080fd5b60006117998585611540565b925050602083013567ffffffffffffffff8111156117b657600080fd5b6115f08582860161154b565b6000806000606084860312156117d757600080fd5b60006117e38686611540565b93505060206117f486828701611540565b925050604061180586828701611368565b9150509250925092565b60008060006060848603121561182457600080fd5b60006118308686611540565b935050602061184186828701611540565b925050604061180586828701611540565b60008060006060848603121561186757600080fd5b60006118738686611540565b935050602061188486828701611540565b925050604084013567ffffffffffffffff8111156118a157600080fd5b6118058682870161154b565b60006118b983836118e0565b505060200190565b60006118b98383611a5b565b60006118d98383611a64565b9392505050565b6118e981611bfa565b82525050565b60006118fa82611bed565b6119048185611bf1565b935061190f83611be7565b8060005b8381101561193d57815161192788826118ad565b975061193283611be7565b925050600101611913565b509495945050505050565b600061195382611bed565b61195d8185611bf1565b935061196883611be7565b8060005b8381101561193d57815161198088826118c1565b975061198b83611be7565b92505060010161196c565b60006119a182611bed565b6119ab8185611bf1565b9350836020820285016119bd85611be7565b8060005b858110156119f757848403895281516119da85826118cd565b94506119e583611be7565b60209a909a01999250506001016119c1565b5091979650505050505050565b6000611a0f82611bed565b611a198185611bf1565b9350611a2483611be7565b8060005b8381101561193d578151611a3c88826118c1565b9750611a4783611be7565b925050600101611a28565b6118e981611c05565b6118e9816112e0565b6000611a6f82611bed565b611a798185611bf1565b9350611a89818560208601611c22565b611a9281611c4e565b9093019392505050565b6000611aa9602a83611bf1565b7f496e6465782073686f756c64206c657373207468616e206c656e677468206f668152692074686520617272617960b01b602082015260400192915050565b6020810161137382846118e0565b602080825281016118d981846118ef565b602080825281016118d98184611948565b602080825281016118d98184611996565b602080825281016118d98184611a04565b602081016113738284611a52565b602081016113738284611a5b565b602080825281016118d98184611a64565b6020808252810161137381611a9c565b60405181810167ffffffffffffffff81118282101715611b9657600080fd5b604052919050565b600067ffffffffffffffff821115611bb557600080fd5b5060209081020190565b600067ffffffffffffffff821115611bd657600080fd5b506020601f91909101601f19160190565b60200190565b5190565b90815260200190565b600061137382611c0a565b151590565b6001600160a01b031690565b82818337506000910152565b60005b83811015611c3d578181015183820152602001611c25565b83811115610ba95750506000910152565b601f01601f191690565b611c6181611bfa565b811461136557600080fd5b611c6181611c05565b611c61816112e056fea365627a7a72315820c410037e3b38648d11c59e391f20137da0bc249341a043e2bca4c8fe26ae208a6c6578706572696d656e74616cf564736f6c63430005110040",
  "bytecodeSha1": "d22d4118fe8a227cf037d1cc5f6f51f6940cd4a7",
  "compiler": {
    "evm_version": "istanbul",
    "optimizer": {
      "enabled": true,
      "runs": 200
    },
    "version": "0.5.17+commit.d19bba13"
  },
  "contractName": "EternalStorage",
  "language": "Solidity",
  "natspec": {
    "methods": {
      "deleteArrayAddress(bytes32,uint256)": {
        "notice": "/////////////////////////Function used to delete the array element. Ex1- mapping(address => bytes32[]) tokensOwnedByOwner; For deleting the item from array developers needs to create a funtion for that similarly in this case we have the helper function deleteArrayBytes32() which will do it for us deleteArrayBytes32(keccak256(abi.encodePacked(\"tokensOwnedByOwner\", 0x1), 3); -- it will delete the index 3"
      },
      "getArrayAddress(bytes32)": {
        "notice": "////////////////////// getArray functions //////////////////////Get functions to get the array of the required data type Ex1- mapping(address => bytes32[]) tokensOwnedByOwner; getArrayBytes32(keccak256(abi.encodePacked(\"tokensOwnedByOwner\", 0x1)); It return the bytes32 array Ex2- uint256 _len =  tokensOwnedByOwner[0x1].length; replace with getArrayBytes32(keccak256(abi.encodePacked(\"tokensOwnedByOwner\", 0x1)).length;"
      },
      "getUintValue(bytes32)": {
        "notice": "Public getters functionsGet function use to get the value of the singleton state variables Ex1- string public version = \"0.0.1\"; string _version = getString(keccak256(abi.encodePacked(\"version\")); Ex2 - assert(temp1 == temp2); replace to assert(getUint(keccak256(abi.encodePacked(temp1)) == getUint(keccak256(abi.encodePacked(temp2)); Ex3 - mapping(string => SymbolDetails) registeredSymbols; where SymbolDetails is the structure having different type of values as {uint256 date, string name, address owner} etc. string _name = getString(keccak256(abi.encodePacked(\"registeredSymbols_name\", \"TOKEN\"));"
      },
      "pushArray(bytes32,address)": {
        "notice": "///////////////////////// / pushArray functions ////////////////////////Below are the helper functions to facilitate storing arrays of different data types. Ex1- mapping(address => bytes32[]) tokensOwnedByTicker; tokensOwnedByTicker[owner] = tokensOwnedByTicker[owner].push(\"xyz\"); replace with pushArray(keccak256(abi.encodePacked(\"tokensOwnedByTicker\", owner), \"xyz\");use to store the values for the array",
        "params": {
          "_key": "bytes32 type",
          "_value": "[uint256, string, bytes32, address] any of the data type in array"
        }
      },
      "set(bytes32,uint256)": {
        "notice": "/////////////// / set functions ///////////////Set the key values using the Overloaded `set` functions Ex- string version = \"0.0.1\"; replace to set(keccak256(abi.encodePacked(\"version\"), \"0.0.1\"); same for the other variables as well some more example listed below ex1 - address securityTokenAddress = 0x123; replace to set(keccak256(abi.encodePacked(\"securityTokenAddress\"), 0x123); ex2 - bytes32 tokenDetails = \"I am ST20\"; replace to set(keccak256(abi.encodePacked(\"tokenDetails\"), \"I am ST20\"); ex3 - mapping(string => address) ownedToken; set(keccak256(abi.encodePacked(\"ownedToken\", \"Chris\")), 0x123); ex4 - mapping(string => uint) tokenIndex; tokenIndex[\"TOKEN\"] = 1; replace to set(keccak256(abi.encodePacked(\"tokenIndex\", \"TOKEN\"), 1); ex5 - mapping(string => SymbolDetails) registeredSymbols; where SymbolDetails is the structure having different type of values as {uint256 date, string name, address owner} etc. registeredSymbols[\"TOKEN\"].name = \"MyFristToken\"; replace to set(keccak256(abi.encodePacked(\"registeredSymbols_name\", \"TOKEN\"), \"MyFirstToken\"); More generalized- set(keccak256(abi.encodePacked(\"registeredSymbols_<struct variable>\", \"keyname\"), \"value\");"
      },
      "setArray(bytes32,address[])": {
        "notice": "////////////////////// / Set Array functions /////////////////////used to intialize the array Ex1- mapping (address => address[]) public reputation; reputation[0x1] = new address[](0); It can be replaced as setArray(hash('reputation', 0x1), new address[](0));"
      },
      "setArrayIndexValue(bytes32,uint256,address)": {
        "notice": "//////////////////////////////// setArrayIndexValue() functions ////////////////////////////////set the value of particular index of the address array Ex1- mapping(bytes32 => address[]) moduleList; general way is -- moduleList[moduleType][index] = temp; It can be re-write as -- setArrayIndexValue(keccak256(abi.encodePacked('moduleList', moduleType)), index, temp);"
      }
    }
  },
  "opcodes": "PUSH1 0x80 PUSH1 0x40 MSTORE CALLVALUE DUP1 ISZERO PUSH2 0x10 JUMPI PUSH1 0x0 DUP1 REVERT JUMPDEST POP PUSH1 0x4 CALLDATASIZE LT PUSH2 0x269 JUMPI PUSH1 0x0 CALLDATALOAD PUSH1 0xE0 SHR DUP1 PUSH4 0x8FFA9690 GT PUSH2 0x151 JUMPI DUP1 PUSH4 0xBA44593C GT PUSH2 0xC3 JUMPI DUP1 PUSH4 0xDF83EC37 GT PUSH2 0x87 JUMPI DUP1 PUSH4 0xDF83EC37 EQ PUSH2 0x593 JUMPI DUP1 PUSH4 0xE2AE9DE0 EQ PUSH2 0x5A6 JUMPI DUP1 PUSH4 0xE82617FB EQ PUSH2 0x5B9 JUMPI DUP1 PUSH4 0xE979AF97 EQ PUSH2 0x5CC JUMPI DUP1 PUSH4 0xF6FCBEE1 EQ PUSH2 0x5DF JUMPI DUP1 PUSH4 0xF71F7A25 EQ PUSH2 0x5FF JUMPI PUSH2 0x269 JUMP JUMPDEST DUP1 PUSH4 0xBA44593C EQ PUSH2 0x534 JUMPI DUP1 PUSH4 0xC0DE4619 EQ PUSH2 0x547 JUMPI DUP1 PUSH4 0xC193FBF8 EQ PUSH2 0x55A JUMPI DUP1 PUSH4 0xC1D63CE6 EQ PUSH2 0x56D JUMPI DUP1 PUSH4 0xC9EDA121 EQ PUSH2 0x580 JUMPI PUSH2 0x269 JUMP JUMPDEST DUP1 PUSH4 0xA209A29C GT PUSH2 0x115 JUMPI DUP1 PUSH4 0xA209A29C EQ PUSH2 0x4B5 JUMPI DUP1 PUSH4 0xA855D4CE EQ PUSH2 0x4C8 JUMPI DUP1 PUSH4 0xA8F0D3A7 EQ PUSH2 0x4DB JUMPI DUP1 PUSH4 0xAAC438C0 EQ PUSH2 0x4FB JUMPI DUP1 PUSH4 0xB4800033 EQ PUSH2 0x50E JUMPI DUP1 PUSH4 0xB9A0157E EQ PUSH2 0x521 JUMPI PUSH2 0x269 JUMP JUMPDEST DUP1 PUSH4 0x8FFA9690 EQ PUSH2 0x456 JUMPI DUP1 PUSH4 0x9A6E9914 EQ PUSH2 0x469 JUMPI DUP1 PUSH4 0x9F6264D3 EQ PUSH2 0x47C JUMPI DUP1 PUSH4 0xA02B114C EQ PUSH2 0x48F JUMPI DUP1 PUSH4 0xA04CE2C5 EQ PUSH2 0x4A2 JUMPI PUSH2 0x269 JUMP JUMPDEST DUP1 PUSH4 0x3B7BFDA0 GT PUSH2 0x1EA JUMPI DUP1 PUSH4 0x5FED2EDD GT PUSH2 0x1AE JUMPI DUP1 PUSH4 0x5FED2EDD EQ PUSH2 0x3D7 JUMPI DUP1 PUSH4 0x63A4B67B EQ PUSH2 0x3EA JUMPI DUP1 PUSH4 0x6F3B8CE2 EQ PUSH2 0x3FD JUMPI DUP1 PUSH4 0x789C617C EQ PUSH2 0x41D JUMPI DUP1 PUSH4 0x7DA208AA EQ PUSH2 0x430 JUMPI DUP1 PUSH4 0x858FA2F5 EQ PUSH2 0x443 JUMPI PUSH2 0x269 JUMP JUMPDEST DUP1 PUSH4 0x3B7BFDA0 EQ PUSH2 0x36B JUMPI DUP1 PUSH4 0x44BFA56E EQ PUSH2 0x38B JUMPI DUP1 PUSH4 0x4A3270D7 EQ PUSH2 0x39E JUMPI DUP1 PUSH4 0x4C77E5BA EQ PUSH2 0x3B1 JUMPI DUP1 PUSH4 0x57F65E24 EQ PUSH2 0x3C4 JUMPI PUSH2 0x269 JUMP JUMPDEST DUP1 PUSH4 0xDAA5703 GT PUSH2 0x231 JUMPI DUP1 PUSH4 0xDAA5703 EQ PUSH2 0x30A JUMPI DUP1 PUSH4 0x273F4940 EQ PUSH2 0x31F JUMPI DUP1 PUSH4 0x35F7FF63 EQ PUSH2 0x332 JUMPI DUP1 PUSH4 0x35FF058A EQ PUSH2 0x345 JUMPI DUP1 PUSH4 0x36CB6592 EQ PUSH2 0x358 JUMPI PUSH2 0x269 JUMP JUMPDEST DUP1 PUSH4 0x25EC81A EQ PUSH2 0x26E JUMPI DUP1 PUSH4 0x31578AF EQ PUSH2 0x297 JUMPI DUP1 PUSH4 0x4F49A3A EQ PUSH2 0x2AA JUMPI DUP1 PUSH4 0x5E2EEE0 EQ PUSH2 0x2CA JUMPI DUP1 PUSH4 0x8DA76A4 EQ PUSH2 0x2EA JUMPI JUMPDEST PUSH1 0x0 DUP1 REVERT JUMPDEST PUSH2 0x281 PUSH2 0x27C CALLDATASIZE PUSH1 0x4 PUSH2 0x159A JUMP JUMPDEST PUSH2 0x612 JUMP JUMPDEST PUSH1 0x40 MLOAD PUSH2 0x28E SWAP2 SWAP1 PUSH2 0x1B48 JUMP JUMPDEST PUSH1 0x40 MLOAD DUP1 SWAP2 SUB SWAP1 RETURN JUMPDEST PUSH2 0x281 PUSH2 0x2A5 CALLDATASIZE PUSH1 0x4 PUSH2 0x159A JUMP JUMPDEST PUSH2 0x624 JUMP JUMPDEST PUSH2 0x2BD PUSH2 0x2B8 CALLDATASIZE PUSH1 0x4 PUSH2 0x159A JUMP JUMPDEST PUSH2 0x636 JUMP JUMPDEST PUSH1 0x40 MLOAD PUSH2 0x28E SWAP2 SWAP1 PUSH2 0x1AE8 JUMP JUMPDEST PUSH2 0x2DD PUSH2 0x2D8 CALLDATASIZE PUSH1 0x4 PUSH2 0x159A JUMP JUMPDEST PUSH2 0x651 JUMP JUMPDEST PUSH1 0x40 MLOAD PUSH2 0x28E SWAP2 SWAP1 PUSH2 0x1B18 JUMP JUMPDEST PUSH2 0x2FD PUSH2 0x2F8 CALLDATASIZE PUSH1 0x4 PUSH2 0x174A JUMP JUMPDEST PUSH2 0x73C JUMP JUMPDEST PUSH1 0x40 MLOAD PUSH2 0x28E SWAP2 SWAP1 PUSH2 0x1B56 JUMP JUMPDEST PUSH2 0x31D PUSH2 0x318 CALLDATASIZE PUSH1 0x4 PUSH2 0x171A JUMP JUMPDEST PUSH2 0x7F0 JUMP JUMPDEST STOP JUMPDEST PUSH2 0x31D PUSH2 0x32D CALLDATASIZE PUSH1 0x4 PUSH2 0x174A JUMP JUMPDEST PUSH2 0x810 JUMP JUMPDEST PUSH2 0x2FD PUSH2 0x340 CALLDATASIZE PUSH1 0x4 PUSH2 0x159A JUMP JUMPDEST PUSH2 0x822 JUMP JUMPDEST PUSH2 0x31D PUSH2 0x353 CALLDATASIZE PUSH1 0x4 PUSH2 0x174A JUMP JUMPDEST PUSH2 0x889 JUMP JUMPDEST PUSH2 0x2BD PUSH2 0x366 CALLDATASIZE PUSH1 0x4 PUSH2 0x174A JUMP JUMPDEST PUSH2 0x8AC JUMP JUMPDEST PUSH2 0x37E PUSH2 0x379 CALLDATASIZE PUSH1 0x4 PUSH2 0x159A JUMP JUMPDEST PUSH2 0x8E1 JUMP JUMPDEST PUSH1 0x40 MLOAD PUSH2 0x28E SWAP2 SWAP1 PUSH2 0x1B3A JUMP JUMPDEST PUSH2 0x2FD PUSH2 0x399 CALLDATASIZE PUSH1 0x4 PUSH2 0x159A JUMP JUMPDEST PUSH2 0x8F6 JUMP JUMPDEST PUSH2 0x2FD PUSH2 0x3AC CALLDATASIZE PUSH1 0x4 PUSH2 0x159A JUMP JUMPDEST PUSH2 0x997 JUMP JUMPDEST PUSH2 0x2BD PUSH2 0x3BF CALLDATASIZE PUSH1 0x4 PUSH2 0x159A JUMP JUMPDEST PUSH2 0x9FF JUMP JUMPDEST PUSH2 0x31D PUSH2 0x3D2 CALLDATASIZE PUSH1 0x4 PUSH2 0x168A JUMP JUMPDEST PUSH2 0xA1A JUMP JUMPDEST PUSH2 0x31D PUSH2 0x3E5 CALLDATASIZE PUSH1 0x4 PUSH2 0x174A JUMP JUMPDEST PUSH2 0xA3E JUMP JUMPDEST PUSH2 0x31D PUSH2 0x3F8 CALLDATASIZE PUSH1 0x4 PUSH2 0x16D2 JUMP JUMPDEST PUSH2 0xA61 JUMP JUMPDEST PUSH2 0x410 PUSH2 0x40B CALLDATASIZE PUSH1 0x4 PUSH2 0x159A JUMP JUMPDEST PUSH2 0xA80 JUMP JUMPDEST PUSH1 0x40 MLOAD PUSH2 0x28E SWAP2 SWAP1 PUSH2 0x1AF6 JUMP JUMPDEST PUSH2 0x281 PUSH2 0x42B CALLDATASIZE PUSH1 0x4 PUSH2 0x159A JUMP JUMPDEST PUSH2 0xAEB JUMP JUMPDEST PUSH2 0x31D PUSH2 0x43E CALLDATASIZE PUSH1 0x4 PUSH2 0x174A JUMP JUMPDEST PUSH2 0xAFD JUMP JUMPDEST PUSH2 0x31D PUSH2 0x451 CALLDATASIZE PUSH1 0x4 PUSH2 0x17C2 JUMP JUMPDEST PUSH2 0xBAF JUMP JUMPDEST PUSH2 0x37E PUSH2 0x464 CALLDATASIZE PUSH1 0x4 PUSH2 0x159A JUMP JUMPDEST PUSH2 0xBFF JUMP JUMPDEST PUSH2 0x31D PUSH2 0x477 CALLDATASIZE PUSH1 0x4 PUSH2 0x174A JUMP JUMPDEST PUSH2 0xC14 JUMP JUMPDEST PUSH2 0x31D PUSH2 0x48A CALLDATASIZE PUSH1 0x4 PUSH2 0x1642 JUMP JUMPDEST PUSH2 0xCA4 JUMP JUMPDEST PUSH2 0x31D PUSH2 0x49D CALLDATASIZE PUSH1 0x4 PUSH2 0x15FA JUMP JUMPDEST PUSH2 0xCC3 JUMP JUMPDEST PUSH2 0x31D PUSH2 0x4B0 CALLDATASIZE PUSH1 0x4 PUSH2 0x180F JUMP JUMPDEST PUSH2 0xCE2 JUMP JUMPDEST PUSH2 0x2FD PUSH2 0x4C3 CALLDATASIZE PUSH1 0x4 PUSH2 0x159A JUMP JUMPDEST PUSH2 0xD10 JUMP JUMPDEST PUSH2 0x281 PUSH2 0x4D6 CALLDATASIZE PUSH1 0x4 PUSH2 0x159A JUMP JUMPDEST PUSH2 0xD79 JUMP JUMPDEST PUSH2 0x4EE PUSH2 0x4E9 CALLDATASIZE PUSH1 0x4 PUSH2 0x159A JUMP JUMPDEST PUSH2 0xD8B JUMP JUMPDEST PUSH1 0x40 MLOAD PUSH2 0x28E SWAP2 SWAP1 PUSH2 0x1B07 JUMP JUMPDEST PUSH2 0x31D PUSH2 0x509 CALLDATASIZE PUSH1 0x4 PUSH2 0x177A JUMP JUMPDEST PUSH2 0xDEC JUMP JUMPDEST PUSH2 0x31D PUSH2 0x51C CALLDATASIZE PUSH1 0x4 PUSH2 0x177A JUMP JUMPDEST PUSH2 0xE0B JUMP JUMPDEST PUSH2 0x31D PUSH2 0x52F CALLDATASIZE PUSH1 0x4 PUSH2 0x180F JUMP JUMPDEST PUSH2 0xE2A JUMP JUMPDEST PUSH2 0x31D PUSH2 0x542 CALLDATASIZE PUSH1 0x4 PUSH2 0x15C0 JUMP JUMPDEST PUSH2 0xE47 JUMP JUMPDEST PUSH2 0x281 PUSH2 0x555 CALLDATASIZE PUSH1 0x4 PUSH2 0x174A JUMP JUMPDEST PUSH2 0xE75 JUMP JUMPDEST PUSH2 0x31D PUSH2 0x568 CALLDATASIZE PUSH1 0x4 PUSH2 0x15C0 JUMP JUMPDEST PUSH2 0xEA3 JUMP JUMPDEST PUSH2 0x31D PUSH2 0x57B CALLDATASIZE PUSH1 0x4 PUSH2 0x174A JUMP JUMPDEST PUSH2 0xEE2 JUMP JUMPDEST PUSH2 0x31D PUSH2 0x58E CALLDATASIZE PUSH1 0x4 PUSH2 0x1852 JUMP JUMPDEST PUSH2 0xF55 JUMP JUMPDEST PUSH2 0x281 PUSH2 0x5A1 CALLDATASIZE PUSH1 0x4 PUSH2 0x174A JUMP JUMPDEST PUSH2 0xF8F JUMP JUMPDEST PUSH2 0x31D PUSH2 0x5B4 CALLDATASIZE PUSH1 0x4 PUSH2 0x174A JUMP JUMPDEST PUSH2 0xFA8 JUMP JUMPDEST PUSH2 0x281 PUSH2 0x5C7 CALLDATASIZE PUSH1 0x4 PUSH2 0x159A JUMP JUMPDEST PUSH2 0xFD6 JUMP JUMPDEST PUSH2 0x31D PUSH2 0x5DA CALLDATASIZE PUSH1 0x4 PUSH2 0x177A JUMP JUMPDEST PUSH2 0xFE8 JUMP JUMPDEST PUSH2 0x5F2 PUSH2 0x5ED CALLDATASIZE PUSH1 0x4 PUSH2 0x159A JUMP JUMPDEST PUSH2 0x101C JUMP JUMPDEST PUSH1 0x40 MLOAD PUSH2 0x28E SWAP2 SWAP1 PUSH2 0x1B29 JUMP JUMPDEST PUSH2 0x31D PUSH2 0x60D CALLDATASIZE PUSH1 0x4 PUSH2 0x174A JUMP JUMPDEST PUSH2 0x107C JUMP JUMPDEST PUSH1 0x0 SWAP1 DUP2 MSTORE PUSH1 0x6 PUSH1 0x20 MSTORE PUSH1 0x40 SWAP1 KECCAK256 SLOAD SWAP1 JUMP JUMPDEST PUSH1 0x6 PUSH1 0x20 MSTORE PUSH1 0x0 SWAP1 DUP2 MSTORE PUSH1 0x40 SWAP1 KECCAK256 SLOAD DUP2 JUMP JUMPDEST PUSH1 0x2 PUSH1 0x20 MSTORE PUSH1 0x0 SWAP1 DUP2 MSTORE PUSH1 0x40 SWAP1 KECCAK256 SLOAD PUSH1 0x1 PUSH1 0x1 PUSH1 0xA0 SHL SUB AND DUP2 JUMP JUMPDEST PUSH1 0x60 PUSH1 0xA PUSH1 0x0 DUP4 DUP2 MSTORE PUSH1 0x20 ADD SWAP1 DUP2 MSTORE PUSH1 0x20 ADD PUSH1 0x0 KECCAK256 DUP1 SLOAD DUP1 PUSH1 0x20 MUL PUSH1 0x20 ADD PUSH1 0x40 MLOAD SWAP1 DUP2 ADD PUSH1 0x40 MSTORE DUP1 SWAP3 SWAP2 SWAP1 DUP2 DUP2 MSTORE PUSH1 0x20 ADD PUSH1 0x0 SWAP1 JUMPDEST DUP3 DUP3 LT ISZERO PUSH2 0x731 JUMPI PUSH1 0x0 DUP5 DUP2 MSTORE PUSH1 0x20 SWAP1 DUP2 SWAP1 KECCAK256 DUP4 ADD DUP1 SLOAD PUSH1 0x40 DUP1 MLOAD PUSH1 0x1F PUSH1 0x2 PUSH1 0x0 NOT PUSH2 0x100 PUSH1 0x1 DUP8 AND ISZERO MUL ADD SWAP1 SWAP5 AND SWAP4 SWAP1 SWAP4 DIV SWAP3 DUP4 ADD DUP6 SWAP1 DIV DUP6 MUL DUP2 ADD DUP6 ADD SWAP1 SWAP2 MSTORE DUP2 DUP2 MSTORE SWAP3 DUP4 ADD DUP3 DUP3 DUP1 ISZERO PUSH2 0x71D JUMPI DUP1 PUSH1 0x1F LT PUSH2 0x6F2 JUMPI PUSH2 0x100 DUP1 DUP4 SLOAD DIV MUL DUP4 MSTORE SWAP2 PUSH1 0x20 ADD SWAP2 PUSH2 0x71D JUMP JUMPDEST DUP3 ADD SWAP2 SWAP1 PUSH1 0x0 MSTORE PUSH1 0x20 PUSH1 0x0 KECCAK256 SWAP1 JUMPDEST DUP2 SLOAD DUP2 MSTORE SWAP1 PUSH1 0x1 ADD SWAP1 PUSH1 0x20 ADD DUP1 DUP4 GT PUSH2 0x700 JUMPI DUP3 SWAP1 SUB PUSH1 0x1F AND DUP3 ADD SWAP2 JUMPDEST POP POP POP POP POP DUP2 MSTORE PUSH1 0x20 ADD SWAP1 PUSH1 0x1 ADD SWAP1 PUSH2 0x686 JUMP JUMPDEST POP POP POP POP SWAP1 POP SWAP2 SWAP1 POP JUMP JUMPDEST PUSH1 0xA PUSH1 0x20 MSTORE DUP2 PUSH1 0x0 MSTORE PUSH1 0x40 PUSH1 0x0 KECCAK256 DUP2 DUP2 SLOAD DUP2 LT PUSH2 0x755 JUMPI INVALID JUMPDEST PUSH1 0x0 SWAP2 DUP3 MSTORE PUSH1 0x20 SWAP2 DUP3 SWAP1 KECCAK256 ADD DUP1 SLOAD PUSH1 0x40 DUP1 MLOAD PUSH1 0x1F PUSH1 0x2 PUSH1 0x0 NOT PUSH2 0x100 PUSH1 0x1 DUP8 AND ISZERO MUL ADD SWAP1 SWAP5 AND SWAP4 SWAP1 SWAP4 DIV SWAP3 DUP4 ADD DUP6 SWAP1 DIV DUP6 MUL DUP2 ADD DUP6 ADD SWAP1 SWAP2 MSTORE DUP2 DUP2 MSTORE SWAP5 POP SWAP1 SWAP3 POP SWAP1 DUP4 ADD DUP3 DUP3 DUP1 ISZERO PUSH2 0x7E8 JUMPI DUP1 PUSH1 0x1F LT PUSH2 0x7BD JUMPI PUSH2 0x100 DUP1 DUP4 SLOAD DIV MUL DUP4 MSTORE SWAP2 PUSH1 0x20 ADD SWAP2 PUSH2 0x7E8 JUMP JUMPDEST DUP3 ADD SWAP2 SWAP1 PUSH1 0x0 MSTORE PUSH1 0x20 PUSH1 0x0 KECCAK256 SWAP1 JUMPDEST DUP2 SLOAD DUP2 MSTORE SWAP1 PUSH1 0x1 ADD SWAP1 PUSH1 0x20 ADD DUP1 DUP4 GT PUSH2 0x7CB JUMPI DUP3 SWAP1 SUB PUSH1 0x1F AND DUP3 ADD SWAP2 JUMPDEST POP POP POP POP POP DUP2 JUMP JUMPDEST PUSH1 0x0 SWAP2 DUP3 MSTORE PUSH1 0x4 PUSH1 0x20 MSTORE PUSH1 0x40 SWAP1 SWAP2 KECCAK256 DUP1 SLOAD PUSH1 0xFF NOT AND SWAP2 ISZERO ISZERO SWAP2 SWAP1 SWAP2 OR SWAP1 SSTORE JUMP JUMPDEST PUSH1 0x0 SWAP2 DUP3 MSTORE PUSH1 0x20 DUP3 SWAP1 MSTORE PUSH1 0x40 SWAP1 SWAP2 KECCAK256 SSTORE JUMP JUMPDEST PUSH1 0x1 PUSH1 0x20 DUP2 DUP2 MSTORE PUSH1 0x0 SWAP3 DUP4 MSTORE PUSH1 0x40 SWAP3 DUP4 SWAP1 KECCAK256 DUP1 SLOAD DUP5 MLOAD PUSH1 0x2 SWAP5 DUP3 AND ISZERO PUSH2 0x100 MUL PUSH1 0x0 NOT ADD SWAP1 SWAP2 AND SWAP4 SWAP1 SWAP4 DIV PUSH1 0x1F DUP2 ADD DUP4 SWAP1 DIV DUP4 MUL DUP5 ADD DUP4 ADD SWAP1 SWAP5 MSTORE DUP4 DUP4 MSTORE SWAP2 SWAP3 SWAP1 DUP4 ADD DUP3 DUP3 DUP1 ISZERO PUSH2 0x7E8 JUMPI DUP1 PUSH1 0x1F LT PUSH2 0x7BD JUMPI PUSH2 0x100 DUP1 DUP4 SLOAD DIV MUL DUP4 MSTORE SWAP2 PUSH1 0x20 ADD SWAP2 PUSH2 0x7E8 JUMP JUMPDEST PUSH1 0x0 SWAP2 DUP3 MSTORE PUSH1 0x8 PUSH1 0x20 SWAP1 DUP2 MSTORE PUSH1 0x40 DUP4 KECCAK256 DUP1 SLOAD PUSH1 0x1 DUP2 ADD DUP3 SSTORE SWAP1 DUP5 MSTORE SWAP3 KECCAK256 SWAP1 SWAP2 ADD SSTORE JUMP JUMPDEST PUSH1 0x9 PUSH1 0x20 MSTORE DUP2 PUSH1 0x0 MSTORE PUSH1 0x40 PUSH1 0x0 KECCAK256 DUP2 DUP2 SLOAD DUP2 LT PUSH2 0x8C5 JUMPI INVALID JUMPDEST PUSH1 0x0 SWAP2 DUP3 MSTORE PUSH1 0x20 SWAP1 SWAP2 KECCAK256 ADD SLOAD PUSH1 0x1 PUSH1 0x1 PUSH1 0xA0 SHL SUB AND SWAP2 POP DUP3 SWAP1 POP JUMP JUMPDEST PUSH1 0x4 PUSH1 0x20 MSTORE PUSH1 0x0 SWAP1 DUP2 MSTORE PUSH1 0x40 SWAP1 KECCAK256 SLOAD PUSH1 0xFF AND DUP2 JUMP JUMPDEST PUSH1 0x0 DUP2 DUP2 MSTORE PUSH1 0x3 PUSH1 0x20 SWAP1 DUP2 MSTORE PUSH1 0x40 SWAP2 DUP3 SWAP1 KECCAK256 DUP1 SLOAD DUP4 MLOAD PUSH1 0x1F PUSH1 0x2 PUSH1 0x0 NOT PUSH2 0x100 PUSH1 0x1 DUP7 AND ISZERO MUL ADD SWAP1 SWAP4 AND SWAP3 SWAP1 SWAP3 DIV SWAP2 DUP3 ADD DUP5 SWAP1 DIV DUP5 MUL DUP2 ADD DUP5 ADD SWAP1 SWAP5 MSTORE DUP1 DUP5 MSTORE PUSH1 0x60 SWAP4 SWAP3 DUP4 ADD DUP3 DUP3 DUP1 ISZERO PUSH2 0x98B JUMPI DUP1 PUSH1 0x1F LT PUSH2 0x960 JUMPI PUSH2 0x100 DUP1 DUP4 SLOAD DIV MUL DUP4 MSTORE SWAP2 PUSH1 0x20 ADD SWAP2 PUSH2 0x98B JUMP JUMPDEST DUP3 ADD SWAP2 SWAP1 PUSH1 0x0 MSTORE PUSH1 0x20 PUSH1 0x0 KECCAK256 SWAP1 JUMPDEST DUP2 SLOAD DUP2 MSTORE SWAP1 PUSH1 0x1 ADD SWAP1 PUSH1 0x20 ADD DUP1 DUP4 GT PUSH2 0x96E JUMPI DUP3 SWAP1 SUB PUSH1 0x1F AND DUP3 ADD SWAP2 JUMPDEST POP POP POP POP POP SWAP1 POP SWAP2 SWAP1 POP JUMP JUMPDEST PUSH1 0x3 PUSH1 0x20 SWAP1 DUP2 MSTORE PUSH1 0x0 SWAP2 DUP3 MSTORE PUSH1 0x40 SWAP2 DUP3 SWAP1 KECCAK256 DUP1 SLOAD DUP4 MLOAD PUSH1 0x1F PUSH1 0x2 PUSH1 0x0 NOT PUSH2 0x100 PUSH1 0x1 DUP7 AND ISZERO MUL ADD SWAP1 SWAP4 AND SWAP3 SWAP1 SWAP3 DIV SWAP2 DUP3 ADD DUP5 SWAP1 DIV DUP5 MUL DUP2 ADD DUP5 ADD SWAP1 SWAP5 MSTORE DUP1 DUP5 MSTORE SWAP1 SWAP2 DUP4 ADD DUP3 DUP3 DUP1 ISZERO PUSH2 0x7E8 JUMPI DUP1 PUSH1 0x1F LT PUSH2 0x7BD JUMPI PUSH2 0x100 DUP1 DUP4 SLOAD DIV MUL DUP4 MSTORE SWAP2 PUSH1 0x20 ADD SWAP2 PUSH2 0x7E8 JUMP JUMPDEST PUSH1 0x0 SWAP1 DUP2 MSTORE PUSH1 0x2 PUSH1 0x20 MSTORE PUSH1 0x40 SWAP1 KECCAK256 SLOAD PUSH1 0x1 PUSH1 0x1 PUSH1 0xA0 SHL SUB AND SWAP1 JUMP JUMPDEST PUSH1 0x0 DUP3 DUP2 MSTORE PUSH1 0xA PUSH1 0x20 SWAP1 DUP2 MSTORE PUSH1 0x40 SWAP1 SWAP2 KECCAK256 DUP3 MLOAD PUSH2 0xA39 SWAP3 DUP5 ADD SWAP1 PUSH2 0x108E JUMP JUMPDEST POP POP POP JUMP JUMPDEST PUSH1 0x0 SWAP2 DUP3 MSTORE PUSH1 0x7 PUSH1 0x20 SWAP1 DUP2 MSTORE PUSH1 0x40 DUP4 KECCAK256 DUP1 SLOAD PUSH1 0x1 DUP2 ADD DUP3 SSTORE SWAP1 DUP5 MSTORE SWAP3 KECCAK256 SWAP1 SWAP2 ADD SSTORE JUMP JUMPDEST PUSH1 0x0 DUP3 DUP2 MSTORE PUSH1 0x8 PUSH1 0x20 SWAP1 DUP2 MSTORE PUSH1 0x40 SWAP1 SWAP2 KECCAK256 DUP3 MLOAD PUSH2 0xA39 SWAP3 DUP5 ADD SWAP1 PUSH2 0x10EB JUMP JUMPDEST PUSH1 0x0 DUP2 DUP2 MSTORE PUSH1 0x9 PUSH1 0x20 SWAP1 DUP2 MSTORE PUSH1 0x40 SWAP2 DUP3 SWAP1 KECCAK256 DUP1 SLOAD DUP4 MLOAD DUP2 DUP5 MUL DUP2 ADD DUP5 ADD SWAP1 SWAP5 MSTORE DUP1 DUP5 MSTORE PUSH1 0x60 SWAP4 SWAP3 DUP4 ADD DUP3 DUP3 DUP1 ISZERO PUSH2 0x98B JUMPI PUSH1 0x20 MUL DUP3 ADD SWAP2 SWAP1 PUSH1 0x0 MSTORE PUSH1 0x20 PUSH1 0x0 KECCAK256 SWAP1 JUMPDEST DUP2 SLOAD PUSH1 0x1 PUSH1 0x1 PUSH1 0xA0 SHL SUB AND DUP2 MSTORE PUSH1 0x1 SWAP1 SWAP2 ADD SWAP1 PUSH1 0x20 ADD DUP1 DUP4 GT PUSH2 0xAC2 JUMPI POP POP POP POP POP SWAP1 POP SWAP2 SWAP1 POP JUMP JUMPDEST PUSH1 0x5 PUSH1 0x20 MSTORE PUSH1 0x0 SWAP1 DUP2 MSTORE PUSH1 0x40 SWAP1 KECCAK256 SLOAD DUP2 JUMP JUMPDEST PUSH1 0x0 DUP3 DUP2 MSTORE PUSH1 0x9 PUSH1 0x20 MSTORE PUSH1 0x40 SWAP1 KECCAK256 DUP1 SLOAD DUP3 LT PUSH2 0xB34 JUMPI PUSH1 0x40 MLOAD PUSH3 0x461BCD PUSH1 0xE5 SHL DUP2 MSTORE PUSH1 0x4 ADD PUSH2 0xB2B SWAP1 PUSH2 0x1B67 JUMP JUMPDEST PUSH1 0x40 MLOAD DUP1 SWAP2 SUB SWAP1 REVERT JUMPDEST DUP1 SLOAD DUP2 SWAP1 PUSH1 0x0 NOT DUP2 ADD SWAP1 DUP2 LT PUSH2 0xB46 JUMPI INVALID JUMPDEST SWAP1 PUSH1 0x0 MSTORE PUSH1 0x20 PUSH1 0x0 KECCAK256 ADD PUSH1 0x0 SWAP1 SLOAD SWAP1 PUSH2 0x100 EXP SWAP1 DIV PUSH1 0x1 PUSH1 0x1 PUSH1 0xA0 SHL SUB AND DUP2 DUP4 DUP2 SLOAD DUP2 LT PUSH2 0xB70 JUMPI INVALID JUMPDEST PUSH1 0x0 SWAP2 DUP3 MSTORE PUSH1 0x20 SWAP1 SWAP2 KECCAK256 ADD DUP1 SLOAD PUSH1 0x1 PUSH1 0x1 PUSH1 0xA0 SHL SUB NOT AND PUSH1 0x1 PUSH1 0x1 PUSH1 0xA0 SHL SUB SWAP3 SWAP1 SWAP3 AND SWAP2 SWAP1 SWAP2 OR SWAP1 SSTORE DUP1 SLOAD PUSH1 0x0 NOT ADD PUSH2 0xBA9 DUP3 DUP3 PUSH2 0x1132 JUMP JUMPDEST POP POP POP POP JUMP JUMPDEST PUSH1 0x0 DUP4 DUP2 MSTORE PUSH1 0x9 PUSH1 0x20 MSTORE PUSH1 0x40 SWAP1 KECCAK256 DUP1 SLOAD DUP3 SWAP2 SWAP1 DUP5 SWAP1 DUP2 LT PUSH2 0xBCC JUMPI INVALID JUMPDEST SWAP1 PUSH1 0x0 MSTORE PUSH1 0x20 PUSH1 0x0 KECCAK256 ADD PUSH1 0x0 PUSH2 0x100 EXP DUP2 SLOAD DUP2 PUSH1 0x1 PUSH1 0x1 PUSH1 0xA0 SHL SUB MUL NOT AND SWAP1 DUP4 PUSH1 0x1 PUSH1 0x1 PUSH1 0xA0 SHL SUB AND MUL OR SWAP1 SSTORE POP POP POP POP JUMP JUMPDEST PUSH1 0x0 SWAP1 DUP2 MSTORE PUSH1 0x4 PUSH1 0x20 MSTORE PUSH1 0x40 SWAP1 KECCAK256 SLOAD PUSH1 0xFF AND SWAP1 JUMP JUMPDEST PUSH1 0x0 DUP3 DUP2 MSTORE PUSH1 0xA PUSH1 0x20 MSTORE PUSH1 0x40 SWAP1 KECCAK256 DUP1 SLOAD DUP3 LT PUSH2 0xC42 JUMPI PUSH1 0x40 MLOAD PUSH3 0x461BCD PUSH1 0xE5 SHL DUP2 MSTORE PUSH1 0x4 ADD PUSH2 0xB2B SWAP1 PUSH2 0x1B67 JUMP JUMPDEST DUP1 SLOAD DUP2 SWAP1 PUSH1 0x0 NOT DUP2 ADD SWAP1 DUP2 LT PUSH2 0xC54 JUMPI INVALID JUMPDEST SWAP1 PUSH1 0x0 MSTORE PUSH1 0x20 PUSH1 0x0 KECCAK256 ADD DUP2 DUP4 DUP2 SLOAD DUP2 LT PUSH2 0xC6A JUMPI INVALID JUMPDEST SWAP1 PUSH1 0x0 MSTORE PUSH1 0x20 PUSH1 0x0 KECCAK256 ADD SWAP1 DUP1 SLOAD PUSH1 0x1 DUP2 PUSH1 0x1 AND ISZERO PUSH2 0x100 MUL SUB AND PUSH1 0x2 SWAP1 DIV PUSH2 0xC93 SWAP3 SWAP2 SWAP1 PUSH2 0x1156 JUMP JUMPDEST POP DUP1 SLOAD PUSH1 0x0 NOT ADD PUSH2 0xBA9 DUP3 DUP3 PUSH2 0x11CB JUMP JUMPDEST PUSH1 0x0 DUP3 DUP2 MSTORE PUSH1 0x7 PUSH1 0x20 SWAP1 DUP2 MSTORE PUSH1 0x40 SWAP1 SWAP2 KECCAK256 DUP3 MLOAD PUSH2 0xA39 SWAP3 DUP5 ADD SWAP1 PUSH2 0x10EB JUMP JUMPDEST PUSH1 0x0 DUP3 DUP2 MSTORE PUSH1 0x9 PUSH1 0x20 SWAP1 DUP2 MSTORE PUSH1 0x40 SWAP1 SWAP2 KECCAK256 DUP3 MLOAD PUSH2 0xA39 SWAP3 DUP5 ADD SWAP1 PUSH2 0x11EF JUMP JUMPDEST PUSH1 0x0 DUP4 DUP2 MSTORE PUSH1 0x8 PUSH1 0x20 MSTORE PUSH1 0x40 SWAP1 KECCAK256 DUP1 SLOAD DUP3 SWAP2 SWAP1 DUP5 SWAP1 DUP2 LT PUSH2 0xCFF JUMPI INVALID JUMPDEST PUSH1 0x0 SWAP2 DUP3 MSTORE PUSH1 0x20 SWAP1 SWAP2 KECCAK256 ADD SSTORE POP POP POP JUMP JUMPDEST PUSH1 0x0 DUP2 DUP2 MSTORE PUSH1 0x1 PUSH1 0x20 DUP2 DUP2 MSTORE PUSH1 0x40 SWAP3 DUP4 SWAP1 KECCAK256 DUP1 SLOAD DUP5 MLOAD PUSH1 0x2 SWAP5 DUP3 AND ISZERO PUSH2 0x100 MUL PUSH1 0x0 NOT ADD SWAP1 SWAP2 AND SWAP4 SWAP1 SWAP4 DIV PUSH1 0x1F DUP2 ADD DUP4 SWAP1 DIV DUP4 MUL DUP5 ADD DUP4 ADD SWAP1 SWAP5 MSTORE DUP4 DUP4 MSTORE PUSH1 0x60 SWAP4 SWAP1 SWAP2 DUP4 ADD DUP3 DUP3 DUP1 ISZERO PUSH2 0x98B JUMPI DUP1 PUSH1 0x1F LT PUSH2 0x960 JUMPI PUSH2 0x100 DUP1 DUP4 SLOAD DIV MUL DUP4 MSTORE SWAP2 PUSH1 0x20 ADD SWAP2 PUSH2 0x98B JUMP JUMPDEST PUSH1 0x0 PUSH1 0x20 DUP2 SWAP1 MSTORE SWAP1 DUP2 MSTORE PUSH1 0x40 SWAP1 KECCAK256 SLOAD DUP2 JUMP JUMPDEST PUSH1 0x0 DUP2 DUP2 MSTORE PUSH1 0x7 PUSH1 0x20 SWAP1 DUP2 MSTORE PUSH1 0x40 SWAP2 DUP3 SWAP1 KECCAK256 DUP1 SLOAD DUP4 MLOAD DUP2 DUP5 MUL DUP2 ADD DUP5 ADD SWAP1 SWAP5 MSTORE DUP1 DUP5 MSTORE PUSH1 0x60 SWAP4 SWAP3 DUP4 ADD DUP3 DUP3 DUP1 ISZERO PUSH2 0x98B JUMPI PUSH1 0x20 MUL DUP3 ADD SWAP2 SWAP1 PUSH1 0x0 MSTORE PUSH1 0x20 PUSH1 0x0 KECCAK256 SWAP1 JUMPDEST DUP2 SLOAD DUP2 MSTORE PUSH1 0x20 ADD SWAP1 PUSH1 0x1 ADD SWAP1 DUP1 DUP4 GT PUSH2 0xDCD JUMPI POP POP POP POP POP SWAP1 POP SWAP2 SWAP1 POP JUMP JUMPDEST PUSH1 0x0 DUP3 DUP2 MSTORE PUSH1 0x3 PUSH1 0x20 SWAP1 DUP2 MSTORE PUSH1 0x40 SWAP1 SWAP2 KECCAK256 DUP3 MLOAD PUSH2 0xA39 SWAP3 DUP5 ADD SWAP1 PUSH2 0x1250 JUMP JUMPDEST PUSH1 0x0 DUP3 DUP2 MSTORE PUSH1 0x1 PUSH1 0x20 SWAP1 DUP2 MSTORE PUSH1 0x40 SWAP1 SWAP2 KECCAK256 DUP3 MLOAD PUSH2 0xA39 SWAP3 DUP5 ADD SWAP1 PUSH2 0x1250 JUMP JUMPDEST PUSH1 0x0 DUP4 DUP2 MSTORE PUSH1 0x7 PUSH1 0x20 MSTORE PUSH1 0x40 SWAP1 KECCAK256 DUP1 SLOAD DUP3 SWAP2 SWAP1 DUP5 SWAP1 DUP2 LT PUSH2 0xCFF JUMPI INVALID JUMPDEST PUSH1 0x0 SWAP2 DUP3 MSTORE PUSH1 0x2 PUSH1 0x20 MSTORE PUSH1 0x40 SWAP1 SWAP2 KECCAK256 DUP1 SLOAD PUSH1 0x1 PUSH1 0x1 PUSH1 0xA0 SHL SUB NOT AND PUSH1 0x1 PUSH1 0x1 PUSH1 0xA0 SHL SUB SWAP1 SWAP3 AND SWAP2 SWAP1 SWAP2 OR SWAP1 SSTORE JUMP JUMPDEST PUSH1 0x8 PUSH1 0x20 MSTORE DUP2 PUSH1 0x0 MSTORE PUSH1 0x40 PUSH1 0x0 KECCAK256 DUP2 DUP2 SLOAD DUP2 LT PUSH2 0xE8E JUMPI INVALID JUMPDEST SWAP1 PUSH1 0x0 MSTORE PUSH1 0x20 PUSH1 0x0 KECCAK256 ADD PUSH1 0x0 SWAP2 POP SWAP2 POP POP SLOAD DUP2 JUMP JUMPDEST PUSH1 0x0 SWAP2 DUP3 MSTORE PUSH1 0x9 PUSH1 0x20 SWAP1 DUP2 MSTORE PUSH1 0x40 DUP4 KECCAK256 DUP1 SLOAD PUSH1 0x1 DUP2 ADD DUP3 SSTORE SWAP1 DUP5 MSTORE SWAP3 KECCAK256 SWAP1 SWAP2 ADD DUP1 SLOAD PUSH1 0x1 PUSH1 0x1 PUSH1 0xA0 SHL SUB NOT AND PUSH1 0x1 PUSH1 0x1 PUSH1 0xA0 SHL SUB SWAP1 SWAP3 AND SWAP2 SWAP1 SWAP2 OR SWAP1 SSTORE JUMP JUMPDEST PUSH1 0x0 DUP3 DUP2 MSTORE PUSH1 0x7 PUSH1 0x20 MSTORE PUSH1 0x40 SWAP1 KECCAK256 DUP1 SLOAD DUP3 LT PUSH2 0xF10 JUMPI PUSH1 0x40 MLOAD PUSH3 0x461BCD PUSH1 0xE5 SHL DUP2 MSTORE PUSH1 0x4 ADD PUSH2 0xB2B SWAP1 PUSH2 0x1B67 JUMP JUMPDEST DUP1 SLOAD DUP2 SWAP1 PUSH1 0x0 NOT DUP2 ADD SWAP1 DUP2 LT PUSH2 0xF22 JUMPI INVALID JUMPDEST SWAP1 PUSH1 0x0 MSTORE PUSH1 0x20 PUSH1 0x0 KECCAK256 ADD SLOAD DUP2 DUP4 DUP2 SLOAD DUP2 LT PUSH2 0xF39 JUMPI INVALID JUMPDEST PUSH1 0x0 SWAP2 DUP3 MSTORE PUSH1 0x20 SWAP1 SWAP2 KECCAK256 ADD SSTORE DUP1 SLOAD PUSH1 0x0 NOT ADD PUSH2 0xBA9 DUP3 DUP3 PUSH2 0x1132 JUMP JUMPDEST PUSH1 0x0 DUP4 DUP2 MSTORE PUSH1 0xA PUSH1 0x20 MSTORE PUSH1 0x40 SWAP1 KECCAK256 DUP1 SLOAD DUP3 SWAP2 SWAP1 DUP5 SWAP1 DUP2 LT PUSH2 0xF72 JUMPI INVALID JUMPDEST SWAP1 PUSH1 0x0 MSTORE PUSH1 0x20 PUSH1 0x0 KECCAK256 ADD SWAP1 DUP1 MLOAD SWAP1 PUSH1 0x20 ADD SWAP1 PUSH2 0xBA9 SWAP3 SWAP2 SWAP1 PUSH2 0x1250 JUMP JUMPDEST PUSH1 0x7 PUSH1 0x20 MSTORE DUP2 PUSH1 0x0 MSTORE PUSH1 0x40 PUSH1 0x0 KECCAK256 DUP2 DUP2 SLOAD DUP2 LT PUSH2 0xE8E JUMPI INVALID JUMPDEST PUSH1 0x0 DUP3 DUP2 MSTORE PUSH1 0x8 PUSH1 0x20 MSTORE PUSH1 0x40 SWAP1 KECCAK256 DUP1 SLOAD DUP3 LT PUSH2 0xF10 JUMPI PUSH1 0x40 MLOAD PUSH3 0x461BCD PUSH1 0xE5 SHL DUP2 MSTORE PUSH1 0x4 ADD PUSH2 0xB2B SWAP1 PUSH2 0x1B67 JUMP JUMPDEST PUSH1 0x0 SWAP1 DUP2 MSTORE PUSH1 0x20 DUP2 SWAP1 MSTORE PUSH1 0x40 SWAP1 KECCAK256 SLOAD SWAP1 JUMP JUMPDEST PUSH1 0x0 DUP3 DUP2 MSTORE PUSH1 0xA PUSH1 0x20 SWAP1 DUP2 MSTORE PUSH1 0x40 DUP3 KECCAK256 DUP1 SLOAD PUSH1 0x1 DUP2 ADD DUP1 DUP4 SSTORE SWAP2 DUP5 MSTORE SWAP3 DUP3 SWAP1 KECCAK256 DUP5 MLOAD SWAP2 SWAP4 PUSH2 0xBA9 SWAP4 SWAP2 ADD SWAP2 SWAP1 DUP6 ADD SWAP1 PUSH2 0x1250 JUMP JUMPDEST PUSH1 0x0 DUP2 DUP2 MSTORE PUSH1 0x8 PUSH1 0x20 SWAP1 DUP2 MSTORE PUSH1 0x40 SWAP2 DUP3 SWAP1 KECCAK256 DUP1 SLOAD DUP4 MLOAD DUP2 DUP5 MUL DUP2 ADD DUP5 ADD SWAP1 SWAP5 MSTORE DUP1 DUP5 MSTORE PUSH1 0x60 SWAP4 SWAP3 DUP4 ADD DUP3 DUP3 DUP1 ISZERO PUSH2 0x98B JUMPI PUSH1 0x20 MUL DUP3 ADD SWAP2 SWAP1 PUSH1 0x0 MSTORE PUSH1 0x20 PUSH1 0x0 KECCAK256 SWAP1 DUP2 SLOAD DUP2 MSTORE PUSH1 0x20 ADD SWAP1 PUSH1 0x1 ADD SWAP1 DUP1 DUP4 GT PUSH2 0xDCD JUMPI POP POP POP POP POP SWAP1 POP SWAP2 SWAP1 POP JUMP JUMPDEST PUSH1 0x0 SWAP2 DUP3 MSTORE PUSH1 0x6 PUSH1 0x20 MSTORE PUSH1 0x40 SWAP1 SWAP2 KECCAK256 SSTORE JUMP JUMPDEST DUP3 DUP1 SLOAD DUP3 DUP3 SSTORE SWAP1 PUSH1 0x0 MSTORE PUSH1 0x20 PUSH1 0x0 KECCAK256 SWAP1 DUP2 ADD SWAP3 DUP3 ISZERO PUSH2 0x10DB JUMPI SWAP2 PUSH1 0x20 MUL DUP3 ADD JUMPDEST DUP3 DUP2 GT ISZERO PUSH2 0x10DB JUMPI DUP3 MLOAD DUP1 MLOAD PUSH2 0x10CB SWAP2 DUP5 SWAP2 PUSH1 0x20 SWAP1 SWAP2 ADD SWAP1 PUSH2 0x1250 JUMP JUMPDEST POP SWAP2 PUSH1 0x20 ADD SWAP2 SWAP1 PUSH1 0x1 ADD SWAP1 PUSH2 0x10AE JUMP JUMPDEST POP PUSH2 0x10E7 SWAP3 SWAP2 POP PUSH2 0x12BD JUMP JUMPDEST POP SWAP1 JUMP JUMPDEST DUP3 DUP1 SLOAD DUP3 DUP3 SSTORE SWAP1 PUSH1 0x0 MSTORE PUSH1 0x20 PUSH1 0x0 KECCAK256 SWAP1 DUP2 ADD SWAP3 DUP3 ISZERO PUSH2 0x1126 JUMPI SWAP2 PUSH1 0x20 MUL DUP3 ADD JUMPDEST DUP3 DUP2 GT ISZERO PUSH2 0x1126 JUMPI DUP3 MLOAD DUP3 SSTORE SWAP2 PUSH1 0x20 ADD SWAP2 SWAP1 PUSH1 0x1 ADD SWAP1 PUSH2 0x110B JUMP JUMPDEST POP PUSH2 0x10E7 SWAP3 SWAP2 POP PUSH2 0x12E3 JUMP JUMPDEST DUP2 SLOAD DUP2 DUP4 SSTORE DUP2 DUP2 GT ISZERO PUSH2 0xA39 JUMPI PUSH1 0x0 DUP4 DUP2 MSTORE PUSH1 0x20 SWAP1 KECCAK256 PUSH2 0xA39 SWAP2 DUP2 ADD SWAP1 DUP4 ADD PUSH2 0x12E3 JUMP JUMPDEST DUP3 DUP1 SLOAD PUSH1 0x1 DUP2 PUSH1 0x1 AND ISZERO PUSH2 0x100 MUL SUB AND PUSH1 0x2 SWAP1 DIV SWAP1 PUSH1 0x0 MSTORE PUSH1 0x20 PUSH1 0x0 KECCAK256 SWAP1 PUSH1 0x1F ADD PUSH1 0x20 SWAP1 DIV DUP2 ADD SWAP3 DUP3 PUSH1 0x1F LT PUSH2 0x118F JUMPI DUP1 SLOAD DUP6 SSTORE PUSH2 0x1126 JUMP JUMPDEST DUP3 DUP1 ADD PUSH1 0x1 ADD DUP6 SSTORE DUP3 ISZERO PUSH2 0x1126 JUMPI PUSH1 0x0 MSTORE PUSH1 0x20 PUSH1 0x0 KECCAK256 SWAP2 PUSH1 0x1F ADD PUSH1 0x20 SWAP1 DIV DUP3 ADD JUMPDEST DUP3 DUP2 GT ISZERO PUSH2 0x1126 JUMPI DUP3 SLOAD DUP3 SSTORE SWAP2 PUSH1 0x1 ADD SWAP2 SWAP1 PUSH1 0x1 ADD SWAP1 PUSH2 0x11B0 JUMP JUMPDEST DUP2 SLOAD DUP2 DUP4 SSTORE DUP2 DUP2 GT ISZERO PUSH2 0xA39 JUMPI PUSH1 0x0 DUP4 DUP2 MSTORE PUSH1 0x20 SWAP1 KECCAK256 PUSH2 0xA39 SWAP2 DUP2 ADD SWAP1 DUP4 ADD PUSH2 0x12BD JUMP JUMPDEST DUP3 DUP1 SLOAD DUP3 DUP3 SSTORE SWAP1 PUSH1 0x0 MSTORE PUSH1 0x20 PUSH1 0x0 KECCAK256 SWAP1 DUP2 ADD SWAP3 DUP3 ISZERO PUSH2 0x1244 JUMPI SWAP2 PUSH1 0x20 MUL DUP3 ADD JUMPDEST DUP3 DUP2 GT ISZERO PUSH2 0x1244 JUMPI DUP3 MLOAD DUP3 SLOAD PUSH1 0x1 PUSH1 0x1 PUSH1 0xA0 SHL SUB NOT AND PUSH1 0x1 PUSH1 0x1 PUSH1 0xA0 SHL SUB SWAP1 SWAP2 AND OR DUP3 SSTORE PUSH1 0x20 SWAP1 SWAP3 ADD SWAP2 PUSH1 0x1 SWAP1 SWAP2 ADD SWAP1 PUSH2 0x120F JUMP JUMPDEST POP PUSH2 0x10E7 SWAP3 SWAP2 POP PUSH2 0x12FD JUMP JUMPDEST DUP3 DUP1 SLOAD PUSH1 0x1 DUP2 PUSH1 0x1 AND ISZERO PUSH2 0x100 MUL SUB AND PUSH1 0x2 SWAP1 DIV SWAP1 PUSH1 0x0 MSTORE PUSH1 0x20 PUSH1 0x0 KECCAK256 SWAP1 PUSH1 0x1F ADD PUSH1 0x20 SWAP1 DIV DUP2 ADD SWAP3 DUP3 PUSH1 0x1F LT PUSH2 0x1291 JUMPI DUP1 MLOAD PUSH1 0xFF NOT AND DUP4 DUP1 ADD OR DUP6 SSTORE PUSH2 0x1126 JUMP JUMPDEST DUP3 DUP1 ADD PUSH1 0x1 ADD DUP6 SSTORE DUP3 ISZERO PUSH2 0x1126 JUMPI SWAP2 DUP3 ADD DUP3 DUP2 GT ISZERO PUSH2 0x1126 JUMPI DUP3 MLOAD DUP3 SSTORE SWAP2 PUSH1 0x20 ADD SWAP2 SWAP1 PUSH1 0x1 ADD SWAP1 PUSH2 0x110B JUMP JUMPDEST PUSH2 0x12E0 SWAP2 SWAP1 JUMPDEST DUP1 DUP3 GT ISZERO PUSH2 0x10E7 JUMPI PUSH1 0x0 PUSH2 0x12D7 DUP3 DUP3 PUSH2 0x1321 JUMP JUMPDEST POP PUSH1 0x1 ADD PUSH2 0x12C3 JUMP JUMPDEST SWAP1 JUMP JUMPDEST PUSH2 0x12E0 SWAP2 SWAP1 JUMPDEST DUP1 DUP3 GT ISZERO PUSH2 0x10E7 JUMPI PUSH1 0x0 DUP2 SSTORE PUSH1 0x1 ADD PUSH2 0x12E9 JUMP JUMPDEST PUSH2 0x12E0 SWAP2 SWAP1 JUMPDEST DUP1 DUP3 GT ISZERO PUSH2 0x10E7 JUMPI DUP1 SLOAD PUSH1 0x1 PUSH1 0x1 PUSH1 0xA0 SHL SUB NOT AND DUP2 SSTORE PUSH1 0x1 ADD PUSH2 0x1303 JUMP JUMPDEST POP DUP1 SLOAD PUSH1 0x1 DUP2 PUSH1 0x1 AND ISZERO PUSH2 0x100 MUL SUB AND PUSH1 0x2 SWAP1 DIV PUSH1 0x0 DUP3 SSTORE DUP1 PUSH1 0x1F LT PUSH2 0x1347 JUMPI POP PUSH2 0x1365 JUMP JUMPDEST PUSH1 0x1F ADD PUSH1 0x20 SWAP1 DIV SWAP1 PUSH1 0x0 MSTORE PUSH1 0x20 PUSH1 0x0 KECCAK256 SWAP1 DUP2 ADD SWAP1 PUSH2 0x1365 SWAP2 SWAP1 PUSH2 0x12E3 JUMP JUMPDEST POP JUMP JUMPDEST DUP1 CALLDATALOAD PUSH2 0x1373 DUP2 PUSH2 0x1C58 JUMP JUMPDEST SWAP3 SWAP2 POP POP JUMP JUMPDEST PUSH1 0x0 DUP3 PUSH1 0x1F DUP4 ADD SLT PUSH2 0x138A JUMPI PUSH1 0x0 DUP1 REVERT JUMPDEST DUP2 CALLDATALOAD PUSH2 0x139D PUSH2 0x1398 DUP3 PUSH2 0x1B9E JUMP JUMPDEST PUSH2 0x1B77 JUMP JUMPDEST SWAP2 POP DUP2 DUP2 DUP4 MSTORE PUSH1 0x20 DUP5 ADD SWAP4 POP PUSH1 0x20 DUP2 ADD SWAP1 POP DUP4 DUP6 PUSH1 0x20 DUP5 MUL DUP3 ADD GT ISZERO PUSH2 0x13C2 JUMPI PUSH1 0x0 DUP1 REVERT JUMPDEST PUSH1 0x0 JUMPDEST DUP4 DUP2 LT ISZERO PUSH2 0x13EE JUMPI DUP2 PUSH2 0x13D8 DUP9 DUP3 PUSH2 0x1368 JUMP JUMPDEST DUP5 MSTORE POP PUSH1 0x20 SWAP3 DUP4 ADD SWAP3 SWAP2 SWAP1 SWAP2 ADD SWAP1 PUSH1 0x1 ADD PUSH2 0x13C5 JUMP JUMPDEST POP POP POP POP SWAP3 SWAP2 POP POP JUMP JUMPDEST PUSH1 0x0 DUP3 PUSH1 0x1F DUP4 ADD SLT PUSH2 0x1409 JUMPI PUSH1 0x0 DUP1 REVERT JUMPDEST DUP2 CALLDATALOAD PUSH2 0x1417 PUSH2 0x1398 DUP3 PUSH2 0x1B9E JUMP JUMPDEST SWAP2 POP DUP2 DUP2 DUP4 MSTORE PUSH1 0x20 DUP5 ADD SWAP4 POP PUSH1 0x20 DUP2 ADD SWAP1 POP DUP4 DUP6 PUSH1 0x20 DUP5 MUL DUP3 ADD GT ISZERO PUSH2 0x143C JUMPI PUSH1 0x0 DUP1 REVERT JUMPDEST PUSH1 0x0 JUMPDEST DUP4 DUP2 LT ISZERO PUSH2 0x13EE JUMPI DUP2 PUSH2 0x1452 DUP9 DUP3 PUSH2 0x1540 JUMP JUMPDEST DUP5 MSTORE POP PUSH1 0x20 SWAP3 DUP4 ADD SWAP3 SWAP2 SWAP1 SWAP2 ADD SWAP1 PUSH1 0x1 ADD PUSH2 0x143F JUMP JUMPDEST PUSH1 0x0 DUP3 PUSH1 0x1F DUP4 ADD SLT PUSH2 0x1479 JUMPI PUSH1 0x0 DUP1 REVERT JUMPDEST DUP2 CALLDATALOAD PUSH2 0x1487 PUSH2 0x1398 DUP3 PUSH2 0x1B9E JUMP JUMPDEST DUP2 DUP2 MSTORE PUSH1 0x20 SWAP4 DUP5 ADD SWAP4 SWAP1 SWAP3 POP DUP3 ADD DUP4 PUSH1 0x0 JUMPDEST DUP4 DUP2 LT ISZERO PUSH2 0x13EE JUMPI DUP2 CALLDATALOAD DUP7 ADD PUSH2 0x14AF DUP9 DUP3 PUSH2 0x154B JUMP JUMPDEST DUP5 MSTORE POP PUSH1 0x20 SWAP3 DUP4 ADD SWAP3 SWAP2 SWAP1 SWAP2 ADD SWAP1 PUSH1 0x1 ADD PUSH2 0x1499 JUMP JUMPDEST PUSH1 0x0 DUP3 PUSH1 0x1F DUP4 ADD SLT PUSH2 0x14D6 JUMPI PUSH1 0x0 DUP1 REVERT JUMPDEST DUP2 CALLDATALOAD PUSH2 0x14E4 PUSH2 0x1398 DUP3 PUSH2 0x1B9E JUMP JUMPDEST SWAP2 POP DUP2 DUP2 DUP4 MSTORE PUSH1 0x20 DUP5 ADD SWAP4 POP PUSH1 0x20 DUP2 ADD SWAP1 POP DUP4 DUP6 PUSH1 0x20 DUP5 MUL DUP3 ADD GT ISZERO PUSH2 0x1509 JUMPI PUSH1 0x0 DUP1 REVERT JUMPDEST PUSH1 0x0 JUMPDEST DUP4 DUP2 LT ISZERO PUSH2 0x13EE JUMPI DUP2 PUSH2 0x151F DUP9 DUP3 PUSH2 0x1540 JUMP JUMPDEST DUP5 MSTORE POP PUSH1 0x20 SWAP3 DUP4 ADD SWAP3 SWAP2 SWAP1 SWAP2 ADD SWAP1 PUSH1 0x1 ADD PUSH2 0x150C JUMP JUMPDEST DUP1 CALLDATALOAD PUSH2 0x1373 DUP2 PUSH2 0x1C6C JUMP JUMPDEST DUP1 CALLDATALOAD PUSH2 0x1373 DUP2 PUSH2 0x1C75 JUMP JUMPDEST PUSH1 0x0 DUP3 PUSH1 0x1F DUP4 ADD SLT PUSH2 0x155C JUMPI PUSH1 0x0 DUP1 REVERT JUMPDEST DUP2 CALLDATALOAD PUSH2 0x156A PUSH2 0x1398 DUP3 PUSH2 0x1BBF JUMP JUMPDEST SWAP2 POP DUP1 DUP3 MSTORE PUSH1 0x20 DUP4 ADD PUSH1 0x20 DUP4 ADD DUP6 DUP4 DUP4 ADD GT ISZERO PUSH2 0x1586 JUMPI PUSH1 0x0 DUP1 REVERT JUMPDEST PUSH2 0x1591 DUP4 DUP3 DUP5 PUSH2 0x1C16 JUMP JUMPDEST POP POP POP SWAP3 SWAP2 POP POP JUMP JUMPDEST PUSH1 0x0 PUSH1 0x20 DUP3 DUP5 SUB SLT ISZERO PUSH2 0x15AC JUMPI PUSH1 0x0 DUP1 REVERT JUMPDEST PUSH1 0x0 PUSH2 0x15B8 DUP5 DUP5 PUSH2 0x1540 JUMP JUMPDEST SWAP5 SWAP4 POP POP POP POP JUMP JUMPDEST PUSH1 0x0 DUP1 PUSH1 0x40 DUP4 DUP6 SUB SLT ISZERO PUSH2 0x15D3 JUMPI PUSH1 0x0 DUP1 REVERT JUMPDEST PUSH1 0x0 PUSH2 0x15DF DUP6 DUP6 PUSH2 0x1540 JUMP JUMPDEST SWAP3 POP POP PUSH1 0x20 PUSH2 0x15F0 DUP6 DUP3 DUP7 ADD PUSH2 0x1368 JUMP JUMPDEST SWAP2 POP POP SWAP3 POP SWAP3 SWAP1 POP JUMP JUMPDEST PUSH1 0x0 DUP1 PUSH1 0x40 DUP4 DUP6 SUB SLT ISZERO PUSH2 0x160D JUMPI PUSH1 0x0 DUP1 REVERT JUMPDEST PUSH1 0x0 PUSH2 0x1619 DUP6 DUP6 PUSH2 0x1540 JUMP JUMPDEST SWAP3 POP POP PUSH1 0x20 DUP4 ADD CALLDATALOAD PUSH8 0xFFFFFFFFFFFFFFFF DUP2 GT ISZERO PUSH2 0x1636 JUMPI PUSH1 0x0 DUP1 REVERT JUMPDEST PUSH2 0x15F0 DUP6 DUP3 DUP7 ADD PUSH2 0x1379 JUMP JUMPDEST PUSH1 0x0 DUP1 PUSH1 0x40 DUP4 DUP6 SUB SLT ISZERO PUSH2 0x1655 JUMPI PUSH1 0x0 DUP1 REVERT JUMPDEST PUSH1 0x0 PUSH2 0x1661 DUP6 DUP6 PUSH2 0x1540 JUMP JUMPDEST SWAP3 POP POP PUSH1 0x20 DUP4 ADD CALLDATALOAD PUSH8 0xFFFFFFFFFFFFFFFF DUP2 GT ISZERO PUSH2 0x167E JUMPI PUSH1 0x0 DUP1 REVERT JUMPDEST PUSH2 0x15F0 DUP6 DUP3 DUP7 ADD PUSH2 0x13F8 JUMP JUMPDEST PUSH1 0x0 DUP1 PUSH1 0x40 DUP4 DUP6 SUB SLT ISZERO PUSH2 0x169D JUMPI PUSH1 0x0 DUP1 REVERT JUMPDEST PUSH1 0x0 PUSH2 0x16A9 DUP6 DUP6 PUSH2 0x1540 JUMP JUMPDEST SWAP3 POP POP PUSH1 0x20 DUP4 ADD CALLDATALOAD PUSH8 0xFFFFFFFFFFFFFFFF DUP2 GT ISZERO PUSH2 0x16C6 JUMPI PUSH1 0x0 DUP1 REVERT JUMPDEST PUSH2 0x15F0 DUP6 DUP3 DUP7 ADD PUSH2 0x1468 JUMP JUMPDEST PUSH1 0x0 DUP1 PUSH1 0x40 DUP4 DUP6 SUB SLT ISZERO PUSH2 0x16E5 JUMPI PUSH1 0x0 DUP1 REVERT JUMPDEST PUSH1 0x0 PUSH2 0x16F1 DUP6 DUP6 PUSH2 0x1540 JUMP JUMPDEST SWAP3 POP POP PUSH1 0x20 DUP4 ADD CALLDATALOAD PUSH8 0xFFFFFFFFFFFFFFFF DUP2 GT ISZERO PUSH2 0x170E JUMPI PUSH1 0x0 DUP1 REVERT JUMPDEST PUSH2 0x15F0 DUP6 DUP3 DUP7 ADD PUSH2 0x14C5 JUMP JUMPDEST PUSH1 0x0 DUP1 PUSH1 0x40 DUP4 DUP6 SUB SLT ISZERO PUSH2 0x172D JUMPI PUSH1 0x0 DUP1 REVERT JUMPDEST PUSH1 0x0 PUSH2 0x1739 DUP6 DUP6 PUSH2 0x1540 JUMP JUMPDEST SWAP3 POP POP PUSH1 0x20 PUSH2 0x15F0 DUP6 DUP3 DUP7 ADD PUSH2 0x1535 JUMP JUMPDEST PUSH1 0x0 DUP1 PUSH1 0x40 DUP4 DUP6 SUB SLT ISZERO PUSH2 0x175D JUMPI PUSH1 0x0 DUP1 REVERT JUMPDEST PUSH1 0x0 PUSH2 0x1769 DUP6 DUP6 PUSH2 0x1540 JUMP JUMPDEST SWAP3 POP POP PUSH1 0x20 PUSH2 0x15F0 DUP6 DUP3 DUP7 ADD PUSH2 0x1540 JUMP JUMPDEST PUSH1 0x0 DUP1 PUSH1 0x40 DUP4 DUP6 SUB SLT ISZERO PUSH2 0x178D JUMPI PUSH1 0x0 DUP1 REVERT JUMPDEST PUSH1 0x0 PUSH2 0x1799 DUP6 DUP6 PUSH2 0x1540 JUMP JUMPDEST SWAP3 POP POP PUSH1 0x20 DUP4 ADD CALLDATALOAD PUSH8 0xFFFFFFFFFFFFFFFF DUP2 GT ISZERO PUSH2 0x17B6 JUMPI PUSH1 0x0 DUP1 REVERT JUMPDEST PUSH2 0x15F0 DUP6 DUP3 DUP7 ADD PUSH2 0x154B JUMP JUMPDEST PUSH1 0x0 DUP1 PUSH1 0x0 PUSH1 0x60 DUP5 DUP7 SUB SLT ISZERO PUSH2 0x17D7 JUMPI PUSH1 0x0 DUP1 REVERT JUMPDEST PUSH1 0x0 PUSH2 0x17E3 DUP7 DUP7 PUSH2 0x1540 JUMP JUMPDEST SWAP4 POP POP PUSH1 0x20 PUSH2 0x17F4 DUP7 DUP3 DUP8 ADD PUSH2 0x1540 JUMP JUMPDEST SWAP3 POP POP PUSH1 0x40 PUSH2 0x1805 DUP7 DUP3 DUP8 ADD PUSH2 0x1368 JUMP JUMPDEST SWAP2 POP POP SWAP3 POP SWAP3 POP SWAP3 JUMP JUMPDEST PUSH1 0x0 DUP1 PUSH1 0x0 PUSH1 0x60 DUP5 DUP7 SUB SLT ISZERO PUSH2 0x1824 JUMPI PUSH1 0x0 DUP1 REVERT JUMPDEST PUSH1 0x0 PUSH2 0x1830 DUP7 DUP7 PUSH2 0x1540 JUMP JUMPDEST SWAP4 POP POP PUSH1 0x20 PUSH2 0x1841 DUP7 DUP3 DUP8 ADD PUSH2 0x1540 JUMP JUMPDEST SWAP3 POP POP PUSH1 0x40 PUSH2 0x1805 DUP7 DUP3 DUP8 ADD PUSH2 0x1540 JUMP JUMPDEST PUSH1 0x0 DUP1 PUSH1 0x0 PUSH1 0x60 DUP5 DUP7 SUB SLT ISZERO PUSH2 0x1867 JUMPI PUSH1 0x0 DUP1 REVERT JUMPDEST PUSH1 0x0 PUSH2 0x1873 DUP7 DUP7 PUSH2 0x1540 JUMP JUMPDEST SWAP4 POP POP PUSH1 0x20 PUSH2 0x1884 DUP7 DUP3 DUP8 ADD PUSH2 0x1540 JUMP JUMPDEST SWAP3 POP POP PUSH1 0x40 DUP5 ADD CALLDATALOAD PUSH8 0xFFFFFFFFFFFFFFFF DUP2 GT ISZERO PUSH2 0x18A1 JUMPI PUSH1 0x0 DUP1 REVERT JUMPDEST PUSH2 0x1805 DUP7 DUP3 DUP8 ADD PUSH2 0x154B JUMP JUMPDEST PUSH1 0x0 PUSH2 0x18B9 DUP4 DUP4 PUSH2 0x18E0 JUMP JUMPDEST POP POP PUSH1 0x20 ADD SWAP1 JUMP JUMPDEST PUSH1 0x0 PUSH2 0x18B9 DUP4 DUP4 PUSH2 0x1A5B JUMP JUMPDEST PUSH1 0x0 PUSH2 0x18D9 DUP4 DUP4 PUSH2 0x1A64 JUMP JUMPDEST SWAP4 SWAP3 POP POP POP JUMP JUMPDEST PUSH2 0x18E9 DUP2 PUSH2 0x1BFA JUMP JUMPDEST DUP3 MSTORE POP POP JUMP JUMPDEST PUSH1 0x0 PUSH2 0x18FA DUP3 PUSH2 0x1BED JUMP JUMPDEST PUSH2 0x1904 DUP2 DUP6 PUSH2 0x1BF1 JUMP JUMPDEST SWAP4 POP PUSH2 0x190F DUP4 PUSH2 0x1BE7 JUMP JUMPDEST DUP1 PUSH1 0x0 JUMPDEST DUP4 DUP2 LT ISZERO PUSH2 0x193D JUMPI DUP2 MLOAD PUSH2 0x1927 DUP9 DUP3 PUSH2 0x18AD JUMP JUMPDEST SWAP8 POP PUSH2 0x1932 DUP4 PUSH2 0x1BE7 JUMP JUMPDEST SWAP3 POP POP PUSH1 0x1 ADD PUSH2 0x1913 JUMP JUMPDEST POP SWAP5 SWAP6 SWAP5 POP POP POP POP POP JUMP JUMPDEST PUSH1 0x0 PUSH2 0x1953 DUP3 PUSH2 0x1BED JUMP JUMPDEST PUSH2 0x195D DUP2 DUP6 PUSH2 0x1BF1 JUMP JUMPDEST SWAP4 POP PUSH2 0x1968 DUP4 PUSH2 0x1BE7 JUMP JUMPDEST DUP1 PUSH1 0x0 JUMPDEST DUP4 DUP2 LT ISZERO PUSH2 0x193D JUMPI DUP2 MLOAD PUSH2 0x1980 DUP9 DUP3 PUSH2 0x18C1 JUMP JUMPDEST SWAP8 POP PUSH2 0x198B DUP4 PUSH2 0x1BE7 JUMP JUMPDEST SWAP3 POP POP PUSH1 0x1 ADD PUSH2 0x196C JUMP JUMPDEST PUSH1 0x0 PUSH2 0x19A1 DUP3 PUSH2 0x1BED JUMP JUMPDEST PUSH2 0x19AB DUP2 DUP6 PUSH2 0x1BF1 JUMP JUMPDEST SWAP4 POP DUP4 PUSH1 0x20 DUP3 MUL DUP6 ADD PUSH2 0x19BD DUP6 PUSH2 0x1BE7 JUMP JUMPDEST DUP1 PUSH1 0x0 JUMPDEST DUP6 DUP2 LT ISZERO PUSH2 0x19F7 JUMPI DUP5 DUP5 SUB DUP10 MSTORE DUP2 MLOAD PUSH2 0x19DA DUP6 DUP3 PUSH2 0x18CD JUMP JUMPDEST SWAP5 POP PUSH2 0x19E5 DUP4 PUSH2 0x1BE7 JUMP JUMPDEST PUSH1 0x20 SWAP11 SWAP1 SWAP11 ADD SWAP10 SWAP3 POP POP PUSH1 0x1 ADD PUSH2 0x19C1 JUMP JUMPDEST POP SWAP2 SWAP8 SWAP7 POP POP POP POP POP POP POP JUMP JUMPDEST PUSH1 0x0 PUSH2 0x1A0F DUP3 PUSH2 0x1BED JUMP JUMPDEST PUSH2 0x1A19 DUP2 DUP6 PUSH2 0x1BF1 JUMP JUMPDEST SWAP4 POP PUSH2 0x1A24 DUP4 PUSH2 0x1BE7 JUMP JUMPDEST DUP1 PUSH1 0x0 JUMPDEST DUP4 DUP2 LT ISZERO PUSH2 0x193D JUMPI DUP2 MLOAD PUSH2 0x1A3C DUP9 DUP3 PUSH2 0x18C1 JUMP JUMPDEST SWAP8 POP PUSH2 0x1A47 DUP4 PUSH2 0x1BE7 JUMP JUMPDEST SWAP3 POP POP PUSH1 0x1 ADD PUSH2 0x1A28 JUMP JUMPDEST PUSH2 0x18E9 DUP2 PUSH2 0x1C05 JUMP JUMPDEST PUSH2 0x18E9 DUP2 PUSH2 0x12E0 JUMP JUMPDEST PUSH1 0x0 PUSH2 0x1A6F DUP3 PUSH2 0x1BED JUMP JUMPDEST PUSH2 0x1A79 DUP2 DUP6 PUSH2 0x1BF1 JUMP JUMPDEST SWAP4 POP PUSH2 0x1A89 DUP2 DUP6 PUSH1 0x20 DUP7 ADD PUSH2 0x1C22 JUMP JUMPDEST PUSH2 0x1A92 DUP2 PUSH2 0x1C4E JUMP JUMPDEST SWAP1 SWAP4 ADD SWAP4 SWAP3 POP POP POP JUMP JUMPDEST PUSH1 0x0 PUSH2 0x1AA9 PUSH1 0x2A DUP4 PUSH2 0x1BF1 JUMP JUMPDEST PUSH32 0x496E6465782073686F756C64206C657373207468616E206C656E677468206F66 DUP2 MSTORE PUSH10 0x20746865206172726179 PUSH1 0xB0 SHL PUSH1 0x20 DUP3 ADD MSTORE PUSH1 0x40 ADD SWAP3 SWAP2 POP POP JUMP JUMPDEST PUSH1 0x20 DUP2 ADD PUSH2 0x1373 DUP3 DUP5 PUSH2 0x18E0 JUMP JUMPDEST PUSH1 0x20 DUP1 DUP3 MSTORE DUP2 ADD PUSH2 0x18D9 DUP2 DUP5 PUSH2 0x18EF JUMP JUMPDEST PUSH1 0x20 DUP1 DUP3 MSTORE DUP2 ADD PUSH2 0x18D9 DUP2 DUP5 PUSH2 0x1948 JUMP JUMPDEST PUSH1 0x20 DUP1 DUP3 MSTORE DUP2 ADD PUSH2 0x18D9 DUP2 DUP5 PUSH2 0x1996 JUMP JUMPDEST PUSH1 0x20 DUP1 DUP3 MSTORE DUP2 ADD PUSH2 0x18D9 DUP2 DUP5 PUSH2 0x1A04 JUMP JUMPDEST PUSH1 0x20 DUP2 ADD PUSH2 0x1373 DUP3 DUP5 PUSH2 0x1A52 JUMP JUMPDEST PUSH1 0x20 DUP2 ADD PUSH2 0x1373 DUP3 DUP5 PUSH2 0x1A5B JUMP JUMPDEST PUSH1 0x20 DUP1 DUP3 MSTORE DUP2 ADD PUSH2 0x18D9 DUP2 DUP5 PUSH2 0x1A64 JUMP JUMPDEST PUSH1 0x20 DUP1 DUP3 MSTORE DUP2 ADD PUSH2 0x1373 DUP2 PUSH2 0x1A9C JUMP JUMPDEST PUSH1 0x40 MLOAD DUP2 DUP2 ADD PUSH8 0xFFFFFFFFFFFFFFFF DUP2 GT DUP3 DUP3 LT OR ISZERO PUSH2 0x1B96 JUMPI PUSH1 0x0 DUP1 REVERT JUMPDEST PUSH1 0x40 MSTORE SWAP2 SWAP1 POP JUMP JUMPDEST PUSH1 0x0 PUSH8 0xFFFFFFFFFFFFFFFF DUP3 GT ISZERO PUSH2 0x1BB5 JUMPI PUSH1 0x0 DUP1 REVERT JUMPDEST POP PUSH1 0x20 SWAP1 DUP2 MUL ADD SWAP1 JUMP JUMPDEST PUSH1 0x0 PUSH8 0xFFFFFFFFFFFFFFFF DUP3 GT ISZERO PUSH2 0x1BD6 JUMPI PUSH1 0x0 DUP1 REVERT JUMPDEST POP PUSH1 0x20 PUSH1 0x1F SWAP2 SWAP1 SWAP2 ADD PUSH1 0x1F NOT AND ADD SWAP1 JUMP JUMPDEST PUSH1 0x20 ADD SWAP1 JUMP JUMPDEST MLOAD SWAP1 JUMP JUMPDEST SWAP1 DUP2 MSTORE PUSH1 0x20 ADD SWAP1 JUMP JUMPDEST PUSH1 0x0 PUSH2 0x1373 DUP3 PUSH2 0x1C0A JUMP JUMPDEST ISZERO ISZERO SWAP1 JUMP JUMPDEST PUSH1 0x1 PUSH1 0x1 PUSH1 0xA0 SHL SUB AND SWAP1 JUMP JUMPDEST DUP3 DUP2 DUP4 CALLDATACOPY POP PUSH1 0x0 SWAP2 ADD MSTORE JUMP JUMPDEST PUSH1 0x0 JUMPDEST DUP4 DUP2 LT ISZERO PUSH2 0x1C3D JUMPI DUP2 DUP2 ADD MLOAD DUP4 DUP3 ADD MSTORE PUSH1 0x20 ADD PUSH2 0x1C25 JUMP JUMPDEST DUP4 DUP2 GT ISZERO PUSH2 0xBA9 JUMPI POP POP PUSH1 0x0 SWAP2 ADD MSTORE JUMP JUMPDEST PUSH1 0x1F ADD PUSH1 0x1F NOT AND SWAP1 JUMP JUMPDEST PUSH2 0x1C61 DUP2 PUSH2 0x1BFA JUMP JUMPDEST DUP2 EQ PUSH2 0x1365 JUMPI PUSH1 0x0 DUP1 REVERT JUMPDEST PUSH2 0x1C61 DUP2 PUSH2 0x1C05 JUMP JUMPDEST PUSH2 0x1C61 DUP2 PUSH2 0x12E0 JUMP INVALID LOG3 PUSH6 0x627A7A723158 KECCAK256 0xC4 LT SUB PUSH31 0x3B38648D11C59E391F20137DA0BC249341A043E2BCA4C8FE26AE208A6C6578 PUSH17 0x6572696D656E74616CF564736F6C634300 SDIV GT STOP BLOCKHASH ",
  "sha1": "53a130100c99d81bf2ca4fe5905b757077f0c791",
  "source": "pragma solidity ^0.5.4;\npragma experimental ABIEncoderV2;\n\ncontract EternalStorage {\n    /// @notice Internal mappings used to store all kinds on data into the contract\n    mapping(bytes32 => uint256) public uintStorage;\n    mapping(bytes32 => string) public stringStorage;\n    mapping(bytes32 => address) public addressStorage;\n    mapping(bytes32 => bytes) public bytesStorage;\n    mapping(bytes32 => bool) public boolStorage;\n    mapping(bytes32 => int256) public intStorage;\n    mapping(bytes32 => bytes32) public bytes32Storage;\n\n    /// @notice Internal mappings used to store arrays of different data types\n    mapping(bytes32 => bytes32[]) public bytes32ArrayStorage;\n    mapping(bytes32 => uint256[]) public uintArrayStorage;\n    mapping(bytes32 => address[]) public addressArrayStorage;\n    mapping(bytes32 => string[]) public stringArrayStorage;\n\n    //////////////////\n    //// set functions\n    //////////////////\n    /// @notice Set the key values using the Overloaded `set` functions\n    /// Ex- string version = \"0.0.1\"; replace to\n    /// set(keccak256(abi.encodePacked(\"version\"), \"0.0.1\");\n    /// same for the other variables as well some more example listed below\n    /// ex1 - address securityTokenAddress = 0x123; replace to\n    /// set(keccak256(abi.encodePacked(\"securityTokenAddress\"), 0x123);\n    /// ex2 - bytes32 tokenDetails = \"I am ST20\"; replace to\n    /// set(keccak256(abi.encodePacked(\"tokenDetails\"), \"I am ST20\");\n    /// ex3 - mapping(string => address) ownedToken;\n    /// set(keccak256(abi.encodePacked(\"ownedToken\", \"Chris\")), 0x123);\n    /// ex4 - mapping(string => uint) tokenIndex;\n    /// tokenIndex[\"TOKEN\"] = 1; replace to set(keccak256(abi.encodePacked(\"tokenIndex\", \"TOKEN\"), 1);\n    /// ex5 - mapping(string => SymbolDetails) registeredSymbols; where SymbolDetails is the structure having different type of values as\n    /// {uint256 date, string name, address owner} etc.\n    /// registeredSymbols[\"TOKEN\"].name = \"MyFristToken\"; replace to set(keccak256(abi.encodePacked(\"registeredSymbols_name\", \"TOKEN\"), \"MyFirstToken\");\n    /// More generalized- set(keccak256(abi.encodePacked(\"registeredSymbols_<struct variable>\", \"keyname\"), \"value\");\n\n    function set(bytes32 _key, uint256 _value) public {\n        uintStorage[_key] = _value;\n    }\n\n    function set(bytes32 _key, address _value) public {\n        addressStorage[_key] = _value;\n    }\n\n    function set(bytes32 _key, bool _value) public {\n        boolStorage[_key] = _value;\n    }\n\n    function set(bytes32 _key, bytes32 _value) public {\n        bytes32Storage[_key] = _value;\n    }\n\n    function set(bytes32 _key, string memory _value) public {\n        stringStorage[_key] = _value;\n    }\n\n    function set(bytes32 _key, bytes memory _value) public {\n        bytesStorage[_key] = _value;\n    }\n\n    ////////////////////////////\n    // deleteArray functions\n    ////////////////////////////\n    /// @notice Function used to delete the array element.\n    /// Ex1- mapping(address => bytes32[]) tokensOwnedByOwner;\n    /// For deleting the item from array developers needs to create a funtion for that similarly\n    /// in this case we have the helper function deleteArrayBytes32() which will do it for us\n    /// deleteArrayBytes32(keccak256(abi.encodePacked(\"tokensOwnedByOwner\", 0x1), 3); -- it will delete the index 3\n\n    //Deletes from mapping (bytes32 => array[]) at index _index\n    function deleteArrayAddress(bytes32 _key, uint256 _index) public {\n        address[] storage array = addressArrayStorage[_key];\n        require(_index < array.length, \"Index should less than length of the array\");\n        array[_index] = array[array.length - 1];\n        array.length = array.length - 1;\n    }\n\n    //Deletes from mapping (bytes32 => bytes32[]) at index _index\n    function deleteArrayBytes32(bytes32 _key, uint256 _index) public {\n        bytes32[] storage array = bytes32ArrayStorage[_key];\n        require(_index < array.length, \"Index should less than length of the array\");\n        array[_index] = array[array.length - 1];\n        array.length = array.length - 1;\n    }\n\n    //Deletes from mapping (bytes32 => uint[]) at index _index\n    function deleteArrayUint(bytes32 _key, uint256 _index) public {\n        uint256[] storage array = uintArrayStorage[_key];\n        require(_index < array.length, \"Index should less than length of the array\");\n        array[_index] = array[array.length - 1];\n        array.length = array.length - 1;\n    }\n\n    //Deletes from mapping (bytes32 => string[]) at index _index\n    function deleteArrayString(bytes32 _key, uint256 _index) public {\n        string[] storage array = stringArrayStorage[_key];\n        require(_index < array.length, \"Index should less than length of the array\");\n        array[_index] = array[array.length - 1];\n        array.length = array.length - 1;\n    }\n\n    ////////////////////////////\n    //// pushArray functions\n    ///////////////////////////\n    /// @notice Below are the helper functions to facilitate storing arrays of different data types.\n    /// Ex1- mapping(address => bytes32[]) tokensOwnedByTicker;\n    /// tokensOwnedByTicker[owner] = tokensOwnedByTicker[owner].push(\"xyz\"); replace with\n    /// pushArray(keccak256(abi.encodePacked(\"tokensOwnedByTicker\", owner), \"xyz\");\n\n    /// @notice use to store the values for the array\n    /// @param _key bytes32 type\n    /// @param _value [uint256, string, bytes32, address] any of the data type in array\n    function pushArray(bytes32 _key, address _value) public {\n        addressArrayStorage[_key].push(_value);\n    }\n\n    function pushArray(bytes32 _key, bytes32 _value) public {\n        bytes32ArrayStorage[_key].push(_value);\n    }\n\n    function pushArray(bytes32 _key, string memory _value) public {\n        stringArrayStorage[_key].push(_value);\n    }\n\n    function pushArray(bytes32 _key, uint256 _value) public {\n        uintArrayStorage[_key].push(_value);\n    }\n\n    /////////////////////////\n    //// Set Array functions\n    ////////////////////////\n    /// @notice used to intialize the array\n    /// Ex1- mapping (address => address[]) public reputation;\n    /// reputation[0x1] = new address[](0); It can be replaced as\n    /// setArray(hash('reputation', 0x1), new address[](0));\n\n    function setArray(bytes32 _key, address[] memory _value) public {\n        addressArrayStorage[_key] = _value;\n    }\n\n    function setArray(bytes32 _key, uint256[] memory _value) public {\n        uintArrayStorage[_key] = _value;\n    }\n\n    function setArray(bytes32 _key, bytes32[] memory _value) public {\n        bytes32ArrayStorage[_key] = _value;\n    }\n\n    function setArray(bytes32 _key, string[] memory _value) public {\n        stringArrayStorage[_key] = _value;\n    }\n\n    /////////////////////////\n    /// getArray functions\n    /////////////////////////\n    /// @notice Get functions to get the array of the required data type\n    /// Ex1- mapping(address => bytes32[]) tokensOwnedByOwner;\n    /// getArrayBytes32(keccak256(abi.encodePacked(\"tokensOwnedByOwner\", 0x1)); It return the bytes32 array\n    /// Ex2- uint256 _len =  tokensOwnedByOwner[0x1].length; replace with\n    /// getArrayBytes32(keccak256(abi.encodePacked(\"tokensOwnedByOwner\", 0x1)).length;\n\n    function getArrayAddress(bytes32 _key) public view returns(address[] memory) {\n        return addressArrayStorage[_key];\n    }\n\n    function getArrayBytes32(bytes32 _key) public view returns(bytes32[] memory) {\n        return bytes32ArrayStorage[_key];\n    }\n\n    function getArrayUint(bytes32 _key) public view returns(uint[] memory) {\n        return uintArrayStorage[_key];\n    }\n    \n    function getArrayString(bytes32 _key) public view returns(string[] memory) {\n        return stringArrayStorage[_key];\n    }\n\n    ///////////////////////////////////\n    /// setArrayIndexValue() functions\n    ///////////////////////////////////\n    /// @notice set the value of particular index of the address array\n    /// Ex1- mapping(bytes32 => address[]) moduleList;\n    /// general way is -- moduleList[moduleType][index] = temp;\n    /// It can be re-write as -- setArrayIndexValue(keccak256(abi.encodePacked('moduleList', moduleType)), index, temp);\n\n    function setArrayIndexValue(bytes32 _key, uint256 _index, address _value) public {\n        addressArrayStorage[_key][_index] = _value;\n    }\n\n    function setArrayIndexValue(bytes32 _key, uint256 _index, uint256 _value) public {\n        uintArrayStorage[_key][_index] = _value;\n    }\n\n    function setArrayIndexValue(bytes32 _key, uint256 _index, bytes32 _value) public {\n        bytes32ArrayStorage[_key][_index] = _value;\n    }\n\n    function setArrayIndexValue(bytes32 _key, uint256 _index, string memory _value) public {\n        stringArrayStorage[_key][_index] = _value;\n    }\n\n    /// Public getters functions\n    /////////////////////// @notice Get function use to get the value of the singleton state variables\n    /// Ex1- string public version = \"0.0.1\";\n    /// string _version = getString(keccak256(abi.encodePacked(\"version\"));\n    /// Ex2 - assert(temp1 == temp2); replace to\n    /// assert(getUint(keccak256(abi.encodePacked(temp1)) == getUint(keccak256(abi.encodePacked(temp2));\n    /// Ex3 - mapping(string => SymbolDetails) registeredSymbols; where SymbolDetails is the structure having different type of values as\n    /// {uint256 date, string name, address owner} etc.\n    /// string _name = getString(keccak256(abi.encodePacked(\"registeredSymbols_name\", \"TOKEN\"));\n\n    function getUintValue(bytes32 _variable) public view returns(uint256) {\n        return uintStorage[_variable];\n    }\n\n    function getBoolValue(bytes32 _variable) public view returns(bool) {\n        return boolStorage[_variable];\n    }\n\n    function getStringValue(bytes32 _variable) public view returns(string memory) {\n        return stringStorage[_variable];\n    }\n\n    function getAddressValue(bytes32 _variable) public view returns(address) {\n        return addressStorage[_variable];\n    }\n\n    function getBytes32Value(bytes32 _variable) public view returns(bytes32) {\n        return bytes32Storage[_variable];\n    }\n\n    function getBytesValue(bytes32 _variable) public view returns(bytes memory) {\n        return bytesStorage[_variable];\n    }\n\n}\n\n",
  "sourcePath": "contracts/storage/EternalStorage.sol",
  "type": "contract"
}