{
  "abi": [
    {
      "constant": false,
      "inputs": [
        {
          "internalType": "address",
          "name": "_owner",
          "type": "address"
        },
        {
          "internalType": "bytes32[]",
          "name": "_keys",
          "type": "bytes32[]"
        },
        {
          "internalType": "uint256[]",
          "name": "_purposes",
          "type": "uint256[]"
        },
        {
          "internalType": "uint256",
          "name": "_salt",
          "type": "uint256"
        }
      ],
      "name": "deploy",
      "outputs": [
        {
          "internalType": "address",
          "name": "",
          "type": "address"
        }
      ],
      "payable": false,
      "stateMutability": "nonpayable",
      "type": "function"
    },
    {
      "constant": true,
      "inputs": [
        {
          "internalType": "address",
          "name": "_owner",
          "type": "address"
        },
        {
          "internalType": "bytes32[]",
          "name": "_keys",
          "type": "bytes32[]"
        },
        {
          "internalType": "uint256[]",
          "name": "_purposes",
          "type": "uint256[]"
        },
        {
          "internalType": "uint256",
          "name": "_salt",
          "type": "uint256"
        }
      ],
      "name": "getAddress",
      "outputs": [
        {
          "internalType": "address",
          "name": "",
          "type": "address"
        }
      ],
      "payable": false,
      "stateMutability": "view",
      "type": "function"
    }
  ],
  "bytecode": "608060405234801561001057600080fd5b5061294e806100206000396000f3fe608060405234801561001057600080fd5b50600436106100365760003560e01c80630bcbc0ec1461003b578063fe5e0e391461018c575b600080fd5b6101706004803603608081101561005157600080fd5b6001600160a01b038235169190810190604081016020820135600160201b81111561007b57600080fd5b82018360208201111561008d57600080fd5b803590602001918460208302840111600160201b831117156100ae57600080fd5b9190808060200260200160405190810160405280939291908181526020018383602002808284376000920191909152509295949360208101935035915050600160201b8111156100fd57600080fd5b82018360208201111561010f57600080fd5b803590602001918460208302840111600160201b8311171561013057600080fd5b91908080602002602001604051908101604052809392919081815260200183836020028082843760009201919091525092955050913592506102c1915050565b604080516001600160a01b039092168252519081900360200190f35b610170600480360360808110156101a257600080fd5b6001600160a01b038235169190810190604081016020820135600160201b8111156101cc57600080fd5b8201836020820111156101de57600080fd5b803590602001918460208302840111600160201b831117156101ff57600080fd5b9190808060200260200160405190810160405280939291908181526020018383602002808284376000920191909152509295949360208101935035915050600160201b81111561024e57600080fd5b82018360208201111561026057600080fd5b803590602001918460208302840111600160201b8311171561028157600080fd5b91908080602002602001604051908101604052809392919081815260200183836020028082843760009201919091525092955050913592506102e9915050565b600060606102d0868686610349565b905060006102de82856104ea565b979650505050505050565b600060606102f8868686610349565b8051602091820120604080516001600160f81b0319818501523060601b6021820152603581018790526055808201939093528151808203909301835260750190528051910120915050949350505050565b6060806040518060200161035c9061050b565b6020820181038252601f19601f8201166040525090508085858560405160200180846001600160a01b03166001600160a01b031681526020018060200180602001838103835285818151815260200191508051906020019060200280838360005b838110156103d55781810151838201526020016103bd565b50505050905001838103825284818151815260200191508051906020019060200280838360005b838110156104145781810151838201526020016103fc565b50505050905001955050505050506040516020818303038152906040526040516020018083805190602001908083835b602083106104635780518252601f199092019160209182019101610444565b51815160209384036101000a600019018019909216911617905285519190930192850191508083835b602083106104ab5780518252601f19909201916020918201910161048c565b6001836020036101000a038019825116818451168082178552505050505050905001925050506040516020818303038152906040529150509392505050565b600080828451602086016000f59050803b61050457600080fd5b9392505050565b612401806105198339019056fe60806040526003805460ff191690553480156200001b57600080fd5b5060405162002401380380620024018339810160408190526200003e9162000399565b620000596301ffc9a760e01b6001600160e01b03620000da16565b62000074633f32ffef60e21b6001600160e01b03620000da16565b6200008f631076537960e01b6001600160e01b03620000da16565b620000b9620000a7846001600160e01b036200013516565b6001806001600160e01b036200016716565b620000d0828260016001600160e01b03620001ba16565b5050505062000542565b6001600160e01b03198082161415620001105760405162461bcd60e51b815260040162000107906200048a565b60405180910390fd5b6001600160e01b0319166000908152600460205260409020805460ff19166001179055565b6000816040516020016200014a919062000473565b604051602081830303815290604052805190602001209050919050565b6200018683838360006200021760201b6200114117909392919060201c565b8082847f480000bb1edad8ca1470381cc334b1917fbd51c6531f3a623ea8e0ec7e38a6e960405160405180910390a4505050565b6000805b84518110156200020c5762000203858281518110620001d957fe5b6020026020010151858381518110620001ee57fe5b6020026020010151856200016760201b60201c565b600101620001be565b506001949350505050565b60008381526020859052604090208281556002810154620002415760028101849055600181018290555b50506000908152600180840160209081526040832080548084018255908452922090910191909155600290910180549091019055565b805162000284816200051d565b92915050565b600082601f8301126200029c57600080fd5b8151620002b3620002ad82620004c3565b6200049c565b91508181835260208401935060208101905083856020840282011115620002d957600080fd5b60005b83811015620003095781620002f288826200038c565b8452506020928301929190910190600101620002dc565b5050505092915050565b600082601f8301126200032557600080fd5b815162000336620002ad82620004c3565b915081818352602084019350602081019050838560208402820111156200035c57600080fd5b60005b838110156200030957816200037588826200038c565b84525060209283019291909101906001016200035f565b8051620002848162000537565b600080600060608486031215620003af57600080fd5b6000620003bd868662000277565b93505060208401516001600160401b03811115620003da57600080fd5b620003e8868287016200028a565b92505060408401516001600160401b038111156200040557600080fd5b620004138682870162000313565b9150509250925092565b620004326200042c82620004ed565b62000509565b82525050565b600062000447601c83620004e4565b7f4552433136353a20696e76616c696420696e7465726661636520696400000000815260200192915050565b60006200048182846200041d565b50601401919050565b60208082528101620002848162000438565b6040518181016001600160401b0381118282101715620004bb57600080fd5b604052919050565b60006001600160401b03821115620004da57600080fd5b5060209081020190565b90815260200190565b60006200028482620004fd565b90565b6001600160a01b031690565b600062000284826000620002848260601b90565b6200052881620004ed565b81146200053457600080fd5b50565b6200052881620004fa565b611eaf80620005526000396000f3fe608060405234801561001057600080fd5b50600436106101375760003560e01c80638456cb59116100b8578063c9100bcb1161007c578063c9100bcb14610286578063c9d24ecc146102ab578063cdb7bbd6146102b3578063d202158d146102c6578063e590cf18146102d9578063f76c9229146102ec57610137565b80638456cb5914610232578063862642f51461023a5780639010f7261461024d578063b1a34e0d14610260578063b61d27f61461027357610137565b80634eee424a116100ff5780634eee424a146101c45780635c975abb146101d757806363f14c3c146101df5780636e4c4311146101ff578063747442d31461021f57610137565b806301ffc9a71461013c57806312aaac70146101655780631d38124014610187578063262b54f51461019a5780633f4ba83a146101ba575b600080fd5b61014f61014a3660046116eb565b610310565b60405161015c9190611b83565b60405180910390f35b610178610173366004611661565b61032f565b60405161015c93929190611cff565b61014f6101953660046116b9565b610379565b6101ad6101a8366004611661565b61041e565b60405161015c9190611b72565b6101c2610480565b005b61014f6101d2366004611661565b6104c4565b61014f6105e1565b6101f26101ed3660046114da565b6105ea565b60405161015c9190611b91565b61021261020d36600461167f565b61061a565b60405161015c9190611b00565b61014f61022d366004611709565b61064f565b6101c2610876565b61014f610248366004611661565b6108be565b6101ad61025b366004611661565b61097e565b6101f261026e366004611739565b6109de565b6101f2610281366004611500565b610b7a565b610299610294366004611661565b610ca5565b60405161015c96959493929190611c91565b6101f2610ea4565b61014f6102c13660046115ef565b610eab565b61014f6102d436600461167f565b610efc565b6101c26102e7366004611565565b610f42565b6102ff6102fa366004611661565b610fa1565b60405161015c959493929190611b29565b6001600160e01b03191660009081526004602052604090205460ff1690565b600080600061033c6111a0565b5050506000918252506020818152604091829020825160608101845281548082526001830154938201849052600290920154930183905292909190565b60035460009060ff161561038c57600080fd5b61039e6000858563ffffffff61106916565b156103ab57506000610417565b333014610408576103e3336040516020016103c69190611b00565b604051602081830303815290604052805190602001206001610efc565b6104085760405162461bcd60e51b81526004016103ff90611bf1565b60405180910390fd5b6104138484846110d2565b5060015b9392505050565b60008181526009602090815260409182902080548351818402810184019094528084526060939283018282801561047457602002820191906000526020600020905b815481526020019060010190808311610460575b50505050509050919050565b60035460ff1661048f57600080fd5b6003805460ff191690556040517f730c1faaa977b67dacf1e2451ef54556e04a07d577785ff79f6d31f73502efc990600090a1565b600033301461051a576104fe336040516020016104e19190611b00565b604051602081830303815290604052805190602001206003610efc565b61051a5760405162461bcd60e51b81526004016103ff90611bd1565b6000828152600860205260409081902060028101548154600183015493516001600160a01b0390921693909286927f3cf57863a89432c61c4a27073c6ee39e8a764bff5a05aebfbcdcdc80b2e6130a9261058592909160038201916004810191600590910190611c49565b60405180910390a46000828152600860205260408120818155600181018290556002810180546001600160a01b0319169055906105c560038301826111c4565b6105d36004830160006111c4565b6104136005830160006111c4565b60035460ff1681565b6000816040516020016105fd9190611adf565b604051602081830303815290604052805190602001209050919050565b6007602052816000526040600020818154811061063357fe5b6000918252602090912001546001600160a01b03169150829050565b6000610682336040516020016106659190611b00565b604051602081830303815290604052805190602001206002610efc565b61069e5760405162461bcd60e51b81526004016103ff90611bc1565b827fb3932da477fe5d6c8ff2eafef050c0f3a1af18fc07121001482600f36f3715d8836040516106ce9190611b83565b60405180910390a2606060018315151415610852576000848152600660205260409081902060038101805460ff19166001179055805491516001600160a01b039092169161071f9160020190611af4565b6000604051808303816000865af19150503d806000811461075c576040519150601f19603f3d011682016040523d82523d6000602084013e610761565b606091505b50909250905081156107e8576000848152600660205260409081902060038101805461ff00191661010017905560018101548154925190926001600160a01b03169187917f1f920dbda597d7bf95035464170fa58d0a4b57f13a1c315ace6793b9f63688b8916107d691600290910190611bb0565b60405180910390a46001915050610870565b6000848152600660205260409081902060018101548154925190926001600160a01b03169187917fe10c49d9f7c71da23262367013434763cfdb2332267641728d25cd712c5c6a689161084091600290910190611bb0565b60405180910390a46000915050610870565b50506000828152600660205260409020600301805460ff1916905560015b92915050565b60035460ff161561088657600080fd5b6003805460ff191660011790556040517f4b314b34e912fda7f95e7d23e9c8c95f82f0aff1984e4ce592a0b005f905562490600090a1565b60035460009060ff16156108d157600080fd5b333014610908576108ec336040516020016103c69190611b00565b6109085760405162461bcd60e51b81526004016103ff90611bf1565b6109106111a0565b506000828152602081815260408083208151606081018352815480825260018301549482018590526002909201548184015291519193909186917f585a4aef50f8267a92b32412b331b20f7f8b96f2245b253b9cc50dcc621d339791a461041360008463ffffffff61111916565b60008181526001602090815260409182902080548351818402810184019094528084526060939283018282801561047457602002820191906000526020600020908154815260200190600101908083116104605750505050509050919050565b60008085886040516020016109f4929190611b0e565b60408051601f1981840301815291905280516020909101209050333014610a4557610a29336040516020016104e19190611b00565b610a455760405162461bcd60e51b81526004016103ff90611bd1565b6000818152600860205260409020600201546001600160a01b03878116911614610a8b576000888152600960209081526040822080546001810182559083529120018190555b6000818152600860209081526040909120898155600181018990556002810180546001600160a01b0319166001600160a01b038a161790558651610ad79260039092019188019061120b565b5060008181526008602090815260409091208551610afd9260049092019187019061120b565b5060008181526008602090815260409091208451610b239260059092019186019061120b565b50856001600160a01b031688827f46149b18aa084502c3f12bc75e19eda8bda8d102b82cce8474677a6d0d5f43c58a898989604051610b659493929190611c01565b60405180910390a490505b9695505050505050565b600554600090815260066020526040812060030154610100900460ff1615610bb45760405162461bcd60e51b81526004016103ff90611be1565b60058054600090815260066020908152604080832080546001600160a01b0319166001600160a01b038a1617905583548352808320600101879055925482529190208351610c0a9260029092019185019061120b565b5082846001600160a01b03166005547f8afcfabcb00e47a53a8fc3e9f23ff47ee1926194bb1350dd007c50b412a6cee885604051610c489190611b9f565b60405180910390a4610c64336040516020016103c69190611b00565b80610c7e5750610c7e336040516020016106659190611b00565b15610c9257610c90600554600161064f565b505b5060058054600181019091559392505050565b6000818152600860209081526040808320805460018083015460028085015460038601805488516101009682161596909602600019011692909204601f810189900489028501890190975286845288978897606097889788979096956001600160a01b03909516949360048301936005909301928591830182828015610d6c5780601f10610d4157610100808354040283529160200191610d6c565b820191906000526020600020905b815481529060010190602001808311610d4f57829003601f168201915b5050855460408051602060026001851615610100026000190190941693909304601f810184900484028201840190925281815295985087945092508401905082828015610dfa5780601f10610dcf57610100808354040283529160200191610dfa565b820191906000526020600020905b815481529060010190602001808311610ddd57829003601f168201915b5050845460408051602060026001851615610100026000190190941693909304601f810184900484028201840190925281815295975086945092508401905082828015610e885780601f10610e5d57610100808354040283529160200191610e88565b820191906000526020600020905b815481529060010190602001808311610e6b57829003601f168201915b5050505050905095509550955095509550955091939550919395565b6002545b90565b6000805b8451811015610ef157610ee9858281518110610ec757fe5b6020026020010151858381518110610edb57fe5b6020026020010151856110d2565b600101610eaf565b506001949350505050565b6000610f066111a0565b50506000918252602082815260409283902083516060810185528154808252600183015493820193909352600290910154930192909252101590565b60005b8351811015610f9b57610f92848281518110610f5d57fe5b6020026020010151848381518110610f7157fe5b6020026020010151848481518110610f8557fe5b6020026020010151610b7a565b50600101610f45565b50505050565b60066020908152600091825260409182902080546001808301546002808501805488516101009582161595909502600019011691909104601f81018790048702840187019097528683526001600160a01b0390931695909491929183018282801561104d5780601f106110225761010080835404028352916020019161104d565b820191906000526020600020905b81548152906001019060200180831161103057829003601f168201915b5050506003909301549192505060ff8082169161010090041685565b60006110736111a0565b506000838152602085815260409182902082516060810184528154815260018201549281019290925260020154918101829052906110b5576000915050610417565b805183106110c7576001915050610417565b506000949350505050565b6110e5600084848463ffffffff61114116565b8082847f480000bb1edad8ca1470381cc334b1917fbd51c6531f3a623ea8e0ec7e38a6e960405160405180910390a4505050565b6000908152602091909152604081206001810180548383559083905560029091019190915590565b6000838152602085905260409020828155600281015461116a5760028101849055600181018290555b50506000908152600180840160209081526040832080548084018255908452922090910191909155600290910180549091019055565b60405180606001604052806000815260200160008152602001600080191681525090565b50805460018160011615610100020316600290046000825580601f106111ea5750611208565b601f0160209004906000526020600020908101906112089190611289565b50565b828054600181600116156101000203166002900490600052602060002090601f016020900481019282601f1061124c57805160ff1916838001178555611279565b82800160010185558215611279579182015b8281111561127957825182559160200191906001019061125e565b50611285929150611289565b5090565b610ea891905b80821115611285576000815560010161128f565b803561087081611e3d565b600082601f8301126112bf57600080fd5b81356112d26112cd82611d4e565b611d27565b915081818352602084019350602081019050838560208402820111156112f757600080fd5b60005b83811015611323578161130d88826112a3565b84525060209283019291909101906001016112fa565b5050505092915050565b600082601f83011261133e57600080fd5b813561134c6112cd82611d4e565b9150818183526020840193506020810190508385602084028201111561137157600080fd5b60005b8381101561132357816113878882611475565b8452506020928301929190910190600101611374565b600082601f8301126113ae57600080fd5b81356113bc6112cd82611d4e565b81815260209384019390925082018360005b8381101561132357813586016113e4888261148b565b84525060209283019291909101906001016113ce565b600082601f83011261140b57600080fd5b81356114196112cd82611d4e565b9150818183526020840193506020810190508385602084028201111561143e57600080fd5b60005b8381101561132357816114548882611475565b8452506020928301929190910190600101611441565b803561087081611e51565b803561087081611e5a565b803561087081611e63565b600082601f83011261149c57600080fd5b81356114aa6112cd82611d6f565b915080825260208301602083018583830111156114c657600080fd5b6114d1838284611de4565b50505092915050565b6000602082840312156114ec57600080fd5b60006114f884846112a3565b949350505050565b60008060006060848603121561151557600080fd5b600061152186866112a3565b935050602061153286828701611475565b925050604084013567ffffffffffffffff81111561154f57600080fd5b61155b8682870161148b565b9150509250925092565b60008060006060848603121561157a57600080fd5b833567ffffffffffffffff81111561159157600080fd5b61159d868287016112ae565b935050602084013567ffffffffffffffff8111156115ba57600080fd5b6115c6868287016113fa565b925050604084013567ffffffffffffffff8111156115e357600080fd5b61155b8682870161139d565b60008060006060848603121561160457600080fd5b833567ffffffffffffffff81111561161b57600080fd5b6116278682870161132d565b935050602084013567ffffffffffffffff81111561164457600080fd5b611650868287016113fa565b925050604061155b86828701611475565b60006020828403121561167357600080fd5b60006114f88484611475565b6000806040838503121561169257600080fd5b600061169e8585611475565b92505060206116af85828601611475565b9150509250929050565b6000806000606084860312156116ce57600080fd5b60006116da8686611475565b935050602061165086828701611475565b6000602082840312156116fd57600080fd5b60006114f88484611480565b6000806040838503121561171c57600080fd5b60006117288585611475565b92505060206116af8582860161146a565b60008060008060008060c0878903121561175257600080fd5b600061175e8989611475565b965050602061176f89828a01611475565b955050604061178089828a016112a3565b945050606087013567ffffffffffffffff81111561179d57600080fd5b6117a989828a0161148b565b935050608087013567ffffffffffffffff8111156117c657600080fd5b6117d289828a0161148b565b92505060a087013567ffffffffffffffff8111156117ef57600080fd5b6117fb89828a0161148b565b9150509295509295509295565b6000611814838361189e565b505060200190565b61182581611dbb565b82525050565b61182561183782611dbb565b611e1c565b600061184782611da9565b6118518185611dad565b935061185c83611d97565b8060005b8381101561188a5781516118748882611808565b975061187f83611d97565b925050600101611860565b509495945050505050565b61182581611dc6565b61182581610ea8565b60006118b282611da9565b6118bc8185611dad565b93506118cc818560208601611df0565b6118d581611e2d565b9093019392505050565b6000815460018116600081146118fc576001811461192257611961565b607f600283041661190d8187611dad565b60ff1984168152955050602085019250611961565b600282046119308187611dad565b955061193b85611d9d565b60005b8281101561195a5781548882015260019091019060200161193e565b8701945050505b505092915050565b60008154600181166000811461198657600181146119a957611961565b607f60028304166119978187611db6565b60ff1984168152955085019250611961565b600282046119b78187611db6565b95506119c285611d9d565b60005b828110156119e1578154888201526001909101906020016119c5565b5050909401949350505050565b60006119fb601f83611dad565b7f53656e64657220646f6573206e6f74206861766520616374696f6e206b657900815260200192915050565b6000611a34602583611dad565b7f53656e64657220646f6573206e6f74206861766520636c61696d207369676e6581526472206b657960d81b602082015260400192915050565b6000611a7b601083611dad565b6f105b1c9958591e48195e1958dd5d195960821b815260200192915050565b6000611aa7602383611dad565b7f53656e64657220646f6573206e6f742068617665206d616e6167656d656e74208152626b657960e81b602082015260400192915050565b6000611aeb828461182b565b50601401919050565b60006104178284611969565b60208101610870828461181c565b60408101611b1c828561181c565b610417602083018461189e565b60a08101611b37828861181c565b611b44602083018761189e565b8181036040830152611b5681866118a7565b9050611b656060830185611895565b610b706080830184611895565b60208082528101610417818461183c565b602081016108708284611895565b60208101610870828461189e565b6020808252810161041781846118a7565b6020808252810161041781846118df565b60208082528101610870816119ee565b6020808252810161087081611a27565b6020808252810161087081611a6e565b6020808252810161087081611a9a565b60808101611c0f828761189e565b8181036020830152611c2181866118a7565b90508181036040830152611c3581856118a7565b90508181036060830152610b7081846118a7565b60808101611c57828761189e565b8181036020830152611c6981866118df565b90508181036040830152611c7d81856118df565b90508181036060830152610b7081846118df565b60c08101611c9f828961189e565b611cac602083018861189e565b611cb9604083018761181c565b8181036060830152611ccb81866118a7565b90508181036080830152611cdf81856118a7565b905081810360a0830152611cf381846118a7565b98975050505050505050565b60608101611d0d828661189e565b611d1a602083018561189e565b6114f8604083018461189e565b60405181810167ffffffffffffffff81118282101715611d4657600080fd5b604052919050565b600067ffffffffffffffff821115611d6557600080fd5b5060209081020190565b600067ffffffffffffffff821115611d8657600080fd5b506020601f91909101601f19160190565b60200190565b60009081526020902090565b5190565b90815260200190565b919050565b600061087082611dd8565b151590565b6001600160e01b03191690565b6001600160a01b031690565b82818337506000910152565b60005b83811015611e0b578181015183820152602001611df3565b83811115610f9b5750506000910152565b600061087082600061087082611e37565b601f01601f191690565b60601b90565b611e4681611dbb565b811461120857600080fd5b611e4681611dc6565b611e4681610ea8565b611e4681611dcb56fea365627a7a7231582052820202217ea50d42073250dd9578c9a9cd808dad46a4e704d0eb4210614cee6c6578706572696d656e74616cf564736f6c63430005110040a265627a7a72315820db7e6b265f469002e50b05ffaf82f2b33b3804d799bc50d1be56d9d94364394664736f6c63430005110032",
  "bytecodeSha1": "fa2db7e51cbd629a290d144a4a2b1c150bce81f7",
  "compiler": {
    "evm_version": "istanbul",
    "optimizer": {
      "enabled": true,
      "runs": 200
    },
    "version": "0.5.17+commit.d19bba13"
  },
  "contractName": "IdentityFactory",
  "language": "Solidity",
  "natspec": {
    "methods": {}
  },
  "opcodes": "PUSH1 0x80 PUSH1 0x40 MSTORE CALLVALUE DUP1 ISZERO PUSH2 0x10 JUMPI PUSH1 0x0 DUP1 REVERT JUMPDEST POP PUSH1 0x4 CALLDATASIZE LT PUSH2 0x36 JUMPI PUSH1 0x0 CALLDATALOAD PUSH1 0xE0 SHR DUP1 PUSH4 0xBCBC0EC EQ PUSH2 0x3B JUMPI DUP1 PUSH4 0xFE5E0E39 EQ PUSH2 0x18C JUMPI JUMPDEST PUSH1 0x0 DUP1 REVERT JUMPDEST PUSH2 0x170 PUSH1 0x4 DUP1 CALLDATASIZE SUB PUSH1 0x80 DUP2 LT ISZERO PUSH2 0x51 JUMPI PUSH1 0x0 DUP1 REVERT JUMPDEST PUSH1 0x1 PUSH1 0x1 PUSH1 0xA0 SHL SUB DUP3 CALLDATALOAD AND SWAP2 SWAP1 DUP2 ADD SWAP1 PUSH1 0x40 DUP2 ADD PUSH1 0x20 DUP3 ADD CALLDATALOAD PUSH1 0x1 PUSH1 0x20 SHL DUP2 GT ISZERO PUSH2 0x7B JUMPI PUSH1 0x0 DUP1 REVERT JUMPDEST DUP3 ADD DUP4 PUSH1 0x20 DUP3 ADD GT ISZERO PUSH2 0x8D JUMPI PUSH1 0x0 DUP1 REVERT JUMPDEST DUP1 CALLDATALOAD SWAP1 PUSH1 0x20 ADD SWAP2 DUP5 PUSH1 0x20 DUP4 MUL DUP5 ADD GT PUSH1 0x1 PUSH1 0x20 SHL DUP4 GT OR ISZERO PUSH2 0xAE JUMPI PUSH1 0x0 DUP1 REVERT JUMPDEST SWAP2 SWAP1 DUP1 DUP1 PUSH1 0x20 MUL PUSH1 0x20 ADD PUSH1 0x40 MLOAD SWAP1 DUP2 ADD PUSH1 0x40 MSTORE DUP1 SWAP4 SWAP3 SWAP2 SWAP1 DUP2 DUP2 MSTORE PUSH1 0x20 ADD DUP4 DUP4 PUSH1 0x20 MUL DUP1 DUP3 DUP5 CALLDATACOPY PUSH1 0x0 SWAP3 ADD SWAP2 SWAP1 SWAP2 MSTORE POP SWAP3 SWAP6 SWAP5 SWAP4 PUSH1 0x20 DUP2 ADD SWAP4 POP CALLDATALOAD SWAP2 POP POP PUSH1 0x1 PUSH1 0x20 SHL DUP2 GT ISZERO PUSH2 0xFD JUMPI PUSH1 0x0 DUP1 REVERT JUMPDEST DUP3 ADD DUP4 PUSH1 0x20 DUP3 ADD GT ISZERO PUSH2 0x10F JUMPI PUSH1 0x0 DUP1 REVERT JUMPDEST DUP1 CALLDATALOAD SWAP1 PUSH1 0x20 ADD SWAP2 DUP5 PUSH1 0x20 DUP4 MUL DUP5 ADD GT PUSH1 0x1 PUSH1 0x20 SHL DUP4 GT OR ISZERO PUSH2 0x130 JUMPI PUSH1 0x0 DUP1 REVERT JUMPDEST SWAP2 SWAP1 DUP1 DUP1 PUSH1 0x20 MUL PUSH1 0x20 ADD PUSH1 0x40 MLOAD SWAP1 DUP2 ADD PUSH1 0x40 MSTORE DUP1 SWAP4 SWAP3 SWAP2 SWAP1 DUP2 DUP2 MSTORE PUSH1 0x20 ADD DUP4 DUP4 PUSH1 0x20 MUL DUP1 DUP3 DUP5 CALLDATACOPY PUSH1 0x0 SWAP3 ADD SWAP2 SWAP1 SWAP2 MSTORE POP SWAP3 SWAP6 POP POP SWAP2 CALLDATALOAD SWAP3 POP PUSH2 0x2C1 SWAP2 POP POP JUMP JUMPDEST PUSH1 0x40 DUP1 MLOAD PUSH1 0x1 PUSH1 0x1 PUSH1 0xA0 SHL SUB SWAP1 SWAP3 AND DUP3 MSTORE MLOAD SWAP1 DUP2 SWAP1 SUB PUSH1 0x20 ADD SWAP1 RETURN JUMPDEST PUSH2 0x170 PUSH1 0x4 DUP1 CALLDATASIZE SUB PUSH1 0x80 DUP2 LT ISZERO PUSH2 0x1A2 JUMPI PUSH1 0x0 DUP1 REVERT JUMPDEST PUSH1 0x1 PUSH1 0x1 PUSH1 0xA0 SHL SUB DUP3 CALLDATALOAD AND SWAP2 SWAP1 DUP2 ADD SWAP1 PUSH1 0x40 DUP2 ADD PUSH1 0x20 DUP3 ADD CALLDATALOAD PUSH1 0x1 PUSH1 0x20 SHL DUP2 GT ISZERO PUSH2 0x1CC JUMPI PUSH1 0x0 DUP1 REVERT JUMPDEST DUP3 ADD DUP4 PUSH1 0x20 DUP3 ADD GT ISZERO PUSH2 0x1DE JUMPI PUSH1 0x0 DUP1 REVERT JUMPDEST DUP1 CALLDATALOAD SWAP1 PUSH1 0x20 ADD SWAP2 DUP5 PUSH1 0x20 DUP4 MUL DUP5 ADD GT PUSH1 0x1 PUSH1 0x20 SHL DUP4 GT OR ISZERO PUSH2 0x1FF JUMPI PUSH1 0x0 DUP1 REVERT JUMPDEST SWAP2 SWAP1 DUP1 DUP1 PUSH1 0x20 MUL PUSH1 0x20 ADD PUSH1 0x40 MLOAD SWAP1 DUP2 ADD PUSH1 0x40 MSTORE DUP1 SWAP4 SWAP3 SWAP2 SWAP1 DUP2 DUP2 MSTORE PUSH1 0x20 ADD DUP4 DUP4 PUSH1 0x20 MUL DUP1 DUP3 DUP5 CALLDATACOPY PUSH1 0x0 SWAP3 ADD SWAP2 SWAP1 SWAP2 MSTORE POP SWAP3 SWAP6 SWAP5 SWAP4 PUSH1 0x20 DUP2 ADD SWAP4 POP CALLDATALOAD SWAP2 POP POP PUSH1 0x1 PUSH1 0x20 SHL DUP2 GT ISZERO PUSH2 0x24E JUMPI PUSH1 0x0 DUP1 REVERT JUMPDEST DUP3 ADD DUP4 PUSH1 0x20 DUP3 ADD GT ISZERO PUSH2 0x260 JUMPI PUSH1 0x0 DUP1 REVERT JUMPDEST DUP1 CALLDATALOAD SWAP1 PUSH1 0x20 ADD SWAP2 DUP5 PUSH1 0x20 DUP4 MUL DUP5 ADD GT PUSH1 0x1 PUSH1 0x20 SHL DUP4 GT OR ISZERO PUSH2 0x281 JUMPI PUSH1 0x0 DUP1 REVERT JUMPDEST SWAP2 SWAP1 DUP1 DUP1 PUSH1 0x20 MUL PUSH1 0x20 ADD PUSH1 0x40 MLOAD SWAP1 DUP2 ADD PUSH1 0x40 MSTORE DUP1 SWAP4 SWAP3 SWAP2 SWAP1 DUP2 DUP2 MSTORE PUSH1 0x20 ADD DUP4 DUP4 PUSH1 0x20 MUL DUP1 DUP3 DUP5 CALLDATACOPY PUSH1 0x0 SWAP3 ADD SWAP2 SWAP1 SWAP2 MSTORE POP SWAP3 SWAP6 POP POP SWAP2 CALLDATALOAD SWAP3 POP PUSH2 0x2E9 SWAP2 POP POP JUMP JUMPDEST PUSH1 0x0 PUSH1 0x60 PUSH2 0x2D0 DUP7 DUP7 DUP7 PUSH2 0x349 JUMP JUMPDEST SWAP1 POP PUSH1 0x0 PUSH2 0x2DE DUP3 DUP6 PUSH2 0x4EA JUMP JUMPDEST SWAP8 SWAP7 POP POP POP POP POP POP POP JUMP JUMPDEST PUSH1 0x0 PUSH1 0x60 PUSH2 0x2F8 DUP7 DUP7 DUP7 PUSH2 0x349 JUMP JUMPDEST DUP1 MLOAD PUSH1 0x20 SWAP2 DUP3 ADD KECCAK256 PUSH1 0x40 DUP1 MLOAD PUSH1 0x1 PUSH1 0x1 PUSH1 0xF8 SHL SUB NOT DUP2 DUP6 ADD MSTORE ADDRESS PUSH1 0x60 SHL PUSH1 0x21 DUP3 ADD MSTORE PUSH1 0x35 DUP2 ADD DUP8 SWAP1 MSTORE PUSH1 0x55 DUP1 DUP3 ADD SWAP4 SWAP1 SWAP4 MSTORE DUP2 MLOAD DUP1 DUP3 SUB SWAP1 SWAP4 ADD DUP4 MSTORE PUSH1 0x75 ADD SWAP1 MSTORE DUP1 MLOAD SWAP2 ADD KECCAK256 SWAP2 POP POP SWAP5 SWAP4 POP POP POP POP JUMP JUMPDEST PUSH1 0x60 DUP1 PUSH1 0x40 MLOAD DUP1 PUSH1 0x20 ADD PUSH2 0x35C SWAP1 PUSH2 0x50B JUMP JUMPDEST PUSH1 0x20 DUP3 ADD DUP2 SUB DUP3 MSTORE PUSH1 0x1F NOT PUSH1 0x1F DUP3 ADD AND PUSH1 0x40 MSTORE POP SWAP1 POP DUP1 DUP6 DUP6 DUP6 PUSH1 0x40 MLOAD PUSH1 0x20 ADD DUP1 DUP5 PUSH1 0x1 PUSH1 0x1 PUSH1 0xA0 SHL SUB AND PUSH1 0x1 PUSH1 0x1 PUSH1 0xA0 SHL SUB AND DUP2 MSTORE PUSH1 0x20 ADD DUP1 PUSH1 0x20 ADD DUP1 PUSH1 0x20 ADD DUP4 DUP2 SUB DUP4 MSTORE DUP6 DUP2 DUP2 MLOAD DUP2 MSTORE PUSH1 0x20 ADD SWAP2 POP DUP1 MLOAD SWAP1 PUSH1 0x20 ADD SWAP1 PUSH1 0x20 MUL DUP1 DUP4 DUP4 PUSH1 0x0 JUMPDEST DUP4 DUP2 LT ISZERO PUSH2 0x3D5 JUMPI DUP2 DUP2 ADD MLOAD DUP4 DUP3 ADD MSTORE PUSH1 0x20 ADD PUSH2 0x3BD JUMP JUMPDEST POP POP POP POP SWAP1 POP ADD DUP4 DUP2 SUB DUP3 MSTORE DUP5 DUP2 DUP2 MLOAD DUP2 MSTORE PUSH1 0x20 ADD SWAP2 POP DUP1 MLOAD SWAP1 PUSH1 0x20 ADD SWAP1 PUSH1 0x20 MUL DUP1 DUP4 DUP4 PUSH1 0x0 JUMPDEST DUP4 DUP2 LT ISZERO PUSH2 0x414 JUMPI DUP2 DUP2 ADD MLOAD DUP4 DUP3 ADD MSTORE PUSH1 0x20 ADD PUSH2 0x3FC JUMP JUMPDEST POP POP POP POP SWAP1 POP ADD SWAP6 POP POP POP POP POP POP PUSH1 0x40 MLOAD PUSH1 0x20 DUP2 DUP4 SUB SUB DUP2 MSTORE SWAP1 PUSH1 0x40 MSTORE PUSH1 0x40 MLOAD PUSH1 0x20 ADD DUP1 DUP4 DUP1 MLOAD SWAP1 PUSH1 0x20 ADD SWAP1 DUP1 DUP4 DUP4 JUMPDEST PUSH1 0x20 DUP4 LT PUSH2 0x463 JUMPI DUP1 MLOAD DUP3 MSTORE PUSH1 0x1F NOT SWAP1 SWAP3 ADD SWAP2 PUSH1 0x20 SWAP2 DUP3 ADD SWAP2 ADD PUSH2 0x444 JUMP JUMPDEST MLOAD DUP2 MLOAD PUSH1 0x20 SWAP4 DUP5 SUB PUSH2 0x100 EXP PUSH1 0x0 NOT ADD DUP1 NOT SWAP1 SWAP3 AND SWAP2 AND OR SWAP1 MSTORE DUP6 MLOAD SWAP2 SWAP1 SWAP4 ADD SWAP3 DUP6 ADD SWAP2 POP DUP1 DUP4 DUP4 JUMPDEST PUSH1 0x20 DUP4 LT PUSH2 0x4AB JUMPI DUP1 MLOAD DUP3 MSTORE PUSH1 0x1F NOT SWAP1 SWAP3 ADD SWAP2 PUSH1 0x20 SWAP2 DUP3 ADD SWAP2 ADD PUSH2 0x48C JUMP JUMPDEST PUSH1 0x1 DUP4 PUSH1 0x20 SUB PUSH2 0x100 EXP SUB DUP1 NOT DUP3 MLOAD AND DUP2 DUP5 MLOAD AND DUP1 DUP3 OR DUP6 MSTORE POP POP POP POP POP POP SWAP1 POP ADD SWAP3 POP POP POP PUSH1 0x40 MLOAD PUSH1 0x20 DUP2 DUP4 SUB SUB DUP2 MSTORE SWAP1 PUSH1 0x40 MSTORE SWAP2 POP POP SWAP4 SWAP3 POP POP POP JUMP JUMPDEST PUSH1 0x0 DUP1 DUP3 DUP5 MLOAD PUSH1 0x20 DUP7 ADD PUSH1 0x0 CREATE2 SWAP1 POP DUP1 EXTCODESIZE PUSH2 0x504 JUMPI PUSH1 0x0 DUP1 REVERT JUMPDEST SWAP4 SWAP3 POP POP POP JUMP JUMPDEST PUSH2 0x2401 DUP1 PUSH2 0x519 DUP4 CODECOPY ADD SWAP1 JUMP INVALID PUSH1 0x80 PUSH1 0x40 MSTORE PUSH1 0x3 DUP1 SLOAD PUSH1 0xFF NOT AND SWAP1 SSTORE CALLVALUE DUP1 ISZERO PUSH3 0x1B JUMPI PUSH1 0x0 DUP1 REVERT JUMPDEST POP PUSH1 0x40 MLOAD PUSH3 0x2401 CODESIZE SUB DUP1 PUSH3 0x2401 DUP4 CODECOPY DUP2 ADD PUSH1 0x40 DUP2 SWAP1 MSTORE PUSH3 0x3E SWAP2 PUSH3 0x399 JUMP JUMPDEST PUSH3 0x59 PUSH4 0x1FFC9A7 PUSH1 0xE0 SHL PUSH1 0x1 PUSH1 0x1 PUSH1 0xE0 SHL SUB PUSH3 0xDA AND JUMP JUMPDEST PUSH3 0x74 PUSH4 0x3F32FFEF PUSH1 0xE2 SHL PUSH1 0x1 PUSH1 0x1 PUSH1 0xE0 SHL SUB PUSH3 0xDA AND JUMP JUMPDEST PUSH3 0x8F PUSH4 0x10765379 PUSH1 0xE0 SHL PUSH1 0x1 PUSH1 0x1 PUSH1 0xE0 SHL SUB PUSH3 0xDA AND JUMP JUMPDEST PUSH3 0xB9 PUSH3 0xA7 DUP5 PUSH1 0x1 PUSH1 0x1 PUSH1 0xE0 SHL SUB PUSH3 0x135 AND JUMP JUMPDEST PUSH1 0x1 DUP1 PUSH1 0x1 PUSH1 0x1 PUSH1 0xE0 SHL SUB PUSH3 0x167 AND JUMP JUMPDEST PUSH3 0xD0 DUP3 DUP3 PUSH1 0x1 PUSH1 0x1 PUSH1 0x1 PUSH1 0xE0 SHL SUB PUSH3 0x1BA AND JUMP JUMPDEST POP POP POP POP PUSH3 0x542 JUMP JUMPDEST PUSH1 0x1 PUSH1 0x1 PUSH1 0xE0 SHL SUB NOT DUP1 DUP3 AND EQ ISZERO PUSH3 0x110 JUMPI PUSH1 0x40 MLOAD PUSH3 0x461BCD PUSH1 0xE5 SHL DUP2 MSTORE PUSH1 0x4 ADD PUSH3 0x107 SWAP1 PUSH3 0x48A JUMP JUMPDEST PUSH1 0x40 MLOAD DUP1 SWAP2 SUB SWAP1 REVERT JUMPDEST PUSH1 0x1 PUSH1 0x1 PUSH1 0xE0 SHL SUB NOT AND PUSH1 0x0 SWAP1 DUP2 MSTORE PUSH1 0x4 PUSH1 0x20 MSTORE PUSH1 0x40 SWAP1 KECCAK256 DUP1 SLOAD PUSH1 0xFF NOT AND PUSH1 0x1 OR SWAP1 SSTORE JUMP JUMPDEST PUSH1 0x0 DUP2 PUSH1 0x40 MLOAD PUSH1 0x20 ADD PUSH3 0x14A SWAP2 SWAP1 PUSH3 0x473 JUMP JUMPDEST PUSH1 0x40 MLOAD PUSH1 0x20 DUP2 DUP4 SUB SUB DUP2 MSTORE SWAP1 PUSH1 0x40 MSTORE DUP1 MLOAD SWAP1 PUSH1 0x20 ADD KECCAK256 SWAP1 POP SWAP2 SWAP1 POP JUMP JUMPDEST PUSH3 0x186 DUP4 DUP4 DUP4 PUSH1 0x0 PUSH3 0x217 PUSH1 0x20 SHL PUSH3 0x1141 OR SWAP1 SWAP4 SWAP3 SWAP2 SWAP1 PUSH1 0x20 SHR JUMP JUMPDEST DUP1 DUP3 DUP5 PUSH32 0x480000BB1EDAD8CA1470381CC334B1917FBD51C6531F3A623EA8E0EC7E38A6E9 PUSH1 0x40 MLOAD PUSH1 0x40 MLOAD DUP1 SWAP2 SUB SWAP1 LOG4 POP POP POP JUMP JUMPDEST PUSH1 0x0 DUP1 JUMPDEST DUP5 MLOAD DUP2 LT ISZERO PUSH3 0x20C JUMPI PUSH3 0x203 DUP6 DUP3 DUP2 MLOAD DUP2 LT PUSH3 0x1D9 JUMPI INVALID JUMPDEST PUSH1 0x20 MUL PUSH1 0x20 ADD ADD MLOAD DUP6 DUP4 DUP2 MLOAD DUP2 LT PUSH3 0x1EE JUMPI INVALID JUMPDEST PUSH1 0x20 MUL PUSH1 0x20 ADD ADD MLOAD DUP6 PUSH3 0x167 PUSH1 0x20 SHL PUSH1 0x20 SHR JUMP JUMPDEST PUSH1 0x1 ADD PUSH3 0x1BE JUMP JUMPDEST POP PUSH1 0x1 SWAP5 SWAP4 POP POP POP POP JUMP JUMPDEST PUSH1 0x0 DUP4 DUP2 MSTORE PUSH1 0x20 DUP6 SWAP1 MSTORE PUSH1 0x40 SWAP1 KECCAK256 DUP3 DUP2 SSTORE PUSH1 0x2 DUP2 ADD SLOAD PUSH3 0x241 JUMPI PUSH1 0x2 DUP2 ADD DUP5 SWAP1 SSTORE PUSH1 0x1 DUP2 ADD DUP3 SWAP1 SSTORE JUMPDEST POP POP PUSH1 0x0 SWAP1 DUP2 MSTORE PUSH1 0x1 DUP1 DUP5 ADD PUSH1 0x20 SWAP1 DUP2 MSTORE PUSH1 0x40 DUP4 KECCAK256 DUP1 SLOAD DUP1 DUP5 ADD DUP3 SSTORE SWAP1 DUP5 MSTORE SWAP3 KECCAK256 SWAP1 SWAP2 ADD SWAP2 SWAP1 SWAP2 SSTORE PUSH1 0x2 SWAP1 SWAP2 ADD DUP1 SLOAD SWAP1 SWAP2 ADD SWAP1 SSTORE JUMP JUMPDEST DUP1 MLOAD PUSH3 0x284 DUP2 PUSH3 0x51D JUMP JUMPDEST SWAP3 SWAP2 POP POP JUMP JUMPDEST PUSH1 0x0 DUP3 PUSH1 0x1F DUP4 ADD SLT PUSH3 0x29C JUMPI PUSH1 0x0 DUP1 REVERT JUMPDEST DUP2 MLOAD PUSH3 0x2B3 PUSH3 0x2AD DUP3 PUSH3 0x4C3 JUMP JUMPDEST PUSH3 0x49C JUMP JUMPDEST SWAP2 POP DUP2 DUP2 DUP4 MSTORE PUSH1 0x20 DUP5 ADD SWAP4 POP PUSH1 0x20 DUP2 ADD SWAP1 POP DUP4 DUP6 PUSH1 0x20 DUP5 MUL DUP3 ADD GT ISZERO PUSH3 0x2D9 JUMPI PUSH1 0x0 DUP1 REVERT JUMPDEST PUSH1 0x0 JUMPDEST DUP4 DUP2 LT ISZERO PUSH3 0x309 JUMPI DUP2 PUSH3 0x2F2 DUP9 DUP3 PUSH3 0x38C JUMP JUMPDEST DUP5 MSTORE POP PUSH1 0x20 SWAP3 DUP4 ADD SWAP3 SWAP2 SWAP1 SWAP2 ADD SWAP1 PUSH1 0x1 ADD PUSH3 0x2DC JUMP JUMPDEST POP POP POP POP SWAP3 SWAP2 POP POP JUMP JUMPDEST PUSH1 0x0 DUP3 PUSH1 0x1F DUP4 ADD SLT PUSH3 0x325 JUMPI PUSH1 0x0 DUP1 REVERT JUMPDEST DUP2 MLOAD PUSH3 0x336 PUSH3 0x2AD DUP3 PUSH3 0x4C3 JUMP JUMPDEST SWAP2 POP DUP2 DUP2 DUP4 MSTORE PUSH1 0x20 DUP5 ADD SWAP4 POP PUSH1 0x20 DUP2 ADD SWAP1 POP DUP4 DUP6 PUSH1 0x20 DUP5 MUL DUP3 ADD GT ISZERO PUSH3 0x35C JUMPI PUSH1 0x0 DUP1 REVERT JUMPDEST PUSH1 0x0 JUMPDEST DUP4 DUP2 LT ISZERO PUSH3 0x309 JUMPI DUP2 PUSH3 0x375 DUP9 DUP3 PUSH3 0x38C JUMP JUMPDEST DUP5 MSTORE POP PUSH1 0x20 SWAP3 DUP4 ADD SWAP3 SWAP2 SWAP1 SWAP2 ADD SWAP1 PUSH1 0x1 ADD PUSH3 0x35F JUMP JUMPDEST DUP1 MLOAD PUSH3 0x284 DUP2 PUSH3 0x537 JUMP JUMPDEST PUSH1 0x0 DUP1 PUSH1 0x0 PUSH1 0x60 DUP5 DUP7 SUB SLT ISZERO PUSH3 0x3AF JUMPI PUSH1 0x0 DUP1 REVERT JUMPDEST PUSH1 0x0 PUSH3 0x3BD DUP7 DUP7 PUSH3 0x277 JUMP JUMPDEST SWAP4 POP POP PUSH1 0x20 DUP5 ADD MLOAD PUSH1 0x1 PUSH1 0x1 PUSH1 0x40 SHL SUB DUP2 GT ISZERO PUSH3 0x3DA JUMPI PUSH1 0x0 DUP1 REVERT JUMPDEST PUSH3 0x3E8 DUP7 DUP3 DUP8 ADD PUSH3 0x28A JUMP JUMPDEST SWAP3 POP POP PUSH1 0x40 DUP5 ADD MLOAD PUSH1 0x1 PUSH1 0x1 PUSH1 0x40 SHL SUB DUP2 GT ISZERO PUSH3 0x405 JUMPI PUSH1 0x0 DUP1 REVERT JUMPDEST PUSH3 0x413 DUP7 DUP3 DUP8 ADD PUSH3 0x313 JUMP JUMPDEST SWAP2 POP POP SWAP3 POP SWAP3 POP SWAP3 JUMP JUMPDEST PUSH3 0x432 PUSH3 0x42C DUP3 PUSH3 0x4ED JUMP JUMPDEST PUSH3 0x509 JUMP JUMPDEST DUP3 MSTORE POP POP JUMP JUMPDEST PUSH1 0x0 PUSH3 0x447 PUSH1 0x1C DUP4 PUSH3 0x4E4 JUMP JUMPDEST PUSH32 0x4552433136353A20696E76616C696420696E7465726661636520696400000000 DUP2 MSTORE PUSH1 0x20 ADD SWAP3 SWAP2 POP POP JUMP JUMPDEST PUSH1 0x0 PUSH3 0x481 DUP3 DUP5 PUSH3 0x41D JUMP JUMPDEST POP PUSH1 0x14 ADD SWAP2 SWAP1 POP JUMP JUMPDEST PUSH1 0x20 DUP1 DUP3 MSTORE DUP2 ADD PUSH3 0x284 DUP2 PUSH3 0x438 JUMP JUMPDEST PUSH1 0x40 MLOAD DUP2 DUP2 ADD PUSH1 0x1 PUSH1 0x1 PUSH1 0x40 SHL SUB DUP2 GT DUP3 DUP3 LT OR ISZERO PUSH3 0x4BB JUMPI PUSH1 0x0 DUP1 REVERT JUMPDEST PUSH1 0x40 MSTORE SWAP2 SWAP1 POP JUMP JUMPDEST PUSH1 0x0 PUSH1 0x1 PUSH1 0x1 PUSH1 0x40 SHL SUB DUP3 GT ISZERO PUSH3 0x4DA JUMPI PUSH1 0x0 DUP1 REVERT JUMPDEST POP PUSH1 0x20 SWAP1 DUP2 MUL ADD SWAP1 JUMP JUMPDEST SWAP1 DUP2 MSTORE PUSH1 0x20 ADD SWAP1 JUMP JUMPDEST PUSH1 0x0 PUSH3 0x284 DUP3 PUSH3 0x4FD JUMP JUMPDEST SWAP1 JUMP JUMPDEST PUSH1 0x1 PUSH1 0x1 PUSH1 0xA0 SHL SUB AND SWAP1 JUMP JUMPDEST PUSH1 0x0 PUSH3 0x284 DUP3 PUSH1 0x0 PUSH3 0x284 DUP3 PUSH1 0x60 SHL SWAP1 JUMP JUMPDEST PUSH3 0x528 DUP2 PUSH3 0x4ED JUMP JUMPDEST DUP2 EQ PUSH3 0x534 JUMPI PUSH1 0x0 DUP1 REVERT JUMPDEST POP JUMP JUMPDEST PUSH3 0x528 DUP2 PUSH3 0x4FA JUMP JUMPDEST PUSH2 0x1EAF DUP1 PUSH3 0x552 PUSH1 0x0 CODECOPY PUSH1 0x0 RETURN INVALID PUSH1 0x80 PUSH1 0x40 MSTORE CALLVALUE DUP1 ISZERO PUSH2 0x10 JUMPI PUSH1 0x0 DUP1 REVERT JUMPDEST POP PUSH1 0x4 CALLDATASIZE LT PUSH2 0x137 JUMPI PUSH1 0x0 CALLDATALOAD PUSH1 0xE0 SHR DUP1 PUSH4 0x8456CB59 GT PUSH2 0xB8 JUMPI DUP1 PUSH4 0xC9100BCB GT PUSH2 0x7C JUMPI DUP1 PUSH4 0xC9100BCB EQ PUSH2 0x286 JUMPI DUP1 PUSH4 0xC9D24ECC EQ PUSH2 0x2AB JUMPI DUP1 PUSH4 0xCDB7BBD6 EQ PUSH2 0x2B3 JUMPI DUP1 PUSH4 0xD202158D EQ PUSH2 0x2C6 JUMPI DUP1 PUSH4 0xE590CF18 EQ PUSH2 0x2D9 JUMPI DUP1 PUSH4 0xF76C9229 EQ PUSH2 0x2EC JUMPI PUSH2 0x137 JUMP JUMPDEST DUP1 PUSH4 0x8456CB59 EQ PUSH2 0x232 JUMPI DUP1 PUSH4 0x862642F5 EQ PUSH2 0x23A JUMPI DUP1 PUSH4 0x9010F726 EQ PUSH2 0x24D JUMPI DUP1 PUSH4 0xB1A34E0D EQ PUSH2 0x260 JUMPI DUP1 PUSH4 0xB61D27F6 EQ PUSH2 0x273 JUMPI PUSH2 0x137 JUMP JUMPDEST DUP1 PUSH4 0x4EEE424A GT PUSH2 0xFF JUMPI DUP1 PUSH4 0x4EEE424A EQ PUSH2 0x1C4 JUMPI DUP1 PUSH4 0x5C975ABB EQ PUSH2 0x1D7 JUMPI DUP1 PUSH4 0x63F14C3C EQ PUSH2 0x1DF JUMPI DUP1 PUSH4 0x6E4C4311 EQ PUSH2 0x1FF JUMPI DUP1 PUSH4 0x747442D3 EQ PUSH2 0x21F JUMPI PUSH2 0x137 JUMP JUMPDEST DUP1 PUSH4 0x1FFC9A7 EQ PUSH2 0x13C JUMPI DUP1 PUSH4 0x12AAAC70 EQ PUSH2 0x165 JUMPI DUP1 PUSH4 0x1D381240 EQ PUSH2 0x187 JUMPI DUP1 PUSH4 0x262B54F5 EQ PUSH2 0x19A JUMPI DUP1 PUSH4 0x3F4BA83A EQ PUSH2 0x1BA JUMPI JUMPDEST PUSH1 0x0 DUP1 REVERT JUMPDEST PUSH2 0x14F PUSH2 0x14A CALLDATASIZE PUSH1 0x4 PUSH2 0x16EB JUMP JUMPDEST PUSH2 0x310 JUMP JUMPDEST PUSH1 0x40 MLOAD PUSH2 0x15C SWAP2 SWAP1 PUSH2 0x1B83 JUMP JUMPDEST PUSH1 0x40 MLOAD DUP1 SWAP2 SUB SWAP1 RETURN JUMPDEST PUSH2 0x178 PUSH2 0x173 CALLDATASIZE PUSH1 0x4 PUSH2 0x1661 JUMP JUMPDEST PUSH2 0x32F JUMP JUMPDEST PUSH1 0x40 MLOAD PUSH2 0x15C SWAP4 SWAP3 SWAP2 SWAP1 PUSH2 0x1CFF JUMP JUMPDEST PUSH2 0x14F PUSH2 0x195 CALLDATASIZE PUSH1 0x4 PUSH2 0x16B9 JUMP JUMPDEST PUSH2 0x379 JUMP JUMPDEST PUSH2 0x1AD PUSH2 0x1A8 CALLDATASIZE PUSH1 0x4 PUSH2 0x1661 JUMP JUMPDEST PUSH2 0x41E JUMP JUMPDEST PUSH1 0x40 MLOAD PUSH2 0x15C SWAP2 SWAP1 PUSH2 0x1B72 JUMP JUMPDEST PUSH2 0x1C2 PUSH2 0x480 JUMP JUMPDEST STOP JUMPDEST PUSH2 0x14F PUSH2 0x1D2 CALLDATASIZE PUSH1 0x4 PUSH2 0x1661 JUMP JUMPDEST PUSH2 0x4C4 JUMP JUMPDEST PUSH2 0x14F PUSH2 0x5E1 JUMP JUMPDEST PUSH2 0x1F2 PUSH2 0x1ED CALLDATASIZE PUSH1 0x4 PUSH2 0x14DA JUMP JUMPDEST PUSH2 0x5EA JUMP JUMPDEST PUSH1 0x40 MLOAD PUSH2 0x15C SWAP2 SWAP1 PUSH2 0x1B91 JUMP JUMPDEST PUSH2 0x212 PUSH2 0x20D CALLDATASIZE PUSH1 0x4 PUSH2 0x167F JUMP JUMPDEST PUSH2 0x61A JUMP JUMPDEST PUSH1 0x40 MLOAD PUSH2 0x15C SWAP2 SWAP1 PUSH2 0x1B00 JUMP JUMPDEST PUSH2 0x14F PUSH2 0x22D CALLDATASIZE PUSH1 0x4 PUSH2 0x1709 JUMP JUMPDEST PUSH2 0x64F JUMP JUMPDEST PUSH2 0x1C2 PUSH2 0x876 JUMP JUMPDEST PUSH2 0x14F PUSH2 0x248 CALLDATASIZE PUSH1 0x4 PUSH2 0x1661 JUMP JUMPDEST PUSH2 0x8BE JUMP JUMPDEST PUSH2 0x1AD PUSH2 0x25B CALLDATASIZE PUSH1 0x4 PUSH2 0x1661 JUMP JUMPDEST PUSH2 0x97E JUMP JUMPDEST PUSH2 0x1F2 PUSH2 0x26E CALLDATASIZE PUSH1 0x4 PUSH2 0x1739 JUMP JUMPDEST PUSH2 0x9DE JUMP JUMPDEST PUSH2 0x1F2 PUSH2 0x281 CALLDATASIZE PUSH1 0x4 PUSH2 0x1500 JUMP JUMPDEST PUSH2 0xB7A JUMP JUMPDEST PUSH2 0x299 PUSH2 0x294 CALLDATASIZE PUSH1 0x4 PUSH2 0x1661 JUMP JUMPDEST PUSH2 0xCA5 JUMP JUMPDEST PUSH1 0x40 MLOAD PUSH2 0x15C SWAP7 SWAP6 SWAP5 SWAP4 SWAP3 SWAP2 SWAP1 PUSH2 0x1C91 JUMP JUMPDEST PUSH2 0x1F2 PUSH2 0xEA4 JUMP JUMPDEST PUSH2 0x14F PUSH2 0x2C1 CALLDATASIZE PUSH1 0x4 PUSH2 0x15EF JUMP JUMPDEST PUSH2 0xEAB JUMP JUMPDEST PUSH2 0x14F PUSH2 0x2D4 CALLDATASIZE PUSH1 0x4 PUSH2 0x167F JUMP JUMPDEST PUSH2 0xEFC JUMP JUMPDEST PUSH2 0x1C2 PUSH2 0x2E7 CALLDATASIZE PUSH1 0x4 PUSH2 0x1565 JUMP JUMPDEST PUSH2 0xF42 JUMP JUMPDEST PUSH2 0x2FF PUSH2 0x2FA CALLDATASIZE PUSH1 0x4 PUSH2 0x1661 JUMP JUMPDEST PUSH2 0xFA1 JUMP JUMPDEST PUSH1 0x40 MLOAD PUSH2 0x15C SWAP6 SWAP5 SWAP4 SWAP3 SWAP2 SWAP1 PUSH2 0x1B29 JUMP JUMPDEST PUSH1 0x1 PUSH1 0x1 PUSH1 0xE0 SHL SUB NOT AND PUSH1 0x0 SWAP1 DUP2 MSTORE PUSH1 0x4 PUSH1 0x20 MSTORE PUSH1 0x40 SWAP1 KECCAK256 SLOAD PUSH1 0xFF AND SWAP1 JUMP JUMPDEST PUSH1 0x0 DUP1 PUSH1 0x0 PUSH2 0x33C PUSH2 0x11A0 JUMP JUMPDEST POP POP POP PUSH1 0x0 SWAP2 DUP3 MSTORE POP PUSH1 0x20 DUP2 DUP2 MSTORE PUSH1 0x40 SWAP2 DUP3 SWAP1 KECCAK256 DUP3 MLOAD PUSH1 0x60 DUP2 ADD DUP5 MSTORE DUP2 SLOAD DUP1 DUP3 MSTORE PUSH1 0x1 DUP4 ADD SLOAD SWAP4 DUP3 ADD DUP5 SWAP1 MSTORE PUSH1 0x2 SWAP1 SWAP3 ADD SLOAD SWAP4 ADD DUP4 SWAP1 MSTORE SWAP3 SWAP1 SWAP2 SWAP1 JUMP JUMPDEST PUSH1 0x3 SLOAD PUSH1 0x0 SWAP1 PUSH1 0xFF AND ISZERO PUSH2 0x38C JUMPI PUSH1 0x0 DUP1 REVERT JUMPDEST PUSH2 0x39E PUSH1 0x0 DUP6 DUP6 PUSH4 0xFFFFFFFF PUSH2 0x1069 AND JUMP JUMPDEST ISZERO PUSH2 0x3AB JUMPI POP PUSH1 0x0 PUSH2 0x417 JUMP JUMPDEST CALLER ADDRESS EQ PUSH2 0x408 JUMPI PUSH2 0x3E3 CALLER PUSH1 0x40 MLOAD PUSH1 0x20 ADD PUSH2 0x3C6 SWAP2 SWAP1 PUSH2 0x1B00 JUMP JUMPDEST PUSH1 0x40 MLOAD PUSH1 0x20 DUP2 DUP4 SUB SUB DUP2 MSTORE SWAP1 PUSH1 0x40 MSTORE DUP1 MLOAD SWAP1 PUSH1 0x20 ADD KECCAK256 PUSH1 0x1 PUSH2 0xEFC JUMP JUMPDEST PUSH2 0x408 JUMPI PUSH1 0x40 MLOAD PUSH3 0x461BCD PUSH1 0xE5 SHL DUP2 MSTORE PUSH1 0x4 ADD PUSH2 0x3FF SWAP1 PUSH2 0x1BF1 JUMP JUMPDEST PUSH1 0x40 MLOAD DUP1 SWAP2 SUB SWAP1 REVERT JUMPDEST PUSH2 0x413 DUP5 DUP5 DUP5 PUSH2 0x10D2 JUMP JUMPDEST POP PUSH1 0x1 JUMPDEST SWAP4 SWAP3 POP POP POP JUMP JUMPDEST PUSH1 0x0 DUP2 DUP2 MSTORE PUSH1 0x9 PUSH1 0x20 SWAP1 DUP2 MSTORE PUSH1 0x40 SWAP2 DUP3 SWAP1 KECCAK256 DUP1 SLOAD DUP4 MLOAD DUP2 DUP5 MUL DUP2 ADD DUP5 ADD SWAP1 SWAP5 MSTORE DUP1 DUP5 MSTORE PUSH1 0x60 SWAP4 SWAP3 DUP4 ADD DUP3 DUP3 DUP1 ISZERO PUSH2 0x474 JUMPI PUSH1 0x20 MUL DUP3 ADD SWAP2 SWAP1 PUSH1 0x0 MSTORE PUSH1 0x20 PUSH1 0x0 KECCAK256 SWAP1 JUMPDEST DUP2 SLOAD DUP2 MSTORE PUSH1 0x20 ADD SWAP1 PUSH1 0x1 ADD SWAP1 DUP1 DUP4 GT PUSH2 0x460 JUMPI JUMPDEST POP POP POP POP POP SWAP1 POP SWAP2 SWAP1 POP JUMP JUMPDEST PUSH1 0x3 SLOAD PUSH1 0xFF AND PUSH2 0x48F JUMPI PUSH1 0x0 DUP1 REVERT JUMPDEST PUSH1 0x3 DUP1 SLOAD PUSH1 0xFF NOT AND SWAP1 SSTORE PUSH1 0x40 MLOAD PUSH32 0x730C1FAAA977B67DACF1E2451EF54556E04A07D577785FF79F6D31F73502EFC9 SWAP1 PUSH1 0x0 SWAP1 LOG1 JUMP JUMPDEST PUSH1 0x0 CALLER ADDRESS EQ PUSH2 0x51A JUMPI PUSH2 0x4FE CALLER PUSH1 0x40 MLOAD PUSH1 0x20 ADD PUSH2 0x4E1 SWAP2 SWAP1 PUSH2 0x1B00 JUMP JUMPDEST PUSH1 0x40 MLOAD PUSH1 0x20 DUP2 DUP4 SUB SUB DUP2 MSTORE SWAP1 PUSH1 0x40 MSTORE DUP1 MLOAD SWAP1 PUSH1 0x20 ADD KECCAK256 PUSH1 0x3 PUSH2 0xEFC JUMP JUMPDEST PUSH2 0x51A JUMPI PUSH1 0x40 MLOAD PUSH3 0x461BCD PUSH1 0xE5 SHL DUP2 MSTORE PUSH1 0x4 ADD PUSH2 0x3FF SWAP1 PUSH2 0x1BD1 JUMP JUMPDEST PUSH1 0x0 DUP3 DUP2 MSTORE PUSH1 0x8 PUSH1 0x20 MSTORE PUSH1 0x40 SWAP1 DUP2 SWAP1 KECCAK256 PUSH1 0x2 DUP2 ADD SLOAD DUP2 SLOAD PUSH1 0x1 DUP4 ADD SLOAD SWAP4 MLOAD PUSH1 0x1 PUSH1 0x1 PUSH1 0xA0 SHL SUB SWAP1 SWAP3 AND SWAP4 SWAP1 SWAP3 DUP7 SWAP3 PUSH32 0x3CF57863A89432C61C4A27073C6EE39E8A764BFF5A05AEBFBCDCDC80B2E6130A SWAP3 PUSH2 0x585 SWAP3 SWAP1 SWAP2 PUSH1 0x3 DUP3 ADD SWAP2 PUSH1 0x4 DUP2 ADD SWAP2 PUSH1 0x5 SWAP1 SWAP2 ADD SWAP1 PUSH2 0x1C49 JUMP JUMPDEST PUSH1 0x40 MLOAD DUP1 SWAP2 SUB SWAP1 LOG4 PUSH1 0x0 DUP3 DUP2 MSTORE PUSH1 0x8 PUSH1 0x20 MSTORE PUSH1 0x40 DUP2 KECCAK256 DUP2 DUP2 SSTORE PUSH1 0x1 DUP2 ADD DUP3 SWAP1 SSTORE PUSH1 0x2 DUP2 ADD DUP1 SLOAD PUSH1 0x1 PUSH1 0x1 PUSH1 0xA0 SHL SUB NOT AND SWAP1 SSTORE SWAP1 PUSH2 0x5C5 PUSH1 0x3 DUP4 ADD DUP3 PUSH2 0x11C4 JUMP JUMPDEST PUSH2 0x5D3 PUSH1 0x4 DUP4 ADD PUSH1 0x0 PUSH2 0x11C4 JUMP JUMPDEST PUSH2 0x413 PUSH1 0x5 DUP4 ADD PUSH1 0x0 PUSH2 0x11C4 JUMP JUMPDEST PUSH1 0x3 SLOAD PUSH1 0xFF AND DUP2 JUMP JUMPDEST PUSH1 0x0 DUP2 PUSH1 0x40 MLOAD PUSH1 0x20 ADD PUSH2 0x5FD SWAP2 SWAP1 PUSH2 0x1ADF JUMP JUMPDEST PUSH1 0x40 MLOAD PUSH1 0x20 DUP2 DUP4 SUB SUB DUP2 MSTORE SWAP1 PUSH1 0x40 MSTORE DUP1 MLOAD SWAP1 PUSH1 0x20 ADD KECCAK256 SWAP1 POP SWAP2 SWAP1 POP JUMP JUMPDEST PUSH1 0x7 PUSH1 0x20 MSTORE DUP2 PUSH1 0x0 MSTORE PUSH1 0x40 PUSH1 0x0 KECCAK256 DUP2 DUP2 SLOAD DUP2 LT PUSH2 0x633 JUMPI INVALID JUMPDEST PUSH1 0x0 SWAP2 DUP3 MSTORE PUSH1 0x20 SWAP1 SWAP2 KECCAK256 ADD SLOAD PUSH1 0x1 PUSH1 0x1 PUSH1 0xA0 SHL SUB AND SWAP2 POP DUP3 SWAP1 POP JUMP JUMPDEST PUSH1 0x0 PUSH2 0x682 CALLER PUSH1 0x40 MLOAD PUSH1 0x20 ADD PUSH2 0x665 SWAP2 SWAP1 PUSH2 0x1B00 JUMP JUMPDEST PUSH1 0x40 MLOAD PUSH1 0x20 DUP2 DUP4 SUB SUB DUP2 MSTORE SWAP1 PUSH1 0x40 MSTORE DUP1 MLOAD SWAP1 PUSH1 0x20 ADD KECCAK256 PUSH1 0x2 PUSH2 0xEFC JUMP JUMPDEST PUSH2 0x69E JUMPI PUSH1 0x40 MLOAD PUSH3 0x461BCD PUSH1 0xE5 SHL DUP2 MSTORE PUSH1 0x4 ADD PUSH2 0x3FF SWAP1 PUSH2 0x1BC1 JUMP JUMPDEST DUP3 PUSH32 0xB3932DA477FE5D6C8FF2EAFEF050C0F3A1AF18FC07121001482600F36F3715D8 DUP4 PUSH1 0x40 MLOAD PUSH2 0x6CE SWAP2 SWAP1 PUSH2 0x1B83 JUMP JUMPDEST PUSH1 0x40 MLOAD DUP1 SWAP2 SUB SWAP1 LOG2 PUSH1 0x60 PUSH1 0x1 DUP4 ISZERO ISZERO EQ ISZERO PUSH2 0x852 JUMPI PUSH1 0x0 DUP5 DUP2 MSTORE PUSH1 0x6 PUSH1 0x20 MSTORE PUSH1 0x40 SWAP1 DUP2 SWAP1 KECCAK256 PUSH1 0x3 DUP2 ADD DUP1 SLOAD PUSH1 0xFF NOT AND PUSH1 0x1 OR SWAP1 SSTORE DUP1 SLOAD SWAP2 MLOAD PUSH1 0x1 PUSH1 0x1 PUSH1 0xA0 SHL SUB SWAP1 SWAP3 AND SWAP2 PUSH2 0x71F SWAP2 PUSH1 0x2 ADD SWAP1 PUSH2 0x1AF4 JUMP JUMPDEST PUSH1 0x0 PUSH1 0x40 MLOAD DUP1 DUP4 SUB DUP2 PUSH1 0x0 DUP7 GAS CALL SWAP2 POP POP RETURNDATASIZE DUP1 PUSH1 0x0 DUP2 EQ PUSH2 0x75C JUMPI PUSH1 0x40 MLOAD SWAP2 POP PUSH1 0x1F NOT PUSH1 0x3F RETURNDATASIZE ADD AND DUP3 ADD PUSH1 0x40 MSTORE RETURNDATASIZE DUP3 MSTORE RETURNDATASIZE PUSH1 0x0 PUSH1 0x20 DUP5 ADD RETURNDATACOPY PUSH2 0x761 JUMP JUMPDEST PUSH1 0x60 SWAP2 POP JUMPDEST POP SWAP1 SWAP3 POP SWAP1 POP DUP2 ISZERO PUSH2 0x7E8 JUMPI PUSH1 0x0 DUP5 DUP2 MSTORE PUSH1 0x6 PUSH1 0x20 MSTORE PUSH1 0x40 SWAP1 DUP2 SWAP1 KECCAK256 PUSH1 0x3 DUP2 ADD DUP1 SLOAD PUSH2 0xFF00 NOT AND PUSH2 0x100 OR SWAP1 SSTORE PUSH1 0x1 DUP2 ADD SLOAD DUP2 SLOAD SWAP3 MLOAD SWAP1 SWAP3 PUSH1 0x1 PUSH1 0x1 PUSH1 0xA0 SHL SUB AND SWAP2 DUP8 SWAP2 PUSH32 0x1F920DBDA597D7BF95035464170FA58D0A4B57F13A1C315ACE6793B9F63688B8 SWAP2 PUSH2 0x7D6 SWAP2 PUSH1 0x2 SWAP1 SWAP2 ADD SWAP1 PUSH2 0x1BB0 JUMP JUMPDEST PUSH1 0x40 MLOAD DUP1 SWAP2 SUB SWAP1 LOG4 PUSH1 0x1 SWAP2 POP POP PUSH2 0x870 JUMP JUMPDEST PUSH1 0x0 DUP5 DUP2 MSTORE PUSH1 0x6 PUSH1 0x20 MSTORE PUSH1 0x40 SWAP1 DUP2 SWAP1 KECCAK256 PUSH1 0x1 DUP2 ADD SLOAD DUP2 SLOAD SWAP3 MLOAD SWAP1 SWAP3 PUSH1 0x1 PUSH1 0x1 PUSH1 0xA0 SHL SUB AND SWAP2 DUP8 SWAP2 PUSH32 0xE10C49D9F7C71DA23262367013434763CFDB2332267641728D25CD712C5C6A68 SWAP2 PUSH2 0x840 SWAP2 PUSH1 0x2 SWAP1 SWAP2 ADD SWAP1 PUSH2 0x1BB0 JUMP JUMPDEST PUSH1 0x40 MLOAD DUP1 SWAP2 SUB SWAP1 LOG4 PUSH1 0x0 SWAP2 POP POP PUSH2 0x870 JUMP JUMPDEST POP POP PUSH1 0x0 DUP3 DUP2 MSTORE PUSH1 0x6 PUSH1 0x20 MSTORE PUSH1 0x40 SWAP1 KECCAK256 PUSH1 0x3 ADD DUP1 SLOAD PUSH1 0xFF NOT AND SWAP1 SSTORE PUSH1 0x1 JUMPDEST SWAP3 SWAP2 POP POP JUMP JUMPDEST PUSH1 0x3 SLOAD PUSH1 0xFF AND ISZERO PUSH2 0x886 JUMPI PUSH1 0x0 DUP1 REVERT JUMPDEST PUSH1 0x3 DUP1 SLOAD PUSH1 0xFF NOT AND PUSH1 0x1 OR SWAP1 SSTORE PUSH1 0x40 MLOAD PUSH32 0x4B314B34E912FDA7F95E7D23E9C8C95F82F0AFF1984E4CE592A0B005F9055624 SWAP1 PUSH1 0x0 SWAP1 LOG1 JUMP JUMPDEST PUSH1 0x3 SLOAD PUSH1 0x0 SWAP1 PUSH1 0xFF AND ISZERO PUSH2 0x8D1 JUMPI PUSH1 0x0 DUP1 REVERT JUMPDEST CALLER ADDRESS EQ PUSH2 0x908 JUMPI PUSH2 0x8EC CALLER PUSH1 0x40 MLOAD PUSH1 0x20 ADD PUSH2 0x3C6 SWAP2 SWAP1 PUSH2 0x1B00 JUMP JUMPDEST PUSH2 0x908 JUMPI PUSH1 0x40 MLOAD PUSH3 0x461BCD PUSH1 0xE5 SHL DUP2 MSTORE PUSH1 0x4 ADD PUSH2 0x3FF SWAP1 PUSH2 0x1BF1 JUMP JUMPDEST PUSH2 0x910 PUSH2 0x11A0 JUMP JUMPDEST POP PUSH1 0x0 DUP3 DUP2 MSTORE PUSH1 0x20 DUP2 DUP2 MSTORE PUSH1 0x40 DUP1 DUP4 KECCAK256 DUP2 MLOAD PUSH1 0x60 DUP2 ADD DUP4 MSTORE DUP2 SLOAD DUP1 DUP3 MSTORE PUSH1 0x1 DUP4 ADD SLOAD SWAP5 DUP3 ADD DUP6 SWAP1 MSTORE PUSH1 0x2 SWAP1 SWAP3 ADD SLOAD DUP2 DUP5 ADD MSTORE SWAP2 MLOAD SWAP2 SWAP4 SWAP1 SWAP2 DUP7 SWAP2 PUSH32 0x585A4AEF50F8267A92B32412B331B20F7F8B96F2245B253B9CC50DCC621D3397 SWAP2 LOG4 PUSH2 0x413 PUSH1 0x0 DUP5 PUSH4 0xFFFFFFFF PUSH2 0x1119 AND JUMP JUMPDEST PUSH1 0x0 DUP2 DUP2 MSTORE PUSH1 0x1 PUSH1 0x20 SWAP1 DUP2 MSTORE PUSH1 0x40 SWAP2 DUP3 SWAP1 KECCAK256 DUP1 SLOAD DUP4 MLOAD DUP2 DUP5 MUL DUP2 ADD DUP5 ADD SWAP1 SWAP5 MSTORE DUP1 DUP5 MSTORE PUSH1 0x60 SWAP4 SWAP3 DUP4 ADD DUP3 DUP3 DUP1 ISZERO PUSH2 0x474 JUMPI PUSH1 0x20 MUL DUP3 ADD SWAP2 SWAP1 PUSH1 0x0 MSTORE PUSH1 0x20 PUSH1 0x0 KECCAK256 SWAP1 DUP2 SLOAD DUP2 MSTORE PUSH1 0x20 ADD SWAP1 PUSH1 0x1 ADD SWAP1 DUP1 DUP4 GT PUSH2 0x460 JUMPI POP POP POP POP POP SWAP1 POP SWAP2 SWAP1 POP JUMP JUMPDEST PUSH1 0x0 DUP1 DUP6 DUP9 PUSH1 0x40 MLOAD PUSH1 0x20 ADD PUSH2 0x9F4 SWAP3 SWAP2 SWAP1 PUSH2 0x1B0E JUMP JUMPDEST PUSH1 0x40 DUP1 MLOAD PUSH1 0x1F NOT DUP2 DUP5 SUB ADD DUP2 MSTORE SWAP2 SWAP1 MSTORE DUP1 MLOAD PUSH1 0x20 SWAP1 SWAP2 ADD KECCAK256 SWAP1 POP CALLER ADDRESS EQ PUSH2 0xA45 JUMPI PUSH2 0xA29 CALLER PUSH1 0x40 MLOAD PUSH1 0x20 ADD PUSH2 0x4E1 SWAP2 SWAP1 PUSH2 0x1B00 JUMP JUMPDEST PUSH2 0xA45 JUMPI PUSH1 0x40 MLOAD PUSH3 0x461BCD PUSH1 0xE5 SHL DUP2 MSTORE PUSH1 0x4 ADD PUSH2 0x3FF SWAP1 PUSH2 0x1BD1 JUMP JUMPDEST PUSH1 0x0 DUP2 DUP2 MSTORE PUSH1 0x8 PUSH1 0x20 MSTORE PUSH1 0x40 SWAP1 KECCAK256 PUSH1 0x2 ADD SLOAD PUSH1 0x1 PUSH1 0x1 PUSH1 0xA0 SHL SUB DUP8 DUP2 AND SWAP2 AND EQ PUSH2 0xA8B JUMPI PUSH1 0x0 DUP9 DUP2 MSTORE PUSH1 0x9 PUSH1 0x20 SWAP1 DUP2 MSTORE PUSH1 0x40 DUP3 KECCAK256 DUP1 SLOAD PUSH1 0x1 DUP2 ADD DUP3 SSTORE SWAP1 DUP4 MSTORE SWAP2 KECCAK256 ADD DUP2 SWAP1 SSTORE JUMPDEST PUSH1 0x0 DUP2 DUP2 MSTORE PUSH1 0x8 PUSH1 0x20 SWAP1 DUP2 MSTORE PUSH1 0x40 SWAP1 SWAP2 KECCAK256 DUP10 DUP2 SSTORE PUSH1 0x1 DUP2 ADD DUP10 SWAP1 SSTORE PUSH1 0x2 DUP2 ADD DUP1 SLOAD PUSH1 0x1 PUSH1 0x1 PUSH1 0xA0 SHL SUB NOT AND PUSH1 0x1 PUSH1 0x1 PUSH1 0xA0 SHL SUB DUP11 AND OR SWAP1 SSTORE DUP7 MLOAD PUSH2 0xAD7 SWAP3 PUSH1 0x3 SWAP1 SWAP3 ADD SWAP2 DUP9 ADD SWAP1 PUSH2 0x120B JUMP JUMPDEST POP PUSH1 0x0 DUP2 DUP2 MSTORE PUSH1 0x8 PUSH1 0x20 SWAP1 DUP2 MSTORE PUSH1 0x40 SWAP1 SWAP2 KECCAK256 DUP6 MLOAD PUSH2 0xAFD SWAP3 PUSH1 0x4 SWAP1 SWAP3 ADD SWAP2 DUP8 ADD SWAP1 PUSH2 0x120B JUMP JUMPDEST POP PUSH1 0x0 DUP2 DUP2 MSTORE PUSH1 0x8 PUSH1 0x20 SWAP1 DUP2 MSTORE PUSH1 0x40 SWAP1 SWAP2 KECCAK256 DUP5 MLOAD PUSH2 0xB23 SWAP3 PUSH1 0x5 SWAP1 SWAP3 ADD SWAP2 DUP7 ADD SWAP1 PUSH2 0x120B JUMP JUMPDEST POP DUP6 PUSH1 0x1 PUSH1 0x1 PUSH1 0xA0 SHL SUB AND DUP9 DUP3 PUSH32 0x46149B18AA084502C3F12BC75E19EDA8BDA8D102B82CCE8474677A6D0D5F43C5 DUP11 DUP10 DUP10 DUP10 PUSH1 0x40 MLOAD PUSH2 0xB65 SWAP5 SWAP4 SWAP3 SWAP2 SWAP1 PUSH2 0x1C01 JUMP JUMPDEST PUSH1 0x40 MLOAD DUP1 SWAP2 SUB SWAP1 LOG4 SWAP1 POP JUMPDEST SWAP7 SWAP6 POP POP POP POP POP POP JUMP JUMPDEST PUSH1 0x5 SLOAD PUSH1 0x0 SWAP1 DUP2 MSTORE PUSH1 0x6 PUSH1 0x20 MSTORE PUSH1 0x40 DUP2 KECCAK256 PUSH1 0x3 ADD SLOAD PUSH2 0x100 SWAP1 DIV PUSH1 0xFF AND ISZERO PUSH2 0xBB4 JUMPI PUSH1 0x40 MLOAD PUSH3 0x461BCD PUSH1 0xE5 SHL DUP2 MSTORE PUSH1 0x4 ADD PUSH2 0x3FF SWAP1 PUSH2 0x1BE1 JUMP JUMPDEST PUSH1 0x5 DUP1 SLOAD PUSH1 0x0 SWAP1 DUP2 MSTORE PUSH1 0x6 PUSH1 0x20 SWAP1 DUP2 MSTORE PUSH1 0x40 DUP1 DUP4 KECCAK256 DUP1 SLOAD PUSH1 0x1 PUSH1 0x1 PUSH1 0xA0 SHL SUB NOT AND PUSH1 0x1 PUSH1 0x1 PUSH1 0xA0 SHL SUB DUP11 AND OR SWAP1 SSTORE DUP4 SLOAD DUP4 MSTORE DUP1 DUP4 KECCAK256 PUSH1 0x1 ADD DUP8 SWAP1 SSTORE SWAP3 SLOAD DUP3 MSTORE SWAP2 SWAP1 KECCAK256 DUP4 MLOAD PUSH2 0xC0A SWAP3 PUSH1 0x2 SWAP1 SWAP3 ADD SWAP2 DUP6 ADD SWAP1 PUSH2 0x120B JUMP JUMPDEST POP DUP3 DUP5 PUSH1 0x1 PUSH1 0x1 PUSH1 0xA0 SHL SUB AND PUSH1 0x5 SLOAD PUSH32 0x8AFCFABCB00E47A53A8FC3E9F23FF47EE1926194BB1350DD007C50B412A6CEE8 DUP6 PUSH1 0x40 MLOAD PUSH2 0xC48 SWAP2 SWAP1 PUSH2 0x1B9F JUMP JUMPDEST PUSH1 0x40 MLOAD DUP1 SWAP2 SUB SWAP1 LOG4 PUSH2 0xC64 CALLER PUSH1 0x40 MLOAD PUSH1 0x20 ADD PUSH2 0x3C6 SWAP2 SWAP1 PUSH2 0x1B00 JUMP JUMPDEST DUP1 PUSH2 0xC7E JUMPI POP PUSH2 0xC7E CALLER PUSH1 0x40 MLOAD PUSH1 0x20 ADD PUSH2 0x665 SWAP2 SWAP1 PUSH2 0x1B00 JUMP JUMPDEST ISZERO PUSH2 0xC92 JUMPI PUSH2 0xC90 PUSH1 0x5 SLOAD PUSH1 0x1 PUSH2 0x64F JUMP JUMPDEST POP JUMPDEST POP PUSH1 0x5 DUP1 SLOAD PUSH1 0x1 DUP2 ADD SWAP1 SWAP2 SSTORE SWAP4 SWAP3 POP POP POP JUMP JUMPDEST PUSH1 0x0 DUP2 DUP2 MSTORE PUSH1 0x8 PUSH1 0x20 SWAP1 DUP2 MSTORE PUSH1 0x40 DUP1 DUP4 KECCAK256 DUP1 SLOAD PUSH1 0x1 DUP1 DUP4 ADD SLOAD PUSH1 0x2 DUP1 DUP6 ADD SLOAD PUSH1 0x3 DUP7 ADD DUP1 SLOAD DUP9 MLOAD PUSH2 0x100 SWAP7 DUP3 AND ISZERO SWAP7 SWAP1 SWAP7 MUL PUSH1 0x0 NOT ADD AND SWAP3 SWAP1 SWAP3 DIV PUSH1 0x1F DUP2 ADD DUP10 SWAP1 DIV DUP10 MUL DUP6 ADD DUP10 ADD SWAP1 SWAP8 MSTORE DUP7 DUP5 MSTORE DUP9 SWAP8 DUP9 SWAP8 PUSH1 0x60 SWAP8 DUP9 SWAP8 DUP9 SWAP8 SWAP1 SWAP7 SWAP6 PUSH1 0x1 PUSH1 0x1 PUSH1 0xA0 SHL SUB SWAP1 SWAP6 AND SWAP5 SWAP4 PUSH1 0x4 DUP4 ADD SWAP4 PUSH1 0x5 SWAP1 SWAP4 ADD SWAP3 DUP6 SWAP2 DUP4 ADD DUP3 DUP3 DUP1 ISZERO PUSH2 0xD6C JUMPI DUP1 PUSH1 0x1F LT PUSH2 0xD41 JUMPI PUSH2 0x100 DUP1 DUP4 SLOAD DIV MUL DUP4 MSTORE SWAP2 PUSH1 0x20 ADD SWAP2 PUSH2 0xD6C JUMP JUMPDEST DUP3 ADD SWAP2 SWAP1 PUSH1 0x0 MSTORE PUSH1 0x20 PUSH1 0x0 KECCAK256 SWAP1 JUMPDEST DUP2 SLOAD DUP2 MSTORE SWAP1 PUSH1 0x1 ADD SWAP1 PUSH1 0x20 ADD DUP1 DUP4 GT PUSH2 0xD4F JUMPI DUP3 SWAP1 SUB PUSH1 0x1F AND DUP3 ADD SWAP2 JUMPDEST POP POP DUP6 SLOAD PUSH1 0x40 DUP1 MLOAD PUSH1 0x20 PUSH1 0x2 PUSH1 0x1 DUP6 AND ISZERO PUSH2 0x100 MUL PUSH1 0x0 NOT ADD SWAP1 SWAP5 AND SWAP4 SWAP1 SWAP4 DIV PUSH1 0x1F DUP2 ADD DUP5 SWAP1 DIV DUP5 MUL DUP3 ADD DUP5 ADD SWAP1 SWAP3 MSTORE DUP2 DUP2 MSTORE SWAP6 SWAP9 POP DUP8 SWAP5 POP SWAP3 POP DUP5 ADD SWAP1 POP DUP3 DUP3 DUP1 ISZERO PUSH2 0xDFA JUMPI DUP1 PUSH1 0x1F LT PUSH2 0xDCF JUMPI PUSH2 0x100 DUP1 DUP4 SLOAD DIV MUL DUP4 MSTORE SWAP2 PUSH1 0x20 ADD SWAP2 PUSH2 0xDFA JUMP JUMPDEST DUP3 ADD SWAP2 SWAP1 PUSH1 0x0 MSTORE PUSH1 0x20 PUSH1 0x0 KECCAK256 SWAP1 JUMPDEST DUP2 SLOAD DUP2 MSTORE SWAP1 PUSH1 0x1 ADD SWAP1 PUSH1 0x20 ADD DUP1 DUP4 GT PUSH2 0xDDD JUMPI DUP3 SWAP1 SUB PUSH1 0x1F AND DUP3 ADD SWAP2 JUMPDEST POP POP DUP5 SLOAD PUSH1 0x40 DUP1 MLOAD PUSH1 0x20 PUSH1 0x2 PUSH1 0x1 DUP6 AND ISZERO PUSH2 0x100 MUL PUSH1 0x0 NOT ADD SWAP1 SWAP5 AND SWAP4 SWAP1 SWAP4 DIV PUSH1 0x1F DUP2 ADD DUP5 SWAP1 DIV DUP5 MUL DUP3 ADD DUP5 ADD SWAP1 SWAP3 MSTORE DUP2 DUP2 MSTORE SWAP6 SWAP8 POP DUP7 SWAP5 POP SWAP3 POP DUP5 ADD SWAP1 POP DUP3 DUP3 DUP1 ISZERO PUSH2 0xE88 JUMPI DUP1 PUSH1 0x1F LT PUSH2 0xE5D JUMPI PUSH2 0x100 DUP1 DUP4 SLOAD DIV MUL DUP4 MSTORE SWAP2 PUSH1 0x20 ADD SWAP2 PUSH2 0xE88 JUMP JUMPDEST DUP3 ADD SWAP2 SWAP1 PUSH1 0x0 MSTORE PUSH1 0x20 PUSH1 0x0 KECCAK256 SWAP1 JUMPDEST DUP2 SLOAD DUP2 MSTORE SWAP1 PUSH1 0x1 ADD SWAP1 PUSH1 0x20 ADD DUP1 DUP4 GT PUSH2 0xE6B JUMPI DUP3 SWAP1 SUB PUSH1 0x1F AND DUP3 ADD SWAP2 JUMPDEST POP POP POP POP POP SWAP1 POP SWAP6 POP SWAP6 POP SWAP6 POP SWAP6 POP SWAP6 POP SWAP6 POP SWAP2 SWAP4 SWAP6 POP SWAP2 SWAP4 SWAP6 JUMP JUMPDEST PUSH1 0x2 SLOAD JUMPDEST SWAP1 JUMP JUMPDEST PUSH1 0x0 DUP1 JUMPDEST DUP5 MLOAD DUP2 LT ISZERO PUSH2 0xEF1 JUMPI PUSH2 0xEE9 DUP6 DUP3 DUP2 MLOAD DUP2 LT PUSH2 0xEC7 JUMPI INVALID JUMPDEST PUSH1 0x20 MUL PUSH1 0x20 ADD ADD MLOAD DUP6 DUP4 DUP2 MLOAD DUP2 LT PUSH2 0xEDB JUMPI INVALID JUMPDEST PUSH1 0x20 MUL PUSH1 0x20 ADD ADD MLOAD DUP6 PUSH2 0x10D2 JUMP JUMPDEST PUSH1 0x1 ADD PUSH2 0xEAF JUMP JUMPDEST POP PUSH1 0x1 SWAP5 SWAP4 POP POP POP POP JUMP JUMPDEST PUSH1 0x0 PUSH2 0xF06 PUSH2 0x11A0 JUMP JUMPDEST POP POP PUSH1 0x0 SWAP2 DUP3 MSTORE PUSH1 0x20 DUP3 DUP2 MSTORE PUSH1 0x40 SWAP3 DUP4 SWAP1 KECCAK256 DUP4 MLOAD PUSH1 0x60 DUP2 ADD DUP6 MSTORE DUP2 SLOAD DUP1 DUP3 MSTORE PUSH1 0x1 DUP4 ADD SLOAD SWAP4 DUP3 ADD SWAP4 SWAP1 SWAP4 MSTORE PUSH1 0x2 SWAP1 SWAP2 ADD SLOAD SWAP4 ADD SWAP3 SWAP1 SWAP3 MSTORE LT ISZERO SWAP1 JUMP JUMPDEST PUSH1 0x0 JUMPDEST DUP4 MLOAD DUP2 LT ISZERO PUSH2 0xF9B JUMPI PUSH2 0xF92 DUP5 DUP3 DUP2 MLOAD DUP2 LT PUSH2 0xF5D JUMPI INVALID JUMPDEST PUSH1 0x20 MUL PUSH1 0x20 ADD ADD MLOAD DUP5 DUP4 DUP2 MLOAD DUP2 LT PUSH2 0xF71 JUMPI INVALID JUMPDEST PUSH1 0x20 MUL PUSH1 0x20 ADD ADD MLOAD DUP5 DUP5 DUP2 MLOAD DUP2 LT PUSH2 0xF85 JUMPI INVALID JUMPDEST PUSH1 0x20 MUL PUSH1 0x20 ADD ADD MLOAD PUSH2 0xB7A JUMP JUMPDEST POP PUSH1 0x1 ADD PUSH2 0xF45 JUMP JUMPDEST POP POP POP POP JUMP JUMPDEST PUSH1 0x6 PUSH1 0x20 SWAP1 DUP2 MSTORE PUSH1 0x0 SWAP2 DUP3 MSTORE PUSH1 0x40 SWAP2 DUP3 SWAP1 KECCAK256 DUP1 SLOAD PUSH1 0x1 DUP1 DUP4 ADD SLOAD PUSH1 0x2 DUP1 DUP6 ADD DUP1 SLOAD DUP9 MLOAD PUSH2 0x100 SWAP6 DUP3 AND ISZERO SWAP6 SWAP1 SWAP6 MUL PUSH1 0x0 NOT ADD AND SWAP2 SWAP1 SWAP2 DIV PUSH1 0x1F DUP2 ADD DUP8 SWAP1 DIV DUP8 MUL DUP5 ADD DUP8 ADD SWAP1 SWAP8 MSTORE DUP7 DUP4 MSTORE PUSH1 0x1 PUSH1 0x1 PUSH1 0xA0 SHL SUB SWAP1 SWAP4 AND SWAP6 SWAP1 SWAP5 SWAP2 SWAP3 SWAP2 DUP4 ADD DUP3 DUP3 DUP1 ISZERO PUSH2 0x104D JUMPI DUP1 PUSH1 0x1F LT PUSH2 0x1022 JUMPI PUSH2 0x100 DUP1 DUP4 SLOAD DIV MUL DUP4 MSTORE SWAP2 PUSH1 0x20 ADD SWAP2 PUSH2 0x104D JUMP JUMPDEST DUP3 ADD SWAP2 SWAP1 PUSH1 0x0 MSTORE PUSH1 0x20 PUSH1 0x0 KECCAK256 SWAP1 JUMPDEST DUP2 SLOAD DUP2 MSTORE SWAP1 PUSH1 0x1 ADD SWAP1 PUSH1 0x20 ADD DUP1 DUP4 GT PUSH2 0x1030 JUMPI DUP3 SWAP1 SUB PUSH1 0x1F AND DUP3 ADD SWAP2 JUMPDEST POP POP POP PUSH1 0x3 SWAP1 SWAP4 ADD SLOAD SWAP2 SWAP3 POP POP PUSH1 0xFF DUP1 DUP3 AND SWAP2 PUSH2 0x100 SWAP1 DIV AND DUP6 JUMP JUMPDEST PUSH1 0x0 PUSH2 0x1073 PUSH2 0x11A0 JUMP JUMPDEST POP PUSH1 0x0 DUP4 DUP2 MSTORE PUSH1 0x20 DUP6 DUP2 MSTORE PUSH1 0x40 SWAP2 DUP3 SWAP1 KECCAK256 DUP3 MLOAD PUSH1 0x60 DUP2 ADD DUP5 MSTORE DUP2 SLOAD DUP2 MSTORE PUSH1 0x1 DUP3 ADD SLOAD SWAP3 DUP2 ADD SWAP3 SWAP1 SWAP3 MSTORE PUSH1 0x2 ADD SLOAD SWAP2 DUP2 ADD DUP3 SWAP1 MSTORE SWAP1 PUSH2 0x10B5 JUMPI PUSH1 0x0 SWAP2 POP POP PUSH2 0x417 JUMP JUMPDEST DUP1 MLOAD DUP4 LT PUSH2 0x10C7 JUMPI PUSH1 0x1 SWAP2 POP POP PUSH2 0x417 JUMP JUMPDEST POP PUSH1 0x0 SWAP5 SWAP4 POP POP POP POP JUMP JUMPDEST PUSH2 0x10E5 PUSH1 0x0 DUP5 DUP5 DUP5 PUSH4 0xFFFFFFFF PUSH2 0x1141 AND JUMP JUMPDEST DUP1 DUP3 DUP5 PUSH32 0x480000BB1EDAD8CA1470381CC334B1917FBD51C6531F3A623EA8E0EC7E38A6E9 PUSH1 0x40 MLOAD PUSH1 0x40 MLOAD DUP1 SWAP2 SUB SWAP1 LOG4 POP POP POP JUMP JUMPDEST PUSH1 0x0 SWAP1 DUP2 MSTORE PUSH1 0x20 SWAP2 SWAP1 SWAP2 MSTORE PUSH1 0x40 DUP2 KECCAK256 PUSH1 0x1 DUP2 ADD DUP1 SLOAD DUP4 DUP4 SSTORE SWAP1 DUP4 SWAP1 SSTORE PUSH1 0x2 SWAP1 SWAP2 ADD SWAP2 SWAP1 SWAP2 SSTORE SWAP1 JUMP JUMPDEST PUSH1 0x0 DUP4 DUP2 MSTORE PUSH1 0x20 DUP6 SWAP1 MSTORE PUSH1 0x40 SWAP1 KECCAK256 DUP3 DUP2 SSTORE PUSH1 0x2 DUP2 ADD SLOAD PUSH2 0x116A JUMPI PUSH1 0x2 DUP2 ADD DUP5 SWAP1 SSTORE PUSH1 0x1 DUP2 ADD DUP3 SWAP1 SSTORE JUMPDEST POP POP PUSH1 0x0 SWAP1 DUP2 MSTORE PUSH1 0x1 DUP1 DUP5 ADD PUSH1 0x20 SWAP1 DUP2 MSTORE PUSH1 0x40 DUP4 KECCAK256 DUP1 SLOAD DUP1 DUP5 ADD DUP3 SSTORE SWAP1 DUP5 MSTORE SWAP3 KECCAK256 SWAP1 SWAP2 ADD SWAP2 SWAP1 SWAP2 SSTORE PUSH1 0x2 SWAP1 SWAP2 ADD DUP1 SLOAD SWAP1 SWAP2 ADD SWAP1 SSTORE JUMP JUMPDEST PUSH1 0x40 MLOAD DUP1 PUSH1 0x60 ADD PUSH1 0x40 MSTORE DUP1 PUSH1 0x0 DUP2 MSTORE PUSH1 0x20 ADD PUSH1 0x0 DUP2 MSTORE PUSH1 0x20 ADD PUSH1 0x0 DUP1 NOT AND DUP2 MSTORE POP SWAP1 JUMP JUMPDEST POP DUP1 SLOAD PUSH1 0x1 DUP2 PUSH1 0x1 AND ISZERO PUSH2 0x100 MUL SUB AND PUSH1 0x2 SWAP1 DIV PUSH1 0x0 DUP3 SSTORE DUP1 PUSH1 0x1F LT PUSH2 0x11EA JUMPI POP PUSH2 0x1208 JUMP JUMPDEST PUSH1 0x1F ADD PUSH1 0x20 SWAP1 DIV SWAP1 PUSH1 0x0 MSTORE PUSH1 0x20 PUSH1 0x0 KECCAK256 SWAP1 DUP2 ADD SWAP1 PUSH2 0x1208 SWAP2 SWAP1 PUSH2 0x1289 JUMP JUMPDEST POP JUMP JUMPDEST DUP3 DUP1 SLOAD PUSH1 0x1 DUP2 PUSH1 0x1 AND ISZERO PUSH2 0x100 MUL SUB AND PUSH1 0x2 SWAP1 DIV SWAP1 PUSH1 0x0 MSTORE PUSH1 0x20 PUSH1 0x0 KECCAK256 SWAP1 PUSH1 0x1F ADD PUSH1 0x20 SWAP1 DIV DUP2 ADD SWAP3 DUP3 PUSH1 0x1F LT PUSH2 0x124C JUMPI DUP1 MLOAD PUSH1 0xFF NOT AND DUP4 DUP1 ADD OR DUP6 SSTORE PUSH2 0x1279 JUMP JUMPDEST DUP3 DUP1 ADD PUSH1 0x1 ADD DUP6 SSTORE DUP3 ISZERO PUSH2 0x1279 JUMPI SWAP2 DUP3 ADD JUMPDEST DUP3 DUP2 GT ISZERO PUSH2 0x1279 JUMPI DUP3 MLOAD DUP3 SSTORE SWAP2 PUSH1 0x20 ADD SWAP2 SWAP1 PUSH1 0x1 ADD SWAP1 PUSH2 0x125E JUMP JUMPDEST POP PUSH2 0x1285 SWAP3 SWAP2 POP PUSH2 0x1289 JUMP JUMPDEST POP SWAP1 JUMP JUMPDEST PUSH2 0xEA8 SWAP2 SWAP1 JUMPDEST DUP1 DUP3 GT ISZERO PUSH2 0x1285 JUMPI PUSH1 0x0 DUP2 SSTORE PUSH1 0x1 ADD PUSH2 0x128F JUMP JUMPDEST DUP1 CALLDATALOAD PUSH2 0x870 DUP2 PUSH2 0x1E3D JUMP JUMPDEST PUSH1 0x0 DUP3 PUSH1 0x1F DUP4 ADD SLT PUSH2 0x12BF JUMPI PUSH1 0x0 DUP1 REVERT JUMPDEST DUP2 CALLDATALOAD PUSH2 0x12D2 PUSH2 0x12CD DUP3 PUSH2 0x1D4E JUMP JUMPDEST PUSH2 0x1D27 JUMP JUMPDEST SWAP2 POP DUP2 DUP2 DUP4 MSTORE PUSH1 0x20 DUP5 ADD SWAP4 POP PUSH1 0x20 DUP2 ADD SWAP1 POP DUP4 DUP6 PUSH1 0x20 DUP5 MUL DUP3 ADD GT ISZERO PUSH2 0x12F7 JUMPI PUSH1 0x0 DUP1 REVERT JUMPDEST PUSH1 0x0 JUMPDEST DUP4 DUP2 LT ISZERO PUSH2 0x1323 JUMPI DUP2 PUSH2 0x130D DUP9 DUP3 PUSH2 0x12A3 JUMP JUMPDEST DUP5 MSTORE POP PUSH1 0x20 SWAP3 DUP4 ADD SWAP3 SWAP2 SWAP1 SWAP2 ADD SWAP1 PUSH1 0x1 ADD PUSH2 0x12FA JUMP JUMPDEST POP POP POP POP SWAP3 SWAP2 POP POP JUMP JUMPDEST PUSH1 0x0 DUP3 PUSH1 0x1F DUP4 ADD SLT PUSH2 0x133E JUMPI PUSH1 0x0 DUP1 REVERT JUMPDEST DUP2 CALLDATALOAD PUSH2 0x134C PUSH2 0x12CD DUP3 PUSH2 0x1D4E JUMP JUMPDEST SWAP2 POP DUP2 DUP2 DUP4 MSTORE PUSH1 0x20 DUP5 ADD SWAP4 POP PUSH1 0x20 DUP2 ADD SWAP1 POP DUP4 DUP6 PUSH1 0x20 DUP5 MUL DUP3 ADD GT ISZERO PUSH2 0x1371 JUMPI PUSH1 0x0 DUP1 REVERT JUMPDEST PUSH1 0x0 JUMPDEST DUP4 DUP2 LT ISZERO PUSH2 0x1323 JUMPI DUP2 PUSH2 0x1387 DUP9 DUP3 PUSH2 0x1475 JUMP JUMPDEST DUP5 MSTORE POP PUSH1 0x20 SWAP3 DUP4 ADD SWAP3 SWAP2 SWAP1 SWAP2 ADD SWAP1 PUSH1 0x1 ADD PUSH2 0x1374 JUMP JUMPDEST PUSH1 0x0 DUP3 PUSH1 0x1F DUP4 ADD SLT PUSH2 0x13AE JUMPI PUSH1 0x0 DUP1 REVERT JUMPDEST DUP2 CALLDATALOAD PUSH2 0x13BC PUSH2 0x12CD DUP3 PUSH2 0x1D4E JUMP JUMPDEST DUP2 DUP2 MSTORE PUSH1 0x20 SWAP4 DUP5 ADD SWAP4 SWAP1 SWAP3 POP DUP3 ADD DUP4 PUSH1 0x0 JUMPDEST DUP4 DUP2 LT ISZERO PUSH2 0x1323 JUMPI DUP2 CALLDATALOAD DUP7 ADD PUSH2 0x13E4 DUP9 DUP3 PUSH2 0x148B JUMP JUMPDEST DUP5 MSTORE POP PUSH1 0x20 SWAP3 DUP4 ADD SWAP3 SWAP2 SWAP1 SWAP2 ADD SWAP1 PUSH1 0x1 ADD PUSH2 0x13CE JUMP JUMPDEST PUSH1 0x0 DUP3 PUSH1 0x1F DUP4 ADD SLT PUSH2 0x140B JUMPI PUSH1 0x0 DUP1 REVERT JUMPDEST DUP2 CALLDATALOAD PUSH2 0x1419 PUSH2 0x12CD DUP3 PUSH2 0x1D4E JUMP JUMPDEST SWAP2 POP DUP2 DUP2 DUP4 MSTORE PUSH1 0x20 DUP5 ADD SWAP4 POP PUSH1 0x20 DUP2 ADD SWAP1 POP DUP4 DUP6 PUSH1 0x20 DUP5 MUL DUP3 ADD GT ISZERO PUSH2 0x143E JUMPI PUSH1 0x0 DUP1 REVERT JUMPDEST PUSH1 0x0 JUMPDEST DUP4 DUP2 LT ISZERO PUSH2 0x1323 JUMPI DUP2 PUSH2 0x1454 DUP9 DUP3 PUSH2 0x1475 JUMP JUMPDEST DUP5 MSTORE POP PUSH1 0x20 SWAP3 DUP4 ADD SWAP3 SWAP2 SWAP1 SWAP2 ADD SWAP1 PUSH1 0x1 ADD PUSH2 0x1441 JUMP JUMPDEST DUP1 CALLDATALOAD PUSH2 0x870 DUP2 PUSH2 0x1E51 JUMP JUMPDEST DUP1 CALLDATALOAD PUSH2 0x870 DUP2 PUSH2 0x1E5A JUMP JUMPDEST DUP1 CALLDATALOAD PUSH2 0x870 DUP2 PUSH2 0x1E63 JUMP JUMPDEST PUSH1 0x0 DUP3 PUSH1 0x1F DUP4 ADD SLT PUSH2 0x149C JUMPI PUSH1 0x0 DUP1 REVERT JUMPDEST DUP2 CALLDATALOAD PUSH2 0x14AA PUSH2 0x12CD DUP3 PUSH2 0x1D6F JUMP JUMPDEST SWAP2 POP DUP1 DUP3 MSTORE PUSH1 0x20 DUP4 ADD PUSH1 0x20 DUP4 ADD DUP6 DUP4 DUP4 ADD GT ISZERO PUSH2 0x14C6 JUMPI PUSH1 0x0 DUP1 REVERT JUMPDEST PUSH2 0x14D1 DUP4 DUP3 DUP5 PUSH2 0x1DE4 JUMP JUMPDEST POP POP POP SWAP3 SWAP2 POP POP JUMP JUMPDEST PUSH1 0x0 PUSH1 0x20 DUP3 DUP5 SUB SLT ISZERO PUSH2 0x14EC JUMPI PUSH1 0x0 DUP1 REVERT JUMPDEST PUSH1 0x0 PUSH2 0x14F8 DUP5 DUP5 PUSH2 0x12A3 JUMP JUMPDEST SWAP5 SWAP4 POP POP POP POP JUMP JUMPDEST PUSH1 0x0 DUP1 PUSH1 0x0 PUSH1 0x60 DUP5 DUP7 SUB SLT ISZERO PUSH2 0x1515 JUMPI PUSH1 0x0 DUP1 REVERT JUMPDEST PUSH1 0x0 PUSH2 0x1521 DUP7 DUP7 PUSH2 0x12A3 JUMP JUMPDEST SWAP4 POP POP PUSH1 0x20 PUSH2 0x1532 DUP7 DUP3 DUP8 ADD PUSH2 0x1475 JUMP JUMPDEST SWAP3 POP POP PUSH1 0x40 DUP5 ADD CALLDATALOAD PUSH8 0xFFFFFFFFFFFFFFFF DUP2 GT ISZERO PUSH2 0x154F JUMPI PUSH1 0x0 DUP1 REVERT JUMPDEST PUSH2 0x155B DUP7 DUP3 DUP8 ADD PUSH2 0x148B JUMP JUMPDEST SWAP2 POP POP SWAP3 POP SWAP3 POP SWAP3 JUMP JUMPDEST PUSH1 0x0 DUP1 PUSH1 0x0 PUSH1 0x60 DUP5 DUP7 SUB SLT ISZERO PUSH2 0x157A JUMPI PUSH1 0x0 DUP1 REVERT JUMPDEST DUP4 CALLDATALOAD PUSH8 0xFFFFFFFFFFFFFFFF DUP2 GT ISZERO PUSH2 0x1591 JUMPI PUSH1 0x0 DUP1 REVERT JUMPDEST PUSH2 0x159D DUP7 DUP3 DUP8 ADD PUSH2 0x12AE JUMP JUMPDEST SWAP4 POP POP PUSH1 0x20 DUP5 ADD CALLDATALOAD PUSH8 0xFFFFFFFFFFFFFFFF DUP2 GT ISZERO PUSH2 0x15BA JUMPI PUSH1 0x0 DUP1 REVERT JUMPDEST PUSH2 0x15C6 DUP7 DUP3 DUP8 ADD PUSH2 0x13FA JUMP JUMPDEST SWAP3 POP POP PUSH1 0x40 DUP5 ADD CALLDATALOAD PUSH8 0xFFFFFFFFFFFFFFFF DUP2 GT ISZERO PUSH2 0x15E3 JUMPI PUSH1 0x0 DUP1 REVERT JUMPDEST PUSH2 0x155B DUP7 DUP3 DUP8 ADD PUSH2 0x139D JUMP JUMPDEST PUSH1 0x0 DUP1 PUSH1 0x0 PUSH1 0x60 DUP5 DUP7 SUB SLT ISZERO PUSH2 0x1604 JUMPI PUSH1 0x0 DUP1 REVERT JUMPDEST DUP4 CALLDATALOAD PUSH8 0xFFFFFFFFFFFFFFFF DUP2 GT ISZERO PUSH2 0x161B JUMPI PUSH1 0x0 DUP1 REVERT JUMPDEST PUSH2 0x1627 DUP7 DUP3 DUP8 ADD PUSH2 0x132D JUMP JUMPDEST SWAP4 POP POP PUSH1 0x20 DUP5 ADD CALLDATALOAD PUSH8 0xFFFFFFFFFFFFFFFF DUP2 GT ISZERO PUSH2 0x1644 JUMPI PUSH1 0x0 DUP1 REVERT JUMPDEST PUSH2 0x1650 DUP7 DUP3 DUP8 ADD PUSH2 0x13FA JUMP JUMPDEST SWAP3 POP POP PUSH1 0x40 PUSH2 0x155B DUP7 DUP3 DUP8 ADD PUSH2 0x1475 JUMP JUMPDEST PUSH1 0x0 PUSH1 0x20 DUP3 DUP5 SUB SLT ISZERO PUSH2 0x1673 JUMPI PUSH1 0x0 DUP1 REVERT JUMPDEST PUSH1 0x0 PUSH2 0x14F8 DUP5 DUP5 PUSH2 0x1475 JUMP JUMPDEST PUSH1 0x0 DUP1 PUSH1 0x40 DUP4 DUP6 SUB SLT ISZERO PUSH2 0x1692 JUMPI PUSH1 0x0 DUP1 REVERT JUMPDEST PUSH1 0x0 PUSH2 0x169E DUP6 DUP6 PUSH2 0x1475 JUMP JUMPDEST SWAP3 POP POP PUSH1 0x20 PUSH2 0x16AF DUP6 DUP3 DUP7 ADD PUSH2 0x1475 JUMP JUMPDEST SWAP2 POP POP SWAP3 POP SWAP3 SWAP1 POP JUMP JUMPDEST PUSH1 0x0 DUP1 PUSH1 0x0 PUSH1 0x60 DUP5 DUP7 SUB SLT ISZERO PUSH2 0x16CE JUMPI PUSH1 0x0 DUP1 REVERT JUMPDEST PUSH1 0x0 PUSH2 0x16DA DUP7 DUP7 PUSH2 0x1475 JUMP JUMPDEST SWAP4 POP POP PUSH1 0x20 PUSH2 0x1650 DUP7 DUP3 DUP8 ADD PUSH2 0x1475 JUMP JUMPDEST PUSH1 0x0 PUSH1 0x20 DUP3 DUP5 SUB SLT ISZERO PUSH2 0x16FD JUMPI PUSH1 0x0 DUP1 REVERT JUMPDEST PUSH1 0x0 PUSH2 0x14F8 DUP5 DUP5 PUSH2 0x1480 JUMP JUMPDEST PUSH1 0x0 DUP1 PUSH1 0x40 DUP4 DUP6 SUB SLT ISZERO PUSH2 0x171C JUMPI PUSH1 0x0 DUP1 REVERT JUMPDEST PUSH1 0x0 PUSH2 0x1728 DUP6 DUP6 PUSH2 0x1475 JUMP JUMPDEST SWAP3 POP POP PUSH1 0x20 PUSH2 0x16AF DUP6 DUP3 DUP7 ADD PUSH2 0x146A JUMP JUMPDEST PUSH1 0x0 DUP1 PUSH1 0x0 DUP1 PUSH1 0x0 DUP1 PUSH1 0xC0 DUP8 DUP10 SUB SLT ISZERO PUSH2 0x1752 JUMPI PUSH1 0x0 DUP1 REVERT JUMPDEST PUSH1 0x0 PUSH2 0x175E DUP10 DUP10 PUSH2 0x1475 JUMP JUMPDEST SWAP7 POP POP PUSH1 0x20 PUSH2 0x176F DUP10 DUP3 DUP11 ADD PUSH2 0x1475 JUMP JUMPDEST SWAP6 POP POP PUSH1 0x40 PUSH2 0x1780 DUP10 DUP3 DUP11 ADD PUSH2 0x12A3 JUMP JUMPDEST SWAP5 POP POP PUSH1 0x60 DUP8 ADD CALLDATALOAD PUSH8 0xFFFFFFFFFFFFFFFF DUP2 GT ISZERO PUSH2 0x179D JUMPI PUSH1 0x0 DUP1 REVERT JUMPDEST PUSH2 0x17A9 DUP10 DUP3 DUP11 ADD PUSH2 0x148B JUMP JUMPDEST SWAP4 POP POP PUSH1 0x80 DUP8 ADD CALLDATALOAD PUSH8 0xFFFFFFFFFFFFFFFF DUP2 GT ISZERO PUSH2 0x17C6 JUMPI PUSH1 0x0 DUP1 REVERT JUMPDEST PUSH2 0x17D2 DUP10 DUP3 DUP11 ADD PUSH2 0x148B JUMP JUMPDEST SWAP3 POP POP PUSH1 0xA0 DUP8 ADD CALLDATALOAD PUSH8 0xFFFFFFFFFFFFFFFF DUP2 GT ISZERO PUSH2 0x17EF JUMPI PUSH1 0x0 DUP1 REVERT JUMPDEST PUSH2 0x17FB DUP10 DUP3 DUP11 ADD PUSH2 0x148B JUMP JUMPDEST SWAP2 POP POP SWAP3 SWAP6 POP SWAP3 SWAP6 POP SWAP3 SWAP6 JUMP JUMPDEST PUSH1 0x0 PUSH2 0x1814 DUP4 DUP4 PUSH2 0x189E JUMP JUMPDEST POP POP PUSH1 0x20 ADD SWAP1 JUMP JUMPDEST PUSH2 0x1825 DUP2 PUSH2 0x1DBB JUMP JUMPDEST DUP3 MSTORE POP POP JUMP JUMPDEST PUSH2 0x1825 PUSH2 0x1837 DUP3 PUSH2 0x1DBB JUMP JUMPDEST PUSH2 0x1E1C JUMP JUMPDEST PUSH1 0x0 PUSH2 0x1847 DUP3 PUSH2 0x1DA9 JUMP JUMPDEST PUSH2 0x1851 DUP2 DUP6 PUSH2 0x1DAD JUMP JUMPDEST SWAP4 POP PUSH2 0x185C DUP4 PUSH2 0x1D97 JUMP JUMPDEST DUP1 PUSH1 0x0 JUMPDEST DUP4 DUP2 LT ISZERO PUSH2 0x188A JUMPI DUP2 MLOAD PUSH2 0x1874 DUP9 DUP3 PUSH2 0x1808 JUMP JUMPDEST SWAP8 POP PUSH2 0x187F DUP4 PUSH2 0x1D97 JUMP JUMPDEST SWAP3 POP POP PUSH1 0x1 ADD PUSH2 0x1860 JUMP JUMPDEST POP SWAP5 SWAP6 SWAP5 POP POP POP POP POP JUMP JUMPDEST PUSH2 0x1825 DUP2 PUSH2 0x1DC6 JUMP JUMPDEST PUSH2 0x1825 DUP2 PUSH2 0xEA8 JUMP JUMPDEST PUSH1 0x0 PUSH2 0x18B2 DUP3 PUSH2 0x1DA9 JUMP JUMPDEST PUSH2 0x18BC DUP2 DUP6 PUSH2 0x1DAD JUMP JUMPDEST SWAP4 POP PUSH2 0x18CC DUP2 DUP6 PUSH1 0x20 DUP7 ADD PUSH2 0x1DF0 JUMP JUMPDEST PUSH2 0x18D5 DUP2 PUSH2 0x1E2D JUMP JUMPDEST SWAP1 SWAP4 ADD SWAP4 SWAP3 POP POP POP JUMP JUMPDEST PUSH1 0x0 DUP2 SLOAD PUSH1 0x1 DUP2 AND PUSH1 0x0 DUP2 EQ PUSH2 0x18FC JUMPI PUSH1 0x1 DUP2 EQ PUSH2 0x1922 JUMPI PUSH2 0x1961 JUMP JUMPDEST PUSH1 0x7F PUSH1 0x2 DUP4 DIV AND PUSH2 0x190D DUP2 DUP8 PUSH2 0x1DAD JUMP JUMPDEST PUSH1 0xFF NOT DUP5 AND DUP2 MSTORE SWAP6 POP POP PUSH1 0x20 DUP6 ADD SWAP3 POP PUSH2 0x1961 JUMP JUMPDEST PUSH1 0x2 DUP3 DIV PUSH2 0x1930 DUP2 DUP8 PUSH2 0x1DAD JUMP JUMPDEST SWAP6 POP PUSH2 0x193B DUP6 PUSH2 0x1D9D JUMP JUMPDEST PUSH1 0x0 JUMPDEST DUP3 DUP2 LT ISZERO PUSH2 0x195A JUMPI DUP2 SLOAD DUP9 DUP3 ADD MSTORE PUSH1 0x1 SWAP1 SWAP2 ADD SWAP1 PUSH1 0x20 ADD PUSH2 0x193E JUMP JUMPDEST DUP8 ADD SWAP5 POP POP POP JUMPDEST POP POP SWAP3 SWAP2 POP POP JUMP JUMPDEST PUSH1 0x0 DUP2 SLOAD PUSH1 0x1 DUP2 AND PUSH1 0x0 DUP2 EQ PUSH2 0x1986 JUMPI PUSH1 0x1 DUP2 EQ PUSH2 0x19A9 JUMPI PUSH2 0x1961 JUMP JUMPDEST PUSH1 0x7F PUSH1 0x2 DUP4 DIV AND PUSH2 0x1997 DUP2 DUP8 PUSH2 0x1DB6 JUMP JUMPDEST PUSH1 0xFF NOT DUP5 AND DUP2 MSTORE SWAP6 POP DUP6 ADD SWAP3 POP PUSH2 0x1961 JUMP JUMPDEST PUSH1 0x2 DUP3 DIV PUSH2 0x19B7 DUP2 DUP8 PUSH2 0x1DB6 JUMP JUMPDEST SWAP6 POP PUSH2 0x19C2 DUP6 PUSH2 0x1D9D JUMP JUMPDEST PUSH1 0x0 JUMPDEST DUP3 DUP2 LT ISZERO PUSH2 0x19E1 JUMPI DUP2 SLOAD DUP9 DUP3 ADD MSTORE PUSH1 0x1 SWAP1 SWAP2 ADD SWAP1 PUSH1 0x20 ADD PUSH2 0x19C5 JUMP JUMPDEST POP POP SWAP1 SWAP5 ADD SWAP5 SWAP4 POP POP POP POP JUMP JUMPDEST PUSH1 0x0 PUSH2 0x19FB PUSH1 0x1F DUP4 PUSH2 0x1DAD JUMP JUMPDEST PUSH32 0x53656E64657220646F6573206E6F74206861766520616374696F6E206B657900 DUP2 MSTORE PUSH1 0x20 ADD SWAP3 SWAP2 POP POP JUMP JUMPDEST PUSH1 0x0 PUSH2 0x1A34 PUSH1 0x25 DUP4 PUSH2 0x1DAD JUMP JUMPDEST PUSH32 0x53656E64657220646F6573206E6F74206861766520636C61696D207369676E65 DUP2 MSTORE PUSH5 0x72206B6579 PUSH1 0xD8 SHL PUSH1 0x20 DUP3 ADD MSTORE PUSH1 0x40 ADD SWAP3 SWAP2 POP POP JUMP JUMPDEST PUSH1 0x0 PUSH2 0x1A7B PUSH1 0x10 DUP4 PUSH2 0x1DAD JUMP JUMPDEST PUSH16 0x105B1C9958591E48195E1958DD5D1959 PUSH1 0x82 SHL DUP2 MSTORE PUSH1 0x20 ADD SWAP3 SWAP2 POP POP JUMP JUMPDEST PUSH1 0x0 PUSH2 0x1AA7 PUSH1 0x23 DUP4 PUSH2 0x1DAD JUMP JUMPDEST PUSH32 0x53656E64657220646F6573206E6F742068617665206D616E6167656D656E7420 DUP2 MSTORE PUSH3 0x6B6579 PUSH1 0xE8 SHL PUSH1 0x20 DUP3 ADD MSTORE PUSH1 0x40 ADD SWAP3 SWAP2 POP POP JUMP JUMPDEST PUSH1 0x0 PUSH2 0x1AEB DUP3 DUP5 PUSH2 0x182B JUMP JUMPDEST POP PUSH1 0x14 ADD SWAP2 SWAP1 POP JUMP JUMPDEST PUSH1 0x0 PUSH2 0x417 DUP3 DUP5 PUSH2 0x1969 JUMP JUMPDEST PUSH1 0x20 DUP2 ADD PUSH2 0x870 DUP3 DUP5 PUSH2 0x181C JUMP JUMPDEST PUSH1 0x40 DUP2 ADD PUSH2 0x1B1C DUP3 DUP6 PUSH2 0x181C JUMP JUMPDEST PUSH2 0x417 PUSH1 0x20 DUP4 ADD DUP5 PUSH2 0x189E JUMP JUMPDEST PUSH1 0xA0 DUP2 ADD PUSH2 0x1B37 DUP3 DUP9 PUSH2 0x181C JUMP JUMPDEST PUSH2 0x1B44 PUSH1 0x20 DUP4 ADD DUP8 PUSH2 0x189E JUMP JUMPDEST DUP2 DUP2 SUB PUSH1 0x40 DUP4 ADD MSTORE PUSH2 0x1B56 DUP2 DUP7 PUSH2 0x18A7 JUMP JUMPDEST SWAP1 POP PUSH2 0x1B65 PUSH1 0x60 DUP4 ADD DUP6 PUSH2 0x1895 JUMP JUMPDEST PUSH2 0xB70 PUSH1 0x80 DUP4 ADD DUP5 PUSH2 0x1895 JUMP JUMPDEST PUSH1 0x20 DUP1 DUP3 MSTORE DUP2 ADD PUSH2 0x417 DUP2 DUP5 PUSH2 0x183C JUMP JUMPDEST PUSH1 0x20 DUP2 ADD PUSH2 0x870 DUP3 DUP5 PUSH2 0x1895 JUMP JUMPDEST PUSH1 0x20 DUP2 ADD PUSH2 0x870 DUP3 DUP5 PUSH2 0x189E JUMP JUMPDEST PUSH1 0x20 DUP1 DUP3 MSTORE DUP2 ADD PUSH2 0x417 DUP2 DUP5 PUSH2 0x18A7 JUMP JUMPDEST PUSH1 0x20 DUP1 DUP3 MSTORE DUP2 ADD PUSH2 0x417 DUP2 DUP5 PUSH2 0x18DF JUMP JUMPDEST PUSH1 0x20 DUP1 DUP3 MSTORE DUP2 ADD PUSH2 0x870 DUP2 PUSH2 0x19EE JUMP JUMPDEST PUSH1 0x20 DUP1 DUP3 MSTORE DUP2 ADD PUSH2 0x870 DUP2 PUSH2 0x1A27 JUMP JUMPDEST PUSH1 0x20 DUP1 DUP3 MSTORE DUP2 ADD PUSH2 0x870 DUP2 PUSH2 0x1A6E JUMP JUMPDEST PUSH1 0x20 DUP1 DUP3 MSTORE DUP2 ADD PUSH2 0x870 DUP2 PUSH2 0x1A9A JUMP JUMPDEST PUSH1 0x80 DUP2 ADD PUSH2 0x1C0F DUP3 DUP8 PUSH2 0x189E JUMP JUMPDEST DUP2 DUP2 SUB PUSH1 0x20 DUP4 ADD MSTORE PUSH2 0x1C21 DUP2 DUP7 PUSH2 0x18A7 JUMP JUMPDEST SWAP1 POP DUP2 DUP2 SUB PUSH1 0x40 DUP4 ADD MSTORE PUSH2 0x1C35 DUP2 DUP6 PUSH2 0x18A7 JUMP JUMPDEST SWAP1 POP DUP2 DUP2 SUB PUSH1 0x60 DUP4 ADD MSTORE PUSH2 0xB70 DUP2 DUP5 PUSH2 0x18A7 JUMP JUMPDEST PUSH1 0x80 DUP2 ADD PUSH2 0x1C57 DUP3 DUP8 PUSH2 0x189E JUMP JUMPDEST DUP2 DUP2 SUB PUSH1 0x20 DUP4 ADD MSTORE PUSH2 0x1C69 DUP2 DUP7 PUSH2 0x18DF JUMP JUMPDEST SWAP1 POP DUP2 DUP2 SUB PUSH1 0x40 DUP4 ADD MSTORE PUSH2 0x1C7D DUP2 DUP6 PUSH2 0x18DF JUMP JUMPDEST SWAP1 POP DUP2 DUP2 SUB PUSH1 0x60 DUP4 ADD MSTORE PUSH2 0xB70 DUP2 DUP5 PUSH2 0x18DF JUMP JUMPDEST PUSH1 0xC0 DUP2 ADD PUSH2 0x1C9F DUP3 DUP10 PUSH2 0x189E JUMP JUMPDEST PUSH2 0x1CAC PUSH1 0x20 DUP4 ADD DUP9 PUSH2 0x189E JUMP JUMPDEST PUSH2 0x1CB9 PUSH1 0x40 DUP4 ADD DUP8 PUSH2 0x181C JUMP JUMPDEST DUP2 DUP2 SUB PUSH1 0x60 DUP4 ADD MSTORE PUSH2 0x1CCB DUP2 DUP7 PUSH2 0x18A7 JUMP JUMPDEST SWAP1 POP DUP2 DUP2 SUB PUSH1 0x80 DUP4 ADD MSTORE PUSH2 0x1CDF DUP2 DUP6 PUSH2 0x18A7 JUMP JUMPDEST SWAP1 POP DUP2 DUP2 SUB PUSH1 0xA0 DUP4 ADD MSTORE PUSH2 0x1CF3 DUP2 DUP5 PUSH2 0x18A7 JUMP JUMPDEST SWAP9 SWAP8 POP POP POP POP POP POP POP POP JUMP JUMPDEST PUSH1 0x60 DUP2 ADD PUSH2 0x1D0D DUP3 DUP7 PUSH2 0x189E JUMP JUMPDEST PUSH2 0x1D1A PUSH1 0x20 DUP4 ADD DUP6 PUSH2 0x189E JUMP JUMPDEST PUSH2 0x14F8 PUSH1 0x40 DUP4 ADD DUP5 PUSH2 0x189E JUMP JUMPDEST PUSH1 0x40 MLOAD DUP2 DUP2 ADD PUSH8 0xFFFFFFFFFFFFFFFF DUP2 GT DUP3 DUP3 LT OR ISZERO PUSH2 0x1D46 JUMPI PUSH1 0x0 DUP1 REVERT JUMPDEST PUSH1 0x40 MSTORE SWAP2 SWAP1 POP JUMP JUMPDEST PUSH1 0x0 PUSH8 0xFFFFFFFFFFFFFFFF DUP3 GT ISZERO PUSH2 0x1D65 JUMPI PUSH1 0x0 DUP1 REVERT JUMPDEST POP PUSH1 0x20 SWAP1 DUP2 MUL ADD SWAP1 JUMP JUMPDEST PUSH1 0x0 PUSH8 0xFFFFFFFFFFFFFFFF DUP3 GT ISZERO PUSH2 0x1D86 JUMPI PUSH1 0x0 DUP1 REVERT JUMPDEST POP PUSH1 0x20 PUSH1 0x1F SWAP2 SWAP1 SWAP2 ADD PUSH1 0x1F NOT AND ADD SWAP1 JUMP JUMPDEST PUSH1 0x20 ADD SWAP1 JUMP JUMPDEST PUSH1 0x0 SWAP1 DUP2 MSTORE PUSH1 0x20 SWAP1 KECCAK256 SWAP1 JUMP JUMPDEST MLOAD SWAP1 JUMP JUMPDEST SWAP1 DUP2 MSTORE PUSH1 0x20 ADD SWAP1 JUMP JUMPDEST SWAP2 SWAP1 POP JUMP JUMPDEST PUSH1 0x0 PUSH2 0x870 DUP3 PUSH2 0x1DD8 JUMP JUMPDEST ISZERO ISZERO SWAP1 JUMP JUMPDEST PUSH1 0x1 PUSH1 0x1 PUSH1 0xE0 SHL SUB NOT AND SWAP1 JUMP JUMPDEST PUSH1 0x1 PUSH1 0x1 PUSH1 0xA0 SHL SUB AND SWAP1 JUMP JUMPDEST DUP3 DUP2 DUP4 CALLDATACOPY POP PUSH1 0x0 SWAP2 ADD MSTORE JUMP JUMPDEST PUSH1 0x0 JUMPDEST DUP4 DUP2 LT ISZERO PUSH2 0x1E0B JUMPI DUP2 DUP2 ADD MLOAD DUP4 DUP3 ADD MSTORE PUSH1 0x20 ADD PUSH2 0x1DF3 JUMP JUMPDEST DUP4 DUP2 GT ISZERO PUSH2 0xF9B JUMPI POP POP PUSH1 0x0 SWAP2 ADD MSTORE JUMP JUMPDEST PUSH1 0x0 PUSH2 0x870 DUP3 PUSH1 0x0 PUSH2 0x870 DUP3 PUSH2 0x1E37 JUMP JUMPDEST PUSH1 0x1F ADD PUSH1 0x1F NOT AND SWAP1 JUMP JUMPDEST PUSH1 0x60 SHL SWAP1 JUMP JUMPDEST PUSH2 0x1E46 DUP2 PUSH2 0x1DBB JUMP JUMPDEST DUP2 EQ PUSH2 0x1208 JUMPI PUSH1 0x0 DUP1 REVERT JUMPDEST PUSH2 0x1E46 DUP2 PUSH2 0x1DC6 JUMP JUMPDEST PUSH2 0x1E46 DUP2 PUSH2 0xEA8 JUMP JUMPDEST PUSH2 0x1E46 DUP2 PUSH2 0x1DCB JUMP INVALID LOG3 PUSH6 0x627A7A723158 KECCAK256 MSTORE DUP3 MUL MUL 0x21 PUSH31 0xA50D42073250DD9578C9A9CD808DAD46A4E704D0EB4210614CEE6C65787065 PUSH19 0x696D656E74616CF564736F6C63430005110040 LOG2 PUSH6 0x627A7A723158 KECCAK256 0xDB PUSH31 0x6B265F469002E50B05FFAF82F2B33B3804D799BC50D1BE56D9D94364394664 PUSH20 0x6F6C634300051100320000000000000000000000 ",
  "sha1": "618fad73e95337cd37c68481b5d8aa58f40e5fd0",
  "source": "pragma solidity ^0.5.4;\nimport \"../bases/Identity.sol\";\nimport \"../interfaces/factories/IIdentityFactory.sol\";\n\ncontract IdentityFactory is IIdentityFactory {\n    function _getBytecode(address _owner, bytes32[] memory _keys, uint256[] memory _purposes) private pure returns (bytes memory) {\n        bytes memory bytecode = type(Identity).creationCode;\n\n        return abi.encodePacked(bytecode, abi.encode( _owner, _keys, _purposes));\n    }\n\n    function _deploy(bytes memory code, uint256 salt) private returns (address){\n        address addr;\n        assembly {\n            addr := create2(0, add(code, 0x20), mload(code), salt)\n            if iszero(extcodesize(addr)) {\n            revert(0, 0)\n            }\n        }\n        return addr;\n    }\n\n    function deploy(address _owner, bytes32[] memory _keys, uint256[] memory _purposes, uint _salt) public returns (address) {\n        bytes memory bytecode = _getBytecode(_owner, _keys, _purposes);\n\n        address identity = _deploy(bytecode, _salt);\n        return identity;\n    }\n\n    function getAddress(address _owner, bytes32[] memory _keys, uint256[] memory _purposes, uint _salt) public view returns (address) {\n        bytes memory bytecode = _getBytecode(_owner, _keys, _purposes);\n\n        bytes32 hash = keccak256(abi.encodePacked(bytes1(0xff), address(this), _salt, keccak256(bytecode)));\n\n        return address(uint160(uint(hash)));\n    }\n}\n",
  "sourcePath": "contracts/factories/IdentityFactory.sol",
  "type": "contract"
}