{
  "contractName": "Identity",
  "abi": [
    {
      "constant": true,
      "inputs": [
        {
          "name": "interfaceId",
          "type": "bytes4"
        }
      ],
      "name": "supportsInterface",
      "outputs": [
        {
          "name": "",
          "type": "bool"
        }
      ],
      "payable": false,
      "stateMutability": "view",
      "type": "function"
    },
    {
      "constant": true,
      "inputs": [
        {
          "name": "_key",
          "type": "bytes32"
        }
      ],
      "name": "getKey",
      "outputs": [
        {
          "name": "purpose",
          "type": "uint256"
        },
        {
          "name": "keyType",
          "type": "uint256"
        },
        {
          "name": "key",
          "type": "bytes32"
        }
      ],
      "payable": false,
      "stateMutability": "view",
      "type": "function"
    },
    {
      "constant": false,
      "inputs": [
        {
          "name": "_key",
          "type": "bytes32"
        },
        {
          "name": "_purpose",
          "type": "uint256"
        },
        {
          "name": "_keyType",
          "type": "uint256"
        }
      ],
      "name": "addKey",
      "outputs": [
        {
          "name": "success",
          "type": "bool"
        }
      ],
      "payable": false,
      "stateMutability": "nonpayable",
      "type": "function"
    },
    {
      "constant": true,
      "inputs": [
        {
          "name": "_claimType",
          "type": "uint256"
        }
      ],
      "name": "getClaimIdsByType",
      "outputs": [
        {
          "name": "claimIds",
          "type": "bytes32[]"
        }
      ],
      "payable": false,
      "stateMutability": "view",
      "type": "function"
    },
    {
      "constant": false,
      "inputs": [],
      "name": "unpause",
      "outputs": [],
      "payable": false,
      "stateMutability": "nonpayable",
      "type": "function"
    },
    {
      "constant": false,
      "inputs": [
        {
          "name": "_claimId",
          "type": "bytes32"
        }
      ],
      "name": "removeClaim",
      "outputs": [
        {
          "name": "success",
          "type": "bool"
        }
      ],
      "payable": false,
      "stateMutability": "nonpayable",
      "type": "function"
    },
    {
      "constant": true,
      "inputs": [],
      "name": "paused",
      "outputs": [
        {
          "name": "",
          "type": "bool"
        }
      ],
      "payable": false,
      "stateMutability": "view",
      "type": "function"
    },
    {
      "constant": true,
      "inputs": [
        {
          "name": "addr",
          "type": "address"
        }
      ],
      "name": "addrToKey",
      "outputs": [
        {
          "name": "",
          "type": "bytes32"
        }
      ],
      "payable": false,
      "stateMutability": "pure",
      "type": "function"
    },
    {
      "constant": true,
      "inputs": [
        {
          "name": "",
          "type": "uint256"
        },
        {
          "name": "",
          "type": "uint256"
        }
      ],
      "name": "approved",
      "outputs": [
        {
          "name": "",
          "type": "address"
        }
      ],
      "payable": false,
      "stateMutability": "view",
      "type": "function"
    },
    {
      "constant": false,
      "inputs": [
        {
          "name": "_id",
          "type": "uint256"
        },
        {
          "name": "_approve",
          "type": "bool"
        }
      ],
      "name": "approve",
      "outputs": [
        {
          "name": "success",
          "type": "bool"
        }
      ],
      "payable": false,
      "stateMutability": "nonpayable",
      "type": "function"
    },
    {
      "constant": false,
      "inputs": [],
      "name": "pause",
      "outputs": [],
      "payable": false,
      "stateMutability": "nonpayable",
      "type": "function"
    },
    {
      "constant": false,
      "inputs": [
        {
          "name": "_key",
          "type": "bytes32"
        }
      ],
      "name": "removeKey",
      "outputs": [
        {
          "name": "success",
          "type": "bool"
        }
      ],
      "payable": false,
      "stateMutability": "nonpayable",
      "type": "function"
    },
    {
      "constant": true,
      "inputs": [
        {
          "name": "_purpose",
          "type": "uint256"
        }
      ],
      "name": "getKeysByPurpose",
      "outputs": [
        {
          "name": "keys",
          "type": "bytes32[]"
        }
      ],
      "payable": false,
      "stateMutability": "view",
      "type": "function"
    },
    {
      "constant": false,
      "inputs": [
        {
          "name": "_claimType",
          "type": "uint256"
        },
        {
          "name": "_scheme",
          "type": "uint256"
        },
        {
          "name": "_issuer",
          "type": "address"
        },
        {
          "name": "_signature",
          "type": "bytes"
        },
        {
          "name": "_data",
          "type": "bytes"
        },
        {
          "name": "_uri",
          "type": "string"
        }
      ],
      "name": "addClaim",
      "outputs": [
        {
          "name": "claimRequestId",
          "type": "bytes32"
        }
      ],
      "payable": false,
      "stateMutability": "nonpayable",
      "type": "function"
    },
    {
      "constant": false,
      "inputs": [
        {
          "name": "_to",
          "type": "address"
        },
        {
          "name": "_value",
          "type": "uint256"
        },
        {
          "name": "_data",
          "type": "bytes"
        }
      ],
      "name": "execute",
      "outputs": [
        {
          "name": "executionId",
          "type": "uint256"
        }
      ],
      "payable": false,
      "stateMutability": "nonpayable",
      "type": "function"
    },
    {
      "constant": true,
      "inputs": [
        {
          "name": "_claimId",
          "type": "bytes32"
        }
      ],
      "name": "getClaim",
      "outputs": [
        {
          "name": "claimType",
          "type": "uint256"
        },
        {
          "name": "scheme",
          "type": "uint256"
        },
        {
          "name": "issuer",
          "type": "address"
        },
        {
          "name": "signature",
          "type": "bytes"
        },
        {
          "name": "data",
          "type": "bytes"
        },
        {
          "name": "uri",
          "type": "string"
        }
      ],
      "payable": false,
      "stateMutability": "view",
      "type": "function"
    },
    {
      "constant": true,
      "inputs": [],
      "name": "numKeys",
      "outputs": [
        {
          "name": "",
          "type": "uint256"
        }
      ],
      "payable": false,
      "stateMutability": "view",
      "type": "function"
    },
    {
      "constant": true,
      "inputs": [
        {
          "name": "_key",
          "type": "bytes32"
        },
        {
          "name": "purpose",
          "type": "uint256"
        }
      ],
      "name": "keyHasPurpose",
      "outputs": [
        {
          "name": "exists",
          "type": "bool"
        }
      ],
      "payable": false,
      "stateMutability": "view",
      "type": "function"
    },
    {
      "constant": true,
      "inputs": [
        {
          "name": "",
          "type": "uint256"
        }
      ],
      "name": "executions",
      "outputs": [
        {
          "name": "to",
          "type": "address"
        },
        {
          "name": "value",
          "type": "uint256"
        },
        {
          "name": "data",
          "type": "bytes"
        },
        {
          "name": "approved",
          "type": "bool"
        },
        {
          "name": "executed",
          "type": "bool"
        }
      ],
      "payable": false,
      "stateMutability": "view",
      "type": "function"
    },
    {
      "inputs": [
        {
          "name": "_owner",
          "type": "address"
        },
        {
          "name": "_keys",
          "type": "bytes32[]"
        },
        {
          "name": "_purposes",
          "type": "uint256[]"
        }
      ],
      "payable": false,
      "stateMutability": "nonpayable",
      "type": "constructor"
    },
    {
      "anonymous": false,
      "inputs": [
        {
          "indexed": true,
          "name": "claimRequestId",
          "type": "uint256"
        },
        {
          "indexed": true,
          "name": "topic",
          "type": "uint256"
        },
        {
          "indexed": false,
          "name": "scheme",
          "type": "uint256"
        },
        {
          "indexed": true,
          "name": "issuer",
          "type": "address"
        },
        {
          "indexed": false,
          "name": "signature",
          "type": "bytes"
        },
        {
          "indexed": false,
          "name": "data",
          "type": "bytes"
        },
        {
          "indexed": false,
          "name": "uri",
          "type": "string"
        }
      ],
      "name": "ClaimRequested",
      "type": "event"
    },
    {
      "anonymous": false,
      "inputs": [
        {
          "indexed": true,
          "name": "claimId",
          "type": "bytes32"
        },
        {
          "indexed": true,
          "name": "topic",
          "type": "uint256"
        },
        {
          "indexed": false,
          "name": "scheme",
          "type": "uint256"
        },
        {
          "indexed": true,
          "name": "issuer",
          "type": "address"
        },
        {
          "indexed": false,
          "name": "signature",
          "type": "bytes"
        },
        {
          "indexed": false,
          "name": "data",
          "type": "bytes"
        },
        {
          "indexed": false,
          "name": "uri",
          "type": "string"
        }
      ],
      "name": "ClaimAdded",
      "type": "event"
    },
    {
      "anonymous": false,
      "inputs": [
        {
          "indexed": true,
          "name": "claimId",
          "type": "bytes32"
        },
        {
          "indexed": true,
          "name": "topic",
          "type": "uint256"
        },
        {
          "indexed": false,
          "name": "scheme",
          "type": "uint256"
        },
        {
          "indexed": true,
          "name": "issuer",
          "type": "address"
        },
        {
          "indexed": false,
          "name": "signature",
          "type": "bytes"
        },
        {
          "indexed": false,
          "name": "data",
          "type": "bytes"
        },
        {
          "indexed": false,
          "name": "uri",
          "type": "string"
        }
      ],
      "name": "ClaimRemoved",
      "type": "event"
    },
    {
      "anonymous": false,
      "inputs": [
        {
          "indexed": true,
          "name": "claimId",
          "type": "bytes32"
        },
        {
          "indexed": true,
          "name": "topic",
          "type": "uint256"
        },
        {
          "indexed": false,
          "name": "scheme",
          "type": "uint256"
        },
        {
          "indexed": true,
          "name": "issuer",
          "type": "address"
        },
        {
          "indexed": false,
          "name": "signature",
          "type": "bytes"
        },
        {
          "indexed": false,
          "name": "data",
          "type": "bytes"
        },
        {
          "indexed": false,
          "name": "uri",
          "type": "string"
        }
      ],
      "name": "ClaimChanged",
      "type": "event"
    },
    {
      "anonymous": false,
      "inputs": [
        {
          "indexed": true,
          "name": "key",
          "type": "bytes32"
        },
        {
          "indexed": true,
          "name": "purpose",
          "type": "uint256"
        },
        {
          "indexed": true,
          "name": "keyType",
          "type": "uint256"
        }
      ],
      "name": "KeyAdded",
      "type": "event"
    },
    {
      "anonymous": false,
      "inputs": [
        {
          "indexed": true,
          "name": "key",
          "type": "bytes32"
        },
        {
          "indexed": true,
          "name": "purpose",
          "type": "uint256"
        },
        {
          "indexed": true,
          "name": "keyType",
          "type": "uint256"
        }
      ],
      "name": "KeyRemoved",
      "type": "event"
    },
    {
      "anonymous": false,
      "inputs": [
        {
          "indexed": true,
          "name": "executionId",
          "type": "uint256"
        },
        {
          "indexed": true,
          "name": "to",
          "type": "address"
        },
        {
          "indexed": true,
          "name": "value",
          "type": "uint256"
        },
        {
          "indexed": false,
          "name": "data",
          "type": "bytes"
        }
      ],
      "name": "ExecutionRequested",
      "type": "event"
    },
    {
      "anonymous": false,
      "inputs": [
        {
          "indexed": true,
          "name": "executionId",
          "type": "uint256"
        },
        {
          "indexed": true,
          "name": "to",
          "type": "address"
        },
        {
          "indexed": true,
          "name": "value",
          "type": "uint256"
        },
        {
          "indexed": false,
          "name": "data",
          "type": "bytes"
        }
      ],
      "name": "Executed",
      "type": "event"
    },
    {
      "anonymous": false,
      "inputs": [
        {
          "indexed": true,
          "name": "executionId",
          "type": "uint256"
        },
        {
          "indexed": false,
          "name": "approved",
          "type": "bool"
        }
      ],
      "name": "Approved",
      "type": "event"
    },
    {
      "anonymous": false,
      "inputs": [
        {
          "indexed": true,
          "name": "purpose",
          "type": "uint256"
        },
        {
          "indexed": true,
          "name": "number",
          "type": "uint256"
        }
      ],
      "name": "KeysRequiredChanged",
      "type": "event"
    },
    {
      "anonymous": false,
      "inputs": [
        {
          "indexed": true,
          "name": "executionId",
          "type": "uint256"
        },
        {
          "indexed": true,
          "name": "to",
          "type": "address"
        },
        {
          "indexed": true,
          "name": "value",
          "type": "uint256"
        },
        {
          "indexed": false,
          "name": "data",
          "type": "bytes"
        }
      ],
      "name": "ExecutionFailed",
      "type": "event"
    },
    {
      "anonymous": false,
      "inputs": [],
      "name": "LogPause",
      "type": "event"
    },
    {
      "anonymous": false,
      "inputs": [],
      "name": "LogUnpause",
      "type": "event"
    },
    {
      "constant": false,
      "inputs": [
        {
          "name": "_keys",
          "type": "bytes32[]"
        },
        {
          "name": "_purposes",
          "type": "uint256[]"
        },
        {
          "name": "_keyType",
          "type": "uint256"
        }
      ],
      "name": "addKeys",
      "outputs": [
        {
          "name": "success",
          "type": "bool"
        }
      ],
      "payable": false,
      "stateMutability": "nonpayable",
      "type": "function"
    },
    {
      "constant": false,
      "inputs": [
        {
          "name": "_tos",
          "type": "address[]"
        },
        {
          "name": "_values",
          "type": "uint256[]"
        },
        {
          "name": "_datas",
          "type": "bytes[]"
        }
      ],
      "name": "executeMany",
      "outputs": [],
      "payable": false,
      "stateMutability": "nonpayable",
      "type": "function"
    }
  ],
  "bytecode": "0x60806040526000600360006101000a81548160ff0219169083151502179055503480156200002c57600080fd5b506040516200384e3803806200384e833981018060405262000052919081019062000563565b6200008f6301ffc9a77c01000000000000000000000000000000000000000000000000000000000262000166640100000000026401000000009004565b620000cc63fccbffbc7c01000000000000000000000000000000000000000000000000000000000262000166640100000000026401000000009004565b6200010963107653797c01000000000000000000000000000000000000000000000000000000000262000166640100000000026401000000009004565b6200013f62000127846200025d640100000000026401000000009004565b6001806200028f640100000000026401000000009004565b6200015c82826001620002eb640100000000026401000000009004565b50505050620007d5565b63ffffffff7c010000000000000000000000000000000000000000000000000000000002817bffffffffffffffffffffffffffffffffffffffffffffffffffffffff191614151515620001f0576040517f08c379a0000000000000000000000000000000000000000000000000000000008152600401620001e79062000665565b60405180910390fd5b600160046000837bffffffffffffffffffffffffffffffffffffffffffffffffffffffff19167bffffffffffffffffffffffffffffffffffffffffffffffffffffffff1916815260200190815260200160002060006101000a81548160ff02191690831515021790555050565b60008160405160200162000272919062000648565b604051602081830303815290604052805190602001209050919050565b620002b78383836000620003636401000000000262001ae21790939291906401000000009004565b8082847f480000bb1edad8ca1470381cc334b1917fbd51c6531f3a623ea8e0ec7e38a6e960405160405180910390a4505050565b600080600090505b845181101562000357576200034985828151811015156200031057fe5b9060200190602002015185838151811015156200032957fe5b90602001906020020151856200028f640100000000026401000000009004565b8080600101915050620002f3565b50600190509392505050565b60008460000160008581526020019081526020016000209050828160000181905550600060010281600201541415620003a9578381600201819055508181600101819055505b84600101600084815260200190815260200160002084908060018154018082558091505090600182039060005260206000200160009091929091909150555084600201600081548092919060010191905055505050505050565b60006200041182516200074c565b905092915050565b600082601f83011215156200042d57600080fd5b8151620004446200043e82620006b5565b62000687565b915081818352602084019350602081019050838560208402820111156200046a57600080fd5b60005b838110156200049e578162000483888262000537565b8452602084019350602083019250506001810190506200046d565b5050505092915050565b600082601f8301121515620004bc57600080fd5b8151620004d3620004cd82620006de565b62000687565b91508181835260208401935060208101905083856020840282011115620004f957600080fd5b60005b838110156200052d57816200051288826200054d565b845260208401935060208301925050600181019050620004fc565b5050505092915050565b600062000545825162000760565b905092915050565b60006200055b82516200078a565b905092915050565b6000806000606084860312156200057957600080fd5b6000620005898682870162000403565b935050602084015167ffffffffffffffff811115620005a757600080fd5b620005b58682870162000419565b925050604084015167ffffffffffffffff811115620005d357600080fd5b620005e186828701620004a8565b9150509250925092565b62000600620005fa8262000718565b62000794565b82525050565b600062000615601c8362000707565b91507f4552433136353a20696e76616c696420696e74657266616365206964000000006000830152602082019050919050565b6000620006568284620005eb565b60148201915081905092915050565b60006020820190508181036000830152620006808162000606565b9050919050565b6000604051905081810181811067ffffffffffffffff82111715620006ab57600080fd5b8060405250919050565b600067ffffffffffffffff821115620006cd57600080fd5b602082029050602081019050919050565b600067ffffffffffffffff821115620006f657600080fd5b602082029050602081019050919050565b600082825260208201905092915050565b600062000725826200072c565b9050919050565b600073ffffffffffffffffffffffffffffffffffffffff82169050919050565b600062000759826200076a565b9050919050565b6000819050919050565b600073ffffffffffffffffffffffffffffffffffffffff82169050919050565b6000819050919050565b6000620007a182620007a8565b9050919050565b6000620007b582620007bc565b9050919050565b60006c0100000000000000000000000082029050919050565b61306980620007e56000396000f3fe608060405234801561001057600080fd5b5060043610610154576000357c0100000000000000000000000000000000000000000000000000000000900480638456cb59116100d5578063c9100bcb11610099578063c9100bcb146103cd578063c9d24ecc14610402578063cdb7bbd614610420578063d202158d14610450578063e590cf1814610480578063f76c92291461049c57610154565b80638456cb5914610303578063862642f51461030d5780639010f7261461033d578063b1a34e0d1461036d578063b61d27f61461039d57610154565b80634eee424a1161011c5780634eee424a146102255780635c975abb1461025557806363f14c3c146102735780636e4c4311146102a3578063747442d3146102d357610154565b806301ffc9a71461015957806312aaac70146101895780631d381240146101bb578063262b54f5146101eb5780633f4ba83a1461021b575b600080fd5b610173600480360361016e9190810190612320565b6104d0565b6040516101809190612a4e565b60405180910390f35b6101a3600480360361019e919081019061226c565b610538565b6040516101b293929190612c8d565b60405180910390f35b6101d560048036036101d091908101906122d1565b6105a3565b6040516101e29190612a4e565b60405180910390f35b61020560048036036102009190810190612349565b6106a4565b6040516102129190612a2c565b60405180910390f35b61022361070f565b005b61023f600480360361023a919081019061226c565b610773565b60405161024c9190612a4e565b60405180910390f35b61025d61099a565b60405161026a9190612a4e565b60405180910390f35b61028d600480360361028891908101906120c6565b6109ad565b60405161029a9190612a69565b60405180910390f35b6102bd60048036036102b891908101906123ae565b6109dd565b6040516102ca9190612973565b60405180910390f35b6102ed60048036036102e89190810190612372565b610a2a565b6040516102fa9190612a4e565b60405180910390f35b61030b610db5565b005b6103276004803603610322919081019061226c565b610e1a565b6040516103349190612a4e565b60405180910390f35b61035760048036036103529190810190612349565b610f7f565b6040516103649190612a2c565b60405180910390f35b610387600480360361038291908101906123ea565b610fed565b6040516103949190612a69565b60405180910390f35b6103b760048036036103b291908101906120ef565b6112dc565b6040516103c49190612b48565b60405180910390f35b6103e760048036036103e2919081019061226c565b6114d7565b6040516103f996959493929190612c17565b60405180910390f35b61040a611771565b6040516104179190612b48565b60405180910390f35b61043a600480360361043591908101906121ed565b61177d565b6040516104479190612a4e565b60405180910390f35b61046a60048036036104659190810190612295565b6117e0565b6040516104779190612a4e565b60405180910390f35b61049a60048036036104959190810190612156565b61183c565b005b6104b660048036036104b19190810190612349565b6118af565b6040516104c79594939291906129d2565b60405180910390f35b600060046000837bffffffffffffffffffffffffffffffffffffffffffffffffffffffff19167bffffffffffffffffffffffffffffffffffffffffffffffffffffffff1916815260200190815260200160002060009054906101000a900460ff169050919050565b6000806000610545611b81565b6000800160008681526020019081526020016000206060604051908101604052908160008201548152602001600182015481526020016002820154815250509050806000015193508060200151925080604001519150509193909250565b6000600360009054906101000a900460ff161515156105c157600080fd5b6105d7848460006119b79092919063ffffffff16565b156105e5576000905061069d565b3073ffffffffffffffffffffffffffffffffffffffff163373ffffffffffffffffffffffffffffffffffffffff1614151561068d5761064b3360405160200161062e919061298e565b6040516020818303038152906040528051906020012060016117e0565b151561068c576040517f08c379a000000000000000000000000000000000000000000000000000000000815260040161068390612b28565b60405180910390fd5b5b610698848484611a40565b600190505b9392505050565b60606009600083815260200190815260200160002080548060200260200160405190810160405280929190818152602001828054801561070357602002820191906000526020600020905b8154815260200190600101908083116106ef575b50505050509050919050565b600360009054906101000a900460ff16151561072a57600080fd5b6000600360006101000a81548160ff0219169083151502179055507f730c1faaa977b67dacf1e2451ef54556e04a07d577785ff79f6d31f73502efc960405160405180910390a1565b60003073ffffffffffffffffffffffffffffffffffffffff163373ffffffffffffffffffffffffffffffffffffffff1614151561081d576107db336040516020016107be919061298e565b6040516020818303038152906040528051906020012060036117e0565b151561081c576040517f08c379a000000000000000000000000000000000000000000000000000000000815260040161081390612ae8565b60405180910390fd5b5b6008600083815260200190815260200160002060020160009054906101000a900473ffffffffffffffffffffffffffffffffffffffff1673ffffffffffffffffffffffffffffffffffffffff166008600084815260200190815260200160002060000154837f3cf57863a89432c61c4a27073c6ee39e8a764bff5a05aebfbcdcdc80b2e6130a60086000878152602001908152602001600020600101546008600088815260200190815260200160002060030160086000898152602001908152602001600020600401600860008a815260200190815260200160002060050160405161090c9493929190612bbd565b60405180910390a46008600083815260200190815260200160002060008082016000905560018201600090556002820160006101000a81549073ffffffffffffffffffffffffffffffffffffffff021916905560038201600061096f9190611ba6565b60048201600061097f9190611ba6565b60058201600061098f9190611bee565b505060019050919050565b600360009054906101000a900460ff1681565b6000816040516020016109c09190612941565b604051602081830303815290604052805190602001209050919050565b6007602052816000526040600020818154811015156109f857fe5b906000526020600020016000915091509054906101000a900473ffffffffffffffffffffffffffffffffffffffff1681565b6000610a5d33604051602001610a40919061298e565b6040516020818303038152906040528051906020012060026117e0565b1515610a9e576040517f08c379a0000000000000000000000000000000000000000000000000000000008152600401610a9590612ac8565b60405180910390fd5b827fb3932da477fe5d6c8ff2eafef050c0f3a1af18fc07121001482600f36f3715d883604051610ace9190612a4e565b60405180910390a26060600115158315151415610d7a5760016006600086815260200190815260200160002060030160006101000a81548160ff0219169083151502179055506006600085815260200190815260200160002060000160009054906101000a900473ffffffffffffffffffffffffffffffffffffffff1673ffffffffffffffffffffffffffffffffffffffff1660066000868152602001908152602001600020600201604051610b84919061295c565b6000604051808303816000865af19150503d8060008114610bc1576040519150601f19603f3d011682016040523d82523d6000602084013e610bc6565b606091505b5080925081935050508115610cbf5760016006600086815260200190815260200160002060030160016101000a81548160ff02191690831515021790555060066000858152602001908152602001600020600101546006600086815260200190815260200160002060000160009054906101000a900473ffffffffffffffffffffffffffffffffffffffff1673ffffffffffffffffffffffffffffffffffffffff16857f1f920dbda597d7bf95035464170fa58d0a4b57f13a1c315ace6793b9f63688b860066000898152602001908152602001600020600201604051610cad9190612aa6565b60405180910390a46001915050610daf565b60066000858152602001908152602001600020600101546006600086815260200190815260200160002060000160009054906101000a900473ffffffffffffffffffffffffffffffffffffffff1673ffffffffffffffffffffffffffffffffffffffff16857fe10c49d9f7c71da23262367013434763cfdb2332267641728d25cd712c5c6a6860066000898152602001908152602001600020600201604051610d689190612aa6565b60405180910390a46000915050610daf565b60006006600086815260200190815260200160002060030160006101000a81548160ff02191690831515021790555060019150505b92915050565b600360009054906101000a900460ff16151515610dd157600080fd5b6001600360006101000a81548160ff0219169083151502179055507f4b314b34e912fda7f95e7d23e9c8c95f82f0aff1984e4ce592a0b005f905562460405160405180910390a1565b6000600360009054906101000a900460ff16151515610e3857600080fd5b3073ffffffffffffffffffffffffffffffffffffffff163373ffffffffffffffffffffffffffffffffffffffff16141515610ee057610e9e33604051602001610e81919061298e565b6040516020818303038152906040528051906020012060016117e0565b1515610edf576040517f08c379a0000000000000000000000000000000000000000000000000000000008152600401610ed690612b28565b60405180910390fd5b5b610ee8611b81565b600080016000848152602001908152602001600020606060405190810160405290816000820154815260200160018201548152602001600282015481525050905080602001518160000151847f585a4aef50f8267a92b32412b331b20f7f8b96f2245b253b9cc50dcc621d339760405160405180910390a4610f74836000611a8c90919063ffffffff16565b506001915050919050565b606060006001016000838152602001908152602001600020805480602002602001604051908101604052809291908181526020018280548015610fe157602002820191906000526020600020905b815481526020019060010190808311610fcd575b50505050509050919050565b60008085886040516020016110039291906129a9565b6040516020818303038152906040528051906020012090503073ffffffffffffffffffffffffffffffffffffffff163373ffffffffffffffffffffffffffffffffffffffff161415156110c35761108133604051602001611064919061298e565b6040516020818303038152906040528051906020012060036117e0565b15156110c2576040517f08c379a00000000000000000000000000000000000000000000000000000000081526004016110b990612ae8565b60405180910390fd5b5b8573ffffffffffffffffffffffffffffffffffffffff166008600083815260200190815260200160002060020160009054906101000a900473ffffffffffffffffffffffffffffffffffffffff1673ffffffffffffffffffffffffffffffffffffffff1614151561116c57600960008981526020019081526020016000208190806001815401808255809150509060018203906000526020600020016000909192909190915055505b876008600083815260200190815260200160002060000181905550866008600083815260200190815260200160002060010181905550856008600083815260200190815260200160002060020160006101000a81548173ffffffffffffffffffffffffffffffffffffffff021916908373ffffffffffffffffffffffffffffffffffffffff16021790555084600860008381526020019081526020016000206003019080519060200190611221929190611c36565b508360086000838152602001908152602001600020600401908051906020019061124c929190611c36565b5082600860008381526020019081526020016000206005019080519060200190611277929190611cb6565b508573ffffffffffffffffffffffffffffffffffffffff1688827f46149b18aa084502c3f12bc75e19eda8bda8d102b82cce8474677a6d0d5f43c58a8989896040516112c69493929190612b63565b60405180910390a4809150509695505050505050565b600060066000600554815260200190815260200160002060030160019054906101000a900460ff16151515611346576040517f08c379a000000000000000000000000000000000000000000000000000000000815260040161133d90612b08565b60405180910390fd5b8360066000600554815260200190815260200160002060000160006101000a81548173ffffffffffffffffffffffffffffffffffffffff021916908373ffffffffffffffffffffffffffffffffffffffff16021790555082600660006005548152602001908152602001600020600101819055508160066000600554815260200190815260200160002060020190805190602001906113e6929190611c36565b50828473ffffffffffffffffffffffffffffffffffffffff166005547f8afcfabcb00e47a53a8fc3e9f23ff47ee1926194bb1350dd007c50b412a6cee8856040516114319190612a84565b60405180910390a461146a3360405160200161144d919061298e565b6040516020818303038152906040528051906020012060016117e0565b806114a257506114a133604051602001611484919061298e565b6040516020818303038152906040528051906020012060026117e0565b5b156114b6576114b46005546001610a2a565b505b60056000815480929190600101919050555060016005540390509392505050565b6000806000606080606060086000888152602001908152602001600020600001546008600089815260200190815260200160002060010154600860008a815260200190815260200160002060020160009054906101000a900473ffffffffffffffffffffffffffffffffffffffff16600860008b8152602001908152602001600020600301600860008c8152602001908152602001600020600401600860008d8152602001908152602001600020600501828054600181600116156101000203166002900480601f01602080910402602001604051908101604052809291908181526020018280546001816001161561010002031660029004801561161d5780601f106115f25761010080835404028352916020019161161d565b820191906000526020600020905b81548152906001019060200180831161160057829003601f168201915b50505050509250818054600181600116156101000203166002900480601f0160208091040260200160405190810160405280929190818152602001828054600181600116156101000203166002900480156116b95780601f1061168e576101008083540402835291602001916116b9565b820191906000526020600020905b81548152906001019060200180831161169c57829003601f168201915b50505050509150808054600181600116156101000203166002900480601f0160208091040260200160405190810160405280929190818152602001828054600181600116156101000203166002900480156117555780601f1061172a57610100808354040283529160200191611755565b820191906000526020600020905b81548152906001019060200180831161173857829003601f168201915b5050505050905095509550955095509550955091939550919395565b60008060020154905090565b600080600090505b84518110156117d4576117c7858281518110151561179f57fe5b9060200190602002015185838151811015156117b757fe5b9060200190602002015185611a40565b8080600101915050611785565b50600190509392505050565b60006117ea611b81565b6000800160008581526020019081526020016000206060604051908101604052908160008201548152602001600182015481526020016002820154815250509050828160000151111591505092915050565b60008090505b83518110156118a95761189b848281518110151561185c57fe5b90602001906020020151848381518110151561187457fe5b90602001906020020151848481518110151561188c57fe5b906020019060200201516112dc565b508080600101915050611842565b50505050565b60066020528060005260406000206000915090508060000160009054906101000a900473ffffffffffffffffffffffffffffffffffffffff1690806001015490806002018054600181600116156101000203166002900480601f0160208091040260200160405190810160405280929190818152602001828054600181600116156101000203166002900480156119875780601f1061195c57610100808354040283529160200191611987565b820191906000526020600020905b81548152906001019060200180831161196a57829003601f168201915b5050505050908060030160009054906101000a900460ff16908060030160019054906101000a900460ff16905085565b60006119c1611b81565b8460000160008581526020019081526020016000206060604051908101604052908160008201548152602001600182015481526020016002820154815250509050600060010281604001511415611a1c576000915050611a39565b828160000151111515611a33576001915050611a39565b60009150505b9392505050565b611a588383836000611ae2909392919063ffffffff16565b8082847f480000bb1edad8ca1470381cc334b1917fbd51c6531f3a623ea8e0ec7e38a6e960405160405180910390a4505050565b600082600001600083815260200190815260200160002060010154905082600001600083815260200190815260200160002060008082016000905560018201600090556002820160009055505080905092915050565b60008460000160008581526020019081526020016000209050828160000181905550600060010281600201541415611b27578381600201819055508181600101819055505b84600101600084815260200190815260200160002084908060018154018082558091505090600182039060005260206000200160009091929091909150555084600201600081548092919060010191905055505050505050565b6060604051908101604052806000815260200160008152602001600080191681525090565b50805460018160011615610100020316600290046000825580601f10611bcc5750611beb565b601f016020900490600052602060002090810190611bea9190611d36565b5b50565b50805460018160011615610100020316600290046000825580601f10611c145750611c33565b601f016020900490600052602060002090810190611c329190611d36565b5b50565b828054600181600116156101000203166002900490600052602060002090601f016020900481019282601f10611c7757805160ff1916838001178555611ca5565b82800160010185558215611ca5579182015b82811115611ca4578251825591602001919060010190611c89565b5b509050611cb29190611d36565b5090565b828054600181600116156101000203166002900490600052602060002090601f016020900481019282601f10611cf757805160ff1916838001178555611d25565b82800160010185558215611d25579182015b82811115611d24578251825591602001919060010190611d09565b5b509050611d329190611d36565b5090565b611d5891905b80821115611d54576000816000905550600101611d3c565b5090565b90565b6000611d678235612f21565b905092915050565b600082601f8301121515611d8257600080fd5b8135611d95611d9082612cf1565b612cc4565b91508181835260208401935060208101905083856020840282011115611dba57600080fd5b60005b83811015611dea5781611dd08882611d5b565b845260208401935060208301925050600181019050611dbd565b5050505092915050565b600082601f8301121515611e0757600080fd5b8135611e1a611e1582612d19565b612cc4565b91508181835260208401935060208101905083856020840282011115611e3f57600080fd5b60005b83811015611e6f5781611e558882611f88565b845260208401935060208301925050600181019050611e42565b5050505092915050565b600082601f8301121515611e8c57600080fd5b8135611e9f611e9a82612d41565b612cc4565b9150818183526020840193506020810190508360005b83811015611ee55781358601611ecb8882611fb0565b845260208401935060208301925050600181019050611eb5565b5050505092915050565b600082601f8301121515611f0257600080fd5b8135611f15611f1082612d69565b612cc4565b91508181835260208401935060208101905083856020840282011115611f3a57600080fd5b60005b83811015611f6a5781611f5088826120b2565b845260208401935060208301925050600181019050611f3d565b5050505092915050565b6000611f808235612f33565b905092915050565b6000611f948235612f3f565b905092915050565b6000611fa88235612f49565b905092915050565b600082601f8301121515611fc357600080fd5b8135611fd6611fd182612d91565b612cc4565b91508082526020830160208301858383011115611ff257600080fd5b611ffd838284612f9f565b50505092915050565b600082601f830112151561201957600080fd5b813561202c61202782612dbd565b612cc4565b9150808252602083016020830185838301111561204857600080fd5b612053838284612f9f565b50505092915050565b600082601f830112151561206f57600080fd5b813561208261207d82612de9565b612cc4565b9150808252602083016020830185838301111561209e57600080fd5b6120a9838284612f9f565b50505092915050565b60006120be8235612f95565b905092915050565b6000602082840312156120d857600080fd5b60006120e684828501611d5b565b91505092915050565b60008060006060848603121561210457600080fd5b600061211286828701611d5b565b9350506020612123868287016120b2565b925050604084013567ffffffffffffffff81111561214057600080fd5b61214c86828701612006565b9150509250925092565b60008060006060848603121561216b57600080fd5b600084013567ffffffffffffffff81111561218557600080fd5b61219186828701611d6f565b935050602084013567ffffffffffffffff8111156121ae57600080fd5b6121ba86828701611eef565b925050604084013567ffffffffffffffff8111156121d757600080fd5b6121e386828701611e79565b9150509250925092565b60008060006060848603121561220257600080fd5b600084013567ffffffffffffffff81111561221c57600080fd5b61222886828701611df4565b935050602084013567ffffffffffffffff81111561224557600080fd5b61225186828701611eef565b9250506040612262868287016120b2565b9150509250925092565b60006020828403121561227e57600080fd5b600061228c84828501611f88565b91505092915050565b600080604083850312156122a857600080fd5b60006122b685828601611f88565b92505060206122c7858286016120b2565b9150509250929050565b6000806000606084860312156122e657600080fd5b60006122f486828701611f88565b9350506020612305868287016120b2565b9250506040612316868287016120b2565b9150509250925092565b60006020828403121561233257600080fd5b600061234084828501611f9c565b91505092915050565b60006020828403121561235b57600080fd5b6000612369848285016120b2565b91505092915050565b6000806040838503121561238557600080fd5b6000612393858286016120b2565b92505060206123a485828601611f74565b9150509250929050565b600080604083850312156123c157600080fd5b60006123cf858286016120b2565b92505060206123e0858286016120b2565b9150509250929050565b60008060008060008060c0878903121561240357600080fd5b600061241189828a016120b2565b965050602061242289828a016120b2565b955050604061243389828a01611d5b565b945050606087013567ffffffffffffffff81111561245057600080fd5b61245c89828a01612006565b935050608087013567ffffffffffffffff81111561247957600080fd5b61248589828a01612006565b92505060a087013567ffffffffffffffff8111156124a257600080fd5b6124ae89828a0161205c565b9150509295509295509295565b60006124c78383612571565b60208301905092915050565b6124dc81612ecf565b82525050565b6124eb81612ebd565b82525050565b6125026124fd82612ebd565b612fe1565b82525050565b600061251382612e46565b61251d8185612e7f565b935061252883612e15565b60005b828110156125565761253e8683516124bb565b955061254982612e72565b915060018101905061252b565b50849250505092915050565b61256b81612ee1565b82525050565b61257a81612eed565b82525050565b61258981612eed565b82525050565b600061259a82612e5c565b6125a48185612e90565b93506125b4818560208601612fae565b6125bd81613005565b840191505092915050565b60006125d382612e51565b6125dd8185612e90565b93506125ed818560208601612fae565b6125f681613005565b840191505092915050565b60008154600181166000811461261e576001811461264457612688565b607f600283041661262f8187612e90565b955060ff198316865260208601935050612688565b600282046126528187612e90565b955061265d85612e22565b60005b8281101561267f57815481890152600182019150602081019050612660565b80880195505050505b505092915050565b6000815460018116600081146126ad57600181146126d257612716565b607f60028304166126be8187612ea1565b955060ff1983168652808601935050612716565b600282046126e08187612ea1565b95506126eb85612e22565b60005b8281101561270d578154818901526001820191506020810190506126ee565b82880195505050505b505092915050565b600061272982612e67565b6127338185612eac565b9350612743818560208601612fae565b61274c81613005565b840191505092915050565b600081546001811660008114612774576001811461279a576127de565b607f60028304166127858187612eac565b955060ff1983168652602086019350506127de565b600282046127a88187612eac565b95506127b385612e34565b60005b828110156127d5578154818901526001820191506020810190506127b6565b80880195505050505b505092915050565b60006127f3601f83612eac565b91507f53656e64657220646f6573206e6f74206861766520616374696f6e206b6579006000830152602082019050919050565b6000612833602583612eac565b91507f53656e64657220646f6573206e6f74206861766520636c61696d207369676e6560008301527f72206b65790000000000000000000000000000000000000000000000000000006020830152604082019050919050565b6000612899601083612eac565b91507f416c7265616479206578656375746564000000000000000000000000000000006000830152602082019050919050565b60006128d9602383612eac565b91507f53656e64657220646f6573206e6f742068617665206d616e6167656d656e742060008301527f6b657900000000000000000000000000000000000000000000000000000000006020830152604082019050919050565b61293b81612f17565b82525050565b600061294d82846124f1565b60148201915081905092915050565b60006129688284612690565b915081905092915050565b600060208201905061298860008301846124e2565b92915050565b60006020820190506129a360008301846124d3565b92915050565b60006040820190506129be60008301856124e2565b6129cb6020830184612932565b9392505050565b600060a0820190506129e760008301886124e2565b6129f46020830187612932565b8181036040830152612a0681866125c8565b9050612a156060830185612562565b612a226080830184612562565b9695505050505050565b60006020820190508181036000830152612a468184612508565b905092915050565b6000602082019050612a636000830184612562565b92915050565b6000602082019050612a7e6000830184612580565b92915050565b60006020820190508181036000830152612a9e818461258f565b905092915050565b60006020820190508181036000830152612ac08184612601565b905092915050565b60006020820190508181036000830152612ae1816127e6565b9050919050565b60006020820190508181036000830152612b0181612826565b9050919050565b60006020820190508181036000830152612b218161288c565b9050919050565b60006020820190508181036000830152612b41816128cc565b9050919050565b6000602082019050612b5d6000830184612932565b92915050565b6000608082019050612b786000830187612932565b8181036020830152612b8a818661258f565b90508181036040830152612b9e818561258f565b90508181036060830152612bb2818461271e565b905095945050505050565b6000608082019050612bd26000830187612932565b8181036020830152612be48186612601565b90508181036040830152612bf88185612601565b90508181036060830152612c0c8184612757565b905095945050505050565b600060c082019050612c2c6000830189612932565b612c396020830188612932565b612c4660408301876124e2565b8181036060830152612c58818661258f565b90508181036080830152612c6c818561258f565b905081810360a0830152612c80818461271e565b9050979650505050505050565b6000606082019050612ca26000830186612932565b612caf6020830185612932565b612cbc6040830184612580565b949350505050565b6000604051905081810181811067ffffffffffffffff82111715612ce757600080fd5b8060405250919050565b600067ffffffffffffffff821115612d0857600080fd5b602082029050602081019050919050565b600067ffffffffffffffff821115612d3057600080fd5b602082029050602081019050919050565b600067ffffffffffffffff821115612d5857600080fd5b602082029050602081019050919050565b600067ffffffffffffffff821115612d8057600080fd5b602082029050602081019050919050565b600067ffffffffffffffff821115612da857600080fd5b601f19601f8301169050602081019050919050565b600067ffffffffffffffff821115612dd457600080fd5b601f19601f8301169050602081019050919050565b600067ffffffffffffffff821115612e0057600080fd5b601f19601f8301169050602081019050919050565b6000602082019050919050565b60008160005260206000209050919050565b60008160005260206000209050919050565b600081519050919050565b600081519050919050565b600081519050919050565b600081519050919050565b6000602082019050919050565b600082825260208201905092915050565b600082825260208201905092915050565b600081905092915050565b600082825260208201905092915050565b6000612ec882612ef7565b9050919050565b6000612eda82612ef7565b9050919050565b60008115159050919050565b6000819050919050565b600073ffffffffffffffffffffffffffffffffffffffff82169050919050565b6000819050919050565b6000612f2c82612f75565b9050919050565b60008115159050919050565b6000819050919050565b60007fffffffff0000000000000000000000000000000000000000000000000000000082169050919050565b600073ffffffffffffffffffffffffffffffffffffffff82169050919050565b6000819050919050565b82818337600083830152505050565b60005b83811015612fcc578082015181840152602081019050612fb1565b83811115612fdb576000848401525b50505050565b6000612fec82612ff3565b9050919050565b6000612ffe82613016565b9050919050565b6000601f19601f8301169050919050565b60006c010000000000000000000000008202905091905056fea265627a7a72305820df0b408dbaabc5d5b9f5dad2051ef7b5ed11a1ca58c9d3bb508b5bb0b20a00426c6578706572696d656e74616cf50037",
  "source": "pragma solidity ^0.5.4;\npragma experimental ABIEncoderV2;\nimport \"../libraries/ClaimManager.sol\";\nimport \"../libraries/KeyManager.sol\";\nimport \"../libraries/Encoder.sol\";\nimport \"../interfaces/bases/IIdentity.sol\";\n\ncontract Identity is KeyManager, ClaimManager, IIdentity {\n    constructor(address _owner, bytes32[] memory _keys, uint256[] memory _purposes) public {\n        _addKey(addrToKey(_owner), 1, ECDSA_TYPE);\n        addKeys(_keys, _purposes, ECDSA_TYPE);\n    }\n\n    function addKeys(bytes32[] memory _keys, uint256[] memory _purposes, uint256 _keyType) public returns (bool success) {\n        for (uint i = 0; i < _keys.length; i++) {\n            _addKey(_keys[i], _purposes[i], _keyType);\n        }\n        \n        return true;\n    }\n\n    function executeMany(address[] memory _tos, uint256[] memory _values, bytes[] memory _datas) public {\n        for (uint i = 0; i < _tos.length; i++) {\n            execute(_tos[i], _values[i], _datas[i]);\n        }\n    }\n}\n",
  "sourcePath": "/home/duchuy/Documents/bach_khoa/luan_van/ecs/ecs-smart-contracts/contracts/bases/Identity.sol",
  "compiler": {
    "name": "solc",
    "version": "0.5.4+commit.9549d8ff.Emscripten.clang"
  },
  "schemaVersion": "3.4.1",
  "updatedAt": "2021-11-01T14:38:10.898Z",
  "devdoc": {
    "methods": {
      "addKey(bytes32,uint256,uint256)": {
        "details": "Add key data to the identity if key + purpose tuple doesn't already exist",
        "params": {
          "_key": "Key bytes to add",
          "_keyType": "Key type to add",
          "_purpose": "Purpose to add"
        },
        "return": "`true` if key was added, `false` if it already exists"
      },
      "addrToKey(address)": {
        "details": "Convert an Ethereum address (20 bytes) to an ERC725 key (32 bytes)"
      },
      "getKeysByPurpose(uint256)": {
        "details": "Find all the keys held by this identity for a given purpose",
        "params": {
          "_purpose": "Purpose to find"
        },
        "return": "Array with key bytes for that purpose (empty if none)"
      },
      "keyHasPurpose(bytes32,uint256)": {
        "details": "Find if a key has is present and has the given purpose",
        "params": {
          "_key": "Key bytes to find",
          "purpose": "Purpose to find"
        },
        "return": "Boolean indicating whether the key exists or not"
      },
      "numKeys()": {
        "details": "Number of keys managed by the contract",
        "return": "Unsigned integer number of keys"
      },
      "pause()": {
        "details": "called by a MANAGEMENT_KEY or the identity itself to pause, triggers stopped state"
      },
      "removeKey(bytes32)": {
        "details": "Remove key data from the identity",
        "params": {
          "_key": "Key bytes to remove"
        },
        "return": "`true` if key was found and removed, `false` if it wasn't found"
      },
      "supportsInterface(bytes4)": {
        "details": "See {IERC165-supportsInterface}.     * Time complexity O(1), guaranteed to always use less than 30 000 gas."
      },
      "unpause()": {
        "details": "called by a MANAGEMENT_KEY or the identity itself to unpause, returns to normal state"
      }
    }
  },
  "userdoc": {
    "methods": {}
  }
}