{
  "abi": [
    {
      "constant": true,
      "inputs": [
        {
          "internalType": "address",
          "name": "addr",
          "type": "address"
        }
      ],
      "name": "addrToKey",
      "outputs": [
        {
          "internalType": "bytes32",
          "name": "",
          "type": "bytes32"
        }
      ],
      "payable": false,
      "stateMutability": "pure",
      "type": "function"
    },
    {
      "constant": true,
      "inputs": [],
      "name": "numKeys",
      "outputs": [
        {
          "internalType": "uint256",
          "name": "",
          "type": "uint256"
        }
      ],
      "payable": false,
      "stateMutability": "view",
      "type": "function"
    }
  ],
  "bytecode": "608060405234801561001057600080fd5b5060e98061001f6000396000f3fe6080604052348015600f57600080fd5b506004361060325760003560e01c806363f14c3c146037578063c9d24ecc14606c575b600080fd5b605a60048036036020811015604b57600080fd5b50356001600160a01b03166072565b60408051918252519081900360200190f35b605a60ae565b6040805160609290921b6bffffffffffffffffffffffff1916602080840191909152815160148185030181526034909301909152815191012090565b6002549056fea265627a7a72315820aefdc321d917931b2fa65a5b66021b64ba5b972c98f770552076a8dbfaee1dcb64736f6c63430005110032",
  "bytecodeSha1": "66c39aba42c57413546e1932cb406ed78faccf6c",
  "compiler": {
    "evm_version": "istanbul",
    "optimizer": {
      "enabled": true,
      "runs": 200
    },
    "version": "0.5.17+commit.d19bba13"
  },
  "contractName": "KeyBase",
  "language": "Solidity",
  "natspec": {
    "author": "Mircea Pasoi",
    "details": "Key data is stored using KeyStore library",
    "methods": {
      "addrToKey(address)": {
        "details": "Convert an Ethereum address (20 bytes) to an ERC725 key (32 bytes)"
      },
      "numKeys()": {
        "details": "Number of keys managed by the contract",
        "return": "Unsigned integer number of keys"
      }
    },
    "notice": "Abstract contract for ERC725 implementation",
    "title": "KeyBase"
  },
  "opcodes": "PUSH1 0x80 PUSH1 0x40 MSTORE CALLVALUE DUP1 ISZERO PUSH1 0xF JUMPI PUSH1 0x0 DUP1 REVERT JUMPDEST POP PUSH1 0x4 CALLDATASIZE LT PUSH1 0x32 JUMPI PUSH1 0x0 CALLDATALOAD PUSH1 0xE0 SHR DUP1 PUSH4 0x63F14C3C EQ PUSH1 0x37 JUMPI DUP1 PUSH4 0xC9D24ECC EQ PUSH1 0x6C JUMPI JUMPDEST PUSH1 0x0 DUP1 REVERT JUMPDEST PUSH1 0x5A PUSH1 0x4 DUP1 CALLDATASIZE SUB PUSH1 0x20 DUP2 LT ISZERO PUSH1 0x4B JUMPI PUSH1 0x0 DUP1 REVERT JUMPDEST POP CALLDATALOAD PUSH1 0x1 PUSH1 0x1 PUSH1 0xA0 SHL SUB AND PUSH1 0x72 JUMP JUMPDEST PUSH1 0x40 DUP1 MLOAD SWAP2 DUP3 MSTORE MLOAD SWAP1 DUP2 SWAP1 SUB PUSH1 0x20 ADD SWAP1 RETURN JUMPDEST PUSH1 0x5A PUSH1 0xAE JUMP JUMPDEST PUSH1 0x40 DUP1 MLOAD PUSH1 0x60 SWAP3 SWAP1 SWAP3 SHL PUSH12 0xFFFFFFFFFFFFFFFFFFFFFFFF NOT AND PUSH1 0x20 DUP1 DUP5 ADD SWAP2 SWAP1 SWAP2 MSTORE DUP2 MLOAD PUSH1 0x14 DUP2 DUP6 SUB ADD DUP2 MSTORE PUSH1 0x34 SWAP1 SWAP4 ADD SWAP1 SWAP2 MSTORE DUP2 MLOAD SWAP2 ADD KECCAK256 SWAP1 JUMP JUMPDEST PUSH1 0x2 SLOAD SWAP1 JUMP INVALID LOG2 PUSH6 0x627A7A723158 KECCAK256 0xAE REVERT 0xC3 0x21 0xD9 OR SWAP4 SHL 0x2F 0xA6 GAS JUMPDEST PUSH7 0x21B64BA5B972C SWAP9 0xF7 PUSH17 0x552076A8DBFAEE1DCB64736F6C63430005 GT STOP ORIGIN ",
  "sha1": "6d9b2b6e07d2c3c2af41880dd3536ff88a204192",
  "source": "pragma solidity ^0.5.4;\n\nlibrary KeyStore {\n    struct Key {\n        uint256 purpose; //e.g., MANAGEMENT_KEY = 1, EXECUTION_KEY = 2, etc.\n        uint256 keyType; // e.g. 1 = ECDSA, 2 = RSA, etc.\n        bytes32 key; // for non-hex and long keys, its the Keccak256 hash of the key\n    }\n\n    struct Keys {\n        mapping (bytes32 => Key) keyData;\n        mapping (uint256 => bytes32[]) keysByPurpose;\n        uint numKeys;\n    }\n\n    /// @dev Find a key + purpose tuple\n    /// @param key Key bytes to find\n    /// @param purpose Purpose to find\n    /// @return `true` if key + purpose tuple if found\n    function find(Keys storage self, bytes32 key, uint256 purpose)\n        internal\n        view\n        returns (bool)\n    {\n        Key memory k = self.keyData[key];\n        if (k.key == 0) {\n            return false;\n        }\n        if (k.purpose <= purpose) {\n            return true;\n        }\n        return false;\n    }\n    \n\n    /// @dev Add a Key\n    /// @param key Key bytes to add\n    /// @param purpose Purpose to add\n    /// @param keyType Key type to add\n    function add(Keys storage self, bytes32 key, uint256 purpose, uint256 keyType)\n        internal\n        \n    {\n        Key storage k = self.keyData[key];\n        k.purpose = purpose;\n        if (k.key == 0) {\n            k.key = key;\n            k.keyType = keyType;\n        }\n        self.keysByPurpose[purpose].push(key);\n        self.numKeys++;\n    }\n\n    /// @dev Remove Key\n    /// @param key Key bytes to remove\n    /// @return Key type of the key that was removed\n    function remove(Keys storage self, bytes32 key)\n        internal\n        returns (uint256 keyType)\n    {\n        keyType = self.keyData[key].keyType;\n        // Delete purpose from keyData\n        delete self.keyData[key];\n        \n        return keyType;\n    }\n}\n\n\n/// @title KeyBase\n/// @author Mircea Pasoi\n/// @notice Abstract contract for ERC725 implementation\n/// @dev Key data is stored using KeyStore library\n\ncontract KeyBase {\n    // Key storage\n    using KeyStore for KeyStore.Keys;\n    KeyStore.Keys internal allKeys;\n\n    /// @dev Number of keys managed by the contract\n    /// @return Unsigned integer number of keys\n    function numKeys()\n        external\n        view\n        returns (uint)\n    {\n        return allKeys.numKeys;\n    }\n\n    /// @dev Convert an Ethereum address (20 bytes) to an ERC725 key (32 bytes)\n    function addrToKey(address addr)\n        public\n        pure\n        returns (bytes32)\n    {\n        return keccak256(abi.encodePacked(addr));\n    }\n}\n",
  "sourcePath": "contracts/libraries/KeyBase.sol",
  "type": "contract"
}