{
  "abi": [
    {
      "anonymous": false,
      "inputs": [
        {
          "indexed": true,
          "internalType": "uint256",
          "name": "executionId",
          "type": "uint256"
        },
        {
          "indexed": false,
          "internalType": "bool",
          "name": "approved",
          "type": "bool"
        }
      ],
      "name": "Approved",
      "type": "event"
    },
    {
      "anonymous": false,
      "inputs": [
        {
          "indexed": true,
          "internalType": "uint256",
          "name": "executionId",
          "type": "uint256"
        },
        {
          "indexed": true,
          "internalType": "address",
          "name": "to",
          "type": "address"
        },
        {
          "indexed": true,
          "internalType": "uint256",
          "name": "value",
          "type": "uint256"
        },
        {
          "indexed": false,
          "internalType": "bytes",
          "name": "data",
          "type": "bytes"
        }
      ],
      "name": "Executed",
      "type": "event"
    },
    {
      "anonymous": false,
      "inputs": [
        {
          "indexed": true,
          "internalType": "uint256",
          "name": "executionId",
          "type": "uint256"
        },
        {
          "indexed": true,
          "internalType": "address",
          "name": "to",
          "type": "address"
        },
        {
          "indexed": true,
          "internalType": "uint256",
          "name": "value",
          "type": "uint256"
        },
        {
          "indexed": false,
          "internalType": "bytes",
          "name": "data",
          "type": "bytes"
        }
      ],
      "name": "ExecutionFailed",
      "type": "event"
    },
    {
      "anonymous": false,
      "inputs": [
        {
          "indexed": true,
          "internalType": "uint256",
          "name": "executionId",
          "type": "uint256"
        },
        {
          "indexed": true,
          "internalType": "address",
          "name": "to",
          "type": "address"
        },
        {
          "indexed": true,
          "internalType": "uint256",
          "name": "value",
          "type": "uint256"
        },
        {
          "indexed": false,
          "internalType": "bytes",
          "name": "data",
          "type": "bytes"
        }
      ],
      "name": "ExecutionRequested",
      "type": "event"
    },
    {
      "anonymous": false,
      "inputs": [
        {
          "indexed": true,
          "internalType": "bytes32",
          "name": "key",
          "type": "bytes32"
        },
        {
          "indexed": true,
          "internalType": "uint256",
          "name": "purpose",
          "type": "uint256"
        },
        {
          "indexed": true,
          "internalType": "uint256",
          "name": "keyType",
          "type": "uint256"
        }
      ],
      "name": "KeyAdded",
      "type": "event"
    },
    {
      "anonymous": false,
      "inputs": [
        {
          "indexed": true,
          "internalType": "bytes32",
          "name": "key",
          "type": "bytes32"
        },
        {
          "indexed": true,
          "internalType": "uint256",
          "name": "purpose",
          "type": "uint256"
        },
        {
          "indexed": true,
          "internalType": "uint256",
          "name": "keyType",
          "type": "uint256"
        }
      ],
      "name": "KeyRemoved",
      "type": "event"
    },
    {
      "anonymous": false,
      "inputs": [
        {
          "indexed": true,
          "internalType": "uint256",
          "name": "purpose",
          "type": "uint256"
        },
        {
          "indexed": true,
          "internalType": "uint256",
          "name": "number",
          "type": "uint256"
        }
      ],
      "name": "KeysRequiredChanged",
      "type": "event"
    },
    {
      "anonymous": false,
      "inputs": [],
      "name": "LogPause",
      "type": "event"
    },
    {
      "anonymous": false,
      "inputs": [],
      "name": "LogUnpause",
      "type": "event"
    },
    {
      "constant": false,
      "inputs": [
        {
          "internalType": "bytes32",
          "name": "_key",
          "type": "bytes32"
        },
        {
          "internalType": "uint256",
          "name": "_purpose",
          "type": "uint256"
        },
        {
          "internalType": "uint256",
          "name": "_keyType",
          "type": "uint256"
        }
      ],
      "name": "addKey",
      "outputs": [
        {
          "internalType": "bool",
          "name": "success",
          "type": "bool"
        }
      ],
      "payable": false,
      "stateMutability": "nonpayable",
      "type": "function"
    },
    {
      "constant": true,
      "inputs": [
        {
          "internalType": "address",
          "name": "addr",
          "type": "address"
        }
      ],
      "name": "addrToKey",
      "outputs": [
        {
          "internalType": "bytes32",
          "name": "",
          "type": "bytes32"
        }
      ],
      "payable": false,
      "stateMutability": "pure",
      "type": "function"
    },
    {
      "constant": false,
      "inputs": [
        {
          "internalType": "uint256",
          "name": "_id",
          "type": "uint256"
        },
        {
          "internalType": "bool",
          "name": "_approve",
          "type": "bool"
        }
      ],
      "name": "approve",
      "outputs": [
        {
          "internalType": "bool",
          "name": "success",
          "type": "bool"
        }
      ],
      "payable": false,
      "stateMutability": "nonpayable",
      "type": "function"
    },
    {
      "constant": true,
      "inputs": [
        {
          "internalType": "uint256",
          "name": "",
          "type": "uint256"
        },
        {
          "internalType": "uint256",
          "name": "",
          "type": "uint256"
        }
      ],
      "name": "approved",
      "outputs": [
        {
          "internalType": "address",
          "name": "",
          "type": "address"
        }
      ],
      "payable": false,
      "stateMutability": "view",
      "type": "function"
    },
    {
      "constant": false,
      "inputs": [
        {
          "internalType": "address",
          "name": "_to",
          "type": "address"
        },
        {
          "internalType": "uint256",
          "name": "_value",
          "type": "uint256"
        },
        {
          "internalType": "bytes",
          "name": "_data",
          "type": "bytes"
        }
      ],
      "name": "execute",
      "outputs": [
        {
          "internalType": "uint256",
          "name": "executionId",
          "type": "uint256"
        }
      ],
      "payable": false,
      "stateMutability": "nonpayable",
      "type": "function"
    },
    {
      "constant": true,
      "inputs": [
        {
          "internalType": "uint256",
          "name": "",
          "type": "uint256"
        }
      ],
      "name": "executions",
      "outputs": [
        {
          "internalType": "address",
          "name": "to",
          "type": "address"
        },
        {
          "internalType": "uint256",
          "name": "value",
          "type": "uint256"
        },
        {
          "internalType": "bytes",
          "name": "data",
          "type": "bytes"
        },
        {
          "internalType": "bool",
          "name": "approved",
          "type": "bool"
        },
        {
          "internalType": "bool",
          "name": "executed",
          "type": "bool"
        }
      ],
      "payable": false,
      "stateMutability": "view",
      "type": "function"
    },
    {
      "constant": true,
      "inputs": [
        {
          "internalType": "bytes32",
          "name": "_key",
          "type": "bytes32"
        }
      ],
      "name": "getKey",
      "outputs": [
        {
          "internalType": "uint256",
          "name": "purpose",
          "type": "uint256"
        },
        {
          "internalType": "uint256",
          "name": "keyType",
          "type": "uint256"
        },
        {
          "internalType": "bytes32",
          "name": "key",
          "type": "bytes32"
        }
      ],
      "payable": false,
      "stateMutability": "view",
      "type": "function"
    },
    {
      "constant": true,
      "inputs": [
        {
          "internalType": "uint256",
          "name": "_purpose",
          "type": "uint256"
        }
      ],
      "name": "getKeysByPurpose",
      "outputs": [
        {
          "internalType": "bytes32[]",
          "name": "keys",
          "type": "bytes32[]"
        }
      ],
      "payable": false,
      "stateMutability": "view",
      "type": "function"
    },
    {
      "constant": true,
      "inputs": [
        {
          "internalType": "bytes32",
          "name": "_key",
          "type": "bytes32"
        },
        {
          "internalType": "uint256",
          "name": "purpose",
          "type": "uint256"
        }
      ],
      "name": "keyHasPurpose",
      "outputs": [
        {
          "internalType": "bool",
          "name": "exists",
          "type": "bool"
        }
      ],
      "payable": false,
      "stateMutability": "view",
      "type": "function"
    },
    {
      "constant": true,
      "inputs": [],
      "name": "numKeys",
      "outputs": [
        {
          "internalType": "uint256",
          "name": "",
          "type": "uint256"
        }
      ],
      "payable": false,
      "stateMutability": "view",
      "type": "function"
    },
    {
      "constant": false,
      "inputs": [],
      "name": "pause",
      "outputs": [],
      "payable": false,
      "stateMutability": "nonpayable",
      "type": "function"
    },
    {
      "constant": true,
      "inputs": [],
      "name": "paused",
      "outputs": [
        {
          "internalType": "bool",
          "name": "",
          "type": "bool"
        }
      ],
      "payable": false,
      "stateMutability": "view",
      "type": "function"
    },
    {
      "constant": false,
      "inputs": [
        {
          "internalType": "bytes32",
          "name": "_key",
          "type": "bytes32"
        }
      ],
      "name": "removeKey",
      "outputs": [
        {
          "internalType": "bool",
          "name": "success",
          "type": "bool"
        }
      ],
      "payable": false,
      "stateMutability": "nonpayable",
      "type": "function"
    },
    {
      "constant": true,
      "inputs": [
        {
          "internalType": "bytes4",
          "name": "interfaceId",
          "type": "bytes4"
        }
      ],
      "name": "supportsInterface",
      "outputs": [
        {
          "internalType": "bool",
          "name": "",
          "type": "bool"
        }
      ],
      "payable": false,
      "stateMutability": "view",
      "type": "function"
    },
    {
      "constant": false,
      "inputs": [],
      "name": "unpause",
      "outputs": [],
      "payable": false,
      "stateMutability": "nonpayable",
      "type": "function"
    }
  ],
  "bytecode": "60806040526003805460ff191690556100276301ffc9a760e01b6001600160e01b0361004516565b610040633f32ffef60e21b6001600160e01b0361004516565b6100c9565b6001600160e01b031980821614156100a4576040805162461bcd60e51b815260206004820152601c60248201527f4552433136353a20696e76616c696420696e7465726661636520696400000000604482015290519081900360640190fd5b6001600160e01b0319166000908152600460205260409020805460ff19166001179055565b6110ef806100d86000396000f3fe608060405234801561001057600080fd5b50600436106100f55760003560e01c8063747442d311610097578063b61d27f611610066578063b61d27f6146102d9578063c9d24ecc14610394578063d202158d1461039c578063f76c9229146103bf576100f5565b8063747442d3146102225780638456cb5914610247578063862642f51461024f5780639010f7261461026c576100f5565b80633f4ba83a116100d35780633f4ba83a146101995780635c975abb146101a357806363f14c3c146101ab5780636e4c4311146101e3576100f5565b806301ffc9a7146100fa57806312aaac70146101355780631d38124014610170575b600080fd5b6101216004803603602081101561011057600080fd5b50356001600160e01b03191661047f565b604080519115158252519081900360200190f35b6101526004803603602081101561014b57600080fd5b503561049e565b60408051938452602084019290925282820152519081900360600190f35b6101216004803603606081101561018657600080fd5b50803590602081013590604001356104e8565b6101a161059f565b005b6101216105e3565b6101d1600480360360208110156101c157600080fd5b50356001600160a01b03166105ec565b60408051918252519081900360200190f35b610206600480360360408110156101f957600080fd5b5080359060200135610628565b604080516001600160a01b039092168252519081900360200190f35b6101216004803603604081101561023857600080fd5b5080359060200135151561065d565b6101a1610a06565b6101216004803603602081101561026557600080fd5b5035610a4e565b6102896004803603602081101561028257600080fd5b5035610b46565b60408051602080825283518183015283519192839290830191858101910280838360005b838110156102c55781810151838201526020016102ad565b505050509050019250505060405180910390f35b6101d1600480360360608110156102ef57600080fd5b6001600160a01b038235169160208101359181019060608101604082013564010000000081111561031f57600080fd5b82018360208201111561033157600080fd5b8035906020019184600183028401116401000000008311171561035357600080fd5b91908080601f016020809104026020016040519081016040528093929190818152602001838380828437600092019190915250929550610ba8945050505050565b6101d1610d8f565b610121600480360360408110156103b257600080fd5b5080359060200135610d96565b6103dc600480360360208110156103d557600080fd5b5035610ddc565b604080516001600160a01b038716815260208082018790528415156060830152831515608083015260a0928201838152865193830193909352855191929160c084019187019080838360005b83811015610440578181015183820152602001610428565b50505050905090810190601f16801561046d5780820380516001836020036101000a031916815260200191505b50965050505050505060405180910390f35b6001600160e01b03191660009081526004602052604090205460ff1690565b60008060006104ab610fdb565b5050506000918252506020818152604091829020825160608101845281548082526001830154938201849052600290920154930183905292909190565b60035460009060ff16156104fb57600080fd5b61050d6000858563ffffffff610ea416565b1561051a57506000610598565b333014610589576040805133602080830191909152825180830382018152918301909252805191012061054e906001610d96565b6105895760405162461bcd60e51b81526004018080602001828103825260238152602001806110986023913960400191505060405180910390fd5b610594848484610f0d565b5060015b9392505050565b60035460ff166105ae57600080fd5b6003805460ff191690556040517f730c1faaa977b67dacf1e2451ef54556e04a07d577785ff79f6d31f73502efc990600090a1565b60035460ff1681565b6040805160609290921b6bffffffffffffffffffffffff1916602080840191909152815160148185030181526034909301909152815191012090565b6007602052816000526040600020818154811061064157fe5b6000918252602090912001546001600160a01b03169150829050565b6040805133602080830191909152825180830382018152918301909252805191012060009061068d906002610d96565b6106de576040805162461bcd60e51b815260206004820152601f60248201527f53656e64657220646f6573206e6f74206861766520616374696f6e206b657900604482015290519081900360640190fd5b604080518315158152905184917fb3932da477fe5d6c8ff2eafef050c0f3a1af18fc07121001482600f36f3715d8919081900360200190a26060600183151514156109e2576000848152600660205260409081902060038101805460ff1916600190811790915581549251600292830180546001600160a01b039095169490939192839285926000199281161561010002929092019091160480156107ba5780601f106107985761010080835404028352918201916107ba565b820191906000526020600020905b8154815290600101906020018083116107a6575b50509150506000604051808303816000865af19150503d80600081146107fc576040519150601f19603f3d011682016040523d82523d6000602084013e610801565b606091505b50909250905081156108ff5760008481526006602090815260409182902060038101805461010061ff001990911681179091556001808301548354865186815260029586018054948516159095026000190190931694909404948201859052946001600160a01b039093169389937f1f920dbda597d7bf95035464170fa58d0a4b57f13a1c315ace6793b9f63688b89392918291820190849080156108e75780601f106108bc576101008083540402835291602001916108e7565b820191906000526020600020905b8154815290600101906020018083116108ca57829003601f168201915b50509250505060405180910390a46001915050610a00565b60008481526006602090815260409182902060018082015482548551858152600294850180546000199581161561010002959095019094169490940494840185905290946001600160a01b039091169389937fe10c49d9f7c71da23262367013434763cfdb2332267641728d25cd712c5c6a68939290918291820190849080156109ca5780601f1061099f576101008083540402835291602001916109ca565b820191906000526020600020905b8154815290600101906020018083116109ad57829003601f168201915b50509250505060405180910390a46000915050610a00565b50506000828152600660205260409020600301805460ff1916905560015b92915050565b60035460ff1615610a1657600080fd5b6003805460ff191660011790556040517f4b314b34e912fda7f95e7d23e9c8c95f82f0aff1984e4ce592a0b005f905562490600090a1565b60035460009060ff1615610a6157600080fd5b333014610ad05760408051336020808301919091528251808303820181529183019092528051910120610a95906001610d96565b610ad05760405162461bcd60e51b81526004018080602001828103825260238152602001806110986023913960400191505060405180910390fd5b610ad8610fdb565b506000828152602081815260408083208151606081018352815480825260018301549482018590526002909201548184015291519193909186917f585a4aef50f8267a92b32412b331b20f7f8b96f2245b253b9cc50dcc621d339791a461059460008463ffffffff610f5416565b600081815260016020908152604091829020805483518184028101840190945280845260609392830182828015610b9c57602002820191906000526020600020905b815481526020019060010190808311610b88575b50505050509050919050565b600554600090815260066020526040812060030154610100900460ff1615610c0a576040805162461bcd60e51b815260206004820152601060248201526f105b1c9958591e48195e1958dd5d195960821b604482015290519081900360640190fd5b60058054600090815260066020908152604080832080546001600160a01b0319166001600160a01b038a1617905583548352808320600101879055925482529190208351610c6092600290920191850190610fff565b5082846001600160a01b03166005547f8afcfabcb00e47a53a8fc3e9f23ff47ee1926194bb1350dd007c50b412a6cee8856040518080602001828103825283818151815260200191508051906020019080838360005b83811015610cce578181015183820152602001610cb6565b50505050905090810190601f168015610cfb5780820380516001836020036101000a031916815260200191505b509250505060405180910390a460408051336020808301919091528251808303820181529183019092528051910120610d35906001610d96565b80610d68575060408051336020808301919091528251808303820181529183019092528051910120610d68906002610d96565b15610d7c57610d7a600554600161065d565b505b5060058054600181019091559392505050565b6002545b90565b6000610da0610fdb565b50506000918252602082815260409283902083516060810185528154808252600183015493820193909352600290910154930192909252101590565b60066020908152600091825260409182902080546001808301546002808501805488516101009582161595909502600019011691909104601f81018790048702840187019097528683526001600160a01b03909316959094919291830182828015610e885780601f10610e5d57610100808354040283529160200191610e88565b820191906000526020600020905b815481529060010190602001808311610e6b57829003601f168201915b5050506003909301549192505060ff8082169161010090041685565b6000610eae610fdb565b50600083815260208581526040918290208251606081018452815481526001820154928101929092526002015491810182905290610ef0576000915050610598565b80518310610f02576001915050610598565b506000949350505050565b610f20600084848463ffffffff610f7c16565b8082847f480000bb1edad8ca1470381cc334b1917fbd51c6531f3a623ea8e0ec7e38a6e960405160405180910390a4505050565b6000908152602091909152604081206001810180548383559083905560029091019190915590565b60008381526020859052604090208281556002810154610fa55760028101849055600181018290555b50506000908152600180840160209081526040832080548084018255908452922090910191909155600290910180549091019055565b60405180606001604052806000815260200160008152602001600080191681525090565b828054600181600116156101000203166002900490600052602060002090601f016020900481019282601f1061104057805160ff191683800117855561106d565b8280016001018555821561106d579182015b8281111561106d578251825591602001919060010190611052565b5061107992915061107d565b5090565b610d9391905b80821115611079576000815560010161108356fe53656e64657220646f6573206e6f742068617665206d616e6167656d656e74206b6579a265627a7a723158208e2e9f0d13cae833ae2e85d52645f282d2365281020e37c0ca72d323fc0f207364736f6c63430005110032",
  "bytecodeSha1": "f80980b2fd62161c1698a453073ee441129c0817",
  "compiler": {
    "evm_version": "istanbul",
    "optimizer": {
      "enabled": true,
      "runs": 200
    },
    "version": "0.5.17+commit.d19bba13"
  },
  "contractName": "KeyManager",
  "language": "Solidity",
  "natspec": {
    "methods": {
      "addKey(bytes32,uint256,uint256)": {
        "details": "Add key data to the identity if key + purpose tuple doesn't already exist",
        "params": {
          "_key": "Key bytes to add",
          "_keyType": "Key type to add",
          "_purpose": "Purpose to add"
        },
        "return": "`true` if key was added, `false` if it already exists"
      },
      "addrToKey(address)": {
        "details": "Convert an Ethereum address (20 bytes) to an ERC725 key (32 bytes)"
      },
      "getKeysByPurpose(uint256)": {
        "details": "Find all the keys held by this identity for a given purpose",
        "params": {
          "_purpose": "Purpose to find"
        },
        "return": "Array with key bytes for that purpose (empty if none)"
      },
      "keyHasPurpose(bytes32,uint256)": {
        "details": "Find if a key has is present and has the given purpose",
        "params": {
          "_key": "Key bytes to find",
          "purpose": "Purpose to find"
        },
        "return": "Boolean indicating whether the key exists or not"
      },
      "numKeys()": {
        "details": "Number of keys managed by the contract",
        "return": "Unsigned integer number of keys"
      },
      "pause()": {
        "details": "called by a MANAGEMENT_KEY or the identity itself to pause, triggers stopped state"
      },
      "removeKey(bytes32)": {
        "details": "Remove key data from the identity",
        "params": {
          "_key": "Key bytes to remove"
        },
        "return": "`true` if key was found and removed, `false` if it wasn't found"
      },
      "supportsInterface(bytes4)": {
        "details": "See {IERC165-supportsInterface}.     * Time complexity O(1), guaranteed to always use less than 30 000 gas."
      },
      "unpause()": {
        "details": "called by a MANAGEMENT_KEY or the identity itself to unpause, returns to normal state"
      }
    }
  },
  "opcodes": "PUSH1 0x80 PUSH1 0x40 MSTORE CALLVALUE DUP1 ISZERO PUSH2 0x10 JUMPI PUSH1 0x0 DUP1 REVERT JUMPDEST POP PUSH1 0x4 CALLDATASIZE LT PUSH2 0xF5 JUMPI PUSH1 0x0 CALLDATALOAD PUSH1 0xE0 SHR DUP1 PUSH4 0x747442D3 GT PUSH2 0x97 JUMPI DUP1 PUSH4 0xB61D27F6 GT PUSH2 0x66 JUMPI DUP1 PUSH4 0xB61D27F6 EQ PUSH2 0x2D9 JUMPI DUP1 PUSH4 0xC9D24ECC EQ PUSH2 0x394 JUMPI DUP1 PUSH4 0xD202158D EQ PUSH2 0x39C JUMPI DUP1 PUSH4 0xF76C9229 EQ PUSH2 0x3BF JUMPI PUSH2 0xF5 JUMP JUMPDEST DUP1 PUSH4 0x747442D3 EQ PUSH2 0x222 JUMPI DUP1 PUSH4 0x8456CB59 EQ PUSH2 0x247 JUMPI DUP1 PUSH4 0x862642F5 EQ PUSH2 0x24F JUMPI DUP1 PUSH4 0x9010F726 EQ PUSH2 0x26C JUMPI PUSH2 0xF5 JUMP JUMPDEST DUP1 PUSH4 0x3F4BA83A GT PUSH2 0xD3 JUMPI DUP1 PUSH4 0x3F4BA83A EQ PUSH2 0x199 JUMPI DUP1 PUSH4 0x5C975ABB EQ PUSH2 0x1A3 JUMPI DUP1 PUSH4 0x63F14C3C EQ PUSH2 0x1AB JUMPI DUP1 PUSH4 0x6E4C4311 EQ PUSH2 0x1E3 JUMPI PUSH2 0xF5 JUMP JUMPDEST DUP1 PUSH4 0x1FFC9A7 EQ PUSH2 0xFA JUMPI DUP1 PUSH4 0x12AAAC70 EQ PUSH2 0x135 JUMPI DUP1 PUSH4 0x1D381240 EQ PUSH2 0x170 JUMPI JUMPDEST PUSH1 0x0 DUP1 REVERT JUMPDEST PUSH2 0x121 PUSH1 0x4 DUP1 CALLDATASIZE SUB PUSH1 0x20 DUP2 LT ISZERO PUSH2 0x110 JUMPI PUSH1 0x0 DUP1 REVERT JUMPDEST POP CALLDATALOAD PUSH1 0x1 PUSH1 0x1 PUSH1 0xE0 SHL SUB NOT AND PUSH2 0x47F JUMP JUMPDEST PUSH1 0x40 DUP1 MLOAD SWAP2 ISZERO ISZERO DUP3 MSTORE MLOAD SWAP1 DUP2 SWAP1 SUB PUSH1 0x20 ADD SWAP1 RETURN JUMPDEST PUSH2 0x152 PUSH1 0x4 DUP1 CALLDATASIZE SUB PUSH1 0x20 DUP2 LT ISZERO PUSH2 0x14B JUMPI PUSH1 0x0 DUP1 REVERT JUMPDEST POP CALLDATALOAD PUSH2 0x49E JUMP JUMPDEST PUSH1 0x40 DUP1 MLOAD SWAP4 DUP5 MSTORE PUSH1 0x20 DUP5 ADD SWAP3 SWAP1 SWAP3 MSTORE DUP3 DUP3 ADD MSTORE MLOAD SWAP1 DUP2 SWAP1 SUB PUSH1 0x60 ADD SWAP1 RETURN JUMPDEST PUSH2 0x121 PUSH1 0x4 DUP1 CALLDATASIZE SUB PUSH1 0x60 DUP2 LT ISZERO PUSH2 0x186 JUMPI PUSH1 0x0 DUP1 REVERT JUMPDEST POP DUP1 CALLDATALOAD SWAP1 PUSH1 0x20 DUP2 ADD CALLDATALOAD SWAP1 PUSH1 0x40 ADD CALLDATALOAD PUSH2 0x4E8 JUMP JUMPDEST PUSH2 0x1A1 PUSH2 0x59F JUMP JUMPDEST STOP JUMPDEST PUSH2 0x121 PUSH2 0x5E3 JUMP JUMPDEST PUSH2 0x1D1 PUSH1 0x4 DUP1 CALLDATASIZE SUB PUSH1 0x20 DUP2 LT ISZERO PUSH2 0x1C1 JUMPI PUSH1 0x0 DUP1 REVERT JUMPDEST POP CALLDATALOAD PUSH1 0x1 PUSH1 0x1 PUSH1 0xA0 SHL SUB AND PUSH2 0x5EC JUMP JUMPDEST PUSH1 0x40 DUP1 MLOAD SWAP2 DUP3 MSTORE MLOAD SWAP1 DUP2 SWAP1 SUB PUSH1 0x20 ADD SWAP1 RETURN JUMPDEST PUSH2 0x206 PUSH1 0x4 DUP1 CALLDATASIZE SUB PUSH1 0x40 DUP2 LT ISZERO PUSH2 0x1F9 JUMPI PUSH1 0x0 DUP1 REVERT JUMPDEST POP DUP1 CALLDATALOAD SWAP1 PUSH1 0x20 ADD CALLDATALOAD PUSH2 0x628 JUMP JUMPDEST PUSH1 0x40 DUP1 MLOAD PUSH1 0x1 PUSH1 0x1 PUSH1 0xA0 SHL SUB SWAP1 SWAP3 AND DUP3 MSTORE MLOAD SWAP1 DUP2 SWAP1 SUB PUSH1 0x20 ADD SWAP1 RETURN JUMPDEST PUSH2 0x121 PUSH1 0x4 DUP1 CALLDATASIZE SUB PUSH1 0x40 DUP2 LT ISZERO PUSH2 0x238 JUMPI PUSH1 0x0 DUP1 REVERT JUMPDEST POP DUP1 CALLDATALOAD SWAP1 PUSH1 0x20 ADD CALLDATALOAD ISZERO ISZERO PUSH2 0x65D JUMP JUMPDEST PUSH2 0x1A1 PUSH2 0xA06 JUMP JUMPDEST PUSH2 0x121 PUSH1 0x4 DUP1 CALLDATASIZE SUB PUSH1 0x20 DUP2 LT ISZERO PUSH2 0x265 JUMPI PUSH1 0x0 DUP1 REVERT JUMPDEST POP CALLDATALOAD PUSH2 0xA4E JUMP JUMPDEST PUSH2 0x289 PUSH1 0x4 DUP1 CALLDATASIZE SUB PUSH1 0x20 DUP2 LT ISZERO PUSH2 0x282 JUMPI PUSH1 0x0 DUP1 REVERT JUMPDEST POP CALLDATALOAD PUSH2 0xB46 JUMP JUMPDEST PUSH1 0x40 DUP1 MLOAD PUSH1 0x20 DUP1 DUP3 MSTORE DUP4 MLOAD DUP2 DUP4 ADD MSTORE DUP4 MLOAD SWAP2 SWAP3 DUP4 SWAP3 SWAP1 DUP4 ADD SWAP2 DUP6 DUP2 ADD SWAP2 MUL DUP1 DUP4 DUP4 PUSH1 0x0 JUMPDEST DUP4 DUP2 LT ISZERO PUSH2 0x2C5 JUMPI DUP2 DUP2 ADD MLOAD DUP4 DUP3 ADD MSTORE PUSH1 0x20 ADD PUSH2 0x2AD JUMP JUMPDEST POP POP POP POP SWAP1 POP ADD SWAP3 POP POP POP PUSH1 0x40 MLOAD DUP1 SWAP2 SUB SWAP1 RETURN JUMPDEST PUSH2 0x1D1 PUSH1 0x4 DUP1 CALLDATASIZE SUB PUSH1 0x60 DUP2 LT ISZERO PUSH2 0x2EF JUMPI PUSH1 0x0 DUP1 REVERT JUMPDEST PUSH1 0x1 PUSH1 0x1 PUSH1 0xA0 SHL SUB DUP3 CALLDATALOAD AND SWAP2 PUSH1 0x20 DUP2 ADD CALLDATALOAD SWAP2 DUP2 ADD SWAP1 PUSH1 0x60 DUP2 ADD PUSH1 0x40 DUP3 ADD CALLDATALOAD PUSH5 0x100000000 DUP2 GT ISZERO PUSH2 0x31F JUMPI PUSH1 0x0 DUP1 REVERT JUMPDEST DUP3 ADD DUP4 PUSH1 0x20 DUP3 ADD GT ISZERO PUSH2 0x331 JUMPI PUSH1 0x0 DUP1 REVERT JUMPDEST DUP1 CALLDATALOAD SWAP1 PUSH1 0x20 ADD SWAP2 DUP5 PUSH1 0x1 DUP4 MUL DUP5 ADD GT PUSH5 0x100000000 DUP4 GT OR ISZERO PUSH2 0x353 JUMPI PUSH1 0x0 DUP1 REVERT JUMPDEST SWAP2 SWAP1 DUP1 DUP1 PUSH1 0x1F ADD PUSH1 0x20 DUP1 SWAP2 DIV MUL PUSH1 0x20 ADD PUSH1 0x40 MLOAD SWAP1 DUP2 ADD PUSH1 0x40 MSTORE DUP1 SWAP4 SWAP3 SWAP2 SWAP1 DUP2 DUP2 MSTORE PUSH1 0x20 ADD DUP4 DUP4 DUP1 DUP3 DUP5 CALLDATACOPY PUSH1 0x0 SWAP3 ADD SWAP2 SWAP1 SWAP2 MSTORE POP SWAP3 SWAP6 POP PUSH2 0xBA8 SWAP5 POP POP POP POP POP JUMP JUMPDEST PUSH2 0x1D1 PUSH2 0xD8F JUMP JUMPDEST PUSH2 0x121 PUSH1 0x4 DUP1 CALLDATASIZE SUB PUSH1 0x40 DUP2 LT ISZERO PUSH2 0x3B2 JUMPI PUSH1 0x0 DUP1 REVERT JUMPDEST POP DUP1 CALLDATALOAD SWAP1 PUSH1 0x20 ADD CALLDATALOAD PUSH2 0xD96 JUMP JUMPDEST PUSH2 0x3DC PUSH1 0x4 DUP1 CALLDATASIZE SUB PUSH1 0x20 DUP2 LT ISZERO PUSH2 0x3D5 JUMPI PUSH1 0x0 DUP1 REVERT JUMPDEST POP CALLDATALOAD PUSH2 0xDDC JUMP JUMPDEST PUSH1 0x40 DUP1 MLOAD PUSH1 0x1 PUSH1 0x1 PUSH1 0xA0 SHL SUB DUP8 AND DUP2 MSTORE PUSH1 0x20 DUP1 DUP3 ADD DUP8 SWAP1 MSTORE DUP5 ISZERO ISZERO PUSH1 0x60 DUP4 ADD MSTORE DUP4 ISZERO ISZERO PUSH1 0x80 DUP4 ADD MSTORE PUSH1 0xA0 SWAP3 DUP3 ADD DUP4 DUP2 MSTORE DUP7 MLOAD SWAP4 DUP4 ADD SWAP4 SWAP1 SWAP4 MSTORE DUP6 MLOAD SWAP2 SWAP3 SWAP2 PUSH1 0xC0 DUP5 ADD SWAP2 DUP8 ADD SWAP1 DUP1 DUP4 DUP4 PUSH1 0x0 JUMPDEST DUP4 DUP2 LT ISZERO PUSH2 0x440 JUMPI DUP2 DUP2 ADD MLOAD DUP4 DUP3 ADD MSTORE PUSH1 0x20 ADD PUSH2 0x428 JUMP JUMPDEST POP POP POP POP SWAP1 POP SWAP1 DUP2 ADD SWAP1 PUSH1 0x1F AND DUP1 ISZERO PUSH2 0x46D JUMPI DUP1 DUP3 SUB DUP1 MLOAD PUSH1 0x1 DUP4 PUSH1 0x20 SUB PUSH2 0x100 EXP SUB NOT AND DUP2 MSTORE PUSH1 0x20 ADD SWAP2 POP JUMPDEST POP SWAP7 POP POP POP POP POP POP POP PUSH1 0x40 MLOAD DUP1 SWAP2 SUB SWAP1 RETURN JUMPDEST PUSH1 0x1 PUSH1 0x1 PUSH1 0xE0 SHL SUB NOT AND PUSH1 0x0 SWAP1 DUP2 MSTORE PUSH1 0x4 PUSH1 0x20 MSTORE PUSH1 0x40 SWAP1 KECCAK256 SLOAD PUSH1 0xFF AND SWAP1 JUMP JUMPDEST PUSH1 0x0 DUP1 PUSH1 0x0 PUSH2 0x4AB PUSH2 0xFDB JUMP JUMPDEST POP POP POP PUSH1 0x0 SWAP2 DUP3 MSTORE POP PUSH1 0x20 DUP2 DUP2 MSTORE PUSH1 0x40 SWAP2 DUP3 SWAP1 KECCAK256 DUP3 MLOAD PUSH1 0x60 DUP2 ADD DUP5 MSTORE DUP2 SLOAD DUP1 DUP3 MSTORE PUSH1 0x1 DUP4 ADD SLOAD SWAP4 DUP3 ADD DUP5 SWAP1 MSTORE PUSH1 0x2 SWAP1 SWAP3 ADD SLOAD SWAP4 ADD DUP4 SWAP1 MSTORE SWAP3 SWAP1 SWAP2 SWAP1 JUMP JUMPDEST PUSH1 0x3 SLOAD PUSH1 0x0 SWAP1 PUSH1 0xFF AND ISZERO PUSH2 0x4FB JUMPI PUSH1 0x0 DUP1 REVERT JUMPDEST PUSH2 0x50D PUSH1 0x0 DUP6 DUP6 PUSH4 0xFFFFFFFF PUSH2 0xEA4 AND JUMP JUMPDEST ISZERO PUSH2 0x51A JUMPI POP PUSH1 0x0 PUSH2 0x598 JUMP JUMPDEST CALLER ADDRESS EQ PUSH2 0x589 JUMPI PUSH1 0x40 DUP1 MLOAD CALLER PUSH1 0x20 DUP1 DUP4 ADD SWAP2 SWAP1 SWAP2 MSTORE DUP3 MLOAD DUP1 DUP4 SUB DUP3 ADD DUP2 MSTORE SWAP2 DUP4 ADD SWAP1 SWAP3 MSTORE DUP1 MLOAD SWAP2 ADD KECCAK256 PUSH2 0x54E SWAP1 PUSH1 0x1 PUSH2 0xD96 JUMP JUMPDEST PUSH2 0x589 JUMPI PUSH1 0x40 MLOAD PUSH3 0x461BCD PUSH1 0xE5 SHL DUP2 MSTORE PUSH1 0x4 ADD DUP1 DUP1 PUSH1 0x20 ADD DUP3 DUP2 SUB DUP3 MSTORE PUSH1 0x23 DUP2 MSTORE PUSH1 0x20 ADD DUP1 PUSH2 0x1098 PUSH1 0x23 SWAP2 CODECOPY PUSH1 0x40 ADD SWAP2 POP POP PUSH1 0x40 MLOAD DUP1 SWAP2 SUB SWAP1 REVERT JUMPDEST PUSH2 0x594 DUP5 DUP5 DUP5 PUSH2 0xF0D JUMP JUMPDEST POP PUSH1 0x1 JUMPDEST SWAP4 SWAP3 POP POP POP JUMP JUMPDEST PUSH1 0x3 SLOAD PUSH1 0xFF AND PUSH2 0x5AE JUMPI PUSH1 0x0 DUP1 REVERT JUMPDEST PUSH1 0x3 DUP1 SLOAD PUSH1 0xFF NOT AND SWAP1 SSTORE PUSH1 0x40 MLOAD PUSH32 0x730C1FAAA977B67DACF1E2451EF54556E04A07D577785FF79F6D31F73502EFC9 SWAP1 PUSH1 0x0 SWAP1 LOG1 JUMP JUMPDEST PUSH1 0x3 SLOAD PUSH1 0xFF AND DUP2 JUMP JUMPDEST PUSH1 0x40 DUP1 MLOAD PUSH1 0x60 SWAP3 SWAP1 SWAP3 SHL PUSH12 0xFFFFFFFFFFFFFFFFFFFFFFFF NOT AND PUSH1 0x20 DUP1 DUP5 ADD SWAP2 SWAP1 SWAP2 MSTORE DUP2 MLOAD PUSH1 0x14 DUP2 DUP6 SUB ADD DUP2 MSTORE PUSH1 0x34 SWAP1 SWAP4 ADD SWAP1 SWAP2 MSTORE DUP2 MLOAD SWAP2 ADD KECCAK256 SWAP1 JUMP JUMPDEST PUSH1 0x7 PUSH1 0x20 MSTORE DUP2 PUSH1 0x0 MSTORE PUSH1 0x40 PUSH1 0x0 KECCAK256 DUP2 DUP2 SLOAD DUP2 LT PUSH2 0x641 JUMPI INVALID JUMPDEST PUSH1 0x0 SWAP2 DUP3 MSTORE PUSH1 0x20 SWAP1 SWAP2 KECCAK256 ADD SLOAD PUSH1 0x1 PUSH1 0x1 PUSH1 0xA0 SHL SUB AND SWAP2 POP DUP3 SWAP1 POP JUMP JUMPDEST PUSH1 0x40 DUP1 MLOAD CALLER PUSH1 0x20 DUP1 DUP4 ADD SWAP2 SWAP1 SWAP2 MSTORE DUP3 MLOAD DUP1 DUP4 SUB DUP3 ADD DUP2 MSTORE SWAP2 DUP4 ADD SWAP1 SWAP3 MSTORE DUP1 MLOAD SWAP2 ADD KECCAK256 PUSH1 0x0 SWAP1 PUSH2 0x68D SWAP1 PUSH1 0x2 PUSH2 0xD96 JUMP JUMPDEST PUSH2 0x6DE JUMPI PUSH1 0x40 DUP1 MLOAD PUSH3 0x461BCD PUSH1 0xE5 SHL DUP2 MSTORE PUSH1 0x20 PUSH1 0x4 DUP3 ADD MSTORE PUSH1 0x1F PUSH1 0x24 DUP3 ADD MSTORE PUSH32 0x53656E64657220646F6573206E6F74206861766520616374696F6E206B657900 PUSH1 0x44 DUP3 ADD MSTORE SWAP1 MLOAD SWAP1 DUP2 SWAP1 SUB PUSH1 0x64 ADD SWAP1 REVERT JUMPDEST PUSH1 0x40 DUP1 MLOAD DUP4 ISZERO ISZERO DUP2 MSTORE SWAP1 MLOAD DUP5 SWAP2 PUSH32 0xB3932DA477FE5D6C8FF2EAFEF050C0F3A1AF18FC07121001482600F36F3715D8 SWAP2 SWAP1 DUP2 SWAP1 SUB PUSH1 0x20 ADD SWAP1 LOG2 PUSH1 0x60 PUSH1 0x1 DUP4 ISZERO ISZERO EQ ISZERO PUSH2 0x9E2 JUMPI PUSH1 0x0 DUP5 DUP2 MSTORE PUSH1 0x6 PUSH1 0x20 MSTORE PUSH1 0x40 SWAP1 DUP2 SWAP1 KECCAK256 PUSH1 0x3 DUP2 ADD DUP1 SLOAD PUSH1 0xFF NOT AND PUSH1 0x1 SWAP1 DUP2 OR SWAP1 SWAP2 SSTORE DUP2 SLOAD SWAP3 MLOAD PUSH1 0x2 SWAP3 DUP4 ADD DUP1 SLOAD PUSH1 0x1 PUSH1 0x1 PUSH1 0xA0 SHL SUB SWAP1 SWAP6 AND SWAP5 SWAP1 SWAP4 SWAP2 SWAP3 DUP4 SWAP3 DUP6 SWAP3 PUSH1 0x0 NOT SWAP3 DUP2 AND ISZERO PUSH2 0x100 MUL SWAP3 SWAP1 SWAP3 ADD SWAP1 SWAP2 AND DIV DUP1 ISZERO PUSH2 0x7BA JUMPI DUP1 PUSH1 0x1F LT PUSH2 0x798 JUMPI PUSH2 0x100 DUP1 DUP4 SLOAD DIV MUL DUP4 MSTORE SWAP2 DUP3 ADD SWAP2 PUSH2 0x7BA JUMP JUMPDEST DUP3 ADD SWAP2 SWAP1 PUSH1 0x0 MSTORE PUSH1 0x20 PUSH1 0x0 KECCAK256 SWAP1 JUMPDEST DUP2 SLOAD DUP2 MSTORE SWAP1 PUSH1 0x1 ADD SWAP1 PUSH1 0x20 ADD DUP1 DUP4 GT PUSH2 0x7A6 JUMPI JUMPDEST POP POP SWAP2 POP POP PUSH1 0x0 PUSH1 0x40 MLOAD DUP1 DUP4 SUB DUP2 PUSH1 0x0 DUP7 GAS CALL SWAP2 POP POP RETURNDATASIZE DUP1 PUSH1 0x0 DUP2 EQ PUSH2 0x7FC JUMPI PUSH1 0x40 MLOAD SWAP2 POP PUSH1 0x1F NOT PUSH1 0x3F RETURNDATASIZE ADD AND DUP3 ADD PUSH1 0x40 MSTORE RETURNDATASIZE DUP3 MSTORE RETURNDATASIZE PUSH1 0x0 PUSH1 0x20 DUP5 ADD RETURNDATACOPY PUSH2 0x801 JUMP JUMPDEST PUSH1 0x60 SWAP2 POP JUMPDEST POP SWAP1 SWAP3 POP SWAP1 POP DUP2 ISZERO PUSH2 0x8FF JUMPI PUSH1 0x0 DUP5 DUP2 MSTORE PUSH1 0x6 PUSH1 0x20 SWAP1 DUP2 MSTORE PUSH1 0x40 SWAP2 DUP3 SWAP1 KECCAK256 PUSH1 0x3 DUP2 ADD DUP1 SLOAD PUSH2 0x100 PUSH2 0xFF00 NOT SWAP1 SWAP2 AND DUP2 OR SWAP1 SWAP2 SSTORE PUSH1 0x1 DUP1 DUP4 ADD SLOAD DUP4 SLOAD DUP7 MLOAD DUP7 DUP2 MSTORE PUSH1 0x2 SWAP6 DUP7 ADD DUP1 SLOAD SWAP5 DUP6 AND ISZERO SWAP1 SWAP6 MUL PUSH1 0x0 NOT ADD SWAP1 SWAP4 AND SWAP5 SWAP1 SWAP5 DIV SWAP5 DUP3 ADD DUP6 SWAP1 MSTORE SWAP5 PUSH1 0x1 PUSH1 0x1 PUSH1 0xA0 SHL SUB SWAP1 SWAP4 AND SWAP4 DUP10 SWAP4 PUSH32 0x1F920DBDA597D7BF95035464170FA58D0A4B57F13A1C315ACE6793B9F63688B8 SWAP4 SWAP3 SWAP2 DUP3 SWAP2 DUP3 ADD SWAP1 DUP5 SWAP1 DUP1 ISZERO PUSH2 0x8E7 JUMPI DUP1 PUSH1 0x1F LT PUSH2 0x8BC JUMPI PUSH2 0x100 DUP1 DUP4 SLOAD DIV MUL DUP4 MSTORE SWAP2 PUSH1 0x20 ADD SWAP2 PUSH2 0x8E7 JUMP JUMPDEST DUP3 ADD SWAP2 SWAP1 PUSH1 0x0 MSTORE PUSH1 0x20 PUSH1 0x0 KECCAK256 SWAP1 JUMPDEST DUP2 SLOAD DUP2 MSTORE SWAP1 PUSH1 0x1 ADD SWAP1 PUSH1 0x20 ADD DUP1 DUP4 GT PUSH2 0x8CA JUMPI DUP3 SWAP1 SUB PUSH1 0x1F AND DUP3 ADD SWAP2 JUMPDEST POP POP SWAP3 POP POP POP PUSH1 0x40 MLOAD DUP1 SWAP2 SUB SWAP1 LOG4 PUSH1 0x1 SWAP2 POP POP PUSH2 0xA00 JUMP JUMPDEST PUSH1 0x0 DUP5 DUP2 MSTORE PUSH1 0x6 PUSH1 0x20 SWAP1 DUP2 MSTORE PUSH1 0x40 SWAP2 DUP3 SWAP1 KECCAK256 PUSH1 0x1 DUP1 DUP3 ADD SLOAD DUP3 SLOAD DUP6 MLOAD DUP6 DUP2 MSTORE PUSH1 0x2 SWAP5 DUP6 ADD DUP1 SLOAD PUSH1 0x0 NOT SWAP6 DUP2 AND ISZERO PUSH2 0x100 MUL SWAP6 SWAP1 SWAP6 ADD SWAP1 SWAP5 AND SWAP5 SWAP1 SWAP5 DIV SWAP5 DUP5 ADD DUP6 SWAP1 MSTORE SWAP1 SWAP5 PUSH1 0x1 PUSH1 0x1 PUSH1 0xA0 SHL SUB SWAP1 SWAP2 AND SWAP4 DUP10 SWAP4 PUSH32 0xE10C49D9F7C71DA23262367013434763CFDB2332267641728D25CD712C5C6A68 SWAP4 SWAP3 SWAP1 SWAP2 DUP3 SWAP2 DUP3 ADD SWAP1 DUP5 SWAP1 DUP1 ISZERO PUSH2 0x9CA JUMPI DUP1 PUSH1 0x1F LT PUSH2 0x99F JUMPI PUSH2 0x100 DUP1 DUP4 SLOAD DIV MUL DUP4 MSTORE SWAP2 PUSH1 0x20 ADD SWAP2 PUSH2 0x9CA JUMP JUMPDEST DUP3 ADD SWAP2 SWAP1 PUSH1 0x0 MSTORE PUSH1 0x20 PUSH1 0x0 KECCAK256 SWAP1 JUMPDEST DUP2 SLOAD DUP2 MSTORE SWAP1 PUSH1 0x1 ADD SWAP1 PUSH1 0x20 ADD DUP1 DUP4 GT PUSH2 0x9AD JUMPI DUP3 SWAP1 SUB PUSH1 0x1F AND DUP3 ADD SWAP2 JUMPDEST POP POP SWAP3 POP POP POP PUSH1 0x40 MLOAD DUP1 SWAP2 SUB SWAP1 LOG4 PUSH1 0x0 SWAP2 POP POP PUSH2 0xA00 JUMP JUMPDEST POP POP PUSH1 0x0 DUP3 DUP2 MSTORE PUSH1 0x6 PUSH1 0x20 MSTORE PUSH1 0x40 SWAP1 KECCAK256 PUSH1 0x3 ADD DUP1 SLOAD PUSH1 0xFF NOT AND SWAP1 SSTORE PUSH1 0x1 JUMPDEST SWAP3 SWAP2 POP POP JUMP JUMPDEST PUSH1 0x3 SLOAD PUSH1 0xFF AND ISZERO PUSH2 0xA16 JUMPI PUSH1 0x0 DUP1 REVERT JUMPDEST PUSH1 0x3 DUP1 SLOAD PUSH1 0xFF NOT AND PUSH1 0x1 OR SWAP1 SSTORE PUSH1 0x40 MLOAD PUSH32 0x4B314B34E912FDA7F95E7D23E9C8C95F82F0AFF1984E4CE592A0B005F9055624 SWAP1 PUSH1 0x0 SWAP1 LOG1 JUMP JUMPDEST PUSH1 0x3 SLOAD PUSH1 0x0 SWAP1 PUSH1 0xFF AND ISZERO PUSH2 0xA61 JUMPI PUSH1 0x0 DUP1 REVERT JUMPDEST CALLER ADDRESS EQ PUSH2 0xAD0 JUMPI PUSH1 0x40 DUP1 MLOAD CALLER PUSH1 0x20 DUP1 DUP4 ADD SWAP2 SWAP1 SWAP2 MSTORE DUP3 MLOAD DUP1 DUP4 SUB DUP3 ADD DUP2 MSTORE SWAP2 DUP4 ADD SWAP1 SWAP3 MSTORE DUP1 MLOAD SWAP2 ADD KECCAK256 PUSH2 0xA95 SWAP1 PUSH1 0x1 PUSH2 0xD96 JUMP JUMPDEST PUSH2 0xAD0 JUMPI PUSH1 0x40 MLOAD PUSH3 0x461BCD PUSH1 0xE5 SHL DUP2 MSTORE PUSH1 0x4 ADD DUP1 DUP1 PUSH1 0x20 ADD DUP3 DUP2 SUB DUP3 MSTORE PUSH1 0x23 DUP2 MSTORE PUSH1 0x20 ADD DUP1 PUSH2 0x1098 PUSH1 0x23 SWAP2 CODECOPY PUSH1 0x40 ADD SWAP2 POP POP PUSH1 0x40 MLOAD DUP1 SWAP2 SUB SWAP1 REVERT JUMPDEST PUSH2 0xAD8 PUSH2 0xFDB JUMP JUMPDEST POP PUSH1 0x0 DUP3 DUP2 MSTORE PUSH1 0x20 DUP2 DUP2 MSTORE PUSH1 0x40 DUP1 DUP4 KECCAK256 DUP2 MLOAD PUSH1 0x60 DUP2 ADD DUP4 MSTORE DUP2 SLOAD DUP1 DUP3 MSTORE PUSH1 0x1 DUP4 ADD SLOAD SWAP5 DUP3 ADD DUP6 SWAP1 MSTORE PUSH1 0x2 SWAP1 SWAP3 ADD SLOAD DUP2 DUP5 ADD MSTORE SWAP2 MLOAD SWAP2 SWAP4 SWAP1 SWAP2 DUP7 SWAP2 PUSH32 0x585A4AEF50F8267A92B32412B331B20F7F8B96F2245B253B9CC50DCC621D3397 SWAP2 LOG4 PUSH2 0x594 PUSH1 0x0 DUP5 PUSH4 0xFFFFFFFF PUSH2 0xF54 AND JUMP JUMPDEST PUSH1 0x0 DUP2 DUP2 MSTORE PUSH1 0x1 PUSH1 0x20 SWAP1 DUP2 MSTORE PUSH1 0x40 SWAP2 DUP3 SWAP1 KECCAK256 DUP1 SLOAD DUP4 MLOAD DUP2 DUP5 MUL DUP2 ADD DUP5 ADD SWAP1 SWAP5 MSTORE DUP1 DUP5 MSTORE PUSH1 0x60 SWAP4 SWAP3 DUP4 ADD DUP3 DUP3 DUP1 ISZERO PUSH2 0xB9C JUMPI PUSH1 0x20 MUL DUP3 ADD SWAP2 SWAP1 PUSH1 0x0 MSTORE PUSH1 0x20 PUSH1 0x0 KECCAK256 SWAP1 JUMPDEST DUP2 SLOAD DUP2 MSTORE PUSH1 0x20 ADD SWAP1 PUSH1 0x1 ADD SWAP1 DUP1 DUP4 GT PUSH2 0xB88 JUMPI JUMPDEST POP POP POP POP POP SWAP1 POP SWAP2 SWAP1 POP JUMP JUMPDEST PUSH1 0x5 SLOAD PUSH1 0x0 SWAP1 DUP2 MSTORE PUSH1 0x6 PUSH1 0x20 MSTORE PUSH1 0x40 DUP2 KECCAK256 PUSH1 0x3 ADD SLOAD PUSH2 0x100 SWAP1 DIV PUSH1 0xFF AND ISZERO PUSH2 0xC0A JUMPI PUSH1 0x40 DUP1 MLOAD PUSH3 0x461BCD PUSH1 0xE5 SHL DUP2 MSTORE PUSH1 0x20 PUSH1 0x4 DUP3 ADD MSTORE PUSH1 0x10 PUSH1 0x24 DUP3 ADD MSTORE PUSH16 0x105B1C9958591E48195E1958DD5D1959 PUSH1 0x82 SHL PUSH1 0x44 DUP3 ADD MSTORE SWAP1 MLOAD SWAP1 DUP2 SWAP1 SUB PUSH1 0x64 ADD SWAP1 REVERT JUMPDEST PUSH1 0x5 DUP1 SLOAD PUSH1 0x0 SWAP1 DUP2 MSTORE PUSH1 0x6 PUSH1 0x20 SWAP1 DUP2 MSTORE PUSH1 0x40 DUP1 DUP4 KECCAK256 DUP1 SLOAD PUSH1 0x1 PUSH1 0x1 PUSH1 0xA0 SHL SUB NOT AND PUSH1 0x1 PUSH1 0x1 PUSH1 0xA0 SHL SUB DUP11 AND OR SWAP1 SSTORE DUP4 SLOAD DUP4 MSTORE DUP1 DUP4 KECCAK256 PUSH1 0x1 ADD DUP8 SWAP1 SSTORE SWAP3 SLOAD DUP3 MSTORE SWAP2 SWAP1 KECCAK256 DUP4 MLOAD PUSH2 0xC60 SWAP3 PUSH1 0x2 SWAP1 SWAP3 ADD SWAP2 DUP6 ADD SWAP1 PUSH2 0xFFF JUMP JUMPDEST POP DUP3 DUP5 PUSH1 0x1 PUSH1 0x1 PUSH1 0xA0 SHL SUB AND PUSH1 0x5 SLOAD PUSH32 0x8AFCFABCB00E47A53A8FC3E9F23FF47EE1926194BB1350DD007C50B412A6CEE8 DUP6 PUSH1 0x40 MLOAD DUP1 DUP1 PUSH1 0x20 ADD DUP3 DUP2 SUB DUP3 MSTORE DUP4 DUP2 DUP2 MLOAD DUP2 MSTORE PUSH1 0x20 ADD SWAP2 POP DUP1 MLOAD SWAP1 PUSH1 0x20 ADD SWAP1 DUP1 DUP4 DUP4 PUSH1 0x0 JUMPDEST DUP4 DUP2 LT ISZERO PUSH2 0xCCE JUMPI DUP2 DUP2 ADD MLOAD DUP4 DUP3 ADD MSTORE PUSH1 0x20 ADD PUSH2 0xCB6 JUMP JUMPDEST POP POP POP POP SWAP1 POP SWAP1 DUP2 ADD SWAP1 PUSH1 0x1F AND DUP1 ISZERO PUSH2 0xCFB JUMPI DUP1 DUP3 SUB DUP1 MLOAD PUSH1 0x1 DUP4 PUSH1 0x20 SUB PUSH2 0x100 EXP SUB NOT AND DUP2 MSTORE PUSH1 0x20 ADD SWAP2 POP JUMPDEST POP SWAP3 POP POP POP PUSH1 0x40 MLOAD DUP1 SWAP2 SUB SWAP1 LOG4 PUSH1 0x40 DUP1 MLOAD CALLER PUSH1 0x20 DUP1 DUP4 ADD SWAP2 SWAP1 SWAP2 MSTORE DUP3 MLOAD DUP1 DUP4 SUB DUP3 ADD DUP2 MSTORE SWAP2 DUP4 ADD SWAP1 SWAP3 MSTORE DUP1 MLOAD SWAP2 ADD KECCAK256 PUSH2 0xD35 SWAP1 PUSH1 0x1 PUSH2 0xD96 JUMP JUMPDEST DUP1 PUSH2 0xD68 JUMPI POP PUSH1 0x40 DUP1 MLOAD CALLER PUSH1 0x20 DUP1 DUP4 ADD SWAP2 SWAP1 SWAP2 MSTORE DUP3 MLOAD DUP1 DUP4 SUB DUP3 ADD DUP2 MSTORE SWAP2 DUP4 ADD SWAP1 SWAP3 MSTORE DUP1 MLOAD SWAP2 ADD KECCAK256 PUSH2 0xD68 SWAP1 PUSH1 0x2 PUSH2 0xD96 JUMP JUMPDEST ISZERO PUSH2 0xD7C JUMPI PUSH2 0xD7A PUSH1 0x5 SLOAD PUSH1 0x1 PUSH2 0x65D JUMP JUMPDEST POP JUMPDEST POP PUSH1 0x5 DUP1 SLOAD PUSH1 0x1 DUP2 ADD SWAP1 SWAP2 SSTORE SWAP4 SWAP3 POP POP POP JUMP JUMPDEST PUSH1 0x2 SLOAD JUMPDEST SWAP1 JUMP JUMPDEST PUSH1 0x0 PUSH2 0xDA0 PUSH2 0xFDB JUMP JUMPDEST POP POP PUSH1 0x0 SWAP2 DUP3 MSTORE PUSH1 0x20 DUP3 DUP2 MSTORE PUSH1 0x40 SWAP3 DUP4 SWAP1 KECCAK256 DUP4 MLOAD PUSH1 0x60 DUP2 ADD DUP6 MSTORE DUP2 SLOAD DUP1 DUP3 MSTORE PUSH1 0x1 DUP4 ADD SLOAD SWAP4 DUP3 ADD SWAP4 SWAP1 SWAP4 MSTORE PUSH1 0x2 SWAP1 SWAP2 ADD SLOAD SWAP4 ADD SWAP3 SWAP1 SWAP3 MSTORE LT ISZERO SWAP1 JUMP JUMPDEST PUSH1 0x6 PUSH1 0x20 SWAP1 DUP2 MSTORE PUSH1 0x0 SWAP2 DUP3 MSTORE PUSH1 0x40 SWAP2 DUP3 SWAP1 KECCAK256 DUP1 SLOAD PUSH1 0x1 DUP1 DUP4 ADD SLOAD PUSH1 0x2 DUP1 DUP6 ADD DUP1 SLOAD DUP9 MLOAD PUSH2 0x100 SWAP6 DUP3 AND ISZERO SWAP6 SWAP1 SWAP6 MUL PUSH1 0x0 NOT ADD AND SWAP2 SWAP1 SWAP2 DIV PUSH1 0x1F DUP2 ADD DUP8 SWAP1 DIV DUP8 MUL DUP5 ADD DUP8 ADD SWAP1 SWAP8 MSTORE DUP7 DUP4 MSTORE PUSH1 0x1 PUSH1 0x1 PUSH1 0xA0 SHL SUB SWAP1 SWAP4 AND SWAP6 SWAP1 SWAP5 SWAP2 SWAP3 SWAP2 DUP4 ADD DUP3 DUP3 DUP1 ISZERO PUSH2 0xE88 JUMPI DUP1 PUSH1 0x1F LT PUSH2 0xE5D JUMPI PUSH2 0x100 DUP1 DUP4 SLOAD DIV MUL DUP4 MSTORE SWAP2 PUSH1 0x20 ADD SWAP2 PUSH2 0xE88 JUMP JUMPDEST DUP3 ADD SWAP2 SWAP1 PUSH1 0x0 MSTORE PUSH1 0x20 PUSH1 0x0 KECCAK256 SWAP1 JUMPDEST DUP2 SLOAD DUP2 MSTORE SWAP1 PUSH1 0x1 ADD SWAP1 PUSH1 0x20 ADD DUP1 DUP4 GT PUSH2 0xE6B JUMPI DUP3 SWAP1 SUB PUSH1 0x1F AND DUP3 ADD SWAP2 JUMPDEST POP POP POP PUSH1 0x3 SWAP1 SWAP4 ADD SLOAD SWAP2 SWAP3 POP POP PUSH1 0xFF DUP1 DUP3 AND SWAP2 PUSH2 0x100 SWAP1 DIV AND DUP6 JUMP JUMPDEST PUSH1 0x0 PUSH2 0xEAE PUSH2 0xFDB JUMP JUMPDEST POP PUSH1 0x0 DUP4 DUP2 MSTORE PUSH1 0x20 DUP6 DUP2 MSTORE PUSH1 0x40 SWAP2 DUP3 SWAP1 KECCAK256 DUP3 MLOAD PUSH1 0x60 DUP2 ADD DUP5 MSTORE DUP2 SLOAD DUP2 MSTORE PUSH1 0x1 DUP3 ADD SLOAD SWAP3 DUP2 ADD SWAP3 SWAP1 SWAP3 MSTORE PUSH1 0x2 ADD SLOAD SWAP2 DUP2 ADD DUP3 SWAP1 MSTORE SWAP1 PUSH2 0xEF0 JUMPI PUSH1 0x0 SWAP2 POP POP PUSH2 0x598 JUMP JUMPDEST DUP1 MLOAD DUP4 LT PUSH2 0xF02 JUMPI PUSH1 0x1 SWAP2 POP POP PUSH2 0x598 JUMP JUMPDEST POP PUSH1 0x0 SWAP5 SWAP4 POP POP POP POP JUMP JUMPDEST PUSH2 0xF20 PUSH1 0x0 DUP5 DUP5 DUP5 PUSH4 0xFFFFFFFF PUSH2 0xF7C AND JUMP JUMPDEST DUP1 DUP3 DUP5 PUSH32 0x480000BB1EDAD8CA1470381CC334B1917FBD51C6531F3A623EA8E0EC7E38A6E9 PUSH1 0x40 MLOAD PUSH1 0x40 MLOAD DUP1 SWAP2 SUB SWAP1 LOG4 POP POP POP JUMP JUMPDEST PUSH1 0x0 SWAP1 DUP2 MSTORE PUSH1 0x20 SWAP2 SWAP1 SWAP2 MSTORE PUSH1 0x40 DUP2 KECCAK256 PUSH1 0x1 DUP2 ADD DUP1 SLOAD DUP4 DUP4 SSTORE SWAP1 DUP4 SWAP1 SSTORE PUSH1 0x2 SWAP1 SWAP2 ADD SWAP2 SWAP1 SWAP2 SSTORE SWAP1 JUMP JUMPDEST PUSH1 0x0 DUP4 DUP2 MSTORE PUSH1 0x20 DUP6 SWAP1 MSTORE PUSH1 0x40 SWAP1 KECCAK256 DUP3 DUP2 SSTORE PUSH1 0x2 DUP2 ADD SLOAD PUSH2 0xFA5 JUMPI PUSH1 0x2 DUP2 ADD DUP5 SWAP1 SSTORE PUSH1 0x1 DUP2 ADD DUP3 SWAP1 SSTORE JUMPDEST POP POP PUSH1 0x0 SWAP1 DUP2 MSTORE PUSH1 0x1 DUP1 DUP5 ADD PUSH1 0x20 SWAP1 DUP2 MSTORE PUSH1 0x40 DUP4 KECCAK256 DUP1 SLOAD DUP1 DUP5 ADD DUP3 SSTORE SWAP1 DUP5 MSTORE SWAP3 KECCAK256 SWAP1 SWAP2 ADD SWAP2 SWAP1 SWAP2 SSTORE PUSH1 0x2 SWAP1 SWAP2 ADD DUP1 SLOAD SWAP1 SWAP2 ADD SWAP1 SSTORE JUMP JUMPDEST PUSH1 0x40 MLOAD DUP1 PUSH1 0x60 ADD PUSH1 0x40 MSTORE DUP1 PUSH1 0x0 DUP2 MSTORE PUSH1 0x20 ADD PUSH1 0x0 DUP2 MSTORE PUSH1 0x20 ADD PUSH1 0x0 DUP1 NOT AND DUP2 MSTORE POP SWAP1 JUMP JUMPDEST DUP3 DUP1 SLOAD PUSH1 0x1 DUP2 PUSH1 0x1 AND ISZERO PUSH2 0x100 MUL SUB AND PUSH1 0x2 SWAP1 DIV SWAP1 PUSH1 0x0 MSTORE PUSH1 0x20 PUSH1 0x0 KECCAK256 SWAP1 PUSH1 0x1F ADD PUSH1 0x20 SWAP1 DIV DUP2 ADD SWAP3 DUP3 PUSH1 0x1F LT PUSH2 0x1040 JUMPI DUP1 MLOAD PUSH1 0xFF NOT AND DUP4 DUP1 ADD OR DUP6 SSTORE PUSH2 0x106D JUMP JUMPDEST DUP3 DUP1 ADD PUSH1 0x1 ADD DUP6 SSTORE DUP3 ISZERO PUSH2 0x106D JUMPI SWAP2 DUP3 ADD JUMPDEST DUP3 DUP2 GT ISZERO PUSH2 0x106D JUMPI DUP3 MLOAD DUP3 SSTORE SWAP2 PUSH1 0x20 ADD SWAP2 SWAP1 PUSH1 0x1 ADD SWAP1 PUSH2 0x1052 JUMP JUMPDEST POP PUSH2 0x1079 SWAP3 SWAP2 POP PUSH2 0x107D JUMP JUMPDEST POP SWAP1 JUMP JUMPDEST PUSH2 0xD93 SWAP2 SWAP1 JUMPDEST DUP1 DUP3 GT ISZERO PUSH2 0x1079 JUMPI PUSH1 0x0 DUP2 SSTORE PUSH1 0x1 ADD PUSH2 0x1083 JUMP INVALID MSTORE8 PUSH6 0x6E6465722064 PUSH16 0x6573206E6F742068617665206D616E61 PUSH8 0x656D656E74206B65 PUSH26 0xA265627A7A723158208E2E9F0D13CAE833AE2E85D52645F282D2 CALLDATASIZE MSTORE DUP2 MUL 0xE CALLDATACOPY 0xC0 0xCA PUSH19 0xD323FC0F207364736F6C634300051100320000 ",
  "sha1": "de66064b0e071ab2a32165790a1d2dafcd04e022",
  "source": "pragma solidity ^0.5.4;\nimport \"./Pausable.sol\";\nimport \"./ERC725.sol\";\n\ncontract KeyManager is PausableI, ERC725 {\n    uint256 executionNonce;\n    uint256 internal constant OPERATION_CALL = 0;\n\n    struct Execution {\n        address to;\n        uint256 value;\n        bytes data;\n        bool approved;\n        bool executed;\n    }\n\n    mapping (uint256 => Execution) public executions;\n    mapping (uint256 => address[]) public approved;\n    /// @dev Add key data to the identity if key + purpose tuple doesn't already exist\n    /// @param _key Key bytes to add\n    /// @param _purpose Purpose to add\n    /// @param _keyType Key type to add\n    /// @return `true` if key was added, `false` if it already exists\n    function addKey(\n        bytes32 _key,\n        uint256 _purpose,\n        uint256 _keyType\n    )\n        public\n        whenNotPaused\n        returns (bool success)\n    {\n        if (allKeys.find(_key, _purpose)) {\n            return false;\n        }\n\n        if (msg.sender != address(this)) {\n            require(keyHasPurpose(keccak256(abi.encode(msg.sender)), 1), \"Sender does not have management key\");\n        }\n        \n        _addKey(_key, _purpose, _keyType);\n        return true;\n    }\n\n    /// @dev Remove key data from the identity\n    /// @param _key Key bytes to remove\n\n    /// @return `true` if key was found and removed, `false` if it wasn't found\n    function removeKey(\n        bytes32 _key\n    )\n        public\n        whenNotPaused\n        returns (bool success)\n    {\n        if (msg.sender != address(this)) {\n            require(keyHasPurpose(keccak256(abi.encode(msg.sender)), 1), \"Sender does not have management key\");\n        }\n        \n        KeyStore.Key memory k = allKeys.keyData[_key];\n        emit KeyRemoved(_key, k.purpose, k.keyType);\n        \n        allKeys.remove(_key);\n        \n        return true;\n    }\n\n    /// @dev Add key data to the identity without checking if it already exists\n    /// @param _key Key bytes to add\n    /// @param _purpose Purpose to add\n    /// @param _keyType Key type to add\n    function _addKey(\n        bytes32 _key,\n        uint256 _purpose,\n        uint256 _keyType\n    )\n        internal\n    {\n\n        allKeys.add(_key, _purpose, _keyType);\n        emit KeyAdded(_key, _purpose, _keyType);\n    }\n\n    function getKey(\n        bytes32 _key\n    )\n        public\n        view\n        returns(uint256 purpose, uint256 keyType, bytes32 key)\n    {\n        KeyStore.Key memory k = allKeys.keyData[_key];\n        purpose = k.purpose;\n        keyType = k.keyType;\n        key = k.key;\n    }\n\n    /// @dev Find if a key has is present and has the given purpose\n    /// @param _key Key bytes to find\n    /// @param purpose Purpose to find\n    /// @return Boolean indicating whether the key exists or not\n    function keyHasPurpose(\n        bytes32 _key,\n        uint256 purpose\n    )\n        public\n        view\n        returns(bool exists)\n    {\n        KeyStore.Key memory k = allKeys.keyData[_key];\n        return k.purpose <= purpose;\n    }\n\n    /// @dev Find all the keys held by this identity for a given purpose\n    /// @param _purpose Purpose to find\n    /// @return Array with key bytes for that purpose (empty if none)\n    function getKeysByPurpose(uint256 _purpose)\n        public\n        view\n        returns(bytes32[] memory keys)\n    {\n        return allKeys.keysByPurpose[_purpose];\n    }\n\n\n    function approve(uint256 _id, bool _approve)\n        public\n        returns (bool success)\n    {\n        require(keyHasPurpose(keccak256(abi.encode(msg.sender)), 2), \"Sender does not have action key\");\n\n        emit Approved(_id, _approve);\n        bytes memory tmp;\n\n        if (_approve == true) {\n            executions[_id].approved = true;\n            (success, tmp) = executions[_id].to.call(executions[_id].data);\n            if (success) {\n                executions[_id].executed = true;\n                emit Executed(\n                    _id,\n                    executions[_id].to,\n                    executions[_id].value,\n                    executions[_id].data\n                );\n                return true;\n            } else {\n                emit ExecutionFailed(\n                    _id,\n                    executions[_id].to,\n                    executions[_id].value,\n                    executions[_id].data\n                );\n                return false;\n            }\n        } else {\n            executions[_id].approved = false;\n        }\n        return true;\n    }\n\n\n    function execute(address _to, uint256 _value, bytes memory _data)\n        public\n        returns (uint256 executionId)\n    {\n        require(!executions[executionNonce].executed, \"Already executed\");\n        executions[executionNonce].to = _to;\n        executions[executionNonce].value = _value;\n        executions[executionNonce].data = _data;\n\n        emit ExecutionRequested(executionNonce, _to, _value, _data);\n\n        if (keyHasPurpose(keccak256(abi.encode(msg.sender)), 1) || keyHasPurpose(keccak256(abi.encode(msg.sender)), 2)) {\n            approve(executionNonce, true);\n        }\n\n        executionNonce++;\n        return executionNonce-1;\n    }\n}\n",
  "sourcePath": "contracts/libraries/KeyManager.sol",
  "type": "contract"
}