{
  "contractName": "KeyManager",
  "abi": [
    {
      "constant": true,
      "inputs": [
        {
          "name": "interfaceId",
          "type": "bytes4"
        }
      ],
      "name": "supportsInterface",
      "outputs": [
        {
          "name": "",
          "type": "bool"
        }
      ],
      "payable": false,
      "stateMutability": "view",
      "type": "function"
    },
    {
      "constant": false,
      "inputs": [],
      "name": "unpause",
      "outputs": [],
      "payable": false,
      "stateMutability": "nonpayable",
      "type": "function"
    },
    {
      "constant": true,
      "inputs": [],
      "name": "paused",
      "outputs": [
        {
          "name": "",
          "type": "bool"
        }
      ],
      "payable": false,
      "stateMutability": "view",
      "type": "function"
    },
    {
      "constant": true,
      "inputs": [
        {
          "name": "addr",
          "type": "address"
        }
      ],
      "name": "addrToKey",
      "outputs": [
        {
          "name": "",
          "type": "bytes32"
        }
      ],
      "payable": false,
      "stateMutability": "pure",
      "type": "function"
    },
    {
      "constant": true,
      "inputs": [
        {
          "name": "",
          "type": "uint256"
        },
        {
          "name": "",
          "type": "uint256"
        }
      ],
      "name": "approved",
      "outputs": [
        {
          "name": "",
          "type": "address"
        }
      ],
      "payable": false,
      "stateMutability": "view",
      "type": "function"
    },
    {
      "constant": false,
      "inputs": [],
      "name": "pause",
      "outputs": [],
      "payable": false,
      "stateMutability": "nonpayable",
      "type": "function"
    },
    {
      "constant": true,
      "inputs": [],
      "name": "numKeys",
      "outputs": [
        {
          "name": "",
          "type": "uint256"
        }
      ],
      "payable": false,
      "stateMutability": "view",
      "type": "function"
    },
    {
      "constant": true,
      "inputs": [
        {
          "name": "",
          "type": "uint256"
        }
      ],
      "name": "executions",
      "outputs": [
        {
          "name": "to",
          "type": "address"
        },
        {
          "name": "value",
          "type": "uint256"
        },
        {
          "name": "data",
          "type": "bytes"
        },
        {
          "name": "approved",
          "type": "bool"
        },
        {
          "name": "executed",
          "type": "bool"
        }
      ],
      "payable": false,
      "stateMutability": "view",
      "type": "function"
    },
    {
      "anonymous": false,
      "inputs": [
        {
          "indexed": true,
          "name": "key",
          "type": "bytes32"
        },
        {
          "indexed": true,
          "name": "purpose",
          "type": "uint256"
        },
        {
          "indexed": true,
          "name": "keyType",
          "type": "uint256"
        }
      ],
      "name": "KeyAdded",
      "type": "event"
    },
    {
      "anonymous": false,
      "inputs": [
        {
          "indexed": true,
          "name": "key",
          "type": "bytes32"
        },
        {
          "indexed": true,
          "name": "purpose",
          "type": "uint256"
        },
        {
          "indexed": true,
          "name": "keyType",
          "type": "uint256"
        }
      ],
      "name": "KeyRemoved",
      "type": "event"
    },
    {
      "anonymous": false,
      "inputs": [
        {
          "indexed": true,
          "name": "executionId",
          "type": "uint256"
        },
        {
          "indexed": true,
          "name": "to",
          "type": "address"
        },
        {
          "indexed": true,
          "name": "value",
          "type": "uint256"
        },
        {
          "indexed": false,
          "name": "data",
          "type": "bytes"
        }
      ],
      "name": "ExecutionRequested",
      "type": "event"
    },
    {
      "anonymous": false,
      "inputs": [
        {
          "indexed": true,
          "name": "executionId",
          "type": "uint256"
        },
        {
          "indexed": true,
          "name": "to",
          "type": "address"
        },
        {
          "indexed": true,
          "name": "value",
          "type": "uint256"
        },
        {
          "indexed": false,
          "name": "data",
          "type": "bytes"
        }
      ],
      "name": "Executed",
      "type": "event"
    },
    {
      "anonymous": false,
      "inputs": [
        {
          "indexed": true,
          "name": "executionId",
          "type": "uint256"
        },
        {
          "indexed": false,
          "name": "approved",
          "type": "bool"
        }
      ],
      "name": "Approved",
      "type": "event"
    },
    {
      "anonymous": false,
      "inputs": [
        {
          "indexed": true,
          "name": "purpose",
          "type": "uint256"
        },
        {
          "indexed": true,
          "name": "number",
          "type": "uint256"
        }
      ],
      "name": "KeysRequiredChanged",
      "type": "event"
    },
    {
      "anonymous": false,
      "inputs": [
        {
          "indexed": true,
          "name": "executionId",
          "type": "uint256"
        },
        {
          "indexed": true,
          "name": "to",
          "type": "address"
        },
        {
          "indexed": true,
          "name": "value",
          "type": "uint256"
        },
        {
          "indexed": false,
          "name": "data",
          "type": "bytes"
        }
      ],
      "name": "ExecutionFailed",
      "type": "event"
    },
    {
      "anonymous": false,
      "inputs": [],
      "name": "LogPause",
      "type": "event"
    },
    {
      "anonymous": false,
      "inputs": [],
      "name": "LogUnpause",
      "type": "event"
    },
    {
      "constant": false,
      "inputs": [
        {
          "name": "_key",
          "type": "bytes32"
        },
        {
          "name": "_purpose",
          "type": "uint256"
        },
        {
          "name": "_keyType",
          "type": "uint256"
        }
      ],
      "name": "addKey",
      "outputs": [
        {
          "name": "success",
          "type": "bool"
        }
      ],
      "payable": false,
      "stateMutability": "nonpayable",
      "type": "function"
    },
    {
      "constant": false,
      "inputs": [
        {
          "name": "_key",
          "type": "bytes32"
        }
      ],
      "name": "removeKey",
      "outputs": [
        {
          "name": "success",
          "type": "bool"
        }
      ],
      "payable": false,
      "stateMutability": "nonpayable",
      "type": "function"
    },
    {
      "constant": true,
      "inputs": [
        {
          "name": "_key",
          "type": "bytes32"
        }
      ],
      "name": "getKey",
      "outputs": [
        {
          "name": "purpose",
          "type": "uint256"
        },
        {
          "name": "keyType",
          "type": "uint256"
        },
        {
          "name": "key",
          "type": "bytes32"
        }
      ],
      "payable": false,
      "stateMutability": "view",
      "type": "function"
    },
    {
      "constant": true,
      "inputs": [
        {
          "name": "_key",
          "type": "bytes32"
        },
        {
          "name": "purpose",
          "type": "uint256"
        }
      ],
      "name": "keyHasPurpose",
      "outputs": [
        {
          "name": "exists",
          "type": "bool"
        }
      ],
      "payable": false,
      "stateMutability": "view",
      "type": "function"
    },
    {
      "constant": true,
      "inputs": [
        {
          "name": "_purpose",
          "type": "uint256"
        }
      ],
      "name": "getKeysByPurpose",
      "outputs": [
        {
          "name": "keys",
          "type": "bytes32[]"
        }
      ],
      "payable": false,
      "stateMutability": "view",
      "type": "function"
    },
    {
      "constant": false,
      "inputs": [
        {
          "name": "_id",
          "type": "uint256"
        },
        {
          "name": "_approve",
          "type": "bool"
        }
      ],
      "name": "approve",
      "outputs": [
        {
          "name": "success",
          "type": "bool"
        }
      ],
      "payable": false,
      "stateMutability": "nonpayable",
      "type": "function"
    },
    {
      "constant": false,
      "inputs": [
        {
          "name": "_to",
          "type": "address"
        },
        {
          "name": "_value",
          "type": "uint256"
        },
        {
          "name": "_data",
          "type": "bytes"
        }
      ],
      "name": "execute",
      "outputs": [
        {
          "name": "executionId",
          "type": "uint256"
        }
      ],
      "payable": false,
      "stateMutability": "nonpayable",
      "type": "function"
    }
  ],
  "bytecode": "0x60806040526000600360006101000a81548160ff02191690831515021790555061005a6301ffc9a77c01000000000000000000000000000000000000000000000000000000000261009a640100000000026401000000009004565b61009563fccbffbc7c01000000000000000000000000000000000000000000000000000000000261009a640100000000026401000000009004565b6101c1565b63ffffffff7c010000000000000000000000000000000000000000000000000000000002817bffffffffffffffffffffffffffffffffffffffffffffffffffffffff191614151515610154576040517f08c379a000000000000000000000000000000000000000000000000000000000815260040180806020018281038252601c8152602001807f4552433136353a20696e76616c696420696e746572666163652069640000000081525060200191505060405180910390fd5b600160046000837bffffffffffffffffffffffffffffffffffffffffffffffffffffffff19167bffffffffffffffffffffffffffffffffffffffffffffffffffffffff1916815260200190815260200160002060006101000a81548160ff02191690831515021790555050565b6118e7806101d06000396000f3fe608060405234801561001057600080fd5b5060043610610112576000357c010000000000000000000000000000000000000000000000000000000090048063747442d3116100b4578063b61d27f611610083578063b61d27f614610447578063c9d24ecc14610540578063d202158d1461055e578063f76c9229146105ae57610112565b8063747442d3146103225780638456cb5914610374578063862642f51461037e5780639010f726146103c457610112565b80633f4ba83a116100f05780633f4ba83a146102265780635c975abb1461023057806363f14c3c146102525780636e4c4311146102aa57610112565b806301ffc9a71461011757806312aaac701461017c5780631d381240146101cc575b600080fd5b6101626004803603602081101561012d57600080fd5b8101908080357bffffffffffffffffffffffffffffffffffffffffffffffffffffffff191690602001909291905050506106a5565b604051808215151515815260200191505060405180910390f35b6101a86004803603602081101561019257600080fd5b810190808035906020019092919050505061070d565b60405180848152602001838152602001828152602001935050505060405180910390f35b61020c600480360360608110156101e257600080fd5b81019080803590602001909291908035906020019092919080359060200190929190505050610778565b604051808215151515815260200191505060405180910390f35b61022e6108bb565b005b61023861091f565b604051808215151515815260200191505060405180910390f35b6102946004803603602081101561026857600080fd5b81019080803573ffffffffffffffffffffffffffffffffffffffff169060200190929190505050610932565b6040518082815260200191505060405180910390f35b6102e0600480360360408110156102c057600080fd5b81019080803590602001909291908035906020019092919050505061099d565b604051808273ffffffffffffffffffffffffffffffffffffffff1673ffffffffffffffffffffffffffffffffffffffff16815260200191505060405180910390f35b61035a6004803603604081101561033857600080fd5b81019080803590602001909291908035151590602001909291905050506109ea565b604051808215151515815260200191505060405180910390f35b61037c610f2f565b005b6103aa6004803603602081101561039457600080fd5b8101908080359060200190929190505050610f94565b604051808215151515815260200191505060405180910390f35b6103f0600480360360208110156103da57600080fd5b810190808035906020019092919050505061113b565b6040518080602001828103825283818151815260200191508051906020019060200280838360005b83811015610433578082015181840152602081019050610418565b505050509050019250505060405180910390f35b61052a6004803603606081101561045d57600080fd5b81019080803573ffffffffffffffffffffffffffffffffffffffff16906020019092919080359060200190929190803590602001906401000000008111156104a457600080fd5b8201836020820111156104b657600080fd5b803590602001918460018302840111640100000000831117156104d857600080fd5b91908080601f016020809104026020016040519081016040528093929190818152602001838380828437600081840152601f19601f8201169050808301925050505050505091929192905050506111a9565b6040518082815260200191505060405180910390f35b610548611494565b6040518082815260200191505060405180910390f35b6105946004803603604081101561057457600080fd5b8101908080359060200190929190803590602001909291905050506114a0565b604051808215151515815260200191505060405180910390f35b6105da600480360360208110156105c457600080fd5b81019080803590602001909291905050506114fc565b604051808673ffffffffffffffffffffffffffffffffffffffff1673ffffffffffffffffffffffffffffffffffffffff168152602001858152602001806020018415151515815260200183151515158152602001828103825285818151815260200191508051906020019080838360005b8381101561066657808201518184015260208101905061064b565b50505050905090810190601f1680156106935780820380516001836020036101000a031916815260200191505b50965050505050505060405180910390f35b600060046000837bffffffffffffffffffffffffffffffffffffffffffffffffffffffff19167bffffffffffffffffffffffffffffffffffffffffffffffffffffffff1916815260200190815260200160002060009054906101000a900460ff169050919050565b600080600061071a6117ce565b6000800160008681526020019081526020016000206060604051908101604052908160008201548152602001600182015481526020016002820154815250509050806000015193508060200151925080604001519150509193909250565b6000600360009054906101000a900460ff1615151561079657600080fd5b6107ac848460006116049092919063ffffffff16565b156107ba57600090506108b4565b3073ffffffffffffffffffffffffffffffffffffffff163373ffffffffffffffffffffffffffffffffffffffff161415156108a45761084c33604051602001808273ffffffffffffffffffffffffffffffffffffffff1673ffffffffffffffffffffffffffffffffffffffff1681526020019150506040516020818303038152906040528051906020012060016114a0565b15156108a3576040517f08c379a00000000000000000000000000000000000000000000000000000000081526004018080602001828103825260238152602001806118996023913960400191505060405180910390fd5b5b6108af84848461168d565b600190505b9392505050565b600360009054906101000a900460ff1615156108d657600080fd5b6000600360006101000a81548160ff0219169083151502179055507f730c1faaa977b67dacf1e2451ef54556e04a07d577785ff79f6d31f73502efc960405160405180910390a1565b600360009054906101000a900460ff1681565b600081604051602001808273ffffffffffffffffffffffffffffffffffffffff1673ffffffffffffffffffffffffffffffffffffffff166c01000000000000000000000000028152601401915050604051602081830303815290604052805190602001209050919050565b6007602052816000526040600020818154811015156109b857fe5b906000526020600020016000915091509054906101000a900473ffffffffffffffffffffffffffffffffffffffff1681565b6000610a4933604051602001808273ffffffffffffffffffffffffffffffffffffffff1673ffffffffffffffffffffffffffffffffffffffff1681526020019150506040516020818303038152906040528051906020012060026114a0565b1515610abd576040517f08c379a000000000000000000000000000000000000000000000000000000000815260040180806020018281038252601f8152602001807f53656e64657220646f6573206e6f74206861766520616374696f6e206b65790081525060200191505060405180910390fd5b827fb3932da477fe5d6c8ff2eafef050c0f3a1af18fc07121001482600f36f3715d883604051808215151515815260200191505060405180910390a26060600115158315151415610ef45760016006600086815260200190815260200160002060030160006101000a81548160ff0219169083151502179055506006600085815260200190815260200160002060000160009054906101000a900473ffffffffffffffffffffffffffffffffffffffff1673ffffffffffffffffffffffffffffffffffffffff16600660008681526020019081526020016000206002016040518082805460018160011615610100020316600290048015610bf55780601f10610bd3576101008083540402835291820191610bf5565b820191906000526020600020905b815481529060010190602001808311610be1575b50509150506000604051808303816000865af19150503d8060008114610c37576040519150601f19603f3d011682016040523d82523d6000602084013e610c3c565b606091505b5080925081935050508115610db75760016006600086815260200190815260200160002060030160016101000a81548160ff02191690831515021790555060066000858152602001908152602001600020600101546006600086815260200190815260200160002060000160009054906101000a900473ffffffffffffffffffffffffffffffffffffffff1673ffffffffffffffffffffffffffffffffffffffff16857f1f920dbda597d7bf95035464170fa58d0a4b57f13a1c315ace6793b9f63688b8600660008981526020019081526020016000206002016040518080602001828103825283818154600181600116156101000203166002900481526020019150805460018160011615610100020316600290048015610d9f5780601f10610d7457610100808354040283529160200191610d9f565b820191906000526020600020905b815481529060010190602001808311610d8257829003601f168201915b50509250505060405180910390a46001915050610f29565b60066000858152602001908152602001600020600101546006600086815260200190815260200160002060000160009054906101000a900473ffffffffffffffffffffffffffffffffffffffff1673ffffffffffffffffffffffffffffffffffffffff16857fe10c49d9f7c71da23262367013434763cfdb2332267641728d25cd712c5c6a68600660008981526020019081526020016000206002016040518080602001828103825283818154600181600116156101000203166002900481526020019150805460018160011615610100020316600290048015610edc5780601f10610eb157610100808354040283529160200191610edc565b820191906000526020600020905b815481529060010190602001808311610ebf57829003601f168201915b50509250505060405180910390a46000915050610f29565b60006006600086815260200190815260200160002060030160006101000a81548160ff02191690831515021790555060019150505b92915050565b600360009054906101000a900460ff16151515610f4b57600080fd5b6001600360006101000a81548160ff0219169083151502179055507f4b314b34e912fda7f95e7d23e9c8c95f82f0aff1984e4ce592a0b005f905562460405160405180910390a1565b6000600360009054906101000a900460ff16151515610fb257600080fd5b3073ffffffffffffffffffffffffffffffffffffffff163373ffffffffffffffffffffffffffffffffffffffff1614151561109c5761104433604051602001808273ffffffffffffffffffffffffffffffffffffffff1673ffffffffffffffffffffffffffffffffffffffff1681526020019150506040516020818303038152906040528051906020012060016114a0565b151561109b576040517f08c379a00000000000000000000000000000000000000000000000000000000081526004018080602001828103825260238152602001806118996023913960400191505060405180910390fd5b5b6110a46117ce565b600080016000848152602001908152602001600020606060405190810160405290816000820154815260200160018201548152602001600282015481525050905080602001518160000151847f585a4aef50f8267a92b32412b331b20f7f8b96f2245b253b9cc50dcc621d339760405160405180910390a46111308360006116d990919063ffffffff16565b506001915050919050565b60606000600101600083815260200190815260200160002080548060200260200160405190810160405280929190818152602001828054801561119d57602002820191906000526020600020905b815481526020019060010190808311611189575b50505050509050919050565b600060066000600554815260200190815260200160002060030160019054906101000a900460ff16151515611246576040517f08c379a00000000000000000000000000000000000000000000000000000000081526004018080602001828103825260108152602001807f416c72656164792065786563757465640000000000000000000000000000000081525060200191505060405180910390fd5b8360066000600554815260200190815260200160002060000160006101000a81548173ffffffffffffffffffffffffffffffffffffffff021916908373ffffffffffffffffffffffffffffffffffffffff16021790555082600660006005548152602001908152602001600020600101819055508160066000600554815260200190815260200160002060020190805190602001906112e69291906117f3565b50828473ffffffffffffffffffffffffffffffffffffffff166005547f8afcfabcb00e47a53a8fc3e9f23ff47ee1926194bb1350dd007c50b412a6cee8856040518080602001828103825283818151815260200191508051906020019080838360005b83811015611364578082015181840152602081019050611349565b50505050905090810190601f1680156113915780820380516001836020036101000a031916815260200191505b509250505060405180910390a46113fb33604051602001808273ffffffffffffffffffffffffffffffffffffffff1673ffffffffffffffffffffffffffffffffffffffff1681526020019150506040516020818303038152906040528051906020012060016114a0565b8061145f575061145e33604051602001808273ffffffffffffffffffffffffffffffffffffffff1673ffffffffffffffffffffffffffffffffffffffff1681526020019150506040516020818303038152906040528051906020012060026114a0565b5b156114735761147160055460016109ea565b505b60056000815480929190600101919050555060016005540390509392505050565b60008060020154905090565b60006114aa6117ce565b6000800160008581526020019081526020016000206060604051908101604052908160008201548152602001600182015481526020016002820154815250509050828160000151111591505092915050565b60066020528060005260406000206000915090508060000160009054906101000a900473ffffffffffffffffffffffffffffffffffffffff1690806001015490806002018054600181600116156101000203166002900480601f0160208091040260200160405190810160405280929190818152602001828054600181600116156101000203166002900480156115d45780601f106115a9576101008083540402835291602001916115d4565b820191906000526020600020905b8154815290600101906020018083116115b757829003601f168201915b5050505050908060030160009054906101000a900460ff16908060030160019054906101000a900460ff16905085565b600061160e6117ce565b8460000160008581526020019081526020016000206060604051908101604052908160008201548152602001600182015481526020016002820154815250509050600060010281604001511415611669576000915050611686565b828160000151111515611680576001915050611686565b60009150505b9392505050565b6116a5838383600061172f909392919063ffffffff16565b8082847f480000bb1edad8ca1470381cc334b1917fbd51c6531f3a623ea8e0ec7e38a6e960405160405180910390a4505050565b600082600001600083815260200190815260200160002060010154905082600001600083815260200190815260200160002060008082016000905560018201600090556002820160009055505080905092915050565b60008460000160008581526020019081526020016000209050828160000181905550600060010281600201541415611774578381600201819055508181600101819055505b84600101600084815260200190815260200160002084908060018154018082558091505090600182039060005260206000200160009091929091909150555084600201600081548092919060010191905055505050505050565b6060604051908101604052806000815260200160008152602001600080191681525090565b828054600181600116156101000203166002900490600052602060002090601f016020900481019282601f1061183457805160ff1916838001178555611862565b82800160010185558215611862579182015b82811115611861578251825591602001919060010190611846565b5b50905061186f9190611873565b5090565b61189591905b80821115611891576000816000905550600101611879565b5090565b9056fe53656e64657220646f6573206e6f742068617665206d616e6167656d656e74206b6579a165627a7a7230582041429d292ceac75932f35c4c77345e4b604d080477475d1781af3da58f4b719f0029",
  "source": "pragma solidity ^0.5.4;\nimport \"./Pausable.sol\";\nimport \"./ERC725.sol\";\n\ncontract KeyManager is PausableI, ERC725 {\n    uint256 executionNonce;\n    uint256 internal constant OPERATION_CALL = 0;\n\n    struct Execution {\n        address to;\n        uint256 value;\n        bytes data;\n        bool approved;\n        bool executed;\n    }\n\n    mapping (uint256 => Execution) public executions;\n    mapping (uint256 => address[]) public approved;\n    /// @dev Add key data to the identity if key + purpose tuple doesn't already exist\n    /// @param _key Key bytes to add\n    /// @param _purpose Purpose to add\n    /// @param _keyType Key type to add\n    /// @return `true` if key was added, `false` if it already exists\n    function addKey(\n        bytes32 _key,\n        uint256 _purpose,\n        uint256 _keyType\n    )\n        public\n        whenNotPaused\n        returns (bool success)\n    {\n        if (allKeys.find(_key, _purpose)) {\n            return false;\n        }\n\n        if (msg.sender != address(this)) {\n            require(keyHasPurpose(keccak256(abi.encode(msg.sender)), 1), \"Sender does not have management key\");\n        }\n        \n        _addKey(_key, _purpose, _keyType);\n        return true;\n    }\n\n    /// @dev Remove key data from the identity\n    /// @param _key Key bytes to remove\n\n    /// @return `true` if key was found and removed, `false` if it wasn't found\n    function removeKey(\n        bytes32 _key\n    )\n        public\n        whenNotPaused\n        returns (bool success)\n    {\n        if (msg.sender != address(this)) {\n            require(keyHasPurpose(keccak256(abi.encode(msg.sender)), 1), \"Sender does not have management key\");\n        }\n        \n        KeyStore.Key memory k = allKeys.keyData[_key];\n        emit KeyRemoved(_key, k.purpose, k.keyType);\n        \n        allKeys.remove(_key);\n        \n        return true;\n    }\n\n    /// @dev Add key data to the identity without checking if it already exists\n    /// @param _key Key bytes to add\n    /// @param _purpose Purpose to add\n    /// @param _keyType Key type to add\n    function _addKey(\n        bytes32 _key,\n        uint256 _purpose,\n        uint256 _keyType\n    )\n        internal\n    {\n\n        allKeys.add(_key, _purpose, _keyType);\n        emit KeyAdded(_key, _purpose, _keyType);\n    }\n\n    function getKey(\n        bytes32 _key\n    )\n        public\n        view\n        returns(uint256 purpose, uint256 keyType, bytes32 key)\n    {\n        KeyStore.Key memory k = allKeys.keyData[_key];\n        purpose = k.purpose;\n        keyType = k.keyType;\n        key = k.key;\n    }\n\n    /// @dev Find if a key has is present and has the given purpose\n    /// @param _key Key bytes to find\n    /// @param purpose Purpose to find\n    /// @return Boolean indicating whether the key exists or not\n    function keyHasPurpose(\n        bytes32 _key,\n        uint256 purpose\n    )\n        public\n        view\n        returns(bool exists)\n    {\n        KeyStore.Key memory k = allKeys.keyData[_key];\n        return k.purpose <= purpose;\n    }\n\n    /// @dev Find all the keys held by this identity for a given purpose\n    /// @param _purpose Purpose to find\n    /// @return Array with key bytes for that purpose (empty if none)\n    function getKeysByPurpose(uint256 _purpose)\n        public\n        view\n        returns(bytes32[] memory keys)\n    {\n        return allKeys.keysByPurpose[_purpose];\n    }\n\n\n    function approve(uint256 _id, bool _approve)\n        public\n        returns (bool success)\n    {\n        require(keyHasPurpose(keccak256(abi.encode(msg.sender)), 2), \"Sender does not have action key\");\n\n        emit Approved(_id, _approve);\n        bytes memory tmp;\n\n        if (_approve == true) {\n            executions[_id].approved = true;\n            (success, tmp) = executions[_id].to.call(executions[_id].data);\n            if (success) {\n                executions[_id].executed = true;\n                emit Executed(\n                    _id,\n                    executions[_id].to,\n                    executions[_id].value,\n                    executions[_id].data\n                );\n                return true;\n            } else {\n                emit ExecutionFailed(\n                    _id,\n                    executions[_id].to,\n                    executions[_id].value,\n                    executions[_id].data\n                );\n                return false;\n            }\n        } else {\n            executions[_id].approved = false;\n        }\n        return true;\n    }\n\n\n    function execute(address _to, uint256 _value, bytes memory _data)\n        public\n        returns (uint256 executionId)\n    {\n        require(!executions[executionNonce].executed, \"Already executed\");\n        executions[executionNonce].to = _to;\n        executions[executionNonce].value = _value;\n        executions[executionNonce].data = _data;\n\n        emit ExecutionRequested(executionNonce, _to, _value, _data);\n\n        if (keyHasPurpose(keccak256(abi.encode(msg.sender)), 1) || keyHasPurpose(keccak256(abi.encode(msg.sender)), 2)) {\n            approve(executionNonce, true);\n        }\n\n        executionNonce++;\n        return executionNonce-1;\n    }\n}\n",
  "sourcePath": "/home/duchuy/Documents/bach_khoa/luan_van/ecs/ecs-smart-contracts/contracts/libraries/KeyManager.sol",
  "compiler": {
    "name": "solc",
    "version": "0.5.4+commit.9549d8ff.Emscripten.clang"
  },
  "schemaVersion": "3.4.1",
  "updatedAt": "2021-11-01T14:38:11.129Z",
  "devdoc": {
    "methods": {
      "addKey(bytes32,uint256,uint256)": {
        "details": "Add key data to the identity if key + purpose tuple doesn't already exist",
        "params": {
          "_key": "Key bytes to add",
          "_keyType": "Key type to add",
          "_purpose": "Purpose to add"
        },
        "return": "`true` if key was added, `false` if it already exists"
      },
      "addrToKey(address)": {
        "details": "Convert an Ethereum address (20 bytes) to an ERC725 key (32 bytes)"
      },
      "getKeysByPurpose(uint256)": {
        "details": "Find all the keys held by this identity for a given purpose",
        "params": {
          "_purpose": "Purpose to find"
        },
        "return": "Array with key bytes for that purpose (empty if none)"
      },
      "keyHasPurpose(bytes32,uint256)": {
        "details": "Find if a key has is present and has the given purpose",
        "params": {
          "_key": "Key bytes to find",
          "purpose": "Purpose to find"
        },
        "return": "Boolean indicating whether the key exists or not"
      },
      "numKeys()": {
        "details": "Number of keys managed by the contract",
        "return": "Unsigned integer number of keys"
      },
      "pause()": {
        "details": "called by a MANAGEMENT_KEY or the identity itself to pause, triggers stopped state"
      },
      "removeKey(bytes32)": {
        "details": "Remove key data from the identity",
        "params": {
          "_key": "Key bytes to remove"
        },
        "return": "`true` if key was found and removed, `false` if it wasn't found"
      },
      "supportsInterface(bytes4)": {
        "details": "See {IERC165-supportsInterface}.     * Time complexity O(1), guaranteed to always use less than 30 000 gas."
      },
      "unpause()": {
        "details": "called by a MANAGEMENT_KEY or the identity itself to unpause, returns to normal state"
      }
    }
  },
  "userdoc": {
    "methods": {}
  }
}