{
  "contractName": "NFTFactory",
  "abi": [
    {
      "anonymous": false,
      "inputs": [
        {
          "indexed": false,
          "name": "NewERC721Address",
          "type": "address"
        },
        {
          "indexed": false,
          "name": "Creator",
          "type": "address"
        }
      ],
      "name": "NFTCreated",
      "type": "event"
    },
    {
      "anonymous": false,
      "inputs": [
        {
          "indexed": false,
          "name": "Salt",
          "type": "uint256"
        },
        {
          "indexed": false,
          "name": "NFT",
          "type": "address"
        }
      ],
      "name": "NFTCreated",
      "type": "event"
    },
    {
      "constant": false,
      "inputs": [
        {
          "name": "_name",
          "type": "string"
        },
        {
          "name": "_symbol",
          "type": "string"
        },
        {
          "name": "_salt",
          "type": "uint256"
        }
      ],
      "name": "deploy",
      "outputs": [
        {
          "name": "",
          "type": "address"
        }
      ],
      "payable": false,
      "stateMutability": "nonpayable",
      "type": "function"
    },
    {
      "constant": true,
      "inputs": [
        {
          "name": "_name",
          "type": "string"
        },
        {
          "name": "_symbol",
          "type": "string"
        },
        {
          "name": "_salt",
          "type": "uint256"
        }
      ],
      "name": "getAddress",
      "outputs": [
        {
          "name": "",
          "type": "address"
        }
      ],
      "payable": false,
      "stateMutability": "view",
      "type": "function"
    }
  ],
  "bytecode": "0x608060405234801561001057600080fd5b50613be0806100206000396000f3fe608060405234801561001057600080fd5b5060043610610053576000357c0100000000000000000000000000000000000000000000000000000000900480634ef9809714610058578063bfc5429b146101f4575b600080fd5b6101b26004803603606081101561006e57600080fd5b810190808035906020019064010000000081111561008b57600080fd5b82018360208201111561009d57600080fd5b803590602001918460018302840111640100000000831117156100bf57600080fd5b91908080601f016020809104026020016040519081016040528093929190818152602001838380828437600081840152601f19601f8201169050808301925050505050505091929192908035906020019064010000000081111561012257600080fd5b82018360208201111561013457600080fd5b8035906020019184600183028401116401000000008311171561015657600080fd5b91908080601f016020809104026020016040519081016040528093929190818152602001838380828437600081840152601f19601f82011690508083019250505050505050919291929080359060200190929190505050610390565b604051808273ffffffffffffffffffffffffffffffffffffffff1673ffffffffffffffffffffffffffffffffffffffff16815260200191505060405180910390f35b61034e6004803603606081101561020a57600080fd5b810190808035906020019064010000000081111561022757600080fd5b82018360208201111561023957600080fd5b8035906020019184600183028401116401000000008311171561025b57600080fd5b91908080601f016020809104026020016040519081016040528093929190818152602001838380828437600081840152601f19601f820116905080830192505050505050509192919290803590602001906401000000008111156102be57600080fd5b8201836020820111156102d057600080fd5b803590602001918460018302840111640100000000831117156102f257600080fd5b91908080601f016020809104026020016040519081016040528093929190818152602001838380828437600081840152601f19601f82011690508083019250505050505050919291929080359060200190929190505050610451565b604051808273ffffffffffffffffffffffffffffffffffffffff1673ffffffffffffffffffffffffffffffffffffffff16815260200191505060405180910390f35b6000606061039e858561055d565b905060006103ac8285610742565b90507fe4944a5f0bf5ee82c3c6769e53000a678b52be77b461a2e8f7b3434eff94670e8132604051808373ffffffffffffffffffffffffffffffffffffffff1673ffffffffffffffffffffffffffffffffffffffff1681526020018273ffffffffffffffffffffffffffffffffffffffff1673ffffffffffffffffffffffffffffffffffffffff1681526020019250505060405180910390a180925050509392505050565b6000606061045f858561055d565b9050600060ff7f0100000000000000000000000000000000000000000000000000000000000000023085848051906020012060405160200180857effffffffffffffffffffffffffffffffffffffffffffffffffffffffffffff19167effffffffffffffffffffffffffffffffffffffffffffffffffffffffffffff191681526001018473ffffffffffffffffffffffffffffffffffffffff1673ffffffffffffffffffffffffffffffffffffffff166c010000000000000000000000000281526014018381526020018281526020019450505050506040516020818303038152906040528051906020012090508060019004925050509392505050565b6060806040518060200161057090610768565b6020820181038252601f19601f820116604052509050808484604051602001808060200180602001838103835285818151815260200191508051906020019080838360005b838110156105d05780820151818401526020810190506105b5565b50505050905090810190601f1680156105fd5780820380516001836020036101000a031916815260200191505b50838103825284818151815260200191508051906020019080838360005b8381101561063657808201518184015260208101905061061b565b50505050905090810190601f1680156106635780820380516001836020036101000a031916815260200191505b509450505050506040516020818303038152906040526040516020018083805190602001908083835b6020831015156106b1578051825260208201915060208101905060208303925061068c565b6001836020036101000a03801982511681845116808217855250505050505090500182805190602001908083835b60208310151561070457805182526020820191506020810190506020830392506106df565b6001836020036101000a0380198251168184511680821785525050505050509050019250505060405160208183030381529060405291505092915050565b600080828451602086016000f59050803b151561075e57600080fd5b8091505092915050565b61343e80620007778339019056fe60806040523480156200001157600080fd5b506040516200343e3803806200343e833981018060405260408110156200003757600080fd5b8101908080516401000000008111156200005057600080fd5b828101905060208101848111156200006757600080fd5b81518560018202830111640100000000821117156200008557600080fd5b50509291906020018051640100000000811115620000a257600080fd5b82810190506020810184811115620000b957600080fd5b8151856001820283011164010000000082111715620000d757600080fd5b505092919050505081816200011e6301ffc9a77c01000000000000000000000000000000000000000000000000000000000262000320640100000000026401000000009004565b6200015b6380ac58cd7c01000000000000000000000000000000000000000000000000000000000262000320640100000000026401000000009004565b6200019863780e9d637c01000000000000000000000000000000000000000000000000000000000262000320640100000000026401000000009004565b81600a9080519060200190620001b092919062000447565b5080600b9080519060200190620001c992919062000447565b5062000207635b5e139f7c01000000000000000000000000000000000000000000000000000000000262000320640100000000026401000000009004565b50507f3a1fb9fa080e4a5e39d0539e985a58d6bf973504421c95bf9eff8554c04938528282604051808060200180602001838103835285818151815260200191508051906020019080838360005b838110156200027257808201518184015260208101905062000255565b50505050905090810190601f168015620002a05780820380516001836020036101000a031916815260200191505b50838103825284818151815260200191508051906020019080838360005b83811015620002db578082015181840152602081019050620002be565b50505050905090810190601f168015620003095780820380516001836020036101000a031916815260200191505b5094505050505060405180910390a15050620004f6565b63ffffffff7c010000000000000000000000000000000000000000000000000000000002817bffffffffffffffffffffffffffffffffffffffffffffffffffffffff191614151515620003db576040517f08c379a000000000000000000000000000000000000000000000000000000000815260040180806020018281038252601c8152602001807f4552433136353a20696e76616c696420696e746572666163652069640000000081525060200191505060405180910390fd5b6001600080837bffffffffffffffffffffffffffffffffffffffffffffffffffffffff19167bffffffffffffffffffffffffffffffffffffffffffffffffffffffff1916815260200190815260200160002060006101000a81548160ff02191690831515021790555050565b828054600181600116156101000203166002900490600052602060002090601f016020900481019282601f106200048a57805160ff1916838001178555620004bb565b82800160010185558215620004bb579182015b82811115620004ba5782518255916020019190600101906200049d565b5b509050620004ca9190620004ce565b5090565b620004f391905b80821115620004ef576000816000905550600101620004d5565b5090565b90565b612f3880620005066000396000f3fe608060405234801561001057600080fd5b5060043610610149576000357c0100000000000000000000000000000000000000000000000000000000900480634f6ccce7116100ca57806395d89b411161008e57806395d89b41146108a3578063a22cb46514610926578063c87b56dd14610976578063e985e9c514610a1d578063f14f58f114610a9957610149565b80634f6ccce7146106cb5780636352211e1461070d57806367930a2a1461077b57806370a08231146107f35780638180f2fc1461084b57610149565b8063294cdf0d11610111578063294cdf0d146103305780632f444772146103c95780632f745c59146104e257806336ba6b7614610544578063401e33671461065357610149565b806301ffc9a71461014e57806306fdde03146101b3578063081812fc1461023657806318160ddd146102a45780632947dcfc146102c2575b600080fd5b6101996004803603602081101561016457600080fd5b8101908080357bffffffffffffffffffffffffffffffffffffffffffffffffffffffff19169060200190929190505050610ac7565b604051808215151515815260200191505060405180910390f35b6101bb610b2e565b6040518080602001828103825283818151815260200191508051906020019080838360005b838110156101fb5780820151818401526020810190506101e0565b50505050905090810190601f1680156102285780820380516001836020036101000a031916815260200191505b509250505060405180910390f35b6102626004803603602081101561024c57600080fd5b8101908080359060200190929190505050610bd0565b604051808273ffffffffffffffffffffffffffffffffffffffff1673ffffffffffffffffffffffffffffffffffffffff16815260200191505060405180910390f35b6102ac610c6d565b6040518082815260200191505060405180910390f35b6102ee600480360360208110156102d857600080fd5b8101908080359060200190929190505050610c7a565b604051808273ffffffffffffffffffffffffffffffffffffffff1673ffffffffffffffffffffffffffffffffffffffff16815260200191505060405180910390f35b6103726004803603602081101561034657600080fd5b81019080803573ffffffffffffffffffffffffffffffffffffffff169060200190929190505050610cb7565b6040518080602001828103825283818151815260200191508051906020019060200280838360005b838110156103b557808201518184015260208101905061039a565b505050509050019250505060405180910390f35b6104cc600480360360808110156103df57600080fd5b81019080803590602001906401000000008111156103fc57600080fd5b82018360208201111561040e57600080fd5b8035906020019184600183028401116401000000008311171561043057600080fd5b91908080601f016020809104026020016040519081016040528093929190818152602001838380828437600081840152601f19601f820116905080830192505050505050509192919290803573ffffffffffffffffffffffffffffffffffffffff169060200190929190803573ffffffffffffffffffffffffffffffffffffffff16906020019092919080359060200190929190505050610d18565b6040518082815260200191505060405180910390f35b61052e600480360360408110156104f857600080fd5b81019080803573ffffffffffffffffffffffffffffffffffffffff16906020019092919080359060200190929190505050610f43565b6040518082815260200191505060405180910390f35b610651600480360360a081101561055a57600080fd5b81019080803573ffffffffffffffffffffffffffffffffffffffff169060200190929190803573ffffffffffffffffffffffffffffffffffffffff16906020019092919080359060200190929190803590602001906401000000008111156105c157600080fd5b8201836020820111156105d357600080fd5b803590602001918460018302840111640100000000831117156105f557600080fd5b91908080601f016020809104026020016040519081016040528093929190818152602001838380828437600081840152601f19601f82011690508083019250505050505050919291929080359060200190929190505050611006565b005b6106c96004803603608081101561066957600080fd5b81019080803573ffffffffffffffffffffffffffffffffffffffff169060200190929190803573ffffffffffffffffffffffffffffffffffffffff1690602001909291908035906020019092919080359060200190929190505050611097565b005b6106f7600480360360208110156106e157600080fd5b81019080803590602001909291905050506110da565b6040518082815260200191505060405180910390f35b6107396004803603602081101561072357600080fd5b810190808035906020019092919050505061115e565b604051808273ffffffffffffffffffffffffffffffffffffffff1673ffffffffffffffffffffffffffffffffffffffff16815260200191505060405180910390f35b6107f16004803603608081101561079157600080fd5b81019080803573ffffffffffffffffffffffffffffffffffffffff169060200190929190803573ffffffffffffffffffffffffffffffffffffffff1690602001909291908035906020019092919080359060200190929190505050611228565b005b6108356004803603602081101561080957600080fd5b81019080803573ffffffffffffffffffffffffffffffffffffffff16906020019092919050505061124b565b6040518082815260200191505060405180910390f35b6108a16004803603606081101561086157600080fd5b81019080803573ffffffffffffffffffffffffffffffffffffffff1690602001909291908035906020019092919080359060200190929190505050611322565b005b6108ab611481565b6040518080602001828103825283818151815260200191508051906020019080838360005b838110156108eb5780820151818401526020810190506108d0565b50505050905090810190601f1680156109185780820380516001836020036101000a031916815260200191505b509250505060405180910390f35b6109746004803603604081101561093c57600080fd5b81019080803573ffffffffffffffffffffffffffffffffffffffff169060200190929190803515159060200190929190505050611523565b005b6109a26004803603602081101561098c57600080fd5b81019080803590602001909291905050506116c8565b6040518080602001828103825283818151815260200191508051906020019080838360005b838110156109e25780820151818401526020810190506109c7565b50505050905090810190601f168015610a0f5780820380516001836020036101000a031916815260200191505b509250505060405180910390f35b610a7f60048036036040811015610a3357600080fd5b81019080803573ffffffffffffffffffffffffffffffffffffffff169060200190929190803573ffffffffffffffffffffffffffffffffffffffff1690602001909291905050506117dd565b604051808215151515815260200191505060405180910390f35b610ac560048036036020811015610aaf57600080fd5b8101908080359060200190929190505050611871565b005b6000806000837bffffffffffffffffffffffffffffffffffffffffffffffffffffffff19167bffffffffffffffffffffffffffffffffffffffffffffffffffffffff1916815260200190815260200160002060009054906101000a900460ff169050919050565b6060600a8054600181600116156101000203166002900480601f016020809104026020016040519081016040528092919081815260200182805460018160011615610100020316600290048015610bc65780601f10610b9b57610100808354040283529160200191610bc6565b820191906000526020600020905b815481529060010190602001808311610ba957829003601f168201915b5050505050905090565b6000610bdb826119a4565b1515610c32576040517f08c379a000000000000000000000000000000000000000000000000000000000815260040180806020018281038252602c815260200180612dba602c913960400191505060405180910390fd5b6002600083815260200190815260200160002060009054906101000a900473ffffffffffffffffffffffffffffffffffffffff169050919050565b6000600880549050905090565b6000600d600083815260200190815260200160002060009054906101000a900473ffffffffffffffffffffffffffffffffffffffff169050919050565b6060610cc282611a16565b805480602002602001604051908101604052809291908181526020018280548015610d0c57602002820191906000526020600020905b815481526020019060010190808311610cf8575b50505050509050919050565b6000610d248483611a5e565b610d2e8286611a7f565b6060610d38610b2e565b90506060610d44611481565b9050610d508486611b0b565b7fdcc19f5f9d0fb003c4add466a6168f8540f40b8015889ba06f3df1e9ca1c2c408282868a328a604051808060200180602001878152602001806020018673ffffffffffffffffffffffffffffffffffffffff1673ffffffffffffffffffffffffffffffffffffffff1681526020018573ffffffffffffffffffffffffffffffffffffffff1673ffffffffffffffffffffffffffffffffffffffff16815260200184810384528a818151815260200191508051906020019080838360005b83811015610e29578082015181840152602081019050610e0e565b50505050905090810190601f168015610e565780820380516001836020036101000a031916815260200191505b50848103835289818151815260200191508051906020019080838360005b83811015610e8f578082015181840152602081019050610e74565b50505050905090810190601f168015610ebc5780820380516001836020036101000a031916815260200191505b50848103825287818151815260200191508051906020019080838360005b83811015610ef5578082015181840152602081019050610eda565b50505050905090810190601f168015610f225780820380516001836020036101000a031916815260200191505b50995050505050505050505060405180910390a18392505050949350505050565b6000610f4e8361124b565b82101515610fa7576040517f08c379a000000000000000000000000000000000000000000000000000000000815260040180806020018281038252602b815260200180612cba602b913960400191505060405180910390fd5b600660008473ffffffffffffffffffffffffffffffffffffffff1673ffffffffffffffffffffffffffffffffffffffff16815260200190815260200160002082815481101515610ff357fe5b9060005260206000200154905092915050565b6110103284611b61565b8061102d5750806005600085815260200190815260200160002054145b1515611084576040517f08c379a0000000000000000000000000000000000000000000000000000000008152600401808060200182810382526031815260200180612e8b6031913960400191505060405180910390fd5b61109085858585611c57565b5050505050565b6110a13283611b61565b806110be5750806005600084815260200190815260200160002054145b15156110c957600080fd5b6110d4848484611ccb565b50505050565b60006110e4610c6d565b8210151561113d576040517f08c379a000000000000000000000000000000000000000000000000000000000815260040180806020018281038252602c815260200180612ebc602c913960400191505060405180910390fd5b60088281548110151561114c57fe5b90600052602060002001549050919050565b6000806001600084815260200190815260200160002060009054906101000a900473ffffffffffffffffffffffffffffffffffffffff169050600073ffffffffffffffffffffffffffffffffffffffff168173ffffffffffffffffffffffffffffffffffffffff161415151561121f576040517f08c379a0000000000000000000000000000000000000000000000000000000008152600401808060200182810382526029815260200180612d916029913960400191505060405180910390fd5b80915050919050565b611245848484602060405190810160405280600081525085611006565b50505050565b60008073ffffffffffffffffffffffffffffffffffffffff168273ffffffffffffffffffffffffffffffffffffffff16141515156112d4576040517f08c379a000000000000000000000000000000000000000000000000000000000815260040180806020018281038252602a815260200180612d67602a913960400191505060405180910390fd5b61131b600360008473ffffffffffffffffffffffffffffffffffffffff1673ffffffffffffffffffffffffffffffffffffffff168152602001908152602001600020611cef565b9050919050565b600061132d8361115e565b90508073ffffffffffffffffffffffffffffffffffffffff168473ffffffffffffffffffffffffffffffffffffffff16141515156113b6576040517f08c379a0000000000000000000000000000000000000000000000000000000008152600401808060200182810382526021815260200180612e6a6021913960400191505060405180910390fd5b816005600085815260200190815260200160002081905550836002600085815260200190815260200160002060006101000a81548173ffffffffffffffffffffffffffffffffffffffff021916908373ffffffffffffffffffffffffffffffffffffffff160217905550828473ffffffffffffffffffffffffffffffffffffffff168273ffffffffffffffffffffffffffffffffffffffff167f8c5be1e5ebec7d5bd14f71427d1e84f3dd0314c0f7b2291e5b200ac8c7c3b92560405160405180910390a450505050565b6060600b8054600181600116156101000203166002900480601f0160208091040260200160405190810160405280929190818152602001828054600181600116156101000203166002900480156115195780601f106114ee57610100808354040283529160200191611519565b820191906000526020600020905b8154815290600101906020018083116114fc57829003601f168201915b5050505050905090565b3273ffffffffffffffffffffffffffffffffffffffff168273ffffffffffffffffffffffffffffffffffffffff16141515156115c7576040517f08c379a00000000000000000000000000000000000000000000000000000000081526004018080602001828103825260198152602001807f4552433732313a20617070726f766520746f2063616c6c65720000000000000081525060200191505060405180910390fd5b80600460003273ffffffffffffffffffffffffffffffffffffffff1673ffffffffffffffffffffffffffffffffffffffff16815260200190815260200160002060008473ffffffffffffffffffffffffffffffffffffffff1673ffffffffffffffffffffffffffffffffffffffff16815260200190815260200160002060006101000a81548160ff0219169083151502179055508173ffffffffffffffffffffffffffffffffffffffff163273ffffffffffffffffffffffffffffffffffffffff167f17307eab39ab6107e8899845ad3d59bd9653f200f220920489ca2b5937696c3183604051808215151515815260200191505060405180910390a35050565b60606116d3826119a4565b151561172a576040517f08c379a000000000000000000000000000000000000000000000000000000000815260040180806020018281038252602f815260200180612e3b602f913960400191505060405180910390fd5b600c60008381526020019081526020016000208054600181600116156101000203166002900480601f0160208091040260200160405190810160405280929190818152602001828054600181600116156101000203166002900480156117d15780601f106117a6576101008083540402835291602001916117d1565b820191906000526020600020905b8154815290600101906020018083116117b457829003601f168201915b50505050509050919050565b6000600460008473ffffffffffffffffffffffffffffffffffffffff1673ffffffffffffffffffffffffffffffffffffffff16815260200190815260200160002060008373ffffffffffffffffffffffffffffffffffffffff1673ffffffffffffffffffffffffffffffffffffffff16815260200190815260200160002060009054906101000a900460ff16905092915050565b61187a8161115e565b73ffffffffffffffffffffffffffffffffffffffff163273ffffffffffffffffffffffffffffffffffffffff1614806118e657506118b781610bd0565b73ffffffffffffffffffffffffffffffffffffffff163273ffffffffffffffffffffffffffffffffffffffff16145b15156118f157600080fd5b6118fa81611cfd565b7fca7c889eeb4ad2efc9a6e25cb227a0e7b0e57aee4c6b89d8d395d3c9aa28ad79816119258361115e565b32604051808481526020018373ffffffffffffffffffffffffffffffffffffffff1673ffffffffffffffffffffffffffffffffffffffff1681526020018273ffffffffffffffffffffffffffffffffffffffff1673ffffffffffffffffffffffffffffffffffffffff168152602001935050505060405180910390a150565b6000806001600084815260200190815260200160002060009054906101000a900473ffffffffffffffffffffffffffffffffffffffff169050600073ffffffffffffffffffffffffffffffffffffffff168173ffffffffffffffffffffffffffffffffffffffff161415915050919050565b6000600660008373ffffffffffffffffffffffffffffffffffffffff1673ffffffffffffffffffffffffffffffffffffffff1681526020019081526020016000209050919050565b611a688282611d12565b611a728282611f2e565b611a7b81611ff5565b5050565b611a88826119a4565b1515611adf576040517f08c379a000000000000000000000000000000000000000000000000000000000815260040180806020018281038252602c815260200180612de6602c913960400191505060405180910390fd5b80600c60008481526020019081526020016000209080519060200190611b06929190612ba0565b505050565b80600d600084815260200190815260200160002060006101000a81548173ffffffffffffffffffffffffffffffffffffffff021916908373ffffffffffffffffffffffffffffffffffffffff1602179055505050565b6000611b6c826119a4565b1515611bc3576040517f08c379a000000000000000000000000000000000000000000000000000000000815260040180806020018281038252602c815260200180612d3b602c913960400191505060405180910390fd5b6000611bce8361115e565b90508073ffffffffffffffffffffffffffffffffffffffff168473ffffffffffffffffffffffffffffffffffffffff161480611c3d57508373ffffffffffffffffffffffffffffffffffffffff16611c2584610bd0565b73ffffffffffffffffffffffffffffffffffffffff16145b80611c4e5750611c4d81856117dd565b5b91505092915050565b611c62848484611ccb565b611c6e84848484612041565b1515611cc5576040517f08c379a0000000000000000000000000000000000000000000000000000000008152600401808060200182810382526032815260200180612ce56032913960400191505060405180910390fd5b50505050565b611cd6838383612264565b611ce083826124c3565b611cea8282611f2e565b505050565b600081600001549050919050565b611d0f611d098261115e565b82612667565b50565b600073ffffffffffffffffffffffffffffffffffffffff168273ffffffffffffffffffffffffffffffffffffffff1614151515611db7576040517f08c379a00000000000000000000000000000000000000000000000000000000081526004018080602001828103825260208152602001807f4552433732313a206d696e7420746f20746865207a65726f206164647265737381525060200191505060405180910390fd5b611dc0816119a4565b151515611e35576040517f08c379a000000000000000000000000000000000000000000000000000000000815260040180806020018281038252601c8152602001807f4552433732313a20746f6b656e20616c7265616479206d696e7465640000000081525060200191505060405180910390fd5b816001600083815260200190815260200160002060006101000a81548173ffffffffffffffffffffffffffffffffffffffff021916908373ffffffffffffffffffffffffffffffffffffffff160217905550611ece600360008473ffffffffffffffffffffffffffffffffffffffff1673ffffffffffffffffffffffffffffffffffffffff1681526020019081526020016000206126c6565b808273ffffffffffffffffffffffffffffffffffffffff16600073ffffffffffffffffffffffffffffffffffffffff167fddf252ad1be2c89b69c2b068fc378daa952ba7f163c4a11628f55a4df523b3ef60405160405180910390a45050565b600660008373ffffffffffffffffffffffffffffffffffffffff1673ffffffffffffffffffffffffffffffffffffffff168152602001908152602001600020805490506007600083815260200190815260200160002081905550600660008373ffffffffffffffffffffffffffffffffffffffff1673ffffffffffffffffffffffffffffffffffffffff1681526020019081526020016000208190806001815401808255809150509060018203906000526020600020016000909192909190915055505050565b6008805490506009600083815260200190815260200160002081905550600881908060018154018082558091505090600182039060005260206000200160009091929091909150555050565b60006120628473ffffffffffffffffffffffffffffffffffffffff166126dc565b1515612071576001905061225c565b60008473ffffffffffffffffffffffffffffffffffffffff1663150b7a02328887876040518563ffffffff167c0100000000000000000000000000000000000000000000000000000000028152600401808573ffffffffffffffffffffffffffffffffffffffff1673ffffffffffffffffffffffffffffffffffffffff1681526020018473ffffffffffffffffffffffffffffffffffffffff1673ffffffffffffffffffffffffffffffffffffffff16815260200183815260200180602001828103825283818151815260200191508051906020019080838360005b8381101561216857808201518184015260208101905061214d565b50505050905090810190601f1680156121955780820380516001836020036101000a031916815260200191505b5095505050505050602060405180830381600087803b1580156121b757600080fd5b505af11580156121cb573d6000803e3d6000fd5b505050506040513d60208110156121e157600080fd5b8101908080519060200190929190505050905063150b7a027c0100000000000000000000000000000000000000000000000000000000027bffffffffffffffffffffffffffffffffffffffffffffffffffffffff1916817bffffffffffffffffffffffffffffffffffffffffffffffffffffffff1916149150505b949350505050565b8273ffffffffffffffffffffffffffffffffffffffff166122848261115e565b73ffffffffffffffffffffffffffffffffffffffff161415156122f2576040517f08c379a0000000000000000000000000000000000000000000000000000000008152600401808060200182810382526029815260200180612e126029913960400191505060405180910390fd5b600073ffffffffffffffffffffffffffffffffffffffff168273ffffffffffffffffffffffffffffffffffffffff161415151561237a576040517f08c379a0000000000000000000000000000000000000000000000000000000008152600401808060200182810382526024815260200180612d176024913960400191505060405180910390fd5b61238381612728565b6123ca600360008573ffffffffffffffffffffffffffffffffffffffff1673ffffffffffffffffffffffffffffffffffffffff1681526020019081526020016000206127e8565b612411600360008473ffffffffffffffffffffffffffffffffffffffff1673ffffffffffffffffffffffffffffffffffffffff1681526020019081526020016000206126c6565b816001600083815260200190815260200160002060006101000a81548173ffffffffffffffffffffffffffffffffffffffff021916908373ffffffffffffffffffffffffffffffffffffffff160217905550808273ffffffffffffffffffffffffffffffffffffffff168473ffffffffffffffffffffffffffffffffffffffff167fddf252ad1be2c89b69c2b068fc378daa952ba7f163c4a11628f55a4df523b3ef60405160405180910390a4505050565b600061251b6001600660008673ffffffffffffffffffffffffffffffffffffffff1673ffffffffffffffffffffffffffffffffffffffff1681526020019081526020016000208054905061280b90919063ffffffff16565b9050600060076000848152602001908152602001600020549050818114151561260e576000600660008673ffffffffffffffffffffffffffffffffffffffff1673ffffffffffffffffffffffffffffffffffffffff1681526020019081526020016000208381548110151561258c57fe5b9060005260206000200154905080600660008773ffffffffffffffffffffffffffffffffffffffff1673ffffffffffffffffffffffffffffffffffffffff168152602001908152602001600020838154811015156125e657fe5b9060005260206000200181905550816007600083815260200190815260200160002081905550505b600660008573ffffffffffffffffffffffffffffffffffffffff1673ffffffffffffffffffffffffffffffffffffffff1681526020019081526020016000208054809190600190036126609190612c20565b5050505050565b6126718282612855565b6000600c60008381526020019081526020016000208054600181600116156101000203166002900490501415156126c257600c600082815260200190815260200160002060006126c19190612c4c565b5b5050565b6001816000016000828254019250508190555050565b60008060007fc5d2460186f7233c927e7db2dcc703c0e500b653ca82273b7bfad8045d85a4706001029050833f91506000600102821415801561271f5750808214155b92505050919050565b600073ffffffffffffffffffffffffffffffffffffffff166002600083815260200190815260200160002060009054906101000a900473ffffffffffffffffffffffffffffffffffffffff1673ffffffffffffffffffffffffffffffffffffffff161415156127e55760006002600083815260200190815260200160002060006101000a81548173ffffffffffffffffffffffffffffffffffffffff021916908373ffffffffffffffffffffffffffffffffffffffff1602179055505b50565b6128006001826000015461280b90919063ffffffff16565b816000018190555050565b600061284d83836040805190810160405280601e81526020017f536166654d6174683a207375627472616374696f6e206f766572666c6f77000081525061288f565b905092915050565b61285f8282612951565b61286982826124c3565b6000600760008381526020019081526020016000208190555061288b81612ae2565b5050565b6000838311158290151561293e576040517f08c379a00000000000000000000000000000000000000000000000000000000081526004018080602001828103825283818151815260200191508051906020019080838360005b838110156129035780820151818401526020810190506128e8565b50505050905090810190601f1680156129305780820380516001836020036101000a031916815260200191505b509250505060405180910390fd5b5060008385039050809150509392505050565b8173ffffffffffffffffffffffffffffffffffffffff166129718261115e565b73ffffffffffffffffffffffffffffffffffffffff161415156129df576040517f08c379a0000000000000000000000000000000000000000000000000000000008152600401808060200182810382526025815260200180612ee86025913960400191505060405180910390fd5b6129e881612728565b612a2f600360008473ffffffffffffffffffffffffffffffffffffffff1673ffffffffffffffffffffffffffffffffffffffff1681526020019081526020016000206127e8565b60006001600083815260200190815260200160002060006101000a81548173ffffffffffffffffffffffffffffffffffffffff021916908373ffffffffffffffffffffffffffffffffffffffff16021790555080600073ffffffffffffffffffffffffffffffffffffffff168373ffffffffffffffffffffffffffffffffffffffff167fddf252ad1be2c89b69c2b068fc378daa952ba7f163c4a11628f55a4df523b3ef60405160405180910390a45050565b6000612afd600160088054905061280b90919063ffffffff16565b90506000600960008481526020019081526020016000205490506000600883815481101515612b2857fe5b9060005260206000200154905080600883815481101515612b4557fe5b90600052602060002001819055508160096000838152602001908152602001600020819055506008805480919060019003612b809190612c20565b506000600960008681526020019081526020016000208190555050505050565b828054600181600116156101000203166002900490600052602060002090601f016020900481019282601f10612be157805160ff1916838001178555612c0f565b82800160010185558215612c0f579182015b82811115612c0e578251825591602001919060010190612bf3565b5b509050612c1c9190612c94565b5090565b815481835581811115612c4757818360005260206000209182019101612c469190612c94565b5b505050565b50805460018160011615610100020316600290046000825580601f10612c725750612c91565b601f016020900490600052602060002090810190612c909190612c94565b5b50565b612cb691905b80821115612cb2576000816000905550600101612c9a565b5090565b9056fe455243373231456e756d657261626c653a206f776e657220696e646578206f7574206f6620626f756e64734552433732313a207472616e7366657220746f206e6f6e20455243373231526563656976657220696d706c656d656e7465724552433732313a207472616e7366657220746f20746865207a65726f20616464726573734552433732313a206f70657261746f7220717565727920666f72206e6f6e6578697374656e7420746f6b656e4552433732313a2062616c616e636520717565727920666f7220746865207a65726f20616464726573734552433732313a206f776e657220717565727920666f72206e6f6e6578697374656e7420746f6b656e4552433732313a20617070726f76656420717565727920666f72206e6f6e6578697374656e7420746f6b656e4552433732314d657461646174613a2055524920736574206f66206e6f6e6578697374656e7420746f6b656e4552433732313a207472616e73666572206f6620746f6b656e2074686174206973206e6f74206f776e4552433732314d657461646174613a2055524920717565727920666f72206e6f6e6578697374656e7420746f6b656e4552433732313a20617070726f76616c20746f2063757272656e74206f776e65724552433732313a207472616e736665722063616c6c6572206973206e6f74206f776e6572206e6f7220617070726f766564455243373231456e756d657261626c653a20676c6f62616c20696e646578206f7574206f6620626f756e64734552433732313a206275726e206f6620746f6b656e2074686174206973206e6f74206f776ea165627a7a72305820203f7fec05f1f511c4067b1ffd0ed600c0d7fb307738a0c63c08ec81479bb48c0029a165627a7a723058205f67f57644ab460214f08118caeba8a9036a34eabc9665b3eac38db097f4a53f0029",
  "source": "pragma solidity ^0.5.4;\nimport \"../bases/NFT.sol\";\nimport \"../interfaces/factories/INFTFactory.sol\";\n\ncontract NFTFactory is INFTFactory{\n    event NFTCreated(address NewERC721Address, address Creator);\n\n    function _getBytecode(string memory _name, string memory _symbol) private pure returns (bytes memory) {\n        bytes memory bytecode = type(NFT).creationCode;\n\n        return abi.encodePacked(bytecode, abi.encode(_name, _symbol));\n    }\n\n    function _deploy(bytes memory code, uint256 salt) private returns (address){\n        address addr;\n        assembly {\n            addr := create2(0, add(code, 0x20), mload(code), salt)\n            if iszero(extcodesize(addr)) {\n            revert(0, 0)\n            }\n        }\n        return addr;\n    }\n\n    function deploy(string memory _name, string memory _symbol, uint _salt) public returns (address) {\n        bytes memory bytecode = _getBytecode(_name, _symbol);\n\n        address nft = _deploy(bytecode, _salt);\n\n        emit NFTCreated(nft, tx.origin);\n        return nft;\n    }\n\n    function getAddress(string memory _name, string memory _symbol, uint _salt) public view returns (address) {\n        bytes memory bytecode = _getBytecode(_name, _symbol);\n\n        bytes32 hash = keccak256(abi.encodePacked(bytes1(0xff), address(this), _salt, keccak256(bytecode)));\n\n        return address(uint160(uint(hash)));\n    }\n}\n",
  "sourcePath": "/home/duchuy/Documents/bach_khoa/luan_van/ecs/ecs-smart-contracts/contracts/factories/NFTFactory.sol",
  "compiler": {
    "name": "solc",
    "version": "0.5.4+commit.9549d8ff.Emscripten.clang"
  },
  "schemaVersion": "3.4.1",
  "updatedAt": "2021-11-01T14:38:10.928Z",
  "devdoc": {
    "methods": {}
  },
  "userdoc": {
    "methods": {}
  }
}