{
  "abi": [
    {
      "inputs": [
        {
          "internalType": "bytes32",
          "name": "initialRoot",
          "type": "bytes32"
        }
      ],
      "payable": false,
      "stateMutability": "nonpayable",
      "type": "constructor"
    },
    {
      "anonymous": false,
      "inputs": [
        {
          "indexed": false,
          "internalType": "string",
          "name": "Action",
          "type": "string"
        },
        {
          "indexed": false,
          "internalType": "string",
          "name": "From",
          "type": "string"
        },
        {
          "indexed": false,
          "internalType": "string",
          "name": "To",
          "type": "string"
        },
        {
          "indexed": false,
          "internalType": "string",
          "name": "Description",
          "type": "string"
        },
        {
          "indexed": false,
          "internalType": "string",
          "name": "Date",
          "type": "string"
        },
        {
          "indexed": false,
          "internalType": "address",
          "name": "Creator",
          "type": "address"
        },
        {
          "indexed": false,
          "internalType": "bytes",
          "name": "Signature",
          "type": "bytes"
        }
      ],
      "name": "DataInserted",
      "type": "event"
    },
    {
      "constant": false,
      "inputs": [
        {
          "internalType": "bytes",
          "name": "key",
          "type": "bytes"
        },
        {
          "internalType": "bytes32",
          "name": "potentialSiblingLabel",
          "type": "bytes32"
        },
        {
          "internalType": "bytes32",
          "name": "potentialSiblingValue",
          "type": "bytes32"
        },
        {
          "internalType": "uint256",
          "name": "branchMask",
          "type": "uint256"
        },
        {
          "internalType": "bytes32[]",
          "name": "siblings",
          "type": "bytes32[]"
        }
      ],
      "name": "commitBranchOfNonInclusion",
      "outputs": [],
      "payable": false,
      "stateMutability": "nonpayable",
      "type": "function"
    },
    {
      "constant": true,
      "inputs": [
        {
          "internalType": "bytes",
          "name": "key",
          "type": "bytes"
        }
      ],
      "name": "doesInclude",
      "outputs": [
        {
          "internalType": "bool",
          "name": "",
          "type": "bool"
        }
      ],
      "payable": false,
      "stateMutability": "view",
      "type": "function"
    },
    {
      "constant": true,
      "inputs": [
        {
          "internalType": "bytes",
          "name": "key",
          "type": "bytes"
        }
      ],
      "name": "get",
      "outputs": [
        {
          "internalType": "bytes",
          "name": "",
          "type": "bytes"
        }
      ],
      "payable": false,
      "stateMutability": "view",
      "type": "function"
    },
    {
      "constant": true,
      "inputs": [
        {
          "internalType": "bytes32",
          "name": "_key",
          "type": "bytes32"
        }
      ],
      "name": "getEvent",
      "outputs": [
        {
          "internalType": "string",
          "name": "action",
          "type": "string"
        },
        {
          "internalType": "string",
          "name": "from",
          "type": "string"
        },
        {
          "internalType": "string",
          "name": "to",
          "type": "string"
        },
        {
          "internalType": "string",
          "name": "description",
          "type": "string"
        },
        {
          "internalType": "string",
          "name": "date",
          "type": "string"
        },
        {
          "internalType": "address",
          "name": "creator",
          "type": "address"
        },
        {
          "internalType": "bytes",
          "name": "signature",
          "type": "bytes"
        }
      ],
      "payable": false,
      "stateMutability": "view",
      "type": "function"
    },
    {
      "constant": true,
      "inputs": [
        {
          "internalType": "bytes",
          "name": "key",
          "type": "bytes"
        }
      ],
      "name": "getNonInclusionProof",
      "outputs": [
        {
          "internalType": "bytes32",
          "name": "leafLabel",
          "type": "bytes32"
        },
        {
          "internalType": "bytes32",
          "name": "leafNode",
          "type": "bytes32"
        },
        {
          "internalType": "uint256",
          "name": "branchMask",
          "type": "uint256"
        },
        {
          "internalType": "bytes32[]",
          "name": "_siblings",
          "type": "bytes32[]"
        }
      ],
      "payable": false,
      "stateMutability": "view",
      "type": "function"
    },
    {
      "constant": true,
      "inputs": [
        {
          "internalType": "bytes",
          "name": "key",
          "type": "bytes"
        }
      ],
      "name": "getProof",
      "outputs": [
        {
          "internalType": "uint256",
          "name": "branchMask",
          "type": "uint256"
        },
        {
          "internalType": "bytes32[]",
          "name": "_siblings",
          "type": "bytes32[]"
        }
      ],
      "payable": false,
      "stateMutability": "view",
      "type": "function"
    },
    {
      "constant": true,
      "inputs": [],
      "name": "getRootHash",
      "outputs": [
        {
          "internalType": "bytes32",
          "name": "",
          "type": "bytes32"
        }
      ],
      "payable": false,
      "stateMutability": "view",
      "type": "function"
    },
    {
      "constant": true,
      "inputs": [
        {
          "internalType": "bytes32",
          "name": "hash",
          "type": "bytes32"
        }
      ],
      "name": "getValue",
      "outputs": [
        {
          "internalType": "bytes",
          "name": "",
          "type": "bytes"
        }
      ],
      "payable": false,
      "stateMutability": "view",
      "type": "function"
    },
    {
      "constant": false,
      "inputs": [
        {
          "internalType": "string",
          "name": "_action",
          "type": "string"
        },
        {
          "internalType": "string",
          "name": "_from",
          "type": "string"
        },
        {
          "internalType": "string",
          "name": "_to",
          "type": "string"
        },
        {
          "internalType": "string",
          "name": "_description",
          "type": "string"
        },
        {
          "internalType": "string",
          "name": "_date",
          "type": "string"
        },
        {
          "internalType": "address",
          "name": "_signer",
          "type": "address"
        },
        {
          "internalType": "bytes",
          "name": "_signature",
          "type": "bytes"
        }
      ],
      "name": "insert",
      "outputs": [],
      "payable": false,
      "stateMutability": "nonpayable",
      "type": "function"
    },
    {
      "constant": true,
      "inputs": [
        {
          "internalType": "bytes",
          "name": "key",
          "type": "bytes"
        }
      ],
      "name": "safeGet",
      "outputs": [
        {
          "internalType": "bytes",
          "name": "",
          "type": "bytes"
        }
      ],
      "payable": false,
      "stateMutability": "view",
      "type": "function"
    },
    {
      "constant": true,
      "inputs": [
        {
          "internalType": "bytes32",
          "name": "rootHash",
          "type": "bytes32"
        },
        {
          "internalType": "bytes",
          "name": "key",
          "type": "bytes"
        },
        {
          "internalType": "bytes32",
          "name": "leafLabel",
          "type": "bytes32"
        },
        {
          "internalType": "bytes32",
          "name": "leafNode",
          "type": "bytes32"
        },
        {
          "internalType": "uint256",
          "name": "branchMask",
          "type": "uint256"
        },
        {
          "internalType": "bytes32[]",
          "name": "siblings",
          "type": "bytes32[]"
        }
      ],
      "name": "verifyNonInclusionProof",
      "outputs": [],
      "payable": false,
      "stateMutability": "pure",
      "type": "function"
    },
    {
      "constant": true,
      "inputs": [
        {
          "internalType": "bytes32",
          "name": "rootHash",
          "type": "bytes32"
        },
        {
          "internalType": "bytes",
          "name": "key",
          "type": "bytes"
        },
        {
          "internalType": "bytes",
          "name": "value",
          "type": "bytes"
        },
        {
          "internalType": "uint256",
          "name": "branchMask",
          "type": "uint256"
        },
        {
          "internalType": "bytes32[]",
          "name": "siblings",
          "type": "bytes32[]"
        }
      ],
      "name": "verifyProof",
      "outputs": [],
      "payable": false,
      "stateMutability": "pure",
      "type": "function"
    }
  ],
  "bytecode": "60806040523480156200001157600080fd5b50604051620033d5380380620033d5833981810160405260208110156200003757600080fd5b50516200004d816001600160e01b036200005416565b506200008a565b6200006f8160006200007260201b620032ef1790919060201c565b50565b6002820154156200008257600080fd5b600290910155565b61333b806200009a6000396000f3fe608060405234801561001057600080fd5b50600436106100b45760003560e01c806398108c261161007157806398108c261461096d578063b256c53314610aac578063d4119da714610be4578063d6d7d52514610c9c578063e7e6d05814610d40578063f7e498f614610de4576100b4565b80631e44979d146100b957806329b3c5ba14610409578063693ac4fb14610516578063698439401461061557806380759f1f146106a75780638c172fa2146106c1575b600080fd5b610407600480360360e08110156100cf57600080fd5b810190602081018135600160201b8111156100e957600080fd5b8201836020820111156100fb57600080fd5b803590602001918460018302840111600160201b8311171561011c57600080fd5b91908080601f0160208091040260200160405190810160405280939291908181526020018383808284376000920191909152509295949360208101935035915050600160201b81111561016e57600080fd5b82018360208201111561018057600080fd5b803590602001918460018302840111600160201b831117156101a157600080fd5b91908080601f0160208091040260200160405190810160405280939291908181526020018383808284376000920191909152509295949360208101935035915050600160201b8111156101f357600080fd5b82018360208201111561020557600080fd5b803590602001918460018302840111600160201b8311171561022657600080fd5b91908080601f0160208091040260200160405190810160405280939291908181526020018383808284376000920191909152509295949360208101935035915050600160201b81111561027857600080fd5b82018360208201111561028a57600080fd5b803590602001918460018302840111600160201b831117156102ab57600080fd5b91908080601f0160208091040260200160405190810160405280939291908181526020018383808284376000920191909152509295949360208101935035915050600160201b8111156102fd57600080fd5b82018360208201111561030f57600080fd5b803590602001918460018302840111600160201b8311171561033057600080fd5b91908080601f01602080910402602001604051908101604052809392919081815260200183838082843760009201919091525092956001600160a01b03853516959094909350604081019250602001359050600160201b81111561039357600080fd5b8201836020820111156103a557600080fd5b803590602001918460018302840111600160201b831117156103c657600080fd5b91908080601f016020809104026020016040519081016040528093929190818152602001838380828437600092019190915250929550610f9e945050505050565b005b6104ad6004803603602081101561041f57600080fd5b810190602081018135600160201b81111561043957600080fd5b82018360208201111561044b57600080fd5b803590602001918460018302840111600160201b8311171561046c57600080fd5b91908080601f0160208091040260200160405190810160405280939291908181526020018383808284376000920191909152509295506114ae945050505050565b6040518085815260200184815260200183815260200180602001828103825283818151815260200191508051906020019060200280838360005b838110156104ff5781810151838201526020016104e7565b505050509050019550505050505060405180910390f35b6105ba6004803603602081101561052c57600080fd5b810190602081018135600160201b81111561054657600080fd5b82018360208201111561055857600080fd5b803590602001918460018302840111600160201b8311171561057957600080fd5b91908080601f0160208091040260200160405190810160405280939291908181526020018383808284376000920191909152509295506114d3945050505050565b6040518083815260200180602001828103825283818151815260200191508051906020019060200280838360005b838110156106005781810151838201526020016105e8565b50505050905001935050505060405180910390f35b6106326004803603602081101561062b57600080fd5b50356114f0565b6040805160208082528351818301528351919283929083019185019080838360005b8381101561066c578181015183820152602001610654565b50505050905090810190601f1680156106995780820380516001836020036101000a031916815260200191505b509250505060405180910390f35b6106af611590565b60408051918252519081900360200190f35b6106de600480360360208110156106d757600080fd5b50356115a2565b604051808060200180602001806020018060200180602001886001600160a01b03166001600160a01b031681526020018060200187810387528e818151815260200191508051906020019080838360005b8381101561074757818101518382015260200161072f565b50505050905090810190601f1680156107745780820380516001836020036101000a031916815260200191505b5087810386528d5181528d516020918201918f019080838360005b838110156107a757818101518382015260200161078f565b50505050905090810190601f1680156107d45780820380516001836020036101000a031916815260200191505b5087810385528c5181528c516020918201918e019080838360005b838110156108075781810151838201526020016107ef565b50505050905090810190601f1680156108345780820380516001836020036101000a031916815260200191505b5087810384528b5181528b516020918201918d019080838360005b8381101561086757818101518382015260200161084f565b50505050905090810190601f1680156108945780820380516001836020036101000a031916815260200191505b5087810383528a5181528a516020918201918c019080838360005b838110156108c75781810151838201526020016108af565b50505050905090810190601f1680156108f45780820380516001836020036101000a031916815260200191505b5087810382528851815288516020918201918a019080838360005b8381101561092757818101518382015260200161090f565b50505050905090810190601f1680156109545780820380516001836020036101000a031916815260200191505b509d505050505050505050505050505060405180910390f35b610407600480360360c081101561098357600080fd5b81359190810190604081016020820135600160201b8111156109a457600080fd5b8201836020820111156109b657600080fd5b803590602001918460018302840111600160201b831117156109d757600080fd5b91908080601f0160208091040260200160405190810160405280939291908181526020018383808284376000920191909152509295843595602086013595604081013595509193509150608081019060600135600160201b811115610a3b57600080fd5b820183602082011115610a4d57600080fd5b803590602001918460208302840111600160201b83111715610a6e57600080fd5b919080806020026020016040519081016040528093929190818152602001838360200280828437600092019190915250929550611957945050505050565b610407600480360360a0811015610ac257600080fd5b810190602081018135600160201b811115610adc57600080fd5b820183602082011115610aee57600080fd5b803590602001918460018302840111600160201b83111715610b0f57600080fd5b91908080601f0160208091040260200160405190810160405280939291908181526020018383808284376000920191909152509295843595602086013595604081013595509193509150608081019060600135600160201b811115610b7357600080fd5b820183602082011115610b8557600080fd5b803590602001918460208302840111600160201b83111715610ba657600080fd5b919080806020026020016040519081016040528093929190818152602001838360200280828437600092019190915250929550611a8a945050505050565b610c8860048036036020811015610bfa57600080fd5b810190602081018135600160201b811115610c1457600080fd5b820183602082011115610c2657600080fd5b803590602001918460018302840111600160201b83111715610c4757600080fd5b91908080601f016020809104026020016040519081016040528093929190818152602001838380828437600092019190915250929550611aa6945050505050565b604080519115158252519081900360200190f35b61063260048036036020811015610cb257600080fd5b810190602081018135600160201b811115610ccc57600080fd5b820183602082011115610cde57600080fd5b803590602001918460018302840111600160201b83111715610cff57600080fd5b91908080601f016020809104026020016040519081016040528093929190818152602001838380828437600092019190915250929550611abe945050505050565b61063260048036036020811015610d5657600080fd5b810190602081018135600160201b811115610d7057600080fd5b820183602082011115610d8257600080fd5b803590602001918460018302840111600160201b83111715610da357600080fd5b91908080601f016020809104026020016040519081016040528093929190818152602001838380828437600092019190915250929550611ad1945050505050565b610407600480360360a0811015610dfa57600080fd5b81359190810190604081016020820135600160201b811115610e1b57600080fd5b820183602082011115610e2d57600080fd5b803590602001918460018302840111600160201b83111715610e4e57600080fd5b91908080601f0160208091040260200160405190810160405280939291908181526020018383808284376000920191909152509295949360208101935035915050600160201b811115610ea057600080fd5b820183602082011115610eb257600080fd5b803590602001918460018302840111600160201b83111715610ed357600080fd5b91908080601f01602080910402602001604051908101604052809392919081815260200183838082843760009201919091525092958435959094909350604081019250602001359050600160201b811115610f2d57600080fd5b820183602082011115610f3f57600080fd5b803590602001918460208302840111600160201b83111715610f6057600080fd5b919080806020026020016040519081016040528093929190818152602001838360200280828437600092019190915250929550611ae4945050505050565b600087878787876040516020018086805190602001908083835b60208310610fd75780518252601f199092019160209182019101610fb8565b51815160209384036101000a600019018019909216911617905288519190930192880191508083835b6020831061101f5780518252601f199092019160209182019101611000565b51815160209384036101000a600019018019909216911617905287519190930192870191508083835b602083106110675780518252601f199092019160209182019101611048565b51815160209384036101000a600019018019909216911617905286519190930192860191508083835b602083106110af5780518252601f199092019160209182019101611090565b51815160209384036101000a600019018019909216911617905285519190930192850191508083835b602083106110f75780518252601f1990920191602091820191016110d8565b6001836020036101000a03801982511681845116808217855250505050505090500195505050505050604051602081830303815290604052805190602001209050600061114382611c6d565b905060006111518285611cbe565b9050846001600160a01b0316816001600160a01b0316146111ad576040805162461bcd60e51b815260206004820152601160248201527014da59db985d1d5c99481a5b9d985b1a59607a1b604482015290519081900360640190fd5b6111bd838b8b8b8b8b8b8b611d85565b604080516020808201869052825180830390910181529082019091526111ec906000908663ffffffff611e7f16565b7f9c300419cab5dcf24f905237448f7040c1806e597357805cb7213c17ec3e74588a8a8a8a8a8a8a604051808060200180602001806020018060200180602001886001600160a01b03166001600160a01b031681526020018060200187810387528e818151815260200191508051906020019080838360005b8381101561127d578181015183820152602001611265565b50505050905090810190601f1680156112aa5780820380516001836020036101000a031916815260200191505b5087810386528d5181528d516020918201918f019080838360005b838110156112dd5781810151838201526020016112c5565b50505050905090810190601f16801561130a5780820380516001836020036101000a031916815260200191505b5087810385528c5181528c516020918201918e019080838360005b8381101561133d578181015183820152602001611325565b50505050905090810190601f16801561136a5780820380516001836020036101000a031916815260200191505b5087810384528b5181528b516020918201918d019080838360005b8381101561139d578181015183820152602001611385565b50505050905090810190601f1680156113ca5780820380516001836020036101000a031916815260200191505b5087810383528a5181528a516020918201918c019080838360005b838110156113fd5781810151838201526020016113e5565b50505050905090810190601f16801561142a5780820380516001836020036101000a031916815260200191505b5087810382528851815288516020918201918a019080838360005b8381101561145d578181015183820152602001611445565b50505050905090810190601f16801561148a5780820380516001836020036101000a031916815260200191505b509d505050505050505050505050505060405180910390a150505050505050505050565b6000808060606114c4828663ffffffff611f8c16565b93509350935093509193509193565b600060606114e7828463ffffffff611fb416565b91509150915091565b6000818152602081815260409182902080548351601f60026000196101006001861615020190931692909204918201849004840281018401909452808452606093928301828280156115835780601f1061155857610100808354040283529160200191611583565b820191906000526020600020905b81548152906001019060200180831161156657829003601f168201915b505050505090505b919050565b600061159c6000611fd4565b90505b90565b6000818152600760209081526040808320600581015481548351601f6002600019600185811615610100029190910190941681900491820188900488028301880190965280825260609788978897889788979396889691959086019492860193600387019360048801936001600160a01b039091169260068901928991908301828280156116715780601f1061164657610100808354040283529160200191611671565b820191906000526020600020905b81548152906001019060200180831161165457829003601f168201915b5050895460408051602060026001851615610100026000190190941693909304601f8101849004840282018401909252818152959c508b9450925084019050828280156116ff5780601f106116d4576101008083540402835291602001916116ff565b820191906000526020600020905b8154815290600101906020018083116116e257829003601f168201915b5050885460408051602060026001851615610100026000190190941693909304601f8101849004840282018401909252818152959b508a94509250840190508282801561178d5780601f106117625761010080835404028352916020019161178d565b820191906000526020600020905b81548152906001019060200180831161177057829003601f168201915b5050875460408051602060026001851615610100026000190190941693909304601f8101849004840282018401909252818152959a508994509250840190508282801561181b5780601f106117f05761010080835404028352916020019161181b565b820191906000526020600020905b8154815290600101906020018083116117fe57829003601f168201915b5050865460408051602060026001851615610100026000190190941693909304601f8101849004840282018401909252818152959950889450925084019050828280156118a95780601f1061187e576101008083540402835291602001916118a9565b820191906000526020600020905b81548152906001019060200180831161188c57829003601f168201915b5050845460408051602060026001851615610100026000190190941693909304601f8101849004840282018401909252818152959850869450925084019050828280156119375780601f1061190c57610100808354040283529160200191611937565b820191906000526020600020905b81548152906001019060200180831161191a57829003601f168201915b505050505090509650965096509650965096509650919395979092949650565b73__PartialMerkleTree_____________________6398108c268787878787876040518763ffffffff1660e01b8152600401808781526020018060200186815260200185815260200184815260200180602001838103835288818151815260200191508051906020019080838360005b838110156119df5781810151838201526020016119c7565b50505050905090810190601f168015611a0c5780820380516001836020036101000a031916815260200191505b508381038252845181528451602091820191808701910280838360005b83811015611a41578181015183820152602001611a29565b505050509050019850505050505050505060006040518083038186803b158015611a6a57600080fd5b505af4158015611a7e573d6000803e3d6000fd5b50505050505050505050565b611a9f6000868686868663ffffffff611fdb16565b5050505050565b6000611ab8818363ffffffff6122a416565b92915050565b6060611ab860008363ffffffff6122be16565b6060611ab860008363ffffffff6122d316565b73__PartialMerkleTree_____________________63f7e498f686868686866040518663ffffffff1660e01b815260040180868152602001806020018060200185815260200180602001848103845288818151815260200191508051906020019080838360005b83811015611b63578181015183820152602001611b4b565b50505050905090810190601f168015611b905780820380516001836020036101000a031916815260200191505b50848103835287518152875160209182019189019080838360005b83811015611bc3578181015183820152602001611bab565b50505050905090810190601f168015611bf05780820380516001836020036101000a031916815260200191505b508481038252855181528551602091820191808801910280838360005b83811015611c25578181015183820152602001611c0d565b505050509050019850505050505050505060006040518083038186803b158015611c4e57600080fd5b505af4158015611c62573d6000803e3d6000fd5b505050505050505050565b604080517f19457468657265756d205369676e6564204d6573736167653a0a333200000000602080830191909152603c8083019490945282518083039094018452605c909101909152815191012090565b60008151604114611cd157506000611ab8565b60208201516040830151606084015160001a601b811015611cf057601b015b8060ff16601b14158015611d0857508060ff16601c14155b15611d195760009350505050611ab8565b6040805160008152602080820180845289905260ff8416828401526060820186905260808201859052915160019260a0808401939192601f1981019281900390910190855afa158015611d70573d6000803e3d6000fd5b5050604051601f190151979650505050505050565b60008881526007602090815260409091208851611da4928a0190613166565b5060008881526007602090815260409091208751611dca92600190920191890190613166565b5060008881526007602090815260409091208651611df092600290920191880190613166565b5060008881526007602090815260409091208551611e1692600390920191870190613166565b5060008881526007602090815260409091208451611e3c92600490920191860190613166565b5060008881526007602090815260409091206005810180546001600160a01b0319166001600160a01b0386161790558251611c6292600690920191840190613166565b611e876131e4565b5060408051808201825283516020808601919091208252610100818301528351848201908120600081815292889052939091208451929392611ec99290613166565b50611ed26131fb565b6004860154158015611ee657506006860154155b15611efe576040810183905260208101829052611f4e565b604080516060810182526003880154815260048801546020808301919091528251808401845260058a0154815260068a01549181019190915291810191909152611f4b9087908585612313565b90505b611f5781612443565b600287015580516003870155602080820151600488015560409091015180516005880155015160069095019490945550505050565b60008060006060611fa48686805190602001206124b5565b9299919850965090945092505050565b60006060611fc9848480519060200120612768565b915091509250929050565b6002015490565b611fe36131e4565b604051806040016040528087805190602001208152602001610100815250905061200b6131fb565b60005b841561224457600061201f866129a8565b9050806001901b1986169550612038848260ff03612a72565b6040850181905290945060009061204e90612b13565b604086015290508261207357604084018051602090810184905290518a905284018890525b61207b61321f565b61208485612443565b81836002811061209057fe5b602002015286518790600019868203019081106120a957fe5b60200260200101518183600103600281106120c057fe5b60200201526000818160200201518260016020020151604051602001808381526020018281526020019250505060405160208183030381529060405280519060200120905060008d600101600083815260200190815260200160002090508681600001856002811061212e57fe5b600402016000820151816000015560208201518160010155604082015181600201600082015181600001556020820151816001015550509050506121cd81600001856001036002811061217d57fe5b600402016040518060600160405290816000820154815260200160018201548152602001600282016040518060400160405290816000820154815260200160018201548152505081525050612b92565b1561220457886001878b510303815181106121e457fe5b60200260200101518160000185600103600281106121fe57fe5b60040201555b505080516020918201516040805180850193909352828101919091528051808303820181526060909201905280519082012090850152505060010161200e565b506040810182905261225581612443565b88600201541461226457600080fd5b61226d81612443565b60028901558051600389015560208082015160048a0155604090910151805160058a01550151600690970196909655505050505050565b60006122b7838380519060200120612ba8565b9392505050565b60606122b7836122ce8585612bbf565b612bd2565b606060006122e18484612bbf565b9050806122ed57600080fd5b6122f78482612bd2565b91508180519060200120811461230c57600080fd5b5092915050565b61231b6131fb565b8360400151602001518360200151101561233457600080fd5b61233c6131e4565b6123446131e4565b612352858760400151612c72565b6020810151919350915060009061236a57508361242d565b86604001516020015183602001511015801561238a575061238a87612c95565b156123a65761239f8888602001518488612c9e565b905061242d565b60006123b06131e4565b6123b984612b13565b90925090506123c661323d565b6123d08883612d8a565b815184600281106123dd57fe5b60200201819052506124078a602001516124028c604001518960200151600101612da2565b612d8a565b815160018590036002811061241857fe5b60200201526124278b82612e06565b93505050505b6124378184612d8a565b98975050505050505050565b600061244e82612b92565b1561245857600080fd5b61246182612c95565b156124ad5750602080820151604080840151808401519051825180860194909452838301919091526060808401919091528151808403909101815260809092019052805191012061158b565b50805161158b565b600080600060606000806124c76131e4565b506040805180820190915287815261010060208201526124e56131fb565b506040805160608101825260038b0154815260048b01546020808301919091528251808401845260058d0154815260068d0154918101919091529181019190915261252e613250565b8160400151602001518360200151101561254757600080fd5b61254f6131e4565b6125576131e4565b612565858560400151612c72565b6020810151919350915061257857600080fd5b8360400151602001518260200151106126cb578160200151870196508660ff036001901b8917985060018701965060006125b182612b13565b80975081925050506126368e60010160008760200151815260200190815260200160002060000182600103600281106125e657fe5b600402016040518060600160405290816000820154815260200160018201548152602001600282016040518060400160405290816000820154815260200160018201548152505081525050612443565b60018801978590610100811061264857fe5b6020020181815250508d600101600086602001518152602001908152602001600020600001816002811061267857fe5b6004020160405180606001604052908160008201548152602001600182015481526020016002820160405180604001604052908160008201548152602001600182015481525050815250509450506126e2565b5050604082015151602083015190995097506126e9565b505061252e565b831561275a5783604051908082528060200260200182016040528015612719578160200160208202803883390190505b50955060005b84811015612758578181610100811061273457fe5b602002015187828151811061274557fe5b602090810291909101015260010161271f565b505b505050505092959194509250565b600060606127746131e4565b506040805180820190915283815261010060208201526127926131fb565b50604080516060810182526003870154815260048701546020808301919091528251808401845260058901548152600689015491810191909152918101919091526127db613250565b6000805b6127e76131e4565b6127ef6131e4565b6127fd878760400151612c72565b809250819350505085604001516020015182602001511461281d57600080fd5b602081015161282d57505061292b565b8160200151840193508360ff036001901b8917985060018401935060006128526131e4565b61285b83612b13565b80925081935050506128908d60010160008a60200151815260200190815260200160002060000183600103600281106125e657fe5b6001860195889061010081106128a257fe5b6020020181815250508c60010160008960200151815260200190815260200160002060000182600281106128d257fe5b6004020160405180606001604052908160008201548152602001600182015481526020016002820160405180604001604052908160008201548152602001600182015481525050815250509750809850505050506127df565b801561299c578060405190808252806020026020018201604052801561295b578160200160208202803883390190505b50955060005b8181101561299a578381610100811061297657fe5b602002015187828151811061298757fe5b6020908102919091010152600101612961565b505b50505050509250929050565b6000816129eb576040805162461bcd60e51b815260206004820152600c60248201526b10985908189a5d199a595b1960a21b604482015290519081900360640190fd5b8160005b6020811015612a27578181601f0360208110612a0757fe5b1a60f81b6001600160f81b03191615612a1f57612a27565b6001016129ef565b60008282601f0360208110612a3857fe5b600095501a905060015b610100851015612a705781811615612a63575050600802909101905061158b565b6001909401938001612a42565bfe5b612a7a6131e4565b612a826131e4565b83602001518311158015612a9857506101008311155b612ad3576040805162461bcd60e51b815260206004820152600760248201526642616420706f7360c81b604482015290519081900360640190fd5b6020820183905282612ae85760008252612afc565b835160001960016101008690031b01191682525b60208085015184900390820152925190911b825291565b6000612b1d6131e4565b6000836020015111612b66576040805162461bcd60e51b815260206004820152600d60248201526c115b5c1d1e48195b195b595b9d609a1b604482015290519081900360640190fd5b5050805160408051808201909152825160011b8152602092830151600019019281019290925260ff1c91565b8051600090158015611ab8575050602001511590565b600080612bb58484612e7f565b1515949350505050565b60006122b7838380519060200120612e7f565b6000818152602083815260409182902080548351601f6002600019610100600186161502019093169290920491820184900484028101840190945280845260609392830182828015612c655780601f10612c3a57610100808354040283529160200191612c65565b820191906000526020600020905b815481529060010190602001808311612c4857829003601f168201915b5050505050905092915050565b612c7a6131e4565b612c826131e4565b611fc984612c908587612f0f565b612a72565b60200151151590565b6000612ca861323d565b60008581526001870160209081526040808320815160608101909252909290918391908201908390600290835b82821015612d2c576040805160608101825260048402860180548252600180820154602080850191909152845180860186526002840154815260039093015483820152938301919091529083529092019101612cd5565b505050508152505090506000612d406131e4565b612d4986612b13565b84519193509150612d6d9089908460028110612d6157fe5b60200201518388612313565b83518360028110612d7a57fe5b6020020152612437888885612f6c565b612d926131fb565b6020810192909252604082015290565b612daa6131e4565b8260200151821115612df0576040805162461bcd60e51b815260206004820152600a602482015269109859081b195b99da1d60b21b604482015290519081900360640190fd5b602080840151839003908201529151901b815290565b600080612e1283612f9b565b8351516000828152600196870160209081526040918290208351815583820151988101989098559181015180516002890155820151600388015594518101518051600488015580820151600588015590940151805160068701559093015160079094019390935550919050565b6004820154600090158015612e9657506006830154155b15612ea357506000611ab8565b612eab6131e4565b5060408051808201825283815261010060208083019190915282516060810184526003870154815260048701548183015283518085018552600588015481526006880154928101929092529283015290612f0790859083612ff1565b915050611ab8565b6000808260200151846020015110612f2b578260200151612f31565b83602001515b8351855191925018600160ff1b5b82841015612f635780821615612f5457612f63565b60019093019290800190612f3f565b50505092915050565b6000828152600184016020526040812081612f878282613270565b5050612f938483612e06565b949350505050565b8051600090612fb090825b6020020151612443565b8251612fbd906001612fa6565b6040516020018083815260200182815260200192505050604051602081830303815290604052805190602001209050919050565b60008260400151602001518260200151101561300c57600080fd5b6130146131e4565b61301c6131e4565b61302a848660400151612c72565b602081015191935091506130455750505060208201516122b7565b846040015160200151826020015110613070576130678686602001518361307c565b925050506122b7565b50600091506122b79050565b6000600182602001511161308f57600080fd5b61309761323d565b60008481526001860160209081526040808320815160608101909252909290918391908201908390600290835b8282101561311b5760408051606081018252600484028601805482526001808201546020808501919091528451808601865260028401548152600390930154838201529383019190915290835290920191016130c4565b50505050815250509050600061312f6131e4565b61313885612b13565b8451919350915061315b908890846002811061315057fe5b602002015183612ff1565b979650505050505050565b828054600181600116156101000203166002900490600052602060002090601f016020900481019282601f106131a757805160ff19168380011785556131d4565b828001600101855582156131d4579182015b828111156131d45782518255916020019190600101906131b9565b506131e09291506132a8565b5090565b604080518082019091526000808252602082015290565b604080516060810182526000808252602082015290810161321a6131e4565b905290565b60405180604001604052806002906020820280388339509192915050565b604051806020016040528061321a6132c2565b604051806120000160405280610100906020820280388339509192915050565b506000808255600182018190556002820181905560038201819055600482018190556005820181905560068201819055600790910155565b61159f91905b808211156131e057600081556001016132ae565b60405180604001604052806002905b6132d96131fb565b8152602001906001900390816132d15790505090565b6002820154156132fe57600080fd5b60029091015556fea265627a7a72315820b77a5d86077d77b3686a694483eb35579d0f7006546817bcf8d0df750c8e1e2c64736f6c63430005110032",
  "bytecodeSha1": "5e127a073b54ac6f98487f99ce1dd7da62045d3d",
  "compiler": {
    "evm_version": "istanbul",
    "optimizer": {
      "enabled": true,
      "runs": 200
    },
    "version": "0.5.17+commit.d19bba13"
  },
  "contractName": "PartialMerkleTreeImplementation",
  "deployedBytecode": "608060405234801561001057600080fd5b50600436106100b45760003560e01c806398108c261161007157806398108c261461096d578063b256c53314610aac578063d4119da714610be4578063d6d7d52514610c9c578063e7e6d05814610d40578063f7e498f614610de4576100b4565b80631e44979d146100b957806329b3c5ba14610409578063693ac4fb14610516578063698439401461061557806380759f1f146106a75780638c172fa2146106c1575b600080fd5b610407600480360360e08110156100cf57600080fd5b810190602081018135600160201b8111156100e957600080fd5b8201836020820111156100fb57600080fd5b803590602001918460018302840111600160201b8311171561011c57600080fd5b91908080601f0160208091040260200160405190810160405280939291908181526020018383808284376000920191909152509295949360208101935035915050600160201b81111561016e57600080fd5b82018360208201111561018057600080fd5b803590602001918460018302840111600160201b831117156101a157600080fd5b91908080601f0160208091040260200160405190810160405280939291908181526020018383808284376000920191909152509295949360208101935035915050600160201b8111156101f357600080fd5b82018360208201111561020557600080fd5b803590602001918460018302840111600160201b8311171561022657600080fd5b91908080601f0160208091040260200160405190810160405280939291908181526020018383808284376000920191909152509295949360208101935035915050600160201b81111561027857600080fd5b82018360208201111561028a57600080fd5b803590602001918460018302840111600160201b831117156102ab57600080fd5b91908080601f0160208091040260200160405190810160405280939291908181526020018383808284376000920191909152509295949360208101935035915050600160201b8111156102fd57600080fd5b82018360208201111561030f57600080fd5b803590602001918460018302840111600160201b8311171561033057600080fd5b91908080601f01602080910402602001604051908101604052809392919081815260200183838082843760009201919091525092956001600160a01b03853516959094909350604081019250602001359050600160201b81111561039357600080fd5b8201836020820111156103a557600080fd5b803590602001918460018302840111600160201b831117156103c657600080fd5b91908080601f016020809104026020016040519081016040528093929190818152602001838380828437600092019190915250929550610f9e945050505050565b005b6104ad6004803603602081101561041f57600080fd5b810190602081018135600160201b81111561043957600080fd5b82018360208201111561044b57600080fd5b803590602001918460018302840111600160201b8311171561046c57600080fd5b91908080601f0160208091040260200160405190810160405280939291908181526020018383808284376000920191909152509295506114ae945050505050565b6040518085815260200184815260200183815260200180602001828103825283818151815260200191508051906020019060200280838360005b838110156104ff5781810151838201526020016104e7565b505050509050019550505050505060405180910390f35b6105ba6004803603602081101561052c57600080fd5b810190602081018135600160201b81111561054657600080fd5b82018360208201111561055857600080fd5b803590602001918460018302840111600160201b8311171561057957600080fd5b91908080601f0160208091040260200160405190810160405280939291908181526020018383808284376000920191909152509295506114d3945050505050565b6040518083815260200180602001828103825283818151815260200191508051906020019060200280838360005b838110156106005781810151838201526020016105e8565b50505050905001935050505060405180910390f35b6106326004803603602081101561062b57600080fd5b50356114f0565b6040805160208082528351818301528351919283929083019185019080838360005b8381101561066c578181015183820152602001610654565b50505050905090810190601f1680156106995780820380516001836020036101000a031916815260200191505b509250505060405180910390f35b6106af611590565b60408051918252519081900360200190f35b6106de600480360360208110156106d757600080fd5b50356115a2565b604051808060200180602001806020018060200180602001886001600160a01b03166001600160a01b031681526020018060200187810387528e818151815260200191508051906020019080838360005b8381101561074757818101518382015260200161072f565b50505050905090810190601f1680156107745780820380516001836020036101000a031916815260200191505b5087810386528d5181528d516020918201918f019080838360005b838110156107a757818101518382015260200161078f565b50505050905090810190601f1680156107d45780820380516001836020036101000a031916815260200191505b5087810385528c5181528c516020918201918e019080838360005b838110156108075781810151838201526020016107ef565b50505050905090810190601f1680156108345780820380516001836020036101000a031916815260200191505b5087810384528b5181528b516020918201918d019080838360005b8381101561086757818101518382015260200161084f565b50505050905090810190601f1680156108945780820380516001836020036101000a031916815260200191505b5087810383528a5181528a516020918201918c019080838360005b838110156108c75781810151838201526020016108af565b50505050905090810190601f1680156108f45780820380516001836020036101000a031916815260200191505b5087810382528851815288516020918201918a019080838360005b8381101561092757818101518382015260200161090f565b50505050905090810190601f1680156109545780820380516001836020036101000a031916815260200191505b509d505050505050505050505050505060405180910390f35b610407600480360360c081101561098357600080fd5b81359190810190604081016020820135600160201b8111156109a457600080fd5b8201836020820111156109b657600080fd5b803590602001918460018302840111600160201b831117156109d757600080fd5b91908080601f0160208091040260200160405190810160405280939291908181526020018383808284376000920191909152509295843595602086013595604081013595509193509150608081019060600135600160201b811115610a3b57600080fd5b820183602082011115610a4d57600080fd5b803590602001918460208302840111600160201b83111715610a6e57600080fd5b919080806020026020016040519081016040528093929190818152602001838360200280828437600092019190915250929550611957945050505050565b610407600480360360a0811015610ac257600080fd5b810190602081018135600160201b811115610adc57600080fd5b820183602082011115610aee57600080fd5b803590602001918460018302840111600160201b83111715610b0f57600080fd5b91908080601f0160208091040260200160405190810160405280939291908181526020018383808284376000920191909152509295843595602086013595604081013595509193509150608081019060600135600160201b811115610b7357600080fd5b820183602082011115610b8557600080fd5b803590602001918460208302840111600160201b83111715610ba657600080fd5b919080806020026020016040519081016040528093929190818152602001838360200280828437600092019190915250929550611a8a945050505050565b610c8860048036036020811015610bfa57600080fd5b810190602081018135600160201b811115610c1457600080fd5b820183602082011115610c2657600080fd5b803590602001918460018302840111600160201b83111715610c4757600080fd5b91908080601f016020809104026020016040519081016040528093929190818152602001838380828437600092019190915250929550611aa6945050505050565b604080519115158252519081900360200190f35b61063260048036036020811015610cb257600080fd5b810190602081018135600160201b811115610ccc57600080fd5b820183602082011115610cde57600080fd5b803590602001918460018302840111600160201b83111715610cff57600080fd5b91908080601f016020809104026020016040519081016040528093929190818152602001838380828437600092019190915250929550611abe945050505050565b61063260048036036020811015610d5657600080fd5b810190602081018135600160201b811115610d7057600080fd5b820183602082011115610d8257600080fd5b803590602001918460018302840111600160201b83111715610da357600080fd5b91908080601f016020809104026020016040519081016040528093929190818152602001838380828437600092019190915250929550611ad1945050505050565b610407600480360360a0811015610dfa57600080fd5b81359190810190604081016020820135600160201b811115610e1b57600080fd5b820183602082011115610e2d57600080fd5b803590602001918460018302840111600160201b83111715610e4e57600080fd5b91908080601f0160208091040260200160405190810160405280939291908181526020018383808284376000920191909152509295949360208101935035915050600160201b811115610ea057600080fd5b820183602082011115610eb257600080fd5b803590602001918460018302840111600160201b83111715610ed357600080fd5b91908080601f01602080910402602001604051908101604052809392919081815260200183838082843760009201919091525092958435959094909350604081019250602001359050600160201b811115610f2d57600080fd5b820183602082011115610f3f57600080fd5b803590602001918460208302840111600160201b83111715610f6057600080fd5b919080806020026020016040519081016040528093929190818152602001838360200280828437600092019190915250929550611ae4945050505050565b600087878787876040516020018086805190602001908083835b60208310610fd75780518252601f199092019160209182019101610fb8565b51815160209384036101000a600019018019909216911617905288519190930192880191508083835b6020831061101f5780518252601f199092019160209182019101611000565b51815160209384036101000a600019018019909216911617905287519190930192870191508083835b602083106110675780518252601f199092019160209182019101611048565b51815160209384036101000a600019018019909216911617905286519190930192860191508083835b602083106110af5780518252601f199092019160209182019101611090565b51815160209384036101000a600019018019909216911617905285519190930192850191508083835b602083106110f75780518252601f1990920191602091820191016110d8565b6001836020036101000a03801982511681845116808217855250505050505090500195505050505050604051602081830303815290604052805190602001209050600061114382611c6d565b905060006111518285611cbe565b9050846001600160a01b0316816001600160a01b0316146111ad576040805162461bcd60e51b815260206004820152601160248201527014da59db985d1d5c99481a5b9d985b1a59607a1b604482015290519081900360640190fd5b6111bd838b8b8b8b8b8b8b611d85565b604080516020808201869052825180830390910181529082019091526111ec906000908663ffffffff611e7f16565b7f9c300419cab5dcf24f905237448f7040c1806e597357805cb7213c17ec3e74588a8a8a8a8a8a8a604051808060200180602001806020018060200180602001886001600160a01b03166001600160a01b031681526020018060200187810387528e818151815260200191508051906020019080838360005b8381101561127d578181015183820152602001611265565b50505050905090810190601f1680156112aa5780820380516001836020036101000a031916815260200191505b5087810386528d5181528d516020918201918f019080838360005b838110156112dd5781810151838201526020016112c5565b50505050905090810190601f16801561130a5780820380516001836020036101000a031916815260200191505b5087810385528c5181528c516020918201918e019080838360005b8381101561133d578181015183820152602001611325565b50505050905090810190601f16801561136a5780820380516001836020036101000a031916815260200191505b5087810384528b5181528b516020918201918d019080838360005b8381101561139d578181015183820152602001611385565b50505050905090810190601f1680156113ca5780820380516001836020036101000a031916815260200191505b5087810383528a5181528a516020918201918c019080838360005b838110156113fd5781810151838201526020016113e5565b50505050905090810190601f16801561142a5780820380516001836020036101000a031916815260200191505b5087810382528851815288516020918201918a019080838360005b8381101561145d578181015183820152602001611445565b50505050905090810190601f16801561148a5780820380516001836020036101000a031916815260200191505b509d505050505050505050505050505060405180910390a150505050505050505050565b6000808060606114c4828663ffffffff611f8c16565b93509350935093509193509193565b600060606114e7828463ffffffff611fb416565b91509150915091565b6000818152602081815260409182902080548351601f60026000196101006001861615020190931692909204918201849004840281018401909452808452606093928301828280156115835780601f1061155857610100808354040283529160200191611583565b820191906000526020600020905b81548152906001019060200180831161156657829003601f168201915b505050505090505b919050565b600061159c6000611fd4565b90505b90565b6000818152600760209081526040808320600581015481548351601f6002600019600185811615610100029190910190941681900491820188900488028301880190965280825260609788978897889788979396889691959086019492860193600387019360048801936001600160a01b039091169260068901928991908301828280156116715780601f1061164657610100808354040283529160200191611671565b820191906000526020600020905b81548152906001019060200180831161165457829003601f168201915b5050895460408051602060026001851615610100026000190190941693909304601f8101849004840282018401909252818152959c508b9450925084019050828280156116ff5780601f106116d4576101008083540402835291602001916116ff565b820191906000526020600020905b8154815290600101906020018083116116e257829003601f168201915b5050885460408051602060026001851615610100026000190190941693909304601f8101849004840282018401909252818152959b508a94509250840190508282801561178d5780601f106117625761010080835404028352916020019161178d565b820191906000526020600020905b81548152906001019060200180831161177057829003601f168201915b5050875460408051602060026001851615610100026000190190941693909304601f8101849004840282018401909252818152959a508994509250840190508282801561181b5780601f106117f05761010080835404028352916020019161181b565b820191906000526020600020905b8154815290600101906020018083116117fe57829003601f168201915b5050865460408051602060026001851615610100026000190190941693909304601f8101849004840282018401909252818152959950889450925084019050828280156118a95780601f1061187e576101008083540402835291602001916118a9565b820191906000526020600020905b81548152906001019060200180831161188c57829003601f168201915b5050845460408051602060026001851615610100026000190190941693909304601f8101849004840282018401909252818152959850869450925084019050828280156119375780601f1061190c57610100808354040283529160200191611937565b820191906000526020600020905b81548152906001019060200180831161191a57829003601f168201915b505050505090509650965096509650965096509650919395979092949650565b73__$cc2ef972bcd389c38d773e0d1eed5db73c$__6398108c268787878787876040518763ffffffff1660e01b8152600401808781526020018060200186815260200185815260200184815260200180602001838103835288818151815260200191508051906020019080838360005b838110156119df5781810151838201526020016119c7565b50505050905090810190601f168015611a0c5780820380516001836020036101000a031916815260200191505b508381038252845181528451602091820191808701910280838360005b83811015611a41578181015183820152602001611a29565b505050509050019850505050505050505060006040518083038186803b158015611a6a57600080fd5b505af4158015611a7e573d6000803e3d6000fd5b50505050505050505050565b611a9f6000868686868663ffffffff611fdb16565b5050505050565b6000611ab8818363ffffffff6122a416565b92915050565b6060611ab860008363ffffffff6122be16565b6060611ab860008363ffffffff6122d316565b73__$cc2ef972bcd389c38d773e0d1eed5db73c$__63f7e498f686868686866040518663ffffffff1660e01b815260040180868152602001806020018060200185815260200180602001848103845288818151815260200191508051906020019080838360005b83811015611b63578181015183820152602001611b4b565b50505050905090810190601f168015611b905780820380516001836020036101000a031916815260200191505b50848103835287518152875160209182019189019080838360005b83811015611bc3578181015183820152602001611bab565b50505050905090810190601f168015611bf05780820380516001836020036101000a031916815260200191505b508481038252855181528551602091820191808801910280838360005b83811015611c25578181015183820152602001611c0d565b505050509050019850505050505050505060006040518083038186803b158015611c4e57600080fd5b505af4158015611c62573d6000803e3d6000fd5b505050505050505050565b604080517f19457468657265756d205369676e6564204d6573736167653a0a333200000000602080830191909152603c8083019490945282518083039094018452605c909101909152815191012090565b60008151604114611cd157506000611ab8565b60208201516040830151606084015160001a601b811015611cf057601b015b8060ff16601b14158015611d0857508060ff16601c14155b15611d195760009350505050611ab8565b6040805160008152602080820180845289905260ff8416828401526060820186905260808201859052915160019260a0808401939192601f1981019281900390910190855afa158015611d70573d6000803e3d6000fd5b5050604051601f190151979650505050505050565b60008881526007602090815260409091208851611da4928a0190613166565b5060008881526007602090815260409091208751611dca92600190920191890190613166565b5060008881526007602090815260409091208651611df092600290920191880190613166565b5060008881526007602090815260409091208551611e1692600390920191870190613166565b5060008881526007602090815260409091208451611e3c92600490920191860190613166565b5060008881526007602090815260409091206005810180546001600160a01b0319166001600160a01b0386161790558251611c6292600690920191840190613166565b611e876131e4565b5060408051808201825283516020808601919091208252610100818301528351848201908120600081815292889052939091208451929392611ec99290613166565b50611ed26131fb565b6004860154158015611ee657506006860154155b15611efe576040810183905260208101829052611f4e565b604080516060810182526003880154815260048801546020808301919091528251808401845260058a0154815260068a01549181019190915291810191909152611f4b9087908585612313565b90505b611f5781612443565b600287015580516003870155602080820151600488015560409091015180516005880155015160069095019490945550505050565b60008060006060611fa48686805190602001206124b5565b9299919850965090945092505050565b60006060611fc9848480519060200120612768565b915091509250929050565b6002015490565b611fe36131e4565b604051806040016040528087805190602001208152602001610100815250905061200b6131fb565b60005b841561224457600061201f866129a8565b9050806001901b1986169550612038848260ff03612a72565b6040850181905290945060009061204e90612b13565b604086015290508261207357604084018051602090810184905290518a905284018890525b61207b61321f565b61208485612443565b81836002811061209057fe5b602002015286518790600019868203019081106120a957fe5b60200260200101518183600103600281106120c057fe5b60200201526000818160200201518260016020020151604051602001808381526020018281526020019250505060405160208183030381529060405280519060200120905060008d600101600083815260200190815260200160002090508681600001856002811061212e57fe5b600402016000820151816000015560208201518160010155604082015181600201600082015181600001556020820151816001015550509050506121cd81600001856001036002811061217d57fe5b600402016040518060600160405290816000820154815260200160018201548152602001600282016040518060400160405290816000820154815260200160018201548152505081525050612b92565b1561220457886001878b510303815181106121e457fe5b60200260200101518160000185600103600281106121fe57fe5b60040201555b505080516020918201516040805180850193909352828101919091528051808303820181526060909201905280519082012090850152505060010161200e565b506040810182905261225581612443565b88600201541461226457600080fd5b61226d81612443565b60028901558051600389015560208082015160048a0155604090910151805160058a01550151600690970196909655505050505050565b60006122b7838380519060200120612ba8565b9392505050565b60606122b7836122ce8585612bbf565b612bd2565b606060006122e18484612bbf565b9050806122ed57600080fd5b6122f78482612bd2565b91508180519060200120811461230c57600080fd5b5092915050565b61231b6131fb565b8360400151602001518360200151101561233457600080fd5b61233c6131e4565b6123446131e4565b612352858760400151612c72565b6020810151919350915060009061236a57508361242d565b86604001516020015183602001511015801561238a575061238a87612c95565b156123a65761239f8888602001518488612c9e565b905061242d565b60006123b06131e4565b6123b984612b13565b90925090506123c661323d565b6123d08883612d8a565b815184600281106123dd57fe5b60200201819052506124078a602001516124028c604001518960200151600101612da2565b612d8a565b815160018590036002811061241857fe5b60200201526124278b82612e06565b93505050505b6124378184612d8a565b98975050505050505050565b600061244e82612b92565b1561245857600080fd5b61246182612c95565b156124ad5750602080820151604080840151808401519051825180860194909452838301919091526060808401919091528151808403909101815260809092019052805191012061158b565b50805161158b565b600080600060606000806124c76131e4565b506040805180820190915287815261010060208201526124e56131fb565b506040805160608101825260038b0154815260048b01546020808301919091528251808401845260058d0154815260068d0154918101919091529181019190915261252e613250565b8160400151602001518360200151101561254757600080fd5b61254f6131e4565b6125576131e4565b612565858560400151612c72565b6020810151919350915061257857600080fd5b8360400151602001518260200151106126cb578160200151870196508660ff036001901b8917985060018701965060006125b182612b13565b80975081925050506126368e60010160008760200151815260200190815260200160002060000182600103600281106125e657fe5b600402016040518060600160405290816000820154815260200160018201548152602001600282016040518060400160405290816000820154815260200160018201548152505081525050612443565b60018801978590610100811061264857fe5b6020020181815250508d600101600086602001518152602001908152602001600020600001816002811061267857fe5b6004020160405180606001604052908160008201548152602001600182015481526020016002820160405180604001604052908160008201548152602001600182015481525050815250509450506126e2565b5050604082015151602083015190995097506126e9565b505061252e565b831561275a5783604051908082528060200260200182016040528015612719578160200160208202803883390190505b50955060005b84811015612758578181610100811061273457fe5b602002015187828151811061274557fe5b602090810291909101015260010161271f565b505b505050505092959194509250565b600060606127746131e4565b506040805180820190915283815261010060208201526127926131fb565b50604080516060810182526003870154815260048701546020808301919091528251808401845260058901548152600689015491810191909152918101919091526127db613250565b6000805b6127e76131e4565b6127ef6131e4565b6127fd878760400151612c72565b809250819350505085604001516020015182602001511461281d57600080fd5b602081015161282d57505061292b565b8160200151840193508360ff036001901b8917985060018401935060006128526131e4565b61285b83612b13565b80925081935050506128908d60010160008a60200151815260200190815260200160002060000183600103600281106125e657fe5b6001860195889061010081106128a257fe5b6020020181815250508c60010160008960200151815260200190815260200160002060000182600281106128d257fe5b6004020160405180606001604052908160008201548152602001600182015481526020016002820160405180604001604052908160008201548152602001600182015481525050815250509750809850505050506127df565b801561299c578060405190808252806020026020018201604052801561295b578160200160208202803883390190505b50955060005b8181101561299a578381610100811061297657fe5b602002015187828151811061298757fe5b6020908102919091010152600101612961565b505b50505050509250929050565b6000816129eb576040805162461bcd60e51b815260206004820152600c60248201526b10985908189a5d199a595b1960a21b604482015290519081900360640190fd5b8160005b6020811015612a27578181601f0360208110612a0757fe5b1a60f81b6001600160f81b03191615612a1f57612a27565b6001016129ef565b60008282601f0360208110612a3857fe5b600095501a905060015b610100851015612a705781811615612a63575050600802909101905061158b565b6001909401938001612a42565bfe5b612a7a6131e4565b612a826131e4565b83602001518311158015612a9857506101008311155b612ad3576040805162461bcd60e51b815260206004820152600760248201526642616420706f7360c81b604482015290519081900360640190fd5b6020820183905282612ae85760008252612afc565b835160001960016101008690031b01191682525b60208085015184900390820152925190911b825291565b6000612b1d6131e4565b6000836020015111612b66576040805162461bcd60e51b815260206004820152600d60248201526c115b5c1d1e48195b195b595b9d609a1b604482015290519081900360640190fd5b5050805160408051808201909152825160011b8152602092830151600019019281019290925260ff1c91565b8051600090158015611ab8575050602001511590565b600080612bb58484612e7f565b1515949350505050565b60006122b7838380519060200120612e7f565b6000818152602083815260409182902080548351601f6002600019610100600186161502019093169290920491820184900484028101840190945280845260609392830182828015612c655780601f10612c3a57610100808354040283529160200191612c65565b820191906000526020600020905b815481529060010190602001808311612c4857829003601f168201915b5050505050905092915050565b612c7a6131e4565b612c826131e4565b611fc984612c908587612f0f565b612a72565b60200151151590565b6000612ca861323d565b60008581526001870160209081526040808320815160608101909252909290918391908201908390600290835b82821015612d2c576040805160608101825260048402860180548252600180820154602080850191909152845180860186526002840154815260039093015483820152938301919091529083529092019101612cd5565b505050508152505090506000612d406131e4565b612d4986612b13565b84519193509150612d6d9089908460028110612d6157fe5b60200201518388612313565b83518360028110612d7a57fe5b6020020152612437888885612f6c565b612d926131fb565b6020810192909252604082015290565b612daa6131e4565b8260200151821115612df0576040805162461bcd60e51b815260206004820152600a602482015269109859081b195b99da1d60b21b604482015290519081900360640190fd5b602080840151839003908201529151901b815290565b600080612e1283612f9b565b8351516000828152600196870160209081526040918290208351815583820151988101989098559181015180516002890155820151600388015594518101518051600488015580820151600588015590940151805160068701559093015160079094019390935550919050565b6004820154600090158015612e9657506006830154155b15612ea357506000611ab8565b612eab6131e4565b5060408051808201825283815261010060208083019190915282516060810184526003870154815260048701548183015283518085018552600588015481526006880154928101929092529283015290612f0790859083612ff1565b915050611ab8565b6000808260200151846020015110612f2b578260200151612f31565b83602001515b8351855191925018600160ff1b5b82841015612f635780821615612f5457612f63565b60019093019290800190612f3f565b50505092915050565b6000828152600184016020526040812081612f878282613270565b5050612f938483612e06565b949350505050565b8051600090612fb090825b6020020151612443565b8251612fbd906001612fa6565b6040516020018083815260200182815260200192505050604051602081830303815290604052805190602001209050919050565b60008260400151602001518260200151101561300c57600080fd5b6130146131e4565b61301c6131e4565b61302a848660400151612c72565b602081015191935091506130455750505060208201516122b7565b846040015160200151826020015110613070576130678686602001518361307c565b925050506122b7565b50600091506122b79050565b6000600182602001511161308f57600080fd5b61309761323d565b60008481526001860160209081526040808320815160608101909252909290918391908201908390600290835b8282101561311b5760408051606081018252600484028601805482526001808201546020808501919091528451808601865260028401548152600390930154838201529383019190915290835290920191016130c4565b50505050815250509050600061312f6131e4565b61313885612b13565b8451919350915061315b908890846002811061315057fe5b602002015183612ff1565b979650505050505050565b828054600181600116156101000203166002900490600052602060002090601f016020900481019282601f106131a757805160ff19168380011785556131d4565b828001600101855582156131d4579182015b828111156131d45782518255916020019190600101906131b9565b506131e09291506132a8565b5090565b604080518082019091526000808252602082015290565b604080516060810182526000808252602082015290810161321a6131e4565b905290565b60405180604001604052806002906020820280388339509192915050565b604051806020016040528061321a6132c2565b604051806120000160405280610100906020820280388339509192915050565b506000808255600182018190556002820181905560038201819055600482018190556005820181905560068201819055600790910155565b61159f91905b808211156131e057600081556001016132ae565b60405180604001604052806002905b6132d96131fb565b8152602001906001900390816132d15790505090565b6002820154156132fe57600080fd5b60029091015556fea265627a7a72315820b77a5d86077d77b3686a694483eb35579d0f7006546817bcf8d0df750c8e1e2c64736f6c63430005110032",
  "language": "Solidity",
  "natspec": {
    "methods": {}
  },
  "opcodes": "PUSH1 0x80 PUSH1 0x40 MSTORE CALLVALUE DUP1 ISZERO PUSH2 0x10 JUMPI PUSH1 0x0 DUP1 REVERT JUMPDEST POP PUSH1 0x4 CALLDATASIZE LT PUSH2 0xB4 JUMPI PUSH1 0x0 CALLDATALOAD PUSH1 0xE0 SHR DUP1 PUSH4 0x98108C26 GT PUSH2 0x71 JUMPI DUP1 PUSH4 0x98108C26 EQ PUSH2 0x96D JUMPI DUP1 PUSH4 0xB256C533 EQ PUSH2 0xAAC JUMPI DUP1 PUSH4 0xD4119DA7 EQ PUSH2 0xBE4 JUMPI DUP1 PUSH4 0xD6D7D525 EQ PUSH2 0xC9C JUMPI DUP1 PUSH4 0xE7E6D058 EQ PUSH2 0xD40 JUMPI DUP1 PUSH4 0xF7E498F6 EQ PUSH2 0xDE4 JUMPI PUSH2 0xB4 JUMP JUMPDEST DUP1 PUSH4 0x1E44979D EQ PUSH2 0xB9 JUMPI DUP1 PUSH4 0x29B3C5BA EQ PUSH2 0x409 JUMPI DUP1 PUSH4 0x693AC4FB EQ PUSH2 0x516 JUMPI DUP1 PUSH4 0x69843940 EQ PUSH2 0x615 JUMPI DUP1 PUSH4 0x80759F1F EQ PUSH2 0x6A7 JUMPI DUP1 PUSH4 0x8C172FA2 EQ PUSH2 0x6C1 JUMPI JUMPDEST PUSH1 0x0 DUP1 REVERT JUMPDEST PUSH2 0x407 PUSH1 0x4 DUP1 CALLDATASIZE SUB PUSH1 0xE0 DUP2 LT ISZERO PUSH2 0xCF JUMPI PUSH1 0x0 DUP1 REVERT JUMPDEST DUP2 ADD SWAP1 PUSH1 0x20 DUP2 ADD DUP2 CALLDATALOAD PUSH1 0x1 PUSH1 0x20 SHL DUP2 GT ISZERO PUSH2 0xE9 JUMPI PUSH1 0x0 DUP1 REVERT JUMPDEST DUP3 ADD DUP4 PUSH1 0x20 DUP3 ADD GT ISZERO PUSH2 0xFB JUMPI PUSH1 0x0 DUP1 REVERT JUMPDEST DUP1 CALLDATALOAD SWAP1 PUSH1 0x20 ADD SWAP2 DUP5 PUSH1 0x1 DUP4 MUL DUP5 ADD GT PUSH1 0x1 PUSH1 0x20 SHL DUP4 GT OR ISZERO PUSH2 0x11C JUMPI PUSH1 0x0 DUP1 REVERT JUMPDEST SWAP2 SWAP1 DUP1 DUP1 PUSH1 0x1F ADD PUSH1 0x20 DUP1 SWAP2 DIV MUL PUSH1 0x20 ADD PUSH1 0x40 MLOAD SWAP1 DUP2 ADD PUSH1 0x40 MSTORE DUP1 SWAP4 SWAP3 SWAP2 SWAP1 DUP2 DUP2 MSTORE PUSH1 0x20 ADD DUP4 DUP4 DUP1 DUP3 DUP5 CALLDATACOPY PUSH1 0x0 SWAP3 ADD SWAP2 SWAP1 SWAP2 MSTORE POP SWAP3 SWAP6 SWAP5 SWAP4 PUSH1 0x20 DUP2 ADD SWAP4 POP CALLDATALOAD SWAP2 POP POP PUSH1 0x1 PUSH1 0x20 SHL DUP2 GT ISZERO PUSH2 0x16E JUMPI PUSH1 0x0 DUP1 REVERT JUMPDEST DUP3 ADD DUP4 PUSH1 0x20 DUP3 ADD GT ISZERO PUSH2 0x180 JUMPI PUSH1 0x0 DUP1 REVERT JUMPDEST DUP1 CALLDATALOAD SWAP1 PUSH1 0x20 ADD SWAP2 DUP5 PUSH1 0x1 DUP4 MUL DUP5 ADD GT PUSH1 0x1 PUSH1 0x20 SHL DUP4 GT OR ISZERO PUSH2 0x1A1 JUMPI PUSH1 0x0 DUP1 REVERT JUMPDEST SWAP2 SWAP1 DUP1 DUP1 PUSH1 0x1F ADD PUSH1 0x20 DUP1 SWAP2 DIV MUL PUSH1 0x20 ADD PUSH1 0x40 MLOAD SWAP1 DUP2 ADD PUSH1 0x40 MSTORE DUP1 SWAP4 SWAP3 SWAP2 SWAP1 DUP2 DUP2 MSTORE PUSH1 0x20 ADD DUP4 DUP4 DUP1 DUP3 DUP5 CALLDATACOPY PUSH1 0x0 SWAP3 ADD SWAP2 SWAP1 SWAP2 MSTORE POP SWAP3 SWAP6 SWAP5 SWAP4 PUSH1 0x20 DUP2 ADD SWAP4 POP CALLDATALOAD SWAP2 POP POP PUSH1 0x1 PUSH1 0x20 SHL DUP2 GT ISZERO PUSH2 0x1F3 JUMPI PUSH1 0x0 DUP1 REVERT JUMPDEST DUP3 ADD DUP4 PUSH1 0x20 DUP3 ADD GT ISZERO PUSH2 0x205 JUMPI PUSH1 0x0 DUP1 REVERT JUMPDEST DUP1 CALLDATALOAD SWAP1 PUSH1 0x20 ADD SWAP2 DUP5 PUSH1 0x1 DUP4 MUL DUP5 ADD GT PUSH1 0x1 PUSH1 0x20 SHL DUP4 GT OR ISZERO PUSH2 0x226 JUMPI PUSH1 0x0 DUP1 REVERT JUMPDEST SWAP2 SWAP1 DUP1 DUP1 PUSH1 0x1F ADD PUSH1 0x20 DUP1 SWAP2 DIV MUL PUSH1 0x20 ADD PUSH1 0x40 MLOAD SWAP1 DUP2 ADD PUSH1 0x40 MSTORE DUP1 SWAP4 SWAP3 SWAP2 SWAP1 DUP2 DUP2 MSTORE PUSH1 0x20 ADD DUP4 DUP4 DUP1 DUP3 DUP5 CALLDATACOPY PUSH1 0x0 SWAP3 ADD SWAP2 SWAP1 SWAP2 MSTORE POP SWAP3 SWAP6 SWAP5 SWAP4 PUSH1 0x20 DUP2 ADD SWAP4 POP CALLDATALOAD SWAP2 POP POP PUSH1 0x1 PUSH1 0x20 SHL DUP2 GT ISZERO PUSH2 0x278 JUMPI PUSH1 0x0 DUP1 REVERT JUMPDEST DUP3 ADD DUP4 PUSH1 0x20 DUP3 ADD GT ISZERO PUSH2 0x28A JUMPI PUSH1 0x0 DUP1 REVERT JUMPDEST DUP1 CALLDATALOAD SWAP1 PUSH1 0x20 ADD SWAP2 DUP5 PUSH1 0x1 DUP4 MUL DUP5 ADD GT PUSH1 0x1 PUSH1 0x20 SHL DUP4 GT OR ISZERO PUSH2 0x2AB JUMPI PUSH1 0x0 DUP1 REVERT JUMPDEST SWAP2 SWAP1 DUP1 DUP1 PUSH1 0x1F ADD PUSH1 0x20 DUP1 SWAP2 DIV MUL PUSH1 0x20 ADD PUSH1 0x40 MLOAD SWAP1 DUP2 ADD PUSH1 0x40 MSTORE DUP1 SWAP4 SWAP3 SWAP2 SWAP1 DUP2 DUP2 MSTORE PUSH1 0x20 ADD DUP4 DUP4 DUP1 DUP3 DUP5 CALLDATACOPY PUSH1 0x0 SWAP3 ADD SWAP2 SWAP1 SWAP2 MSTORE POP SWAP3 SWAP6 SWAP5 SWAP4 PUSH1 0x20 DUP2 ADD SWAP4 POP CALLDATALOAD SWAP2 POP POP PUSH1 0x1 PUSH1 0x20 SHL DUP2 GT ISZERO PUSH2 0x2FD JUMPI PUSH1 0x0 DUP1 REVERT JUMPDEST DUP3 ADD DUP4 PUSH1 0x20 DUP3 ADD GT ISZERO PUSH2 0x30F JUMPI PUSH1 0x0 DUP1 REVERT JUMPDEST DUP1 CALLDATALOAD SWAP1 PUSH1 0x20 ADD SWAP2 DUP5 PUSH1 0x1 DUP4 MUL DUP5 ADD GT PUSH1 0x1 PUSH1 0x20 SHL DUP4 GT OR ISZERO PUSH2 0x330 JUMPI PUSH1 0x0 DUP1 REVERT JUMPDEST SWAP2 SWAP1 DUP1 DUP1 PUSH1 0x1F ADD PUSH1 0x20 DUP1 SWAP2 DIV MUL PUSH1 0x20 ADD PUSH1 0x40 MLOAD SWAP1 DUP2 ADD PUSH1 0x40 MSTORE DUP1 SWAP4 SWAP3 SWAP2 SWAP1 DUP2 DUP2 MSTORE PUSH1 0x20 ADD DUP4 DUP4 DUP1 DUP3 DUP5 CALLDATACOPY PUSH1 0x0 SWAP3 ADD SWAP2 SWAP1 SWAP2 MSTORE POP SWAP3 SWAP6 PUSH1 0x1 PUSH1 0x1 PUSH1 0xA0 SHL SUB DUP6 CALLDATALOAD AND SWAP6 SWAP1 SWAP5 SWAP1 SWAP4 POP PUSH1 0x40 DUP2 ADD SWAP3 POP PUSH1 0x20 ADD CALLDATALOAD SWAP1 POP PUSH1 0x1 PUSH1 0x20 SHL DUP2 GT ISZERO PUSH2 0x393 JUMPI PUSH1 0x0 DUP1 REVERT JUMPDEST DUP3 ADD DUP4 PUSH1 0x20 DUP3 ADD GT ISZERO PUSH2 0x3A5 JUMPI PUSH1 0x0 DUP1 REVERT JUMPDEST DUP1 CALLDATALOAD SWAP1 PUSH1 0x20 ADD SWAP2 DUP5 PUSH1 0x1 DUP4 MUL DUP5 ADD GT PUSH1 0x1 PUSH1 0x20 SHL DUP4 GT OR ISZERO PUSH2 0x3C6 JUMPI PUSH1 0x0 DUP1 REVERT JUMPDEST SWAP2 SWAP1 DUP1 DUP1 PUSH1 0x1F ADD PUSH1 0x20 DUP1 SWAP2 DIV MUL PUSH1 0x20 ADD PUSH1 0x40 MLOAD SWAP1 DUP2 ADD PUSH1 0x40 MSTORE DUP1 SWAP4 SWAP3 SWAP2 SWAP1 DUP2 DUP2 MSTORE PUSH1 0x20 ADD DUP4 DUP4 DUP1 DUP3 DUP5 CALLDATACOPY PUSH1 0x0 SWAP3 ADD SWAP2 SWAP1 SWAP2 MSTORE POP SWAP3 SWAP6 POP PUSH2 0xF9E SWAP5 POP POP POP POP POP JUMP JUMPDEST STOP JUMPDEST PUSH2 0x4AD PUSH1 0x4 DUP1 CALLDATASIZE SUB PUSH1 0x20 DUP2 LT ISZERO PUSH2 0x41F JUMPI PUSH1 0x0 DUP1 REVERT JUMPDEST DUP2 ADD SWAP1 PUSH1 0x20 DUP2 ADD DUP2 CALLDATALOAD PUSH1 0x1 PUSH1 0x20 SHL DUP2 GT ISZERO PUSH2 0x439 JUMPI PUSH1 0x0 DUP1 REVERT JUMPDEST DUP3 ADD DUP4 PUSH1 0x20 DUP3 ADD GT ISZERO PUSH2 0x44B JUMPI PUSH1 0x0 DUP1 REVERT JUMPDEST DUP1 CALLDATALOAD SWAP1 PUSH1 0x20 ADD SWAP2 DUP5 PUSH1 0x1 DUP4 MUL DUP5 ADD GT PUSH1 0x1 PUSH1 0x20 SHL DUP4 GT OR ISZERO PUSH2 0x46C JUMPI PUSH1 0x0 DUP1 REVERT JUMPDEST SWAP2 SWAP1 DUP1 DUP1 PUSH1 0x1F ADD PUSH1 0x20 DUP1 SWAP2 DIV MUL PUSH1 0x20 ADD PUSH1 0x40 MLOAD SWAP1 DUP2 ADD PUSH1 0x40 MSTORE DUP1 SWAP4 SWAP3 SWAP2 SWAP1 DUP2 DUP2 MSTORE PUSH1 0x20 ADD DUP4 DUP4 DUP1 DUP3 DUP5 CALLDATACOPY PUSH1 0x0 SWAP3 ADD SWAP2 SWAP1 SWAP2 MSTORE POP SWAP3 SWAP6 POP PUSH2 0x14AE SWAP5 POP POP POP POP POP JUMP JUMPDEST PUSH1 0x40 MLOAD DUP1 DUP6 DUP2 MSTORE PUSH1 0x20 ADD DUP5 DUP2 MSTORE PUSH1 0x20 ADD DUP4 DUP2 MSTORE PUSH1 0x20 ADD DUP1 PUSH1 0x20 ADD DUP3 DUP2 SUB DUP3 MSTORE DUP4 DUP2 DUP2 MLOAD DUP2 MSTORE PUSH1 0x20 ADD SWAP2 POP DUP1 MLOAD SWAP1 PUSH1 0x20 ADD SWAP1 PUSH1 0x20 MUL DUP1 DUP4 DUP4 PUSH1 0x0 JUMPDEST DUP4 DUP2 LT ISZERO PUSH2 0x4FF JUMPI DUP2 DUP2 ADD MLOAD DUP4 DUP3 ADD MSTORE PUSH1 0x20 ADD PUSH2 0x4E7 JUMP JUMPDEST POP POP POP POP SWAP1 POP ADD SWAP6 POP POP POP POP POP POP PUSH1 0x40 MLOAD DUP1 SWAP2 SUB SWAP1 RETURN JUMPDEST PUSH2 0x5BA PUSH1 0x4 DUP1 CALLDATASIZE SUB PUSH1 0x20 DUP2 LT ISZERO PUSH2 0x52C JUMPI PUSH1 0x0 DUP1 REVERT JUMPDEST DUP2 ADD SWAP1 PUSH1 0x20 DUP2 ADD DUP2 CALLDATALOAD PUSH1 0x1 PUSH1 0x20 SHL DUP2 GT ISZERO PUSH2 0x546 JUMPI PUSH1 0x0 DUP1 REVERT JUMPDEST DUP3 ADD DUP4 PUSH1 0x20 DUP3 ADD GT ISZERO PUSH2 0x558 JUMPI PUSH1 0x0 DUP1 REVERT JUMPDEST DUP1 CALLDATALOAD SWAP1 PUSH1 0x20 ADD SWAP2 DUP5 PUSH1 0x1 DUP4 MUL DUP5 ADD GT PUSH1 0x1 PUSH1 0x20 SHL DUP4 GT OR ISZERO PUSH2 0x579 JUMPI PUSH1 0x0 DUP1 REVERT JUMPDEST SWAP2 SWAP1 DUP1 DUP1 PUSH1 0x1F ADD PUSH1 0x20 DUP1 SWAP2 DIV MUL PUSH1 0x20 ADD PUSH1 0x40 MLOAD SWAP1 DUP2 ADD PUSH1 0x40 MSTORE DUP1 SWAP4 SWAP3 SWAP2 SWAP1 DUP2 DUP2 MSTORE PUSH1 0x20 ADD DUP4 DUP4 DUP1 DUP3 DUP5 CALLDATACOPY PUSH1 0x0 SWAP3 ADD SWAP2 SWAP1 SWAP2 MSTORE POP SWAP3 SWAP6 POP PUSH2 0x14D3 SWAP5 POP POP POP POP POP JUMP JUMPDEST PUSH1 0x40 MLOAD DUP1 DUP4 DUP2 MSTORE PUSH1 0x20 ADD DUP1 PUSH1 0x20 ADD DUP3 DUP2 SUB DUP3 MSTORE DUP4 DUP2 DUP2 MLOAD DUP2 MSTORE PUSH1 0x20 ADD SWAP2 POP DUP1 MLOAD SWAP1 PUSH1 0x20 ADD SWAP1 PUSH1 0x20 MUL DUP1 DUP4 DUP4 PUSH1 0x0 JUMPDEST DUP4 DUP2 LT ISZERO PUSH2 0x600 JUMPI DUP2 DUP2 ADD MLOAD DUP4 DUP3 ADD MSTORE PUSH1 0x20 ADD PUSH2 0x5E8 JUMP JUMPDEST POP POP POP POP SWAP1 POP ADD SWAP4 POP POP POP POP PUSH1 0x40 MLOAD DUP1 SWAP2 SUB SWAP1 RETURN JUMPDEST PUSH2 0x632 PUSH1 0x4 DUP1 CALLDATASIZE SUB PUSH1 0x20 DUP2 LT ISZERO PUSH2 0x62B JUMPI PUSH1 0x0 DUP1 REVERT JUMPDEST POP CALLDATALOAD PUSH2 0x14F0 JUMP JUMPDEST PUSH1 0x40 DUP1 MLOAD PUSH1 0x20 DUP1 DUP3 MSTORE DUP4 MLOAD DUP2 DUP4 ADD MSTORE DUP4 MLOAD SWAP2 SWAP3 DUP4 SWAP3 SWAP1 DUP4 ADD SWAP2 DUP6 ADD SWAP1 DUP1 DUP4 DUP4 PUSH1 0x0 JUMPDEST DUP4 DUP2 LT ISZERO PUSH2 0x66C JUMPI DUP2 DUP2 ADD MLOAD DUP4 DUP3 ADD MSTORE PUSH1 0x20 ADD PUSH2 0x654 JUMP JUMPDEST POP POP POP POP SWAP1 POP SWAP1 DUP2 ADD SWAP1 PUSH1 0x1F AND DUP1 ISZERO PUSH2 0x699 JUMPI DUP1 DUP3 SUB DUP1 MLOAD PUSH1 0x1 DUP4 PUSH1 0x20 SUB PUSH2 0x100 EXP SUB NOT AND DUP2 MSTORE PUSH1 0x20 ADD SWAP2 POP JUMPDEST POP SWAP3 POP POP POP PUSH1 0x40 MLOAD DUP1 SWAP2 SUB SWAP1 RETURN JUMPDEST PUSH2 0x6AF PUSH2 0x1590 JUMP JUMPDEST PUSH1 0x40 DUP1 MLOAD SWAP2 DUP3 MSTORE MLOAD SWAP1 DUP2 SWAP1 SUB PUSH1 0x20 ADD SWAP1 RETURN JUMPDEST PUSH2 0x6DE PUSH1 0x4 DUP1 CALLDATASIZE SUB PUSH1 0x20 DUP2 LT ISZERO PUSH2 0x6D7 JUMPI PUSH1 0x0 DUP1 REVERT JUMPDEST POP CALLDATALOAD PUSH2 0x15A2 JUMP JUMPDEST PUSH1 0x40 MLOAD DUP1 DUP1 PUSH1 0x20 ADD DUP1 PUSH1 0x20 ADD DUP1 PUSH1 0x20 ADD DUP1 PUSH1 0x20 ADD DUP1 PUSH1 0x20 ADD DUP9 PUSH1 0x1 PUSH1 0x1 PUSH1 0xA0 SHL SUB AND PUSH1 0x1 PUSH1 0x1 PUSH1 0xA0 SHL SUB AND DUP2 MSTORE PUSH1 0x20 ADD DUP1 PUSH1 0x20 ADD DUP8 DUP2 SUB DUP8 MSTORE DUP15 DUP2 DUP2 MLOAD DUP2 MSTORE PUSH1 0x20 ADD SWAP2 POP DUP1 MLOAD SWAP1 PUSH1 0x20 ADD SWAP1 DUP1 DUP4 DUP4 PUSH1 0x0 JUMPDEST DUP4 DUP2 LT ISZERO PUSH2 0x747 JUMPI DUP2 DUP2 ADD MLOAD DUP4 DUP3 ADD MSTORE PUSH1 0x20 ADD PUSH2 0x72F JUMP JUMPDEST POP POP POP POP SWAP1 POP SWAP1 DUP2 ADD SWAP1 PUSH1 0x1F AND DUP1 ISZERO PUSH2 0x774 JUMPI DUP1 DUP3 SUB DUP1 MLOAD PUSH1 0x1 DUP4 PUSH1 0x20 SUB PUSH2 0x100 EXP SUB NOT AND DUP2 MSTORE PUSH1 0x20 ADD SWAP2 POP JUMPDEST POP DUP8 DUP2 SUB DUP7 MSTORE DUP14 MLOAD DUP2 MSTORE DUP14 MLOAD PUSH1 0x20 SWAP2 DUP3 ADD SWAP2 DUP16 ADD SWAP1 DUP1 DUP4 DUP4 PUSH1 0x0 JUMPDEST DUP4 DUP2 LT ISZERO PUSH2 0x7A7 JUMPI DUP2 DUP2 ADD MLOAD DUP4 DUP3 ADD MSTORE PUSH1 0x20 ADD PUSH2 0x78F JUMP JUMPDEST POP POP POP POP SWAP1 POP SWAP1 DUP2 ADD SWAP1 PUSH1 0x1F AND DUP1 ISZERO PUSH2 0x7D4 JUMPI DUP1 DUP3 SUB DUP1 MLOAD PUSH1 0x1 DUP4 PUSH1 0x20 SUB PUSH2 0x100 EXP SUB NOT AND DUP2 MSTORE PUSH1 0x20 ADD SWAP2 POP JUMPDEST POP DUP8 DUP2 SUB DUP6 MSTORE DUP13 MLOAD DUP2 MSTORE DUP13 MLOAD PUSH1 0x20 SWAP2 DUP3 ADD SWAP2 DUP15 ADD SWAP1 DUP1 DUP4 DUP4 PUSH1 0x0 JUMPDEST DUP4 DUP2 LT ISZERO PUSH2 0x807 JUMPI DUP2 DUP2 ADD MLOAD DUP4 DUP3 ADD MSTORE PUSH1 0x20 ADD PUSH2 0x7EF JUMP JUMPDEST POP POP POP POP SWAP1 POP SWAP1 DUP2 ADD SWAP1 PUSH1 0x1F AND DUP1 ISZERO PUSH2 0x834 JUMPI DUP1 DUP3 SUB DUP1 MLOAD PUSH1 0x1 DUP4 PUSH1 0x20 SUB PUSH2 0x100 EXP SUB NOT AND DUP2 MSTORE PUSH1 0x20 ADD SWAP2 POP JUMPDEST POP DUP8 DUP2 SUB DUP5 MSTORE DUP12 MLOAD DUP2 MSTORE DUP12 MLOAD PUSH1 0x20 SWAP2 DUP3 ADD SWAP2 DUP14 ADD SWAP1 DUP1 DUP4 DUP4 PUSH1 0x0 JUMPDEST DUP4 DUP2 LT ISZERO PUSH2 0x867 JUMPI DUP2 DUP2 ADD MLOAD DUP4 DUP3 ADD MSTORE PUSH1 0x20 ADD PUSH2 0x84F JUMP JUMPDEST POP POP POP POP SWAP1 POP SWAP1 DUP2 ADD SWAP1 PUSH1 0x1F AND DUP1 ISZERO PUSH2 0x894 JUMPI DUP1 DUP3 SUB DUP1 MLOAD PUSH1 0x1 DUP4 PUSH1 0x20 SUB PUSH2 0x100 EXP SUB NOT AND DUP2 MSTORE PUSH1 0x20 ADD SWAP2 POP JUMPDEST POP DUP8 DUP2 SUB DUP4 MSTORE DUP11 MLOAD DUP2 MSTORE DUP11 MLOAD PUSH1 0x20 SWAP2 DUP3 ADD SWAP2 DUP13 ADD SWAP1 DUP1 DUP4 DUP4 PUSH1 0x0 JUMPDEST DUP4 DUP2 LT ISZERO PUSH2 0x8C7 JUMPI DUP2 DUP2 ADD MLOAD DUP4 DUP3 ADD MSTORE PUSH1 0x20 ADD PUSH2 0x8AF JUMP JUMPDEST POP POP POP POP SWAP1 POP SWAP1 DUP2 ADD SWAP1 PUSH1 0x1F AND DUP1 ISZERO PUSH2 0x8F4 JUMPI DUP1 DUP3 SUB DUP1 MLOAD PUSH1 0x1 DUP4 PUSH1 0x20 SUB PUSH2 0x100 EXP SUB NOT AND DUP2 MSTORE PUSH1 0x20 ADD SWAP2 POP JUMPDEST POP DUP8 DUP2 SUB DUP3 MSTORE DUP9 MLOAD DUP2 MSTORE DUP9 MLOAD PUSH1 0x20 SWAP2 DUP3 ADD SWAP2 DUP11 ADD SWAP1 DUP1 DUP4 DUP4 PUSH1 0x0 JUMPDEST DUP4 DUP2 LT ISZERO PUSH2 0x927 JUMPI DUP2 DUP2 ADD MLOAD DUP4 DUP3 ADD MSTORE PUSH1 0x20 ADD PUSH2 0x90F JUMP JUMPDEST POP POP POP POP SWAP1 POP SWAP1 DUP2 ADD SWAP1 PUSH1 0x1F AND DUP1 ISZERO PUSH2 0x954 JUMPI DUP1 DUP3 SUB DUP1 MLOAD PUSH1 0x1 DUP4 PUSH1 0x20 SUB PUSH2 0x100 EXP SUB NOT AND DUP2 MSTORE PUSH1 0x20 ADD SWAP2 POP JUMPDEST POP SWAP14 POP POP POP POP POP POP POP POP POP POP POP POP POP POP PUSH1 0x40 MLOAD DUP1 SWAP2 SUB SWAP1 RETURN JUMPDEST PUSH2 0x407 PUSH1 0x4 DUP1 CALLDATASIZE SUB PUSH1 0xC0 DUP2 LT ISZERO PUSH2 0x983 JUMPI PUSH1 0x0 DUP1 REVERT JUMPDEST DUP2 CALLDATALOAD SWAP2 SWAP1 DUP2 ADD SWAP1 PUSH1 0x40 DUP2 ADD PUSH1 0x20 DUP3 ADD CALLDATALOAD PUSH1 0x1 PUSH1 0x20 SHL DUP2 GT ISZERO PUSH2 0x9A4 JUMPI PUSH1 0x0 DUP1 REVERT JUMPDEST DUP3 ADD DUP4 PUSH1 0x20 DUP3 ADD GT ISZERO PUSH2 0x9B6 JUMPI PUSH1 0x0 DUP1 REVERT JUMPDEST DUP1 CALLDATALOAD SWAP1 PUSH1 0x20 ADD SWAP2 DUP5 PUSH1 0x1 DUP4 MUL DUP5 ADD GT PUSH1 0x1 PUSH1 0x20 SHL DUP4 GT OR ISZERO PUSH2 0x9D7 JUMPI PUSH1 0x0 DUP1 REVERT JUMPDEST SWAP2 SWAP1 DUP1 DUP1 PUSH1 0x1F ADD PUSH1 0x20 DUP1 SWAP2 DIV MUL PUSH1 0x20 ADD PUSH1 0x40 MLOAD SWAP1 DUP2 ADD PUSH1 0x40 MSTORE DUP1 SWAP4 SWAP3 SWAP2 SWAP1 DUP2 DUP2 MSTORE PUSH1 0x20 ADD DUP4 DUP4 DUP1 DUP3 DUP5 CALLDATACOPY PUSH1 0x0 SWAP3 ADD SWAP2 SWAP1 SWAP2 MSTORE POP SWAP3 SWAP6 DUP5 CALLDATALOAD SWAP6 PUSH1 0x20 DUP7 ADD CALLDATALOAD SWAP6 PUSH1 0x40 DUP2 ADD CALLDATALOAD SWAP6 POP SWAP2 SWAP4 POP SWAP2 POP PUSH1 0x80 DUP2 ADD SWAP1 PUSH1 0x60 ADD CALLDATALOAD PUSH1 0x1 PUSH1 0x20 SHL DUP2 GT ISZERO PUSH2 0xA3B JUMPI PUSH1 0x0 DUP1 REVERT JUMPDEST DUP3 ADD DUP4 PUSH1 0x20 DUP3 ADD GT ISZERO PUSH2 0xA4D JUMPI PUSH1 0x0 DUP1 REVERT JUMPDEST DUP1 CALLDATALOAD SWAP1 PUSH1 0x20 ADD SWAP2 DUP5 PUSH1 0x20 DUP4 MUL DUP5 ADD GT PUSH1 0x1 PUSH1 0x20 SHL DUP4 GT OR ISZERO PUSH2 0xA6E JUMPI PUSH1 0x0 DUP1 REVERT JUMPDEST SWAP2 SWAP1 DUP1 DUP1 PUSH1 0x20 MUL PUSH1 0x20 ADD PUSH1 0x40 MLOAD SWAP1 DUP2 ADD PUSH1 0x40 MSTORE DUP1 SWAP4 SWAP3 SWAP2 SWAP1 DUP2 DUP2 MSTORE PUSH1 0x20 ADD DUP4 DUP4 PUSH1 0x20 MUL DUP1 DUP3 DUP5 CALLDATACOPY PUSH1 0x0 SWAP3 ADD SWAP2 SWAP1 SWAP2 MSTORE POP SWAP3 SWAP6 POP PUSH2 0x1957 SWAP5 POP POP POP POP POP JUMP JUMPDEST PUSH2 0x407 PUSH1 0x4 DUP1 CALLDATASIZE SUB PUSH1 0xA0 DUP2 LT ISZERO PUSH2 0xAC2 JUMPI PUSH1 0x0 DUP1 REVERT JUMPDEST DUP2 ADD SWAP1 PUSH1 0x20 DUP2 ADD DUP2 CALLDATALOAD PUSH1 0x1 PUSH1 0x20 SHL DUP2 GT ISZERO PUSH2 0xADC JUMPI PUSH1 0x0 DUP1 REVERT JUMPDEST DUP3 ADD DUP4 PUSH1 0x20 DUP3 ADD GT ISZERO PUSH2 0xAEE JUMPI PUSH1 0x0 DUP1 REVERT JUMPDEST DUP1 CALLDATALOAD SWAP1 PUSH1 0x20 ADD SWAP2 DUP5 PUSH1 0x1 DUP4 MUL DUP5 ADD GT PUSH1 0x1 PUSH1 0x20 SHL DUP4 GT OR ISZERO PUSH2 0xB0F JUMPI PUSH1 0x0 DUP1 REVERT JUMPDEST SWAP2 SWAP1 DUP1 DUP1 PUSH1 0x1F ADD PUSH1 0x20 DUP1 SWAP2 DIV MUL PUSH1 0x20 ADD PUSH1 0x40 MLOAD SWAP1 DUP2 ADD PUSH1 0x40 MSTORE DUP1 SWAP4 SWAP3 SWAP2 SWAP1 DUP2 DUP2 MSTORE PUSH1 0x20 ADD DUP4 DUP4 DUP1 DUP3 DUP5 CALLDATACOPY PUSH1 0x0 SWAP3 ADD SWAP2 SWAP1 SWAP2 MSTORE POP SWAP3 SWAP6 DUP5 CALLDATALOAD SWAP6 PUSH1 0x20 DUP7 ADD CALLDATALOAD SWAP6 PUSH1 0x40 DUP2 ADD CALLDATALOAD SWAP6 POP SWAP2 SWAP4 POP SWAP2 POP PUSH1 0x80 DUP2 ADD SWAP1 PUSH1 0x60 ADD CALLDATALOAD PUSH1 0x1 PUSH1 0x20 SHL DUP2 GT ISZERO PUSH2 0xB73 JUMPI PUSH1 0x0 DUP1 REVERT JUMPDEST DUP3 ADD DUP4 PUSH1 0x20 DUP3 ADD GT ISZERO PUSH2 0xB85 JUMPI PUSH1 0x0 DUP1 REVERT JUMPDEST DUP1 CALLDATALOAD SWAP1 PUSH1 0x20 ADD SWAP2 DUP5 PUSH1 0x20 DUP4 MUL DUP5 ADD GT PUSH1 0x1 PUSH1 0x20 SHL DUP4 GT OR ISZERO PUSH2 0xBA6 JUMPI PUSH1 0x0 DUP1 REVERT JUMPDEST SWAP2 SWAP1 DUP1 DUP1 PUSH1 0x20 MUL PUSH1 0x20 ADD PUSH1 0x40 MLOAD SWAP1 DUP2 ADD PUSH1 0x40 MSTORE DUP1 SWAP4 SWAP3 SWAP2 SWAP1 DUP2 DUP2 MSTORE PUSH1 0x20 ADD DUP4 DUP4 PUSH1 0x20 MUL DUP1 DUP3 DUP5 CALLDATACOPY PUSH1 0x0 SWAP3 ADD SWAP2 SWAP1 SWAP2 MSTORE POP SWAP3 SWAP6 POP PUSH2 0x1A8A SWAP5 POP POP POP POP POP JUMP JUMPDEST PUSH2 0xC88 PUSH1 0x4 DUP1 CALLDATASIZE SUB PUSH1 0x20 DUP2 LT ISZERO PUSH2 0xBFA JUMPI PUSH1 0x0 DUP1 REVERT JUMPDEST DUP2 ADD SWAP1 PUSH1 0x20 DUP2 ADD DUP2 CALLDATALOAD PUSH1 0x1 PUSH1 0x20 SHL DUP2 GT ISZERO PUSH2 0xC14 JUMPI PUSH1 0x0 DUP1 REVERT JUMPDEST DUP3 ADD DUP4 PUSH1 0x20 DUP3 ADD GT ISZERO PUSH2 0xC26 JUMPI PUSH1 0x0 DUP1 REVERT JUMPDEST DUP1 CALLDATALOAD SWAP1 PUSH1 0x20 ADD SWAP2 DUP5 PUSH1 0x1 DUP4 MUL DUP5 ADD GT PUSH1 0x1 PUSH1 0x20 SHL DUP4 GT OR ISZERO PUSH2 0xC47 JUMPI PUSH1 0x0 DUP1 REVERT JUMPDEST SWAP2 SWAP1 DUP1 DUP1 PUSH1 0x1F ADD PUSH1 0x20 DUP1 SWAP2 DIV MUL PUSH1 0x20 ADD PUSH1 0x40 MLOAD SWAP1 DUP2 ADD PUSH1 0x40 MSTORE DUP1 SWAP4 SWAP3 SWAP2 SWAP1 DUP2 DUP2 MSTORE PUSH1 0x20 ADD DUP4 DUP4 DUP1 DUP3 DUP5 CALLDATACOPY PUSH1 0x0 SWAP3 ADD SWAP2 SWAP1 SWAP2 MSTORE POP SWAP3 SWAP6 POP PUSH2 0x1AA6 SWAP5 POP POP POP POP POP JUMP JUMPDEST PUSH1 0x40 DUP1 MLOAD SWAP2 ISZERO ISZERO DUP3 MSTORE MLOAD SWAP1 DUP2 SWAP1 SUB PUSH1 0x20 ADD SWAP1 RETURN JUMPDEST PUSH2 0x632 PUSH1 0x4 DUP1 CALLDATASIZE SUB PUSH1 0x20 DUP2 LT ISZERO PUSH2 0xCB2 JUMPI PUSH1 0x0 DUP1 REVERT JUMPDEST DUP2 ADD SWAP1 PUSH1 0x20 DUP2 ADD DUP2 CALLDATALOAD PUSH1 0x1 PUSH1 0x20 SHL DUP2 GT ISZERO PUSH2 0xCCC JUMPI PUSH1 0x0 DUP1 REVERT JUMPDEST DUP3 ADD DUP4 PUSH1 0x20 DUP3 ADD GT ISZERO PUSH2 0xCDE JUMPI PUSH1 0x0 DUP1 REVERT JUMPDEST DUP1 CALLDATALOAD SWAP1 PUSH1 0x20 ADD SWAP2 DUP5 PUSH1 0x1 DUP4 MUL DUP5 ADD GT PUSH1 0x1 PUSH1 0x20 SHL DUP4 GT OR ISZERO PUSH2 0xCFF JUMPI PUSH1 0x0 DUP1 REVERT JUMPDEST SWAP2 SWAP1 DUP1 DUP1 PUSH1 0x1F ADD PUSH1 0x20 DUP1 SWAP2 DIV MUL PUSH1 0x20 ADD PUSH1 0x40 MLOAD SWAP1 DUP2 ADD PUSH1 0x40 MSTORE DUP1 SWAP4 SWAP3 SWAP2 SWAP1 DUP2 DUP2 MSTORE PUSH1 0x20 ADD DUP4 DUP4 DUP1 DUP3 DUP5 CALLDATACOPY PUSH1 0x0 SWAP3 ADD SWAP2 SWAP1 SWAP2 MSTORE POP SWAP3 SWAP6 POP PUSH2 0x1ABE SWAP5 POP POP POP POP POP JUMP JUMPDEST PUSH2 0x632 PUSH1 0x4 DUP1 CALLDATASIZE SUB PUSH1 0x20 DUP2 LT ISZERO PUSH2 0xD56 JUMPI PUSH1 0x0 DUP1 REVERT JUMPDEST DUP2 ADD SWAP1 PUSH1 0x20 DUP2 ADD DUP2 CALLDATALOAD PUSH1 0x1 PUSH1 0x20 SHL DUP2 GT ISZERO PUSH2 0xD70 JUMPI PUSH1 0x0 DUP1 REVERT JUMPDEST DUP3 ADD DUP4 PUSH1 0x20 DUP3 ADD GT ISZERO PUSH2 0xD82 JUMPI PUSH1 0x0 DUP1 REVERT JUMPDEST DUP1 CALLDATALOAD SWAP1 PUSH1 0x20 ADD SWAP2 DUP5 PUSH1 0x1 DUP4 MUL DUP5 ADD GT PUSH1 0x1 PUSH1 0x20 SHL DUP4 GT OR ISZERO PUSH2 0xDA3 JUMPI PUSH1 0x0 DUP1 REVERT JUMPDEST SWAP2 SWAP1 DUP1 DUP1 PUSH1 0x1F ADD PUSH1 0x20 DUP1 SWAP2 DIV MUL PUSH1 0x20 ADD PUSH1 0x40 MLOAD SWAP1 DUP2 ADD PUSH1 0x40 MSTORE DUP1 SWAP4 SWAP3 SWAP2 SWAP1 DUP2 DUP2 MSTORE PUSH1 0x20 ADD DUP4 DUP4 DUP1 DUP3 DUP5 CALLDATACOPY PUSH1 0x0 SWAP3 ADD SWAP2 SWAP1 SWAP2 MSTORE POP SWAP3 SWAP6 POP PUSH2 0x1AD1 SWAP5 POP POP POP POP POP JUMP JUMPDEST PUSH2 0x407 PUSH1 0x4 DUP1 CALLDATASIZE SUB PUSH1 0xA0 DUP2 LT ISZERO PUSH2 0xDFA JUMPI PUSH1 0x0 DUP1 REVERT JUMPDEST DUP2 CALLDATALOAD SWAP2 SWAP1 DUP2 ADD SWAP1 PUSH1 0x40 DUP2 ADD PUSH1 0x20 DUP3 ADD CALLDATALOAD PUSH1 0x1 PUSH1 0x20 SHL DUP2 GT ISZERO PUSH2 0xE1B JUMPI PUSH1 0x0 DUP1 REVERT JUMPDEST DUP3 ADD DUP4 PUSH1 0x20 DUP3 ADD GT ISZERO PUSH2 0xE2D JUMPI PUSH1 0x0 DUP1 REVERT JUMPDEST DUP1 CALLDATALOAD SWAP1 PUSH1 0x20 ADD SWAP2 DUP5 PUSH1 0x1 DUP4 MUL DUP5 ADD GT PUSH1 0x1 PUSH1 0x20 SHL DUP4 GT OR ISZERO PUSH2 0xE4E JUMPI PUSH1 0x0 DUP1 REVERT JUMPDEST SWAP2 SWAP1 DUP1 DUP1 PUSH1 0x1F ADD PUSH1 0x20 DUP1 SWAP2 DIV MUL PUSH1 0x20 ADD PUSH1 0x40 MLOAD SWAP1 DUP2 ADD PUSH1 0x40 MSTORE DUP1 SWAP4 SWAP3 SWAP2 SWAP1 DUP2 DUP2 MSTORE PUSH1 0x20 ADD DUP4 DUP4 DUP1 DUP3 DUP5 CALLDATACOPY PUSH1 0x0 SWAP3 ADD SWAP2 SWAP1 SWAP2 MSTORE POP SWAP3 SWAP6 SWAP5 SWAP4 PUSH1 0x20 DUP2 ADD SWAP4 POP CALLDATALOAD SWAP2 POP POP PUSH1 0x1 PUSH1 0x20 SHL DUP2 GT ISZERO PUSH2 0xEA0 JUMPI PUSH1 0x0 DUP1 REVERT JUMPDEST DUP3 ADD DUP4 PUSH1 0x20 DUP3 ADD GT ISZERO PUSH2 0xEB2 JUMPI PUSH1 0x0 DUP1 REVERT JUMPDEST DUP1 CALLDATALOAD SWAP1 PUSH1 0x20 ADD SWAP2 DUP5 PUSH1 0x1 DUP4 MUL DUP5 ADD GT PUSH1 0x1 PUSH1 0x20 SHL DUP4 GT OR ISZERO PUSH2 0xED3 JUMPI PUSH1 0x0 DUP1 REVERT JUMPDEST SWAP2 SWAP1 DUP1 DUP1 PUSH1 0x1F ADD PUSH1 0x20 DUP1 SWAP2 DIV MUL PUSH1 0x20 ADD PUSH1 0x40 MLOAD SWAP1 DUP2 ADD PUSH1 0x40 MSTORE DUP1 SWAP4 SWAP3 SWAP2 SWAP1 DUP2 DUP2 MSTORE PUSH1 0x20 ADD DUP4 DUP4 DUP1 DUP3 DUP5 CALLDATACOPY PUSH1 0x0 SWAP3 ADD SWAP2 SWAP1 SWAP2 MSTORE POP SWAP3 SWAP6 DUP5 CALLDATALOAD SWAP6 SWAP1 SWAP5 SWAP1 SWAP4 POP PUSH1 0x40 DUP2 ADD SWAP3 POP PUSH1 0x20 ADD CALLDATALOAD SWAP1 POP PUSH1 0x1 PUSH1 0x20 SHL DUP2 GT ISZERO PUSH2 0xF2D JUMPI PUSH1 0x0 DUP1 REVERT JUMPDEST DUP3 ADD DUP4 PUSH1 0x20 DUP3 ADD GT ISZERO PUSH2 0xF3F JUMPI PUSH1 0x0 DUP1 REVERT JUMPDEST DUP1 CALLDATALOAD SWAP1 PUSH1 0x20 ADD SWAP2 DUP5 PUSH1 0x20 DUP4 MUL DUP5 ADD GT PUSH1 0x1 PUSH1 0x20 SHL DUP4 GT OR ISZERO PUSH2 0xF60 JUMPI PUSH1 0x0 DUP1 REVERT JUMPDEST SWAP2 SWAP1 DUP1 DUP1 PUSH1 0x20 MUL PUSH1 0x20 ADD PUSH1 0x40 MLOAD SWAP1 DUP2 ADD PUSH1 0x40 MSTORE DUP1 SWAP4 SWAP3 SWAP2 SWAP1 DUP2 DUP2 MSTORE PUSH1 0x20 ADD DUP4 DUP4 PUSH1 0x20 MUL DUP1 DUP3 DUP5 CALLDATACOPY PUSH1 0x0 SWAP3 ADD SWAP2 SWAP1 SWAP2 MSTORE POP SWAP3 SWAP6 POP PUSH2 0x1AE4 SWAP5 POP POP POP POP POP JUMP JUMPDEST PUSH1 0x0 DUP8 DUP8 DUP8 DUP8 DUP8 PUSH1 0x40 MLOAD PUSH1 0x20 ADD DUP1 DUP7 DUP1 MLOAD SWAP1 PUSH1 0x20 ADD SWAP1 DUP1 DUP4 DUP4 JUMPDEST PUSH1 0x20 DUP4 LT PUSH2 0xFD7 JUMPI DUP1 MLOAD DUP3 MSTORE PUSH1 0x1F NOT SWAP1 SWAP3 ADD SWAP2 PUSH1 0x20 SWAP2 DUP3 ADD SWAP2 ADD PUSH2 0xFB8 JUMP JUMPDEST MLOAD DUP2 MLOAD PUSH1 0x20 SWAP4 DUP5 SUB PUSH2 0x100 EXP PUSH1 0x0 NOT ADD DUP1 NOT SWAP1 SWAP3 AND SWAP2 AND OR SWAP1 MSTORE DUP9 MLOAD SWAP2 SWAP1 SWAP4 ADD SWAP3 DUP9 ADD SWAP2 POP DUP1 DUP4 DUP4 JUMPDEST PUSH1 0x20 DUP4 LT PUSH2 0x101F JUMPI DUP1 MLOAD DUP3 MSTORE PUSH1 0x1F NOT SWAP1 SWAP3 ADD SWAP2 PUSH1 0x20 SWAP2 DUP3 ADD SWAP2 ADD PUSH2 0x1000 JUMP JUMPDEST MLOAD DUP2 MLOAD PUSH1 0x20 SWAP4 DUP5 SUB PUSH2 0x100 EXP PUSH1 0x0 NOT ADD DUP1 NOT SWAP1 SWAP3 AND SWAP2 AND OR SWAP1 MSTORE DUP8 MLOAD SWAP2 SWAP1 SWAP4 ADD SWAP3 DUP8 ADD SWAP2 POP DUP1 DUP4 DUP4 JUMPDEST PUSH1 0x20 DUP4 LT PUSH2 0x1067 JUMPI DUP1 MLOAD DUP3 MSTORE PUSH1 0x1F NOT SWAP1 SWAP3 ADD SWAP2 PUSH1 0x20 SWAP2 DUP3 ADD SWAP2 ADD PUSH2 0x1048 JUMP JUMPDEST MLOAD DUP2 MLOAD PUSH1 0x20 SWAP4 DUP5 SUB PUSH2 0x100 EXP PUSH1 0x0 NOT ADD DUP1 NOT SWAP1 SWAP3 AND SWAP2 AND OR SWAP1 MSTORE DUP7 MLOAD SWAP2 SWAP1 SWAP4 ADD SWAP3 DUP7 ADD SWAP2 POP DUP1 DUP4 DUP4 JUMPDEST PUSH1 0x20 DUP4 LT PUSH2 0x10AF JUMPI DUP1 MLOAD DUP3 MSTORE PUSH1 0x1F NOT SWAP1 SWAP3 ADD SWAP2 PUSH1 0x20 SWAP2 DUP3 ADD SWAP2 ADD PUSH2 0x1090 JUMP JUMPDEST MLOAD DUP2 MLOAD PUSH1 0x20 SWAP4 DUP5 SUB PUSH2 0x100 EXP PUSH1 0x0 NOT ADD DUP1 NOT SWAP1 SWAP3 AND SWAP2 AND OR SWAP1 MSTORE DUP6 MLOAD SWAP2 SWAP1 SWAP4 ADD SWAP3 DUP6 ADD SWAP2 POP DUP1 DUP4 DUP4 JUMPDEST PUSH1 0x20 DUP4 LT PUSH2 0x10F7 JUMPI DUP1 MLOAD DUP3 MSTORE PUSH1 0x1F NOT SWAP1 SWAP3 ADD SWAP2 PUSH1 0x20 SWAP2 DUP3 ADD SWAP2 ADD PUSH2 0x10D8 JUMP JUMPDEST PUSH1 0x1 DUP4 PUSH1 0x20 SUB PUSH2 0x100 EXP SUB DUP1 NOT DUP3 MLOAD AND DUP2 DUP5 MLOAD AND DUP1 DUP3 OR DUP6 MSTORE POP POP POP POP POP POP SWAP1 POP ADD SWAP6 POP POP POP POP POP POP PUSH1 0x40 MLOAD PUSH1 0x20 DUP2 DUP4 SUB SUB DUP2 MSTORE SWAP1 PUSH1 0x40 MSTORE DUP1 MLOAD SWAP1 PUSH1 0x20 ADD KECCAK256 SWAP1 POP PUSH1 0x0 PUSH2 0x1143 DUP3 PUSH2 0x1C6D JUMP JUMPDEST SWAP1 POP PUSH1 0x0 PUSH2 0x1151 DUP3 DUP6 PUSH2 0x1CBE JUMP JUMPDEST SWAP1 POP DUP5 PUSH1 0x1 PUSH1 0x1 PUSH1 0xA0 SHL SUB AND DUP2 PUSH1 0x1 PUSH1 0x1 PUSH1 0xA0 SHL SUB AND EQ PUSH2 0x11AD JUMPI PUSH1 0x40 DUP1 MLOAD PUSH3 0x461BCD PUSH1 0xE5 SHL DUP2 MSTORE PUSH1 0x20 PUSH1 0x4 DUP3 ADD MSTORE PUSH1 0x11 PUSH1 0x24 DUP3 ADD MSTORE PUSH17 0x14DA59DB985D1D5C99481A5B9D985B1A59 PUSH1 0x7A SHL PUSH1 0x44 DUP3 ADD MSTORE SWAP1 MLOAD SWAP1 DUP2 SWAP1 SUB PUSH1 0x64 ADD SWAP1 REVERT JUMPDEST PUSH2 0x11BD DUP4 DUP12 DUP12 DUP12 DUP12 DUP12 DUP12 DUP12 PUSH2 0x1D85 JUMP JUMPDEST PUSH1 0x40 DUP1 MLOAD PUSH1 0x20 DUP1 DUP3 ADD DUP7 SWAP1 MSTORE DUP3 MLOAD DUP1 DUP4 SUB SWAP1 SWAP2 ADD DUP2 MSTORE SWAP1 DUP3 ADD SWAP1 SWAP2 MSTORE PUSH2 0x11EC SWAP1 PUSH1 0x0 SWAP1 DUP7 PUSH4 0xFFFFFFFF PUSH2 0x1E7F AND JUMP JUMPDEST PUSH32 0x9C300419CAB5DCF24F905237448F7040C1806E597357805CB7213C17EC3E7458 DUP11 DUP11 DUP11 DUP11 DUP11 DUP11 DUP11 PUSH1 0x40 MLOAD DUP1 DUP1 PUSH1 0x20 ADD DUP1 PUSH1 0x20 ADD DUP1 PUSH1 0x20 ADD DUP1 PUSH1 0x20 ADD DUP1 PUSH1 0x20 ADD DUP9 PUSH1 0x1 PUSH1 0x1 PUSH1 0xA0 SHL SUB AND PUSH1 0x1 PUSH1 0x1 PUSH1 0xA0 SHL SUB AND DUP2 MSTORE PUSH1 0x20 ADD DUP1 PUSH1 0x20 ADD DUP8 DUP2 SUB DUP8 MSTORE DUP15 DUP2 DUP2 MLOAD DUP2 MSTORE PUSH1 0x20 ADD SWAP2 POP DUP1 MLOAD SWAP1 PUSH1 0x20 ADD SWAP1 DUP1 DUP4 DUP4 PUSH1 0x0 JUMPDEST DUP4 DUP2 LT ISZERO PUSH2 0x127D JUMPI DUP2 DUP2 ADD MLOAD DUP4 DUP3 ADD MSTORE PUSH1 0x20 ADD PUSH2 0x1265 JUMP JUMPDEST POP POP POP POP SWAP1 POP SWAP1 DUP2 ADD SWAP1 PUSH1 0x1F AND DUP1 ISZERO PUSH2 0x12AA JUMPI DUP1 DUP3 SUB DUP1 MLOAD PUSH1 0x1 DUP4 PUSH1 0x20 SUB PUSH2 0x100 EXP SUB NOT AND DUP2 MSTORE PUSH1 0x20 ADD SWAP2 POP JUMPDEST POP DUP8 DUP2 SUB DUP7 MSTORE DUP14 MLOAD DUP2 MSTORE DUP14 MLOAD PUSH1 0x20 SWAP2 DUP3 ADD SWAP2 DUP16 ADD SWAP1 DUP1 DUP4 DUP4 PUSH1 0x0 JUMPDEST DUP4 DUP2 LT ISZERO PUSH2 0x12DD JUMPI DUP2 DUP2 ADD MLOAD DUP4 DUP3 ADD MSTORE PUSH1 0x20 ADD PUSH2 0x12C5 JUMP JUMPDEST POP POP POP POP SWAP1 POP SWAP1 DUP2 ADD SWAP1 PUSH1 0x1F AND DUP1 ISZERO PUSH2 0x130A JUMPI DUP1 DUP3 SUB DUP1 MLOAD PUSH1 0x1 DUP4 PUSH1 0x20 SUB PUSH2 0x100 EXP SUB NOT AND DUP2 MSTORE PUSH1 0x20 ADD SWAP2 POP JUMPDEST POP DUP8 DUP2 SUB DUP6 MSTORE DUP13 MLOAD DUP2 MSTORE DUP13 MLOAD PUSH1 0x20 SWAP2 DUP3 ADD SWAP2 DUP15 ADD SWAP1 DUP1 DUP4 DUP4 PUSH1 0x0 JUMPDEST DUP4 DUP2 LT ISZERO PUSH2 0x133D JUMPI DUP2 DUP2 ADD MLOAD DUP4 DUP3 ADD MSTORE PUSH1 0x20 ADD PUSH2 0x1325 JUMP JUMPDEST POP POP POP POP SWAP1 POP SWAP1 DUP2 ADD SWAP1 PUSH1 0x1F AND DUP1 ISZERO PUSH2 0x136A JUMPI DUP1 DUP3 SUB DUP1 MLOAD PUSH1 0x1 DUP4 PUSH1 0x20 SUB PUSH2 0x100 EXP SUB NOT AND DUP2 MSTORE PUSH1 0x20 ADD SWAP2 POP JUMPDEST POP DUP8 DUP2 SUB DUP5 MSTORE DUP12 MLOAD DUP2 MSTORE DUP12 MLOAD PUSH1 0x20 SWAP2 DUP3 ADD SWAP2 DUP14 ADD SWAP1 DUP1 DUP4 DUP4 PUSH1 0x0 JUMPDEST DUP4 DUP2 LT ISZERO PUSH2 0x139D JUMPI DUP2 DUP2 ADD MLOAD DUP4 DUP3 ADD MSTORE PUSH1 0x20 ADD PUSH2 0x1385 JUMP JUMPDEST POP POP POP POP SWAP1 POP SWAP1 DUP2 ADD SWAP1 PUSH1 0x1F AND DUP1 ISZERO PUSH2 0x13CA JUMPI DUP1 DUP3 SUB DUP1 MLOAD PUSH1 0x1 DUP4 PUSH1 0x20 SUB PUSH2 0x100 EXP SUB NOT AND DUP2 MSTORE PUSH1 0x20 ADD SWAP2 POP JUMPDEST POP DUP8 DUP2 SUB DUP4 MSTORE DUP11 MLOAD DUP2 MSTORE DUP11 MLOAD PUSH1 0x20 SWAP2 DUP3 ADD SWAP2 DUP13 ADD SWAP1 DUP1 DUP4 DUP4 PUSH1 0x0 JUMPDEST DUP4 DUP2 LT ISZERO PUSH2 0x13FD JUMPI DUP2 DUP2 ADD MLOAD DUP4 DUP3 ADD MSTORE PUSH1 0x20 ADD PUSH2 0x13E5 JUMP JUMPDEST POP POP POP POP SWAP1 POP SWAP1 DUP2 ADD SWAP1 PUSH1 0x1F AND DUP1 ISZERO PUSH2 0x142A JUMPI DUP1 DUP3 SUB DUP1 MLOAD PUSH1 0x1 DUP4 PUSH1 0x20 SUB PUSH2 0x100 EXP SUB NOT AND DUP2 MSTORE PUSH1 0x20 ADD SWAP2 POP JUMPDEST POP DUP8 DUP2 SUB DUP3 MSTORE DUP9 MLOAD DUP2 MSTORE DUP9 MLOAD PUSH1 0x20 SWAP2 DUP3 ADD SWAP2 DUP11 ADD SWAP1 DUP1 DUP4 DUP4 PUSH1 0x0 JUMPDEST DUP4 DUP2 LT ISZERO PUSH2 0x145D JUMPI DUP2 DUP2 ADD MLOAD DUP4 DUP3 ADD MSTORE PUSH1 0x20 ADD PUSH2 0x1445 JUMP JUMPDEST POP POP POP POP SWAP1 POP SWAP1 DUP2 ADD SWAP1 PUSH1 0x1F AND DUP1 ISZERO PUSH2 0x148A JUMPI DUP1 DUP3 SUB DUP1 MLOAD PUSH1 0x1 DUP4 PUSH1 0x20 SUB PUSH2 0x100 EXP SUB NOT AND DUP2 MSTORE PUSH1 0x20 ADD SWAP2 POP JUMPDEST POP SWAP14 POP POP POP POP POP POP POP POP POP POP POP POP POP POP PUSH1 0x40 MLOAD DUP1 SWAP2 SUB SWAP1 LOG1 POP POP POP POP POP POP POP POP POP POP JUMP JUMPDEST PUSH1 0x0 DUP1 DUP1 PUSH1 0x60 PUSH2 0x14C4 DUP3 DUP7 PUSH4 0xFFFFFFFF PUSH2 0x1F8C AND JUMP JUMPDEST SWAP4 POP SWAP4 POP SWAP4 POP SWAP4 POP SWAP2 SWAP4 POP SWAP2 SWAP4 JUMP JUMPDEST PUSH1 0x0 PUSH1 0x60 PUSH2 0x14E7 DUP3 DUP5 PUSH4 0xFFFFFFFF PUSH2 0x1FB4 AND JUMP JUMPDEST SWAP2 POP SWAP2 POP SWAP2 POP SWAP2 JUMP JUMPDEST PUSH1 0x0 DUP2 DUP2 MSTORE PUSH1 0x20 DUP2 DUP2 MSTORE PUSH1 0x40 SWAP2 DUP3 SWAP1 KECCAK256 DUP1 SLOAD DUP4 MLOAD PUSH1 0x1F PUSH1 0x2 PUSH1 0x0 NOT PUSH2 0x100 PUSH1 0x1 DUP7 AND ISZERO MUL ADD SWAP1 SWAP4 AND SWAP3 SWAP1 SWAP3 DIV SWAP2 DUP3 ADD DUP5 SWAP1 DIV DUP5 MUL DUP2 ADD DUP5 ADD SWAP1 SWAP5 MSTORE DUP1 DUP5 MSTORE PUSH1 0x60 SWAP4 SWAP3 DUP4 ADD DUP3 DUP3 DUP1 ISZERO PUSH2 0x1583 JUMPI DUP1 PUSH1 0x1F LT PUSH2 0x1558 JUMPI PUSH2 0x100 DUP1 DUP4 SLOAD DIV MUL DUP4 MSTORE SWAP2 PUSH1 0x20 ADD SWAP2 PUSH2 0x1583 JUMP JUMPDEST DUP3 ADD SWAP2 SWAP1 PUSH1 0x0 MSTORE PUSH1 0x20 PUSH1 0x0 KECCAK256 SWAP1 JUMPDEST DUP2 SLOAD DUP2 MSTORE SWAP1 PUSH1 0x1 ADD SWAP1 PUSH1 0x20 ADD DUP1 DUP4 GT PUSH2 0x1566 JUMPI DUP3 SWAP1 SUB PUSH1 0x1F AND DUP3 ADD SWAP2 JUMPDEST POP POP POP POP POP SWAP1 POP JUMPDEST SWAP2 SWAP1 POP JUMP JUMPDEST PUSH1 0x0 PUSH2 0x159C PUSH1 0x0 PUSH2 0x1FD4 JUMP JUMPDEST SWAP1 POP JUMPDEST SWAP1 JUMP JUMPDEST PUSH1 0x0 DUP2 DUP2 MSTORE PUSH1 0x7 PUSH1 0x20 SWAP1 DUP2 MSTORE PUSH1 0x40 DUP1 DUP4 KECCAK256 PUSH1 0x5 DUP2 ADD SLOAD DUP2 SLOAD DUP4 MLOAD PUSH1 0x1F PUSH1 0x2 PUSH1 0x0 NOT PUSH1 0x1 DUP6 DUP2 AND ISZERO PUSH2 0x100 MUL SWAP2 SWAP1 SWAP2 ADD SWAP1 SWAP5 AND DUP2 SWAP1 DIV SWAP2 DUP3 ADD DUP9 SWAP1 DIV DUP9 MUL DUP4 ADD DUP9 ADD SWAP1 SWAP7 MSTORE DUP1 DUP3 MSTORE PUSH1 0x60 SWAP8 DUP9 SWAP8 DUP9 SWAP8 DUP9 SWAP8 DUP9 SWAP8 SWAP4 SWAP7 DUP9 SWAP7 SWAP2 SWAP6 SWAP1 DUP7 ADD SWAP5 SWAP3 DUP7 ADD SWAP4 PUSH1 0x3 DUP8 ADD SWAP4 PUSH1 0x4 DUP9 ADD SWAP4 PUSH1 0x1 PUSH1 0x1 PUSH1 0xA0 SHL SUB SWAP1 SWAP2 AND SWAP3 PUSH1 0x6 DUP10 ADD SWAP3 DUP10 SWAP2 SWAP1 DUP4 ADD DUP3 DUP3 DUP1 ISZERO PUSH2 0x1671 JUMPI DUP1 PUSH1 0x1F LT PUSH2 0x1646 JUMPI PUSH2 0x100 DUP1 DUP4 SLOAD DIV MUL DUP4 MSTORE SWAP2 PUSH1 0x20 ADD SWAP2 PUSH2 0x1671 JUMP JUMPDEST DUP3 ADD SWAP2 SWAP1 PUSH1 0x0 MSTORE PUSH1 0x20 PUSH1 0x0 KECCAK256 SWAP1 JUMPDEST DUP2 SLOAD DUP2 MSTORE SWAP1 PUSH1 0x1 ADD SWAP1 PUSH1 0x20 ADD DUP1 DUP4 GT PUSH2 0x1654 JUMPI DUP3 SWAP1 SUB PUSH1 0x1F AND DUP3 ADD SWAP2 JUMPDEST POP POP DUP10 SLOAD PUSH1 0x40 DUP1 MLOAD PUSH1 0x20 PUSH1 0x2 PUSH1 0x1 DUP6 AND ISZERO PUSH2 0x100 MUL PUSH1 0x0 NOT ADD SWAP1 SWAP5 AND SWAP4 SWAP1 SWAP4 DIV PUSH1 0x1F DUP2 ADD DUP5 SWAP1 DIV DUP5 MUL DUP3 ADD DUP5 ADD SWAP1 SWAP3 MSTORE DUP2 DUP2 MSTORE SWAP6 SWAP13 POP DUP12 SWAP5 POP SWAP3 POP DUP5 ADD SWAP1 POP DUP3 DUP3 DUP1 ISZERO PUSH2 0x16FF JUMPI DUP1 PUSH1 0x1F LT PUSH2 0x16D4 JUMPI PUSH2 0x100 DUP1 DUP4 SLOAD DIV MUL DUP4 MSTORE SWAP2 PUSH1 0x20 ADD SWAP2 PUSH2 0x16FF JUMP JUMPDEST DUP3 ADD SWAP2 SWAP1 PUSH1 0x0 MSTORE PUSH1 0x20 PUSH1 0x0 KECCAK256 SWAP1 JUMPDEST DUP2 SLOAD DUP2 MSTORE SWAP1 PUSH1 0x1 ADD SWAP1 PUSH1 0x20 ADD DUP1 DUP4 GT PUSH2 0x16E2 JUMPI DUP3 SWAP1 SUB PUSH1 0x1F AND DUP3 ADD SWAP2 JUMPDEST POP POP DUP9 SLOAD PUSH1 0x40 DUP1 MLOAD PUSH1 0x20 PUSH1 0x2 PUSH1 0x1 DUP6 AND ISZERO PUSH2 0x100 MUL PUSH1 0x0 NOT ADD SWAP1 SWAP5 AND SWAP4 SWAP1 SWAP4 DIV PUSH1 0x1F DUP2 ADD DUP5 SWAP1 DIV DUP5 MUL DUP3 ADD DUP5 ADD SWAP1 SWAP3 MSTORE DUP2 DUP2 MSTORE SWAP6 SWAP12 POP DUP11 SWAP5 POP SWAP3 POP DUP5 ADD SWAP1 POP DUP3 DUP3 DUP1 ISZERO PUSH2 0x178D JUMPI DUP1 PUSH1 0x1F LT PUSH2 0x1762 JUMPI PUSH2 0x100 DUP1 DUP4 SLOAD DIV MUL DUP4 MSTORE SWAP2 PUSH1 0x20 ADD SWAP2 PUSH2 0x178D JUMP JUMPDEST DUP3 ADD SWAP2 SWAP1 PUSH1 0x0 MSTORE PUSH1 0x20 PUSH1 0x0 KECCAK256 SWAP1 JUMPDEST DUP2 SLOAD DUP2 MSTORE SWAP1 PUSH1 0x1 ADD SWAP1 PUSH1 0x20 ADD DUP1 DUP4 GT PUSH2 0x1770 JUMPI DUP3 SWAP1 SUB PUSH1 0x1F AND DUP3 ADD SWAP2 JUMPDEST POP POP DUP8 SLOAD PUSH1 0x40 DUP1 MLOAD PUSH1 0x20 PUSH1 0x2 PUSH1 0x1 DUP6 AND ISZERO PUSH2 0x100 MUL PUSH1 0x0 NOT ADD SWAP1 SWAP5 AND SWAP4 SWAP1 SWAP4 DIV PUSH1 0x1F DUP2 ADD DUP5 SWAP1 DIV DUP5 MUL DUP3 ADD DUP5 ADD SWAP1 SWAP3 MSTORE DUP2 DUP2 MSTORE SWAP6 SWAP11 POP DUP10 SWAP5 POP SWAP3 POP DUP5 ADD SWAP1 POP DUP3 DUP3 DUP1 ISZERO PUSH2 0x181B JUMPI DUP1 PUSH1 0x1F LT PUSH2 0x17F0 JUMPI PUSH2 0x100 DUP1 DUP4 SLOAD DIV MUL DUP4 MSTORE SWAP2 PUSH1 0x20 ADD SWAP2 PUSH2 0x181B JUMP JUMPDEST DUP3 ADD SWAP2 SWAP1 PUSH1 0x0 MSTORE PUSH1 0x20 PUSH1 0x0 KECCAK256 SWAP1 JUMPDEST DUP2 SLOAD DUP2 MSTORE SWAP1 PUSH1 0x1 ADD SWAP1 PUSH1 0x20 ADD DUP1 DUP4 GT PUSH2 0x17FE JUMPI DUP3 SWAP1 SUB PUSH1 0x1F AND DUP3 ADD SWAP2 JUMPDEST POP POP DUP7 SLOAD PUSH1 0x40 DUP1 MLOAD PUSH1 0x20 PUSH1 0x2 PUSH1 0x1 DUP6 AND ISZERO PUSH2 0x100 MUL PUSH1 0x0 NOT ADD SWAP1 SWAP5 AND SWAP4 SWAP1 SWAP4 DIV PUSH1 0x1F DUP2 ADD DUP5 SWAP1 DIV DUP5 MUL DUP3 ADD DUP5 ADD SWAP1 SWAP3 MSTORE DUP2 DUP2 MSTORE SWAP6 SWAP10 POP DUP9 SWAP5 POP SWAP3 POP DUP5 ADD SWAP1 POP DUP3 DUP3 DUP1 ISZERO PUSH2 0x18A9 JUMPI DUP1 PUSH1 0x1F LT PUSH2 0x187E JUMPI PUSH2 0x100 DUP1 DUP4 SLOAD DIV MUL DUP4 MSTORE SWAP2 PUSH1 0x20 ADD SWAP2 PUSH2 0x18A9 JUMP JUMPDEST DUP3 ADD SWAP2 SWAP1 PUSH1 0x0 MSTORE PUSH1 0x20 PUSH1 0x0 KECCAK256 SWAP1 JUMPDEST DUP2 SLOAD DUP2 MSTORE SWAP1 PUSH1 0x1 ADD SWAP1 PUSH1 0x20 ADD DUP1 DUP4 GT PUSH2 0x188C JUMPI DUP3 SWAP1 SUB PUSH1 0x1F AND DUP3 ADD SWAP2 JUMPDEST POP POP DUP5 SLOAD PUSH1 0x40 DUP1 MLOAD PUSH1 0x20 PUSH1 0x2 PUSH1 0x1 DUP6 AND ISZERO PUSH2 0x100 MUL PUSH1 0x0 NOT ADD SWAP1 SWAP5 AND SWAP4 SWAP1 SWAP4 DIV PUSH1 0x1F DUP2 ADD DUP5 SWAP1 DIV DUP5 MUL DUP3 ADD DUP5 ADD SWAP1 SWAP3 MSTORE DUP2 DUP2 MSTORE SWAP6 SWAP9 POP DUP7 SWAP5 POP SWAP3 POP DUP5 ADD SWAP1 POP DUP3 DUP3 DUP1 ISZERO PUSH2 0x1937 JUMPI DUP1 PUSH1 0x1F LT PUSH2 0x190C JUMPI PUSH2 0x100 DUP1 DUP4 SLOAD DIV MUL DUP4 MSTORE SWAP2 PUSH1 0x20 ADD SWAP2 PUSH2 0x1937 JUMP JUMPDEST DUP3 ADD SWAP2 SWAP1 PUSH1 0x0 MSTORE PUSH1 0x20 PUSH1 0x0 KECCAK256 SWAP1 JUMPDEST DUP2 SLOAD DUP2 MSTORE SWAP1 PUSH1 0x1 ADD SWAP1 PUSH1 0x20 ADD DUP1 DUP4 GT PUSH2 0x191A JUMPI DUP3 SWAP1 SUB PUSH1 0x1F AND DUP3 ADD SWAP2 JUMPDEST POP POP POP POP POP SWAP1 POP SWAP7 POP SWAP7 POP SWAP7 POP SWAP7 POP SWAP7 POP SWAP7 POP SWAP7 POP SWAP2 SWAP4 SWAP6 SWAP8 SWAP1 SWAP3 SWAP5 SWAP7 POP JUMP JUMPDEST PUSH20 0x0 PUSH4 0x98108C26 DUP8 DUP8 DUP8 DUP8 DUP8 DUP8 PUSH1 0x40 MLOAD DUP8 PUSH4 0xFFFFFFFF AND PUSH1 0xE0 SHL DUP2 MSTORE PUSH1 0x4 ADD DUP1 DUP8 DUP2 MSTORE PUSH1 0x20 ADD DUP1 PUSH1 0x20 ADD DUP7 DUP2 MSTORE PUSH1 0x20 ADD DUP6 DUP2 MSTORE PUSH1 0x20 ADD DUP5 DUP2 MSTORE PUSH1 0x20 ADD DUP1 PUSH1 0x20 ADD DUP4 DUP2 SUB DUP4 MSTORE DUP9 DUP2 DUP2 MLOAD DUP2 MSTORE PUSH1 0x20 ADD SWAP2 POP DUP1 MLOAD SWAP1 PUSH1 0x20 ADD SWAP1 DUP1 DUP4 DUP4 PUSH1 0x0 JUMPDEST DUP4 DUP2 LT ISZERO PUSH2 0x19DF JUMPI DUP2 DUP2 ADD MLOAD DUP4 DUP3 ADD MSTORE PUSH1 0x20 ADD PUSH2 0x19C7 JUMP JUMPDEST POP POP POP POP SWAP1 POP SWAP1 DUP2 ADD SWAP1 PUSH1 0x1F AND DUP1 ISZERO PUSH2 0x1A0C JUMPI DUP1 DUP3 SUB DUP1 MLOAD PUSH1 0x1 DUP4 PUSH1 0x20 SUB PUSH2 0x100 EXP SUB NOT AND DUP2 MSTORE PUSH1 0x20 ADD SWAP2 POP JUMPDEST POP DUP4 DUP2 SUB DUP3 MSTORE DUP5 MLOAD DUP2 MSTORE DUP5 MLOAD PUSH1 0x20 SWAP2 DUP3 ADD SWAP2 DUP1 DUP8 ADD SWAP2 MUL DUP1 DUP4 DUP4 PUSH1 0x0 JUMPDEST DUP4 DUP2 LT ISZERO PUSH2 0x1A41 JUMPI DUP2 DUP2 ADD MLOAD DUP4 DUP3 ADD MSTORE PUSH1 0x20 ADD PUSH2 0x1A29 JUMP JUMPDEST POP POP POP POP SWAP1 POP ADD SWAP9 POP POP POP POP POP POP POP POP POP PUSH1 0x0 PUSH1 0x40 MLOAD DUP1 DUP4 SUB DUP2 DUP7 DUP1 EXTCODESIZE ISZERO DUP1 ISZERO PUSH2 0x1A6A JUMPI PUSH1 0x0 DUP1 REVERT JUMPDEST POP GAS DELEGATECALL ISZERO DUP1 ISZERO PUSH2 0x1A7E JUMPI RETURNDATASIZE PUSH1 0x0 DUP1 RETURNDATACOPY RETURNDATASIZE PUSH1 0x0 REVERT JUMPDEST POP POP POP POP POP POP POP POP POP POP JUMP JUMPDEST PUSH2 0x1A9F PUSH1 0x0 DUP7 DUP7 DUP7 DUP7 DUP7 PUSH4 0xFFFFFFFF PUSH2 0x1FDB AND JUMP JUMPDEST POP POP POP POP POP JUMP JUMPDEST PUSH1 0x0 PUSH2 0x1AB8 DUP2 DUP4 PUSH4 0xFFFFFFFF PUSH2 0x22A4 AND JUMP JUMPDEST SWAP3 SWAP2 POP POP JUMP JUMPDEST PUSH1 0x60 PUSH2 0x1AB8 PUSH1 0x0 DUP4 PUSH4 0xFFFFFFFF PUSH2 0x22BE AND JUMP JUMPDEST PUSH1 0x60 PUSH2 0x1AB8 PUSH1 0x0 DUP4 PUSH4 0xFFFFFFFF PUSH2 0x22D3 AND JUMP JUMPDEST PUSH20 0x0 PUSH4 0xF7E498F6 DUP7 DUP7 DUP7 DUP7 DUP7 PUSH1 0x40 MLOAD DUP7 PUSH4 0xFFFFFFFF AND PUSH1 0xE0 SHL DUP2 MSTORE PUSH1 0x4 ADD DUP1 DUP7 DUP2 MSTORE PUSH1 0x20 ADD DUP1 PUSH1 0x20 ADD DUP1 PUSH1 0x20 ADD DUP6 DUP2 MSTORE PUSH1 0x20 ADD DUP1 PUSH1 0x20 ADD DUP5 DUP2 SUB DUP5 MSTORE DUP9 DUP2 DUP2 MLOAD DUP2 MSTORE PUSH1 0x20 ADD SWAP2 POP DUP1 MLOAD SWAP1 PUSH1 0x20 ADD SWAP1 DUP1 DUP4 DUP4 PUSH1 0x0 JUMPDEST DUP4 DUP2 LT ISZERO PUSH2 0x1B63 JUMPI DUP2 DUP2 ADD MLOAD DUP4 DUP3 ADD MSTORE PUSH1 0x20 ADD PUSH2 0x1B4B JUMP JUMPDEST POP POP POP POP SWAP1 POP SWAP1 DUP2 ADD SWAP1 PUSH1 0x1F AND DUP1 ISZERO PUSH2 0x1B90 JUMPI DUP1 DUP3 SUB DUP1 MLOAD PUSH1 0x1 DUP4 PUSH1 0x20 SUB PUSH2 0x100 EXP SUB NOT AND DUP2 MSTORE PUSH1 0x20 ADD SWAP2 POP JUMPDEST POP DUP5 DUP2 SUB DUP4 MSTORE DUP8 MLOAD DUP2 MSTORE DUP8 MLOAD PUSH1 0x20 SWAP2 DUP3 ADD SWAP2 DUP10 ADD SWAP1 DUP1 DUP4 DUP4 PUSH1 0x0 JUMPDEST DUP4 DUP2 LT ISZERO PUSH2 0x1BC3 JUMPI DUP2 DUP2 ADD MLOAD DUP4 DUP3 ADD MSTORE PUSH1 0x20 ADD PUSH2 0x1BAB JUMP JUMPDEST POP POP POP POP SWAP1 POP SWAP1 DUP2 ADD SWAP1 PUSH1 0x1F AND DUP1 ISZERO PUSH2 0x1BF0 JUMPI DUP1 DUP3 SUB DUP1 MLOAD PUSH1 0x1 DUP4 PUSH1 0x20 SUB PUSH2 0x100 EXP SUB NOT AND DUP2 MSTORE PUSH1 0x20 ADD SWAP2 POP JUMPDEST POP DUP5 DUP2 SUB DUP3 MSTORE DUP6 MLOAD DUP2 MSTORE DUP6 MLOAD PUSH1 0x20 SWAP2 DUP3 ADD SWAP2 DUP1 DUP9 ADD SWAP2 MUL DUP1 DUP4 DUP4 PUSH1 0x0 JUMPDEST DUP4 DUP2 LT ISZERO PUSH2 0x1C25 JUMPI DUP2 DUP2 ADD MLOAD DUP4 DUP3 ADD MSTORE PUSH1 0x20 ADD PUSH2 0x1C0D JUMP JUMPDEST POP POP POP POP SWAP1 POP ADD SWAP9 POP POP POP POP POP POP POP POP POP PUSH1 0x0 PUSH1 0x40 MLOAD DUP1 DUP4 SUB DUP2 DUP7 DUP1 EXTCODESIZE ISZERO DUP1 ISZERO PUSH2 0x1C4E JUMPI PUSH1 0x0 DUP1 REVERT JUMPDEST POP GAS DELEGATECALL ISZERO DUP1 ISZERO PUSH2 0x1C62 JUMPI RETURNDATASIZE PUSH1 0x0 DUP1 RETURNDATACOPY RETURNDATASIZE PUSH1 0x0 REVERT JUMPDEST POP POP POP POP POP POP POP POP POP JUMP JUMPDEST PUSH1 0x40 DUP1 MLOAD PUSH32 0x19457468657265756D205369676E6564204D6573736167653A0A333200000000 PUSH1 0x20 DUP1 DUP4 ADD SWAP2 SWAP1 SWAP2 MSTORE PUSH1 0x3C DUP1 DUP4 ADD SWAP5 SWAP1 SWAP5 MSTORE DUP3 MLOAD DUP1 DUP4 SUB SWAP1 SWAP5 ADD DUP5 MSTORE PUSH1 0x5C SWAP1 SWAP2 ADD SWAP1 SWAP2 MSTORE DUP2 MLOAD SWAP2 ADD KECCAK256 SWAP1 JUMP JUMPDEST PUSH1 0x0 DUP2 MLOAD PUSH1 0x41 EQ PUSH2 0x1CD1 JUMPI POP PUSH1 0x0 PUSH2 0x1AB8 JUMP JUMPDEST PUSH1 0x20 DUP3 ADD MLOAD PUSH1 0x40 DUP4 ADD MLOAD PUSH1 0x60 DUP5 ADD MLOAD PUSH1 0x0 BYTE PUSH1 0x1B DUP2 LT ISZERO PUSH2 0x1CF0 JUMPI PUSH1 0x1B ADD JUMPDEST DUP1 PUSH1 0xFF AND PUSH1 0x1B EQ ISZERO DUP1 ISZERO PUSH2 0x1D08 JUMPI POP DUP1 PUSH1 0xFF AND PUSH1 0x1C EQ ISZERO JUMPDEST ISZERO PUSH2 0x1D19 JUMPI PUSH1 0x0 SWAP4 POP POP POP POP PUSH2 0x1AB8 JUMP JUMPDEST PUSH1 0x40 DUP1 MLOAD PUSH1 0x0 DUP2 MSTORE PUSH1 0x20 DUP1 DUP3 ADD DUP1 DUP5 MSTORE DUP10 SWAP1 MSTORE PUSH1 0xFF DUP5 AND DUP3 DUP5 ADD MSTORE PUSH1 0x60 DUP3 ADD DUP7 SWAP1 MSTORE PUSH1 0x80 DUP3 ADD DUP6 SWAP1 MSTORE SWAP2 MLOAD PUSH1 0x1 SWAP3 PUSH1 0xA0 DUP1 DUP5 ADD SWAP4 SWAP2 SWAP3 PUSH1 0x1F NOT DUP2 ADD SWAP3 DUP2 SWAP1 SUB SWAP1 SWAP2 ADD SWAP1 DUP6 GAS STATICCALL ISZERO DUP1 ISZERO PUSH2 0x1D70 JUMPI RETURNDATASIZE PUSH1 0x0 DUP1 RETURNDATACOPY RETURNDATASIZE PUSH1 0x0 REVERT JUMPDEST POP POP PUSH1 0x40 MLOAD PUSH1 0x1F NOT ADD MLOAD SWAP8 SWAP7 POP POP POP POP POP POP POP JUMP JUMPDEST PUSH1 0x0 DUP9 DUP2 MSTORE PUSH1 0x7 PUSH1 0x20 SWAP1 DUP2 MSTORE PUSH1 0x40 SWAP1 SWAP2 KECCAK256 DUP9 MLOAD PUSH2 0x1DA4 SWAP3 DUP11 ADD SWAP1 PUSH2 0x3166 JUMP JUMPDEST POP PUSH1 0x0 DUP9 DUP2 MSTORE PUSH1 0x7 PUSH1 0x20 SWAP1 DUP2 MSTORE PUSH1 0x40 SWAP1 SWAP2 KECCAK256 DUP8 MLOAD PUSH2 0x1DCA SWAP3 PUSH1 0x1 SWAP1 SWAP3 ADD SWAP2 DUP10 ADD SWAP1 PUSH2 0x3166 JUMP JUMPDEST POP PUSH1 0x0 DUP9 DUP2 MSTORE PUSH1 0x7 PUSH1 0x20 SWAP1 DUP2 MSTORE PUSH1 0x40 SWAP1 SWAP2 KECCAK256 DUP7 MLOAD PUSH2 0x1DF0 SWAP3 PUSH1 0x2 SWAP1 SWAP3 ADD SWAP2 DUP9 ADD SWAP1 PUSH2 0x3166 JUMP JUMPDEST POP PUSH1 0x0 DUP9 DUP2 MSTORE PUSH1 0x7 PUSH1 0x20 SWAP1 DUP2 MSTORE PUSH1 0x40 SWAP1 SWAP2 KECCAK256 DUP6 MLOAD PUSH2 0x1E16 SWAP3 PUSH1 0x3 SWAP1 SWAP3 ADD SWAP2 DUP8 ADD SWAP1 PUSH2 0x3166 JUMP JUMPDEST POP PUSH1 0x0 DUP9 DUP2 MSTORE PUSH1 0x7 PUSH1 0x20 SWAP1 DUP2 MSTORE PUSH1 0x40 SWAP1 SWAP2 KECCAK256 DUP5 MLOAD PUSH2 0x1E3C SWAP3 PUSH1 0x4 SWAP1 SWAP3 ADD SWAP2 DUP7 ADD SWAP1 PUSH2 0x3166 JUMP JUMPDEST POP PUSH1 0x0 DUP9 DUP2 MSTORE PUSH1 0x7 PUSH1 0x20 SWAP1 DUP2 MSTORE PUSH1 0x40 SWAP1 SWAP2 KECCAK256 PUSH1 0x5 DUP2 ADD DUP1 SLOAD PUSH1 0x1 PUSH1 0x1 PUSH1 0xA0 SHL SUB NOT AND PUSH1 0x1 PUSH1 0x1 PUSH1 0xA0 SHL SUB DUP7 AND OR SWAP1 SSTORE DUP3 MLOAD PUSH2 0x1C62 SWAP3 PUSH1 0x6 SWAP1 SWAP3 ADD SWAP2 DUP5 ADD SWAP1 PUSH2 0x3166 JUMP JUMPDEST PUSH2 0x1E87 PUSH2 0x31E4 JUMP JUMPDEST POP PUSH1 0x40 DUP1 MLOAD DUP1 DUP3 ADD DUP3 MSTORE DUP4 MLOAD PUSH1 0x20 DUP1 DUP7 ADD SWAP2 SWAP1 SWAP2 KECCAK256 DUP3 MSTORE PUSH2 0x100 DUP2 DUP4 ADD MSTORE DUP4 MLOAD DUP5 DUP3 ADD SWAP1 DUP2 KECCAK256 PUSH1 0x0 DUP2 DUP2 MSTORE SWAP3 DUP9 SWAP1 MSTORE SWAP4 SWAP1 SWAP2 KECCAK256 DUP5 MLOAD SWAP3 SWAP4 SWAP3 PUSH2 0x1EC9 SWAP3 SWAP1 PUSH2 0x3166 JUMP JUMPDEST POP PUSH2 0x1ED2 PUSH2 0x31FB JUMP JUMPDEST PUSH1 0x4 DUP7 ADD SLOAD ISZERO DUP1 ISZERO PUSH2 0x1EE6 JUMPI POP PUSH1 0x6 DUP7 ADD SLOAD ISZERO JUMPDEST ISZERO PUSH2 0x1EFE JUMPI PUSH1 0x40 DUP2 ADD DUP4 SWAP1 MSTORE PUSH1 0x20 DUP2 ADD DUP3 SWAP1 MSTORE PUSH2 0x1F4E JUMP JUMPDEST PUSH1 0x40 DUP1 MLOAD PUSH1 0x60 DUP2 ADD DUP3 MSTORE PUSH1 0x3 DUP9 ADD SLOAD DUP2 MSTORE PUSH1 0x4 DUP9 ADD SLOAD PUSH1 0x20 DUP1 DUP4 ADD SWAP2 SWAP1 SWAP2 MSTORE DUP3 MLOAD DUP1 DUP5 ADD DUP5 MSTORE PUSH1 0x5 DUP11 ADD SLOAD DUP2 MSTORE PUSH1 0x6 DUP11 ADD SLOAD SWAP2 DUP2 ADD SWAP2 SWAP1 SWAP2 MSTORE SWAP2 DUP2 ADD SWAP2 SWAP1 SWAP2 MSTORE PUSH2 0x1F4B SWAP1 DUP8 SWAP1 DUP6 DUP6 PUSH2 0x2313 JUMP JUMPDEST SWAP1 POP JUMPDEST PUSH2 0x1F57 DUP2 PUSH2 0x2443 JUMP JUMPDEST PUSH1 0x2 DUP8 ADD SSTORE DUP1 MLOAD PUSH1 0x3 DUP8 ADD SSTORE PUSH1 0x20 DUP1 DUP3 ADD MLOAD PUSH1 0x4 DUP9 ADD SSTORE PUSH1 0x40 SWAP1 SWAP2 ADD MLOAD DUP1 MLOAD PUSH1 0x5 DUP9 ADD SSTORE ADD MLOAD PUSH1 0x6 SWAP1 SWAP6 ADD SWAP5 SWAP1 SWAP5 SSTORE POP POP POP POP JUMP JUMPDEST PUSH1 0x0 DUP1 PUSH1 0x0 PUSH1 0x60 PUSH2 0x1FA4 DUP7 DUP7 DUP1 MLOAD SWAP1 PUSH1 0x20 ADD KECCAK256 PUSH2 0x24B5 JUMP JUMPDEST SWAP3 SWAP10 SWAP2 SWAP9 POP SWAP7 POP SWAP1 SWAP5 POP SWAP3 POP POP POP JUMP JUMPDEST PUSH1 0x0 PUSH1 0x60 PUSH2 0x1FC9 DUP5 DUP5 DUP1 MLOAD SWAP1 PUSH1 0x20 ADD KECCAK256 PUSH2 0x2768 JUMP JUMPDEST SWAP2 POP SWAP2 POP SWAP3 POP SWAP3 SWAP1 POP JUMP JUMPDEST PUSH1 0x2 ADD SLOAD SWAP1 JUMP JUMPDEST PUSH2 0x1FE3 PUSH2 0x31E4 JUMP JUMPDEST PUSH1 0x40 MLOAD DUP1 PUSH1 0x40 ADD PUSH1 0x40 MSTORE DUP1 DUP8 DUP1 MLOAD SWAP1 PUSH1 0x20 ADD KECCAK256 DUP2 MSTORE PUSH1 0x20 ADD PUSH2 0x100 DUP2 MSTORE POP SWAP1 POP PUSH2 0x200B PUSH2 0x31FB JUMP JUMPDEST PUSH1 0x0 JUMPDEST DUP5 ISZERO PUSH2 0x2244 JUMPI PUSH1 0x0 PUSH2 0x201F DUP7 PUSH2 0x29A8 JUMP JUMPDEST SWAP1 POP DUP1 PUSH1 0x1 SWAP1 SHL NOT DUP7 AND SWAP6 POP PUSH2 0x2038 DUP5 DUP3 PUSH1 0xFF SUB PUSH2 0x2A72 JUMP JUMPDEST PUSH1 0x40 DUP6 ADD DUP2 SWAP1 MSTORE SWAP1 SWAP5 POP PUSH1 0x0 SWAP1 PUSH2 0x204E SWAP1 PUSH2 0x2B13 JUMP JUMPDEST PUSH1 0x40 DUP7 ADD MSTORE SWAP1 POP DUP3 PUSH2 0x2073 JUMPI PUSH1 0x40 DUP5 ADD DUP1 MLOAD PUSH1 0x20 SWAP1 DUP2 ADD DUP5 SWAP1 MSTORE SWAP1 MLOAD DUP11 SWAP1 MSTORE DUP5 ADD DUP9 SWAP1 MSTORE JUMPDEST PUSH2 0x207B PUSH2 0x321F JUMP JUMPDEST PUSH2 0x2084 DUP6 PUSH2 0x2443 JUMP JUMPDEST DUP2 DUP4 PUSH1 0x2 DUP2 LT PUSH2 0x2090 JUMPI INVALID JUMPDEST PUSH1 0x20 MUL ADD MSTORE DUP7 MLOAD DUP8 SWAP1 PUSH1 0x0 NOT DUP7 DUP3 SUB ADD SWAP1 DUP2 LT PUSH2 0x20A9 JUMPI INVALID JUMPDEST PUSH1 0x20 MUL PUSH1 0x20 ADD ADD MLOAD DUP2 DUP4 PUSH1 0x1 SUB PUSH1 0x2 DUP2 LT PUSH2 0x20C0 JUMPI INVALID JUMPDEST PUSH1 0x20 MUL ADD MSTORE PUSH1 0x0 DUP2 DUP2 PUSH1 0x20 MUL ADD MLOAD DUP3 PUSH1 0x1 PUSH1 0x20 MUL ADD MLOAD PUSH1 0x40 MLOAD PUSH1 0x20 ADD DUP1 DUP4 DUP2 MSTORE PUSH1 0x20 ADD DUP3 DUP2 MSTORE PUSH1 0x20 ADD SWAP3 POP POP POP PUSH1 0x40 MLOAD PUSH1 0x20 DUP2 DUP4 SUB SUB DUP2 MSTORE SWAP1 PUSH1 0x40 MSTORE DUP1 MLOAD SWAP1 PUSH1 0x20 ADD KECCAK256 SWAP1 POP PUSH1 0x0 DUP14 PUSH1 0x1 ADD PUSH1 0x0 DUP4 DUP2 MSTORE PUSH1 0x20 ADD SWAP1 DUP2 MSTORE PUSH1 0x20 ADD PUSH1 0x0 KECCAK256 SWAP1 POP DUP7 DUP2 PUSH1 0x0 ADD DUP6 PUSH1 0x2 DUP2 LT PUSH2 0x212E JUMPI INVALID JUMPDEST PUSH1 0x4 MUL ADD PUSH1 0x0 DUP3 ADD MLOAD DUP2 PUSH1 0x0 ADD SSTORE PUSH1 0x20 DUP3 ADD MLOAD DUP2 PUSH1 0x1 ADD SSTORE PUSH1 0x40 DUP3 ADD MLOAD DUP2 PUSH1 0x2 ADD PUSH1 0x0 DUP3 ADD MLOAD DUP2 PUSH1 0x0 ADD SSTORE PUSH1 0x20 DUP3 ADD MLOAD DUP2 PUSH1 0x1 ADD SSTORE POP POP SWAP1 POP POP PUSH2 0x21CD DUP2 PUSH1 0x0 ADD DUP6 PUSH1 0x1 SUB PUSH1 0x2 DUP2 LT PUSH2 0x217D JUMPI INVALID JUMPDEST PUSH1 0x4 MUL ADD PUSH1 0x40 MLOAD DUP1 PUSH1 0x60 ADD PUSH1 0x40 MSTORE SWAP1 DUP2 PUSH1 0x0 DUP3 ADD SLOAD DUP2 MSTORE PUSH1 0x20 ADD PUSH1 0x1 DUP3 ADD SLOAD DUP2 MSTORE PUSH1 0x20 ADD PUSH1 0x2 DUP3 ADD PUSH1 0x40 MLOAD DUP1 PUSH1 0x40 ADD PUSH1 0x40 MSTORE SWAP1 DUP2 PUSH1 0x0 DUP3 ADD SLOAD DUP2 MSTORE PUSH1 0x20 ADD PUSH1 0x1 DUP3 ADD SLOAD DUP2 MSTORE POP POP DUP2 MSTORE POP POP PUSH2 0x2B92 JUMP JUMPDEST ISZERO PUSH2 0x2204 JUMPI DUP9 PUSH1 0x1 DUP8 DUP12 MLOAD SUB SUB DUP2 MLOAD DUP2 LT PUSH2 0x21E4 JUMPI INVALID JUMPDEST PUSH1 0x20 MUL PUSH1 0x20 ADD ADD MLOAD DUP2 PUSH1 0x0 ADD DUP6 PUSH1 0x1 SUB PUSH1 0x2 DUP2 LT PUSH2 0x21FE JUMPI INVALID JUMPDEST PUSH1 0x4 MUL ADD SSTORE JUMPDEST POP POP DUP1 MLOAD PUSH1 0x20 SWAP2 DUP3 ADD MLOAD PUSH1 0x40 DUP1 MLOAD DUP1 DUP6 ADD SWAP4 SWAP1 SWAP4 MSTORE DUP3 DUP2 ADD SWAP2 SWAP1 SWAP2 MSTORE DUP1 MLOAD DUP1 DUP4 SUB DUP3 ADD DUP2 MSTORE PUSH1 0x60 SWAP1 SWAP3 ADD SWAP1 MSTORE DUP1 MLOAD SWAP1 DUP3 ADD KECCAK256 SWAP1 DUP6 ADD MSTORE POP POP PUSH1 0x1 ADD PUSH2 0x200E JUMP JUMPDEST POP PUSH1 0x40 DUP2 ADD DUP3 SWAP1 MSTORE PUSH2 0x2255 DUP2 PUSH2 0x2443 JUMP JUMPDEST DUP9 PUSH1 0x2 ADD SLOAD EQ PUSH2 0x2264 JUMPI PUSH1 0x0 DUP1 REVERT JUMPDEST PUSH2 0x226D DUP2 PUSH2 0x2443 JUMP JUMPDEST PUSH1 0x2 DUP10 ADD SSTORE DUP1 MLOAD PUSH1 0x3 DUP10 ADD SSTORE PUSH1 0x20 DUP1 DUP3 ADD MLOAD PUSH1 0x4 DUP11 ADD SSTORE PUSH1 0x40 SWAP1 SWAP2 ADD MLOAD DUP1 MLOAD PUSH1 0x5 DUP11 ADD SSTORE ADD MLOAD PUSH1 0x6 SWAP1 SWAP8 ADD SWAP7 SWAP1 SWAP7 SSTORE POP POP POP POP POP POP JUMP JUMPDEST PUSH1 0x0 PUSH2 0x22B7 DUP4 DUP4 DUP1 MLOAD SWAP1 PUSH1 0x20 ADD KECCAK256 PUSH2 0x2BA8 JUMP JUMPDEST SWAP4 SWAP3 POP POP POP JUMP JUMPDEST PUSH1 0x60 PUSH2 0x22B7 DUP4 PUSH2 0x22CE DUP6 DUP6 PUSH2 0x2BBF JUMP JUMPDEST PUSH2 0x2BD2 JUMP JUMPDEST PUSH1 0x60 PUSH1 0x0 PUSH2 0x22E1 DUP5 DUP5 PUSH2 0x2BBF JUMP JUMPDEST SWAP1 POP DUP1 PUSH2 0x22ED JUMPI PUSH1 0x0 DUP1 REVERT JUMPDEST PUSH2 0x22F7 DUP5 DUP3 PUSH2 0x2BD2 JUMP JUMPDEST SWAP2 POP DUP2 DUP1 MLOAD SWAP1 PUSH1 0x20 ADD KECCAK256 DUP2 EQ PUSH2 0x230C JUMPI PUSH1 0x0 DUP1 REVERT JUMPDEST POP SWAP3 SWAP2 POP POP JUMP JUMPDEST PUSH2 0x231B PUSH2 0x31FB JUMP JUMPDEST DUP4 PUSH1 0x40 ADD MLOAD PUSH1 0x20 ADD MLOAD DUP4 PUSH1 0x20 ADD MLOAD LT ISZERO PUSH2 0x2334 JUMPI PUSH1 0x0 DUP1 REVERT JUMPDEST PUSH2 0x233C PUSH2 0x31E4 JUMP JUMPDEST PUSH2 0x2344 PUSH2 0x31E4 JUMP JUMPDEST PUSH2 0x2352 DUP6 DUP8 PUSH1 0x40 ADD MLOAD PUSH2 0x2C72 JUMP JUMPDEST PUSH1 0x20 DUP2 ADD MLOAD SWAP2 SWAP4 POP SWAP2 POP PUSH1 0x0 SWAP1 PUSH2 0x236A JUMPI POP DUP4 PUSH2 0x242D JUMP JUMPDEST DUP7 PUSH1 0x40 ADD MLOAD PUSH1 0x20 ADD MLOAD DUP4 PUSH1 0x20 ADD MLOAD LT ISZERO DUP1 ISZERO PUSH2 0x238A JUMPI POP PUSH2 0x238A DUP8 PUSH2 0x2C95 JUMP JUMPDEST ISZERO PUSH2 0x23A6 JUMPI PUSH2 0x239F DUP9 DUP9 PUSH1 0x20 ADD MLOAD DUP5 DUP9 PUSH2 0x2C9E JUMP JUMPDEST SWAP1 POP PUSH2 0x242D JUMP JUMPDEST PUSH1 0x0 PUSH2 0x23B0 PUSH2 0x31E4 JUMP JUMPDEST PUSH2 0x23B9 DUP5 PUSH2 0x2B13 JUMP JUMPDEST SWAP1 SWAP3 POP SWAP1 POP PUSH2 0x23C6 PUSH2 0x323D JUMP JUMPDEST PUSH2 0x23D0 DUP9 DUP4 PUSH2 0x2D8A JUMP JUMPDEST DUP2 MLOAD DUP5 PUSH1 0x2 DUP2 LT PUSH2 0x23DD JUMPI INVALID JUMPDEST PUSH1 0x20 MUL ADD DUP2 SWAP1 MSTORE POP PUSH2 0x2407 DUP11 PUSH1 0x20 ADD MLOAD PUSH2 0x2402 DUP13 PUSH1 0x40 ADD MLOAD DUP10 PUSH1 0x20 ADD MLOAD PUSH1 0x1 ADD PUSH2 0x2DA2 JUMP JUMPDEST PUSH2 0x2D8A JUMP JUMPDEST DUP2 MLOAD PUSH1 0x1 DUP6 SWAP1 SUB PUSH1 0x2 DUP2 LT PUSH2 0x2418 JUMPI INVALID JUMPDEST PUSH1 0x20 MUL ADD MSTORE PUSH2 0x2427 DUP12 DUP3 PUSH2 0x2E06 JUMP JUMPDEST SWAP4 POP POP POP POP JUMPDEST PUSH2 0x2437 DUP2 DUP5 PUSH2 0x2D8A JUMP JUMPDEST SWAP9 SWAP8 POP POP POP POP POP POP POP POP JUMP JUMPDEST PUSH1 0x0 PUSH2 0x244E DUP3 PUSH2 0x2B92 JUMP JUMPDEST ISZERO PUSH2 0x2458 JUMPI PUSH1 0x0 DUP1 REVERT JUMPDEST PUSH2 0x2461 DUP3 PUSH2 0x2C95 JUMP JUMPDEST ISZERO PUSH2 0x24AD JUMPI POP PUSH1 0x20 DUP1 DUP3 ADD MLOAD PUSH1 0x40 DUP1 DUP5 ADD MLOAD DUP1 DUP5 ADD MLOAD SWAP1 MLOAD DUP3 MLOAD DUP1 DUP7 ADD SWAP5 SWAP1 SWAP5 MSTORE DUP4 DUP4 ADD SWAP2 SWAP1 SWAP2 MSTORE PUSH1 0x60 DUP1 DUP5 ADD SWAP2 SWAP1 SWAP2 MSTORE DUP2 MLOAD DUP1 DUP5 SUB SWAP1 SWAP2 ADD DUP2 MSTORE PUSH1 0x80 SWAP1 SWAP3 ADD SWAP1 MSTORE DUP1 MLOAD SWAP2 ADD KECCAK256 PUSH2 0x158B JUMP JUMPDEST POP DUP1 MLOAD PUSH2 0x158B JUMP JUMPDEST PUSH1 0x0 DUP1 PUSH1 0x0 PUSH1 0x60 PUSH1 0x0 DUP1 PUSH2 0x24C7 PUSH2 0x31E4 JUMP JUMPDEST POP PUSH1 0x40 DUP1 MLOAD DUP1 DUP3 ADD SWAP1 SWAP2 MSTORE DUP8 DUP2 MSTORE PUSH2 0x100 PUSH1 0x20 DUP3 ADD MSTORE PUSH2 0x24E5 PUSH2 0x31FB JUMP JUMPDEST POP PUSH1 0x40 DUP1 MLOAD PUSH1 0x60 DUP2 ADD DUP3 MSTORE PUSH1 0x3 DUP12 ADD SLOAD DUP2 MSTORE PUSH1 0x4 DUP12 ADD SLOAD PUSH1 0x20 DUP1 DUP4 ADD SWAP2 SWAP1 SWAP2 MSTORE DUP3 MLOAD DUP1 DUP5 ADD DUP5 MSTORE PUSH1 0x5 DUP14 ADD SLOAD DUP2 MSTORE PUSH1 0x6 DUP14 ADD SLOAD SWAP2 DUP2 ADD SWAP2 SWAP1 SWAP2 MSTORE SWAP2 DUP2 ADD SWAP2 SWAP1 SWAP2 MSTORE PUSH2 0x252E PUSH2 0x3250 JUMP JUMPDEST DUP2 PUSH1 0x40 ADD MLOAD PUSH1 0x20 ADD MLOAD DUP4 PUSH1 0x20 ADD MLOAD LT ISZERO PUSH2 0x2547 JUMPI PUSH1 0x0 DUP1 REVERT JUMPDEST PUSH2 0x254F PUSH2 0x31E4 JUMP JUMPDEST PUSH2 0x2557 PUSH2 0x31E4 JUMP JUMPDEST PUSH2 0x2565 DUP6 DUP6 PUSH1 0x40 ADD MLOAD PUSH2 0x2C72 JUMP JUMPDEST PUSH1 0x20 DUP2 ADD MLOAD SWAP2 SWAP4 POP SWAP2 POP PUSH2 0x2578 JUMPI PUSH1 0x0 DUP1 REVERT JUMPDEST DUP4 PUSH1 0x40 ADD MLOAD PUSH1 0x20 ADD MLOAD DUP3 PUSH1 0x20 ADD MLOAD LT PUSH2 0x26CB JUMPI DUP2 PUSH1 0x20 ADD MLOAD DUP8 ADD SWAP7 POP DUP7 PUSH1 0xFF SUB PUSH1 0x1 SWAP1 SHL DUP10 OR SWAP9 POP PUSH1 0x1 DUP8 ADD SWAP7 POP PUSH1 0x0 PUSH2 0x25B1 DUP3 PUSH2 0x2B13 JUMP JUMPDEST DUP1 SWAP8 POP DUP2 SWAP3 POP POP POP PUSH2 0x2636 DUP15 PUSH1 0x1 ADD PUSH1 0x0 DUP8 PUSH1 0x20 ADD MLOAD DUP2 MSTORE PUSH1 0x20 ADD SWAP1 DUP2 MSTORE PUSH1 0x20 ADD PUSH1 0x0 KECCAK256 PUSH1 0x0 ADD DUP3 PUSH1 0x1 SUB PUSH1 0x2 DUP2 LT PUSH2 0x25E6 JUMPI INVALID JUMPDEST PUSH1 0x4 MUL ADD PUSH1 0x40 MLOAD DUP1 PUSH1 0x60 ADD PUSH1 0x40 MSTORE SWAP1 DUP2 PUSH1 0x0 DUP3 ADD SLOAD DUP2 MSTORE PUSH1 0x20 ADD PUSH1 0x1 DUP3 ADD SLOAD DUP2 MSTORE PUSH1 0x20 ADD PUSH1 0x2 DUP3 ADD PUSH1 0x40 MLOAD DUP1 PUSH1 0x40 ADD PUSH1 0x40 MSTORE SWAP1 DUP2 PUSH1 0x0 DUP3 ADD SLOAD DUP2 MSTORE PUSH1 0x20 ADD PUSH1 0x1 DUP3 ADD SLOAD DUP2 MSTORE POP POP DUP2 MSTORE POP POP PUSH2 0x2443 JUMP JUMPDEST PUSH1 0x1 DUP9 ADD SWAP8 DUP6 SWAP1 PUSH2 0x100 DUP2 LT PUSH2 0x2648 JUMPI INVALID JUMPDEST PUSH1 0x20 MUL ADD DUP2 DUP2 MSTORE POP POP DUP14 PUSH1 0x1 ADD PUSH1 0x0 DUP7 PUSH1 0x20 ADD MLOAD DUP2 MSTORE PUSH1 0x20 ADD SWAP1 DUP2 MSTORE PUSH1 0x20 ADD PUSH1 0x0 KECCAK256 PUSH1 0x0 ADD DUP2 PUSH1 0x2 DUP2 LT PUSH2 0x2678 JUMPI INVALID JUMPDEST PUSH1 0x4 MUL ADD PUSH1 0x40 MLOAD DUP1 PUSH1 0x60 ADD PUSH1 0x40 MSTORE SWAP1 DUP2 PUSH1 0x0 DUP3 ADD SLOAD DUP2 MSTORE PUSH1 0x20 ADD PUSH1 0x1 DUP3 ADD SLOAD DUP2 MSTORE PUSH1 0x20 ADD PUSH1 0x2 DUP3 ADD PUSH1 0x40 MLOAD DUP1 PUSH1 0x40 ADD PUSH1 0x40 MSTORE SWAP1 DUP2 PUSH1 0x0 DUP3 ADD SLOAD DUP2 MSTORE PUSH1 0x20 ADD PUSH1 0x1 DUP3 ADD SLOAD DUP2 MSTORE POP POP DUP2 MSTORE POP POP SWAP5 POP POP PUSH2 0x26E2 JUMP JUMPDEST POP POP PUSH1 0x40 DUP3 ADD MLOAD MLOAD PUSH1 0x20 DUP4 ADD MLOAD SWAP1 SWAP10 POP SWAP8 POP PUSH2 0x26E9 JUMP JUMPDEST POP POP PUSH2 0x252E JUMP JUMPDEST DUP4 ISZERO PUSH2 0x275A JUMPI DUP4 PUSH1 0x40 MLOAD SWAP1 DUP1 DUP3 MSTORE DUP1 PUSH1 0x20 MUL PUSH1 0x20 ADD DUP3 ADD PUSH1 0x40 MSTORE DUP1 ISZERO PUSH2 0x2719 JUMPI DUP2 PUSH1 0x20 ADD PUSH1 0x20 DUP3 MUL DUP1 CODESIZE DUP4 CODECOPY ADD SWAP1 POP JUMPDEST POP SWAP6 POP PUSH1 0x0 JUMPDEST DUP5 DUP2 LT ISZERO PUSH2 0x2758 JUMPI DUP2 DUP2 PUSH2 0x100 DUP2 LT PUSH2 0x2734 JUMPI INVALID JUMPDEST PUSH1 0x20 MUL ADD MLOAD DUP8 DUP3 DUP2 MLOAD DUP2 LT PUSH2 0x2745 JUMPI INVALID JUMPDEST PUSH1 0x20 SWAP1 DUP2 MUL SWAP2 SWAP1 SWAP2 ADD ADD MSTORE PUSH1 0x1 ADD PUSH2 0x271F JUMP JUMPDEST POP JUMPDEST POP POP POP POP POP SWAP3 SWAP6 SWAP2 SWAP5 POP SWAP3 POP JUMP JUMPDEST PUSH1 0x0 PUSH1 0x60 PUSH2 0x2774 PUSH2 0x31E4 JUMP JUMPDEST POP PUSH1 0x40 DUP1 MLOAD DUP1 DUP3 ADD SWAP1 SWAP2 MSTORE DUP4 DUP2 MSTORE PUSH2 0x100 PUSH1 0x20 DUP3 ADD MSTORE PUSH2 0x2792 PUSH2 0x31FB JUMP JUMPDEST POP PUSH1 0x40 DUP1 MLOAD PUSH1 0x60 DUP2 ADD DUP3 MSTORE PUSH1 0x3 DUP8 ADD SLOAD DUP2 MSTORE PUSH1 0x4 DUP8 ADD SLOAD PUSH1 0x20 DUP1 DUP4 ADD SWAP2 SWAP1 SWAP2 MSTORE DUP3 MLOAD DUP1 DUP5 ADD DUP5 MSTORE PUSH1 0x5 DUP10 ADD SLOAD DUP2 MSTORE PUSH1 0x6 DUP10 ADD SLOAD SWAP2 DUP2 ADD SWAP2 SWAP1 SWAP2 MSTORE SWAP2 DUP2 ADD SWAP2 SWAP1 SWAP2 MSTORE PUSH2 0x27DB PUSH2 0x3250 JUMP JUMPDEST PUSH1 0x0 DUP1 JUMPDEST PUSH2 0x27E7 PUSH2 0x31E4 JUMP JUMPDEST PUSH2 0x27EF PUSH2 0x31E4 JUMP JUMPDEST PUSH2 0x27FD DUP8 DUP8 PUSH1 0x40 ADD MLOAD PUSH2 0x2C72 JUMP JUMPDEST DUP1 SWAP3 POP DUP2 SWAP4 POP POP POP DUP6 PUSH1 0x40 ADD MLOAD PUSH1 0x20 ADD MLOAD DUP3 PUSH1 0x20 ADD MLOAD EQ PUSH2 0x281D JUMPI PUSH1 0x0 DUP1 REVERT JUMPDEST PUSH1 0x20 DUP2 ADD MLOAD PUSH2 0x282D JUMPI POP POP PUSH2 0x292B JUMP JUMPDEST DUP2 PUSH1 0x20 ADD MLOAD DUP5 ADD SWAP4 POP DUP4 PUSH1 0xFF SUB PUSH1 0x1 SWAP1 SHL DUP10 OR SWAP9 POP PUSH1 0x1 DUP5 ADD SWAP4 POP PUSH1 0x0 PUSH2 0x2852 PUSH2 0x31E4 JUMP JUMPDEST PUSH2 0x285B DUP4 PUSH2 0x2B13 JUMP JUMPDEST DUP1 SWAP3 POP DUP2 SWAP4 POP POP POP PUSH2 0x2890 DUP14 PUSH1 0x1 ADD PUSH1 0x0 DUP11 PUSH1 0x20 ADD MLOAD DUP2 MSTORE PUSH1 0x20 ADD SWAP1 DUP2 MSTORE PUSH1 0x20 ADD PUSH1 0x0 KECCAK256 PUSH1 0x0 ADD DUP4 PUSH1 0x1 SUB PUSH1 0x2 DUP2 LT PUSH2 0x25E6 JUMPI INVALID JUMPDEST PUSH1 0x1 DUP7 ADD SWAP6 DUP9 SWAP1 PUSH2 0x100 DUP2 LT PUSH2 0x28A2 JUMPI INVALID JUMPDEST PUSH1 0x20 MUL ADD DUP2 DUP2 MSTORE POP POP DUP13 PUSH1 0x1 ADD PUSH1 0x0 DUP10 PUSH1 0x20 ADD MLOAD DUP2 MSTORE PUSH1 0x20 ADD SWAP1 DUP2 MSTORE PUSH1 0x20 ADD PUSH1 0x0 KECCAK256 PUSH1 0x0 ADD DUP3 PUSH1 0x2 DUP2 LT PUSH2 0x28D2 JUMPI INVALID JUMPDEST PUSH1 0x4 MUL ADD PUSH1 0x40 MLOAD DUP1 PUSH1 0x60 ADD PUSH1 0x40 MSTORE SWAP1 DUP2 PUSH1 0x0 DUP3 ADD SLOAD DUP2 MSTORE PUSH1 0x20 ADD PUSH1 0x1 DUP3 ADD SLOAD DUP2 MSTORE PUSH1 0x20 ADD PUSH1 0x2 DUP3 ADD PUSH1 0x40 MLOAD DUP1 PUSH1 0x40 ADD PUSH1 0x40 MSTORE SWAP1 DUP2 PUSH1 0x0 DUP3 ADD SLOAD DUP2 MSTORE PUSH1 0x20 ADD PUSH1 0x1 DUP3 ADD SLOAD DUP2 MSTORE POP POP DUP2 MSTORE POP POP SWAP8 POP DUP1 SWAP9 POP POP POP POP POP PUSH2 0x27DF JUMP JUMPDEST DUP1 ISZERO PUSH2 0x299C JUMPI DUP1 PUSH1 0x40 MLOAD SWAP1 DUP1 DUP3 MSTORE DUP1 PUSH1 0x20 MUL PUSH1 0x20 ADD DUP3 ADD PUSH1 0x40 MSTORE DUP1 ISZERO PUSH2 0x295B JUMPI DUP2 PUSH1 0x20 ADD PUSH1 0x20 DUP3 MUL DUP1 CODESIZE DUP4 CODECOPY ADD SWAP1 POP JUMPDEST POP SWAP6 POP PUSH1 0x0 JUMPDEST DUP2 DUP2 LT ISZERO PUSH2 0x299A JUMPI DUP4 DUP2 PUSH2 0x100 DUP2 LT PUSH2 0x2976 JUMPI INVALID JUMPDEST PUSH1 0x20 MUL ADD MLOAD DUP8 DUP3 DUP2 MLOAD DUP2 LT PUSH2 0x2987 JUMPI INVALID JUMPDEST PUSH1 0x20 SWAP1 DUP2 MUL SWAP2 SWAP1 SWAP2 ADD ADD MSTORE PUSH1 0x1 ADD PUSH2 0x2961 JUMP JUMPDEST POP JUMPDEST POP POP POP POP POP SWAP3 POP SWAP3 SWAP1 POP JUMP JUMPDEST PUSH1 0x0 DUP2 PUSH2 0x29EB JUMPI PUSH1 0x40 DUP1 MLOAD PUSH3 0x461BCD PUSH1 0xE5 SHL DUP2 MSTORE PUSH1 0x20 PUSH1 0x4 DUP3 ADD MSTORE PUSH1 0xC PUSH1 0x24 DUP3 ADD MSTORE PUSH12 0x10985908189A5D199A595B19 PUSH1 0xA2 SHL PUSH1 0x44 DUP3 ADD MSTORE SWAP1 MLOAD SWAP1 DUP2 SWAP1 SUB PUSH1 0x64 ADD SWAP1 REVERT JUMPDEST DUP2 PUSH1 0x0 JUMPDEST PUSH1 0x20 DUP2 LT ISZERO PUSH2 0x2A27 JUMPI DUP2 DUP2 PUSH1 0x1F SUB PUSH1 0x20 DUP2 LT PUSH2 0x2A07 JUMPI INVALID JUMPDEST BYTE PUSH1 0xF8 SHL PUSH1 0x1 PUSH1 0x1 PUSH1 0xF8 SHL SUB NOT AND ISZERO PUSH2 0x2A1F JUMPI PUSH2 0x2A27 JUMP JUMPDEST PUSH1 0x1 ADD PUSH2 0x29EF JUMP JUMPDEST PUSH1 0x0 DUP3 DUP3 PUSH1 0x1F SUB PUSH1 0x20 DUP2 LT PUSH2 0x2A38 JUMPI INVALID JUMPDEST PUSH1 0x0 SWAP6 POP BYTE SWAP1 POP PUSH1 0x1 JUMPDEST PUSH2 0x100 DUP6 LT ISZERO PUSH2 0x2A70 JUMPI DUP2 DUP2 AND ISZERO PUSH2 0x2A63 JUMPI POP POP PUSH1 0x8 MUL SWAP1 SWAP2 ADD SWAP1 POP PUSH2 0x158B JUMP JUMPDEST PUSH1 0x1 SWAP1 SWAP5 ADD SWAP4 DUP1 ADD PUSH2 0x2A42 JUMP JUMPDEST INVALID JUMPDEST PUSH2 0x2A7A PUSH2 0x31E4 JUMP JUMPDEST PUSH2 0x2A82 PUSH2 0x31E4 JUMP JUMPDEST DUP4 PUSH1 0x20 ADD MLOAD DUP4 GT ISZERO DUP1 ISZERO PUSH2 0x2A98 JUMPI POP PUSH2 0x100 DUP4 GT ISZERO JUMPDEST PUSH2 0x2AD3 JUMPI PUSH1 0x40 DUP1 MLOAD PUSH3 0x461BCD PUSH1 0xE5 SHL DUP2 MSTORE PUSH1 0x20 PUSH1 0x4 DUP3 ADD MSTORE PUSH1 0x7 PUSH1 0x24 DUP3 ADD MSTORE PUSH7 0x42616420706F73 PUSH1 0xC8 SHL PUSH1 0x44 DUP3 ADD MSTORE SWAP1 MLOAD SWAP1 DUP2 SWAP1 SUB PUSH1 0x64 ADD SWAP1 REVERT JUMPDEST PUSH1 0x20 DUP3 ADD DUP4 SWAP1 MSTORE DUP3 PUSH2 0x2AE8 JUMPI PUSH1 0x0 DUP3 MSTORE PUSH2 0x2AFC JUMP JUMPDEST DUP4 MLOAD PUSH1 0x0 NOT PUSH1 0x1 PUSH2 0x100 DUP7 SWAP1 SUB SHL ADD NOT AND DUP3 MSTORE JUMPDEST PUSH1 0x20 DUP1 DUP6 ADD MLOAD DUP5 SWAP1 SUB SWAP1 DUP3 ADD MSTORE SWAP3 MLOAD SWAP1 SWAP2 SHL DUP3 MSTORE SWAP2 JUMP JUMPDEST PUSH1 0x0 PUSH2 0x2B1D PUSH2 0x31E4 JUMP JUMPDEST PUSH1 0x0 DUP4 PUSH1 0x20 ADD MLOAD GT PUSH2 0x2B66 JUMPI PUSH1 0x40 DUP1 MLOAD PUSH3 0x461BCD PUSH1 0xE5 SHL DUP2 MSTORE PUSH1 0x20 PUSH1 0x4 DUP3 ADD MSTORE PUSH1 0xD PUSH1 0x24 DUP3 ADD MSTORE PUSH13 0x115B5C1D1E48195B195B595B9D PUSH1 0x9A SHL PUSH1 0x44 DUP3 ADD MSTORE SWAP1 MLOAD SWAP1 DUP2 SWAP1 SUB PUSH1 0x64 ADD SWAP1 REVERT JUMPDEST POP POP DUP1 MLOAD PUSH1 0x40 DUP1 MLOAD DUP1 DUP3 ADD SWAP1 SWAP2 MSTORE DUP3 MLOAD PUSH1 0x1 SHL DUP2 MSTORE PUSH1 0x20 SWAP3 DUP4 ADD MLOAD PUSH1 0x0 NOT ADD SWAP3 DUP2 ADD SWAP3 SWAP1 SWAP3 MSTORE PUSH1 0xFF SHR SWAP2 JUMP JUMPDEST DUP1 MLOAD PUSH1 0x0 SWAP1 ISZERO DUP1 ISZERO PUSH2 0x1AB8 JUMPI POP POP PUSH1 0x20 ADD MLOAD ISZERO SWAP1 JUMP JUMPDEST PUSH1 0x0 DUP1 PUSH2 0x2BB5 DUP5 DUP5 PUSH2 0x2E7F JUMP JUMPDEST ISZERO ISZERO SWAP5 SWAP4 POP POP POP POP JUMP JUMPDEST PUSH1 0x0 PUSH2 0x22B7 DUP4 DUP4 DUP1 MLOAD SWAP1 PUSH1 0x20 ADD KECCAK256 PUSH2 0x2E7F JUMP JUMPDEST PUSH1 0x0 DUP2 DUP2 MSTORE PUSH1 0x20 DUP4 DUP2 MSTORE PUSH1 0x40 SWAP2 DUP3 SWAP1 KECCAK256 DUP1 SLOAD DUP4 MLOAD PUSH1 0x1F PUSH1 0x2 PUSH1 0x0 NOT PUSH2 0x100 PUSH1 0x1 DUP7 AND ISZERO MUL ADD SWAP1 SWAP4 AND SWAP3 SWAP1 SWAP3 DIV SWAP2 DUP3 ADD DUP5 SWAP1 DIV DUP5 MUL DUP2 ADD DUP5 ADD SWAP1 SWAP5 MSTORE DUP1 DUP5 MSTORE PUSH1 0x60 SWAP4 SWAP3 DUP4 ADD DUP3 DUP3 DUP1 ISZERO PUSH2 0x2C65 JUMPI DUP1 PUSH1 0x1F LT PUSH2 0x2C3A JUMPI PUSH2 0x100 DUP1 DUP4 SLOAD DIV MUL DUP4 MSTORE SWAP2 PUSH1 0x20 ADD SWAP2 PUSH2 0x2C65 JUMP JUMPDEST DUP3 ADD SWAP2 SWAP1 PUSH1 0x0 MSTORE PUSH1 0x20 PUSH1 0x0 KECCAK256 SWAP1 JUMPDEST DUP2 SLOAD DUP2 MSTORE SWAP1 PUSH1 0x1 ADD SWAP1 PUSH1 0x20 ADD DUP1 DUP4 GT PUSH2 0x2C48 JUMPI DUP3 SWAP1 SUB PUSH1 0x1F AND DUP3 ADD SWAP2 JUMPDEST POP POP POP POP POP SWAP1 POP SWAP3 SWAP2 POP POP JUMP JUMPDEST PUSH2 0x2C7A PUSH2 0x31E4 JUMP JUMPDEST PUSH2 0x2C82 PUSH2 0x31E4 JUMP JUMPDEST PUSH2 0x1FC9 DUP5 PUSH2 0x2C90 DUP6 DUP8 PUSH2 0x2F0F JUMP JUMPDEST PUSH2 0x2A72 JUMP JUMPDEST PUSH1 0x20 ADD MLOAD ISZERO ISZERO SWAP1 JUMP JUMPDEST PUSH1 0x0 PUSH2 0x2CA8 PUSH2 0x323D JUMP JUMPDEST PUSH1 0x0 DUP6 DUP2 MSTORE PUSH1 0x1 DUP8 ADD PUSH1 0x20 SWAP1 DUP2 MSTORE PUSH1 0x40 DUP1 DUP4 KECCAK256 DUP2 MLOAD PUSH1 0x60 DUP2 ADD SWAP1 SWAP3 MSTORE SWAP1 SWAP3 SWAP1 SWAP2 DUP4 SWAP2 SWAP1 DUP3 ADD SWAP1 DUP4 SWAP1 PUSH1 0x2 SWAP1 DUP4 JUMPDEST DUP3 DUP3 LT ISZERO PUSH2 0x2D2C JUMPI PUSH1 0x40 DUP1 MLOAD PUSH1 0x60 DUP2 ADD DUP3 MSTORE PUSH1 0x4 DUP5 MUL DUP7 ADD DUP1 SLOAD DUP3 MSTORE PUSH1 0x1 DUP1 DUP3 ADD SLOAD PUSH1 0x20 DUP1 DUP6 ADD SWAP2 SWAP1 SWAP2 MSTORE DUP5 MLOAD DUP1 DUP7 ADD DUP7 MSTORE PUSH1 0x2 DUP5 ADD SLOAD DUP2 MSTORE PUSH1 0x3 SWAP1 SWAP4 ADD SLOAD DUP4 DUP3 ADD MSTORE SWAP4 DUP4 ADD SWAP2 SWAP1 SWAP2 MSTORE SWAP1 DUP4 MSTORE SWAP1 SWAP3 ADD SWAP2 ADD PUSH2 0x2CD5 JUMP JUMPDEST POP POP POP POP DUP2 MSTORE POP POP SWAP1 POP PUSH1 0x0 PUSH2 0x2D40 PUSH2 0x31E4 JUMP JUMPDEST PUSH2 0x2D49 DUP7 PUSH2 0x2B13 JUMP JUMPDEST DUP5 MLOAD SWAP2 SWAP4 POP SWAP2 POP PUSH2 0x2D6D SWAP1 DUP10 SWAP1 DUP5 PUSH1 0x2 DUP2 LT PUSH2 0x2D61 JUMPI INVALID JUMPDEST PUSH1 0x20 MUL ADD MLOAD DUP4 DUP9 PUSH2 0x2313 JUMP JUMPDEST DUP4 MLOAD DUP4 PUSH1 0x2 DUP2 LT PUSH2 0x2D7A JUMPI INVALID JUMPDEST PUSH1 0x20 MUL ADD MSTORE PUSH2 0x2437 DUP9 DUP9 DUP6 PUSH2 0x2F6C JUMP JUMPDEST PUSH2 0x2D92 PUSH2 0x31FB JUMP JUMPDEST PUSH1 0x20 DUP2 ADD SWAP3 SWAP1 SWAP3 MSTORE PUSH1 0x40 DUP3 ADD MSTORE SWAP1 JUMP JUMPDEST PUSH2 0x2DAA PUSH2 0x31E4 JUMP JUMPDEST DUP3 PUSH1 0x20 ADD MLOAD DUP3 GT ISZERO PUSH2 0x2DF0 JUMPI PUSH1 0x40 DUP1 MLOAD PUSH3 0x461BCD PUSH1 0xE5 SHL DUP2 MSTORE PUSH1 0x20 PUSH1 0x4 DUP3 ADD MSTORE PUSH1 0xA PUSH1 0x24 DUP3 ADD MSTORE PUSH10 0x109859081B195B99DA1D PUSH1 0xB2 SHL PUSH1 0x44 DUP3 ADD MSTORE SWAP1 MLOAD SWAP1 DUP2 SWAP1 SUB PUSH1 0x64 ADD SWAP1 REVERT JUMPDEST PUSH1 0x20 DUP1 DUP5 ADD MLOAD DUP4 SWAP1 SUB SWAP1 DUP3 ADD MSTORE SWAP2 MLOAD SWAP1 SHL DUP2 MSTORE SWAP1 JUMP JUMPDEST PUSH1 0x0 DUP1 PUSH2 0x2E12 DUP4 PUSH2 0x2F9B JUMP JUMPDEST DUP4 MLOAD MLOAD PUSH1 0x0 DUP3 DUP2 MSTORE PUSH1 0x1 SWAP7 DUP8 ADD PUSH1 0x20 SWAP1 DUP2 MSTORE PUSH1 0x40 SWAP2 DUP3 SWAP1 KECCAK256 DUP4 MLOAD DUP2 SSTORE DUP4 DUP3 ADD MLOAD SWAP9 DUP2 ADD SWAP9 SWAP1 SWAP9 SSTORE SWAP2 DUP2 ADD MLOAD DUP1 MLOAD PUSH1 0x2 DUP10 ADD SSTORE DUP3 ADD MLOAD PUSH1 0x3 DUP9 ADD SSTORE SWAP5 MLOAD DUP2 ADD MLOAD DUP1 MLOAD PUSH1 0x4 DUP9 ADD SSTORE DUP1 DUP3 ADD MLOAD PUSH1 0x5 DUP9 ADD SSTORE SWAP1 SWAP5 ADD MLOAD DUP1 MLOAD PUSH1 0x6 DUP8 ADD SSTORE SWAP1 SWAP4 ADD MLOAD PUSH1 0x7 SWAP1 SWAP5 ADD SWAP4 SWAP1 SWAP4 SSTORE POP SWAP2 SWAP1 POP JUMP JUMPDEST PUSH1 0x4 DUP3 ADD SLOAD PUSH1 0x0 SWAP1 ISZERO DUP1 ISZERO PUSH2 0x2E96 JUMPI POP PUSH1 0x6 DUP4 ADD SLOAD ISZERO JUMPDEST ISZERO PUSH2 0x2EA3 JUMPI POP PUSH1 0x0 PUSH2 0x1AB8 JUMP JUMPDEST PUSH2 0x2EAB PUSH2 0x31E4 JUMP JUMPDEST POP PUSH1 0x40 DUP1 MLOAD DUP1 DUP3 ADD DUP3 MSTORE DUP4 DUP2 MSTORE PUSH2 0x100 PUSH1 0x20 DUP1 DUP4 ADD SWAP2 SWAP1 SWAP2 MSTORE DUP3 MLOAD PUSH1 0x60 DUP2 ADD DUP5 MSTORE PUSH1 0x3 DUP8 ADD SLOAD DUP2 MSTORE PUSH1 0x4 DUP8 ADD SLOAD DUP2 DUP4 ADD MSTORE DUP4 MLOAD DUP1 DUP6 ADD DUP6 MSTORE PUSH1 0x5 DUP9 ADD SLOAD DUP2 MSTORE PUSH1 0x6 DUP9 ADD SLOAD SWAP3 DUP2 ADD SWAP3 SWAP1 SWAP3 MSTORE SWAP3 DUP4 ADD MSTORE SWAP1 PUSH2 0x2F07 SWAP1 DUP6 SWAP1 DUP4 PUSH2 0x2FF1 JUMP JUMPDEST SWAP2 POP POP PUSH2 0x1AB8 JUMP JUMPDEST PUSH1 0x0 DUP1 DUP3 PUSH1 0x20 ADD MLOAD DUP5 PUSH1 0x20 ADD MLOAD LT PUSH2 0x2F2B JUMPI DUP3 PUSH1 0x20 ADD MLOAD PUSH2 0x2F31 JUMP JUMPDEST DUP4 PUSH1 0x20 ADD MLOAD JUMPDEST DUP4 MLOAD DUP6 MLOAD SWAP2 SWAP3 POP XOR PUSH1 0x1 PUSH1 0xFF SHL JUMPDEST DUP3 DUP5 LT ISZERO PUSH2 0x2F63 JUMPI DUP1 DUP3 AND ISZERO PUSH2 0x2F54 JUMPI PUSH2 0x2F63 JUMP JUMPDEST PUSH1 0x1 SWAP1 SWAP4 ADD SWAP3 SWAP1 DUP1 ADD SWAP1 PUSH2 0x2F3F JUMP JUMPDEST POP POP POP SWAP3 SWAP2 POP POP JUMP JUMPDEST PUSH1 0x0 DUP3 DUP2 MSTORE PUSH1 0x1 DUP5 ADD PUSH1 0x20 MSTORE PUSH1 0x40 DUP2 KECCAK256 DUP2 PUSH2 0x2F87 DUP3 DUP3 PUSH2 0x3270 JUMP JUMPDEST POP POP PUSH2 0x2F93 DUP5 DUP4 PUSH2 0x2E06 JUMP JUMPDEST SWAP5 SWAP4 POP POP POP POP JUMP JUMPDEST DUP1 MLOAD PUSH1 0x0 SWAP1 PUSH2 0x2FB0 SWAP1 DUP3 JUMPDEST PUSH1 0x20 MUL ADD MLOAD PUSH2 0x2443 JUMP JUMPDEST DUP3 MLOAD PUSH2 0x2FBD SWAP1 PUSH1 0x1 PUSH2 0x2FA6 JUMP JUMPDEST PUSH1 0x40 MLOAD PUSH1 0x20 ADD DUP1 DUP4 DUP2 MSTORE PUSH1 0x20 ADD DUP3 DUP2 MSTORE PUSH1 0x20 ADD SWAP3 POP POP POP PUSH1 0x40 MLOAD PUSH1 0x20 DUP2 DUP4 SUB SUB DUP2 MSTORE SWAP1 PUSH1 0x40 MSTORE DUP1 MLOAD SWAP1 PUSH1 0x20 ADD KECCAK256 SWAP1 POP SWAP2 SWAP1 POP JUMP JUMPDEST PUSH1 0x0 DUP3 PUSH1 0x40 ADD MLOAD PUSH1 0x20 ADD MLOAD DUP3 PUSH1 0x20 ADD MLOAD LT ISZERO PUSH2 0x300C JUMPI PUSH1 0x0 DUP1 REVERT JUMPDEST PUSH2 0x3014 PUSH2 0x31E4 JUMP JUMPDEST PUSH2 0x301C PUSH2 0x31E4 JUMP JUMPDEST PUSH2 0x302A DUP5 DUP7 PUSH1 0x40 ADD MLOAD PUSH2 0x2C72 JUMP JUMPDEST PUSH1 0x20 DUP2 ADD MLOAD SWAP2 SWAP4 POP SWAP2 POP PUSH2 0x3045 JUMPI POP POP POP PUSH1 0x20 DUP3 ADD MLOAD PUSH2 0x22B7 JUMP JUMPDEST DUP5 PUSH1 0x40 ADD MLOAD PUSH1 0x20 ADD MLOAD DUP3 PUSH1 0x20 ADD MLOAD LT PUSH2 0x3070 JUMPI PUSH2 0x3067 DUP7 DUP7 PUSH1 0x20 ADD MLOAD DUP4 PUSH2 0x307C JUMP JUMPDEST SWAP3 POP POP POP PUSH2 0x22B7 JUMP JUMPDEST POP PUSH1 0x0 SWAP2 POP PUSH2 0x22B7 SWAP1 POP JUMP JUMPDEST PUSH1 0x0 PUSH1 0x1 DUP3 PUSH1 0x20 ADD MLOAD GT PUSH2 0x308F JUMPI PUSH1 0x0 DUP1 REVERT JUMPDEST PUSH2 0x3097 PUSH2 0x323D JUMP JUMPDEST PUSH1 0x0 DUP5 DUP2 MSTORE PUSH1 0x1 DUP7 ADD PUSH1 0x20 SWAP1 DUP2 MSTORE PUSH1 0x40 DUP1 DUP4 KECCAK256 DUP2 MLOAD PUSH1 0x60 DUP2 ADD SWAP1 SWAP3 MSTORE SWAP1 SWAP3 SWAP1 SWAP2 DUP4 SWAP2 SWAP1 DUP3 ADD SWAP1 DUP4 SWAP1 PUSH1 0x2 SWAP1 DUP4 JUMPDEST DUP3 DUP3 LT ISZERO PUSH2 0x311B JUMPI PUSH1 0x40 DUP1 MLOAD PUSH1 0x60 DUP2 ADD DUP3 MSTORE PUSH1 0x4 DUP5 MUL DUP7 ADD DUP1 SLOAD DUP3 MSTORE PUSH1 0x1 DUP1 DUP3 ADD SLOAD PUSH1 0x20 DUP1 DUP6 ADD SWAP2 SWAP1 SWAP2 MSTORE DUP5 MLOAD DUP1 DUP7 ADD DUP7 MSTORE PUSH1 0x2 DUP5 ADD SLOAD DUP2 MSTORE PUSH1 0x3 SWAP1 SWAP4 ADD SLOAD DUP4 DUP3 ADD MSTORE SWAP4 DUP4 ADD SWAP2 SWAP1 SWAP2 MSTORE SWAP1 DUP4 MSTORE SWAP1 SWAP3 ADD SWAP2 ADD PUSH2 0x30C4 JUMP JUMPDEST POP POP POP POP DUP2 MSTORE POP POP SWAP1 POP PUSH1 0x0 PUSH2 0x312F PUSH2 0x31E4 JUMP JUMPDEST PUSH2 0x3138 DUP6 PUSH2 0x2B13 JUMP JUMPDEST DUP5 MLOAD SWAP2 SWAP4 POP SWAP2 POP PUSH2 0x315B SWAP1 DUP9 SWAP1 DUP5 PUSH1 0x2 DUP2 LT PUSH2 0x3150 JUMPI INVALID JUMPDEST PUSH1 0x20 MUL ADD MLOAD DUP4 PUSH2 0x2FF1 JUMP JUMPDEST SWAP8 SWAP7 POP POP POP POP POP POP POP JUMP JUMPDEST DUP3 DUP1 SLOAD PUSH1 0x1 DUP2 PUSH1 0x1 AND ISZERO PUSH2 0x100 MUL SUB AND PUSH1 0x2 SWAP1 DIV SWAP1 PUSH1 0x0 MSTORE PUSH1 0x20 PUSH1 0x0 KECCAK256 SWAP1 PUSH1 0x1F ADD PUSH1 0x20 SWAP1 DIV DUP2 ADD SWAP3 DUP3 PUSH1 0x1F LT PUSH2 0x31A7 JUMPI DUP1 MLOAD PUSH1 0xFF NOT AND DUP4 DUP1 ADD OR DUP6 SSTORE PUSH2 0x31D4 JUMP JUMPDEST DUP3 DUP1 ADD PUSH1 0x1 ADD DUP6 SSTORE DUP3 ISZERO PUSH2 0x31D4 JUMPI SWAP2 DUP3 ADD JUMPDEST DUP3 DUP2 GT ISZERO PUSH2 0x31D4 JUMPI DUP3 MLOAD DUP3 SSTORE SWAP2 PUSH1 0x20 ADD SWAP2 SWAP1 PUSH1 0x1 ADD SWAP1 PUSH2 0x31B9 JUMP JUMPDEST POP PUSH2 0x31E0 SWAP3 SWAP2 POP PUSH2 0x32A8 JUMP JUMPDEST POP SWAP1 JUMP JUMPDEST PUSH1 0x40 DUP1 MLOAD DUP1 DUP3 ADD SWAP1 SWAP2 MSTORE PUSH1 0x0 DUP1 DUP3 MSTORE PUSH1 0x20 DUP3 ADD MSTORE SWAP1 JUMP JUMPDEST PUSH1 0x40 DUP1 MLOAD PUSH1 0x60 DUP2 ADD DUP3 MSTORE PUSH1 0x0 DUP1 DUP3 MSTORE PUSH1 0x20 DUP3 ADD MSTORE SWAP1 DUP2 ADD PUSH2 0x321A PUSH2 0x31E4 JUMP JUMPDEST SWAP1 MSTORE SWAP1 JUMP JUMPDEST PUSH1 0x40 MLOAD DUP1 PUSH1 0x40 ADD PUSH1 0x40 MSTORE DUP1 PUSH1 0x2 SWAP1 PUSH1 0x20 DUP3 MUL DUP1 CODESIZE DUP4 CODECOPY POP SWAP2 SWAP3 SWAP2 POP POP JUMP JUMPDEST PUSH1 0x40 MLOAD DUP1 PUSH1 0x20 ADD PUSH1 0x40 MSTORE DUP1 PUSH2 0x321A PUSH2 0x32C2 JUMP JUMPDEST PUSH1 0x40 MLOAD DUP1 PUSH2 0x2000 ADD PUSH1 0x40 MSTORE DUP1 PUSH2 0x100 SWAP1 PUSH1 0x20 DUP3 MUL DUP1 CODESIZE DUP4 CODECOPY POP SWAP2 SWAP3 SWAP2 POP POP JUMP JUMPDEST POP PUSH1 0x0 DUP1 DUP3 SSTORE PUSH1 0x1 DUP3 ADD DUP2 SWAP1 SSTORE PUSH1 0x2 DUP3 ADD DUP2 SWAP1 SSTORE PUSH1 0x3 DUP3 ADD DUP2 SWAP1 SSTORE PUSH1 0x4 DUP3 ADD DUP2 SWAP1 SSTORE PUSH1 0x5 DUP3 ADD DUP2 SWAP1 SSTORE PUSH1 0x6 DUP3 ADD DUP2 SWAP1 SSTORE PUSH1 0x7 SWAP1 SWAP2 ADD SSTORE JUMP JUMPDEST PUSH2 0x159F SWAP2 SWAP1 JUMPDEST DUP1 DUP3 GT ISZERO PUSH2 0x31E0 JUMPI PUSH1 0x0 DUP2 SSTORE PUSH1 0x1 ADD PUSH2 0x32AE JUMP JUMPDEST PUSH1 0x40 MLOAD DUP1 PUSH1 0x40 ADD PUSH1 0x40 MSTORE DUP1 PUSH1 0x2 SWAP1 JUMPDEST PUSH2 0x32D9 PUSH2 0x31FB JUMP JUMPDEST DUP2 MSTORE PUSH1 0x20 ADD SWAP1 PUSH1 0x1 SWAP1 SUB SWAP1 DUP2 PUSH2 0x32D1 JUMPI SWAP1 POP POP SWAP1 JUMP JUMPDEST PUSH1 0x2 DUP3 ADD SLOAD ISZERO PUSH2 0x32FE JUMPI PUSH1 0x0 DUP1 REVERT JUMPDEST PUSH1 0x2 SWAP1 SWAP2 ADD SSTORE JUMP INVALID LOG2 PUSH6 0x627A7A723158 KECCAK256 0xB7 PUSH27 0x5D86077D77B3686A694483EB35579D0F7006546817BCF8D0DF750C DUP15 0x1E 0x2C PUSH5 0x736F6C6343 STOP SDIV GT STOP ORIGIN ",
  "sha1": "d6463724ab88b15f5aa278e273581f6eb342ac43",
  "source": "pragma solidity ^0.5.4;\nimport {PartialMerkleTree} from \"../libraries/Tree.sol\";\nimport \"../libraries/ECDSA.sol\";\nimport \"../interfaces/bases/IPartialMerkleTreeImplementation.sol\";\n\ncontract PartialMerkleTreeImplementation is IPartialMerkleTreeImplementation {\n    using PartialMerkleTree for PartialMerkleTree.Tree;\n    PartialMerkleTree.Tree tree;\n\n    struct Event {\n        string action;\n        string from;\n        string to;\n        string description;\n        string date;\n        address creator;\n        bytes signature;\n    }\n\n    mapping (bytes32 => Event) private _events;\n\n    constructor (bytes32 initialRoot) public {\n        _initialize(initialRoot);\n    }\n\n    function _initialize(bytes32 initialRoot) private {\n        tree.initialize(initialRoot);\n    }\n\n    function _setEvents(bytes32 _key, string memory _action, string memory _from, string memory _to, string memory _description, string memory _date, address _creator, bytes memory _signature) private {\n        _events[_key].action = _action;\n        _events[_key].from = _from;\n        _events[_key].to = _to;\n        _events[_key].description = _description;\n        _events[_key].date = _date;\n        _events[_key].creator = _creator;\n        _events[_key].signature = _signature;\n    }\n\n    function getEvent(bytes32 _key) public view returns(string memory action, string memory from , string memory to , string memory description, string memory date, address creator, bytes memory signature) {\n        return (\n            _events[_key].action,\n            _events[_key].from,\n            _events[_key].to,\n            _events[_key].description,\n            _events[_key].date,\n            _events[_key].creator,\n            _events[_key].signature\n        );\n    }\n\n    function insert(string memory _action, string memory _from, string memory _to, string memory _description, string memory _date, address _signer, bytes memory _signature) public {\n        bytes32 key = keccak256(abi.encodePacked(_action, _from, _to, _description, _date));\n        bytes32 message = ECDSA.toEthSignedMessageHash(key);\n        address signer = ECDSA.recover(message, _signature);\n        require(signer == _signer, \"Signature invalid\");\n\n        _setEvents(key, _action, _from, _to, _description, _date, _signer, _signature);\n        tree.insert(abi.encodePacked(key), _signature);\n\n        emit DataInserted(_action, _from, _to, _description, _date, _signer, _signature);\n    }\n\n    function commitBranchOfNonInclusion(bytes memory key, bytes32 potentialSiblingLabel, bytes32 potentialSiblingValue, uint branchMask, bytes32[] memory siblings) public {\n        return tree.commitBranchOfNonInclusion(key, potentialSiblingLabel, potentialSiblingValue, branchMask, siblings);\n    }\n\n    function get(bytes memory key) public view returns (bytes memory) {\n        return tree.get(key);\n    }\n\n    function safeGet(bytes memory key) public view returns (bytes memory) {\n        return tree.safeGet(key);\n    }\n\n    function doesInclude(bytes memory key) public view returns (bool) {\n        return tree.doesInclude(key);\n    }\n\n    function getValue(bytes32 hash) public view returns (bytes memory) {\n        return tree.values[hash];\n    }\n\n    function getRootHash() public view returns (bytes32) {\n        return tree.getRootHash();\n    }\n\n    function getProof(bytes memory key) public view returns (uint branchMask, bytes32[] memory _siblings) {\n        return tree.getProof(key);\n    }\n\n    function getNonInclusionProof(bytes memory key) public view returns (\n        bytes32 leafLabel,\n        bytes32 leafNode,\n        uint branchMask,\n        bytes32[] memory _siblings\n    ) {\n        return tree.getNonInclusionProof(key);\n    }\n\n    function verifyProof(bytes32 rootHash, bytes memory key, bytes memory value, uint branchMask, bytes32[] memory siblings) public pure {\n        PartialMerkleTree.verifyProof(rootHash, key, value, branchMask, siblings);\n    }\n\n    function verifyNonInclusionProof(bytes32 rootHash, bytes memory key, bytes32 leafLabel, bytes32 leafNode, uint branchMask, bytes32[] memory siblings) public pure {\n        PartialMerkleTree.verifyNonInclusionProof(rootHash, key, leafLabel, leafNode, branchMask, siblings);\n    }\n}\n",
  "sourcePath": "contracts/bases/PartialMerkleTreeImplementation.sol",
  "type": "contract"
}