{
  "abi": [
    {
      "anonymous": false,
      "inputs": [],
      "name": "LogPause",
      "type": "event"
    },
    {
      "anonymous": false,
      "inputs": [],
      "name": "LogUnpause",
      "type": "event"
    },
    {
      "constant": true,
      "inputs": [
        {
          "internalType": "address",
          "name": "addr",
          "type": "address"
        }
      ],
      "name": "addrToKey",
      "outputs": [
        {
          "internalType": "bytes32",
          "name": "",
          "type": "bytes32"
        }
      ],
      "payable": false,
      "stateMutability": "pure",
      "type": "function"
    },
    {
      "constant": true,
      "inputs": [],
      "name": "numKeys",
      "outputs": [
        {
          "internalType": "uint256",
          "name": "",
          "type": "uint256"
        }
      ],
      "payable": false,
      "stateMutability": "view",
      "type": "function"
    },
    {
      "constant": false,
      "inputs": [],
      "name": "pause",
      "outputs": [],
      "payable": false,
      "stateMutability": "nonpayable",
      "type": "function"
    },
    {
      "constant": true,
      "inputs": [],
      "name": "paused",
      "outputs": [
        {
          "internalType": "bool",
          "name": "",
          "type": "bool"
        }
      ],
      "payable": false,
      "stateMutability": "view",
      "type": "function"
    },
    {
      "constant": false,
      "inputs": [],
      "name": "unpause",
      "outputs": [],
      "payable": false,
      "stateMutability": "nonpayable",
      "type": "function"
    }
  ],
  "bytecode": "60806040526003805460ff1916905534801561001a57600080fd5b506101d68061002a6000396000f3fe608060405234801561001057600080fd5b50600436106100575760003560e01c80633f4ba83a1461005c5780635c975abb1461006657806363f14c3c146100825780638456cb59146100ba578063c9d24ecc146100c2575b600080fd5b6100646100ca565b005b61006e61010e565b604080519115158252519081900360200190f35b6100a86004803603602081101561009857600080fd5b50356001600160a01b0316610117565b60408051918252519081900360200190f35b610064610153565b6100a861019b565b60035460ff166100d957600080fd5b6003805460ff191690556040517f730c1faaa977b67dacf1e2451ef54556e04a07d577785ff79f6d31f73502efc990600090a1565b60035460ff1681565b6040805160609290921b6bffffffffffffffffffffffff1916602080840191909152815160148185030181526034909301909152815191012090565b60035460ff161561016357600080fd5b6003805460ff191660011790556040517f4b314b34e912fda7f95e7d23e9c8c95f82f0aff1984e4ce592a0b005f905562490600090a1565b6002549056fea265627a7a72315820083ddb223c86d0d81ac7b9942ebb126cd3e1e4230fa71c3763600d98dc13341564736f6c63430005110032",
  "bytecodeSha1": "8ca3877fae8ced3119f51bf00b667eb7e11104bc",
  "compiler": {
    "evm_version": "istanbul",
    "optimizer": {
      "enabled": true,
      "runs": 200
    },
    "version": "0.5.17+commit.d19bba13"
  },
  "contractName": "PausableI",
  "language": "Solidity",
  "natspec": {
    "author": "Mircea Pasoi",
    "details": "Inspired by https://github.com/OpenZeppelin/zeppelin-solidity/blob/master/contracts/lifecycle/Pausable.sol",
    "methods": {
      "addrToKey(address)": {
        "details": "Convert an Ethereum address (20 bytes) to an ERC725 key (32 bytes)"
      },
      "numKeys()": {
        "details": "Number of keys managed by the contract",
        "return": "Unsigned integer number of keys"
      },
      "pause()": {
        "details": "called by a MANAGEMENT_KEY or the identity itself to pause, triggers stopped state"
      },
      "unpause()": {
        "details": "called by a MANAGEMENT_KEY or the identity itself to unpause, returns to normal state"
      }
    },
    "notice": "Base contract which allows children to implement an emergency stop mechanism",
    "title": "Pausable"
  },
  "opcodes": "PUSH1 0x80 PUSH1 0x40 MSTORE CALLVALUE DUP1 ISZERO PUSH2 0x10 JUMPI PUSH1 0x0 DUP1 REVERT JUMPDEST POP PUSH1 0x4 CALLDATASIZE LT PUSH2 0x57 JUMPI PUSH1 0x0 CALLDATALOAD PUSH1 0xE0 SHR DUP1 PUSH4 0x3F4BA83A EQ PUSH2 0x5C JUMPI DUP1 PUSH4 0x5C975ABB EQ PUSH2 0x66 JUMPI DUP1 PUSH4 0x63F14C3C EQ PUSH2 0x82 JUMPI DUP1 PUSH4 0x8456CB59 EQ PUSH2 0xBA JUMPI DUP1 PUSH4 0xC9D24ECC EQ PUSH2 0xC2 JUMPI JUMPDEST PUSH1 0x0 DUP1 REVERT JUMPDEST PUSH2 0x64 PUSH2 0xCA JUMP JUMPDEST STOP JUMPDEST PUSH2 0x6E PUSH2 0x10E JUMP JUMPDEST PUSH1 0x40 DUP1 MLOAD SWAP2 ISZERO ISZERO DUP3 MSTORE MLOAD SWAP1 DUP2 SWAP1 SUB PUSH1 0x20 ADD SWAP1 RETURN JUMPDEST PUSH2 0xA8 PUSH1 0x4 DUP1 CALLDATASIZE SUB PUSH1 0x20 DUP2 LT ISZERO PUSH2 0x98 JUMPI PUSH1 0x0 DUP1 REVERT JUMPDEST POP CALLDATALOAD PUSH1 0x1 PUSH1 0x1 PUSH1 0xA0 SHL SUB AND PUSH2 0x117 JUMP JUMPDEST PUSH1 0x40 DUP1 MLOAD SWAP2 DUP3 MSTORE MLOAD SWAP1 DUP2 SWAP1 SUB PUSH1 0x20 ADD SWAP1 RETURN JUMPDEST PUSH2 0x64 PUSH2 0x153 JUMP JUMPDEST PUSH2 0xA8 PUSH2 0x19B JUMP JUMPDEST PUSH1 0x3 SLOAD PUSH1 0xFF AND PUSH2 0xD9 JUMPI PUSH1 0x0 DUP1 REVERT JUMPDEST PUSH1 0x3 DUP1 SLOAD PUSH1 0xFF NOT AND SWAP1 SSTORE PUSH1 0x40 MLOAD PUSH32 0x730C1FAAA977B67DACF1E2451EF54556E04A07D577785FF79F6D31F73502EFC9 SWAP1 PUSH1 0x0 SWAP1 LOG1 JUMP JUMPDEST PUSH1 0x3 SLOAD PUSH1 0xFF AND DUP2 JUMP JUMPDEST PUSH1 0x40 DUP1 MLOAD PUSH1 0x60 SWAP3 SWAP1 SWAP3 SHL PUSH12 0xFFFFFFFFFFFFFFFFFFFFFFFF NOT AND PUSH1 0x20 DUP1 DUP5 ADD SWAP2 SWAP1 SWAP2 MSTORE DUP2 MLOAD PUSH1 0x14 DUP2 DUP6 SUB ADD DUP2 MSTORE PUSH1 0x34 SWAP1 SWAP4 ADD SWAP1 SWAP2 MSTORE DUP2 MLOAD SWAP2 ADD KECCAK256 SWAP1 JUMP JUMPDEST PUSH1 0x3 SLOAD PUSH1 0xFF AND ISZERO PUSH2 0x163 JUMPI PUSH1 0x0 DUP1 REVERT JUMPDEST PUSH1 0x3 DUP1 SLOAD PUSH1 0xFF NOT AND PUSH1 0x1 OR SWAP1 SSTORE PUSH1 0x40 MLOAD PUSH32 0x4B314B34E912FDA7F95E7D23E9C8C95F82F0AFF1984E4CE592A0B005F9055624 SWAP1 PUSH1 0x0 SWAP1 LOG1 JUMP JUMPDEST PUSH1 0x2 SLOAD SWAP1 JUMP INVALID LOG2 PUSH6 0x627A7A723158 KECCAK256 ADDMOD RETURNDATASIZE 0xDB 0x22 EXTCODECOPY DUP7 0xD0 0xD8 BYTE 0xC7 0xB9 SWAP5 0x2E 0xBB SLT PUSH13 0xD3E1E4230FA71C3763600D98DC SGT CALLVALUE ISZERO PUSH5 0x736F6C6343 STOP SDIV GT STOP ORIGIN ",
  "sha1": "7f36c4950e3d3ba36236aae483ee83afac50de64",
  "source": "pragma solidity ^0.5.4;\nimport \"./KeyBase.sol\";\n\n\n/// @title Pausable\n/// @author Mircea Pasoi\n/// @notice Base contract which allows children to implement an emergency stop mechanism\n/// @dev Inspired by https://github.com/OpenZeppelin/zeppelin-solidity/blob/master/contracts/lifecycle/Pausable.sol\n\ncontract PausableI is KeyBase {\n    event LogPause();\n    event LogUnpause();\n\n    bool public paused = false;\n\n    /// @dev Modifier to make a function callable only when the contract is not paused\n    modifier whenNotPaused() {\n        require(!paused);\n        _;\n    }\n\n    /// @dev Modifier to make a function callable only when the contract is paused\n    modifier whenPaused() {\n        require(paused);\n        _;\n    }\n\n    /// @dev called by a MANAGEMENT_KEY or the identity itself to pause, triggers stopped state\n    function pause()\n        public\n        //onlyManagementOrSelf\n        whenNotPaused\n    {\n        paused = true;\n        emit LogPause();\n    }\n\n      /// @dev called by a MANAGEMENT_KEY or the identity itself to unpause, returns to normal state\n    function unpause()\n        public\n        //onlyManagementOrSelf\n        whenPaused\n    {\n        paused = false;\n        emit LogUnpause();\n    }\n}\n",
  "sourcePath": "contracts/libraries/Pausable.sol",
  "type": "contract"
}