{
  "contractName": "PausableI",
  "abi": [
    {
      "constant": true,
      "inputs": [],
      "name": "paused",
      "outputs": [
        {
          "name": "",
          "type": "bool"
        }
      ],
      "payable": false,
      "stateMutability": "view",
      "type": "function"
    },
    {
      "constant": true,
      "inputs": [
        {
          "name": "addr",
          "type": "address"
        }
      ],
      "name": "addrToKey",
      "outputs": [
        {
          "name": "",
          "type": "bytes32"
        }
      ],
      "payable": false,
      "stateMutability": "pure",
      "type": "function"
    },
    {
      "constant": true,
      "inputs": [],
      "name": "numKeys",
      "outputs": [
        {
          "name": "",
          "type": "uint256"
        }
      ],
      "payable": false,
      "stateMutability": "view",
      "type": "function"
    },
    {
      "anonymous": false,
      "inputs": [],
      "name": "LogPause",
      "type": "event"
    },
    {
      "anonymous": false,
      "inputs": [],
      "name": "LogUnpause",
      "type": "event"
    },
    {
      "constant": false,
      "inputs": [],
      "name": "pause",
      "outputs": [],
      "payable": false,
      "stateMutability": "nonpayable",
      "type": "function"
    },
    {
      "constant": false,
      "inputs": [],
      "name": "unpause",
      "outputs": [],
      "payable": false,
      "stateMutability": "nonpayable",
      "type": "function"
    }
  ],
  "bytecode": "0x60806040526000600360006101000a81548160ff02191690831515021790555034801561002b57600080fd5b506102a48061003b6000396000f3fe608060405234801561001057600080fd5b5060043610610074576000357c0100000000000000000000000000000000000000000000000000000000900480633f4ba83a146100795780635c975abb1461008357806363f14c3c146100a55780638456cb59146100fd578063c9d24ecc14610107575b600080fd5b610081610125565b005b61008b610189565b604051808215151515815260200191505060405180910390f35b6100e7600480360360208110156100bb57600080fd5b81019080803573ffffffffffffffffffffffffffffffffffffffff16906020019092919050505061019c565b6040518082815260200191505060405180910390f35b610105610207565b005b61010f61026c565b6040518082815260200191505060405180910390f35b600360009054906101000a900460ff16151561014057600080fd5b6000600360006101000a81548160ff0219169083151502179055507f730c1faaa977b67dacf1e2451ef54556e04a07d577785ff79f6d31f73502efc960405160405180910390a1565b600360009054906101000a900460ff1681565b600081604051602001808273ffffffffffffffffffffffffffffffffffffffff1673ffffffffffffffffffffffffffffffffffffffff166c01000000000000000000000000028152601401915050604051602081830303815290604052805190602001209050919050565b600360009054906101000a900460ff1615151561022357600080fd5b6001600360006101000a81548160ff0219169083151502179055507f4b314b34e912fda7f95e7d23e9c8c95f82f0aff1984e4ce592a0b005f905562460405160405180910390a1565b6000806002015490509056fea165627a7a72305820b24aee8480b84b3e191d8c1e77a4cde06e205a4ceb532a96bf7e915223cd9f8d0029",
  "source": "pragma solidity ^0.5.4;\nimport \"./KeyBase.sol\";\n\n\n/// @title Pausable\n/// @author Mircea Pasoi\n/// @notice Base contract which allows children to implement an emergency stop mechanism\n/// @dev Inspired by https://github.com/OpenZeppelin/zeppelin-solidity/blob/master/contracts/lifecycle/Pausable.sol\n\ncontract PausableI is KeyBase {\n    event LogPause();\n    event LogUnpause();\n\n    bool public paused = false;\n\n    /// @dev Modifier to make a function callable only when the contract is not paused\n    modifier whenNotPaused() {\n        require(!paused);\n        _;\n    }\n\n    /// @dev Modifier to make a function callable only when the contract is paused\n    modifier whenPaused() {\n        require(paused);\n        _;\n    }\n\n    /// @dev called by a MANAGEMENT_KEY or the identity itself to pause, triggers stopped state\n    function pause()\n        public\n        //onlyManagementOrSelf\n        whenNotPaused\n    {\n        paused = true;\n        emit LogPause();\n    }\n\n      /// @dev called by a MANAGEMENT_KEY or the identity itself to unpause, returns to normal state\n    function unpause()\n        public\n        //onlyManagementOrSelf\n        whenPaused\n    {\n        paused = false;\n        emit LogUnpause();\n    }\n}\n",
  "sourcePath": "/home/duchuy/Documents/bach_khoa/luan_van/ecs/ecs-smart-contracts/contracts/libraries/Pausable.sol",
  "compiler": {
    "name": "solc",
    "version": "0.5.4+commit.9549d8ff.Emscripten.clang"
  },
  "schemaVersion": "3.4.1",
  "updatedAt": "2021-11-01T14:38:11.135Z",
  "devdoc": {
    "author": "Mircea Pasoi",
    "details": "Inspired by https://github.com/OpenZeppelin/zeppelin-solidity/blob/master/contracts/lifecycle/Pausable.sol",
    "methods": {
      "addrToKey(address)": {
        "details": "Convert an Ethereum address (20 bytes) to an ERC725 key (32 bytes)"
      },
      "numKeys()": {
        "details": "Number of keys managed by the contract",
        "return": "Unsigned integer number of keys"
      },
      "pause()": {
        "details": "called by a MANAGEMENT_KEY or the identity itself to pause, triggers stopped state"
      },
      "unpause()": {
        "details": "called by a MANAGEMENT_KEY or the identity itself to unpause, returns to normal state"
      }
    },
    "title": "Pausable"
  },
  "userdoc": {
    "methods": {},
    "notice": "Base contract which allows children to implement an emergency stop mechanism"
  }
}