{
  "contractName": "TreeFactory",
  "abi": [
    {
      "anonymous": false,
      "inputs": [
        {
          "indexed": false,
          "name": "Salt",
          "type": "uint256"
        },
        {
          "indexed": false,
          "name": "Tree",
          "type": "address"
        }
      ],
      "name": "TreeCreated",
      "type": "event"
    },
    {
      "constant": false,
      "inputs": [
        {
          "name": "_initialRoot",
          "type": "bytes32"
        },
        {
          "name": "_salt",
          "type": "uint256"
        }
      ],
      "name": "deploy",
      "outputs": [
        {
          "name": "",
          "type": "address"
        }
      ],
      "payable": false,
      "stateMutability": "nonpayable",
      "type": "function"
    },
    {
      "constant": true,
      "inputs": [
        {
          "name": "_initialRoot",
          "type": "bytes32"
        },
        {
          "name": "_salt",
          "type": "uint256"
        }
      ],
      "name": "getAddress",
      "outputs": [
        {
          "name": "",
          "type": "address"
        }
      ],
      "payable": false,
      "stateMutability": "view",
      "type": "function"
    }
  ],
  "bytecode": "0x608060405234801561001057600080fd5b50614542806100206000396000f3fe608060405234801561001057600080fd5b5060043610610053576000357c010000000000000000000000000000000000000000000000000000000090048063bbd6dd6b14610058578063f79b99e9146100d0575b600080fd5b61008e6004803603604081101561006e57600080fd5b810190808035906020019092919080359060200190929190505050610148565b604051808273ffffffffffffffffffffffffffffffffffffffff1673ffffffffffffffffffffffffffffffffffffffff16815260200191505060405180910390f35b610106600480360360408110156100e657600080fd5b810190808035906020019092919080359060200190929190505050610252565b604051808273ffffffffffffffffffffffffffffffffffffffff1673ffffffffffffffffffffffffffffffffffffffff16815260200191505060405180910390f35b60006060610155846102e5565b9050600060ff7f0100000000000000000000000000000000000000000000000000000000000000023085848051906020012060405160200180857effffffffffffffffffffffffffffffffffffffffffffffffffffffffffffff19167effffffffffffffffffffffffffffffffffffffffffffffffffffffffffffff191681526001018473ffffffffffffffffffffffffffffffffffffffff1673ffffffffffffffffffffffffffffffffffffffff166c0100000000000000000000000002815260140183815260200182815260200194505050505060405160208183030381529060405280519060200120905080600190049250505092915050565b6000606061025f846102e5565b9050600061026d82856103f7565b90507fc71da5da34b95f2b8722aebdfac333711b0d292b2ac614189dd9aa7c0625a1708482604051808381526020018273ffffffffffffffffffffffffffffffffffffffff1673ffffffffffffffffffffffffffffffffffffffff1681526020019250505060405180910390a1809250505092915050565b606080604051806020016102f89061041d565b6020820181038252601f19601f8201166040525090508083604051602001808281526020019150506040516020818303038152906040526040516020018083805190602001908083835b6020831015156103675780518252602082019150602081019050602083039250610342565b6001836020036101000a03801982511681845116808217855250505050505090500182805190602001908083835b6020831015156103ba5780518252602082019150602081019050602083039250610395565b6001836020036101000a03801982511681845116808217855250505050505090500192505050604051602081830303815290604052915050919050565b600080828451602086016000f59050803b151561041357600080fd5b8091505092915050565b6140ec8061042b8339019056fe60806040523480156200001157600080fd5b50604051602080620040ec833981018060405260208110156200003357600080fd5b81019080805190602001909291905050506200005e8162000065640100000000026401000000009004565b50620000b0565b620000898160006200008c6401000000000262003fdd179091906401000000009004565b50565b60006001028260020154141515620000a357600080fd5b8082600201819055505050565b61402c80620000c06000396000f3fe608060405234801561001057600080fd5b50600436106100d1576000357c01000000000000000000000000000000000000000000000000000000009004806398108c261161008e57806398108c2614610a9b578063b256c53314610c12578063d4119da714610d7f578063d6d7d52514610e52578063e7e6d05814610f86578063f7e498f6146110ba576100d1565b80631e44979d146100d657806329b3c5ba146104a4578063693ac4fb146105c957806369843940146106e057806380759f1f146107875780638c172fa2146107a5575b600080fd5b6104a2600480360360e08110156100ec57600080fd5b810190808035906020019064010000000081111561010957600080fd5b82018360208201111561011b57600080fd5b8035906020019184600183028401116401000000008311171561013d57600080fd5b91908080601f016020809104026020016040519081016040528093929190818152602001838380828437600081840152601f19601f820116905080830192505050505050509192919290803590602001906401000000008111156101a057600080fd5b8201836020820111156101b257600080fd5b803590602001918460018302840111640100000000831117156101d457600080fd5b91908080601f016020809104026020016040519081016040528093929190818152602001838380828437600081840152601f19601f8201169050808301925050505050505091929192908035906020019064010000000081111561023757600080fd5b82018360208201111561024957600080fd5b8035906020019184600183028401116401000000008311171561026b57600080fd5b91908080601f016020809104026020016040519081016040528093929190818152602001838380828437600081840152601f19601f820116905080830192505050505050509192919290803590602001906401000000008111156102ce57600080fd5b8201836020820111156102e057600080fd5b8035906020019184600183028401116401000000008311171561030257600080fd5b91908080601f016020809104026020016040519081016040528093929190818152602001838380828437600081840152601f19601f8201169050808301925050505050505091929192908035906020019064010000000081111561036557600080fd5b82018360208201111561037757600080fd5b8035906020019184600183028401116401000000008311171561039957600080fd5b91908080601f016020809104026020016040519081016040528093929190818152602001838380828437600081840152601f19601f820116905080830192505050505050509192919290803573ffffffffffffffffffffffffffffffffffffffff1690602001909291908035906020019064010000000081111561041c57600080fd5b82018360208201111561042e57600080fd5b8035906020019184600183028401116401000000008311171561045057600080fd5b91908080601f016020809104026020016040519081016040528093929190818152602001838380828437600081840152601f19601f8201169050808301925050505050505091929192905050506112b4565b005b61055d600480360360208110156104ba57600080fd5b81019080803590602001906401000000008111156104d757600080fd5b8201836020820111156104e957600080fd5b8035906020019184600183028401116401000000008311171561050b57600080fd5b91908080601f016020809104026020016040519081016040528093929190818152602001838380828437600081840152601f19601f820116905080830192505050505050509192919290505050611880565b6040518085815260200184815260200183815260200180602001828103825283818151815260200191508051906020019060200280838360005b838110156105b2578082015181840152602081019050610597565b505050509050019550505050505060405180910390f35b610682600480360360208110156105df57600080fd5b81019080803590602001906401000000008111156105fc57600080fd5b82018360208201111561060e57600080fd5b8035906020019184600183028401116401000000008311171561063057600080fd5b91908080601f016020809104026020016040519081016040528093929190818152602001838380828437600081840152601f19601f8201169050808301925050505050505091929192905050506118aa565b6040518083815260200180602001828103825283818151815260200191508051906020019060200280838360005b838110156106cb5780820151818401526020810190506106b0565b50505050905001935050505060405180910390f35b61070c600480360360208110156106f657600080fd5b81019080803590602001909291905050506118cb565b6040518080602001828103825283818151815260200191508051906020019080838360005b8381101561074c578082015181840152602081019050610731565b50505050905090810190601f1680156107795780820380516001836020036101000a031916815260200191505b509250505060405180910390f35b61078f611982565b6040518082815260200191505060405180910390f35b6107d1600480360360208110156107bb57600080fd5b8101908080359060200190929190505050611993565b6040518080602001806020018060200180602001806020018873ffffffffffffffffffffffffffffffffffffffff1673ffffffffffffffffffffffffffffffffffffffff1681526020018060200187810387528e818151815260200191508051906020019080838360005b8381101561085757808201518184015260208101905061083c565b50505050905090810190601f1680156108845780820380516001836020036101000a031916815260200191505b5087810386528d818151815260200191508051906020019080838360005b838110156108bd5780820151818401526020810190506108a2565b50505050905090810190601f1680156108ea5780820380516001836020036101000a031916815260200191505b5087810385528c818151815260200191508051906020019080838360005b83811015610923578082015181840152602081019050610908565b50505050905090810190601f1680156109505780820380516001836020036101000a031916815260200191505b5087810384528b818151815260200191508051906020019080838360005b8381101561098957808201518184015260208101905061096e565b50505050905090810190601f1680156109b65780820380516001836020036101000a031916815260200191505b5087810383528a818151815260200191508051906020019080838360005b838110156109ef5780820151818401526020810190506109d4565b50505050905090810190601f168015610a1c5780820380516001836020036101000a031916815260200191505b50878103825288818151815260200191508051906020019080838360005b83811015610a55578082015181840152602081019050610a3a565b50505050905090810190601f168015610a825780820380516001836020036101000a031916815260200191505b509d505050505050505050505050505060405180910390f35b610c10600480360360c0811015610ab157600080fd5b810190808035906020019092919080359060200190640100000000811115610ad857600080fd5b820183602082011115610aea57600080fd5b80359060200191846001830284011164010000000083111715610b0c57600080fd5b91908080601f016020809104026020016040519081016040528093929190818152602001838380828437600081840152601f19601f82011690508083019250505050505050919291929080359060200190929190803590602001909291908035906020019092919080359060200190640100000000811115610b8d57600080fd5b820183602082011115610b9f57600080fd5b80359060200191846020830284011164010000000083111715610bc157600080fd5b919080806020026020016040519081016040528093929190818152602001838360200280828437600081840152601f19601f820116905080830192505050505050509192919290505050611e1b565b005b610d7d600480360360a0811015610c2857600080fd5b8101908080359060200190640100000000811115610c4557600080fd5b820183602082011115610c5757600080fd5b80359060200191846001830284011164010000000083111715610c7957600080fd5b91908080601f016020809104026020016040519081016040528093929190818152602001838380828437600081840152601f19601f82011690508083019250505050505050919291929080359060200190929190803590602001909291908035906020019092919080359060200190640100000000811115610cfa57600080fd5b820183602082011115610d0c57600080fd5b80359060200191846020830284011164010000000083111715610d2e57600080fd5b919080806020026020016040519081016040528093929190818152602001838360200280828437600081840152601f19601f820116905080830192505050505050509192919290505050611f74565b005b610e3860048036036020811015610d9557600080fd5b8101908080359060200190640100000000811115610db257600080fd5b820183602082011115610dc457600080fd5b80359060200191846001830284011164010000000083111715610de657600080fd5b91908080601f016020809104026020016040519081016040528093929190818152602001838380828437600081840152601f19601f820116905080830192505050505050509192919290505050611f97565b604051808215151515815260200191505060405180910390f35b610f0b60048036036020811015610e6857600080fd5b8101908080359060200190640100000000811115610e8557600080fd5b820183602082011115610e9757600080fd5b80359060200191846001830284011164010000000083111715610eb957600080fd5b91908080601f016020809104026020016040519081016040528093929190818152602001838380828437600081840152601f19601f820116905080830192505050505050509192919290505050611fb4565b6040518080602001828103825283818151815260200191508051906020019080838360005b83811015610f4b578082015181840152602081019050610f30565b50505050905090810190601f168015610f785780820380516001836020036101000a031916815260200191505b509250505060405180910390f35b61103f60048036036020811015610f9c57600080fd5b8101908080359060200190640100000000811115610fb957600080fd5b820183602082011115610fcb57600080fd5b80359060200191846001830284011164010000000083111715610fed57600080fd5b91908080601f016020809104026020016040519081016040528093929190818152602001838380828437600081840152601f19601f820116905080830192505050505050509192919290505050611fd1565b6040518080602001828103825283818151815260200191508051906020019080838360005b8381101561107f578082015181840152602081019050611064565b50505050905090810190601f1680156110ac5780820380516001836020036101000a031916815260200191505b509250505060405180910390f35b6112b2600480360360a08110156110d057600080fd5b8101908080359060200190929190803590602001906401000000008111156110f757600080fd5b82018360208201111561110957600080fd5b8035906020019184600183028401116401000000008311171561112b57600080fd5b91908080601f016020809104026020016040519081016040528093929190818152602001838380828437600081840152601f19601f8201169050808301925050505050505091929192908035906020019064010000000081111561118e57600080fd5b8201836020820111156111a057600080fd5b803590602001918460018302840111640100000000831117156111c257600080fd5b91908080601f016020809104026020016040519081016040528093929190818152602001838380828437600081840152601f19601f820116905080830192505050505050509192919290803590602001909291908035906020019064010000000081111561122f57600080fd5b82018360208201111561124157600080fd5b8035906020019184602083028401116401000000008311171561126357600080fd5b919080806020026020016040519081016040528093929190818152602001838360200280828437600081840152601f19601f820116905080830192505050505050509192919290505050611fee565b005b600087878787876040516020018086805190602001908083835b6020831015156112f357805182526020820191506020810190506020830392506112ce565b6001836020036101000a03801982511681845116808217855250505050505090500185805190602001908083835b6020831015156113465780518252602082019150602081019050602083039250611321565b6001836020036101000a03801982511681845116808217855250505050505090500184805190602001908083835b6020831015156113995780518252602082019150602081019050602083039250611374565b6001836020036101000a03801982511681845116808217855250505050505090500183805190602001908083835b6020831015156113ec57805182526020820191506020810190506020830392506113c7565b6001836020036101000a03801982511681845116808217855250505050505090500182805190602001908083835b60208310151561143f578051825260208201915060208101905060208303925061141a565b6001836020036101000a03801982511681845116808217855250505050505090500195505050505050604051602081830303815290604052805190602001209050600061148b826121a3565b9050600061149982856121fb565b90508473ffffffffffffffffffffffffffffffffffffffff168173ffffffffffffffffffffffffffffffffffffffff1614151561153e576040517f08c379a00000000000000000000000000000000000000000000000000000000081526004018080602001828103825260118152602001807f5369676e617475726520696e76616c696400000000000000000000000000000081525060200191505060405180910390fd5b61154e838b8b8b8b8b8b8b6122dd565b611583836040516020018082815260200191505060405160208183030381529060405285600061243e9092919063ffffffff16565b7f9c300419cab5dcf24f905237448f7040c1806e597357805cb7213c17ec3e74588a8a8a8a8a8a8a6040518080602001806020018060200180602001806020018873ffffffffffffffffffffffffffffffffffffffff1673ffffffffffffffffffffffffffffffffffffffff1681526020018060200187810387528e818151815260200191508051906020019080838360005b83811015611631578082015181840152602081019050611616565b50505050905090810190601f16801561165e5780820380516001836020036101000a031916815260200191505b5087810386528d818151815260200191508051906020019080838360005b8381101561169757808201518184015260208101905061167c565b50505050905090810190601f1680156116c45780820380516001836020036101000a031916815260200191505b5087810385528c818151815260200191508051906020019080838360005b838110156116fd5780820151818401526020810190506116e2565b50505050905090810190601f16801561172a5780820380516001836020036101000a031916815260200191505b5087810384528b818151815260200191508051906020019080838360005b83811015611763578082015181840152602081019050611748565b50505050905090810190601f1680156117905780820380516001836020036101000a031916815260200191505b5087810383528a818151815260200191508051906020019080838360005b838110156117c95780820151818401526020810190506117ae565b50505050905090810190601f1680156117f65780820380516001836020036101000a031916815260200191505b50878103825288818151815260200191508051906020019080838360005b8381101561182f578082015181840152602081019050611814565b50505050905090810190601f16801561185c5780820380516001836020036101000a031916815260200191505b509d505050505050505050505050505060405180910390a150505050505050505050565b6000806000606061189b85600061259390919063ffffffff16565b93509350935093509193509193565b600060606118c28360006125bc90919063ffffffff16565b91509150915091565b60606000800160008381526020019081526020016000208054600181600116156101000203166002900480601f0160208091040260200160405190810160405280929190818152602001828054600181600116156101000203166002900480156119765780601f1061194b57610100808354040283529160200191611976565b820191906000526020600020905b81548152906001019060200180831161195957829003601f168201915b50505050509050919050565b600061198e60006125dc565b905090565b60608060608060606000606060076000898152602001908152602001600020600001600760008a8152602001908152602001600020600101600760008b8152602001908152602001600020600201600760008c8152602001908152602001600020600301600760008d8152602001908152602001600020600401600760008e815260200190815260200160002060050160009054906101000a900473ffffffffffffffffffffffffffffffffffffffff16600760008f8152602001908152602001600020600601868054600181600116156101000203166002900480601f016020809104026020016040519081016040528092919081815260200182805460018160011615610100020316600290048015611aef5780601f10611ac457610100808354040283529160200191611aef565b820191906000526020600020905b815481529060010190602001808311611ad257829003601f168201915b50505050509650858054600181600116156101000203166002900480601f016020809104026020016040519081016040528092919081815260200182805460018160011615610100020316600290048015611b8b5780601f10611b6057610100808354040283529160200191611b8b565b820191906000526020600020905b815481529060010190602001808311611b6e57829003601f168201915b50505050509550848054600181600116156101000203166002900480601f016020809104026020016040519081016040528092919081815260200182805460018160011615610100020316600290048015611c275780601f10611bfc57610100808354040283529160200191611c27565b820191906000526020600020905b815481529060010190602001808311611c0a57829003601f168201915b50505050509450838054600181600116156101000203166002900480601f016020809104026020016040519081016040528092919081815260200182805460018160011615610100020316600290048015611cc35780601f10611c9857610100808354040283529160200191611cc3565b820191906000526020600020905b815481529060010190602001808311611ca657829003601f168201915b50505050509350828054600181600116156101000203166002900480601f016020809104026020016040519081016040528092919081815260200182805460018160011615610100020316600290048015611d5f5780601f10611d3457610100808354040283529160200191611d5f565b820191906000526020600020905b815481529060010190602001808311611d4257829003601f168201915b50505050509250808054600181600116156101000203166002900480601f016020809104026020016040519081016040528092919081815260200182805460018160011615610100020316600290048015611dfb5780601f10611dd057610100808354040283529160200191611dfb565b820191906000526020600020905b815481529060010190602001808311611dde57829003601f168201915b505050505090509650965096509650965096509650919395979092949650565b73__PartialMerkleTree_____________________6398108c268787878787876040518763ffffffff167c0100000000000000000000000000000000000000000000000000000000028152600401808781526020018060200186815260200185815260200184815260200180602001838103835288818151815260200191508051906020019080838360005b83811015611ec2578082015181840152602081019050611ea7565b50505050905090810190601f168015611eef5780820380516001836020036101000a031916815260200191505b50838103825284818151815260200191508051906020019060200280838360005b83811015611f2b578082015181840152602081019050611f10565b505050509050019850505050505050505060006040518083038186803b158015611f5457600080fd5b505af4158015611f68573d6000803e3d6000fd5b50505050505050505050565b611f90858585858560006125ea9095949392919063ffffffff16565b5050505050565b6000611fad82600061296190919063ffffffff16565b9050919050565b6060611fca82600061297c90919063ffffffff16565b9050919050565b6060611fe782600061299990919063ffffffff16565b9050919050565b73__PartialMerkleTree_____________________63f7e498f686868686866040518663ffffffff167c010000000000000000000000000000000000000000000000000000000002815260040180868152602001806020018060200185815260200180602001848103845288818151815260200191508051906020019080838360005b8381101561208c578082015181840152602081019050612071565b50505050905090810190601f1680156120b95780820380516001836020036101000a031916815260200191505b50848103835287818151815260200191508051906020019080838360005b838110156120f25780820151818401526020810190506120d7565b50505050905090810190601f16801561211f5780820380516001836020036101000a031916815260200191505b50848103825285818151815260200191508051906020019060200280838360005b8381101561215b578082015181840152602081019050612140565b505050509050019850505050505050505060006040518083038186803b15801561218457600080fd5b505af4158015612198573d6000803e3d6000fd5b505050505050505050565b60008160405160200180807f19457468657265756d205369676e6564204d6573736167653a0a333200000000815250601c01828152602001915050604051602081830303815290604052805190602001209050919050565b60006041825114151561221157600090506122d7565b60008060006020850151925060408501519150606085015160001a9050601b8160ff16101561224157601b810190505b601b8160ff16141580156122595750601c8160ff1614155b1561226a57600093505050506122d7565b60018682858560405160008152602001604052604051808581526020018460ff1660ff1681526020018381526020018281526020019450505050506020604051602081039080840390855afa1580156122c7573d6000803e3d6000fd5b5050506020604051035193505050505b92915050565b86600760008a81526020019081526020016000206000019080519060200190612307929190613d38565b5085600760008a81526020019081526020016000206001019080519060200190612332929190613d38565b5084600760008a8152602001908152602001600020600201908051906020019061235d929190613d38565b5083600760008a81526020019081526020016000206003019080519060200190612388929190613d38565b5082600760008a815260200190815260200160002060040190805190602001906123b3929190613d38565b5081600760008a815260200190815260200160002060050160006101000a81548173ffffffffffffffffffffffffffffffffffffffff021916908373ffffffffffffffffffffffffffffffffffffffff16021790555080600760008a81526020019081526020016000206006019080519060200190612433929190613db8565b505050505050505050565b612446613e38565b604080519081016040528084805190602001208152602001610100815250905060008280519060200120905082856000016000838152602001908152602001600020908051906020019061249b929190613db8565b506124a4613e55565b600060010286600301600101541480156124c8575060008660030160020160010154145b156124e5578281604001819052508181602001818152505061253f565b61253c868760030160606040519081016040529081600082015481526020016001820154815260200160028201604080519081016040529081600082015481526020016001820154815250508152505085856129e4565b90505b61254881612b2e565b86600201819055508086600301600082015181600001556020820151816001015560408201518160020160008201518160000155602082015181600101555050905050505050505050565b600080600060606125ab868680519060200120612bb2565b935093509350935092959194509250565b600060606125d1848480519060200120612eaf565b915091509250929050565b600081600201549050919050565b6125f2613e38565b604080519081016040528087805190602001208152602001610100815250905061261a613e55565b60008090505b6000851415156128e75760006126358661317f565b90508060019060020a021986169550612651848260ff0361335d565b809050846040018190528195505050600061266f846040015161346b565b80905085604001819052819250505060008314156126ae5781846040015160200181815250508884604001516000018181525050878460200181815250505b6126b6613e83565b6126bf85612b2e565b81836002811015156126cd57fe5b60200201818152505086600185895103038151811015156126ea57fe5b90602001906020020151818360010360028110151561270557fe5b602002018181525050600081600060028110151561271f57fe5b602002015182600160028110151561273357fe5b6020020151604051602001808381526020018281526020019250505060405160208183030381529060405280519060200120905060008d6001016000838152602001908152602001600020905086816000018560028110151561279257fe5b6004020160008201518160000155602082015181600101556040820151816002016000820151816000015560208201518160010155505090505061283481600001856001036002811015156127e357fe5b60040201606060405190810160405290816000820154815260200160018201548152602001600282016040805190810160405290816000820154815260200160018201548152505081525050613539565b1561287757886001878b51030381518110151561284d57fe5b90602001906020020151816000018560010360028110151561286b57fe5b60040201600001819055505b82600060028110151561288657fe5b602002015183600160028110151561289a57fe5b602002015160405160200180838152602001828152602001925050506040516020818303038152906040528051906020012087602001818152505050505050508080600101915050612620565b508181604001819052506128fa81612b2e565b886002015414151561290b57600080fd5b61291481612b2e565b886002018190555080886003016000820151816000015560208201518160010155604082015181600201600082015181600001556020820151816001015550509050505050505050505050565b600061297483838051906020012061355f565b905092915050565b60606129918361298c858561357f565b61359a565b905092915050565b606060006129a7848461357f565b9050600060010281141515156129bc57600080fd5b6129c6848261359a565b91508180519060200120811415156129dd57600080fd5b5092915050565b6129ec613e55565b836040015160200151836020015110151515612a0757600080fd5b612a0f613e38565b612a17613e38565b612a25858760400151613652565b809250819350505060008082602001511415612a4357849050612b17565b866040015160200151836020015110158015612a645750612a6387613680565b5b15612a8057612a798888602001518488613694565b9050612b16565b6000612a8a613e38565b612a938461346b565b8092508193505050612aa3613ea5565b612aad88836137b9565b816000015184600281101515612abf57fe5b6020020181905250612ae98a60200151612ae48c6040015160018a60200151016137da565b6137b9565b816000015184600103600281101515612afe57fe5b6020020181905250612b108b82613888565b93505050505b5b612b2181846137b9565b9350505050949350505050565b6000612b3982613539565b151515612b4557600080fd5b612b4e82613680565b15612ba5578160200151826040015160200151836040015160000151604051602001808481526020018381526020018281526020019350505050604051602081830303815290604052805190602001209050612bad565b816000015190505b919050565b60008060006060600080612bc4613e38565b60408051908101604052808981526020016101008152509050612be5613e55565b896003016060604051908101604052908160008201548152602001600182015481526020016002820160408051908101604052908160008201548152602001600182015481525050815250509050612c3b613ec0565b5b600115612e1957816040015160200151836020015110151515612c5e57600080fd5b612c66613e38565b612c6e613e38565b612c7c858560400151613652565b80925081935050506000816020015114151515612c9857600080fd5b8360400151602001518260200151101515612df9578160200151870196508660ff0360019060020a02891798506001870196506000612cd68261346b565b8097508192505050612d5e8e60010160008760200151815260200190815260200160002060000182600103600281101515612d0d57fe5b60040201606060405190810160405290816000820154815260200160018201548152602001600282016040805190810160405290816000820154815260200160018201548152505081525050612b2e565b848880600101995061010081101515612d7357fe5b6020020181815250508d60010160008660200151815260200190815260200160002060000181600281101515612da557fe5b60040201606060405190810160405290816000820154815260200160018201548152602001600282016040805190810160405290816000820154815260200160018201548152505081525050945050612e12565b8360400151600001519a50836020015199505050612e19565b5050612c3c565b6000841115612ea15783604051908082528060200260200182016040528015612e515781602001602082028038833980820191505090505b50955060008090505b84811015612e9f57818161010081101515612e7157fe5b60200201518782815181101515612e8457fe5b90602001906020020181815250508080600101915050612e5a565b505b505050505092959194509250565b60006060612ebb613e38565b60408051908101604052808581526020016101008152509050612edc613e55565b856003016060604051908101604052908160008201548152602001600182015481526020016002820160408051908101604052908160008201548152602001600182015481525050815250509050612f32613ec0565b6000805b6001156130eb57612f45613e38565b612f4d613e38565b612f5b878760400151613652565b80925081935050508560400151602001518260200151141515612f7d57600080fd5b600081602001511415612f915750506130eb565b8160200151840193508360ff0360019060020a02891798506001840193506000612fb9613e38565b612fc28361346b565b809250819350505061304a8d60010160008a60200151815260200190815260200160002060000183600103600281101515612ff957fe5b60040201606060405190810160405290816000820154815260200160018201548152602001600282016040805190810160405290816000820154815260200160018201548152505081525050612b2e565b87868060010197506101008110151561305f57fe5b6020020181815250508c6001016000896020015181526020019081526020016000206000018260028110151561309157fe5b60040201606060405190810160405290816000820154815260200160018201548152602001600282016040805190810160405290816000820154815260200160018201548152505081525050975080985050505050612f36565b600081111561317357806040519080825280602002602001820160405280156131235781602001602082028038833980820191505090505b50955060008090505b818110156131715783816101008110151561314357fe5b6020020151878281518110151561315657fe5b9060200190602002018181525050808060010191505061312c565b505b50505050509250929050565b60008082141515156131f9576040517f08c379a000000000000000000000000000000000000000000000000000000000815260040180806020018281038252600c8152602001807f426164206269746669656c64000000000000000000000000000000000000000081525060200191505060405180910390fd5b600082600102905060008090505b60208110156132a35760007f0100000000000000000000000000000000000000000000000000000000000000028282601f0360208110151561324557fe5b1a7f0100000000000000000000000000000000000000000000000000000000000000027effffffffffffffffffffffffffffffffffffffffffffffffffffffffffffff1916141515613296576132a3565b8080600101915050613207565b60008282601f036020811015156132b657fe5b1a7f0100000000000000000000000000000000000000000000000000000000000000027f0100000000000000000000000000000000000000000000000000000000000000900460ff169050600060019050600094505b61010085101561334557600081831614151561333357848360080201945050505050613358565b8081019050848060010195505061330c565b6000151561334f57fe5b60009450505050505b919050565b613365613e38565b61336d613e38565b8360200151831115801561338357506101008311155b15156133f7576040517f08c379a00000000000000000000000000000000000000000000000000000000081526004018080602001828103825260078152602001807f42616420706f730000000000000000000000000000000000000000000000000081525060200191505060405180910390fd5b82826020018181525050600083141561341d576000600102826000018181525050613440565b6001836101000360019060020a0203600102198460000151168260000181815250505b828460200151038160200181815250508284600001519060020a028160000181815250509250929050565b6000613475613e38565b600083602001511115156134f1576040517f08c379a000000000000000000000000000000000000000000000000000000000815260040180806020018281038252600d8152602001807f456d70747920656c656d656e740000000000000000000000000000000000000081525060200191505060405180910390fd5b60ff8360000151908060020a8204915050600190046040805190810160405280600186600001519060020a028152602001600186602001510381525080905091509150915091565b6000806001028260000151148015613558575060006001028260200151145b9050919050565b60008061356c8484613990565b9050600060010281141591505092915050565b6000613592838380519060200120613990565b905092915050565b60608260000160008381526020019081526020016000208054600181600116156101000203166002900480601f0160208091040260200160405190810160405280929190818152602001828054600181600116156101000203166002900480156136455780601f1061361a57610100808354040283529160200191613645565b820191906000526020600020905b81548152906001019060200180831161362857829003601f168201915b5050505050905092915050565b61365a613e38565b613662613e38565b613675846136708587613a47565b61335d565b915091509250929050565b600080600102826020015114159050919050565b600061369e613ea5565b8560010160008681526020019081526020016000206020604051908101604052908160008201600280602002604051908101604052809291906000905b8282101561374057838260040201606060405190810160405290816000820154815260200160018201548152602001600282016040805190810160405290816000820154815260200160018201548152505081525050815260200190600101906136db565b505050508152505090506000613754613e38565b61375d8661346b565b80925081935050506137878884600001518460028110151561377b57fe5b602002015183886129e4565b83600001518360028110151561379957fe5b60200201819052506137ac888885613ad8565b9350505050949350505050565b6137c1613e55565b8281602001818152505081816040018190525092915050565b6137e2613e38565b8260200151821115151561385e576040517f08c379a000000000000000000000000000000000000000000000000000000000815260040180806020018281038252600a8152602001807f426164206c656e6768740000000000000000000000000000000000000000000081525060200191505060405180910390fd5b818360200151038160200181815250508183600001519060020a0281600001818152505092915050565b60008061389483613b15565b9050826000015160006002811015156138a957fe5b602002015184600101600083815260200190815260200160002060000160006002811015156138d457fe5b600402016000820151816000015560208201518160010155604082015181600201600082015181600001556020820151816001015550509050508260000151600160028110151561392157fe5b6020020151846001016000838152602001908152602001600020600001600160028110151561394c57fe5b600402016000820151816000015560208201518160010155604082015181600201600082015181600001556020820151816001015550509050508091505092915050565b60008060010283600301600101541480156139b5575060008360030160020160010154145b156139c65760006001029050613a41565b6139ce613e38565b60408051908101604052808481526020016101008152509050613a3d848560030160606040519081016040529081600082015481526020016001820154815260200160028201604080519081016040529081600082015481526020016001820154815250508152505083613b8b565b9150505b92915050565b6000808260200151846020015110613a63578260200151613a69565b83602001515b90506000836000015185600001511860019004905060007f800000000000000000000000000000000000000000000000000000000000000090505b82841015613acf576000828216141515613abd57613acf565b81820191508380600101945050613aa4565b50505092915050565b600083600101600084815260200190815260200160002060008082016000613b009190613ee5565b5050613b0c8483613888565b90509392505050565b6000613b3782600001516000600281101515613b2d57fe5b6020020151612b2e565b613b5783600001516001600281101515613b4d57fe5b6020020151612b2e565b6040516020018083815260200182815260200192505050604051602081830303815290604052805190602001209050919050565b6000826040015160200151826020015110151515613ba857600080fd5b613bb0613e38565b613bb8613e38565b613bc6848660400151613652565b8092508193505050600081602001511415613be957846020015192505050613c20565b8460400151602001518260200151101515613c1657613c0d86866020015183613c27565b92505050613c20565b6000600102925050505b9392505050565b600060018260200151111515613c3c57600080fd5b613c44613ea5565b8460010160008581526020019081526020016000206020604051908101604052908160008201600280602002604051908101604052809291906000905b82821015613ce65783826004020160606040519081016040529081600082015481526020016001820154815260200160028201604080519081016040529081600082015481526020016001820154815250508152505081526020019060010190613c81565b505050508152505090506000613cfa613e38565b613d038561346b565b8092508193505050613d2c87846000015184600281101515613d2157fe5b602002015183613b8b565b93505050509392505050565b828054600181600116156101000203166002900490600052602060002090601f016020900481019282601f10613d7957805160ff1916838001178555613da7565b82800160010185558215613da7579182015b82811115613da6578251825591602001919060010190613d8b565b5b509050613db49190613f3e565b5090565b828054600181600116156101000203166002900490600052602060002090601f016020900481019282601f10613df957805160ff1916838001178555613e27565b82800160010185558215613e27579182015b82811115613e26578251825591602001919060010190613e0b565b5b509050613e349190613f3e565b5090565b604080519081016040528060008019168152602001600081525090565b6080604051908101604052806000801916815260200160008019168152602001613e7d613f63565b81525090565b6040805190810160405280600290602082028038833980820191505090505090565b61010060405190810160405280613eba613f80565b81525090565b6120006040519081016040528061010090602082028038833980820191505090505090565b506000808201600090556001820160009055600282016000808201600090556001820160009055505050600401600080820160009055600182016000905560028201600080820160009055600182016000905550505050565b613f6091905b80821115613f5c576000816000905550600101613f44565b5090565b90565b604080519081016040528060008019168152602001600081525090565b610100604051908101604052806002905b613f99613faf565b815260200190600190039081613f915790505090565b6080604051908101604052806000801916815260200160008019168152602001613fd7613f63565b81525090565b60006001028260020154141515613ff357600080fd5b808260020181905550505056fea165627a7a72305820dfd88fce1c5f779bdfeaf77c4cef7b9cd0d0fad0bf9a42b77d2724936b355b540029a165627a7a72305820d806debe42b270a47f326811d11ebbab43ec40ad9bffc6d00187b5cde70781390029",
  "source": "pragma solidity ^0.5.4;\nimport \"../bases/PartialMerkleTreeImplementation.sol\";\nimport \"../interfaces/factories/ITreeFactory.sol\";\n\ncontract TreeFactory is ITreeFactory {\n    function _getBytecode(bytes32 _initialRoot) private pure returns (bytes memory) {\n        bytes memory bytecode = type(PartialMerkleTreeImplementation).creationCode;\n\n        return abi.encodePacked(bytecode, abi.encode(_initialRoot));\n    }\n\n    function _deploy(bytes memory code, uint256 salt) private returns (address){\n        address addr;\n        assembly {\n            addr := create2(0, add(code, 0x20), mload(code), salt)\n            if iszero(extcodesize(addr)) {\n            revert(0, 0)\n            }\n        }\n        return addr;\n    }\n\n    function deploy(bytes32 _initialRoot, uint _salt) public returns (address) {\n        bytes memory bytecode = _getBytecode(_initialRoot);\n\n        address tree = _deploy(bytecode, _salt);\n\n        emit TreeCreated(_salt, tree);\n        return tree;\n    }\n\n    function getAddress(bytes32 _initialRoot, uint _salt) public view returns (address) {\n        bytes memory bytecode = _getBytecode(_initialRoot);\n\n        bytes32 hash = keccak256(abi.encodePacked(bytes1(0xff), address(this), _salt, keccak256(bytecode)));\n\n        return address(uint160(uint(hash)));\n    }\n}\n",
  "sourcePath": "/home/duchuy/Documents/bach_khoa/luan_van/ecs/ecs-smart-contracts/contracts/factories/TreeFactory.sol",
  "compiler": {
    "name": "solc",
    "version": "0.5.4+commit.9549d8ff.Emscripten.clang"
  },
  "schemaVersion": "3.4.1",
  "updatedAt": "2021-11-01T14:38:10.931Z",
  "devdoc": {
    "methods": {}
  },
  "userdoc": {
    "methods": {}
  }
}