{
  "contractName": "UserController",
  "abi": [
    {
      "constant": true,
      "inputs": [],
      "name": "owner",
      "outputs": [
        {
          "name": "",
          "type": "address"
        }
      ],
      "payable": false,
      "stateMutability": "view",
      "type": "function"
    },
    {
      "constant": false,
      "inputs": [
        {
          "name": "newOwner",
          "type": "address"
        }
      ],
      "name": "transferOwnership",
      "outputs": [],
      "payable": false,
      "stateMutability": "nonpayable",
      "type": "function"
    },
    {
      "inputs": [
        {
          "name": "_eternalStorageAddress",
          "type": "address"
        }
      ],
      "payable": false,
      "stateMutability": "nonpayable",
      "type": "constructor"
    },
    {
      "anonymous": false,
      "inputs": [
        {
          "indexed": false,
          "name": "Key",
          "type": "bytes32"
        },
        {
          "indexed": false,
          "name": "Identity",
          "type": "address"
        }
      ],
      "name": "MapIdentity",
      "type": "event"
    },
    {
      "anonymous": false,
      "inputs": [
        {
          "indexed": false,
          "name": "Identity",
          "type": "address"
        },
        {
          "indexed": false,
          "name": "Owner",
          "type": "address"
        }
      ],
      "name": "IdentityCreated",
      "type": "event"
    },
    {
      "anonymous": false,
      "inputs": [
        {
          "indexed": true,
          "name": "previousOwner",
          "type": "address"
        },
        {
          "indexed": true,
          "name": "newOwner",
          "type": "address"
        }
      ],
      "name": "OwnershipTransferred",
      "type": "event"
    },
    {
      "constant": false,
      "inputs": [
        {
          "name": "_keys",
          "type": "bytes32[]"
        },
        {
          "name": "_purposes",
          "type": "uint256[]"
        },
        {
          "name": "_keyHash",
          "type": "bytes32"
        },
        {
          "name": "_salt",
          "type": "uint256"
        }
      ],
      "name": "registerIdentity",
      "outputs": [],
      "payable": false,
      "stateMutability": "nonpayable",
      "type": "function"
    },
    {
      "constant": false,
      "inputs": [
        {
          "name": "_key",
          "type": "bytes32"
        },
        {
          "name": "_identity",
          "type": "address"
        }
      ],
      "name": "mapIdentity",
      "outputs": [],
      "payable": false,
      "stateMutability": "nonpayable",
      "type": "function"
    },
    {
      "constant": true,
      "inputs": [
        {
          "name": "_owner",
          "type": "address"
        }
      ],
      "name": "getUserIdentity",
      "outputs": [
        {
          "name": "identity",
          "type": "address"
        }
      ],
      "payable": false,
      "stateMutability": "view",
      "type": "function"
    },
    {
      "constant": true,
      "inputs": [
        {
          "name": "_key",
          "type": "bytes32"
        }
      ],
      "name": "getUserIdentity",
      "outputs": [
        {
          "name": "identity",
          "type": "address"
        }
      ],
      "payable": false,
      "stateMutability": "view",
      "type": "function"
    }
  ],
  "bytecode": "0x60806040526040805190810160405280600b81526020017f4e46542d464143544f52590000000000000000000000000000000000000000008152506002908051906020019062000051929190620002a2565b506040805190810160405280600c81526020017f545245452d464143544f52590000000000000000000000000000000000000000815250600390805190602001906200009f929190620002a2565b506040805190810160405280601081526020017f4944454e544954592d464143544f52590000000000000000000000000000000081525060049080519060200190620000ed929190620002a2565b506040805190810160405280600c81526020017f4b45592d4944454e544954590000000000000000000000000000000000000000815250600590805190602001906200013b929190620002a2565b503480156200014957600080fd5b50604051602080620011b6833981018060405260208110156200016b57600080fd5b81019080805190602001909291905050506200019633620001de640100000000026401000000009004565b80600160006101000a81548173ffffffffffffffffffffffffffffffffffffffff021916908373ffffffffffffffffffffffffffffffffffffffff1602179055505062000351565b60008060009054906101000a900473ffffffffffffffffffffffffffffffffffffffff169050816000806101000a81548173ffffffffffffffffffffffffffffffffffffffff021916908373ffffffffffffffffffffffffffffffffffffffff1602179055508173ffffffffffffffffffffffffffffffffffffffff168173ffffffffffffffffffffffffffffffffffffffff167f8be0079c531659141344cd1fd0a4f28419497f9722a3daafe3b4186f6b6457e060405160405180910390a35050565b828054600181600116156101000203166002900490600052602060002090601f016020900481019282601f10620002e557805160ff191683800117855562000316565b8280016001018555821562000316579182015b8281111562000315578251825591602001919060010190620002f8565b5b50905062000325919062000329565b5090565b6200034e91905b808211156200034a57600081600090555060010162000330565b5090565b90565b610e5580620003616000396000f3fe608060405234801561001057600080fd5b506004361061007f576000357c0100000000000000000000000000000000000000000000000000000000900480632129c76114610084578063440abfd2146101085780638ac80c79146102685780638da5cb5b146102d6578063b8cc7d6f14610320578063f2fde38b1461036e575b600080fd5b6100c66004803603602081101561009a57600080fd5b81019080803573ffffffffffffffffffffffffffffffffffffffff1690602001909291905050506103b2565b604051808273ffffffffffffffffffffffffffffffffffffffff1673ffffffffffffffffffffffffffffffffffffffff16815260200191505060405180910390f35b6102666004803603608081101561011e57600080fd5b810190808035906020019064010000000081111561013b57600080fd5b82018360208201111561014d57600080fd5b8035906020019184602083028401116401000000008311171561016f57600080fd5b919080806020026020016040519081016040528093929190818152602001838360200280828437600081840152601f19601f820116905080830192505050505050509192919290803590602001906401000000008111156101cf57600080fd5b8201836020820111156101e157600080fd5b8035906020019184602083028401116401000000008311171561020357600080fd5b919080806020026020016040519081016040528093929190818152602001838360200280828437600081840152601f19601f8201169050808301925050505050505091929192908035906020019092919080359060200190929190505050610416565b005b6102946004803603602081101561027e57600080fd5b810190808035906020019092919050505061080c565b604051808273ffffffffffffffffffffffffffffffffffffffff1673ffffffffffffffffffffffffffffffffffffffff16815260200191505060405180910390f35b6102de61081e565b604051808273ffffffffffffffffffffffffffffffffffffffff1673ffffffffffffffffffffffffffffffffffffffff16815260200191505060405180910390f35b61036c6004803603604081101561033657600080fd5b8101908080359060200190929190803573ffffffffffffffffffffffffffffffffffffffff169060200190929190505050610847565b005b6103b06004803603602081101561038457600080fd5b81019080803573ffffffffffffffffffffffffffffffffffffffff1690602001909291905050506108c0565b005b600061040f82604051602001808273ffffffffffffffffffffffffffffffffffffffff1673ffffffffffffffffffffffffffffffffffffffff16815260200191505060405160208183030381529060405280519060200120610a18565b9050919050565b6000600460405160200180806020018281038252838181546001816001161561010002031660029004815260200191508054600181600116156101000203166002900480156104a65780601f1061047b576101008083540402835291602001916104a6565b820191906000526020600020905b81548152906001019060200180831161048957829003601f168201915b5050925050506040516020818303038152906040528051906020012090506000600160009054906101000a900473ffffffffffffffffffffffffffffffffffffffff1673ffffffffffffffffffffffffffffffffffffffff16634c77e5ba836040518263ffffffff167c01000000000000000000000000000000000000000000000000000000000281526004018082815260200191505060206040518083038186803b15801561055557600080fd5b505afa158015610569573d6000803e3d6000fd5b505050506040513d602081101561057f57600080fd5b8101908080519060200190929190505050905060008173ffffffffffffffffffffffffffffffffffffffff16630bcbc0ec338989886040518563ffffffff167c0100000000000000000000000000000000000000000000000000000000028152600401808573ffffffffffffffffffffffffffffffffffffffff1673ffffffffffffffffffffffffffffffffffffffff1681526020018060200180602001848152602001838103835286818151815260200191508051906020019060200280838360005b8381101561065e578082015181840152602081019050610643565b50505050905001838103825285818151815260200191508051906020019060200280838360005b838110156106a0578082015181840152602081019050610685565b505050509050019650505050505050602060405180830381600087803b1580156106c957600080fd5b505af11580156106dd573d6000803e3d6000fd5b505050506040513d60208110156106f357600080fd5b8101908080519060200190929190505050905061076233604051602001808273ffffffffffffffffffffffffffffffffffffffff1673ffffffffffffffffffffffffffffffffffffffff1681526020019150506040516020818303038152906040528051906020012082610ba7565b61076c8582610ba7565b7f45afe31e3a48a54e27da1d1f2ec6c6e272ce5838616e0d61071b223bceb5c6908132604051808373ffffffffffffffffffffffffffffffffffffffff1673ffffffffffffffffffffffffffffffffffffffff1681526020018273ffffffffffffffffffffffffffffffffffffffff1673ffffffffffffffffffffffffffffffffffffffff1681526020019250505060405180910390a150505050505050565b600061081782610a18565b9050919050565b60008060009054906101000a900473ffffffffffffffffffffffffffffffffffffffff16905090565b6108518282610ba7565b7f203175ecd69529a53674e574402fcf2073a7618c68b72a590fcad959027a512d8282604051808381526020018273ffffffffffffffffffffffffffffffffffffffff1673ffffffffffffffffffffffffffffffffffffffff1681526020019250505060405180910390a15050565b3373ffffffffffffffffffffffffffffffffffffffff166000809054906101000a900473ffffffffffffffffffffffffffffffffffffffff1673ffffffffffffffffffffffffffffffffffffffff16141515610984576040517f08c379a00000000000000000000000000000000000000000000000000000000081526004018080602001828103825260208152602001807f4f776e61626c653a2063616c6c6572206973206e6f7420746865206f776e657281525060200191505060405180910390fd5b600073ffffffffffffffffffffffffffffffffffffffff168173ffffffffffffffffffffffffffffffffffffffff1614151515610a0c576040517f08c379a0000000000000000000000000000000000000000000000000000000008152600401808060200182810382526026815260200180610e046026913960400191505060405180910390fd5b610a1581610d3f565b50565b6000808260056040516020018083815260200180602001828103825283818154600181600116156101000203166002900481526020019150805460018160011615610100020316600290048015610ab05780601f10610a8557610100808354040283529160200191610ab0565b820191906000526020600020905b815481529060010190602001808311610a9357829003601f168201915b505093505050506040516020818303038152906040528051906020012090506000600160009054906101000a900473ffffffffffffffffffffffffffffffffffffffff1673ffffffffffffffffffffffffffffffffffffffff16634c77e5ba836040518263ffffffff167c01000000000000000000000000000000000000000000000000000000000281526004018082815260200191505060206040518083038186803b158015610b6057600080fd5b505afa158015610b74573d6000803e3d6000fd5b505050506040513d6020811015610b8a57600080fd5b810190808051906020019092919050505090508092505050919050565b60008260056040516020018083815260200180602001828103825283818154600181600116156101000203166002900481526020019150805460018160011615610100020316600290048015610c3e5780601f10610c1357610100808354040283529160200191610c3e565b820191906000526020600020905b815481529060010190602001808311610c2157829003601f168201915b50509350505050604051602081830303815290604052805190602001209050600160009054906101000a900473ffffffffffffffffffffffffffffffffffffffff1673ffffffffffffffffffffffffffffffffffffffff1663ba44593c82846040518363ffffffff167c0100000000000000000000000000000000000000000000000000000000028152600401808381526020018273ffffffffffffffffffffffffffffffffffffffff1673ffffffffffffffffffffffffffffffffffffffff16815260200192505050600060405180830381600087803b158015610d2257600080fd5b505af1158015610d36573d6000803e3d6000fd5b50505050505050565b60008060009054906101000a900473ffffffffffffffffffffffffffffffffffffffff169050816000806101000a81548173ffffffffffffffffffffffffffffffffffffffff021916908373ffffffffffffffffffffffffffffffffffffffff1602179055508173ffffffffffffffffffffffffffffffffffffffff168173ffffffffffffffffffffffffffffffffffffffff167f8be0079c531659141344cd1fd0a4f28419497f9722a3daafe3b4186f6b6457e060405160405180910390a3505056fe4f776e61626c653a206e6577206f776e657220697320746865207a65726f2061646472657373a165627a7a7230582078689d4b74f535a7f33406cd54fb67079a0b6da35e0c4829f8cdc1b7847ba5220029",
  "source": "pragma solidity ^0.5.4;\nimport \"./interfaces/factories/IIdentityFactory.sol\";\nimport \"./storage/EternalStorage.sol\";\nimport \"./interfaces/bases/IIdentity.sol\";\nimport \"./libraries/Ownable.sol\";\n\n\ncontract UserController is Ownable {\n    EternalStorage private _eternalStorage;\n    string private _NFT_FACTORY = \"NFT-FACTORY\";\n    string private _TREE_FACTORY = \"TREE-FACTORY\";\n    string private _IDENTITY_FACTORY = \"IDENTITY-FACTORY\";\n\n    string private _KEY_TO_IDENTITY = \"KEY-IDENTITY\";\n    \n    event MapIdentity(bytes32 Key, address Identity);\n    event IdentityCreated(address Identity, address Owner);\n\n    constructor (address _eternalStorageAddress) public {\n        _eternalStorage = EternalStorage(_eternalStorageAddress);\n    }\n\n    function _mapIdentity(bytes32 _key, address _identity) private {\n        bytes32 key = keccak256(abi.encode(_key, _KEY_TO_IDENTITY));\n        _eternalStorage.set(key, _identity);\n    }\n\n    function _getUserIdentity(bytes32 _key) private view returns (address) {\n        bytes32 key = keccak256(abi.encode(_key, _KEY_TO_IDENTITY));\n        address identity = _eternalStorage.getAddressValue(key);\n        return identity;\n    }\n\n    function registerIdentity(\n        bytes32[] memory _keys,\n        uint256[] memory _purposes,\n        bytes32 _keyHash,\n        uint256 _salt\n    )\n    public\n    {\n        bytes32 factoryKey = keccak256(abi.encode(_IDENTITY_FACTORY));\n        IIdentityFactory identityFactory = IIdentityFactory(_eternalStorage.getAddressValue(factoryKey));\n\n        address newIdentity = identityFactory.deploy(msg.sender, _keys, _purposes, _salt);  \n        _mapIdentity(keccak256(abi.encode(msg.sender)), newIdentity);\n        _mapIdentity(_keyHash, newIdentity);\n\n        emit IdentityCreated(newIdentity, tx.origin);\n    }\n\n    function mapIdentity(bytes32 _key, address _identity) public {\n        _mapIdentity(_key, _identity);\n        emit MapIdentity(_key, _identity);\n    }\n\n    function getUserIdentity(bytes32 _key) public view returns(address identity) {\n        identity = _getUserIdentity(_key);\n    }\n    \n    function getUserIdentity(address _owner) public view returns(address identity) {\n        identity = _getUserIdentity(keccak256(abi.encode(_owner)));\n    }\n}\n",
  "sourcePath": "/home/duchuy/Documents/bach_khoa/luan_van/ecs/ecs-smart-contracts/contracts/User.sol",
  "compiler": {
    "name": "solc",
    "version": "0.5.4+commit.9549d8ff.Emscripten.clang"
  },
  "schemaVersion": "3.4.1",
  "updatedAt": "2021-11-01T14:38:10.889Z",
  "devdoc": {
    "methods": {}
  },
  "userdoc": {
    "methods": {}
  }
}